202007010010001100000000000000010564000000000000000105648000000000020321107878PARDO MARCOS LUIS MIGUEL      000000013500000000000000000000000000000000000000000000000000000000000000000000000000000000000000000000000000000002361375PES00010000001000000000000000020200701
202007010010001100000000000000010565000000000000000105658000000000030715244361FRESH GARDENS SA              000000005700000000000000000000000000000000000000000000000000000000000000000000000000000000000000000000000000000000944550PES00010000001000000000000000020200701
202007010010001100000000000000010566000000000000000105668000000000030710383126TM ROLDAN SRL                 000000005400000000000000000000000000000000000000000000000000000000000000000000000000000000000000000000000000000000850095PES00010000001000000000000000020200701
202007010010001400000000000000014417000000000000000144178000000000030708995327EL BAYO SERVICIOS AGROPECUARIO000000003358206000000000000000000000000000000000000000000000000000000000000000000000000000000000000000000000000000000000PES00010000001000000000000000020200701
202007010010001400000000000000014418000000000000000144188000000000030710387571TRANSPORTE FRIOS DEL NORTE SRL000000005041396000000000000000000000000000000000000000000000000000000000000000000000000000000000000000000000000000000000PES00010000001000000000000000020200701
202007010010001400000000000000014419000000000000000144198000000000033714576629HORMECO SRL                   000000003786820000000000000000000000000000000000000000000000000000000000000000000000000000000000000000000000000000000000PES00010000001000000000000000020200701
202007010010001400000000000000014420000000000000000144208000000000027252553512VIZCARRA ANALIA DEL VALLE     000000003600077000000000000000000000000000000000000000000000000000000000000000000000000000000000000000000000000000000000PES00010000001000000000000000020200701
202007010010001400000000000000014421000000000000000144218000000000023111033919CHIVILISCO HECTOR SALVADOR    000000001843869000000000000000000000000000000000000000000000000000000000000000000000000000000000000000000000000000000000PES00010000001000000000000000020200701
202007010010001400000000000000014422000000000000000144228000000000027304981097GOMEZ JESSICA NOELIA          000000000815810000000000000000000000000000000000000000000000000000000000000000000000000000000000000000000000000000000000PES00010000001000000000000000020200701
202007010010001400000000000000014423000000000000000144238000000000033714563209ALISOS SRL                    000000000275006000000000000000000000000000000000000000000000000000000000000000000000000000000000000000000000000000000000PES00010000001000000000000000020200701
202007010010001400000000000000014424000000000000000144248000000000030505517632VICENTE TRAPANI SA            000000000417763000000000000000000000000000000000000000000000000000000000000000000000000000000000000000000000000000000000PES00010000001000000000000000020200701
202007010010001400000000000000014425000000000000000144258000000000030505517632VICENTE TRAPANI SA            000000000417763000000000000000000000000000000000000000000000000000000000000000000000000000000000000000000000000000000000PES00010000001000000000000000020200701
202007010010001400000000000000014426000000000000000144268000000000030685655329PRODUCCION SA                 000000008379721000000000000000000000000000000000000000000000000000000000000000000000000000000000000000000000000000000000PES00010000001000000000000000020200701
202007010010001400000000000000014427000000000000000144278000000000020242701195GALLARDO PABLO JAVIER         000000000344745000000000000000000000000000000000000000000000000000000000000000000000000000000000000000000000000000000000PES00010000001000000000000000020200701
202007010010001400000000000000014428000000000000000144288000000000030716819856INDUSTRIAS SANTA BARBARA SRL E000000005041396000000000000000000000000000000000000000000000000000000000000000000000000000000000000000000000000000000000PES00010000001000000000000000020200701
202007010010001400000000000000014429000000000000000144298000000000020938619507MEDICI PEDRO FERRUCCIO        000000000275006000000000000000000000000000000000000000000000000000000000000000000000000000000000000000000000000000000000PES00010000001000000000000000020200701
202007010010001400000000000000014430000000000000000144308000000000027121973982DRUBE ELSA EMILIA             000000001144558000000000000000000000000000000000000000000000000000000000000000000000000000000000000000000000000000000000PES00010000001000000000000000020200701
202007010010001400000000000000014431000000000000000144318000000000030707582053COMBUSTIBLE ECOLOGICO SA      000000002986628000000000000000000000000000000000000000000000000000000000000000000000000000000000000000000000000000000000PES00010000001000000000000000020200701
202007010010001400000000000000014432000000000000000144328000000000030691771721LA PONDEROSA CITRUS SH        000000002994859000000000000000000000000000000000000000000000000000000000000000000000000000000000000000000000000000000000PES00010000001000000000000000020200701
202007010010001400000000000000014433000000000000000144338000000000020165403836GIANNINI NESTOR DANIEL        000000002445404000000000000000000000000000000000000000000000000000000000000000000000000000000000000000000000000000000000PES00010000001000000000000000020200701
202007010030001400000000000000002218000000000000000022188000000000027252553512VIZCARRA ANALIA DEL VALLE     000000000827993000000000000000000000000000000000000000000000000000000000000000000000000000000000000000000000000000000000PES00010000001000000000000000020200701
202007010030001400000000000000002219000000000000000022198000000000027252553512VIZCARRA ANALIA DEL VALLE     000000000598148000000000000000000000000000000000000000000000000000000000000000000000000000000000000000000000000000000000PES00010000001000000000000000020200701
202007010030001400000000000000002220000000000000000022208000000000027252553512VIZCARRA ANALIA DEL VALLE     000000000227937000000000000000000000000000000000000000000000000000000000000000000000000000000000000000000000000000000000PES00010000001000000000000000020200701
202007010030001400000000000000002221000000000000000022218000000000027304981097GOMEZ JESSICA NOELIA          000000000409279000000000000000000000000000000000000000000000000000000000000000000000000000000000000000000000000000000000PES00010000001000000000000000020200701
202007010030001400000000000000002222000000000000000022228000000000027252553512VIZCARRA ANALIA DEL VALLE     000000000360007000000000000000000000000000000000000000000000000000000000000000000000000000000000000000000000000000000000PES00010000001000000000000000020200701
202007010030001400000000000000002223000000000000000022238000000000027252553512VIZCARRA ANALIA DEL VALLE     000000000228071000000000000000000000000000000000000000000000000000000000000000000000000000000000000000000000000000000000PES00010000001000000000000000020200701
202007010030001400000000000000002224000000000000000022248000000000027252553512VIZCARRA ANALIA DEL VALLE     000000001549972000000000000000000000000000000000000000000000000000000000000000000000000000000000000000000000000000000000PES00010000001000000000000000020200701
202007010030001400000000000000002225000000000000000022258000000000030505517632VICENTE TRAPANI SA            000000000417763000000000000000000000000000000000000000000000000000000000000000000000000000000000000000000000000000000000PES00010000001000000000000000020200701
202007010030001400000000000000002226000000000000000022268000000000030685700022RODISA S.R.L                  000000000227971000000000000000000000000000000000000000000000000000000000000000000000000000000000000000000000000000000000PES00010000001000000000000000020200701
202007010030001400000000000000002227000000000000000022278000000000020377280378SZMYD JESUS EMMANUEL          000000000116051000000000000000000000000000000000000000000000000000000000000000000000000000000000000000000000000000000000PES00010000001000000000000000020200701
202007010080001400000000000000000662000000000000000006628000000000027058767196SARAVIA ELDA SINFOROSA        000000000787955000000000000000000000000000000000000000000000000000000000000000000000000000000000000000000000000000000000PES00010000001000000000000000020200701
202007010080001400000000000000000663000000000000000006638000000000020125623000CHANTA JULIO                  000000000228371000000000000000000000000000000000000000000000000000000000000000000000000000000000000000000000000000000000PES00010000001000000000000000020200701
202007010080001400000000000000000664000000000000000006648000000000020125623000CHANTA JULIO                  000000000268170000000000000000000000000000000000000000000000000000000000000000000000000000000000000000000000000000000000PES00010000001000000000000000020200701
202007020010001100000000000000010567000000000000000105678000000000030685674226BLAZQUEZ SRL                  000000013624999000000000000000000000000000000000000000000000000000000000000000000000000000000000000000000000000002361375PES00010000001000000000000000020200702
202007020010001100000000000000010568000000000000000105688000000000020117363490SOREGAROLI JOSE MARIO         000000016349999000000000000000000000000000000000000000000000000000000000000000000000000000000000000000000000000002833650PES00010000001000000000000000020200702
202007020010001100000000000000010569000000000000000105698000000000030707976957AGRO LAJITAS SA               000000017699999000000000000000000000000000000000000000000000000000000000000000000000000000000000000000000000000002833650PES00010000001000000000000000020200702
202007020010001100000000000000010570000000000000000105708000000000030710426917AGRO NEGOCIOS SRL             000000005450000000000000000000000000000000000000000000000000000000000000000000000000000000000000000000000000000000944550PES00010000001000000000000000020200702
202007020010001100000000000000010571000000000000000105718000000000023291350399SILVA SERGIO EDUARDO          000000087550000000000000000000000000000000000000000000000000000000000000000000000000000000000000000000000000000016057350PES00010000001000000000000000020200702
202007020010001400000000000000014434000000000000000144348000000000030675250657LOS CORONILLOS SRL            000000005981841000000000000000000000000000000000000000000000000000000000000000000000000000000000000000000000000000000000PES00010000001000000000000000020200702
202007020010001400000000000000014435000000000000000144358000000000020121212030FERNANDEZ MIGUEL ANGEL        000000002755609000000000000000000000000000000000000000000000000000000000000000000000000000000000000000000000000000000000PES00010000001000000000000000020200702
202007020010001400000000000000014436000000000000000144368000000000030710776780PETROLERA ANVA SRL            000000001671054000000000000000000000000000000000000000000000000000000000000000000000000000000000000000000000000000000000PES00010000001000000000000000020200702
202007020010001400000000000000014437000000000000000144378000000000027133986818PALACIOS CRISTINA DEL VALLE   000000003563933000000000000000000000000000000000000000000000000000000000000000000000000000000000000000000000000000000000PES00010000001000000000000000020200702
202007020010001400000000000000014438000000000000000144388000000000020298786487LECCESE PEDRO ALBERTO         000000004304495000000000000000000000000000000000000000000000000000000000000000000000000000000000000000000000000000000000PES00010000001000000000000000020200702
202007020010001400000000000000014439000000000000000144398000000000023070919249HERRERA JORGE ARMANDO         000000004225612000000000000000000000000000000000000000000000000000000000000000000000000000000000000000000000000000000000PES00010000001000000000000000020200702
202007020010001400000000000000014440000000000000000144408000000000023070919249HERRERA JORGE ARMANDO         000000000201578000000000000000000000000000000000000000000000000000000000000000000000000000000000000000000000000000000000PES00010000001000000000000000020200702
202007020010001400000000000000014441000000000000000144418000000000033613293979EMPRESA SAN ANTONIO SRL       000000001161606000000000000000000000000000000000000000000000000000000000000000000000000000000000000000000000000000000000PES00010000001000000000000000020200702
202007020010005100000000000000000226000000000000000002268000000000030710805306AGROPECUARIA LAS TRES SRL     000000017401312000000000000000000000000000000000000000000000000000000000000000000000000000000000000000000000000000000000PES00010000001000000000000000020200702
202007020010005200000000000000000236000000000000000002368000000000030708587342QUILLEN BERRIES S.A           000000001398448000000000000000000000000000000000000000000000000000000000000000000000000000000000000000000000000000000000PES00010000001000000000000000020200702
202007020010020000000000000000000050000000000000000000508000000000030515488479YPF GAS SA                    000000073909723000000000000000000000000000000000000000000000000000000000000000000000000000000000000000000000000000000000PES00010000001000000000000000020200702
202007030010001100000000000000010572000000000000000105728000000000030709767905COOP AGROPECUARIA LOS BARRIENT000000016349999000000000000000000000000000000000000000000000000000000000000000000000000000000000000000000000000002833650PES00010000001000000000000000020200703
202007030010001100000000000000010573000000000000000105738000000000030714922013DON BETO SRL (ST)             000000032699997000000000000000000000000000000000000000000000000000000000000000000000000000000000000000000000000005667300PES00010000001000000000000000020200703
202007030010001100000000000000010574000000000000000105748000000000030716819856INDUSTRIAS SANTA BARBARA SRL E000000005450000000000000000000000000000000000000000000000000000000000000000000000000000000000000000000000000000000944550PES00010000001000000000000000020200703
202007030010001100000000000000010575000000000000000105758000000000020399744939MIRANDA ARIEL MATIAS (ST)     000000027249998000000000000000000000000000000000000000000000000000000000000000000000000000000000000000000000000004722750PES00010000001000000000000000020200703
202007030010001100000000000000010576000000000000000105768000000000020173378603JUAREZ ANTONIO ARMANDO (ST)   000000016349999000000000000000000000000000000000000000000000000000000000000000000000000000000000000000000000000002833650PES00010000001000000000000000020200703
202007030010001100000000000000010577000000000000000105778000000000020222830266AMADO HECTOR RAUL             000000005400000000000000000000000000000000000000000000000000000000000000000000000000000000000000000000000000000000944550PES00010000001000000000000000020200703
202007030010001100000000000000010578000000000000000105788000000000030716246279JULIANY SAS                   000000017700000000000000000000000000000000000000000000000000000000000000000000000000000000000000000000000000000002833650PES00010000001000000000000000020200703
202007030010001100000000000000010579000000000000000105798000000000020285315671ROTH GERARDO ARIEL            000000013500000000000000000000000000000000000000000000000000000000000000000000000000000000000000000000000000000002361375PES00010000001000000000000000020200703
202007030010001100000000000000010580000000000000000105808000000000030708554274PORA VE SRL                   000000026000000000000000000000000000000000000000000000000000000000000000000000000000000000000000000000000000000004722750PES00010000001000000000000000020200703
202007030010001100000000000000010581000000000000000105818000000000030708067837AGRICOLA DE LEALES SC         000000037100000000000000000000000000000000000000000000000000000000000000000000000000000000000000000000000000000006611850PES00010000001000000000000000020200703
202007030010001100000000000000010582000000000000000105828000000000020070077176GHIGGIA JOSE ALFREDO          000000050000000000000000000000000000000000000000000000000000000000000000000000000000000000000000000000000000000009445500PES00010000001000000000000000020200703
202007030010001100000000000000010583000000000000000105838000000000020229693868ROTTA MANUEL JUAN             000000032399999000000000000000000000000000000000000000000000000000000000000000000000000000000000000000000000000005667300PES00010000001000000000000000020200703
202007030010001400000000000000014442000000000000000144428000000000033668082489EL VIEJO SA                   000000003598000000000000000000000000000000000000000000000000000000000000000000000000000000000000000000000000000000000000PES00010000001000000000000000020200703
202007030010001400000000000000014443000000000000000144438000000000033668082489EL VIEJO SA                   000000003598000000000000000000000000000000000000000000000000000000000000000000000000000000000000000000000000000000000000PES00010000001000000000000000020200703
202007030010001400000000000000014444000000000000000144448000000000027305981120CANGEMI IVANNA MARCELA        000000005457110000000000000000000000000000000000000000000000000000000000000000000000000000000000000000000000000000000000PES00010000001000000000000000020200703
202007030010001400000000000000014445000000000000000144458000000000020276318889VILLAGRA ALFREDO DANIEL       000000003189364000000000000000000000000000000000000000000000000000000000000000000000000000000000000000000000000000000000PES00010000001000000000000000020200703
202007030010001400000000000000014446000000000000000144468000000000030714764310ARIAS DANTE,VICTOR Y WILLIAM S000000001161606000000000000000000000000000000000000000000000000000000000000000000000000000000000000000000000000000000000PES00010000001000000000000000020200703
202007030010001400000000000000014447000000000000000144478000000000020135630110MENA CARLOS ADOLFO            000000004178514000000000000000000000000000000000000000000000000000000000000000000000000000000000000000000000000000000000PES00010000001000000000000000020200703
202007030010001400000000000000014448000000000000000144488000000000030710776780PETROLERA ANVA SRL            000000000703763000000000000000000000000000000000000000000000000000000000000000000000000000000000000000000000000000000000PES00010000001000000000000000020200703
202007030010001400000000000000014449000000000000000144498000000000027284964425RACEDO ROSANA ESTER RI        000000001084859000000000000000000000000000000000000000000000000000000000000000000000000000000000000000000000000000000000PES00010000001000000000000000020200703
202007030010001400000000000000014450000000000000000144508000000000027284964425RACEDO ROSANA ESTER RI        000000002747783000000000000000000000000000000000000000000000000000000000000000000000000000000000000000000000000000000000PES00010000001000000000000000020200703
202007030010001400000000000000014451000000000000000144518000000000027240071482VILLAVICENCIO MARIA DE LOS ANG000000001592466000000000000000000000000000000000000000000000000000000000000000000000000000000000000000000000000000000000PES00010000001000000000000000020200703
202007030010001400000000000000014452000000000000000144528000000000020324610821CORTI DIEGO JAVIER            000000004027089000000000000000000000000000000000000000000000000000000000000000000000000000000000000000000000000000000000PES00010000001000000000000000020200703
202007030010001400000000000000014453000000000000000144538000000000020202185658AHUMADA ROBERTO               000000002986982000000000000000000000000000000000000000000000000000000000000000000000000000000000000000000000000000000000PES00010000001000000000000000020200703
202007030010001400000000000000014454000000000000000144548000000000033708025939CIA YESERA DEL NORTE SRL      000000005041396000000000000000000000000000000000000000000000000000000000000000000000000000000000000000000000000000000000PES00010000001000000000000000020200703
202007030010001400000000000000014455000000000000000144558000000000030711642532CENTRO DE SERVICIOS DEL ESTE S000000006980936000000000000000000000000000000000000000000000000000000000000000000000000000000000000000000000000000000000PES00010000001000000000000000020200703
202007030010001400000000000000014456000000000000000144568000000000023142250829RODRIGUEZ CARLOS DANIEL       000000066257500000000000000000000000000000000000000000000000000000000000000000000000000000000000000000000000000000000000PES00010000001000000000000000020200703
202007030010001400000000000000014457000000000000000144578000000000020296739554MUHIC GIANNI MIRKO            000000011684642000000000000000000000000000000000000000000000000000000000000000000000000000000000000000000000000000000000PES00010000001000000000000000020200703
202007030010001400000000000000014458000000000000000144588000000000020080671998CARRIZO JUAN GREGORIO         000000002874291000000000000000000000000000000000000000000000000000000000000000000000000000000000000000000000000000000000PES00010000001000000000000000020200703
202007030010001600000000000000000766000000000000000007668000000000020296739554MUHIC GIANNI MIRKO            000000000715667000000000000000000000000000000000000000000000000000000000000000000000000000000000000000000000000000000000PES00010000001000000000000000020200703
202007030030001100000000000000000505000000000000000005058000000000023110300999MEMBRIBES PABLO               000000000747300000000000000000000000000000000000000000000000000000000000000000000000000000000000000000000000000000000000PES00010000001000000000000000020200703
202007030030001400000000000000002228000000000000000022288000000000033668082489EL VIEJO SA                   000000003598000000000000000000000000000000000000000000000000000000000000000000000000000000000000000000000000000000000000PES00010000001000000000000000020200703
202007030060001400000000000000003940000000000000000039408000000000020076289310CORTI CESAR ARMANDO           000000004027089000000000000000000000000000000000000000000000000000000000000000000000000000000000000000000000000000000000PES00010000001000000000000000020200703
202007030060001400000000000000003941000000000000000039418000000000020166931038RODRIGUEZ JOSE ALBERTO        000000001051553000000000000000000000000000000000000000000000000000000000000000000000000000000000000000000000000000000000PES00010000001000000000000000020200703
202007030060001400000000000000003942000000000000000039428000000000020171400326CASERES RAMON RENATO          000000005726538000000000000000000000000000000000000000000000000000000000000000000000000000000000000000000000000000000000PES00010000001000000000000000020200703
202007030060001400000000000000003943000000000000000039438000000000020273010522ROMANO DANIEL H               000000001485875000000000000000000000000000000000000000000000000000000000000000000000000000000000000000000000000000000000PES00010000001000000000000000020200703
202007040010001100000000000000010584000000000000000105848000000000030715261517SERCOU SRL                    000000007950000000000000000000000000000000000000000000000000000000000000000000000000000000000000000000000000000001416825PES00010000001000000000000000020200704
202007040010001100000000000000010585000000000000000105858000000000030708892277LA CASUARINA SRL              000000010600000000000000000000000000000000000000000000000000000000000000000000000000000000000000000000000000000001889100PES00010000001000000000000000020200704
202007040010001100000000000000010586000000000000000105868000000000030685646389VITRASERV SRL                 000000005450000000000000000000000000000000000000000000000000000000000000000000000000000000000000000000000000000000944550PES00010000001000000000000000020200704
202007040010001100000000000000010587000000000000000105878000000000023291350399SILVA SERGIO EDUARDO          000000087550000000000000000000000000000000000000000000000000000000000000000000000000000000000000000000000000000016057350PES00010000001000000000000000020200704
202007040010001100000000000000010588000000000000000105888000000000020142208289MENGO DANIEL                  000000015900000000000000000000000000000000000000000000000000000000000000000000000000000000000000000000000000000002833650PES00010000001000000000000000020200704
202007040010001400000000000000014459000000000000000144598000000000030708067837AGRICOLA DE LEALES SC         000000000325359000000000000000000000000000000000000000000000000000000000000000000000000000000000000000000000000000000000PES00010000001000000000000000020200704
202007040010005200000000000000000237000000000000000002378000000000030708067837AGRICOLA DE LEALES SC         000000001933842000000000000000000000000000000000000000000000000000000000000000000000000000000000000000000000000000000000PES00010000001000000000000000020200704
202007040030001100000000000000000506000000000000000005068000000000020167817719MONASTRA HUGO ALBERTO         000000005450000000000000000000000000000000000000000000000000000000000000000000000000000000000000000000000000000000944550PES00010000001000000000000000020200704
202007040030001400000000000000002229000000000000000022298000000000020298786487LECCESE PEDRO ALBERTO         000000000410495000000000000000000000000000000000000000000000000000000000000000000000000000000000000000000000000000000000PES00010000001000000000000000020200704
202007040030005200000000000000000026000000000000000000268000000000020228068854FLORES RAFAEL EDGARDO         000000000348390000000000000000000000000000000000000000000000000000000000000000000000000000000000000000000000000000000000PES00010000001000000000000000020200704
202007060010001100000000000000010589000000000000000105898000000000030709628255PACTA SRL                     000000016200000000000000000000000000000000000000000000000000000000000000000000000000000000000000000000000000000002833650PES00010000001000000000000000020200706
202007060010001100000000000000010590000000000000000105908000000000030708913266TRANSPORTE HACHA DE PIEDRA SRL000000052166501000000000000000000000000000000000000000000000000000000000000000000000000000000000000000000000000009757202PES00010000001000000000000000020200706
202007060010001100000000000000010591000000000000000105918000000000030626009618EXPRESO RIVADAVIA SRL         000000040325698000000000000000000000000000000000000000000000000000000000000000000000000000000000000000000000000007468557PES00010000001000000000000000020200706
202007060010001100000000000000010592000000000000000105928000000000020080994819BRAVO ZAVALETA ARMANDO MANUEL 000000017100000000000000000000000000000000000000000000000000000000000000000000000000000000000000000000000000000002833650PES00010000001000000000000000020200706
202007060010001100000000000000010593000000000000000105938000000000020377280378SZMYD JESUS EMMANUEL          000000016650000000000000000000000000000000000000000000000000000000000000000000000000000000000000000000000000000002833650PES00010000001000000000000000020200706
202007060010001100000000000000010594000000000000000105948000000000030702409310LA BAJADA SA                  000000015900000000000000000000000000000000000000000000000000000000000000000000000000000000000000000000000000000002833650PES00010000001000000000000000020200706
202007060010001300000000000000000107000000000000000001078000000000030515488479YPF GAS SA                    000000010123697000000000000000000000000000000000000000000000000000000000000000000000000000000000000000000000000000000000PES00010000001000000000000000020200706
202007060010001400000000000000014460000000000000000144608000000000030716484129TRAPANI FRESH                 000000002994859000000000000000000000000000000000000000000000000000000000000000000000000000000000000000000000000000000000PES00010000001000000000000000020200706
202007060010001400000000000000014461000000000000000144618000000000033715861459GRUPO MUNOZ SRL               000000002994859000000000000000000000000000000000000000000000000000000000000000000000000000000000000000000000000000000000PES00010000001000000000000000020200706
202007060010001400000000000000014462000000000000000144628000000000023311284339CARRASCO RAUL RICARDO         000000006479974000000000000000000000000000000000000000000000000000000000000000000000000000000000000000000000000000000000PES00010000001000000000000000020200706
202007060010001400000000000000014463000000000000000144638000000000033709627509GARCIA GROUP SRL              000000002986628000000000000000000000000000000000000000000000000000000000000000000000000000000000000000000000000000000000PES00010000001000000000000000020200706
202007060010001400000000000000014464000000000000000144648000000000030675415087CIA AZUCARERA LOS BALCANES SA 000000005895378000000000000000000000000000000000000000000000000000000000000000000000000000000000000000000000000000000000PES00010000001000000000000000020200706
202007060010001400000000000000014465000000000000000144658000000000030675415087CIA AZUCARERA LOS BALCANES SA 000000006202429000000000000000000000000000000000000000000000000000000000000000000000000000000000000000000000000000000000PES00010000001000000000000000020200706
202007060010001400000000000000014466000000000000000144668000000000020080994819BRAVO ZAVALETA ARMANDO MANUEL 000000000638818000000000000000000000000000000000000000000000000000000000000000000000000000000000000000000000000000000000PES00010000001000000000000000020200706
202007060010001400000000000000014467000000000000000144678000000000033714576629HORMECO SRL                   000000010909344000000000000000000000000000000000000000000000000000000000000000000000000000000000000000000000000000000000PES00010000001000000000000000020200706
202007060010001400000000000000014468000000000000000144688000000000020104320784SILVA ANGEL CUSTODIO          000000002986628000000000000000000000000000000000000000000000000000000000000000000000000000000000000000000000000000000000PES00010000001000000000000000020200706
202007060010001400000000000000014469000000000000000144698000000000030523408247CERAMICA MARCOS PAZ SRL       000000006489447000000000000000000000000000000000000000000000000000000000000000000000000000000000000000000000000000000000PES00010000001000000000000000020200706
202007060030001100000000000000000507000000000000000005078000000000030708913266TRANSPORTE HACHA DE PIEDRA SRL000000001893750000000000000000000000000000000000000000000000000000000000000000000000000000000000000000000000000000354206PES00010000001000000000000000020200706
202007060030001400000000000000002230000000000000000022308000000000020217466769SORBELLO VICTOR HUGO          000000001067866000000000000000000000000000000000000000000000000000000000000000000000000000000000000000000000000000000000PES00010000001000000000000000020200706
202007060030001400000000000000002231000000000000000022318000000000023119096669VILLAFANE LUIS ANTONIO LV     000000000030729000000000000000000000000000000000000000000000000000000000000000000000000000000000000000000000000000000000PES00010000001000000000000000020200706
202007060060001400000000000000003944000000000000000039448000000000020222334765ONTIVEROS GUSTAVO             000000006236128000000000000000000000000000000000000000000000000000000000000000000000000000000000000000000000000000000000PES00010000001000000000000000020200706
202007060060001400000000000000003945000000000000000039458000000000020273010522ROMANO DANIEL H               000000001729434000000000000000000000000000000000000000000000000000000000000000000000000000000000000000000000000000000000PES00010000001000000000000000020200706
202007060060001400000000000000003946000000000000000039468000000000020112675214LIZARRAGA EDMUNDO ANTONIO     000000009535676000000000000000000000000000000000000000000000000000000000000000000000000000000000000000000000000000000000PES00010000001000000000000000020200706
202007060060001400000000000000003947000000000000000039478000000000020117077374SALAZAR JUAN JOSE             000000002279371000000000000000000000000000000000000000000000000000000000000000000000000000000000000000000000000000000000PES00010000001000000000000000020200706
202007070010001100000000000000010595000000000000000105958000000000030626009618EXPRESO RIVADAVIA SRL         000000017931599000000000000000000000000000000000000000000000000000000000000000000000000000000000000000000000000003321038PES00010000001000000000000000020200707
202007070010001100000000000000010596000000000000000105968000000000020134795876SIGSTAD JUAN                  000000011000001000000000000000000000000000000000000000000000000000000000000000000000000000000000000000000000000001889100PES00010000001000000000000000020200707
202007070010001100000000000000010597000000000000000105978000000000033714757429NOBEN SRL                     000000027500000000000000000000000000000000000000000000000000000000000000000000000000000000000000000000000000000004722750PES00010000001000000000000000020200707
202007070010001100000000000000010598000000000000000105988000000000030711384185RIO BLANCO DEL TONTON SRL     000000008100000000000000000000000000000000000000000000000000000000000000000000000000000000000000000000000000000001416825PES00010000001000000000000000020200707
202007070010001100000000000000010599000000000000000105998000000000020185059007VITAR MANUEL FERNANDO         000000008250000000000000000000000000000000000000000000000000000000000000000000000000000000000000000000000000000001416825PES00010000001000000000000000020200707
202007070010001100000000000000010600000000000000000106008000000000030620919922RF y J BUDEGUER SRL           000000008250000000000000000000000000000000000000000000000000000000000000000000000000000000000000000000000000000001416825PES00010000001000000000000000020200707
202007070010001100000000000000010601000000000000000106018000000000020177694542CUCCO JAVIER ALBERTO          000000010400000000000000000000000000000000000000000000000000000000000000000000000000000000000000000000000000000001889100PES00010000001000000000000000020200707
202007070010001400000000000000014470000000000000000144708000000000030601705148BATCON S.R.L. 1               000000000733514000000000000000000000000000000000000000000000000000000000000000000000000000000000000000000000000000000000PES00010000001000000000000000020200707
202007070010001400000000000000014471000000000000000144718000000000020341013101RUTKEVICIUS PEDRO MARTIN      000000004320000000000000000000000000000000000000000000000000000000000000000000000000000000000000000000000000000000000000PES00010000001000000000000000020200707
202007070010001400000000000000014472000000000000000144728000000000027284964425RACEDO ROSANA ESTER RI        000000007620163000000000000000000000000000000000000000000000000000000000000000000000000000000000000000000000000000000000PES00010000001000000000000000020200707
202007070010001400000000000000014473000000000000000144738000000000020107615203RACEDO JESUS SANTIAGO RI      000000003117998000000000000000000000000000000000000000000000000000000000000000000000000000000000000000000000000000000000PES00010000001000000000000000020200707
202007070010001400000000000000014474000000000000000144748000000000020125412417SOLORZANO JOSE LUIS RI        000000002279371000000000000000000000000000000000000000000000000000000000000000000000000000000000000000000000000000000000PES00010000001000000000000000020200707
202007070010001400000000000000014475000000000000000144758000000000020385092653ALDERETE CLAUDIO FABIAN RI    000000002279371000000000000000000000000000000000000000000000000000000000000000000000000000000000000000000000000000000000PES00010000001000000000000000020200707
202007070010001400000000000000014476000000000000000144768000000000020135630900RODRIGUEZ MARCELO OSVALDO     000000002863066000000000000000000000000000000000000000000000000000000000000000000000000000000000000000000000000000000000PES00010000001000000000000000020200707
202007070010001400000000000000014477000000000000000144778000000000027175744067ACOSTA HILDA ADRIANA          000000003577147000000000000000000000000000000000000000000000000000000000000000000000000000000000000000000000000000000000PES00010000001000000000000000020200707
202007070010001400000000000000014478000000000000000144788000000000030702388356CHABAN HNOS S.H DE PAULINO Y A000000002986982000000000000000000000000000000000000000000000000000000000000000000000000000000000000000000000000000000000PES00010000001000000000000000020200707
202007070010001400000000000000014479000000000000000144798000000000033707560679LA MARTINA SERVICIOS AGRICOLAS000000005981487000000000000000000000000000000000000000000000000000000000000000000000000000000000000000000000000000000000PES00010000001000000000000000020200707
202007070010001400000000000000014480000000000000000144808000000000033707560679LA MARTINA SERVICIOS AGRICOLAS000000006773448000000000000000000000000000000000000000000000000000000000000000000000000000000000000000000000000000000000PES00010000001000000000000000020200707
202007070010001400000000000000014481000000000000000144818000000000020104320784SILVA ANGEL CUSTODIO          000000003563933000000000000000000000000000000000000000000000000000000000000000000000000000000000000000000000000000000000PES00010000001000000000000000020200707
202007070010001400000000000000014482000000000000000144828000000000027328292217CARRIZO NOELIA DEL VALLE      000000001467285000000000000000000000000000000000000000000000000000000000000000000000000000000000000000000000000000000000PES00010000001000000000000000020200707
202007070010001400000000000000014483000000000000000144838000000000030691771721LA PONDEROSA CITRUS SH        000000006558792000000000000000000000000000000000000000000000000000000000000000000000000000000000000000000000000000000000PES00010000001000000000000000020200707
202007070010001400000000000000014484000000000000000144848000000000030714764310ARIAS DANTE,VICTOR Y WILLIAM S000000003563933000000000000000000000000000000000000000000000000000000000000000000000000000000000000000000000000000000000PES00010000001000000000000000020200707
202007070010001400000000000000014485000000000000000144858000000000020275045862ARIAS NELSON OSCAR            000000001161606000000000000000000000000000000000000000000000000000000000000000000000000000000000000000000000000000000000PES00010000001000000000000000020200707
202007070010001400000000000000014486000000000000000144868000000000030685700022RODISA S.R.L                  000000002279371000000000000000000000000000000000000000000000000000000000000000000000000000000000000000000000000000000000PES00010000001000000000000000020200707
202007070010001400000000000000014487000000000000000144878000000000030523408247CERAMICA MARCOS PAZ SRL       000000003786820000000000000000000000000000000000000000000000000000000000000000000000000000000000000000000000000000000000PES00010000001000000000000000020200707
202007070010001400000000000000014488000000000000000144888000000000020938619507MEDICI PEDRO FERRUCCIO        000000002422194000000000000000000000000000000000000000000000000000000000000000000000000000000000000000000000000000000000PES00010000001000000000000000020200707
202007070010001400000000000000014489000000000000000144898000000000020318542911VARGAS RUBEN ALBERTO          000000001142230000000000000000000000000000000000000000000000000000000000000000000000000000000000000000000000000000000000PES00010000001000000000000000020200707
202007070010001600000000000000000767000000000000000007678000000000020053989331MUNOZ ANTONIO GERARDO         000000001158765000000000000000000000000000000000000000000000000000000000000000000000000000000000000000000000000000000000PES00010000001000000000000000020200707
202007070010005200000000000000000238000000000000000002388000000000027170408980MARTINEZ ZUCCARDI ARIADNA I   000000017171700000000000000000000000000000000000000000000000000000000000000000000000000000000000000000000000000000000000PES00010000001000000000000000020200707
202007070030001100000000000000000508000000000000000005088000000000030708913266TRANSPORTE HACHA DE PIEDRA SRL000000000047470000000000000000000000000000000000000000000000000000000000000000000000000000000000000000000000000000008879PES00010000001000000000000000020200707
202007070030001400000000000000002232000000000000000022328000000000030712577807LAS VALKIRIAS SRL             000000000168012000000000000000000000000000000000000000000000000000000000000000000000000000000000000000000000000000000000PES00010000001000000000000000020200707
202007070060001400000000000000003948000000000000000039488000000000020255437861FRIAS JOSE LUIS               000000002279371000000000000000000000000000000000000000000000000000000000000000000000000000000000000000000000000000000000PES00010000001000000000000000020200707
202007070060001400000000000000003949000000000000000039498000000000020125623000CHANTA JULIO                  000000000317733000000000000000000000000000000000000000000000000000000000000000000000000000000000000000000000000000000000PES00010000001000000000000000020200707
202007070060001400000000000000003950000000000000000039508000000000020318573833NAVARRO DEL PINO JUAN MANUEL  000000003907514000000000000000000000000000000000000000000000000000000000000000000000000000000000000000000000000000000000PES00010000001000000000000000020200707
202007070060001400000000000000003951000000000000000039518000000000020377274165TORRES GUILLERMO MARCELINO    000000000858824000000000000000000000000000000000000000000000000000000000000000000000000000000000000000000000000000000000PES00010000001000000000000000020200707
202007070060001400000000000000003952000000000000000039528000000000027058767196SARAVIA ELDA SINFOROSA        000000005981487000000000000000000000000000000000000000000000000000000000000000000000000000000000000000000000000000000000PES00010000001000000000000000020200707
202007070080001400000000000000000665000000000000000006658000000000033659453199MUNICIPALIDAD DE LA COCHA     000000000420902000000000000000000000000000000000000000000000000000000000000000000000000000000000000000000000000000000000PES00010000001000000000000000020200707
202007080010001100000000000000010602000000000000000106028000000000023291350399SILVA SERGIO EDUARDO          000000087550000000000000000000000000000000000000000000000000000000000000000000000000000000000000000000000000000016057350PES00010000001000000000000000020200708
202007080010001100000000000000010603000000000000000106038000000000020285315671ROTH GERARDO ARIEL            000000010800000000000000000000000000000000000000000000000000000000000000000000000000000000000000000000000000000001889100PES00010000001000000000000000020200708
202007080010001100000000000000010604000000000000000106048000000000030710383126TM ROLDAN SRL                 000000004320000000000000000000000000000000000000000000000000000000000000000000000000000000000000000000000000000000755640PES00010000001000000000000000020200708
202007080010001100000000000000010605000000000000000106058000000000030715261517SERCOU SRL                    000000015600000000000000000000000000000000000000000000000000000000000000000000000000000000000000000000000000000002833650PES00010000001000000000000000020200708
202007080010001100000000000000010606000000000000000106068000000000030708067837AGRICOLA DE LEALES SC         000000037100000000000000000000000000000000000000000000000000000000000000000000000000000000000000000000000000000006611850PES00010000001000000000000000020200708
202007080010001100000000000000010607000000000000000106078000000000030691782057DARDO JESUS SH                000000008025000000000000000000000000000000000000000000000000000000000000000000000000000000000000000000000000000001416825PES00010000001000000000000000020200708
202007080010001100000000000000010608000000000000000106088000000000020321107878PARDO MARCOS LUIS MIGUEL      000000010800000000000000000000000000000000000000000000000000000000000000000000000000000000000000000000000000000001889100PES00010000001000000000000000020200708
202007080010001100000000000000010609000000000000000106098000000000030626009618EXPRESO RIVADAVIA SRL         000000012194100000000000000000000000000000000000000000000000000000000000000000000000000000000000000000000000000002258419PES00010000001000000000000000020200708
202007080010001100000000000000010610000000000000000106108000000000020070077176GHIGGIA JOSE ALFREDO          000000021430000000000000000000000000000000000000000000000000000000000000000000000000000000000000000000000000000004048341PES00010000001000000000000000020200708
202007080010001100000000000000010611000000000000000106118000000000020070077176GHIGGIA JOSE ALFREDO          000000010650000000000000000000000000000000000000000000000000000000000000000000000000000000000000000000000000000002011892PES00010000001000000000000000020200708
202007080010001100000000000000010612000000000000000106128000000000020136744314BRIZ RAMON OSCAR              000000104856000000000000000000000000000000000000000000000000000000000000000000000000000000000000000000000000000019419948PES00010000001000000000000000020200708
202007080010001400000000000000014490000000000000000144908000000000020160599988DIAZ JOSE LUIS                000000002994859000000000000000000000000000000000000000000000000000000000000000000000000000000000000000000000000000000000PES00010000001000000000000000020200708
202007080010001400000000000000014491000000000000000144918000000000030707728805PROYECTOS METALURGICOS S.A.   000000002445404000000000000000000000000000000000000000000000000000000000000000000000000000000000000000000000000000000000PES00010000001000000000000000020200708
202007080010001400000000000000014492000000000000000144928000000000030708995327EL BAYO SERVICIOS AGROPECUARIO000000002161726000000000000000000000000000000000000000000000000000000000000000000000000000000000000000000000000000000000PES00010000001000000000000000020200708
202007080010001400000000000000014493000000000000000144938000000000030707382399OBATOWN COMPANY SA            000000001188956000000000000000000000000000000000000000000000000000000000000000000000000000000000000000000000000000000000PES00010000001000000000000000020200708
202007080010001400000000000000014494000000000000000144948000000000030707728805PROYECTOS METALURGICOS S.A.   000000002445404000000000000000000000000000000000000000000000000000000000000000000000000000000000000000000000000000000000PES00010000001000000000000000020200708
202007080010001400000000000000014495000000000000000144958000000000033708668759ACHERAL S.A.                  000000002445404000000000000000000000000000000000000000000000000000000000000000000000000000000000000000000000000000000000PES00010000001000000000000000020200708
202007080010001400000000000000014496000000000000000144968000000000030523408247CERAMICA MARCOS PAZ SRL       000000002445404000000000000000000000000000000000000000000000000000000000000000000000000000000000000000000000000000000000PES00010000001000000000000000020200708
202007080010001400000000000000014497000000000000000144978000000000020290448515VILLALON MARTIN ANTONIO       000000008721348000000000000000000000000000000000000000000000000000000000000000000000000000000000000000000000000000000000PES00010000001000000000000000020200708
202007080010001400000000000000014498000000000000000144988000000000030712992006TIERRA DE BERRIES SA          000000001000247000000000000000000000000000000000000000000000000000000000000000000000000000000000000000000000000000000000PES00010000001000000000000000020200708
202007080010001400000000000000014499000000000000000144998000000000020070077176GHIGGIA JOSE ALFREDO          000000001000247000000000000000000000000000000000000000000000000000000000000000000000000000000000000000000000000000000000PES00010000001000000000000000020200708
202007080010001400000000000000014500000000000000000145008000000000020119103879MARTINEZ ZUCCARDI JORGE A     000000003401160000000000000000000000000000000000000000000000000000000000000000000000000000000000000000000000000000000000PES00010000001000000000000000020200708
202007080010001400000000000000014501000000000000000145018000000000020135630900RODRIGUEZ MARCELO OSVALDO     000000002375566000000000000000000000000000000000000000000000000000000000000000000000000000000000000000000000000000000000PES00010000001000000000000000020200708
202007080010001400000000000000014502000000000000000145028000000000020100150582MEDINA BENIGNO NOLASCO        000000008959885000000000000000000000000000000000000000000000000000000000000000000000000000000000000000000000000000000000PES00010000001000000000000000020200708
202007080010001400000000000000014503000000000000000145038000000000027175744067ACOSTA HILDA ADRIANA          000000000405135000000000000000000000000000000000000000000000000000000000000000000000000000000000000000000000000000000000PES00010000001000000000000000020200708
202007080010001400000000000000014504000000000000000145048000000000027175744067ACOSTA HILDA ADRIANA          000000000364621000000000000000000000000000000000000000000000000000000000000000000000000000000000000000000000000000000000PES00010000001000000000000000020200708
202007080010001400000000000000014505000000000000000145058000000000030709702390YABITEL SA                    000000021896266000000000000000000000000000000000000000000000000000000000000000000000000000000000000000000000000000000000PES00010000001000000000000000020200708
202007080010001400000000000000014506000000000000000145068000000000020134760029BOUHIER NORBERTO ABEL         000000000323371000000000000000000000000000000000000000000000000000000000000000000000000000000000000000000000000000000000PES00010000001000000000000000020200708
202007080010001400000000000000014507000000000000000145078000000000020296739554MUHIC GIANNI MIRKO            000000002766042000000000000000000000000000000000000000000000000000000000000000000000000000000000000000000000000000000000PES00010000001000000000000000020200708
202007080010001400000000000000014508000000000000000145088000000000030680020376TESA TRANSPORTE EJECUTIVO SA  000000003563933000000000000000000000000000000000000000000000000000000000000000000000000000000000000000000000000000000000PES00010000001000000000000000020200708
202007080010001400000000000000014509000000000000000145098000000000030715102761ARIDOS CALERA SRL             000000002445404000000000000000000000000000000000000000000000000000000000000000000000000000000000000000000000000000000000PES00010000001000000000000000020200708
202007080010001400000000000000014510000000000000000145108000000000033707560679LA MARTINA SERVICIOS AGRICOLAS000000005981841000000000000000000000000000000000000000000000000000000000000000000000000000000000000000000000000000000000PES00010000001000000000000000020200708
202007080010001400000000000000014511000000000000000145118000000000030712272542OLGA ZOTTOLA DE SIMONETO E HIJ000000001527932000000000000000000000000000000000000000000000000000000000000000000000000000000000000000000000000000000000PES00010000001000000000000000020200708
202007080010001400000000000000014512000000000000000145128000000000030708256354ANTONIO F LA BRUNA SRL        000000012727362000000000000000000000000000000000000000000000000000000000000000000000000000000000000000000000000000000000PES00010000001000000000000000020200708
202007080010001400000000000000014513000000000000000145138000000000020285993947SUAREZ MIGUEL ANGEL           000000000410675000000000000000000000000000000000000000000000000000000000000000000000000000000000000000000000000000000000PES00010000001000000000000000020200708
202007080010001600000000000000000768000000000000000007688000000000030714372153SOLANO SA                     000000004904073000000000000000000000000000000000000000000000000000000000000000000000000000000000000000000000000000000000PES00010000001000000000000000020200708
202007080010005200000000000000000239000000000000000002398000000000030639227096INTRA S.R.L.                  000000000540029000000000000000000000000000000000000000000000000000000000000000000000000000000000000000000000000000000000PES00010000001000000000000000020200708
202007080030001500000000000000000082000000000000000000828000000000030546689979YPF SA                        000000015306857000000000000000000000000000000000000000000000000000000000000000000000000000000000000000000000000000000000PES00010000001000000000000000020200708
202007080030001500000000000000000083000000000000000000838000000000030546689979YPF SA                        000000016186956000000000000000000000000000000000000000000000000000000000000000000000000000000000000000000000000000000000PES00010000001000000000000000020200708
202007080030001500000000000000000084000000000000000000848000000000030546689979YPF SA                        000000001683694000000000000000000000000000000000000000000000000000000000000000000000000000000000000000000000000000000000PES00010000001000000000000000020200708
202007080030001100000000000000000509000000000000000005098000000000030710383126TM ROLDAN SRL                 000000004320000000000000000000000000000000000000000000000000000000000000000000000000000000000000000000000000000000755640PES00010000001000000000000000020200708
202007080030001400000000000000002233000000000000000022338000000000030523408247CERAMICA MARCOS PAZ SRL       000000002445404000000000000000000000000000000000000000000000000000000000000000000000000000000000000000000000000000000000PES00010000001000000000000000020200708
202007080030001400000000000000002234000000000000000022348000000000027175744067ACOSTA HILDA ADRIANA          000000000405135000000000000000000000000000000000000000000000000000000000000000000000000000000000000000000000000000000000PES00010000001000000000000000020200708
202007080060001400000000000000003953000000000000000039538000000000027058767196SARAVIA ELDA SINFOROSA        000000002445404000000000000000000000000000000000000000000000000000000000000000000000000000000000000000000000000000000000PES00010000001000000000000000020200708
202007080060001400000000000000003954000000000000000039548000000000020377274165TORRES GUILLERMO MARCELINO    000000002279371000000000000000000000000000000000000000000000000000000000000000000000000000000000000000000000000000000000PES00010000001000000000000000020200708
202007080060001400000000000000003955000000000000000039558000000000020166931038RODRIGUEZ JOSE ALBERTO        000000001227604000000000000000000000000000000000000000000000000000000000000000000000000000000000000000000000000000000000PES00010000001000000000000000020200708
202007110010001100000000000000010613000000000000000106138000000000023291350399SILVA SERGIO EDUARDO          000000087550000000000000000000000000000000000000000000000000000000000000000000000000000000000000000000000000000016057350PES00010000001000000000000000020200711
202007110010001100000000000000010614000000000000000106148000000000030708067837AGRICOLA DE LEALES SC         000000018550000000000000000000000000000000000000000000000000000000000000000000000000000000000000000000000000000003305925PES00010000001000000000000000020200711
202007110010001100000000000000010615000000000000000106158000000000030715261517SERCOU SRL                    000000015600000000000000000000000000000000000000000000000000000000000000000000000000000000000000000000000000000002833650PES00010000001000000000000000020200711
202007110010001100000000000000010616000000000000000106168000000000030714429732AGRO SERVICIOS SH             000000020800000000000000000000000000000000000000000000000000000000000000000000000000000000000000000000000000000003778200PES00010000001000000000000000020200711
202007110010001100000000000000010617000000000000000106178000000000030714575860SYNBUILD SA                   000000008100000000000000000000000000000000000000000000000000000000000000000000000000000000000000000000000000000001416825PES00010000001000000000000000020200711
202007110010001100000000000000010618000000000000000106188000000000020080994819BRAVO ZAVALETA ARMANDO MANUEL 000000008550000000000000000000000000000000000000000000000000000000000000000000000000000000000000000000000000000001416825PES00010000001000000000000000020200711
202007110010001100000000000000010619000000000000000106198000000000033708668759ACHERAL S.A.                  000000007950000000000000000000000000000000000000000000000000000000000000000000000000000000000000000000000000000001416825PES00010000001000000000000000020200711
202007110010001100000000000000010620000000000000000106208000000000030712992006TIERRA DE BERRIES SA          000000026250000000000000000000000000000000000000000000000000000000000000000000000000000000000000000000000000000004722750PES00010000001000000000000000020200711
202007110010001100000000000000010621000000000000000106218000000000020165261624MUDAD FRANCISCO ESTEBAN       000000016500000000000000000000000000000000000000000000000000000000000000000000000000000000000000000000000000000002833650PES00010000001000000000000000020200711
202007110010001100000000000000010622000000000000000106228000000000030710383126TM ROLDAN SRL                 000000004320000000000000000000000000000000000000000000000000000000000000000000000000000000000000000000000000000000755640PES00010000001000000000000000020200711
202007110010001100000000000000010623000000000000000106238000000000030713014601MAELI SRL                     000000015900000000000000000000000000000000000000000000000000000000000000000000000000000000000000000000000000000002833650PES00010000001000000000000000020200711
202007110010001100000000000000010624000000000000000106248000000000030715098551SUCROALCOHOLERA DEL SUR SA    000000087550000000000000000000000000000000000000000000000000000000000000000000000000000000000000000000000000000016057350PES00010000001000000000000000020200711
202007110010001100000000000000010625000000000000000106258000000000030714429732AGRO SERVICIOS SH             000000020800000000000000000000000000000000000000000000000000000000000000000000000000000000000000000000000000000003778200PES00010000001000000000000000020200711
202007110010001400000000000000014514000000000000000145148000000000033715861459GRUPO MUNOZ SRL               000000000528345000000000000000000000000000000000000000000000000000000000000000000000000000000000000000000000000000000000PES00010000001000000000000000020200711
202007110010001400000000000000014515000000000000000145158000000000023111033919CHIVILISCO HECTOR SALVADOR    000000002986628000000000000000000000000000000000000000000000000000000000000000000000000000000000000000000000000000000000PES00010000001000000000000000020200711
202007110010001400000000000000014516000000000000000145168000000000027170408980MARTINEZ ZUCCARDI ARIADNA I   000000000275006000000000000000000000000000000000000000000000000000000000000000000000000000000000000000000000000000000000PES00010000001000000000000000020200711
202007110010001400000000000000014517000000000000000145178000000000020128938223DECIMA ARMANDO                000000005415972000000000000000000000000000000000000000000000000000000000000000000000000000000000000000000000000000000000PES00010000001000000000000000020200711
202007110010001400000000000000014518000000000000000145188000000000020377280378SZMYD JESUS EMMANUEL          000000003411793000000000000000000000000000000000000000000000000000000000000000000000000000000000000000000000000000000000PES00010000001000000000000000020200711
202007110010001400000000000000014519000000000000000145198000000000020202185658AHUMADA ROBERTO               000000002973749000000000000000000000000000000000000000000000000000000000000000000000000000000000000000000000000000000000PES00010000001000000000000000020200711
202007110030001100000000000000000510000000000000000005108000000000030714429732AGRO SERVICIOS SH             000000020800000000000000000000000000000000000000000000000000000000000000000000000000000000000000000000000000000003778200PES00010000001000000000000000020200711
202007110060001400000000000000003956000000000000000039568000000000020287904097MATIUZZI ALFREDO              000000000815509000000000000000000000000000000000000000000000000000000000000000000000000000000000000000000000000000000000PES00010000001000000000000000020200711
202007130010001100000000000000010626000000000000000106268000000000020342268081CANO ARON JOSE VICTOR (ST)    000000012749999000000000000000000000000000000000000000000000000000000000000000000000000000000000000000000000000002361375PES00010000001000000000000000020200713
202007130010001100000000000000010627000000000000000106278000000000020342268081CANO ARON JOSE VICTOR (ST)    000000013249999000000000000000000000000000000000000000000000000000000000000000000000000000000000000000000000000002361375PES00010000001000000000000000020200713
202007130010001100000000000000010628000000000000000106288000000000020342268081CANO ARON JOSE VICTOR (ST)    000000007950000000000000000000000000000000000000000000000000000000000000000000000000000000000000000000000000000001416825PES00010000001000000000000000020200713
202007130010001100000000000000010629000000000000000106298000000000030709767905COOP AGROPECUARIA LOS BARRIENT000000015899998000000000000000000000000000000000000000000000000000000000000000000000000000000000000000000000000002833650PES00010000001000000000000000020200713
202007130010001100000000000000010630000000000000000106308000000000030709767905COOP AGROPECUARIA LOS BARRIENT000000015899998000000000000000000000000000000000000000000000000000000000000000000000000000000000000000000000000002833650PES00010000001000000000000000020200713
202007130010001100000000000000010631000000000000000106318000000000030714922013DON BETO SRL (ST)             000000021199998000000000000000000000000000000000000000000000000000000000000000000000000000000000000000000000000003778200PES00010000001000000000000000020200713
202007130010001100000000000000010632000000000000000106328000000000023208986309GUTIERREZ JORGE LUIS (ST)     000000010599999000000000000000000000000000000000000000000000000000000000000000000000000000000000000000000000000001889100PES00010000001000000000000000020200713
202007130010001100000000000000010633000000000000000106338000000000020173378603JUAREZ ANTONIO ARMANDO (ST)   000000016200000000000000000000000000000000000000000000000000000000000000000000000000000000000000000000000000000002833650PES00010000001000000000000000020200713
202007130010001100000000000000010634000000000000000106348000000000020173378603JUAREZ ANTONIO ARMANDO (ST)   000000015899998000000000000000000000000000000000000000000000000000000000000000000000000000000000000000000000000002833650PES00010000001000000000000000020200713
202007130010001100000000000000010635000000000000000106358000000000020173378603JUAREZ ANTONIO ARMANDO (ST)   000000015899998000000000000000000000000000000000000000000000000000000000000000000000000000000000000000000000000002833650PES00010000001000000000000000020200713
202007130010001100000000000000010636000000000000000106368000000000030716819856INDUSTRIAS SANTA BARBARA SRL E000000010599999000000000000000000000000000000000000000000000000000000000000000000000000000000000000000000000000001889100PES00010000001000000000000000020200713
202007130010001100000000000000010637000000000000000106378000000000020399744939MIRANDA ARIEL MATIAS (ST)     000000026499997000000000000000000000000000000000000000000000000000000000000000000000000000000000000000000000000004722750PES00010000001000000000000000020200713
202007130010001100000000000000010638000000000000000106388000000000020399744939MIRANDA ARIEL MATIAS (ST)     000000027000000000000000000000000000000000000000000000000000000000000000000000000000000000000000000000000000000004722750PES00010000001000000000000000020200713
202007130010001100000000000000010639000000000000000106398000000000020035021613SUCESION DE ACOSTA ANTONIO H (000000015899998000000000000000000000000000000000000000000000000000000000000000000000000000000000000000000000000002833650PES00010000001000000000000000020200713
202007130010001100000000000000010640000000000000000106408000000000030710010680ZAPULLA JOSE E Y G SALVADOR SH000000031799997000000000000000000000000000000000000000000000000000000000000000000000000000000000000000000000000005667300PES00010000001000000000000000020200713
202007130010001100000000000000010641000000000000000106418000000000030710010680ZAPULLA JOSE E Y G SALVADOR SH000000015899998000000000000000000000000000000000000000000000000000000000000000000000000000000000000000000000000002833650PES00010000001000000000000000020200713
202007130010001100000000000000010642000000000000000106428000000000030708849134LINARES MATERIALES SRL        000000010600000000000000000000000000000000000000000000000000000000000000000000000000000000000000000000000000000001889100PES00010000001000000000000000020200713
202007130010001100000000000000010643000000000000000106438000000000030523408247CERAMICA MARCOS PAZ SRL       000000075000000000000000000000000000000000000000000000000000000000000000000000000000000000000000000000000000000014168250PES00010000001000000000000000020200713
202007130010001100000000000000010644000000000000000106448000000000030668085071LA JUSTINA SA                 000000056000000000000000000000000000000000000000000000000000000000000000000000000000000000000000000000000000000009445500PES00010000001000000000000000020200713
202007130010001100000000000000010645000000000000000106458000000000020119103879MARTINEZ ZUCCARDI JORGE A     000000015900000000000000000000000000000000000000000000000000000000000000000000000000000000000000000000000000000002833650PES00010000001000000000000000020200713
202007130010001100000000000000010646000000000000000106468000000000020119103879MARTINEZ ZUCCARDI JORGE A     000000026500000000000000000000000000000000000000000000000000000000000000000000000000000000000000000000000000000004722750PES00010000001000000000000000020200713
202007130010001100000000000000010647000000000000000106478000000000030708913266TRANSPORTE HACHA DE PIEDRA SRL000000011036270000000000000000000000000000000000000000000000000000000000000000000000000000000000000000000000000002064220PES00010000001000000000000000020200713
202007130010001100000000000000010648000000000000000106488000000000030708724560LA ASTURIANA S.R.L            000000016500001000000000000000000000000000000000000000000000000000000000000000000000000000000000000000000000000002833650PES00010000001000000000000000020200713
202007130010001100000000000000010649000000000000000106498000000000030708913266TRANSPORTE HACHA DE PIEDRA SRL000000053375472000000000000000000000000000000000000000000000000000000000000000000000000000000000000000000000000009983327PES00010000001000000000000000020200713
202007130010001100000000000000010651000000000000000106518000000000030626009618EXPRESO RIVADAVIA SRL         000000024659009000000000000000000000000000000000000000000000000000000000000000000000000000000000000000000000000004566994PES00010000001000000000000000020200713
202007130010001100000000000000010652000000000000000106528000000000030626009618EXPRESO RIVADAVIA SRL         000000037238668000000000000000000000000000000000000000000000000000000000000000000000000000000000000000000000000006896821PES00010000001000000000000000020200713
202007130010001400000000000000014520000000000000000145208000000000027060678443CACERES VICTORIA DEL CARMEN   000000000528345000000000000000000000000000000000000000000000000000000000000000000000000000000000000000000000000000000000PES00010000001000000000000000020200713
202007130010001400000000000000014521000000000000000145218000000000023235640309OLIVERA PABLO                 000000002014994000000000000000000000000000000000000000000000000000000000000000000000000000000000000000000000000000000000PES00010000001000000000000000020200713
202007130010001400000000000000014522000000000000000145228000000000030716538911QUIROGA S.A.S                 000000010680000000000000000000000000000000000000000000000000000000000000000000000000000000000000000000000000000000000000PES00010000001000000000000000020200713
202007130010001400000000000000014523000000000000000145238000000000020073702969CHAYA MARIO ROQUE             000000000733642000000000000000000000000000000000000000000000000000000000000000000000000000000000000000000000000000000000PES00010000001000000000000000020200713
202007130010001400000000000000014524000000000000000145248000000000020105379413HERRERA MIGUEL ANGEL (ST)     000000002986628000000000000000000000000000000000000000000000000000000000000000000000000000000000000000000000000000000000PES00010000001000000000000000020200713
202007130010001400000000000000014525000000000000000145258000000000027240071482VILLAVICENCIO MARIA DE LOS ANG000000005973964000000000000000000000000000000000000000000000000000000000000000000000000000000000000000000000000000000000PES00010000001000000000000000020200713
202007130010001400000000000000014526000000000000000145268000000000027240071482VILLAVICENCIO MARIA DE LOS ANG000000001520745000000000000000000000000000000000000000000000000000000000000000000000000000000000000000000000000000000000PES00010000001000000000000000020200713
202007130010001400000000000000014527000000000000000145278000000000020080901543MARTINEZ VICTOR HUGO          000000003563933000000000000000000000000000000000000000000000000000000000000000000000000000000000000000000000000000000000PES00010000001000000000000000020200713
202007130010001400000000000000014528000000000000000145288000000000020182034798ROZ AGUSTIN CESAR             000000002536979000000000000000000000000000000000000000000000000000000000000000000000000000000000000000000000000000000000PES00010000001000000000000000020200713
202007130010001400000000000000014529000000000000000145298000000000030691758245ENEX INGENIERIA SA            000000002445404000000000000000000000000000000000000000000000000000000000000000000000000000000000000000000000000000000000PES00010000001000000000000000020200713
202007130010001400000000000000014530000000000000000145308000000000027240071482VILLAVICENCIO MARIA DE LOS ANG000000005936000000000000000000000000000000000000000000000000000000000000000000000000000000000000000000000000000000000000PES00010000001000000000000000020200713
202007130010001400000000000000014531000000000000000145318000000000023070919249HERRERA JORGE ARMANDO         000000004879176000000000000000000000000000000000000000000000000000000000000000000000000000000000000000000000000000000000PES00010000001000000000000000020200713
202007130010001400000000000000014532000000000000000145328000000000030639041545AGRO CARGAS SA                000000004092278000000000000000000000000000000000000000000000000000000000000000000000000000000000000000000000000000000000PES00010000001000000000000000020200713
202007130010001600000000000000000769000000000000000007698000000000027379976390MIROLI LOMBARDO SILVIA NOELIA 000000000667987000000000000000000000000000000000000000000000000000000000000000000000000000000000000000000000000000000000PES00010000001000000000000000020200713
202007130010005200000000000000000240000000000000000002408000000000020202855459RUIZ TORRES CARLOS ALBERTO    000000098410232000000000000000000000000000000000000000000000000000000000000000000000000000000000000000000000000000000000PES00010000001000000000000000020200713
202007130010005200000000000000000241000000000000000002418000000000030708067837AGRICOLA DE LEALES SC         000000017132988000000000000000000000000000000000000000000000000000000000000000000000000000000000000000000000000000000000PES00010000001000000000000000020200713
202007130010020000000000000000000052000000000000000000528000000000030658233692REFINERIA DEL NORTE SA        000000178389119000000000000000000000000000000000000000000000000000000000000000000000000000000000000000000000000000000000PES00010000001000000000000000020200713
202007130030001100000000000000000511000000000000000005118000000000020342268081CANO ARON JOSE VICTOR (ST)    000000012749999000000000000000000000000000000000000000000000000000000000000000000000000000000000000000000000000002361375PES00010000001000000000000000020200713
202007130060001100000000000000000205000000000000000002058000000000020179265177GUTIERREZ JUAN MANUEL (ST)    000000010599999000000000000000000000000000000000000000000000000000000000000000000000000000000000000000000000000001889100PES00010000001000000000000000020200713
202007130060001100000000000000000206000000000000000002068000000000020242796986VILLAFANE MIGUEL ANGEL (ST)   000000010599999000000000000000000000000000000000000000000000000000000000000000000000000000000000000000000000000001889100PES00010000001000000000000000020200713
202007130060001400000000000000003957000000000000000039578000000000020166931038RODRIGUEZ JOSE ALBERTO        000000001336201000000000000000000000000000000000000000000000000000000000000000000000000000000000000000000000000000000000PES00010000001000000000000000020200713
202007130060001400000000000000003958000000000000000039588000000000024249268433MAI MARIANA MAGDALENA         000000000317733000000000000000000000000000000000000000000000000000000000000000000000000000000000000000000000000000000000PES00010000001000000000000000020200713
202007130060001400000000000000003959000000000000000039598000000000027217998226CASTRO MARIA ROSA             000000007297368000000000000000000000000000000000000000000000000000000000000000000000000000000000000000000000000000000000PES00010000001000000000000000020200713
202007130060001400000000000000003960000000000000000039608000000000030675428081SUPERIOR GOBIERNO DE LA PCIA D000000002445404000000000000000000000000000000000000000000000000000000000000000000000000000000000000000000000000000000000PES00010000001000000000000000020200713
202007130060001400000000000000003961000000000000000039618000000000020134855720LECCESE RUBEN                 000000000678160000000000000000000000000000000000000000000000000000000000000000000000000000000000000000000000000000000000PES00010000001000000000000000020200713
202007130060001400000000000000003962000000000000000039628000000000020272318051SILVEIRA CRISTIAN FABIAN      000000001587663000000000000000000000000000000000000000000000000000000000000000000000000000000000000000000000000000000000PES00010000001000000000000000020200713
202007140010001100000000000000010653000000000000000106538000000000030708067837AGRICOLA DE LEALES SC         000000037100000000000000000000000000000000000000000000000000000000000000000000000000000000000000000000000000000006611850PES00010000001000000000000000020200714
202007140010001100000000000000010654000000000000000106548000000000020285315671ROTH GERARDO ARIEL            000000010800000000000000000000000000000000000000000000000000000000000000000000000000000000000000000000000000000001889100PES00010000001000000000000000020200714
202007140010001100000000000000010655000000000000000106558000000000020254467945CONTRERAS RICARDO ALEJANDRO   000000015450000000000000000000000000000000000000000000000000000000000000000000000000000000000000000000000000000002833650PES00010000001000000000000000020200714
202007140010001100000000000000010656000000000000000106568000000000020185059007VITAR MANUEL FERNANDO         000000008250000000000000000000000000000000000000000000000000000000000000000000000000000000000000000000000000000001416825PES00010000001000000000000000020200714
202007140010001100000000000000010657000000000000000106578000000000030620919922RF y J BUDEGUER SRL           000000005500000000000000000000000000000000000000000000000000000000000000000000000000000000000000000000000000000000944550PES00010000001000000000000000020200714
202007140010001100000000000000010658000000000000000106588000000000027122721987IBANEZ MARTA NORMA            000000005500000000000000000000000000000000000000000000000000000000000000000000000000000000000000000000000000000000944550PES00010000001000000000000000020200714
202007140010001100000000000000010659000000000000000106598000000000027122721987IBANEZ MARTA NORMA            000000005500000000000000000000000000000000000000000000000000000000000000000000000000000000000000000000000000000000944550PES00010000001000000000000000020200714
202007140010001100000000000000010660000000000000000106608000000000020180345540GARZON FRANCISCO JAVIER       000000021200000000000000000000000000000000000000000000000000000000000000000000000000000000000000000000000000000003778200PES00010000001000000000000000020200714
202007140010001100000000000000010661000000000000000106618000000000020248020564MOLINA ALFREDO                000000010800000000000000000000000000000000000000000000000000000000000000000000000000000000000000000000000000000001889100PES00010000001000000000000000020200714
202007140010001100000000000000010662000000000000000106628000000000020229248813PEDRAZA PEDRO ANTONIO         000000010700000000000000000000000000000000000000000000000000000000000000000000000000000000000000000000000000000001889100PES00010000001000000000000000020200714
202007140010001100000000000000010663000000000000000106638000000000030708724560LA ASTURIANA S.R.L            000000003302200000000000000000000000000000000000000000000000000000000000000000000000000000000000000000000000000000567108PES00010000001000000000000000020200714
202007140010001100000000000000010664000000000000000106648000000000030714057355ZAFIROS DEL NOA SA            000000005500060000000000000000000000000000000000000000000000000000000000000000000000000000000000000000000000000000944550PES00010000001000000000000000020200714
202007140010001100000000000000010665000000000000000106658000000000030626009618EXPRESO RIVADAVIA SRL         000000014889450000000000000000000000000000000000000000000000000000000000000000000000000000000000000000000000000002757614PES00010000001000000000000000020200714
202007140010001100000000000000010666000000000000000106668000000000020070077176GHIGGIA JOSE ALFREDO          000000016850000000000000000000000000000000000000000000000000000000000000000000000000000000000000000000000000000003183134PES00010000001000000000000000020200714
202007140010001100000000000000010667000000000000000106678000000000030714575860SYNBUILD SA                   000000008100000000000000000000000000000000000000000000000000000000000000000000000000000000000000000000000000000001416825PES00010000001000000000000000020200714
202007140010001100000000000000010668000000000000000106688000000000030504549328INGECO SA                     000000027799997000000000000000000000000000000000000000000000000000000000000000000000000000000000000000000000000004722750PES00010000001000000000000000020200714
202007140010001400000000000000014533000000000000000145338000000000020114752453GRAMAJO JUAN CARLOS           000000000773327000000000000000000000000000000000000000000000000000000000000000000000000000000000000000000000000000000000PES00010000001000000000000000020200714
202007140010001400000000000000014534000000000000000145348000000000027060678443CACERES VICTORIA DEL CARMEN   000000002406305000000000000000000000000000000000000000000000000000000000000000000000000000000000000000000000000000000000PES00010000001000000000000000020200714
202007140010001400000000000000014535000000000000000145358000000000027284964425RACEDO ROSANA ESTER RI        000000003346740000000000000000000000000000000000000000000000000000000000000000000000000000000000000000000000000000000000PES00010000001000000000000000020200714
202007140010001400000000000000014536000000000000000145368000000000027284964425RACEDO ROSANA ESTER RI        000000001642701000000000000000000000000000000000000000000000000000000000000000000000000000000000000000000000000000000000PES00010000001000000000000000020200714
202007140010001400000000000000014537000000000000000145378000000000020248027097GIMENEZ LASCANO JAVIER JOSE   000000000735893000000000000000000000000000000000000000000000000000000000000000000000000000000000000000000000000000000000PES00010000001000000000000000020200714
202007140010001400000000000000014538000000000000000145388000000000020134760029BOUHIER NORBERTO ABEL         000000002909335000000000000000000000000000000000000000000000000000000000000000000000000000000000000000000000000000000000PES00010000001000000000000000020200714
202007140010001400000000000000014539000000000000000145398000000000020202185658AHUMADA ROBERTO               000000003350440000000000000000000000000000000000000000000000000000000000000000000000000000000000000000000000000000000000PES00010000001000000000000000020200714
202007140010001400000000000000014540000000000000000145408000000000020265849041CUEVA MARCELO OMAR            000000002986628000000000000000000000000000000000000000000000000000000000000000000000000000000000000000000000000000000000PES00010000001000000000000000020200714
202007140010001400000000000000014541000000000000000145418000000000030685655329PRODUCCION SA                 000000006945842000000000000000000000000000000000000000000000000000000000000000000000000000000000000000000000000000000000PES00010000001000000000000000020200714
202007140010001400000000000000014542000000000000000145428000000000030708913266TRANSPORTE HACHA DE PIEDRA SRL000000002559150000000000000000000000000000000000000000000000000000000000000000000000000000000000000000000000000000000000PES00010000001000000000000000020200714
202007140010001400000000000000014543000000000000000145438000000000027240071482VILLAVICENCIO MARIA DE LOS ANG000000001647520000000000000000000000000000000000000000000000000000000000000000000000000000000000000000000000000000000000PES00010000001000000000000000020200714
202007140010001400000000000000014544000000000000000145448000000000030675415087CIA AZUCARERA LOS BALCANES SA 000000007612887000000000000000000000000000000000000000000000000000000000000000000000000000000000000000000000000000000000PES00010000001000000000000000020200714
202007140010001400000000000000014545000000000000000145458000000000030675415087CIA AZUCARERA LOS BALCANES SA 000000006202400000000000000000000000000000000000000000000000000000000000000000000000000000000000000000000000000000000000PES00010000001000000000000000020200714
202007140010001400000000000000014546000000000000000145468000000000020080994819BRAVO ZAVALETA ARMANDO MANUEL 000000000638818000000000000000000000000000000000000000000000000000000000000000000000000000000000000000000000000000000000PES00010000001000000000000000020200714
202007140030001500000000000000000085000000000000000000858000000000030546689979YPF SA                        000000086374157000000000000000000000000000000000000000000000000000000000000000000000000000000000000000000000000000000000PES00010000001000000000000000020200714
202007140030001100000000000000000512000000000000000005128000000000027122721987IBANEZ MARTA NORMA            000000005500000000000000000000000000000000000000000000000000000000000000000000000000000000000000000000000000000000944550PES00010000001000000000000000020200714
202007140030001100000000000000000513000000000000000005138000000000023110300999MEMBRIBES PABLO               000000000752700000000000000000000000000000000000000000000000000000000000000000000000000000000000000000000000000000000000PES00010000001000000000000000020200714
202007140030001400000000000000002235000000000000000022358000000000020128938223DECIMA ARMANDO                000000000929658000000000000000000000000000000000000000000000000000000000000000000000000000000000000000000000000000000000PES00010000001000000000000000020200714
202007140060001400000000000000003963000000000000000039638000000000020133784277MOYA HUGO                     000000002978763000000000000000000000000000000000000000000000000000000000000000000000000000000000000000000000000000000000PES00010000001000000000000000020200714
202007140060005200000000000000000010000000000000000000108000000000020070438772SAENZ RODOLFO                 000000010595986000000000000000000000000000000000000000000000000000000000000000000000000000000000000000000000000000000000PES00010000001000000000000000020200714
202007150010001100000000000000010669000000000000000106698000000000030707465049LAPACHO AMARILLO SRL          000000021600000000000000000000000000000000000000000000000000000000000000000000000000000000000000000000000000000003778200PES00010000001000000000000000020200715
202007150010001100000000000000010670000000000000000106708000000000033714757429NOBEN SRL                     000000033000002000000000000000000000000000000000000000000000000000000000000000000000000000000000000000000000000005667300PES00010000001000000000000000020200715
202007150010001100000000000000010671000000000000000106718000000000020080994819BRAVO ZAVALETA ARMANDO MANUEL 000000017100000000000000000000000000000000000000000000000000000000000000000000000000000000000000000000000000000002833650PES00010000001000000000000000020200715
202007150010001100000000000000010672000000000000000106728000000000030626009618EXPRESO RIVADAVIA SRL         000000017987700000000000000000000000000000000000000000000000000000000000000000000000000000000000000000000000000003331428PES00010000001000000000000000020200715
202007150010001100000000000000010673000000000000000106738000000000030715261517SERCOU SRL                    000000021400000000000000000000000000000000000000000000000000000000000000000000000000000000000000000000000000000003778200PES00010000001000000000000000020200715
202007150010001400000000000000014547000000000000000145478000000000030715098551SUCROALCOHOLERA DEL SUR SA    000000017246838000000000000000000000000000000000000000000000000000000000000000000000000000000000000000000000000000000000PES00010000001000000000000000020200715
202007150010001400000000000000014548000000000000000145488000000000030707728805PROYECTOS METALURGICOS S.A.   000000003968563000000000000000000000000000000000000000000000000000000000000000000000000000000000000000000000000000000000PES00010000001000000000000000020200715
202007150010001400000000000000014549000000000000000145498000000000030523408247CERAMICA MARCOS PAZ SRL       000000003613015000000000000000000000000000000000000000000000000000000000000000000000000000000000000000000000000000000000PES00010000001000000000000000020200715
202007150010001400000000000000014550000000000000000145508000000000020166916160BONURA FELIPE TADEO           000000006022270000000000000000000000000000000000000000000000000000000000000000000000000000000000000000000000000000000000PES00010000001000000000000000020200715
202007150010001400000000000000014551000000000000000145518000000000030710444249PERFOSUELO INGENIERIA SRL     000000005116618000000000000000000000000000000000000000000000000000000000000000000000000000000000000000000000000000000000PES00010000001000000000000000020200715
202007150010001400000000000000014552000000000000000145528000000000030710444249PERFOSUELO INGENIERIA SRL     000000002675868000000000000000000000000000000000000000000000000000000000000000000000000000000000000000000000000000000000PES00010000001000000000000000020200715
202007150010001400000000000000014553000000000000000145538000000000030685649736SAIKO SA                      000000001546653000000000000000000000000000000000000000000000000000000000000000000000000000000000000000000000000000000000PES00010000001000000000000000020200715
202007150010001400000000000000014554000000000000000145548000000000030505517632VICENTE TRAPANI SA            000000000275006000000000000000000000000000000000000000000000000000000000000000000000000000000000000000000000000000000000PES00010000001000000000000000020200715
202007150030001400000000000000002236000000000000000022368000000000020290448515VILLALON MARTIN ANTONIO       000000000267586000000000000000000000000000000000000000000000000000000000000000000000000000000000000000000000000000000000PES00010000001000000000000000020200715
202007150030001400000000000000002237000000000000000022378000000000020104320784SILVA ANGEL CUSTODIO          000000002986628000000000000000000000000000000000000000000000000000000000000000000000000000000000000000000000000000000000PES00010000001000000000000000020200715
202007150030001400000000000000002238000000000000000022388000000000027240071482VILLAVICENCIO MARIA DE LOS ANG000000001520745000000000000000000000000000000000000000000000000000000000000000000000000000000000000000000000000000000000PES00010000001000000000000000020200715
202007150030001400000000000000002239000000000000000022398000000000027240071482VILLAVICENCIO MARIA DE LOS ANG000000000298698000000000000000000000000000000000000000000000000000000000000000000000000000000000000000000000000000000000PES00010000001000000000000000020200715
202007150030001400000000000000002240000000000000000022408000000000027175744067ACOSTA HILDA ADRIANA          000000000364621000000000000000000000000000000000000000000000000000000000000000000000000000000000000000000000000000000000PES00010000001000000000000000020200715
202007150060001100000000000000000207000000000000000002078000000000033638640789DIRECCION PROVINCIAL DE VIALID000000176080000000000000000000000000000000000000000000000000000000000000000000000000000000000000000000000000000029281050PES00010000001000000000000000020200715
202007150060001100000000000000000208000000000000000002088000000000033638640789DIRECCION PROVINCIAL DE VIALID000000034080000000000000000000000000000000000000000000000000000000000000000000000000000000000000000000000000000005667300PES00010000001000000000000000020200715
202007150060001400000000000000003964000000000000000039648000000000020141354389MORALES JOSE ANTONIO          000000002986628000000000000000000000000000000000000000000000000000000000000000000000000000000000000000000000000000000000PES00010000001000000000000000020200715
202007150060001400000000000000003965000000000000000039658000000000030656135006MUNICIPALIDAD DE SIMOCA       000000008657355000000000000000000000000000000000000000000000000000000000000000000000000000000000000000000000000000000000PES00010000001000000000000000020200715
202007150060001400000000000000003966000000000000000039668000000000020351959240POOLIMAS JORGE LUIS           000000001825771000000000000000000000000000000000000000000000000000000000000000000000000000000000000000000000000000000000PES00010000001000000000000000020200715
202007150080001400000000000000000666000000000000000006668000000000020377274165TORRES GUILLERMO MARCELINO    000000000251364000000000000000000000000000000000000000000000000000000000000000000000000000000000000000000000000000000000PES00010000001000000000000000020200715
202007160010001100000000000000010674000000000000000106748000000000020254467945CONTRERAS RICARDO ALEJANDRO   000000015450000000000000000000000000000000000000000000000000000000000000000000000000000000000000000000000000000002833650PES00010000001000000000000000020200716
202007160010001100000000000000010675000000000000000106758000000000030626009618EXPRESO RIVADAVIA SRL         000000024885960000000000000000000000000000000000000000000000000000000000000000000000000000000000000000000000000004609026PES00010000001000000000000000020200716
202007160010001100000000000000010676000000000000000106768000000000030626009618EXPRESO RIVADAVIA SRL         000000024885959000000000000000000000000000000000000000000000000000000000000000000000000000000000000000000000000004609026PES00010000001000000000000000020200716
202007160010001400000000000000014555000000000000000145558000000000030523408247CERAMICA MARCOS PAZ SRL       000000003441270000000000000000000000000000000000000000000000000000000000000000000000000000000000000000000000000000000000PES00010000001000000000000000020200716
202007160010001400000000000000014556000000000000000145568000000000033691776919FABRICA DE FIDEOS RIVOLI SA   000000000363812000000000000000000000000000000000000000000000000000000000000000000000000000000000000000000000000000000000PES00010000001000000000000000020200716
202007160010001400000000000000014557000000000000000145578000000000027309196541RINALDI DUVE GISELLE          000000005256466000000000000000000000000000000000000000000000000000000000000000000000000000000000000000000000000000000000PES00010000001000000000000000020200716
202007160010001400000000000000014558000000000000000145588000000000027309196541RINALDI DUVE GISELLE          000000006312918000000000000000000000000000000000000000000000000000000000000000000000000000000000000000000000000000000000PES00010000001000000000000000020200716
202007160010001400000000000000014559000000000000000145598000000000030708417137BELLANTI BRUNO Y BELLANTI CESA000000008711861000000000000000000000000000000000000000000000000000000000000000000000000000000000000000000000000000000000PES00010000001000000000000000020200716
202007160010001400000000000000014560000000000000000145608000000000030712577807LAS VALKIRIAS SRL             000000002807080000000000000000000000000000000000000000000000000000000000000000000000000000000000000000000000000000000000PES00010000001000000000000000020200716
202007160010001400000000000000014561000000000000000145618000000000027060678443CACERES VICTORIA DEL CARMEN   000000002858212000000000000000000000000000000000000000000000000000000000000000000000000000000000000000000000000000000000PES00010000001000000000000000020200716
202007160010001400000000000000014562000000000000000145628000000000020275045862ARIAS NELSON OSCAR            000000002986628000000000000000000000000000000000000000000000000000000000000000000000000000000000000000000000000000000000PES00010000001000000000000000020200716
202007160010001400000000000000014563000000000000000145638000000000030512253268JAUFFROY HNOS S.A.S.C         000000053769375000000000000000000000000000000000000000000000000000000000000000000000000000000000000000000000000000000000PES00010000001000000000000000020200716
202007160010001400000000000000014564000000000000000145648000000000020324610821CORTI DIEGO JAVIER            000000004027089000000000000000000000000000000000000000000000000000000000000000000000000000000000000000000000000000000000PES00010000001000000000000000020200716
202007160010001400000000000000014565000000000000000145658000000000030691778688EMP CONSTR Y SERVICIOS ECOS SA000000007620163000000000000000000000000000000000000000000000000000000000000000000000000000000000000000000000000000000000PES00010000001000000000000000020200716
202007160010001400000000000000014566000000000000000145668000000000030711642532CENTRO DE SERVICIOS DEL ESTE S000000002949903000000000000000000000000000000000000000000000000000000000000000000000000000000000000000000000000000000000PES00010000001000000000000000020200716
202007160010001400000000000000014567000000000000000145678000000000023070919249HERRERA JORGE ARMANDO         000000002179975000000000000000000000000000000000000000000000000000000000000000000000000000000000000000000000000000000000PES00010000001000000000000000020200716
202007160010001400000000000000014568000000000000000145688000000000020296739554MUHIC GIANNI MIRKO            000000005224602000000000000000000000000000000000000000000000000000000000000000000000000000000000000000000000000000000000PES00010000001000000000000000020200716
202007160030001100000000000000000514000000000000000005148000000000030626009618EXPRESO RIVADAVIA SRL         000000024885960000000000000000000000000000000000000000000000000000000000000000000000000000000000000000000000000004609026PES00010000001000000000000000020200716
202007160030001400000000000000002241000000000000000022418000000000020341013101RUTKEVICIUS PEDRO MARTIN      000000004320000000000000000000000000000000000000000000000000000000000000000000000000000000000000000000000000000000000000PES00010000001000000000000000020200716
202007160030001400000000000000002242000000000000000022428000000000030523408247CERAMICA MARCOS PAZ SRL       000000003613015000000000000000000000000000000000000000000000000000000000000000000000000000000000000000000000000000000000PES00010000001000000000000000020200716
202007160030001400000000000000002243000000000000000022438000000000030711642532CENTRO DE SERVICIOS DEL ESTE S000000000723853000000000000000000000000000000000000000000000000000000000000000000000000000000000000000000000000000000000PES00010000001000000000000000020200716
202007160060001100000000000000000209000000000000000002098000000000033638640789DIRECCION PROVINCIAL DE VIALID000000028400000000000000000000000000000000000000000000000000000000000000000000000000000000000000000000000000000004722750PES00010000001000000000000000020200716
202007160060001100000000000000000210000000000000000002108000000000033638640789DIRECCION PROVINCIAL DE VIALID000000051120000000000000000000000000000000000000000000000000000000000000000000000000000000000000000000000000000008500950PES00010000001000000000000000020200716
202007160060001400000000000000003967000000000000000039678000000000020233029131VALLEJO ADRIAN                000000002536979000000000000000000000000000000000000000000000000000000000000000000000000000000000000000000000000000000000PES00010000001000000000000000020200716
202007160060001400000000000000003968000000000000000039688000000000020217460574SECO FLAVIO DANIEL            000000005210018000000000000000000000000000000000000000000000000000000000000000000000000000000000000000000000000000000000PES00010000001000000000000000020200716
202007160060001400000000000000003969000000000000000039698000000000020130517979MASMUD ANTONIO SEBASTIAN      000000001176557000000000000000000000000000000000000000000000000000000000000000000000000000000000000000000000000000000000PES00010000001000000000000000020200716
202007160060001400000000000000003970000000000000000039708000000000020187403538FIGUEROA BARRIENTOS MANUEL    000000000733642000000000000000000000000000000000000000000000000000000000000000000000000000000000000000000000000000000000PES00010000001000000000000000020200716
202007160060001400000000000000003971000000000000000039718000000000020174643041VILLALOBO CESAR ALBERTO       000000001302652000000000000000000000000000000000000000000000000000000000000000000000000000000000000000000000000000000000PES00010000001000000000000000020200716
202007160060001400000000000000003972000000000000000039728000000000020125623000CHANTA JULIO                  000000002279371000000000000000000000000000000000000000000000000000000000000000000000000000000000000000000000000000000000PES00010000001000000000000000020200716
202007160080001400000000000000000667000000000000000006678000000000020076289310CORTI CESAR ARMANDO           000000004027089000000000000000000000000000000000000000000000000000000000000000000000000000000000000000000000000000000000PES00010000001000000000000000020200716
202007170010001100000000000000010677000000000000000106778000000000030697222800SOLBES HNOS                   000000022000000000000000000000000000000000000000000000000000000000000000000000000000000000000000000000000000000003778200PES00010000001000000000000000020200717
202007170010001100000000000000010678000000000000000106788000000000030715261517SERCOU SRL                    000000008025000000000000000000000000000000000000000000000000000000000000000000000000000000000000000000000000000001416825PES00010000001000000000000000020200717
202007170010001100000000000000010679000000000000000106798000000000020230271403ROTH CARLOS GERMAN            000000013500000000000000000000000000000000000000000000000000000000000000000000000000000000000000000000000000000002361375PES00010000001000000000000000020200717
202007170010001100000000000000010680000000000000000106808000000000020080994819BRAVO ZAVALETA ARMANDO MANUEL 000000008550000000000000000000000000000000000000000000000000000000000000000000000000000000000000000000000000000001416825PES00010000001000000000000000020200717
202007170010001100000000000000010681000000000000000106818000000000030626009618EXPRESO RIVADAVIA SRL         000000025563240000000000000000000000000000000000000000000000000000000000000000000000000000000000000000000000000004734462PES00010000001000000000000000020200717
202007170010001100000000000000010682000000000000000106828000000000027123923532SOLDATI BEATRIZ DEL VALLE     000000006480000000000000000000000000000000000000000000000000000000000000000000000000000000000000000000000000000001133460PES00010000001000000000000000020200717
202007170010001400000000000000014569000000000000000145698000000000030715098551SUCROALCOHOLERA DEL SUR SA    000000006380134000000000000000000000000000000000000000000000000000000000000000000000000000000000000000000000000000000000PES00010000001000000000000000020200717
202007170010001400000000000000014570000000000000000145708000000000030715098551SUCROALCOHOLERA DEL SUR SA    000000005266000000000000000000000000000000000000000000000000000000000000000000000000000000000000000000000000000000000000PES00010000001000000000000000020200717
