202008010010255000000000000000055918                8000000000030546689979YPF SA                        000000000067509000000000000000000000000000000000000000000000000000000000000000000000000000000000000000000000000000000000PES00010000001000000000000000000000000000000000000000000                              000000000000000
202008010010255000000000000000062999                8000000000030546689979YPF SA                        000000000051335000000000000000000000000000000000000000000000000000000000000000000000000000000000000000000000000000000000PES00010000001000000000000000000000000000000000000000000                              000000000000000
202008010010201800000000000000127293                8000000000030546689979YPF SA                        000000007062848000000000070488000000000000000000000000169170000000000000000000000000000000000000000000000000000000000000PES00010000001000000000000000000000000000000000000000000                              000000000000000
202008010010000700000000000000164048                8000000000020133177249ROBERTO SANDOVAL              000000000112492000000000000000000000000000000000000000000000000000000000000000000000000000000000000000000000000000000000PES00010000001000000000000000000000000000000000000000000                              000000000000000
202008010010000700000000000000164049                8000000000020133177249ROBERTO SANDOVAL              000000000304856000000000000000000000000000000000000000000000000000000000000000000000000000000000000000000000000000000000PES00010000001000000000000000000000000000000000000000000                              000000000000000
202008010010201800000000000000127990                8000000000030546689979YPF SA                        000000000004959000000000000000000000000000000000000000000000000000000000000000000000000000000000000000000000000000000000PES00010000001000000000000000000000000000000000000000000                              000000000000000
202008010010001200000000000000043849                8000000000027275180993SARA BENCHIMOL                000000000336150000000000000000000000000000000000000000000000000000000000000000000000000000000000000000000000000000000000PES00010000001000000000000000000000000000000000000000000                              000000000000000
202008010010002100000000000000063241                8000000000030703088534MERCADOLIBRE S.R.L.           000000001751845000000000039122000000000000000000000000039120000000000000000000000000000000000000000000000000000000000000PES00010000001000000000000000000000000000000000000000000                              000000000000000
202008010030201800000000000000081413                8000000000030546689979YPF SA                        000000002973542000000000000000000000000000000000000000071223000000000000000000000000029676000000000000000000000000000000PES00010000001000000000000000000000000000000000000000000                              000000000000000
202008030010019100000000000000001378                8000000000030691745488MEGACENTRO DE COMPRAS G.P     000000000304985000000000000000000000000000000000000000000000000000000000000000000000004363000000000000000000000000000000PES00010000001000000000000000000000000000000000000000000                              000000000000000
202008030010509300000000000001753998                8000000000030518408689SALTA REFRESCOS S.A.          000000000582270000000000000000000000000000000000000000013105000000000000000000000000008211000000000000000000000000032374PES00010000001000000000000000000000000000000000000000000                              000000000000000
202008030010003900000000000000009653                8000000000030702355601NUEVO POLONORTE SRL           000000000525781000000000000000000000000000000000000000000000000000000000000000000000000000000000000000000000000000000000PES00010000001000000000000000000000000000000000000000000                              000000000000000
202008030010000400000000000000002643                8000000000020282237203ANDRETTA SEBASTIAN ALEJAN     000000001421712000000000000000000000000000000000000000000000000000000000000000000000000000000000000000000000000000000000PES00010000001000000000000000000000000000000000000000000                              000000000000000
202008040010000500000000000000000901                8000000000030716323567SIDETEC SRL                   000000000143480000000000000000000000000000000000000000000000000000000000000000000000000000000000000000000000000000000000PES00010000001000000000000000000000000000000000000000000                              000000000000000
202008040010100600000000000000117011                8000000000030547751252POTIGIAN GOLOSINAS SACIF      000000000055551000000000000000000000000000000000000000000000000000000000000000000000000000000000000000000000000000000000PES00010000001000000000000000000000000000000000000000000                              000000000000000
202008040010009800000000000000088526                8000000000030657865725GASNOR S.A.                   000000047323959000000000058661000000000000000000000001095165000000000000000000000000638846000000000000000000000001359638PES00010000001000000000000000000000000000000000000000000                              000000000000000
202008050010100600000000000000117508                8000000000030547751252POTIGIAN GOLOSINAS SACIF      000000000147250000000000000000000000000000000000000000000000000000000000000000000000000000000000000000000000000000000000PES00010000001000000000000000000000000000000000000000000                              000000000000000
202008050010000500000000000000000904                8000000000030716323567SIDETEC SRL                   000000000407888000000000000000000000000000000000000000000000000000000000000000000000000000000000000000000000000000000000PES00010000001000000000000000000000000000000000000000000                              000000000000000
202008050010100600000000000000117503                8000000000030547751252POTIGIAN GOLOSINAS SACIF      000000004134069000000000000000000000000000000000000000099208000000000000000000000000000000000000000000000000000000033452PES00010000001000000000000000000000000000000000000000000                              000000000000000
202008050010088400000000000000027476                8000000000030507950848MOLINO CANUELAS S.A.C.I.F     000000001741930000000000000000000000000000000000000000040747000000000000000000000000057725000000000000000000000000000000PES00010000001000000000000000000000000000000000000000000                              000000000000000
202008050030201800000000000000081861                8000000000030546689979YPF SA                        000000000237322000000000000000000000000000000000000000000000000000000000000000000000002427000000000000000000000000000000PES00010000001000000000000000000000000000000000000000000                              000000000000000
202008050010000300000000000000470553                8000000000033687473189PANINO SA                     000000001668177000000000000000000000000000000000000000000000000000000000000000000000000000000000000000000000000000000000PES00010000001000000000000000000000000000000000000000000                              000000000000000
202008050010001200000000000000225485                8000000000030542851836ABC S.A                       000000008336427000000000000000000000000000000000000000201688000000000000000000000000000000000000000000000000000000000000PES00010000001000000000000000000000000000000000000000000                              000000000000000
202008050010509300000000000001755259                8000000000030518408689SALTA REFRESCOS S.A.          000000000852381000000000000000000000000000000000000000019669000000000000000000000000011953000000000000000000000000027429PES00010000001000000000000000000000000000000000000000000                              000000000000000
202008060010009700000000000050795947                8000000000030658650242EDET S.A.                     000000021595656000000000633198000000000000000000000000482269000000000000000000000000281323000000000000000000000000000000PES00010000001000000000000000000000000000000000000000000                              000000000000000
202008060010001400000000000000206612                8000000000030707249850DISTRIBUIDORA FAR PEP SH      000000000129122000000000000000000000000000000000000000000000000000000000000000000000000000000000000000000000000000000000PES00010000001000000000000000000000000000000000000000000                              000000000000000
202008060010008000000000000000129025                8000000000030556381778JOSE V. PAOLETTI SRL          000000000864290000000000000000000000000000000000000000000000000000000000000000000000002676000000000000000000000000640673PES00010000001000000000000000000000000000000000000000000                              000000000000000
202008060010002100000000000000072188                8000000000030708796065SHARE OUT SRL                 000000000895120000000000000000000000000000000000000000000000000000000000000000000000035520000000000000000000000000000000PES00010000001000000000000000000000000000000000000000000                              000000000000000
202008060010002100000000000000072198                8000000000030708796065SHARE OUT SRL                 000000000002546000000000000000000000000000000000000000000000000000000000000000000000000000000000000000000000000000000000PES00010000001000000000000000000000000000000000000000000                              000000000000000
202008060010002100000000000000072187                8000000000030708796065SHARE OUT SRL                 000000002302867000000000000000000000000000000000000000000000000000000000000000000000091383000000000000000000000000000000PES00010000001000000000000000000000000000000000000000000                              000000000000000
202008070010001200000000000000225627                8000000000030542851836ABC S.A                       000000000336590000000000000000000000000000000000000000008143000000000000000000000000000000000000000000000000000000000000PES00010000001000000000000000000000000000000000000000000                              000000000000000
202008070030201800000000000000082272                8000000000030546689979YPF SA                        000000001135653000000000000000000000000000000000000000027201000000000000000000000000011334000000000000000000000000000000PES00010000001000000000000000000000000000000000000000000                              000000000000000
202008070010000700000000000000164788                8000000000020133177249ROBERTO SANDOVAL              000000001130536000000000000000000000000000000000000000000000000000000000000000000000000000000000000000000000000000000000PES00010000001000000000000000000000000000000000000000000                              000000000000000
202008070010000700000000000000164782                8000000000020133177249ROBERTO SANDOVAL              000000001283711000000000000000000000000000000000000000000000000000000000000000000000000000000000000000000000000000000000PES00010000001000000000000000000000000000000000000000000                              000000000000000
202008080010509300000000000001757200                8000000000030518408689SALTA REFRESCOS S.A.          000000001227421000000000000000000000000000000000000000027732000000000000000000000000017294000000000000000000000000063858PES00010000001000000000000000000000000000000000000000000                              000000000000000
202008080010000100000000000000077527                8000000000030715422243DTS S.R.L.                    000000000442980000000000000000000000000000000000000000000000000000000000000000000000006315000000000000000000000000000000PES00010000001000000000000000000000000000000000000000000                              000000000000000
202008100010000300000000000000000715                8000000000027123184748MOLINA CELIA GRACIELA         000000000781660000000000000000000000000000000000000000000000000000000000000000000000000000000000000000000000000000000000PES00010000001000000000000000000000000000000000000000000                              000000000000000
202008100030042900000000000000000782                8000000000030507950848MOLINO CANUELAS S.A.C.I.F     000000000153334000000000000000000000000000000000000000000000000000000000000000000000000000000000000000000000000000000000PES00010000001000000000000000000000000000000000000000000                              000000000000000
202008100010000400000000000000002681                8000000000020282237203ANDRETTA SEBASTIAN ALEJAN     000000000667128000000000000000000000000000000000000000000000000000000000000000000000000000000000000000000000000000000000PES00010000001000000000000000000000000000000000000000000                              000000000000000
202008110010100600000000000000119870                8000000000030547751252POTIGIAN GOLOSINAS SACIF      000000000655038000000000000000000000000000000000000000015848000000000000000000000000000000000000000000000000000000000000PES00010000001000000000000000000000000000000000000000000                              000000000000000
202008110010000500000000000000000946                8000000000030716323567SIDETEC SRL                   000000000338640000000000000000000000000000000000000000000000000000000000000000000000000000000000000000000000000000000000PES00010000001000000000000000000000000000000000000000000                              000000000000000
202008110010000100000000000000001006                8000000000027181590977BOXES NEUMATICOS Y SERVIC     000000000409000000000000000000000000000000000000000000000000000000000000000000000000000000000000000000000000000000000000PES00010000001000000000000000000000000000000000000000000                              000000000000000
202008120010100600000000000000119932                8000000000030547751252POTIGIAN GOLOSINAS SACIF      000000002259790000000000000000000000000000000000000000053623000000000000000000000000000000000000000000000000000000043367PES00010000001000000000000000000000000000000000000000000                              000000000000000
202008120010509300000000000001759151                8000000000030518408689SALTA REFRESCOS S.A.          000000000793717000000000000000000000000000000000000000017915000000000000000000000000011185000000000000000000000000042040PES00010000001000000000000000000000000000000000000000000                              000000000000000
202008120010000500000000000000001210                8000000000020342268111LA LLAVE ELECTROFERRETERI     000000000028000000000000000000000000000000000000000000000000000000000000000000000000000000000000000000000000000000000000PES00010000001000000000000000000000000000000000000000000                              000000000000000
202008120030042900000000000000000788                8000000000030507950848MOLINO CANUELAS S.A.C.I.F     000000000153334000000000000000000000000000000000000000000000000000000000000000000000000000000000000000000000000000000000PES00010000001000000000000000000000000000000000000000000                              000000000000000
202008130010000100000000000000078551                8000000000030715422243DTS S.R.L.                    000000000660432000000000000000000000000000000000000000000000000000000000000000000000009416000000000000000000000000000000PES00010000001000000000000000000000000000000000000000000                              000000000000000
202008130010002100000000000000072391                8000000000030708796065SHARE OUT SRL                 000000001742808000000000000000000000000000000000000000000000000000000000000000000000067844000000000000000000000000000000PES00010000001000000000000000000000000000000000000000000                              000000000000000
202008130010088400000000000000027664                8000000000030507950848MOLINO CANUELAS S.A.C.I.F     000000000522985000000000000000000000000000000000000000012234000000000000000000000000017331000000000000000000000000000000PES00010000001000000000000000000000000000000000000000000                              000000000000000
202008130010008000000000000000129745                8000000000030556381778JOSE V. PAOLETTI SRL          000000003536297000000000000000000000000000000000000000000000000000000000000000000000010961000000000000000000000002645069PES00010000001000000000000000000000000000000000000000000                              000000000000000
202008130010000400000000000000036382                8000000000020231179934CASTRO                        000000000253310000000000000000000000000000000000000000000000000000000000000000000000000000000000000000000000000000000000PES00010000001000000000000000000000000000000000000000000                              000000000000000
202008130030201800000000000000082648                8000000000030546689979YPF SA                        000000001268015000000000000000000000000000000000000000030372000000000000000000000000012655000000000000000000000000000000PES00010000001000000000000000000000000000000000000000000                              000000000000000
202008130010002900000000000000044425                8000000000030677762345AXIS LOGISTICA SA             000000004201999000000000000000000000000000000000000000101661000000000000000000000000000000000000000000000000000000000000PES00010000001000000000000000000000000000000000000000000                              000000000000000
202008130010001400000000000000207422                8000000000030707249850DISTRIBUIDORA FAR PEP SH      000000000261805000000000000000000000000000000000000000000000000000000000000000000000000000000000000000000000000000000000PES00010000001000000000000000000000000000000000000000000                              000000000000000
202008130010807300000000000000859110                8000000000030707210385LA SERENISIMA S.A.            000000000126115000000000000000000000000000000000000000000000000000000000000000000000001798000000000000000000000000000000PES00010000001000000000000000000000000000000000000000000                              000000000000000
202008140010000700000000000000165669                8000000000020133177249ROBERTO SANDOVAL              000000000291385000000000000000000000000000000000000000000000000000000000000000000000000000000000000000000000000000000000PES00010000001000000000000000000000000000000000000000000                              000000000000000
202008140010000700000000000000165668                8000000000020133177249ROBERTO SANDOVAL              000000000244223000000000000000000000000000000000000000000000000000000000000000000000000000000000000000000000000000000000PES00010000001000000000000000000000000000000000000000000                              000000000000000
202008140010547900000000000000007800                8000000000030501112662BRITISH AMERICAN TABACCO      000000000300206000000000000000000000000000000000000000000000000000000000000000000000014296000000000000000000000000214973PES00010000001000000000000000000000000000000000000000000                              000000000000000
202008140010509300000000000001760370                8000000000030518408689SALTA REFRESCOS S.A.          000000000643929000000000000000000000000000000000000000014606000000000000000000000000009064000000000000000000000000031151PES00010000001000000000000000000000000000000000000000000                              000000000000000
202008140010201900000000000000356087                8000000000030546689979YPF SA                        000000064922155000000000000000000000000000000000000001555022000000000000000000000000647926000000000000000000000000000000PES00010000001000000000000000000000000000000000000000000                              000000000000000
202008140010201900000000000000356088                8000000000030546689979YPF SA                        000000001469482000000000000000000000000000000000000000035197000000000000000000000000014666000000000000000000000000000000PES00010000001000000000000000000000000000000000000000000                              000000000000000
202008150010000900000000000000005840                8000000000027060678443VICTORIA DEL CARMEN CACER     000000000130000000000000000000000000000000000000000000000000000000000000000000000000000000000000000000000000000000000000PES00010000001000000000000000000000000000000000000000000                              000000000000000
202008150010000900000000000000005848                8000000000027060678443VICTORIA DEL CARMEN CACER     000000000704000000000000000000000000000000000000000000000000000000000000000000000000000000000000000000000000000000000000PES00010000001000000000000000000000000000000000000000000                              000000000000000
202008170010000400000000000000002716                8000000000020282237203ANDRETTA SEBASTIAN ALEJAN     000000001372259000000000000000000000000000000000000000000000000000000000000000000000000000000000000000000000000000000000PES00010000001000000000000000000000000000000000000000000                              000000000000000
202008170010000700000000000000166021                8000000000020133177249ROBERTO SANDOVAL              000000001095333000000000000000000000000000000000000000000000000000000000000000000000000000000000000000000000000000000000PES00010000001000000000000000000000000000000000000000000                              000000000000000
202008170010509300000000000001761637                8000000000030518408689SALTA REFRESCOS S.A.          000000001011930000000000000000000000000000000000000000023451000000000000000000000000014177000000000000000000000000028434PES00010000001000000000000000000000000000000000000000000                              000000000000000
202008170010003900000000000000009840                8000000000030702355601NUEVO POLONORTE SRL           000000000980488000000000000000000000000000000000000000000000000000000000000000000000000000000000000000000000000000000000PES00010000001000000000000000000000000000000000000000000                              000000000000000
202008170010000700000000000000165883                8000000000020133177249ROBERTO SANDOVAL              000000000659939000000000000000000000000000000000000000000000000000000000000000000000000000000000000000000000000000000000PES00010000001000000000000000000000000000000000000000000                              000000000000000
202008170010000700000000000000165879                8000000000020133177249ROBERTO SANDOVAL              000000000147884000000000000000000000000000000000000000000000000000000000000000000000000000000000000000000000000000000000PES00010000001000000000000000000000000000000000000000000                              000000000000000
202008170010000700000000000000165882                8000000000020133177249ROBERTO SANDOVAL              000000000697224000000000000000000000000000000000000000000000000000000000000000000000000000000000000000000000000000000000PES00010000001000000000000000000000000000000000000000000                              000000000000000
202008190010100600000000000000122186                8000000000030547751252POTIGIAN GOLOSINAS SACIF      000000005576122000000000000000000000000000000000000000134906000000000000000000000000000000000000000000000000000000000000PES00010000001000000000000000000000000000000000000000000                              000000000000000
202008190010201800000000000000129370                8000000000030546689979YPF SA                        000000012219253000000000000000000000000000000000000000292677000000000000000000000000121949000000000000000000000000000000PES00010000001000000000000000000000000000000000000000000                              000000000000000
202008190010100600000000000000122217                8000000000030547751252POTIGIAN GOLOSINAS SACIF      000000004473698000000000000000000000000000000000000000107911000000000000000000000000000000000000000000000000000000013393PES00010000001000000000000000000000000000000000000000000                              000000000000000
202008190010201900000000000000356467                8000000000030546689979YPF SA                        000000005997030000000000000000000000000000000000000000143641000000000000000000000000059851000000000000000000000000000000PES00010000001000000000000000000000000000000000000000000                              000000000000000
202008200010002100000000000000072584                8000000000030708796065SHARE OUT SRL                 000000000202230000000000000000000000000000000000000000000000000000000000000000000000008025000000000000000000000000000000PES00010000001000000000000000000000000000000000000000000                              000000000000000
202008200010002100000000000000072583                8000000000030708796065SHARE OUT SRL                 000000004506671000000000000000000000000000000000000000000000000000000000000000000000178836000000000000000000000000000000PES00010000001000000000000000000000000000000000000000000                              000000000000000
202008200010008000000000000000130339                8000000000030556381778JOSE V. PAOLETTI SRL          000000002554170000000000000000000000000000000000000000000000000000000000000000000000007920000000000000000000000001916133PES00010000001000000000000000000000000000000000000000000                              000000000000000
202008200010000100000000000000079443                8000000000030715422243DTS S.R.L.                    000000000822173000000000000000000000000000000000000000000000000000000000000000000000011721000000000000000000000000000000PES00010000001000000000000000000000000000000000000000000                              000000000000000
202008200010001400000000000000208102                8000000000030707249850DISTRIBUIDORA FAR PEP SH      000000000199142000000000000000000000000000000000000000000000000000000000000000000000000000000000000000000000000000000000PES00010000001000000000000000000000000000000000000000000                              000000000000000
202008200010201900000000000000356584                8000000000030546689979YPF SA                        000000004969012000000000000000000000000000000000000000119018000000000000000000000000049591000000000000000000000000000000PES00010000001000000000000000000000000000000000000000000                              000000000000000
202008210010000700000000000000166525                8000000000020133177249ROBERTO SANDOVAL              000000000236677000000000000000000000000000000000000000000000000000000000000000000000000000000000000000000000000000000000PES00010000001000000000000000000000000000000000000000000                              000000000000000
202008210010000700000000000000166526                8000000000020133177249ROBERTO SANDOVAL              000000000099152000000000000000000000000000000000000000000000000000000000000000000000000000000000000000000000000000000000PES00010000001000000000000000000000000000000000000000000                              000000000000000
202008210010509300000000000001764116                8000000000030518408689SALTA REFRESCOS S.A.          000000001455823000000000000000000000000000000000000000032939000000000000000000000000020506000000000000000000000000073829PES00010000001000000000000000000000000000000000000000000                              000000000000000
202008210010000300000000000000000801                8000000000020249829898DUMA DISTRIBUCIONES           000000001057423000000000000000000000000000000000000000000000000000000000000000000000000000000000000000000000000000000000PES00010000001000000000000000000000000000000000000000000                              000000000000000
202008210010001200000000000000226309                8000000000030542851836ABC S.A                       000000008169565000000000000000000000000000000000000000197651000000000000000000000000000000000000000000000000000000000000PES00010000001000000000000000000000000000000000000000000                              000000000000000
202008210010547400000000000000004337                8000000000030501112662BRITISH AMERICAN TABACCO      000000000914762000000000000000000000000000000000000000000000000000000000000000000000043560000000000000000000000000676540PES00010000001000000000000000000000000000000000000000000                              000000000000000
202008220010807300000000000000863385                8000000000030707210385LA SERENISIMA S.A.            000000000340442000000000000000000000000000000000000000008122000000000000000000000000004738000000000000000000000000000000PES00010000001000000000000000000000000000000000000000000                              000000000000000
202008240010000700000000000000166713                8000000000020133177249ROBERTO SANDOVAL              000000000220381000000000000000000000000000000000000000000000000000000000000000000000000000000000000000000000000000000000PES00010000001000000000000000000000000000000000000000000                              000000000000000
202008240010000700000000000000166708                8000000000020133177249ROBERTO SANDOVAL              000000001249703000000000000000000000000000000000000000000000000000000000000000000000000000000000000000000000000000000000PES00010000001000000000000000000000000000000000000000000                              000000000000000
202008240010509300000000000001765447                8000000000030518408689SALTA REFRESCOS S.A.          000000000838968000000000000000000000000000000000000000018962000000000000000000000000011819000000000000000000000000043379PES00010000001000000000000000000000000000000000000000000                              000000000000000
202008240010000400000000000000002751                8000000000020282237203ANDRETTA SEBASTIAN ALEJAN     000000001113630000000000000000000000000000000000000000000000000000000000000000000000000000000000000000000000000000000000PES00010000001000000000000000000000000000000000000000000                              000000000000000
202008240010003900000000000000009925                8000000000030702355601NUEVO POLONORTE SRL           000000000304290000000000000000000000000000000000000000000000000000000000000000000000000000000000000000000000000000000000PES00010000001000000000000000000000000000000000000000000                              000000000000000
202008250030042900000000000000000794                8000000000030507950848MOLINO CANUELAS S.A.C.I.F     000000000153334000000000000000000000000000000000000000000000000000000000000000000000000000000000000000000000000000000000PES00010000001000000000000000000000000000000000000000000                              000000000000000
202008260030002100000000000000004271                8000000000030708796065SHARE OUT SRL                 000000000007737000000000000000000000000000000000000000000000000000000000000000000000000000000000000000000000000000000000PES00010000001000000000000000000000000000000000000000000                              000000000000000
202008260010000500000000000000001031                8000000000030716323567SIDETEC SRL                   000000000633234000000000000000000000000000000000000000000000000000000000000000000000000000000000000000000000000000000000PES00010000001000000000000000000000000000000000000000000                              000000000000000
202008260010088400000000000000027959                8000000000030507950848MOLINO CANUELAS S.A.C.I.F     000000001869651000000000000000000000000000000000000000043735000000000000000000000000061957000000000000000000000000000000PES00010000001000000000000000000000000000000000000000000                              000000000000000
202008260010100600000000000000124858                8000000000030547751252POTIGIAN GOLOSINAS SACIF      000000002838489000000000000000000000000000000000000000068673000000000000000000000000000000000000000000000000000000000000PES00010000001000000000000000000000000000000000000000000                              000000000000000
202008260010000300000000000000472173                8000000000033687473189PANINO SA                     000000005880883000000000000000000000000000000000000000000000000000000000000000000000000000000000000000000000000000000000PES00010000001000000000000000000000000000000000000000000                              000000000000000
202008260010201800000000000000130657                8000000000030546689979YPF SA                        000000008551875000000000000000000000000000000000000000204835000000000000000000000000085348000000000000000000000000000000PES00010000001000000000000000000000000000000000000000000                              000000000000000
202008260010509300000000000001766743                8000000000030518408689SALTA REFRESCOS S.A.          000000000681576000000000000000000000000000000000000000015477000000000000000000000000009593000000000000000000000000032255PES00010000001000000000000000000000000000000000000000000                              000000000000000
202008260030042900000000000000000776                8000000000030507950848MOLINO CANUELAS S.A.C.I.F     000000000239600000000000000000000000000000000000000000000000000000000000000000000000003416000000000000000000000000000000PES00010000001000000000000000000000000000000000000000000                              000000000000000
202008270010807300000000000000865783                8000000000030707210385LA SERENISIMA S.A.            000000000504541000000000000000000000000000000000000000012037000000000000000000000000007021000000000000000000000000000000PES00010000001000000000000000000000000000000000000000000                              000000000000000
202008270010000500000000000000001230                8000000000020342268111LA LLAVE FERRETERIA           000000000320000000000000000000000000000000000000000000000000000000000000000000000000000000000000000000000000000000000000PES00010000001000000000000000000000000000000000000000000                              000000000000000
202008270010000100000000000000080451                8000000000030715422243DTS S.R.L.                    000000000143651000000000000000000000000000000000000000000000000000000000000000000000000000000000000000000000000000000000PES00010000001000000000000000000000000000000000000000000                              000000000000000
202008270010002100000000000000072797                8000000000030708796065SHARE OUT SRL                 000000003220542000000000000000000000000000000000000000000000000000000000000000000000127801000000000000000000000000000000PES00010000001000000000000000000000000000000000000000000                              000000000000000
202008270010001400000000000000208783                8000000000030707249850DISTRIBUIDORA FAR PEP SH      000000000404045000000000000000000000000000000000000000000000000000000000000000000000005760000000000000000000000000000000PES00010000001000000000000000000000000000000000000000000                              000000000000000
202008270010008000000000000000131153                8000000000030556381778JOSE V. PAOLETTI SRL          000000003727135000000000000000000000000000000000000000000000000000000000000000000000011573000000000000000000000002824975PES00010000001000000000000000000000000000000000000000000                              000000000000000
202008280010001200000000000000226753                8000000000030542851836ABC S.A                       000000002697680000000000000000000000000000000000000000000000000000000000000000000000065266000000000000000000000000000000PES00010000001000000000000000000000000000000000000000000                              000000000000000
202008280010214200000000000000164908                8000000000030546689979YPF SA                        000000007686535000000000000000000000000000000000000000185964000000000000000000000000000000000000000000000000000000000000PES00010000001000000000000000000000000000000000000000000                              000000000000000
202008280010000700000000000000167365                8000000000020133177249ROBERTO SANDOVAL              000000000160671000000000000000000000000000000000000000000000000000000000000000000000000000000000000000000000000000000000PES00010000001000000000000000000000000000000000000000000                              000000000000000
202008280010000700000000000000167360                8000000000020133177249ROBERTO SANDOVAL              000000000086389000000000000000000000000000000000000000000000000000000000000000000000000000000000000000000000000000000000PES00010000001000000000000000000000000000000000000000000                              000000000000000
202008280010509300000000000001768051                8000000000030518408689SALTA REFRESCOS S.A.          000000001165132000000000000000000000000000000000000000026350000000000000000000000000016413000000000000000000000000059605PES00010000001000000000000000000000000000000000000000000                              000000000000000
202008280010214200000000000000165510                8000000000030546689979YPF SA                        000000006348087000000000000000000000000000000000000000153582000000000000000000000000000000000000000000000000000000000000PES00010000001000000000000000000000000000000000000000000                              000000000000000
202008280030255000000000000000093505                8000000000030546689979YPF SA                        000000006278950000000000000000000000000000000000000000000000000000000000000000000000000000000000000000000000000000000000PES00010000001000000000000000000000000000000000000000000                              000000000000000
202008290010000200000000000000000005                8000000000020207599620CASTRO SERGIO ADALBERTO       000000000300000000000000000000000000000000000000000000000000000000000000000000000000000000000000000000000000000000000000PES00010000001000000000000000000000000000000000000000000                              000000000000000
202008290010100600000000000000124868                8000000000030547751252POTIGIAN GOLOSINAS SACIF      000000002968458000000000000000000000000000000000000000070825000000000000000000000000000000000000000000000000000000041008PES00010000001000000000000000000000000000000000000000000                              000000000000000
202008290030255000000000000000094445                8000000000030546689979YPF SA                        000000002977885000000000000000000000000000000000000000000000000000000000000000000000000000000000000000000000000000000000PES00010000001000000000000000000000000000000000000000000                              000000000000000
202008310010010900000000000000000060                8000000000030546689979YPF SA                        000002125904323000000037577187000000000000000000000000000000000000000000000000000000000000000000000000000000000420064758PES00010000001000000000000000000000000000000000000000000                              000000000000000
202008310010003900000000000000009992                8000000000030702355601NUEVO POLONORTE SRL           000000000304290000000000000000000000000000000000000000000000000000000000000000000000000000000000000000000000000000000000PES00010000001000000000000000000000000000000000000000000                              000000000000000
202008310010509300000000000001769406                8000000000030518408689SALTA REFRESCOS S.A.          000000001266803000000000000000000000000000000000000000028886000000000000000000000000017812000000000000000000000000055017PES00010000001000000000000000000000000000000000000000000                              000000000000000
202008310010000400000000000000002773                8000000000020282237203ANDRETTA SEBASTIAN ALEJAN     000000000588142000000000000000000000000000000000000000000000000000000000000000000000000000000000000000000000000000000000PES00010000001000000000000000000000000000000000000000000                              000000000000000
202008310030255000000000000000095364                8000000000030546689979YPF SA                        000000012530000000000000000000000000000000000000000000000000000000000000000000000000000000000000000000000000000000000000PES00010000001000000000000000000000000000000000000000000                              000000000000000
