202009010010001000000000000000001135000000000000000011358000000000020110747625PEREZ JUAN LUIS               000000000019003000000000000000000000000000000000000000000000000000000000000000000000000000000000000000000000000000000000PES00010000001000000000000000000000000
202009010010001000000000000000001136000000000000000011368000000000020260316835NASSER ROLANDO JAVIE          000000000018098000000000000000000000000000000000000000000000000000000000000000000000000000000000000000000000000000000000PES00010000001000000000000000000000000
202009010010001000000000000000001137000000000000000011378000000000030714962309BRUFOR AGRO SRL               000000000043998000000000000000000000000000000000000000000000000000000000000000000000000000000000000000000000000000000000PES00010000001000000000000000000000000
202009010010001000000000000000004258000000000000000042588000000000030691743647AGROSISTEMAS SRL              000000000070900000000000000000000000000000000000000000000000000000000000000000000000000000000000000000000000000000000230PES00010000001000000000000000000000000
202009010010001000000000000000004259000000000000000042598000000000023224295499PEREZ ELIO ULISES             000000000014998000000000000000000000000000000000000000000000000000000000000000000000000000000000000000000000000000000000PES00010000001000000000000000000000000
202009010010001000000000000000004260000000000000000042608000000000030709866709LAROCCA SALTA NEUMAT          000000000028498000000000000000000000000000000000000000000000000000000000000000000000000000000000000000000000000000000000PES00010000001000000000000000000000000
202009010010001000000000000000004261000000000000000042618000000000033685652809WIDENET                       000000000063001000000000000000000000000000000000000000000000000000000000000000000000000000000000000000000000000000000000PES00010000001000000000000000000000000
202009010010001000000000000000004262000000000000000042628000000000030709101354COSMOFLOR SA                  000000000039602000000000000000000000000000000000000000000000000000000000000000000000000000000000000000000000000000000000PES00010000001000000000000000000000000
202009010010001000000000000000004263000000000000000042638000000000030593315157BROMETAN S.R.L                000000000023802000000000000000000000000000000000000000000000000000000000000000000000000000000000000000000000000000000000PES00010000001000000000000000000000000
202009010010001000000000000000009019000000000000000090198000000000020143590535GIL MANUEL ANTONIO            000000000579997000000000000000000000000000000000000000000000000000000000000000000000000000000000000000000000000000104968PES00010000001000000000000000000000000
202009010010001000000000000000009020000000000000000090208000000000030716730529SAM SRL                       000000000300020000000000000000000000000000000000000000000000000000000000000000000000000000000000000000000000000000054298PES00010000001000000000000000000000000
202009010010001000000000000000009021000000000000000090218000000000030715267027MALBEC S.R.L                  000000000299999000000000000000000000000000000000000000000000000000000000000000000000000000000000000000000000000000054294PES00010000001000000000000000000000000
202009010010001000000000000000009022000000000000000090228000000000027257855509PORRICIELLO ARIANA M          000000000600001000000000000000000000000000000000000000000000000000000000000000000000000000000000000000000000000000084172PES00010000001000000000000000000000000
202009010010001000000000000000009023000000000000000090238000000000020143590535GIL MANUEL ANTONIO            000000000579997000000000000000000000000000000000000000000000000000000000000000000000000000000000000000000000000000104968PES00010000001000000000000000000000000
202009010010001000000000000000009024000000000000000090248000000000020138611109PEREZ RAUL SALVADOR           000000001739694000000000000000000000000000000000000000000000000000000000000000000000000000000000000000000000000000314850PES00010000001000000000000000000000000
202009010010001000000000000000009025000000000000000090258000000000020255276418SARAPURA NESTOR               000000000989996000000000000000000000000000000000000000000000000000000000000000000000000000000000000000000000000000179169PES00010000001000000000000000000000000
202009010010001000000000000000009026000000000000000090268000000000027412750093ROCIO PARADI                  000000000078085000000000000000000000000000000000000000000000000000000000000000000000000000000000000000000000000000000000PES00010000001000000000000000000000000
202009010010001000000000000000009027000000000000000090278000000000020138614736PONCE DE LEON ANTONI          000000000899996000000000000000000000000000000000000000000000000000000000000000000000000000000000000000000000000000162881PES00010000001000000000000000000000000
202009010010001000000000000000009029000000000000000090298000000000020161540898HERRERA RICARDO ALBE          000000000810088000000000000000000000000000000000000000000000000000000000000000000000000000000000000000000000000000146610PES00010000001000000000000000000000000
202009010010001000000000000000009030000000000000000090308000000000027259926721SALAZAR SOFIA SOLEDA          000000000599997000000000000000000000000000000000000000000000000000000000000000000000000000000000000000000000000000108587PES00010000001000000000000000000000000
202009010010001000000000000000009031000000000000000090318000000000030711238588FRI NOA LOGISTICA S.          000000000900011000000000000000000000000000000000000000000000000000000000000000000000000000000000000000000000000000162885PES00010000001000000000000000000000000
202009010010001000000000000000009032000000000000000090328000000000020393664178PIZZIA NAZARENO               000000001979993000000000000000000000000000000000000000000000000000000000000000000000000000000000000000000000000000358339PES00010000001000000000000000000000000
202009010010001000000000000000012512000000000000000125128000000000030716744198CONSTRUFAM SRL                000000000034000000000000000000000000000000000000000000000000000000000000000000000000000000000000000000000000000000000408PES00010000001000000000000000000000000
202009010010001000000000000000012513000000000000000125138000000000020240591805FIGUEROA JUAN SANTIA          000000000033003000000000000000000000000000000000000000000000000000000000000000000000000000000000000000000000000000000396PES00010000001000000000000000000000000
202009010010001000000000000000012514000000000000000125148000000000030521797904COOPERATIVA CAMPO DE          000000000030000000000000000000000000000000000000000000000000000000000000000000000000000000000000000000000000000000000360PES00010000001000000000000000000000000
202009010010001000000000000000012515000000000000000125158000000000030710735537R.V INGENIERIA S.R.L          000000000019636000000000000000000000000000000000000000000000000000000000000000000000000000000000000000000000000000000236PES00010000001000000000000000000000000
202009010010001000000000000000012516000000000000000125168000000000020170946430RAMIRO ESTEBAN GUERR          000000000051001000000000000000000000000000000000000000000000000000000000000000000000000000000000000000000000000000000613PES00010000001000000000000000000000000
202009010010001000000000000000012517000000000000000125178000000000027230138910SANTILLA MONICA FABI          000000000250003000000000000000000000000000000000000000000000000000000000000000000000000000000000000000000000000000035072PES00010000001000000000000000000000000
202009010010001000000000000000012518000000000000000125188000000000030714516899AGRO ACONQUIJA S.R.L          000000000028000000000000000000000000000000000000000000000000000000000000000000000000000000000000000000000000000000000336PES00010000001000000000000000000000000
202009010010001000000000000000012519000000000000000125198000000000020341330182ALVAREZ MIGUEL EXEQU          000000000029002000000000000000000000000000000000000000000000000000000000000000000000000000000000000000000000000000000348PES00010000001000000000000000000000000
202009010010001000000000000000012520000000000000000125208000000000030714782130S.B.CONSTRUCCIONES S          000000000300000000000000000000000000000000000000000000000000000000000000000000000000000000000000000000000000000000042086PES00010000001000000000000000000000000
202009010010001000000000000000012521000000000000000125218000000000020122578535RAMON EDUARDO ALBORN          000000000170000000000000000000000000000000000000000000000000000000000000000000000000000000000000000000000000000000023849PES00010000001000000000000000000000000
202009010010001000000000000000012522000000000000000125228000000000020122578535RAMON EDUARDO ALBORN          000000000149999000000000000000000000000000000000000000000000000000000000000000000000000000000000000000000000000000030578PES00010000001000000000000000000000000
202009010010001000000000000000012523000000000000000125238000000000020133018744ALE JOSE ABRAHAM              000000000030000000000000000000000000000000000000000000000000000000000000000000000000000000000000000000000000000000000360PES00010000001000000000000000000000000
202009010010001000000000000000012524000000000000000125248000000000030712478817ALINOA SA                     000000000200001000000000000000000000000000000000000000000000000000000000000000000000000000000000000000000000000000040771PES00010000001000000000000000000000000
202009010010001000000000000000012525000000000000000125258000000000030510984109SUCESORES DE SALOMON          000000000434022000000000000000000000000000000000000000000000000000000000000000000000000000000000000000000000000000088476PES00010000001000000000000000000000000
202009010010001000000000000000012526000000000000000125268000000000033714757429NOBEN SRL                     000000000021998000000000000000000000000000000000000000000000000000000000000000000000000000000000000000000000000000000264PES00010000001000000000000000000000000
202009010010001000000000000000012527000000000000000125278000000000020385092653ALDERETE CLAUDIO              000000000528038000000000000000000000000000000000000000000000000000000000000000000000000000000000000000000000000000000000PES00010000001000000000000000000000000
202009010010001000000000000000012528000000000000000125288000000000020256326036ARABOW CARLOS RUBEN           000000000060003000000000000000000000000000000000000000000000000000000000000000000000000000000000000000000000000000013643PES00010000001000000000000000000000000
202009010010001000000000000000012529000000000000000125298000000000020289542257GOMEZ ANGEL ARIEL             000000000019998000000000000000000000000000000000000000000000000000000000000000000000000000000000000000000000000000000240PES00010000001000000000000000000000000
202009010010001000000000000000017186000000000000000171868000000000030707184104COOP DE TRABAJO EL P          000000000200001000000000000000000000000000000000000000000000000000000000000000000000000000000000000000000000000000036196PES00010000001000000000000000000000000
202009010010001000000000000000017187000000000000000171878000000000030710606826ASB TECHNOLOGIES S.R          000000000300000000000000000000000000000000000000000000000000000000000000000000000000000000000000000000000000000000042086PES00010000001000000000000000000000000
202009010010001000000000000000017188000000000000000171888000000000030708668733REFRES NOW SA                 000000000240044000000000000000000000000000000000000000000000000000000000000000000000000000000000000000000000000000048933PES00010000001000000000000000000000000
202009010010001000000000000000017189000000000000000171898000000000027261096116ACOSTA ELSA                   000000000390029000000000000000000000000000000000000000000000000000000000000000000000000000000000000000000000000000079508PES00010000001000000000000000000000000
202009010010001000000000000000017190000000000000000171908000000000030625769767ESTANCIA INGAS S.R.L          000000000453064000000000000000000000000000000000000000000000000000000000000000000000000000000000000000000000000000063559PES00010000001000000000000000000000000
202009010010001000000000000000017191000000000000000171918000000000030716744198CONSTRUFAM SRL                000000001350736000000000000000000000000000000000000000000000000000000000000000000000000000000000000000000000000000244456PES00010000001000000000000000000000000
202009010010001000000000000000017192000000000000000171928000000000020102200668LUIS ALBERTO HERRERA          000000000280023000000000000000000000000000000000000000000000000000000000000000000000000000000000000000000000000000063669PES00010000001000000000000000000000000
202009010010001000000000000000017193000000000000000171938000000000023224295499PEREZ ELIO ULISES             000000000310087000000000000000000000000000000000000000000000000000000000000000000000000000000000000000000000000000063212PES00010000001000000000000000000000000
202009010010001000000000000000017194000000000000000171948000000000020105561009PEREZ LUIS ALBERTO            000000000300000000000000000000000000000000000000000000000000000000000000000000000000000000000000000000000000000000042086PES00010000001000000000000000000000000
202009010010001000000000000000017195000000000000000171958000000000030714679240ENERGY LINK S.A               000000000330032000000000000000000000000000000000000000000000000000000000000000000000000000000000000000000000000000046299PES00010000001000000000000000000000000
202009010010001000000000000000017196000000000000000171968000000000020102200676JOSE CUSSEDDU                 000000000402040000000000000000000000000000000000000000000000000000000000000000000000000000000000000000000000000000056401PES00010000001000000000000000000000000
202009010010001000000000000000017197000000000000000171978000000000030593315157BROMETAN S.R.L                000000000459002000000000000000000000000000000000000000000000000000000000000000000000000000000000000000000000000000064392PES00010000001000000000000000000000000
202009010010001000000000000000017198000000000000000171988000000000020136222342CARLOS LORCA                  000000000149999000000000000000000000000000000000000000000000000000000000000000000000000000000000000000000000000000021042PES00010000001000000000000000000000000
202009010010001000000000000000017199000000000000000171998000000000020171366977RODRIGUEZ JULIO CESA          000000000099997000000000000000000000000000000000000000000000000000000000000000000000000000000000000000000000000000014029PES00010000001000000000000000000000000
202009010010001000000000000000017200000000000000000172008000000000030715670328MA.DE S.R.L                   000000000199998000000000000000000000000000000000000000000000000000000000000000000000000000000000000000000000000000028057PES00010000001000000000000000000000000
202009010010001000000000000000017201000000000000000172018000000000020358124616GODOY JUAN LUIS               000000000050025000000000000000000000000000000000000000000000000000000000000000000000000000000000000000000000000000011374PES00010000001000000000000000000000000
202009010010001000000000000000019493000000000000000194938000000000030707521992COOPERATIVA DEL TRAB          000000000200048000000000000000000000000000000000000000000000000000000000000000000000000000000000000000000000000000045485PES00010000001000000000000000000000000
202009010010001000000000000000019494000000000000000194948000000000020248034123MIGUEL BUESO HECTOR           000000000329997000000000000000000000000000000000000000000000000000000000000000000000000000000000000000000000000000059723PES00010000001000000000000000000000000
202009010010001000000000000000019495000000000000000194958000000000030685674226BLAZQUEZ SRL                  000000000483499000000000000000000000000000000000000000000000000000000000000000000000000000000000000000000000000000093326PES00010000001000000000000000000000000
202009010010001000000000000000019496000000000000000194968000000000030536259194ORGANIZACION COORDIN          000000000085000000000000000000000000000000000000000000000000000000000000000000000000000000000000000000000000000000019327PES00010000001000000000000000000000000
202009010010001000000000000000019497000000000000000194978000000000030536259194ORGANIZACION COORDIN          000000000085000000000000000000000000000000000000000000000000000000000000000000000000000000000000000000000000000000019327PES00010000001000000000000000000000000
202009010010001000000000000000019498000000000000000194988000000000030708668733REFRES NOW SA                 000000000230073000000000000000000000000000000000000000000000000000000000000000000000000000000000000000000000000000052312PES00010000001000000000000000000000000
202009010010001000000000000000019499000000000000000194998000000000030626009618EXPRESO RIVADAVIA SR          000000000200003000000000000000000000000000000000000000000000000000000000000000000000000000000000000000000000000000045474PES00010000001000000000000000000000000
202009010010001000000000000000019500000000000000000195008000000000030710422512ELECTRICIDAD ITUARTE          000000000380011000000000000000000000000000000000000000000000000000000000000000000000000000000000000000000000000000053310PES00010000001000000000000000000000000
202009010010001000000000000000019501000000000000000195018000000000027232475906GARCIA TELMA PAOLA            000000000099997000000000000000000000000000000000000000000000000000000000000000000000000000000000000000000000000000014029PES00010000001000000000000000000000000
202009010010001000000000000000019502000000000000000195028000000000030504244586SAGEMULLER S.A                000000000375054000000000000000000000000000000000000000000000000000000000000000000000000000000000000000000000000000076455PES00010000001000000000000000000000000
202009010010001000000000000000019503000000000000000195038000000000030714516899AGRO ACONQUIJA S.R.L          000000000060003000000000000000000000000000000000000000000000000000000000000000000000000000000000000000000000000000013643PES00010000001000000000000000000000000
202009010010001000000000000000019504000000000000000195048000000000020213283325REINOZO SERGIO NICOL          000000000150000000000000000000000000000000000000000000000000000000000000000000000000000000000000000000000000000000034105PES00010000001000000000000000000000000
202009010010001000000000000000019505000000000000000195058000000000027149631386ARANCIBIA MIRTHA CRI          000000000059998000000000000000000000000000000000000000000000000000000000000000000000000000000000000000000000000000008417PES00010000001000000000000000000000000
202009010010001000000000000000019506000000000000000195068000000000020260316835NASSER ROLANDO JAVIE          000000000099998000000000000000000000000000000000000000000000000000000000000000000000000000000000000000000000000000022737PES00010000001000000000000000000000000
202009010010001000000000000000019507000000000000000195078000000000030714570540HORTIFRUT EXPOFRESH           000000000300000000000000000000000000000000000000000000000000000000000000000000000000000000000000000000000000000000042086PES00010000001000000000000000000000000
202009010010001000000000000000019508000000000000000195088000000000030709866709LAROCCA SALTA NEUMAT          000000000300000000000000000000000000000000000000000000000000000000000000000000000000000000000000000000000000000000042086PES00010000001000000000000000000000000
202009010010001000000000000000019509000000000000000195098000000000020341330182ALVAREZ MIGUEL EXEQU          000000000060003000000000000000000000000000000000000000000000000000000000000000000000000000000000000000000000000000013643PES00010000001000000000000000000000000
202009010010001000000000000000019510000000000000000195108000000000030709101354COSMOFLOR SA                  000000000180152000000000000000000000000000000000000000000000000000000000000000000000000000000000000000000000000000040962PES00010000001000000000000000000000000
202009010010001000000000000000019511000000000000000195118000000000020257400906ROLDAN RUBEN EDUARDO          000000000099998000000000000000000000000000000000000000000000000000000000000000000000000000000000000000000000000000018098PES00010000001000000000000000000000000
202009010010001000000000000000019512000000000000000195128000000000020248034123MIGUEL BUESO HECTOR           000000000700002000000000000000000000000000000000000000000000000000000000000000000000000000000000000000000000000000131325PES00010000001000000000000000000000000
202009010010001000000000000000019513000000000000000195138000000000020281244036MACCIO MARTIN                 000000000269999000000000000000000000000000000000000000000000000000000000000000000000000000000000000000000000000000055040PES00010000001000000000000000000000000
202009010010001000000000000000019514000000000000000195148000000000020084466841GUILLERMO VICENTE SA          000000000910043000000000000000000000000000000000000000000000000000000000000000000000000000000000000000000000000000145572PES00010000001000000000000000000000000
202009010010001000000000000000019515000000000000000195158000000000020286141154PABLO FERNANDO CORRE          000000000139982000000000000000000000000000000000000000000000000000000000000000000000000000000000000000000000000000028535PES00010000001000000000000000000000000
202009010010001000000000000000019516000000000000000195168000000000030714875112ELECTROMECANICA DEL           000000000050002000000000000000000000000000000000000000000000000000000000000000000000000000000000000000000000000000011368PES00010000001000000000000000000000000
202009010010001000000000000000019517000000000000000195178000000000020178926900HAEL ANTONIO ALBERTO          000000000099998000000000000000000000000000000000000000000000000000000000000000000000000000000000000000000000000000022737PES00010000001000000000000000000000000
202009010010001000000000000000019518000000000000000195188000000000033697225639ARGENTI LEMON                 000000000180031000000000000000000000000000000000000000000000000000000000000000000000000000000000000000000000000000040933PES00010000001000000000000000000000000
202009010010001000000000000000019519000000000000000195198000000000020245938072MARZORATTI LUIS ALBE          000000000200003000000000000000000000000000000000000000000000000000000000000000000000000000000000000000000000000000045474PES00010000001000000000000000000000000
202009010010001000000000000000019520000000000000000195208000000000030714339229LA SURENA SRL                 000000000099998000000000000000000000000000000000000000000000000000000000000000000000000000000000000000000000000000022737PES00010000001000000000000000000000000
202009010010001000000000000000019521000000000000000195218000000000020425243102SECO ROCHA NAHUEL IS          000000000199998000000000000000000000000000000000000000000000000000000000000000000000000000000000000000000000000000028057PES00010000001000000000000000000000000
202009010010001000000000000000019522000000000000000195228000000000020070198771MEDINA MANUEL                 000000000520022000000000000000000000000000000000000000000000000000000000000000000000000000000000000000000000000000094114PES00010000001000000000000000000000000
202009010010001000000000000000019523000000000000000195238000000000030684101605LAURENZANO SA                 000000000200003000000000000000000000000000000000000000000000000000000000000000000000000000000000000000000000000000045474PES00010000001000000000000000000000000
202009010010001000000000000000019524000000000000000195248000000000030711144184ANPAU SRL                     000000000199998000000000000000000000000000000000000000000000000000000000000000000000000000000000000000000000000000028057PES00010000001000000000000000000000000
202009010010001100000000000000001329000000000000000013298000000000030708513543TIERRA DE ARANDANOS           000000000948807000000000000000000000000000000000000000000000000000000000000000000000000000000000000000000000000000142682PES00010000001000000000000000000000000
202009010010001100000000000000001330000000000000000013308000000000030708496827MARGESI S.A                   000000001300889000000000000000000000000000000000000000000000000000000000000000000000000000000000000000000000000000247676PES00010000001000000000000000000000000
202009010010001100000000000000001331000000000000000013318000000000030628029780DIEGO ZAMORA E HIJO           000000004783037000000000000000000000000000000000000000000000000000000000000000000000000000000000000000000000000000812583PES00010000001000000000000000000000000
202009010010001100000000000000001332000000000000000013328000000000030658650242EDET                          000000000176401000000000000000000000000000000000000000000000000000000000000000000000000000000000000000000000000000000000PES00010000001000000000000000000000000
202009010010001100000000000000001333000000000000000013338000000000030658650242EDET                          000000000527642000000000000000000000000000000000000000000000000000000000000000000000000000000000000000000000000000083843PES00010000001000000000000000000000000
202009010010001100000000000000001334000000000000000013348000000000030708067837AGRICOLA DE LEALES S          000000000940115000000000000000000000000000000000000000000000000000000000000000000000000000000000000000000000000000125606PES00010000001000000000000000000000000
202009010010001100000000000000001335000000000000000013358000000000033708668759ACHERAL S.A                   000000000869850000000000000000000000000000000000000000000000000000000000000000000000000000000000000000000000000000157425PES00010000001000000000000000000000000
202009010060001000000000000000001785000000000000000745069600000000000012345678Consumidor Final              000000016894603000000000043305000000000000000000000000000000000000000000000000000000000000000000000000000000000002413636PES00010000001000000000000000000000000
202009010820001000000000000000023217000000000000000232509600000000000012345678Consumidor Final              000000000833200000000000000000000000000000000000000000000000000000000000000000000000000000000000000000000000000000000000PES00010000001000000000000000000000000
202009020010001000000000000000000898000000000000000008988000000000020132193798JOSE ALBERTO PEREZ            000000000289420000000000000000000000000000000000000000000000000000000000000000000000000000000000000000000000000000000000PES00010000001000000000000000000000000
202009020010001000000000000000001138000000000000000011388000000000030709195251LA CELINA SRL                 000000000009801000000000000000000000000000000000000000000000000000000000000000000000000000000000000000000000000000000000PES00010000001000000000000000000000000
202009020010001000000000000000001139000000000000000011398000000000030500875239SA AZUCARERA                  000000000028700000000000000000000000000000000000000000000000000000000000000000000000000000000000000000000000000000000190PES00010000001000000000000000000000000
202009020010001000000000000000001140000000000000000011408000000000020110747625PEREZ JUAN LUIS               000000000011898000000000000000000000000000000000000000000000000000000000000000000000000000000000000000000000000000000000PES00010000001000000000000000000000000
202009020010001000000000000000004264000000000000000042648000000000020201781133CERUSICO RAUL ESTEBA          000000000036600000000000000000000000000000000000000000000000000000000000000000000000000000000000000000000000000000000000PES00010000001000000000000000000000000
202009020010001000000000000000004265000000000000000042658000000000033716401249VILOAGRO S.A.S                000000000018599000000000000000000000000000000000000000000000000000000000000000000000000000000000000000000000000000000000PES00010000001000000000000000000000000
202009020010001000000000000000004266000000000000000042668000000000030695177239AGROPECUARIA MISTOL           000000000044499000000000000000000000000000000000000000000000000000000000000000000000000000000000000000000000000000000127PES00010000001000000000000000000000000
202009020010001000000000000000004267000000000000000042678000000000030641290242GUIDOLI FLORIO S.R.L          000000000021999000000000000000000000000000000000000000000000000000000000000000000000000000000000000000000000000000000000PES00010000001000000000000000000000000
202009020010001000000000000000004268000000000000000042688000000000020070027497YAMUSS JOSE CAMEL             000000000132100000000000000000000000000000000000000000000000000000000000000000000000000000000000000000000000000000000487PES00010000001000000000000000000000000
202009020010001000000000000000004269000000000000000042698000000000020262499015HERRERA MARIANO               000000000042897000000000000000000000000000000000000000000000000000000000000000000000000000000000000000000000000000000000PES00010000001000000000000000000000000
202009020010001000000000000000004270000000000000000042708000000000033691776919FABRICA DE FIDEOS RI          000000000038000000000000000000000000000000000000000000000000000000000000000000000000000000000000000000000000000000000000PES00010000001000000000000000000000000
202009020010001000000000000000004271000000000000000042718000000000030709101354COSMOFLOR SA                  000000000011898000000000000000000000000000000000000000000000000000000000000000000000000000000000000000000000000000000000PES00010000001000000000000000000000000
202009020010001000000000000000004272000000000000000042728000000000030518408689SALTA REFRESCO                000000000032198000000000000000000000000000000000000000000000000000000000000000000000000000000000000000000000000000000000PES00010000001000000000000000000000000
202009020010001000000000000000004273000000000000000042738000000000030707976957AGRO LAJITAS                  000000000043197000000000000000000000000000000000000000000000000000000000000000000000000000000000000000000000000000000127PES00010000001000000000000000000000000
202009020010001000000000000000004274000000000000000042748000000000030707976957AGRO LAJITAS                  000000000079001000000000000000000000000000000000000000000000000000000000000000000000000000000000000000000000000000000000PES00010000001000000000000000000000000
202009020010001000000000000000004275000000000000000042758000000000033697225639ARGENTI LEMON                 000000000050999000000000000000000000000000000000000000000000000000000000000000000000000000000000000000000000000000000000PES00010000001000000000000000000000000
202009020010001000000000000000004276000000000000000042768000000000020160911388YSA VICTOR HUGO               000000000034001000000000000000000000000000000000000000000000000000000000000000000000000000000000000000000000000000000000PES00010000001000000000000000000000000
202009020010001000000000000000009033000000000000000090338000000000020393664178PIZZIA NAZARENO               000000002130185000000000000000000000000000000000000000000000000000000000000000000000000000000000000000000000000000385521PES00010000001000000000000000000000000
202009020010001000000000000000009034000000000000000090348000000000030679949825COOETAM LTDA.                 000000000099998000000000000000000000000000000000000000000000000000000000000000000000000000000000000000000000000000018098PES00010000001000000000000000000000000
202009020010001000000000000000009035000000000000000090358000000000033518356092RIMAR ALCOHOLES SRL           000000000099998000000000000000000000000000000000000000000000000000000000000000000000000000000000000000000000000000018098PES00010000001000000000000000000000000
202009020010001000000000000000009036000000000000000090368000000000030712044973CRUNCH SNACK SRL              000000000499998000000000000000000000000000000000000000000000000000000000000000000000000000000000000000000000000000070143PES00010000001000000000000000000000000
202009020010001000000000000000009037000000000000000090378000000000027257855509PORRICIELO MARISEL A          000000000500000000000000000000000000000000000000000000000000000000000000000000000000000000000000000000000000000000090490PES00010000001000000000000000000000000
202009020010001000000000000000009038000000000000000090388000000000020106357642VEGA SEGUNDO OSCAR            000000000150784000000000000000000000000000000000000000000000000000000000000000000000000000000000000000000000000000027289PES00010000001000000000000000000000000
202009020010001000000000000000009039000000000000000090398000000000020177452956CHOQUE CEFERINO               000000000989996000000000000000000000000000000000000000000000000000000000000000000000000000000000000000000000000000179169PES00010000001000000000000000000000000
202009020010001000000000000000009040000000000000000090408000000000033711270049TRANSPORTE VALLES DE          000000001499994000000000000000000000000000000000000000000000000000000000000000000000000000000000000000000000000000271469PES00010000001000000000000000000000000
202009020010001000000000000000009041000000000000000090418000000000030715136860RUAY SRL                      000000000499998000000000000000000000000000000000000000000000000000000000000000000000000000000000000000000000000000070143PES00010000001000000000000000000000000
202009020010001000000000000000009042000000000000000090428000000000020129186225GRANITO JOSE HUMBERT          000000000799998000000000000000000000000000000000000000000000000000000000000000000000000000000000000000000000000000144783PES00010000001000000000000000000000000
202009020010001000000000000000012530000000000000000125308000000000027258440450GARZON ELIANA                 000000000016003000000000000000000000000000000000000000000000000000000000000000000000000000000000000000000000000000000192PES00010000001000000000000000000000000
202009020010001000000000000000012531000000000000000125318000000000030710735537R.V INGENIERIA S.R.L          000000000019998000000000000000000000000000000000000000000000000000000000000000000000000000000000000000000000000000000240PES00010000001000000000000000000000000
202009020010001000000000000000012532000000000000000125328000000000020108422360FERNANDEZ LUIS ALBER          000000000178652000000000000000000000000000000000000000000000000000000000000000000000000000000000000000000000000000040620PES00010000001000000000000000000000000
202009020010001000000000000000012533000000000000000125338000000000027290108786RUEDA MARIA DE LOS A          000000000026000000000000000000000000000000000000000000000000000000000000000000000000000000000000000000000000000000000312PES00010000001000000000000000000000000
202009020010001000000000000000012534000000000000000125348000000000020331378365GUILLERMO JOSE MORS           000000000099998000000000000000000000000000000000000000000000000000000000000000000000000000000000000000000000000000022737PES00010000001000000000000000000000000
202009020010001000000000000000012535000000000000000125358000000000020209416590CHEBIB WALTER SIMON           000000000099998000000000000000000000000000000000000000000000000000000000000000000000000000000000000000000000000000022737PES00010000001000000000000000000000000
202009020010001000000000000000012536000000000000000125368000000000020209416590CHEBIB WALTER SIMON           000000000015000000000000000000000000000000000000000000000000000000000000000000000000000000000000000000000000000000000180PES00010000001000000000000000000000000
202009020010001000000000000000012537000000000000000125378000000000030711668116MC KREDIT S.R.L EN F          000000000010002000000000000000000000000000000000000000000000000000000000000000000000000000000000000000000000000000000120PES00010000001000000000000000000000000
202009020010001000000000000000012538000000000000000125388000000000030710061196NATUBY SRL                    000000000150000000000000000000000000000000000000000000000000000000000000000000000000000000000000000000000000000000034105PES00010000001000000000000000000000000
202009020010001000000000000000012539000000000000000125398000000000020208985761PABLO ROBIN                   000000000250003000000000000000000000000000000000000000000000000000000000000000000000000000000000000000000000000000035072PES00010000001000000000000000000000000
202009020010001000000000000000012540000000000000000125408000000000030686172577WM ARGETINA S.A               000000000079998000000000000000000000000000000000000000000000000000000000000000000000000000000000000000000000000000018190PES00010000001000000000000000000000000
202009020010001000000000000000012541000000000000000125418000000000027176144373SONIA GOMEZ                   000000000150000000000000000000000000000000000000000000000000000000000000000000000000000000000000000000000000000000034105PES00010000001000000000000000000000000
202009020010001000000000000000012542000000000000000125428000000000020342813187URUENA LASSALLE               000000000450001000000000000000000000000000000000000000000000000000000000000000000000000000000000000000000000000000063129PES00010000001000000000000000000000000
202009020010001000000000000000012543000000000000000125438000000000020248038706SUREDA PEDRO JUAN             000000000099997000000000000000000000000000000000000000000000000000000000000000000000000000000000000000000000000000014029PES00010000001000000000000000000000000
202009020010001000000000000000012544000000000000000125448000000000020110747625PEREZ JUAN LUIS               000000000080023000000000000000000000000000000000000000000000000000000000000000000000000000000000000000000000000000011226PES00010000001000000000000000000000000
202009020010001000000000000000012545000000000000000125458000000000020186152442SALVADOR RADINO               000000000017974000000000000000000000000000000000000000000000000000000000000000000000000000000000000000000000000000000216PES00010000001000000000000000000000000
202009020010001000000000000000012546000000000000000125468000000000030709482005MARIA JESUS SRL               000000000048003000000000000000000000000000000000000000000000000000000000000000000000000000000000000000000000000000000577PES00010000001000000000000000000000000
202009020010001000000000000000012547000000000000000125478000000000020262539270SALOMON MARCOS LEONA          000000000017997000000000000000000000000000000000000000000000000000000000000000000000000000000000000000000000000000000216PES00010000001000000000000000000000000
202009020010001000000000000000012548000000000000000125488000000000020172973044ROCHA DANTE OMAR              000000000060003000000000000000000000000000000000000000000000000000000000000000000000000000000000000000000000000000012231PES00010000001000000000000000000000000
202009020010001000000000000000012549000000000000000125498000000000030675407416FERRETERA DEL NORTE           000000000139067000000000000000000000000000000000000000000000000000000000000000000000000000000000000000000000000000031619PES00010000001000000000000000000000000
202009020010001000000000000000012550000000000000000125508000000000030639227096INTRA SRL                     000000000227060000000000000000000000000000000000000000000000000000000000000000000000000000000000000000000000000000046286PES00010000001000000000000000000000000
202009020010001000000000000000012551000000000000000125518000000000030714875112ELECTROMECANICA DEL           000000000050002000000000000000000000000000000000000000000000000000000000000000000000000000000000000000000000000000011368PES00010000001000000000000000000000000
202009020010001000000000000000012552000000000000000125528000000000030708544678PEDROTTI SRL                  000000000129642000000000000000000000000000000000000000000000000000000000000000000000000000000000000000000000000000029477PES00010000001000000000000000000000000
202009020010001000000000000000012553000000000000000125538000000000020175264486AGUERA JUAN ANTONIO           000000000019998000000000000000000000000000000000000000000000000000000000000000000000000000000000000000000000000000000240PES00010000001000000000000000000000000
202009020010001000000000000000017202000000000000000172028000000000020201781133CERUSICO RAUL ESTEBA          000000000250006000000000000000000000000000000000000000000000000000000000000000000000000000000000000000000000000000045246PES00010000001000000000000000000000000
202009020010001000000000000000017203000000000000000172038000000000020213280725CARLOS TAMER                  000000000248037000000000000000000000000000000000000000000000000000000000000000000000000000000000000000000000000000044890PES00010000001000000000000000000000000
202009020010001000000000000000017204000000000000000172048000000000030641290242GUIDOLI FLORIO S.R.L          000000000200001000000000000000000000000000000000000000000000000000000000000000000000000000000000000000000000000000040771PES00010000001000000000000000000000000
202009020010001000000000000000017205000000000000000172058000000000020069920293RODRIGUEZ MARIO ANTO          000000000521977000000000000000000000000000000000000000000000000000000000000000000000000000000000000000000000000000094467PES00010000001000000000000000000000000
202009020010001000000000000000017206000000000000000172068000000000020262499015HERRERA MARIANO               000000000199998000000000000000000000000000000000000000000000000000000000000000000000000000000000000000000000000000028057PES00010000001000000000000000000000000
202009020010001000000000000000017207000000000000000172078000000000020262499015HERRERA MARIANO               000000000199998000000000000000000000000000000000000000000000000000000000000000000000000000000000000000000000000000028057PES00010000001000000000000000000000000
202009020010001000000000000000017208000000000000000172088000000000030710502818KILOMETRO 14 SRL              000000000199998000000000000000000000000000000000000000000000000000000000000000000000000000000000000000000000000000028057PES00010000001000000000000000000000000
202009020010001000000000000000017209000000000000000172098000000000030679953814CITRUS SERVICE SRL            000000000200052000000000000000000000000000000000000000000000000000000000000000000000000000000000000000000000000000028065PES00010000001000000000000000000000000
202009020010001000000000000000017210000000000000000172108000000000030711251703LOS ARILOS S.R.L.             000000000199998000000000000000000000000000000000000000000000000000000000000000000000000000000000000000000000000000028057PES00010000001000000000000000000000000
202009020010001000000000000000017211000000000000000172118000000000030711251703LOS ARILOS S.R.L.             000000000099998000000000000000000000000000000000000000000000000000000000000000000000000000000000000000000000000000018098PES00010000001000000000000000000000000
202009020010001000000000000000017212000000000000000172128000000000030521797904COOPERATIVA CAMPO DE          000000000135018000000000000000000000000000000000000000000000000000000000000000000000000000000000000000000000000000030699PES00010000001000000000000000000000000
202009020010001000000000000000017213000000000000000172138000000000030709195251LA CELINA SRL                 000000000099998000000000000000000000000000000000000000000000000000000000000000000000000000000000000000000000000000022737PES00010000001000000000000000000000000
202009020010001000000000000000017214000000000000000172148000000000030709101354COSMOFLOR SA                  000000000089997000000000000000000000000000000000000000000000000000000000000000000000000000000000000000000000000000020462PES00010000001000000000000000000000000
202009020010001000000000000000017215000000000000000172158000000000020307707927ALDERETES JESUS OMAR          000000001150041000000000000000000000000000000000000000000000000000000000000000000000000000000000000000000000000000261486PES00010000001000000000000000000000000
202009020010001000000000000000017216000000000000000172168000000000020110747625PEREZ JUAN LUIS               000000000099997000000000000000000000000000000000000000000000000000000000000000000000000000000000000000000000000000014029PES00010000001000000000000000000000000
202009020010001000000000000000017217000000000000000172178000000000030710153066TEVELIN S.A                   000000000050002000000000000000000000000000000000000000000000000000000000000000000000000000000000000000000000000000011368PES00010000001000000000000000000000000
202009020010001000000000000000017218000000000000000172188000000000020286141154PABLO FERNANDO CORRE          000000000462921000000000000000000000000000000000000000000000000000000000000000000000000000000000000000000000000000069354PES00010000001000000000000000000000000
202009020010001000000000000000017219000000000000000172198000000000030595034996DONATO ALVAREZ S.R.L          000000000460047000000000000000000000000000000000000000000000000000000000000000000000000000000000000000000000000000064538PES00010000001000000000000000000000000
202009020010001000000000000000017220000000000000000172208000000000023163149079ALBERTO CARMONA               000000000435739000000000000000000000000000000000000000000000000000000000000000000000000000000000000000000000000000061129PES00010000001000000000000000000000000
202009020010001000000000000000017221000000000000000172218000000000020217454086AUTINO ALDO RUBEN             000000000400042000000000000000000000000000000000000000000000000000000000000000000000000000000000000000000000000000056120PES00010000001000000000000000000000000
202009020010001000000000000000017222000000000000000172228000000000030600614343MAC S. A.                     000000000380024000000000000000000000000000000000000000000000000000000000000000000000000000000000000000000000000000053313PES00010000001000000000000000000000000
202009020010001000000000000000017223000000000000000172238000000000020237196717DOMINGUEZ HECTOR HUG          000000000300000000000000000000000000000000000000000000000000000000000000000000000000000000000000000000000000000000042086PES00010000001000000000000000000000000
202009020010001000000000000000017224000000000000000172248000000000030716847787KYT SAS                       000000000350051000000000000000000000000000000000000000000000000000000000000000000000000000000000000000000000000000049107PES00010000001000000000000000000000000
202009020010001000000000000000017225000000000000000172258000000000030711324948AGROCRUZ S.R.L                000000000400002000000000000000000000000000000000000000000000000000000000000000000000000000000000000000000000000000056114PES00010000001000000000000000000000000
202009020010001000000000000000017226000000000000000172268000000000030708984376EL GUASANCHO SRL              000000000400023000000000000000000000000000000000000000000000000000000000000000000000000000000000000000000000000000056118PES00010000001000000000000000000000000
202009020010001000000000000000017227000000000000000172278000000000020160911388YSA VICTOR HUGO               000000000435055000000000000000000000000000000000000000000000000000000000000000000000000000000000000000000000000000061032PES00010000001000000000000000000000000
202009020010001000000000000000017228000000000000000172288000000000020148973157BOTTGER GERMAN ENRIQ          000000000267401000000000000000000000000000000000000000000000000000000000000000000000000000000000000000000000000000037513PES00010000001000000000000000000000000
202009020010001000000000000000017229000000000000000172298000000000027133985889CASTILLO ANGELA ISAB          000000000210003000000000000000000000000000000000000000000000000000000000000000000000000000000000000000000000000000042810PES00010000001000000000000000000000000
202009020010001000000000000000017230000000000000000172308000000000020173378603JUAREZ ANTONIO ARMAN          000000004999981000000000000000000000000000000000000000000000000000000000000000000000000000000000000000000000000000904897PES00010000001000000000000000000000000
202009020010001000000000000000017231000000000000000172318000000000030536121001COOPERATIVA AGROPECU          000000001493606000000000000000000000000000000000000000000000000000000000000000000000000000000000000000000000000000270313PES00010000001000000000000000000000000
202009020010001000000000000000017232000000000000000172328000000000020230204404GUERRA ANTONIO ALFRE          000000001649997000000000000000000000000000000000000000000000000000000000000000000000000000000000000000000000000000298617PES00010000001000000000000000000000000
202009020010001000000000000000019525000000000000000195258000000000030716430096MARSEL SRL                    000000000800006000000000000000000000000000000000000000000000000000000000000000000000000000000000000000000000000000112230PES00010000001000000000000000000000000
202009020010001000000000000000019526000000000000000195268000000000030710502818KILOMETRO 14 SRL              000000000099997000000000000000000000000000000000000000000000000000000000000000000000000000000000000000000000000000014029PES00010000001000000000000000000000000
202009020010001000000000000000019527000000000000000195278000000000030710735537R.V INGENIERIA S.R.L          000000000050002000000000000000000000000000000000000000000000000000000000000000000000000000000000000000000000000000011368PES00010000001000000000000000000000000
202009020010001000000000000000019528000000000000000195288000000000030710387571FRIOS DEL NORTE               000000000499998000000000000000000000000000000000000000000000000000000000000000000000000000000000000000000000000000070143PES00010000001000000000000000000000000
202009020010001000000000000000019529000000000000000195298000000000033716610069PUPA LOCAR SAS                000000002513946000000000000000000000000000000000000000000000000000000000000000000000000000000000000000000000000000437626PES00010000001000000000000000000000000
202009020010001000000000000000019530000000000000000195308000000000033712241719NICOSIA NICOSIA               000000000119999000000000000000000000000000000000000000000000000000000000000000000000000000000000000000000000000000021717PES00010000001000000000000000000000000
202009020010001000000000000000019531000000000000000195318000000000027257855509PORRICIELO ARIANA MA          000000000405090000000000000000000000000000000000000000000000000000000000000000000000000000000000000000000000000000056829PES00010000001000000000000000000000000
202009020010001000000000000000019532000000000000000195328000000000020100147247CASARES  ARTURO NAPO          000000000200003000000000000000000000000000000000000000000000000000000000000000000000000000000000000000000000000000045474PES00010000001000000000000000000000000
202009020010001000000000000000019533000000000000000195338000000000020302599530BUSTOS SERIO A                000000000099997000000000000000000000000000000000000000000000000000000000000000000000000000000000000000000000000000014029PES00010000001000000000000000000000000
202009020010001000000000000000019534000000000000000195348000000000020113665085FERREYRA  ALBERTO AL          000000000200003000000000000000000000000000000000000000000000000000000000000000000000000000000000000000000000000000045474PES00010000001000000000000000000000000
202009020010001000000000000000019535000000000000000195358000000000030639221128LAS LANZAS S.A.               000000000440002000000000000000000000000000000000000000000000000000000000000000000000000000000000000000000000000000061727PES00010000001000000000000000000000000
202009020010001000000000000000019536000000000000000195368000000000020202850015COCIMANO BAUZA ALFRE          000000000540056000000000000000000000000000000000000000000000000000000000000000000000000000000000000000000000000000075762PES00010000001000000000000000000000000
202009020010001000000000000000019537000000000000000195378000000000020324122002CRISTIAN BERNARDO MI          000000000060003000000000000000000000000000000000000000000000000000000000000000000000000000000000000000000000000000013643PES00010000001000000000000000000000000
202009020010001000000000000000019538000000000000000195388000000000020166940304CARRIZO JULIO CESAR           000000000099998000000000000000000000000000000000000000000000000000000000000000000000000000000000000000000000000000022737PES00010000001000000000000000000000000
202009020010001000000000000000019539000000000000000195398000000000020184635888VENDITTI ARMANDO              000000000210004000000000000000000000000000000000000000000000000000000000000000000000000000000000000000000000000000047749PES00010000001000000000000000000000000
202009020010001000000000000000019540000000000000000195408000000000030708544678PEDROTTI SRL                  000000000190005000000000000000000000000000000000000000000000000000000000000000000000000000000000000000000000000000026655PES00010000001000000000000000000000000
202009020010001000000000000000019541000000000000000195418000000000020138611109PEREZ RAUL SALVADOR           000000000204012000000000000000000000000000000000000000000000000000000000000000000000000000000000000000000000000000028620PES00010000001000000000000000000000000
202009020010001000000000000000019542000000000000000195428000000000023253317329DIAZ JAVIER                   000000000099998000000000000000000000000000000000000000000000000000000000000000000000000000000000000000000000000000018098PES00010000001000000000000000000000000
202009020010001000000000000000019543000000000000000195438000000000020307694523GEREZ MARIO ALBERTO           000000000099997000000000000000000000000000000000000000000000000000000000000000000000000000000000000000000000000000014029PES00010000001000000000000000000000000
202009020010001000000000000000019544000000000000000195448000000000020147543280GARDELLA JUAN CARLOS          000000000200003000000000000000000000000000000000000000000000000000000000000000000000000000000000000000000000000000045474PES00010000001000000000000000000000000
202009020010001000000000000000019545000000000000000195458000000000033708194609COPAT LTDA                    000000000200001000000000000000000000000000000000000000000000000000000000000000000000000000000000000000000000000000040771PES00010000001000000000000000000000000
202009020010001000000000000000019546000000000000000195468000000000027065051767MACIEL TALABERA PATR          000000000379990000000000000000000000000000000000000000000000000000000000000000000000000000000000000000000000000000053307PES00010000001000000000000000000000000
202009020010001000000000000000019547000000000000000195478000000000020213292413MONTEROS MARIO EMIDI          000000000300000000000000000000000000000000000000000000000000000000000000000000000000000000000000000000000000000000042086PES00010000001000000000000000000000000
202009020010001000000000000000019548000000000000000195488000000000030715379070JOSE DUMIT SA                 000000000300000000000000000000000000000000000000000000000000000000000000000000000000000000000000000000000000000000042086PES00010000001000000000000000000000000
202009020010001000000000000000019549000000000000000195498000000000020070198771MEDINA MANUEL                 000000000800001000000000000000000000000000000000000000000000000000000000000000000000000000000000000000000000000000133389PES00010000001000000000000000000000000
202009020010001000000000000000019550000000000000000195508000000000020305397793JALIS LUIS EDUERDO            000000000099998000000000000000000000000000000000000000000000000000000000000000000000000000000000000000000000000000022737PES00010000001000000000000000000000000
202009020010001000000000000000019551000000000000000195518000000000020125988041UTRERA JUAN ANTONIO           000000000150015000000000000000000000000000000000000000000000000000000000000000000000000000000000000000000000000000034109PES00010000001000000000000000000000000
202009020010001000000000000000019552000000000000000195528000000000020292427787SARAVIA NELSON LUIS           000000000200003000000000000000000000000000000000000000000000000000000000000000000000000000000000000000000000000000045474PES00010000001000000000000000000000000
202009020010001100000000000000001336000000000000000013368000000000027244501813HERRERA MONICA ALEJA          000000001183434000000000000000000000000000000000000000000000000000000000000000000000000000000000000000000000000000189442PES00010000001000000000000000000000000
202009020060001000000000000000074713000000000000000747139600000000000012345678Consumidor Final              000000023493148000000000042826000000000000000000000000000000000000000000000000000000000000000000000000000000000003938669PES00010000001000000000000000000000000
202009020820001000000000000000023251000000000000000232879600000000000012345678Consumidor Final              000000000760600000000000001498000000000000000000000000000000000000000000000000000000000000000000000000000000000000000000PES00010000001000000000000000000000000
202009030010001000000000000000001141000000000000000011418000000000030593315157BROMETAN S.R.L                000000000059103000000000000000000000000000000000000000000000000000000000000000000000000000000000000000000000000000000164PES00010000001000000000000000000000000
202009030010001000000000000000001142000000000000000011428000000000020342813187URUENA LASSALLE               000000000061300000000000000000000000000000000000000000000000000000000000000000000000000000000000000000000000000000000110PES00010000001000000000000000000000000
202009030010001000000000000000001143000000000000000011438000000000020259225273MARTIN GUIDO FERREYR          000000000041999000000000000000000000000000000000000000000000000000000000000000000000000000000000000000000000000000000000PES00010000001000000000000000000000000
202009030010001000000000000000001144000000000000000011448000000000033697225639ARGENTI LEMON                 000000000066003000000000000000000000000000000000000000000000000000000000000000000000000000000000000000000000000000000000PES00010000001000000000000000000000000
202009030010001000000000000000001145000000000000000011458000000000020126360895TREKA JUAN FRANCISCO          000000000077601000000000000000000000000000000000000000000000000000000000000000000000000000000000000000000000000000000000PES00010000001000000000000000000000000
202009030010001000000000000000004277000000000000000042778000000000020206620162IBANEZ SERGIO J               000000000028902000000000000000000000000000000000000000000000000000000000000000000000000000000000000000000000000000000000PES00010000001000000000000000000000000
202009030010001000000000000000004278000000000000000042788000000000030641290242GUIDOLI FLORIO S.R.L          000000000019003000000000000000000000000000000000000000000000000000000000000000000000000000000000000000000000000000000000PES00010000001000000000000000000000000
202009030010001000000000000000004279000000000000000042798000000000020324372661RAMIRO REYES JEREZ            000000000019003000000000000000000000000000000000000000000000000000000000000000000000000000000000000000000000000000000000PES00010000001000000000000000000000000
202009030010001000000000000000004280000000000000000042808000000000030707798560LAS CASUARINAS S.R.L          000000000029201000000000000000000000000000000000000000000000000000000000000000000000000000000000000000000000000000000000PES00010000001000000000000000000000000
202009030010001000000000000000004282000000000000000042828000000000030619458253CITRUSVIL                     000000000043998000000000000000000000000000000000000000000000000000000000000000000000000000000000000000000000000000000000PES00010000001000000000000000000000000
202009030010001000000000000000004283000000000000000042838000000000023266483759ARIAS RUBEN ALFREDO           000000000144998000000000000000000000000000000000000000000000000000000000000000000000000000000000000000000000000000000000PES00010000001000000000000000000000000
202009030010001000000000000000009043000000000000000090438000000000020164575471BATALLANES OSCAR              000000000750000000000000000000000000000000000000000000000000000000000000000000000000000000000000000000000000000000135735PES00010000001000000000000000000000000
202009030010001000000000000000009044000000000000000090448000000000030516514244PROPANORTE                    000000000499998000000000000000000000000000000000000000000000000000000000000000000000000000000000000000000000000000070143PES00010000001000000000000000000000000
202009030010001000000000000000009045000000000000000090458000000000030708555602AISLANTE TECNOPOR SR          000000000399996000000000000000000000000000000000000000000000000000000000000000000000000000000000000000000000000000072391PES00010000001000000000000000000000000
202009030010001000000000000000009046000000000000000090468000000000030708555602AISLANTE TECNOPOR SR          000000000399996000000000000000000000000000000000000000000000000000000000000000000000000000000000000000000000000000072391PES00010000001000000000000000000000000
202009030010001000000000000000009047000000000000000090478000000000030709861189TRANSPORTE SAN GABRI          000000000997491000000000000000000000000000000000000000000000000000000000000000000000000000000000000000000000000000175267PES00010000001000000000000000000000000
202009030010001000000000000000009048000000000000000090488000000000020145192804LEAL RAUL RAMON               000000000040449000000000000000000000000000000000000000000000000000000000000000000000000000000000000000000000000000000000PES00010000001000000000000000000000000
202009030010001000000000000000009049000000000000000090498000000000020145192804LEAL RAUL RAMON               000000002499987000000000000000000000000000000000000000000000000000000000000000000000000000000000000000000000000000452448PES00010000001000000000000000000000000
202009030010001000000000000000009050000000000000000090508000000000020288705306CELLUCCI HUGO JAVIER          000000000300040000000000000000000000000000000000000000000000000000000000000000000000000000000000000000000000000000054301PES00010000001000000000000000000000000
202009030010001000000000000000009051000000000000000090518000000000027275617763CATALAN MARIA DEL CA          000000000500000000000000000000000000000000000000000000000000000000000000000000000000000000000000000000000000000000090490PES00010000001000000000000000000000000
202009030010001000000000000000009052000000000000000090528000000000033708006519TRANSPORTE LYON S.A           000000002809924000000000000000000000000000000000000000000000000000000000000000000000000000000000000000000000000000493725PES00010000001000000000000000000000000
202009030010001000000000000000009053000000000000000090538000000000020060851825DONELLI ERNESTO HUGO          000000000999993000000000000000000000000000000000000000000000000000000000000000000000000000000000000000000000000000180979PES00010000001000000000000000000000000
202009030010001000000000000000009054000000000000000090548000000000023405989239DIAZ CARLOS AGUSTIN           000000003200009000000000000000000000000000000000000000000000000000000000000000000000000000000000000000000000000000448918PES00010000001000000000000000000000000
202009030010001000000000000000009057000000000000000090578000000000030694944112OLTRANS S.R.L                 000000000989996000000000000000000000000000000000000000000000000000000000000000000000000000000000000000000000000000179169PES00010000001000000000000000000000000
202009030010001000000000000000012554000000000000000125548000000000020293109010RIVIERE SERGIO SEBAS          000000000099998000000000000000000000000000000000000000000000000000000000000000000000000000000000000000000000000000018098PES00010000001000000000000000000000000
202009030010001000000000000000012555000000000000000125558000000000030711668116MC KREDIT S.R.L EN F          000000000021001000000000000000000000000000000000000000000000000000000000000000000000000000000000000000000000000000000252PES00010000001000000000000000000000000
202009030010001000000000000000012556000000000000000125568000000000030707465049LAPACHO AMARILLO S.R          000000000440014000000000000000000000000000000000000000000000000000000000000000000000000000000000000000000000000000061728PES00010000001000000000000000000000000
202009030010001000000000000000012557000000000000000125578000000000027220730021ELSA EMA SORIA                000000000300000000000000000000000000000000000000000000000000000000000000000000000000000000000000000000000000000000042086PES00010000001000000000000000000000000
202009030010001000000000000000012558000000000000000125588000000000030710735537R.V INGENIERIA S.R.L          000000000020260000000000000000000000000000000000000000000000000000000000000000000000000000000000000000000000000000000243PES00010000001000000000000000000000000
202009030010001000000000000000012559000000000000000125598000000000020324372661RAMIRO REYES JEREZ            000000000050004000000000000000000000000000000000000000000000000000000000000000000000000000000000000000000000000000000601PES00010000001000000000000000000000000
202009030010001000000000000000012560000000000000000125608000000000030708668733REFRES NOW SA                 000000000255018000000000000000000000000000000000000000000000000000000000000000000000000000000000000000000000000000051986PES00010000001000000000000000000000000
202009030010001000000000000000012561000000000000000125618000000000030646140923SERVICIOS MODERNOS S          000000000032485000000000000000000000000000000000000000000000000000000000000000000000000000000000000000000000000000000390PES00010000001000000000000000000000000
202009030010001000000000000000012562000000000000000125628000000000020290105715MAZZA DAVID FERNANDO          000000000350005000000000000000000000000000000000000000000000000000000000000000000000000000000000000000000000000000049101PES00010000001000000000000000000000000
202009030010001000000000000000012563000000000000000125638000000000030709183458IRARRAZABAL - NIEVA           000000000199998000000000000000000000000000000000000000000000000000000000000000000000000000000000000000000000000000028057PES00010000001000000000000000000000000
202009030010001000000000000000012564000000000000000125648000000000030716819856INDUSTRIAS STA BARBA          000000000340077000000000000000000000000000000000000000000000000000000000000000000000000000000000000000000000000000069325PES00010000001000000000000000000000000
202009030010001000000000000000012565000000000000000125658000000000020188115986EDY LUIS MOSCOSO GAL          000000000021001000000000000000000000000000000000000000000000000000000000000000000000000000000000000000000000000000000252PES00010000001000000000000000000000000
202009030010001000000000000000012566000000000000000125668000000000020139816855ABED ANDRES                   000000000050002000000000000000000000000000000000000000000000000000000000000000000000000000000000000000000000000000011368PES00010000001000000000000000000000000
202009030010001000000000000000012567000000000000000125678000000000020178926900HAEL ANTONIO ALBERTO          000000000030000000000000000000000000000000000000000000000000000000000000000000000000000000000000000000000000000000000360PES00010000001000000000000000000000000
202009030010001000000000000000012568000000000000000125688000000000030716744198CONSTRUFAM SRL                000000000016003000000000000000000000000000000000000000000000000000000000000000000000000000000000000000000000000000000192PES00010000001000000000000000000000000
202009030010001000000000000000012569000000000000000125698000000000030715472127LA FERRETERIA SRL             000000000200003000000000000000000000000000000000000000000000000000000000000000000000000000000000000000000000000000045474PES00010000001000000000000000000000000
202009030010001000000000000000012570000000000000000125708000000000023315441749FENOGLIO ROQUE RAUL           000000000149999000000000000000000000000000000000000000000000000000000000000000000000000000000000000000000000000000021042PES00010000001000000000000000000000000
202009030010001000000000000000012571000000000000000125718000000000020279448848GALVEZ RODRIGO                000000000100004000000000000000000000000000000000000000000000000000000000000000000000000000000000000000000000000000020386PES00010000001000000000000000000000000
202009030010001000000000000000012572000000000000000125728000000000020279448848GALVEZ RODRIGO                000000000027497000000000000000000000000000000000000000000000000000000000000000000000000000000000000000000000000000000330PES00010000001000000000000000000000000
202009030010001000000000000000017233000000000000000172338000000000033712241719NICOSIA NICOSIA               000000000500005000000000000000000000000000000000000000000000000000000000000000000000000000000000000000000000000000093289PES00010000001000000000000000000000000
202009030010001000000000000000017234000000000000000172348000000000030708298316AG NAUM S.A                   000000000500005000000000000000000000000000000000000000000000000000000000000000000000000000000000000000000000000000070144PES00010000001000000000000000000000000
202009030010001000000000000000017235000000000000000172358000000000023419603554ESPINOZA ADRIANA DEL          000000000199998000000000000000000000000000000000000000000000000000000000000000000000000000000000000000000000000000028057PES00010000001000000000000000000000000
202009030010001000000000000000017236000000000000000172368000000000023419603554ESPINOZA ADRIANA DEL          000000000199998000000000000000000000000000000000000000000000000000000000000000000000000000000000000000000000000000028057PES00010000001000000000000000000000000
202009030010001000000000000000017237000000000000000172378000000000020179474124SERGIO BERMUDEZ               000000000199998000000000000000000000000000000000000000000000000000000000000000000000000000000000000000000000000000028057PES00010000001000000000000000000000000
202009030010001000000000000000017238000000000000000172388000000000030712598405EQUIPO SERV LUBRIFLE          000000000140000000000000000000000000000000000000000000000000000000000000000000000000000000000000000000000000000000019640PES00010000001000000000000000000000000
202009030010001000000000000000017239000000000000000172398000000000020342813187URUENA LASSALLE               000000000499998000000000000000000000000000000000000000000000000000000000000000000000000000000000000000000000000000070143PES00010000001000000000000000000000000
202009030010001000000000000000017240000000000000000172408000000000030709702390YABITEL S.A                   000000000074999000000000000000000000000000000000000000000000000000000000000000000000000000000000000000000000000000017052PES00010000001000000000000000000000000
202009030010001000000000000000017241000000000000000172418000000000020080366796SASSI COLOMBRES JORG          000000000469980000000000000000000000000000000000000000000000000000000000000000000000000000000000000000000000000000085056PES00010000001000000000000000000000000
202009030010001000000000000000017242000000000000000172428000000000020080366796SASSI COLOMBRES JORG          000000000349998000000000000000000000000000000000000000000000000000000000000000000000000000000000000000000000000000049100PES00010000001000000000000000000000000
202009030010001000000000000000017243000000000000000172438000000000030660472432GALINDO CONSTRUCCION          000000000200001000000000000000000000000000000000000000000000000000000000000000000000000000000000000000000000000000036196PES00010000001000000000000000000000000
202009030010001000000000000000017244000000000000000172448000000000020230155942GALLO GUSTAVO EDUARD          000000000200001000000000000000000000000000000000000000000000000000000000000000000000000000000000000000000000000000040771PES00010000001000000000000000000000000
202009030010001000000000000000017245000000000000000172458000000000020279448848GALVEZ RODRIGO                000000000281181000000000000000000000000000000000000000000000000000000000000000000000000000000000000000000000000000057319PES00010000001000000000000000000000000
202009030010001000000000000000017246000000000000000172468000000000030714450928PASTORINO GLOBAL SER          000000000199998000000000000000000000000000000000000000000000000000000000000000000000000000000000000000000000000000028057PES00010000001000000000000000000000000
202009030010001000000000000000017247000000000000000172478000000000030714450928PASTORINO GLOBAL SER          000000000199998000000000000000000000000000000000000000000000000000000000000000000000000000000000000000000000000000028057PES00010000001000000000000000000000000
202009030010001000000000000000017248000000000000000172488000000000020186398859DARLAN JORGE DANIEL           000000000299999000000000000000000000000000000000000000000000000000000000000000000000000000000000000000000000000000054294PES00010000001000000000000000000000000
202009030010001000000000000000017249000000000000000172498000000000020201610398ALMARAZ FEDERICO CES          000000000477016000000000000000000000000000000000000000000000000000000000000000000000000000000000000000000000000000066918PES00010000001000000000000000000000000
202009030010001000000000000000017250000000000000000172508000000000020275944697GOMEZ MARIO ESTEBAN           000000000110006000000000000000000000000000000000000000000000000000000000000000000000000000000000000000000000000000022425PES00010000001000000000000000000000000
202009030010001000000000000000017251000000000000000172518000000000020286141154PABLO FERNANDO CORRE          000000000312841000000000000000000000000000000000000000000000000000000000000000000000000000000000000000000000000000057070PES00010000001000000000000000000000000
202009030010001000000000000000017252000000000000000172528000000000023121207079LUIS ALBERTO MELLADO          000000000990004000000000000000000000000000000000000000000000000000000000000000000000000000000000000000000000000000138884PES00010000001000000000000000000000000
202009030010001000000000000000017253000000000000000172538000000000030716383659LOS CARDOS SAS                000000000199998000000000000000000000000000000000000000000000000000000000000000000000000000000000000000000000000000028057PES00010000001000000000000000000000000
202009030010001000000000000000017254000000000000000172548000000000033712241719NICOSIA NICOSIA               000000000200003000000000000000000000000000000000000000000000000000000000000000000000000000000000000000000000000000045474PES00010000001000000000000000000000000
202009030010001000000000000000017255000000000000000172558000000000033710818199MARBRAN S.R.L                 000000000320028000000000000000000000000000000000000000000000000000000000000000000000000000000000000000000000000000057919PES00010000001000000000000000000000000
202009030010001000000000000000017256000000000000000172568000000000030592845845CETROGAR S.A                  000000000050002000000000000000000000000000000000000000000000000000000000000000000000000000000000000000000000000000011368PES00010000001000000000000000000000000
202009030010001000000000000000017257000000000000000172578000000000020136222342CARLOS LORCA                  000000000099997000000000000000000000000000000000000000000000000000000000000000000000000000000000000000000000000000014029PES00010000001000000000000000000000000
202009030010001000000000000000017258000000000000000172588000000000020937494867JIMENEZ DENIA ANTONI          000000000240011000000000000000000000000000000000000000000000000000000000000000000000000000000000000000000000000000033671PES00010000001000000000000000000000000
202009030010001000000000000000017259000000000000000172598000000000020257672175STANG CESAR                   000000000990007000000000000000000000000000000000000000000000000000000000000000000000000000000000000000000000000000184712PES00010000001000000000000000000000000
202009030010001000000000000000017260000000000000000172608000000000020130408037DIAZ FRANCISCO ANTON          000000000100004000000000000000000000000000000000000000000000000000000000000000000000000000000000000000000000000000020386PES00010000001000000000000000000000000
202009030010001000000000000000017261000000000000000172618000000000030675241925COOPERATIVA DE T UNI          000000000169995000000000000000000000000000000000000000000000000000000000000000000000000000000000000000000000000000025590PES00010000001000000000000000000000000
202009030010001000000000000000017262000000000000000172628000000000020252104888FERNANDEZ LUIS ANTON          000000001194598000000000000000000000000000000000000000000000000000000000000000000000000000000000000000000000000000209900PES00010000001000000000000000000000000
202009030010001000000000000000017263000000000000000172638000000000020302043001FERNANDEZ JORGE (CEM          000000001386994000000000000000000000000000000000000000000000000000000000000000000000000000000000000000000000000000188910PES00010000001000000000000000000000000
202009030010001000000000000000017264000000000000000172648000000000020240127750PRILL ALFREDO                 000000000989996000000000000000000000000000000000000000000000000000000000000000000000000000000000000000000000000000179169PES00010000001000000000000000000000000
202009030010001000000000000000019553000000000000000195538000000000030649950012ELIMPORT SRL                  000000000480046000000000000000000000000000000000000000000000000000000000000000000000000000000000000000000000000000067344PES00010000001000000000000000000000000
202009030010001000000000000000019554000000000000000195548000000000020276080742HUGO FRANCO YANUZZI           000000000409092000000000000000000000000000000000000000000000000000000000000000000000000000000000000000000000000000074037PES00010000001000000000000000000000000
202009030010001000000000000000019555000000000000000195558000000000033710877659DULCI NARD                    000000000499998000000000000000000000000000000000000000000000000000000000000000000000000000000000000000000000000000070143PES00010000001000000000000000000000000
202009030010001000000000000000019556000000000000000195568000000000020211720906CAJAL RAMON ALFREDO           000000000470033000000000000000000000000000000000000000000000000000000000000000000000000000000000000000000000000000065939PES00010000001000000000000000000000000
202009030010001000000000000000019557000000000000000195578000000000030707636544RIO SINGUIL SA                000000000300000000000000000000000000000000000000000000000000000000000000000000000000000000000000000000000000000000042086PES00010000001000000000000000000000000
202009030010001000000000000000019558000000000000000195588000000000020336085757FRANCO PRATS                  000000000199998000000000000000000000000000000000000000000000000000000000000000000000000000000000000000000000000000028057PES00010000001000000000000000000000000
202009030010001000000000000000019559000000000000000195598000000000027266386015CEJAS DELIA BEATRIZ           000000000200003000000000000000000000000000000000000000000000000000000000000000000000000000000000000000000000000000045474PES00010000001000000000000000000000000
202009030010001000000000000000019560000000000000000195608000000000030707297154FERRETERA GRAL. PAZ           000000000099998000000000000000000000000000000000000000000000000000000000000000000000000000000000000000000000000000022737PES00010000001000000000000000000000000
202009030010001000000000000000019561000000000000000195618000000000027261096116ACOSTA ELSA                   000000000199998000000000000000000000000000000000000000000000000000000000000000000000000000000000000000000000000000028057PES00010000001000000000000000000000000
202009030010001000000000000000019562000000000000000195628000000000020282229529SOTELO HECTOR SEBAST          000000000304163000000000000000000000000000000000000000000000000000000000000000000000000000000000000000000000000000042670PES00010000001000000000000000000000000
202009030010001000000000000000019563000000000000000195638000000000030641290242GUIDOLI FLORIO S.R.L          000000000100063000000000000000000000000000000000000000000000000000000000000000000000000000000000000000000000000000020399PES00010000001000000000000000000000000
202009030010001000000000000000019564000000000000000195648000000000030710089899AISLACIONES Y SERVIC          000000000329087000000000000000000000000000000000000000000000000000000000000000000000000000000000000000000000000000046166PES00010000001000000000000000000000000
202009030010001000000000000000019565000000000000000195658000000000030711483523CH SISTEMAS SRL               000000000200003000000000000000000000000000000000000000000000000000000000000000000000000000000000000000000000000000045474PES00010000001000000000000000000000000
202009030010001000000000000000019566000000000000000195668000000000020084466841GUILLERMO VICENTE SA          000000000660021000000000000000000000000000000000000000000000000000000000000000000000000000000000000000000000000000119451PES00010000001000000000000000000000000
202009030010001000000000000000019567000000000000000195678000000000030409339596HIJOS DE SALVADOR S.          000000000229997000000000000000000000000000000000000000000000000000000000000000000000000000000000000000000000000000032266PES00010000001000000000000000000000000
202009030010001000000000000000019568000000000000000195688000000000020213283325REINOSO SERGIO                000000000099998000000000000000000000000000000000000000000000000000000000000000000000000000000000000000000000000000022737PES00010000001000000000000000000000000
202009030010001000000000000000019569000000000000000195698000000000030525436817JOSE MINETTI Y CIA L          000000000120006000000000000000000000000000000000000000000000000000000000000000000000000000000000000000000000000000027285PES00010000001000000000000000000000000
202009030010001000000000000000019570000000000000000195708000000000030525436817JOSE MINETTI Y CIA L          000000000120006000000000000000000000000000000000000000000000000000000000000000000000000000000000000000000000000000027285PES00010000001000000000000000000000000
202009030010001000000000000000019571000000000000000195718000000000020259586535GOMEZ DIEGO MIGUEL            000000000301023000000000000000000000000000000000000000000000000000000000000000000000000000000000000000000000000000068444PES00010000001000000000000000000000000
202009030010001000000000000000019572000000000000000195728000000000020179474124SERGIO BERMUDEZ               000000000410877000000000000000000000000000000000000000000000000000000000000000000000000000000000000000000000000000077274PES00010000001000000000000000000000000
202009030010001000000000000000019573000000000000000195738000000000023112392769FAJRE MARCELO                 000000000199998000000000000000000000000000000000000000000000000000000000000000000000000000000000000000000000000000028057PES00010000001000000000000000000000000
202009030010001000000000000000019574000000000000000195748000000000020302599530BUSTOS SERIO A                000000000099997000000000000000000000000000000000000000000000000000000000000000000000000000000000000000000000000000014029PES00010000001000000000000000000000000
202009030010001000000000000000019575000000000000000195758000000000020070077176GHIGGIA JOSE ALFREDO          000000000300000000000000000000000000000000000000000000000000000000000000000000000000000000000000000000000000000000042086PES00010000001000000000000000000000000
202009030010001000000000000000019576000000000000000195768000000000020129578166NEME SCHEIJ ALFREDO           000000000150000000000000000000000000000000000000000000000000000000000000000000000000000000000000000000000000000000034105PES00010000001000000000000000000000000
202009030010001000000000000000019577000000000000000195778000000000027352074786YANINA CORONEL                000000000060002000000000000000000000000000000000000000000000000000000000000000000000000000000000000000000000000000010859PES00010000001000000000000000000000000
202009030010001000000000000000019578000000000000000195788000000000027314989126ROMINA DIP                    000000000199998000000000000000000000000000000000000000000000000000000000000000000000000000000000000000000000000000028057PES00010000001000000000000000000000000
202009030010001000000000000000019579000000000000000195798000000000030708544678PEDROTTI SRL                  000000000350031000000000000000000000000000000000000000000000000000000000000000000000000000000000000000000000000000049104PES00010000001000000000000000000000000
202009030010001000000000000000019580000000000000000195808000000000030710089899AISLACIONES Y SERVIC          000000000130000000000000000000000000000000000000000000000000000000000000000000000000000000000000000000000000000000029558PES00010000001000000000000000000000000
202009030010001000000000000000019581000000000000000195818000000000020138614965ZOLORZANO JUAN CARLO          000000000099997000000000000000000000000000000000000000000000000000000000000000000000000000000000000000000000000000014029PES00010000001000000000000000000000000
202009030010001000000000000000019582000000000000000195828000000000020172973044ROCHA DANTE OMAR              000000000090001000000000000000000000000000000000000000000000000000000000000000000000000000000000000000000000000000018346PES00010000001000000000000000000000000
202009030010001000000000000000019583000000000000000195838000000000020164794025MARQUEZ NESTOR                000000000336036000000000000000000000000000000000000000000000000000000000000000000000000000000000000000000000000000076405PES00010000001000000000000000000000000
202009030010001000000000000000019584000000000000000195848000000000023266483759ARIAS RUBEN ALFREDO           000000000370059000000000000000000000000000000000000000000000000000000000000000000000000000000000000000000000000000051915PES00010000001000000000000000000000000
202009030010001000000000000000019585000000000000000195858000000000027232475906GARCIA TELMA PAOLA            000000000485025000000000000000000000000000000000000000000000000000000000000000000000000000000000000000000000000000068042PES00010000001000000000000000000000000
202009030010001000000000000000019586000000000000000195868000000000020070198771MEDINA MANUEL                 000000000520001000000000000000000000000000000000000000000000000000000000000000000000000000000000000000000000000000094110PES00010000001000000000000000000000000
202009030010001000000000000000019587000000000000000195878000000000020324163876SALE LUCAS RENE               000000000320043000000000000000000000000000000000000000000000000000000000000000000000000000000000000000000000000000065241PES00010000001000000000000000000000000
202009030030001100000000000000000058000000000000000000588000000000027060678443CACERES VICTORIA DEL          000000000229502000000000000000000000000000000000000000000000000000000000000000000000000000000000000000000000000000000000PES00010000001000000000000000000000000
202009030010001100000000000000001337000000000000000013378000000000030715303678MANGNUS TRADE LOGIST          000000001017095000000000000000000000000000000000000000000000000000000000000000000000000000000000000000000000000000157425PES00010000001000000000000000000000000
202009030010001100000000000000001338000000000000000013388000000000030511190238S.A. SAN MIGUEL               000000001267527000000000000000000000000000000000000000000000000000000000000000000000000000000000000000000000000000000000PES00010000001000000000000000000000000
202009030060001000000000000000074949000000000000000749499600000000000012345678Consumidor Final              000000022473275000000000039021000000000000000000000000000000000000000000000000000000000000000000000000000000000003350398PES00010000002000000000000000000000000
202009030820001000000000000000023288000000000000000233219600000000000012345678Consumidor Final              000000000678800000000000001500000000000000000000000000000000000000000000000000000000000000000000000000000000000000000000PES00010000001000000000000000000000000
202009040010001000000000000000001146000000000000000011468000000000020311284895ROCHA JUAN MANUEL             000000000016998000000000000000000000000000000000000000000000000000000000000000000000000000000000000000000000000000000000PES00010000001000000000000000000000000
202009040010001000000000000000004284000000000000000042848000000000023245030649GONZALEZ ALEJANDRO C          000000000035902000000000000000000000000000000000000000000000000000000000000000000000000000000000000000000000000000000000PES00010000001000000000000000000000000
202009040010001000000000000000004285000000000000000042858000000000020253316560TULA JOSE HERNAN              000000000030198000000000000000000000000000000000000000000000000000000000000000000000000000000000000000000000000000000000PES00010000001000000000000000000000000
202009040010001000000000000000004286000000000000000042868000000000030712293507DEVELOPERS S.A                000000000021602000000000000000000000000000000000000000000000000000000000000000000000000000000000000000000000000000000127PES00010000001000000000000000000000000
202009040010001000000000000000004287000000000000000042878000000000020241344488MOLAIES CHRISTIAN L           000000000016998000000000000000000000000000000000000000000000000000000000000000000000000000000000000000000000000000000000PES00010000001000000000000000000000000
202009040010001000000000000000004288000000000000000042888000000000023217998999LLORENTE WALTER DANI          000000000025502000000000000000000000000000000000000000000000000000000000000000000000000000000000000000000000000000000000PES00010000001000000000000000000000000
202009040010001000000000000000004289000000000000000042898000000000020172702075CLAUDIO NADER                 000000000032998000000000000000000000000000000000000000000000000000000000000000000000000000000000000000000000000000000000PES00010000001000000000000000000000000
202009040010001000000000000000004290000000000000000042908000000000033697225639ARGENTI LEMON                 000000000033500000000000000000000000000000000000000000000000000000000000000000000000000000000000000000000000000000000000PES00010000001000000000000000000000000
202009040010001000000000000000004291000000000000000042918000000000030716383659LOS CARDOS SAS                000000000057602000000000000000000000000000000000000000000000000000000000000000000000000000000000000000000000000000000000PES00010000001000000000000000000000000
202009040010001000000000000000004292000000000000000042928000000000030710180322AGROCLASIC SRL                000000000092703000000000000000000000000000000000000000000000000000000000000000000000000000000000000000000000000000000190PES00010000001000000000000000000000000
202009040010001000000000000000004293000000000000000042938000000000030634285047LOS CEVILARES S.A.            000000000025502000000000000000000000000000000000000000000000000000000000000000000000000000000000000000000000000000000000PES00010000001000000000000000000000000
202009040010001000000000000000004294000000000000000042948000000000020110747625PEREZ JUAN LUIS               000000000016998000000000000000000000000000000000000000000000000000000000000000000000000000000000000000000000000000000000PES00010000001000000000000000000000000
202009040010001000000000000000004295000000000000000042958000000000030710502818KILOMETRO 14 SRL              000000000011898000000000000000000000000000000000000000000000000000000000000000000000000000000000000000000000000000000000PES00010000001000000000000000000000000
202009040010001000000000000000004296000000000000000042968000000000020382480180DECIMA ALVARO                 000000000034001000000000000000000000000000000000000000000000000000000000000000000000000000000000000000000000000000000000PES00010000001000000000000000000000000
202009040010001000000000000000004297000000000000000042978000000000020206620162IBANEZ SERGIO J               000000000011898000000000000000000000000000000000000000000000000000000000000000000000000000000000000000000000000000000000PES00010000001000000000000000000000000
202009040010001000000000000000004298000000000000000042988000000000020147543280GARDELLA JUAN CARLOS          000000000034001000000000000000000000000000000000000000000000000000000000000000000000000000000000000000000000000000000000PES00010000001000000000000000000000000
202009040010001000000000000000009058000000000000000090588000000000020234197402MANLLA LEANDRO GERMA          000000000990007000000000000000000000000000000000000000000000000000000000000000000000000000000000000000000000000000184712PES00010000001000000000000000000000000
202009040010001000000000000000009059000000000000000090598000000000020234197402MANLLA LEANDRO GERMA          000000000990007000000000000000000000000000000000000000000000000000000000000000000000000000000000000000000000000000184712PES00010000001000000000000000000000000
202009040010001000000000000000009060000000000000000090608000000000020234197402MANLLA LEANDRO GERMA          000000000570004000000000000000000000000000000000000000000000000000000000000000000000000000000000000000000000000000106349PES00010000001000000000000000000000000
202009040010001000000000000000009061000000000000000090618000000000030687546489EMILIANO SANZ E HIJO          000000000147251000000000000000000000000000000000000000000000000000000000000000000000000000000000000000000000000000000000PES00010000001000000000000000000000000
202009040010001000000000000000009062000000000000000090628000000000020129186225GRANITO JOSE HUMBERT          000000000799998000000000000000000000000000000000000000000000000000000000000000000000000000000000000000000000000000144783PES00010000001000000000000000000000000
202009040010001000000000000000009063000000000000000090638000000000023298815419FIODOROW DANIEL               000000000990007000000000000000000000000000000000000000000000000000000000000000000000000000000000000000000000000000184712PES00010000001000000000000000000000000
202009040010001000000000000000009064000000000000000090648000000000023298815419FIODOROW DANIEL               000000000550056000000000000000000000000000000000000000000000000000000000000000000000000000000000000000000000000000102627PES00010000001000000000000000000000000
202009040010001000000000000000009065000000000000000090658000000000020080366796SASSI COLOMBRES JORG          000000000579898000000000000000000000000000000000000000000000000000000000000000000000000000000000000000000000000000104950PES00010000001000000000000000000000000
202009040010001000000000000000009066000000000000000090668000000000020129186225GRANITO JOSE HUMBERT          000000000799998000000000000000000000000000000000000000000000000000000000000000000000000000000000000000000000000000144783PES00010000001000000000000000000000000
202009040010001000000000000000009067000000000000000090678000000000020130350160LOPEZ PEDRO ANTONIO           000000001300041000000000000000000000000000000000000000000000000000000000000000000000000000000000000000000000000000235281PES00010000001000000000000000000000000
202009040010001000000000000000009068000000000000000090688000000000020248038706SUREDA PEDRO JUAN             000000000200001000000000000000000000000000000000000000000000000000000000000000000000000000000000000000000000000000036196PES00010000001000000000000000000000000
202009040010001000000000000000009069000000000000000090698000000000027060678443CACERES VICTORIA DEL          000000000435155000000000000000000000000000000000000000000000000000000000000000000000000000000000000000000000000000061046PES00010000001000000000000000000000000
202009040010001000000000000000009070000000000000000090708000000000030694944112OLTRANS S.R.L                 000000000799998000000000000000000000000000000000000000000000000000000000000000000000000000000000000000000000000000144783PES00010000001000000000000000000000000
202009040010001000000000000000009071000000000000000090718000000000030714324892CARGANDO SA                   000000000999993000000000000000000000000000000000000000000000000000000000000000000000000000000000000000000000000000180979PES00010000001000000000000000000000000
202009040010001000000000000000009072000000000000000090728000000000030667130871FIYING S.R.L                  000000000778080000000000000000000000000000000000000000000000000000000000000000000000000000000000000000000000000000126685PES00010000001000000000000000000000000
202009040010001000000000000000012573000000000000000125738000000000030502793175ARCOR SAIC                    000000000269993000000000000000000000000000000000000000000000000000000000000000000000000000000000000000000000000000061389PES00010000001000000000000000000000000
202009040010001000000000000000012574000000000000000125748000000000020376581749LAZARTE JUAN IGNACIO          000000000050002000000000000000000000000000000000000000000000000000000000000000000000000000000000000000000000000000011368PES00010000001000000000000000000000000
202009040010001000000000000000012575000000000000000125758000000000033712241719NICOSIA NICOSIA               000000000130016000000000000000000000000000000000000000000000000000000000000000000000000000000000000000000000000000023530PES00010000001000000000000000000000000
202009040010001000000000000000012576000000000000000125768000000000020106357642VEGA SEGUNDO OSCAR            000000000300000000000000000000000000000000000000000000000000000000000000000000000000000000000000000000000000000000042086PES00010000001000000000000000000000000
202009040010001000000000000000012577000000000000000125778000000000027257855509PORRICIELLO ARIANA M          000000000470046000000000000000000000000000000000000000000000000000000000000000000000000000000000000000000000000000065941PES00010000001000000000000000000000000
202009040010001000000000000000012578000000000000000125788000000000020439785021ZELARAYAN RICARDO JO          000000000006159000000000000000000000000000000000000000000000000000000000000000000000000000000000000000000000000000000074PES00010000001000000000000000000000000
202009040010001000000000000000012579000000000000000125798000000000030714040142RODOLFO DANTE GOMEZ           000000000022499000000000000000000000000000000000000000000000000000000000000000000000000000000000000000000000000000000270PES00010000001000000000000000000000000
202009040010001000000000000000012580000000000000000125808000000000030714040142RODOLFO DANTE GOMEZ           000000000047504000000000000000000000000000000000000000000000000000000000000000000000000000000000000000000000000000010801PES00010000001000000000000000000000000
202009040010001000000000000000012581000000000000000125818000000000020130068023JUAN VALDEZ                   000000000012999000000000000000000000000000000000000000000000000000000000000000000000000000000000000000000000000000000156PES00010000001000000000000000000000000
202009040010001000000000000000012582000000000000000125828000000000030710735537R.V INGENIERIA S.R.L          000000000013700000000000000000000000000000000000000000000000000000000000000000000000000000000000000000000000000000000165PES00010000001000000000000000000000000
202009040010001000000000000000012583000000000000000125838000000000020289542257GOMEZ ANGEL ARIEL             000000000011279000000000000000000000000000000000000000000000000000000000000000000000000000000000000000000000000000000135PES00010000001000000000000000000000000
202009040010001000000000000000012584000000000000000125848000000000030709545910FINCAS GREYCO SRL             000000000150000000000000000000000000000000000000000000000000000000000000000000000000000000000000000000000000000000034105PES00010000001000000000000000000000000
202009040010001000000000000000012585000000000000000125858000000000020163789877NAVARRO RUBEN ENRIQU          000000000230001000000000000000000000000000000000000000000000000000000000000000000000000000000000000000000000000000041846PES00010000001000000000000000000000000
202009040010001000000000000000012586000000000000000125868000000000020122578535RAMON EDUARDO ALBORN          000000000149999000000000000000000000000000000000000000000000000000000000000000000000000000000000000000000000000000021042PES00010000001000000000000000000000000
202009040010001000000000000000012587000000000000000125878000000000030711523274MIXER SA                      000000000019998000000000000000000000000000000000000000000000000000000000000000000000000000000000000000000000000000000240PES00010000001000000000000000000000000
202009040010001000000000000000012588000000000000000125888000000000030707773916DANIEL INGENIERIA SR          000000000030005000000000000000000000000000000000000000000000000000000000000000000000000000000000000000000000000000004209PES00010000001000000000000000000000000
202009040010001000000000000000012589000000000000000125898000000000030711828326COMPLEJO ALIMENTICIO          000000000120002000000000000000000000000000000000000000000000000000000000000000000000000000000000000000000000000000016835PES00010000001000000000000000000000000
