202010010020255000000000000000051481                8000000000030546689979YPF SA                        000000001936000000000000000000000000000000000000000000000000000000000000000000000000000000000000000000000000000000000000PES00010000001000000000033600000000000000000000000000000                              000000000000000
202010010010201800000000000000133313                8000000000030546689979YPF SA                        000000000005770000000000000000000000000000000000000000000000000000000000000000000000000000000000000000000000000000000000PES00010000001000000000000100100000000000000000000000000                              000000000000000
202010010030201800000000000000087155                8000000000030546689979YPF SA                        000000010595491000000000000000000000000000000000000000000000000000000000000000000000105743000000000253784000000000000000PES00010000001000000000177649000000000000000000000000000                              000000000000000
202010010010000600000000000000492637                8000000000030547751252POTIGIAN GOLOSINAS SACIF      000000004341161000000000000000000000000000000000000000000000000000000000000000000000000000000000000105028000000000000000PES00010000001000000000073519700000000000000000000000000                              000000000000000
202010010010000600000000000004925659                8000000000030547751252POTIGIAN GOLOSINAS SACIF      000000000028256000000000000000000000000000000000000000000000000000000000000000000000000000000000000000000000000000000000PES00010000001000000000000490400000000000000000000000000                              000000000000000
202010010010807300000000000000883269                8000000000030707210385LA SERENISIMA S.A.            000000000332835000000000000000000000000000000000000000000000000000000000000000000000004632000000000007940000000000000000PES00010000001000000000005558300000000000000000000000000                              000000000000000
202010010010000100000000000000084933                8000000000030715422243DTS S.R.L.                    000000000607698000000000000000000000000000000000000000000000000000000000000000000000008664000000000000000000000000000000PES00010000001000000000010396500000000000000000000000000                              000000000000000
202010010010008000000000000000134754                8000000000030556381778JOSE V. PAOLETTI SRL          000000003331338000000000000000000000000000000000000000000000000000000000000000000000010330000000000000000000000002499178PES00010000001000000000014263200000000000000000000000000                              000000000000000
202010010030000600000000000000683860                8000000000030547751252POTIGIAN GOLOSINAS SACIF      000000000106084000000000000000000000000000000000000000000000000000000000000000000000000000000000000000000000000000000000PES00010000001000000000001841100000000000000000000000000                              000000000000000
202010010010002100000000000000073495                8000000000030708796065SHARE OUT SRL                 000000008154803000000000000000000000000000000000000000000000000000000000000000000000323606000000000000000000000000000000PES00010000001000000000135913300000000000000000000000000                              000000000000000
202010010010001400000000000000212815                8000000000030707249850DISTRIBUIDORA FAR PEP SH      000000000187260000000000000000000000000000000000000000000000000000000000000000000000000000000000000000000000000000000000PES00010000001000000000003250000000000000000000000000000                              000000000000000
202010020010000700000000000000171445                8000000000020133177249ROBERTO SANDOVAL              000000000589721000000000000000000000000000000000000000000000000000000000000000000000000000000000000000000000000000000000PES00010000001000000000010234800000000000000000000000000                              000000000000000
202010020010547400000000000000004728                8000000000030501112662BRITISH AMERICAN TABACCO      000000001599593000000000000000000000000000000000000000000000000000000000000000000000075756000000000008718000000001163488PES00010000001000000000006102700000000000000000000000000                              000000000000000
202010020030547400000000000000000332                8000000000030501112662BRITISH AMERICAN TABACCO      000000000700478000000000000000000000000000000000000000000000000000000000000000000000033356000000000000000000000000502057PES00010000001000000000002864800000000000000000000000000                              000000000000000
202010020010000300000000000000002146                8000000000020123456786JOSE CERRAJERIA               000000000108000000000000000000000000000000000000000000000000000000000000000000000000000000000000000000000000000000000000PES00010000001000000000001874400000000000000000000000000                              000000000000000
202010030030255000000000000000110478                8000000000030546689979YPF SA                        000000006336600000000000000000000000000000000000000000000000000000000000000000000000000000000000000000000000000000000000PES00010000001000000000109974100000000000000000000000000                              000000000000000
202010030010509300000000000001787449                8000000000030518408689SALTA REFRESCOS S.A.          000000001688793000000000000000000000000000000000000000000000000000000000000000000000023809000000000038046000000000092403PES00010000001000000000026632400000000000000000000000000                              000000000000000
202010030030255000000000000000110055                8000000000030546689979YPF SA                        000000002509075000000000000000000000000000000000000000000000000000000000000000000000000000000000000000000000000000000000PES00010000001000000000043545900000000000000000000000000                              000000000000000
202010030010000400000000000000001436                8000000000020264052328LIBRERIA                      000000000551000000000000000000000000000000000000000000000000000000000000000000000000000000000000000000000000000000000000PES00010000001000000000009562800000000000000000000000000                              000000000000000
202010050010009800000000000000090306                8000000000030657865725GASNOR S.A.                   000000041737236000000000058698000000000000000000000000000000000000000000000000000000563282000000000965626000000001202737PES00010000001000000000675938600000000000000000000000000                              000000000000000
202010050010201800000000000000134013                8000000000030546689979YPF SA                        000000007859456000000000000000000000000000000000000000000000000000000000000000000000078438000000000188250000000000000000PES00010000001000000000131775300000000000000000000000000                              000000000000000
202010050030255000000000000000111603                8000000000030546689979YPF SA                        000000004920000000000000000000000000000000000000000000000000000000000000000000000000000000000000000000000000000000000000PES00010000001000000000085388400000000000000000000000000                              000000000000000
202010050010000400000000000000002899                8000000000020282237203ANDRETTA SEBASTIAN ALEJAN     000000001645840000000000000000000000000000000000000000000000000000000000000000000000000000000000000000000000000000000000PES00010000001000000000028564200000000000000000000000000                              000000000000000
202010050010000700000000000000171570                8000000000020133177249ROBERTO SANDOVAL              000000000394936000000000000000000000000000000000000000000000000000000000000000000000000000000000000000000000000000000000PES00010000001000000000006854300000000000000000000000000                              000000000000000
202010050010003900000000000000010374                8000000000030702355601NUEVO POLONORTE SRL           000000000589190000000000000000000000000000000000000000000000000000000000000000000000000000000000000000000000000000000000PES00010000001000000000010225600000000000000000000000000                              000000000000000
202010050010000700000000000000171569                8000000000020133177249ROBERTO SANDOVAL              000000000155486000000000000000000000000000000000000000000000000000000000000000000000000000000000000000000000000000000000PES00010000001000000000002698500000000000000000000000000                              000000000000000
202010050010000400000000000000004435                8000000000030694616484RIESGO INTEGRAL SA            000000000115793000000000000000000000000000000000000000000000000000000000000000000000000000000000000000000000000000000000PES00010000001000000000001100300000000000000000000000000                              000000000000000
202010060030217200000000000000000964                8000000000030546689979YPF SA                        000000000389322000000000000000000000000000000000000000000000000000000000000000000000005290000000000000000000000000000000PES00010000001000000000006665000000000000000000000000000                              000000000000000
202010060030217200000000000000000965                8000000000030546689979YPF SA                        000000000690770000000000000000000000000000000000000000000000000000000000000000000000011401000000000000000000000000000000PES00010000001000000000011790700000000000000000000000000                              000000000000000
202010060010002900000000000000045835                8000000000030677762345AXIS LOGISTICA SA             000000006156565000000000000000000000000000000000000000000000000000000000000000000000000000000000000148951000000000000000PES00010000001000000000104264300000000000000000000000000                              000000000000000
202010070010000600000000000000927517                8000000000030547751252POTIGIAN GOLOSINAS SACIF      000000002078238000000000000000000000000000000000000000000000000000000000000000000000000000000000000050280000000000000000PES00010000001000000000035196000000000000000000000000000                              000000000000000
202010070010000600000000000004927519                8000000000030547751252POTIGIAN GOLOSINAS SACIF      000000003150159000000000000000000000000000000000000000000000000000000000000000000000000000000000000075773000000000018192PES00010000001000000000053041400000000000000000000000000                              000000000000000
202010070010000300000000000000475987                8000000000033687473189PANINO SA                     000000004620024000000000000000000000000000000000000000000000000000000000000000000000000000000000000000000000000000000000PES00010000001000000000080182200000000000000000000000000                              000000000000000
202010070010001900000000000000006199                8000000000033697231469PACKING ENVASES               000000000139380000000000000000000000000000000000000000000000000000000000000000000000000000000000000000000000000000000000PES00010000001000000000002419000000000000000000000000000                              000000000000000
202010080010001400000000000000213493                8000000000030707249850DISTRIBUIDORA FAR PEP SH      000000000467615000000000000000000000000000000000000000000000000000000000000000000000006667000000000000000000000000000000PES00010000001000000000007999900000000000000000000000000                              000000000000000
202010080010000100000000000000085855                8000000000030715422243DTS S.R.L.                    000000000374676000000000000000000000000000000000000000000000000000000000000000000000005342000000000000000000000000000000PES00010000001000000000006409900000000000000000000000000                              000000000000000
202010080010002100000000000000073700                8000000000030708796065SHARE OUT SRL                 000000000853373000000000000000000000000000000000000000000000000000000000000000000000033865000000000000000000000000000000PES00010000001000000000014222900000000000000000000000000                              000000000000000
202010080010000700000000000000172110                8000000000020133177249ROBERTO SANDOVAL              000000000918438000000000000000000000000000000000000000000000000000000000000000000000000000000000000000000000000000000000PES00010000001000000000015939800000000000000000000000000                              000000000000000
202010080010000500000000000000000105                8000000000020262539270MARCOS L. SALOMON             000000000040000000000000000000000000000000000000000000000000000000000000000000000000000000000000000000000000000000000000PES00010000001000000000000694200000000000000000000000000                              000000000000000
202010080010008000000000000000135441                8000000000030556381778JOSE V. PAOLETTI SRL          000000002534750000000000000000000000000000000000000000000000000000000000000000000000007858000000000000000000000001897992PES00010000001000000000010914800000000000000000000000000                              000000000000000
202010080010807300000000000000886647                8000000000030707210385LA SERENISIMA S.A.            000000000889970000000000000000000000000000000000000000000000000000000000000000000000012385000000000021232000000000000000PES00010000001000000000014862300000000000000000000000000                              000000000000000
202010090010000700000000000000172161                8000000000020133177249ROBERTO SANDOVAL              000000000286447000000000000000000000000000000000000000000000000000000000000000000000000000000000000000000000000000000000PES00010000001000000000004971400000000000000000000000000                              000000000000000
202010090010000700000000000000172153                8000000000020133177249ROBERTO SANDOVAL              000000000225771000000000000000000000000000000000000000000000000000000000000000000000000000000000000000000000000000000000PES00010000001000000000003918300000000000000000000000000                              000000000000000
202010090010000700000000000000172154                8000000000020133177249ROBERTO SANDOVAL              000000000736996000000000000000000000000000000000000000000000000000000000000000000000000000000000000000000000000000000000PES00010000001000000000012790800000000000000000000000000                              000000000000000
202010090010509300000000000001790682                8000000000030518408689SALTA REFRESCOS S.A.          000000000939485000000000000000000000000000000000000000000000000000000000000000000000013211000000000021421000000000040867PES00010000001000000000014994800000000000000000000000000                              000000000000000
202010090010000500000000000000001300                8000000000030716323567SIDETEC SRL                   000000000865842000000000000000000000000000000000000000000000000000000000000000000000000000000000000000000000000000000000PES00010000001000000000015027000000000000000000000000000                              000000000000000
202010120010509300000000000001792170                8000000000030518408689SALTA REFRESCOS S.A.          000000001298039000000000000000000000000000000000000000000000000000000000000000000000018287000000000029338000000000067124PES00010000001000000000020536400000000000000000000000000                              000000000000000
202010120010000400000000000000002919                8000000000020282237203ANDRETTA SEBASTIAN ALEJAN     000000000613080000000000000000000000000000000000000000000000000000000000000000000000000000000000000000000000000000000000PES00010000001000000000010640200000000000000000000000000                              000000000000000
202010120010003900000000000000010491                8000000000030702355601NUEVO POLONORTE SRL           000000000612000000000000000000000000000000000000000000000000000000000000000000000000000000000000000000000000000000000000PES00010000001000000000010621500000000000000000000000000                              000000000000000
202010130010000800000000000000000538                8000000000030518428647SANTIAGO KOHN SA              000000000375989000000000000000000000000000000000000000000000000000000000000000000000014936000000000000000000000000000000PES00010000002000000000006232600000000000000000000000000                              000000000000000
202010130010000100000000000000005744                8000000000030716507455AMPERE E. BERCOBICH           000000000372001000000000000000000000000000000000000000000000000000000000000000000000000000000000000000000000000000000000PES00010000001000000000006456200000000000000000000000000                              000000000000000
202010130010000700000000000000172402                8000000000020133177249ROBERTO SANDOVAL              000000000267049000000000000000000000000000000000000000000000000000000000000000000000000000000000000000000000000000000000PES00010000001000000000004634700000000000000000000000000                              000000000000000
202010130010000700000000000000172401                8000000000020133177249ROBERTO SANDOVAL              000000000342345000000000000000000000000000000000000000000000000000000000000000000000000000000000000000000000000000000000PES00010000001000000000005941500000000000000000000000000                              000000000000000
202010140010000300000000000000000812                8000000000020249829898DUMA DISTRIBUCIONES           000000004586040000000000000000000000000000000000000000000000000000000000000000000000000000000000000000000000000000000000PES00010000001000000000079592400000000000000000000000000                              000000000000000
202010140010009700000000000051334968                8000000000030658650242EDET S.A.                     000000020703987000000000612183000000000000000000000000000000000000000000000000000000269639000000000462238000000000000000PES00010000001000000000411588500000000000000000000000000                              000000000000000
202010140010019600000000000000000584                8000000000030691454882GOMEZ PARDO                   000000000048694000000000000000000000000000000000000000000000000000000000000000000000000694000000000000000000000000000000PES00010000001000000000000833100000000000000000000000000                              000000000000000
202010140010088400000000000000029282                8000000000030507950848MOLINO CAUELAS S.A.C.I.F      000000001747439000000000000000000000000000000000000000000000000000000000000000000000057907000000000040876000000000000000PES00010000001000000000028613000000000000000000000000000                              000000000000000
202010140010100600000000000000136975                8000000000030547751252POTIGIAN GOLOSINAS SACIF      000000000347322000000000000000000000000000000000000000000000000000000000000000000000000000000000000008403000000000000000PES00010000001000000000005882100000000000000000000000000                              000000000000000
202010140010100600000000000000136976                8000000000030547751252POTIGIAN GOLOSINAS SACIF      000000000206234000000000000000000000000000000000000000000000000000000000000000000000000000000000000000000000000000000000PES00010000001000000000003579300000000000000000000000000                              000000000000000
202010140010100600000000000000136977                8000000000030547751252POTIGIAN GOLOSINAS SACIF      000000001371966000000000000000000000000000000000000000000000000000000000000000000000000000000000000033193000000000000000PES00010000001000000000023234900000000000000000000000000                              000000000000000
202010140010100600000000000000136965                8000000000030547751252POTIGIAN GOLOSINAS SACIF      000000001229979000000000000000000000000000000000000000000000000000000000000000000000000000000000000029758000000000000000PES00010000001000000000020830300000000000000000000000000                              000000000000000
202010150010002100000000000000073881                8000000000030708796065SHARE OUT SRL                 000000001389084000000000000000000000000000000000000000000000000000000000000000000000055123000000000000000000000000000000PES00010000001000000000023151400000000000000000000000000                              000000000000000
202010150010217200000000000000002251                8000000000030546689979YPF SA                        000000002858681000000000474152000000000000000000000000000000000000000000000000000000094239000000000000000000000000048662PES00010000001000000000038904300000000000000000000000000                              000000000000000
202010150010001200000000000000229235                8000000000030542851836ABC S.A                       000000006175437000000000000000000000000000000000000000000000000000000000000000000000000000000000000149406000000000000000PES00010000001000000000104584000000000000000000000000000                              000000000000000
202010150010807300000000000000889535                8000000000030707210385LA SERENISIMA S.A.            000000000412573000000000000000000000000000000000000000000000000000000000000000000000005742000000000009843000000000000000PES00010000001000000000006889900000000000000000000000000                              000000000000000
202010150010000100000000000000086930                8000000000030715422243DTS S.R.L.                    000000000330034000000000000000000000000000000000000000000000000000000000000000000000000000000000000000000000000000000000PES00010000001000000000005727900000000000000000000000000                              000000000000000
202010150010008000000000000000136077                8000000000030556381778JOSE V. PAOLETTI SRL          000000001239402000000000000000000000000000000000000000000000000000000000000000000000003836000000000000000000000000917905PES00010000001000000000005513100000000000000000000000000                              000000000000000
202010160010000700000000000000172920                8000000000020133177249ROBERTO SANDOVAL              000000000099993000000000000000000000000000000000000000000000000000000000000000000000000000000000000000000000000000000000PES00010000001000000000001735400000000000000000000000000                              000000000000000
202010160010019600000000000000000605                8000000000030691745488MEGACENTRO DE G.P.            000000000669448000000000000000000000000000000000000000000000000000000000000000000000009544000000000000000000000000000000PES00010000001000000000011452900000000000000000000000000                              000000000000000
202010160030255000000000000000118314                8000000000030546689979YPF SA                        000000005296348000000000000000000000000000000000000000000000000000000000000000000000000000000000000000000000000000000000PES00010000001000000000091920100000000000000000000000000                              000000000000000
202010160010547400000000000000004849                8000000000030501112662BRITISH AMERICAN TABACCO      000000001018567000000000000000000000000000000000000000000000000000000000000000000000048503000000000000000000000000744168PES00010000001000000000003920500000000000000000000000000                              000000000000000
202010160010509300000000000001794625                8000000000030518408689SALTA REFRESCOS S.A.          000000000713094000000000000000000000000000000000000000000000000000000000000000000000009991000000000016522000000000020177PES00010000001000000000011565700000000000000000000000000                              000000000000000
202010160010000700000000000000172919                8000000000020133177249ROBERTO SANDOVAL              000000000338208000000000000000000000000000000000000000000000000000000000000000000000000000000000000000000000000000000000PES00010000001000000000005869700000000000000000000000000                              000000000000000
202010190010000700000000000000173074                8000000000020133177249ROBERTO SANDOVAL              000000000340365000000000000000000000000000000000000000000000000000000000000000000000000000000000000000000000000000000000PES00010000001000000000005907200000000000000000000000000                              000000000000000
202010190010000700000000000000173075                8000000000020133177249ROBERTO SANDOVAL              000000000594393000000000000000000000000000000000000000000000000000000000000000000000000000000000000000000000000000000000PES00010000001000000000010315900000000000000000000000000                              000000000000000
202010190030201800000000000000087988                8000000000030546689979YPF SA                        000000003291917000000000000000000000000000000000000000000000000000000000000000000000032853000000000078848000000000000000PES00010000001000000000055193800000000000000000000000000                              000000000000000
202010190010509300000000000001796024                8000000000030518408689SALTA REFRESCOS S.A.          000000001396804000000000000000000000000000000000000000000000000000000000000000000000019652000000000031766000000000064169PES00010000001000000000022236000000000000000000000000000                              000000000000000
202010190010000400000000000000002953                8000000000020282237203ANDRETTA SEBASTIAN ALEJAN     000000001097594000000000000000000000000000000000000000000000000000000000000000000000000000000000000000000000000000000000PES00010000001000000000019049200000000000000000000000000                              000000000000000
202010190010003900000000000000010579                8000000000030702355601NUEVO POLONORTE SRL           000000000708000000000000000000000000000000000000000000000000000000000000000000000000000000000000000000000000000000000000PES00010000001000000000012287600000000000000000000000000                              000000000000000
202010200010100600000000000000138812                8000000000030547751252POTIGIAN GOLOSINAS SACIF      000000000282426000000000000000000000000000000000000000000000000000000000000000000000000000000000000006833000000000000000PES00010000001000000000004783000000000000000000000000000                              000000000000000
202010200030217200000000000000002503                8000000000030546689979YPF SA                        000000000429050000000000000000000000000000000000000000000000000000000000000000000000008685000000000000000000000000000000PES00010000001000000000007295600000000000000000000000000                              000000000000000
202010210010100600000000000000139271                8000000000030547751252POTIGIAN GOLOSINAS SACIF      000000001814835000000000000000000000000000000000000000000000000000000000000000000000000000000000000042521000000000057290PES00010000001000000000029764900000000000000000000000000                              000000000000000
202010210010100600000000000000139332                8000000000030547751252POTIGIAN GOLOSINAS SACIF      000000004132248000000000000000000000000000000000000000000000000000000000000000000000000000000000000099974000000000000000PES00010000001000000000069981600000000000000000000000000                              000000000000000
202010210010100600000000000000139324                8000000000030547751252POTIGIAN GOLOSINAS SACIF      000000001838523000000000000000000000000000000000000000000000000000000000000000000000000000000000000044480000000000000000PES00010000001000000000031136300000000000000000000000000                              000000000000000
202010210010000300000000000000477389                8000000000033687473189PANINO SA                     000000007508592000000000000000000000000000000000000000000000000000000000000000000000000000000000000000000000000000000000PES00010000001000000000130314400000000000000000000000000                              000000000000000
202010210010088400000000000000029489                8000000000030507950848MOLINO CAUELAS S.A.C.I.F      000000001196389000000000000000000000000000000000000000000000000000000000000000000000039646000000000027986000000000000000PES00010000001000000000019590000000000000000000000000000                              000000000000000
202010210010201900000000000000364744                8000000000030546689979YPF SA                        000000006296908000000000000000000000000000000000000000000000000000000000000000000000062843000000000150824000000000000000PES00010000001000000000105576900000000000000000000000000                              000000000000000
202010210010201900000000000000364745                8000000000030546689979YPF SA                        000000010434953000000000000000000000000000000000000000000000000000000000000000000000104141000000000249939000000000000000PES00010000001000000000174957300000000000000000000000000                              000000000000000
202010220010001400000000000000215101                8000000000030707249850DISTRIBUIDORA FAR PEP SH      000000000062663000000000000000000000000000000000000000000000000000000000000000000000000000000000000000000000000000000000PES00010000001000000000001087500000000000000000000000000                              000000000000000
202010220010000700000000000000173647                8000000000020133177249ROBERTO SANDOVAL              000000001154525000000000000000000000000000000000000000000000000000000000000000000000000000000000000000000000000000000000PES00010000001000000000020037200000000000000000000000000                              000000000000000
202010220010000100000000000000087707                8000000000030715422243DTS S.R.L.                    000000000404799000000000000000000000000000000000000000000000000000000000000000000000005771000000000000000000000000000000PES00010000001000000000006925300000000000000000000000000                              000000000000000
202010220010002100000000000000074045                8000000000030708796065SHARE OUT SRL                 000000003111215000000000000000000000000000000000000000000000000000000000000000000000101175000000000000000000000000000000PES00010000001000000000052240400000000000000000000000000                              000000000000000
202010220010001900000000000000006282                8000000000033697231469PACKING ENVASES               000000000170825000000000000000000000000000000000000000000000000000000000000000000000000000000000000000000000000000000000PES00010000001000000000002964700000000000000000000000000                              000000000000000
202010220010807300000000000000893023                8000000000030707210385LA SERENISIMA S.A.            000000000754704000000000000000000000000000000000000000000000000000000000000000000000010503000000000018005000000000000000PES00010000001000000000012603400000000000000000000000000                              000000000000000
202010220010008000000000000000136811                8000000000030556381778JOSE V. PAOLETTI SRL          000000002362779000000000000000000000000000000000000000000000000000000000000000000000007314000000000000000000000001750910PES00010000001000000000010492300000000000000000000000000                              000000000000000
202010220010000500000000000000001364                8000000000030716323567SIDETEC SRL                   000000001041756000000000000000000000000000000000000000000000000000000000000000000000000000000000000000000000000000000000PES00010000001000000000018080100000000000000000000000000                              000000000000000
202010230010000500000000000000000112                8000000000020262539270MARCOS L. SALOMON             000000000233999000000000000000000000000000000000000000000000000000000000000000000000000000000000000000000000000000000000PES00010000001000000000004061100000000000000000000000000                              000000000000000
202010230010201800000000000000136603                8000000000030546689979YPF SA                        000000008167046000000000000000000000000000000000000000000000000000000000000000000000081507000000000195618000000000000000PES00010000001000000000136932500000000000000000000000000                              000000000000000
202010230010001200000000000000048542                8000000000027275180993SARA BENCHIMOL                000000000295648000000000000000000000000000000000000000000000000000000000000000000000000000000000000000000000000000000000PES00010000001000000000005131100000000000000000000000000                              000000000000000
202010240010509300000000000001799102                8000000000030518408689SALTA REFRESCOS S.A.          000000001567355000000000000000000000000000000000000000000000000000000000000000000000022082000000000035425000000000081052PES00010000001000000000024797300000000000000000000000000                              000000000000000
202010240010000500000000000000001338                8000000000020342268111LA LLAVE FERRETERIA           000000000010000000000000000000000000000000000000000000000000000000000000000000000000000000000000000000000000000000000000PES00010000001000000000000173600000000000000000000000000                              000000000000000
202010240010001000000000000000004811                8000000000030714438766CORRALON ECHAZU S.R.L.        000000000021205000000000000000000000000000000000000000000000000000000000000000000000000000000000000000000000000000000000PES00010000001000000000000368000000000000000000000000000                              000000000000000
202010260010000700000000000000173919                8000000000020133177249ROBERTO SANDOVAL              000000000868464000000000000000000000000000000000000000000000000000000000000000000000000000000000000000000000000000000000PES00010000001000000000015072500000000000000000000000000                              000000000000000
202010260010000700000000000000173918                8000000000020133177249ROBERTO SANDOVAL              000000001001609000000000000000000000000000000000000000000000000000000000000000000000000000000000000000000000000000000000PES00010000001000000000017383300000000000000000000000000                              000000000000000
202010260030255000000000000000123624                8000000000030546689979YPF SA                        000000005525000000000000000000000000000000000000000000000000000000000000000000000000000000000000000000000000000000000000PES00010000001000000000095888400000000000000000000000000                              000000000000000
202010260010000400000000000000002978                8000000000020282237203ANDRETTA SEBASTIAN ALEJAN     000000001135170000000000000000000000000000000000000000000000000000000000000000000000000000000000000000000000000000000000PES00010000001000000000019701300000000000000000000000000                              000000000000000
202010260010003900000000000000010684                8000000000030702355601NUEVO POLONORTE SRL           000000000538999000000000000000000000000000000000000000000000000000000000000000000000000000000000000000000000000000000000PES00010000001000000000009354500000000000000000000000000                              000000000000000
202010270030217200000000000000003290                8000000000030546689979YPF SA                        000000000268676000000000000000000000000000000000000000000000000000000000000000000000000000000000000000000000000000000000PES00010000001000000000004663000000000000000000000000000                              000000000000000
202010270030217200000000000000003291                8000000000030546689979YPF SA                        000000000142478000000000000000000000000000000000000000000000000000000000000000000000000000000000000000000000000000000000PES00010000001000000000002472800000000000000000000000000                              000000000000000
202010270010000500000000000000001349                8000000000020342268111LA LLAVE FERRETERIA           000000000140294000000000000000000000000000000000000000000000000000000000000000000000000000000000000000000000000000000000PES00010000001000000000002434900000000000000000000000000                              000000000000000
202010280010088400000000000000029685                8000000000030507950848MOLINO CAUELAS S.A.C.I.F      000000001704312000000000000000000000000000000000000000000000000000000000000000000000056478000000000039867000000000000000PES00010000001000000000027906900000000000000000000000000                              000000000000000
202010280030042900000000000000000813                8000000000030507950848MOLINO CAUELAS S.A.C.I.F      000000000699438000000000000000000000000000000000000000000000000000000000000000000000016922000000000000000000000000000000PES00010000001000000000011845300000000000000000000000000                              000000000000000
202010280030002900000000000000001975                8000000000030677762345AXIS LOGISTICA SA             000000000998650000000000000000000000000000000000000000000000000000000000000000000000000000000000000024161000000000000000PES00010000001000000000016912600000000000000000000000000                              000000000000000
202010280010100600000000000000142211                8000000000030547751252POTIGIAN GOLOSINAS SACIF      000000002234168000000000000000000000000000000000000000000000000000000000000000000000000000000000000052305000000000072227PES00010000001000000000036613500000000000000000000000000                              000000000000000
202010280010100600000000000000142277                8000000000030547751252POTIGIAN GOLOSINAS SACIF      000000001882657000000000000000000000000000000000000000000000000000000000000000000000000000000000000045548000000000000000PES00010000001000000000031883700000000000000000000000000                              000000000000000
202010280010100600000000000000142281                8000000000030547751252POTIGIAN GOLOSINAS SACIF      000000000000552000000000000000000000000000000000000000000000000000000000000000000000000000000000000000000000000000000000PES00010000001000000000000009600000000000000000000000000                              000000000000000
202010280010509300000000000001801067                8000000000030518408689SALTA REFRESCOS S.A.          000000000922910000000000000000000000000000000000000000000000000000000000000000000000012907000000000021564000000000018699PES00010000001000000000015094700000000000000000000000000                              000000000000000
202010280030255000000000000000125447                8000000000030546689979YPF SA                        000000003627579000000000000000000000000000000000000000000000000000000000000000000000000000000000000000000000000000000000PES00010000001000000000062958000000000000000000000000000                              000000000000000
202010280010100600000000000000142282                8000000000030547751252POTIGIAN GOLOSINAS SACIF      000000004318436000000000000000000000000000000000000000000000000000000000000000000000000000000000000104478000000000000000PES00010000001000000000073134800000000000000000000000000                              000000000000000
202010280030000700000000000000003545                8000000000020133177249ROBERTO SANDOVAL              000000000027110000000000000000000000000000000000000000000000000000000000000000000000000000000000000000000000000000000000PES00010000001000000000000470500000000000000000000000000                              000000000000000
202010280010100600000000000000142283                8000000000030547751252POTIGIAN GOLOSINAS SACIF      000000000655038000000000000000000000000000000000000000000000000000000000000000000000000000000000000015848000000000000000PES00010000001000000000011093400000000000000000000000000                              000000000000000
202010280010214200000000000000166272                8000000000030546689979YPF SA                        000000006437895000000000000000000000000000000000000000000000000000000000000000000000000000000000000155755000000000000000PES00010000001000000000109028900000000000000000000000000                              000000000000000
202010290010807300000000000000896304                8000000000030707210385LA SERENISIMA S.A.            000000000358206000000000000000000000000000000000000000000000000000000000000000000000004985000000000008546000000000000000PES00010000001000000000005982000000000000000000000000000                              000000000000000
202010290010008000000000000000137521                8000000000030556381778JOSE V. PAOLETTI SRL          000000002213916000000000000000000000000000000000000000000000000000000000000000000000006870000000000000000000000001669680PES00010000001000000000009326200000000000000000000000000                              000000000000000
202010290010002100000000000000074220                8000000000030708796065SHARE OUT SRL                 000000003072163000000000000000000000000000000000000000000000000000000000000000000000115534000000000000000000000000000000PES00010000001000000000051313400000000000000000000000000                              000000000000000
202010290010000100000000000000088608                8000000000030715422243DTS S.R.L.                    000000000275411000000000000000000000000000000000000000000000000000000000000000000000000000000000000000000000000000000000PES00010000001000000000004779900000000000000000000000000                              000000000000000
202010290010000100000000000000088607                8000000000030715422243DTS S.R.L.                    000000000144063000000000000000000000000000000000000000000000000000000000000000000000000000000000000000000000000000000000PES00010000001000000000002500300000000000000000000000000                              000000000000000
202010290010001400000000000000215836                8000000000030707249850DISTRIBUIDORA FAR PEP SH      000000000124596000000000000000000000000000000000000000000000000000000000000000000000000000000000000000000000000000000000PES00010000001000000000002162400000000000000000000000000                              000000000000000
202010300010000700000000000000174532                8000000000020133177249ROBERTO SANDOVAL              000000000583763000000000000000000000000000000000000000000000000000000000000000000000000000000000000000000000000000000000PES00010000001000000000010131400000000000000000000000000                              000000000000000
202010300010000500000000000000001465                8000000000030716323567SIDETEC SRL                   000000000249552000000000000000000000000000000000000000000000000000000000000000000000000000000000000000000000000000000000PES00010000001000000000004331100000000000000000000000000                              000000000000000
202010300010000700000000000000174616                8000000000020133177249ROBERTO SANDOVAL              000000000096944000000000000000000000000000000000000000000000000000000000000000000000000000000000000000000000000000000000PES00010000001000000000001682500000000000000000000000000                              000000000000000
202010310010010900000000000000000062                8000000000030546689979YPF SA                        000001870394239000000370689725000000000000000000000000000000000000000000000000000000000000000000000000000000000032696365PES00010000001000000025460471400000000000000000000000000                              000000000000000
202010310010509300000000000001803299                8000000000030518408689SALTA REFRESCOS S.A.          000000001169496000000000000000000000000000000000000000000000000000000000000000000000016476000000000026440000000000060185PES00010000001000000000018507700000000000000000000000000                              000000000000000
