202009010010001000000000000000001135000000000000000195248000000000000000000000                              000000026132486000000000000000000000000000000000000000000000000000000000000000000000000000000000000000000000000004453556PES00010000001000000000000000000000000
202009010010001100000000000000001329000000000000000013358000000000000000000000                              000000009546735000000000000000000000000000000000000000000000000000000000000000000000000000000000000000000000000001569816PES00010000001000000000000000000000000
202009010060001000000000000000001785000000000000000745069600000000000012345678Consumidor Final              000000016894603000000000043305000000000000000000000000000000000000000000000000000000000000000000000000000000000002413636PES00010000001000000000000000000000000
202009010820001000000000000000023217000000000000000232509600000000000012345678Consumidor Final              000000000833200000000000000000000000000000000000000000000000000000000000000000000000000000000000000000000000000000000000PES00010000001000000000000000000000000
202009020010001000000000000000000898000000000000000195528000000000000000000000                              000000036785335000000000000000000000000000000000000000000000000000000000000000000000000000000000000000000000000006170341PES00010000001000000000000000000000000
202009020010001100000000000000001336000000000000000013368000000000000000000000                              000000001183434000000000000000000000000000000000000000000000000000000000000000000000000000000000000000000000000000189442PES00010000001000000000000000000000000
202009020060001000000000000000074713000000000000000747139600000000000012345678Consumidor Final              000000023493148000000000042826000000000000000000000000000000000000000000000000000000000000000000000000000000000003938669PES00010000001000000000000000000000000
202009020820001000000000000000023251000000000000000232879600000000000012345678Consumidor Final              000000000760600000000000001498000000000000000000000000000000000000000000000000000000000000000000000000000000000000000000PES00010000001000000000000000000000000
202009030010001000000000000000000002000000000000000195878000000000000000000000                              000000039475586000000000000000000000000000000000000000000000000000000000000000000000000000000000000000000000000006462545PES00010000001000000000000000000000000
202009030010001100000000000000001337000000000000000013388000000000000000000000                              000000002284628000000000000000000000000000000000000000000000000000000000000000000000000000000000000000000000000000157425PES00010000001000000000000000000000000
202009030060001000000000000000074949000000000000000749499600000000000012345678Consumidor Final              000000022473275000000000043706000000000000000000000000000000000000000000000000000000000000000000000000000000000003350398PES00010000001000000000000000000000000
202009030030001100000000000000000058000000000000000000588000000000000000000000                              000000000229502000000000000000000000000000000000000000000000000000000000000000000000000000000000000000000000000000000000PES00010000001000000000000000000000000
202009030820001000000000000000023288000000000000000233219600000000000012345678Consumidor Final              000000000678800000000000001500000000000000000000000000000000000000000000000000000000000000000000000000000000000000000000PES00010000001000000000000000000000000
202009040010001000000000000000000002000000000000000196258000000000000000000000                              000000032208494000000000000000000000000000000000000000000000000000000000000000000000000000000000000000000000000005379210PES00010000001000000000000000000000000
202009040010001100000000000000001339000000000000000013418000000000000000000000                              000000460478563-00000000001216000000000000000000000000000000000000000000000000000000000000000000000000000000000065331375PES00010000001000000000000000000000000
202009040060001000000000000000075184000000000000000751849600000000000012345678Consumidor Final              000000025086642000000000049172000000000000000000000000000000000000000000000000000000000000000000000000000000000003671739PES00010000001000000000000000000000000
202009040820001000000000000000023322000000000000000233579600000000000012345678Consumidor Final              000000000898598000000000000000000000000000000000000000000000000000000000000000000000000000000000000000000000000000000000PES00010000001000000000000000000000000
202009050010001000000000000000000899000000000000000196428000000000000000000000                              000000015990892000000000000000000000000000000000000000000000000000000000000000000000000000000000000000000000000002535058PES00010000001000000000000000000000000
202009050010001100000000000000001342000000000000000013428000000000000000000000                              000000002125967000000000000000000000000000000000000000000000000000000000000000000000000000000000000000000000000000311595PES00010000001000000000000000000000000
202009050060001000000000000000001798000000000000000753769600000000000012345678Consumidor Final              000000023833692000000000015149000000000000000000000000000000000000000000000000000000000000000000000000000000000003267920PES00010000001000000000000000000000000
202009050820001000000000000000023358000000000000000233849600000000000012345678Consumidor Final              000000000498400000000000001499000000000000000000000000000000000000000000000000000000000000000000000000000000000000000000PES00010000001000000000000000000000000
202009060010001000000000000000001147000000000000000196548000000000000000000000                              000000014345615000000000000000000000000000000000000000000000000000000000000000000000000000000000000000000000000002591473PES00010000001000000000000000000000000
202009060010002000000000000000000065000000000000000000658000000000000000000000                              000000088051400000000000000000000000000000000000000000000000000000000000000000000000000000000000000000000000000000000000PES00010000001000000000000000000000000
202009060060001000000000000000012098000000000000000754879600000000000012345678Consumidor Final              000000012925201000000000030747000000000000000000000000000000000000000000000000000000000000000000000000000000000002309616PES00010000001000000000000000000000000
202009060820001000000000000000023385000000000000000233869900000000000000000000Consumidor Final              000000000076000000000000000000000000000000000000000000000000000000000000000000000000000000000000000000000000000000000000PES00010000001000000000000000000000000
202009070010001000000000000000000002000000000000000196908000000000000000000000                              000000024018062000000000000000000000000000000000000000000000000000000000000000000000000000000000000000000000000004200365PES00010000001000000000000000000000000
202009070010001100000000000000001343000000000000000013498000000000000000000000                              000000032231288000000000000000000000000000000000000000000000000000000000000000000000000000000000000000000000000005763564PES00010000001000000000000000000000000
202009070060001000000000000000075701000000000000000757019600000000000012345678Consumidor Final              000000018008069000000000062417000000000000000000000000000000000000000000000000000000000000000000000000000000000002614370PES00010000001000000000000000000000000
202009070820001000000000000000023387000000000000000234249600000000000012345678Consumidor Final              000000000841221000000000009697000000000000000000000000000000000000000000000000000000000000000000000000000000000000000000PES00010000001000000000000000000000000
202009080010001000000000000000000002000000000000000197198000000000000000000000                              000000027414754000000000000000000000000000000000000000000000000000000000000000000000000000000000000000000000000004630501PES00010000001000000000000000000000000
202009080010001100000000000000001350000000000000000013618000000000000000000000                              000000054029355000000000000000000000000000000000000000000000000000000000000000000000000000000000000000000000000009328458PES00010000001000000000000000000000000
202009080060001000000000000000001813000000000000000759259600000000000012345678Consumidor Final              000000024480338000000000063659000000000000000000000000000000000000000000000000000000000000000000000000000000000003642592PES00010000001000000000000000000000000
202009080820001000000000000000023425000000000000000234659600000000000012345678Consumidor Final              000000000840300000000000001499000000000000000000000000000000000000000000000000000000000000000000000000000000000000000000PES00010000001000000000000000000000000
202009090010001000000000000000001153000000000000000197568000000000000000000000                              000000040546012000000000000000000000000000000000000000000000000000000000000000000000000000000000000000000000000007058571PES00010000001000000000000000000000000
202009090010001100000000000000001362000000000000000013638000000000000000000000                              000000149889620000000000000315000000000000000000000000000000000000000000000000000000000000000000000000000000000021924055PES00010000001000000000000000000000000
202009090060001000000000000000076171000000000000000761719600000000000012345678Consumidor Final              000000020503445000000000034674000000000000000000000000000000000000000000000000000000000000000000000000000000000003116685PES00010000001000000000000000000000000
202009090030001100000000000000000059000000000000000000598000000000000000000000                              000000043844890000000000000000000000000000000000000000000000000000000000000000000000000000000000000000000000000007755805PES00010000001000000000000000000000000
202009090820001000000000000000023466000000000000000234979600000000000012345678Consumidor Final              000000000731000000000000008728000000000000000000000000000000000000000000000000000000000000000000000000000000000000000000PES00010000001000000000000000000000000
202009100010001000000000000000000900000000000000000197848000000000000000000000                              000000030023498000000000000000000000000000000000000000000000000000000000000000000000000000000000000000000000000004696694PES00010000001000000000000000000000000
202009100010001100000000000000001364000000000000000013668000000000000000000000                              000000130169477000000000000236000000000000000000000000000000000000000000000000000000000000000000000000000000000018103875PES00010000001000000000000000000000000
202009100060001000000000000000001818000000000000000763929600000000000012345678Consumidor Final              000000018798419000000000054842000000000000000000000000000000000000000000000000000000000000000000000000000000000002757045PES00010000001000000000000000000000000
202009100820001000000000000000023498000000000000000235279600000000000012345678Consumidor Final              000000000745856000000000001631000000000000000000000000000000000000000000000000000000000000000000000000000000000000000000PES00010000001000000000000000000000000
202009110010001000000000000000000002000000000000000198158000000000000000000000                              000000028837512000000000000000000000000000000000000000000000000000000000000000000000000000000000000000000000000004746256PES00010000001000000000000000000000000
202009110060001000000000000000001820000000000000000766649600000000000012345678Consumidor Final              000000028719642000000000019663000000000000000000000000000000000000000000000000000000000000000000000000000000000004093200PES00010000001000000000000000000000000
202009110820001000000000000000023528000000000000000235749600000000000012345678Consumidor Final              000000000939750000000000003498000000000000000000000000000000000000000000000000000000000000000000000000000000000000000000PES00010000001000000000000000000000000
202009120010001000000000000000000002000000000000000198468000000000000000000000                              000000026674394000000000000000000000000000000000000000000000000000000000000000000000000000000000000000000000000004498712PES00010000001000000000000000000000000
202009120010001100000000000000001367000000000000000013688000000000000000000000                              000000007539726000000000000000000000000000000000000000000000000000000000000000000000000000000000000000000000000000854436PES00010000001000000000000000000000000
202009120060001000000000000000076843000000000000000768439600000000000012345678Consumidor Final              000000021416007000000000026720000000000000000000000000000000000000000000000000000000000000000000000000000000000002902965PES00010000001000000000000000000000000
202009120820001000000000000000023575000000000000000236179600000000000012345678Consumidor Final              000000001170100000000000003499000000000000000000000000000000000000000000000000000000000000000000000000000000000000000000PES00010000001000000000000000000000000
202009130010001000000000000000004351000000000000000198538000000000000000000000                              000000011100509000000000000000000000000000000000000000000000000000000000000000000000000000000000000000000000000001964473PES00010000001000000000000000000000000
202009130060001000000000000000002380000000000000000769609600000000000012345678Consumidor Final              000000009970659000000000006513000000000000000000000000000000000000000000000000000000000000000000000000000000000001640994PES00010000001000000000000000000000000
202009130820001000000000000000023618000000000000000236249600000000000012345678Consumidor Final              000000000485798000000000000000000000000000000000000000000000000000000000000000000000000000000000000000000000000000000000PES00010000001000000000000000000000000
202009140010001000000000000000000002000000000000000198828000000000000000000000                              000000034698691000000000000000000000000000000000000000000000000000000000000000000000000000000000000000000000000005503258PES00010000001000000000000000000000000
202009140010001100000000000000001369000000000000000013848000000000000000000000                              000000486731507000000000000905000000000000000000000000000000000000000000000000000000000000000000000000000000000074978769PES00010000001000000000000000000000000
202009140060001000000000000000077196000000000000000771969600000000000012345678Consumidor Final              000000022415151000000000108378000000000000000000000000000000000000000000000000000000000000000000000000000000000003608528PES00010000001000000000000000000000000
202009140060001100000000000000000048000000000000000000489600000000000012345678Consumidor Final              000000001979993000000000000000000000000000000000000000000000000000000000000000000000000000000000000000000000000000358339PES00010000001000000000000000000000000
202009140820001000000000000000023625000000000000000236499600000000000012345678Consumidor Final              000000000664901000000000000000000000000000000000000000000000000000000000000000000000000000000000000000000000000000000000PES00010000001000000000000000000000000
202009150010001000000000000000000002000000000000000199098000000000000000000000                              000000029472352000000000000000000000000000000000000000000000000000000000000000000000000000000000000000000000000005001733PES00010000001000000000000000000000000
202009150010001100000000000000001385000000000000000013948000000000000000000000                              000000016034215000000000000000000000000000000000000000000000000000000000000000000000000000000000000000000000000002413354PES00010000001000000000000000000000000
202009150060001000000000000000001835000000000000000773739600000000000012345678Consumidor Final              000000017568448000000000047865000000000000000000000000000000000000000000000000000000000000000000000000000000000002493051PES00010000001000000000000000000000000
202009150820001000000000000000023650000000000000000236919600000000000012345678Consumidor Final              000000000920100000000000040499000000000000000000000000000000000000000000000000000000000000000000000000000000000000000000PES00010000001000000000000000000000000
202009160010001000000000000000000002000000000000000199378000000000000000000000                              000000033523857000000000000000000000000000000000000000000000000000000000000000000000000000000000000000000000000005744274PES00010000001000000000000000000000000
202009160010001100000000000000001395000000000000000013958000000000000000000000                              000000036727039000000000000122000000000000000000000000000000000000000000000000000000000000000000000000000000000006646841PES00010000001000000000000000000000000
202009160060001000000000000000001841000000000000000775539600000000000012345678Consumidor Final              000000018299681000000000043896000000000000000000000000000000000000000000000000000000000000000000000000000000000002755351PES00010000001000000000000000000000000
202009160820001000000000000000023692000000000000000237269600000000000012345678Consumidor Final              000000000798802000000000000000000000000000000000000000000000000000000000000000000000000000000000000000000000000000000000PES00010000001000000000000000000000000
202009170010001000000000000000000002000000000000000199708000000000000000000000                              000000024192113000000000000000000000000000000000000000000000000000000000000000000000000000000000000000000000000003856663PES00010000001000000000000000000000000
202009170010001100000000000000001396000000000000000013968000000000000000000000                              000000009006904000000000000000000000000000000000000000000000000000000000000000000000000000000000000000000000000001750499PES00010000001000000000000000000000000
202009170060001000000000000000077805000000000000000778059600000000000012345678Consumidor Final              000000021579960000000000006146000000000000000000000000000000000000000000000000000000000000000000000000000000000002790264PES00010000001000000000000000000000000
202009170060001100000000000000000049000000000000000000499600000000000012345678Consumidor Final              000000006029016000000000000000000000000000000000000000000000000000000000000000000000000000000000000000000000000001022503PES00010000001000000000000000000000000
202009170820001000000000000000023727000000000000000237609600000000000012345678Consumidor Final              000000000754902000000000001498000000000000000000000000000000000000000000000000000000000000000000000000000000000000000000PES00010000001000000000000000000000000
202009180010001000000000000000000002000000000000000200118000000000000000000000                              000000036083186000000000000000000000000000000000000000000000000000000000000000000000000000000000000000000000000006008382PES00010000001000000000000000000000000
202009180010001100000000000000001397000000000000000013978000000000000000000000                              000000000401763000000000000000000000000000000000000000000000000000000000000000000000000000000000000000000000000000070275PES00010000001000000000000000000000000
202009180060001000000000000000078050000000000000000780509600000000000012345678Consumidor Final              000000026559012000000000046708000000000000000000000000000000000000000000000000000000000000000000000000000000000004014745PES00010000001000000000000000000000000
202009180820001000000000000000023761000000000000000238129600000000000012345678Consumidor Final              000000001275000000000000000000000000000000000000000000000000000000000000000000000000000000000000000000000000000000000000PES00010000001000000000000000000000000
202009190010001000000000000000000002000000000000000200388000000000000000000000                              000000026271102000000000000000000000000000000000000000000000000000000000000000000000000000000000000000000000000004308306PES00010000001000000000000000000000000
202009190010001100000000000000001398000000000000000013998000000000000000000000                              000000043056618000000000000166000000000000000000000000000000000000000000000000000000000000000000000000000000000007334210PES00010000001000000000000000000000000
202009190060001000000000000000078227000000000000000782279600000000000012345678Consumidor Final              000000023430492000000000025542000000000000000000000000000000000000000000000000000000000000000000000000000000000003397081PES00010000001000000000000000000000000
202009190820001000000000000000023813000000000000000238529600000000000012345678Consumidor Final              000000000941700000000000001501000000000000000000000000000000000000000000000000000000000000000000000000000000000000000000PES00010000001000000000000000000000000
202009200010001000000000000000004408000000000000000200508000000000000000000000                              000000016782797000000000000000000000000000000000000000000000000000000000000000000000000000000000000000000000000002826726PES00010000001000000000000000000000000
202009200060001000000000000000012379000000000000000783719600000000000012345678Consumidor Final              000000015502997000000000009995000000000000000000000000000000000000000000000000000000000000000000000000000000000002421862PES00010000001000000000000000000000000
202009200820001000000000000000023853000000000000000238679600000000000012345678Consumidor Final              000000000474700000000000001498000000000000000000000000000000000000000000000000000000000000000000000000000000000000000000PES00010000001000000000000000000000000
202009210010001000000000000000000002000000000000000200848000000000000000000000                              000000022622166000000000000000000000000000000000000000000000000000000000000000000000000000000000000000000000000003554640PES00010000001000000000000000000000000
202009210010001100000000000000001400000000000000000014128000000000000000000000                              000000153128590000000000000494000000000000000000000000000000000000000000000000000000000000000000000000000000000026801757PES00010000001000000000000000000000000
202009210060001000000000000000078560000000000000000785609600000000000012345678Consumidor Final              000000025079762000000000080014000000000000000000000000000000000000000000000000000000000000000000000000000000000003740895PES00010000001000000000000000000000000
202009210060001100000000000000000050000000000000000000509600000000000012345678Consumidor Final              000000005109122000000000000000000000000000000000000000000000000000000000000000000000000000000000000000000000000000895914PES00010000001000000000000000000000000
202009210030001100000000000000000060000000000000000000608000000000000000000000                              000000000021002000000000000000000000000000000000000000000000000000000000000000000000000000000000000000000000000000000000PES00010000001000000000000000000000000
202009210820001000000000000000023868000000000000000238979600000000000012345678Consumidor Final              000000001034752000000000000000000000000000000000000000000000000000000000000000000000000000000000000000000000000000000000PES00010000001000000000000000000000000
202009220010001000000000000000000002000000000000000201128000000000000000000000                              000000027912924000000000000000000000000000000000000000000000000000000000000000000000000000000000000000000000000004437766PES00010000001000000000000000000000000
202009220010001100000000000000001413000000000000000014228000000000000000000000                              000000079025009000000000000189000000000000000000000000000000000000000000000000000000000000000000000000000000000013562610PES00010000001000000000000000000000000
202009220060001000000000000000078780000000000000000787809600000000000012345678Consumidor Final              000000021682225000000000031196000000000000000000000000000000000000000000000000000000000000000000000000000000000003138997PES00010000001000000000000000000000000
202009220030001100000000000000000061000000000000000000618000000000000000000000                              000000007594906000000000000000000000000000000000000000000000000000000000000000000000000000000000000000000000000001343360PES00010000001000000000000000000000000
202009220820001000000000000000023898000000000000000239329600000000000012345678Consumidor Final              000000000801798000000000000000000000000000000000000000000000000000000000000000000000000000000000000000000000000000000000PES00010000001000000000000000000000000
202009230010001000000000000000000002000000000000000201568000000000000000000000                              000000030568771000000000000000000000000000000000000000000000000000000000000000000000000000000000000000000000000005016020PES00010000001000000000000000000000000
202009230010001100000000000000001423000000000000000014238000000000000000000000                              000000041922802000000000000177000000000000000000000000000000000000000000000000000000000000000000000000000000000007351375PES00010000001000000000000000000000000
202009230060001000000000000000079007000000000000000790079600000000000012345678Consumidor Final              000000022931597000000000030502000000000000000000000000000000000000000000000000000000000000000000000000000000000003446490PES00010000001000000000000000000000000
202009230820001000000000000000023933000000000000000239739600000000000012345678Consumidor Final              000000000844752000000000023900000000000000000000000000000000000000000000000000000000000000000000000000000000000000000000PES00010000001000000000000000000000000
202009240010001000000000000000000002000000000000000201898000000000000000000000                              000000031685698000000000000000000000000000000000000000000000000000000000000000000000000000000000000000000000000005302823PES00010000001000000000000000000000000
202009240060*  0000000000000000002 a000000000000000000029900000000000000000000Consumidor Final              000000000000000000000000000000000000000000000000000000000000000000000000000000000000000000000000000000000000000000000000PES00010000000N00000000000000000000000
