202010010010010200000000000000020401000000000000000204018000000000027130986361FERNANDEZ MARIA LUIS          000000001564490000000000000000000000000000000000000000000000000000000000000000000000000000000000000000000000000000266350PES00010000001000000000000000000000000
202010010010010200000000000000020402000000000000000204028000000000020245538449IBANEZ SERGIO GUSTAV          000000000050001000000000000000000000000000000000000000000000000000000000000000000000000000000000000000000000000000011016PES00010000001000000000000000000000000
202010010010010200000000000000020403000000000000000204038000000000020245538449IBANEZ SERGIO GUSTAV          000000000012003000000000000000000000000000000000000000000000000000000000000000000000000000000000000000000000000000000133PES00010000001000000000000000000000000
202010010010010200000000000000020404000000000000000204048000000000020249823245GESTION Y OPERACIONE          000000000099999000000000000000000000000000000000000000000000000000000000000000000000000000000000000000000000000000017535PES00010000001000000000000000000000000
202010010010010200000000000000020405000000000000000204058000000000027279611409OVEJERO MARIA SILVIA          000000000100001000000000000000000000000000000000000000000000000000000000000000000000000000000000000000000000000000014852PES00010000001000000000000000000000000
202010010010010200000000000000020406000000000000000204068000000000030639221128LAS LANZAS S.A.               000000000460039000000000000000000000000000000000000000000000000000000000000000000000000000000000000000000000000000068322PES00010000001000000000000000000000000
202010010010010200000000000000020407000000000000000204078000000000030716738996LEPA CONSTRUCCIONES           000000000099999000000000000000000000000000000000000000000000000000000000000000000000000000000000000000000000000000017535PES00010000001000000000000000000000000
202010010010010200000000000000020408000000000000000204088000000000030707636544RIO SINGUIL SA                000000000300002000000000000000000000000000000000000000000000000000000000000000000000000000000000000000000000000000044555PES00010000001000000000000000000000000
202010010010010200000000000000020409000000000000000204098000000000020370965766LEDESMA FRANCO                000000000315033000000000000000000000000000000000000000000000000000000000000000000000000000000000000000000000000000061809PES00010000001000000000000000000000000
202010010010010200000000000000020410000000000000000204108000000000023419603554ESPINOZA ADRIANA DEL          000000000079998000000000000000000000000000000000000000000000000000000000000000000000000000000000000000000000000000017625PES00010000001000000000000000000000000
202010010010010200000000000000020411000000000000000204118000000000030684101605LAURENZANO SA                 000000000100002000000000000000000000000000000000000000000000000000000000000000000000000000000000000000000000000000022032PES00010000001000000000000000000000000
202010010010010200000000000000020412000000000000000204128000000000030714075949SERMETAL SRL                  000000000300002000000000000000000000000000000000000000000000000000000000000000000000000000000000000000000000000000044555PES00010000001000000000000000000000000
202010010010010200000000000000020413000000000000000204138000000000030711668116MC KREDIT S.R.L EN F          000000000029000000000000000000000000000000000000000000000000000000000000000000000000000000000000000000000000000000000323PES00010000001000000000000000000000000
202010010010010200000000000000020414000000000000000204148000000000030716056518SIETE ARBOLES SRL             000000000300002000000000000000000000000000000000000000000000000000000000000000000000000000000000000000000000000000044555PES00010000001000000000000000000000000
202010010010010200000000000000020415000000000000000204158000000000020373095282GIOBELLINA JUAN MAUN          000000000488461000000000000000000000000000000000000000000000000000000000000000000000000000000000000000000000000000072544PES00010000001000000000000000000000000
202010010010010200000000000000020416000000000000000204168000000000020083707799ALBORNOZ CARLOS ROBE          000000000350109000000000000000000000000000000000000000000000000000000000000000000000000000000000000000000000000000077133PES00010000001000000000000000000000000
202010010010010200000000000000020417000000000000000204178000000000030709101354COSMOFLOR SA                  000000000240064000000000000000000000000000000000000000000000000000000000000000000000000000000000000000000000000000052889PES00010000001000000000000000000000000
202010010010010200000000000000020418000000000000000204188000000000030711703353BAEZA SRL                     000000000100002000000000000000000000000000000000000000000000000000000000000000000000000000000000000000000000000000022032PES00010000001000000000000000000000000
202010010010010200000000000000020419000000000000000204198000000000030715948466COOP AGRICOLA PILCO           000000000199996000000000000000000000000000000000000000000000000000000000000000000000000000000000000000000000000000044062PES00010000001000000000000000000000000
202010010010010200000000000000020420000000000000000204208000000000030715263196SERVICIOS PYP SRL             000000000028731000000000000000000000000000000000000000000000000000000000000000000000000000000000000000000000000000000319PES00010000001000000000000000000000000
202010010010010200000000000000020421000000000000000204218000000000020307694868PONCE JUAN GONZALO            000000000185007000000000000000000000000000000000000000000000000000000000000000000000000000000000000000000000000000027477PES00010000001000000000000000000000000
202010010010010200000000000000020422000000000000000204228000000000030551667800AITOR IDER  BALBO             000000000310057000000000000000000000000000000000000000000000000000000000000000000000000000000000000000000000000000060832PES00010000001000000000000000000000000
202010010010010200000000000000020423000000000000000204238000000000020207068641NOUGUES SANTIAGO              000000000284006000000000000000000000000000000000000000000000000000000000000000000000000000000000000000000000000000062570PES00010000001000000000000000000000000
202010010010010200000000000000020424000000000000000204248000000000020302599530BUSTOS SERGIO ALEJAN          000000000150001000000000000000000000000000000000000000000000000000000000000000000000000000000000000000000000000000022278PES00010000001000000000000000000000000
202010010010010200000000000000020425000000000000000204258000000000020302599530BUSTOS SERGIO ALEJAN          000000000150001000000000000000000000000000000000000000000000000000000000000000000000000000000000000000000000000000022278PES00010000001000000000000000000000000
202010010010010200000000000000020426000000000000000204268000000000020315490236LOBO JORGE AGUSTO             000000000149996000000000000000000000000000000000000000000000000000000000000000000000000000000000000000000000000000033047PES00010000001000000000000000000000000
202010010010010200000000000000020427000000000000000204278000000000020080366796SASSI COLOMBRES JORG          000000000701048000000000000000000000000000000000000000000000000000000000000000000000000000000000000000000000000000122933PES00010000001000000000000000000000000
202010010010010200000000000000020428000000000000000204288000000000030708544678PEDROTTI SRL                  000000000116040000000000000000000000000000000000000000000000000000000000000000000000000000000000000000000000000000022766PES00010000001000000000000000000000000
202010010010010200000000000000020429000000000000000204298000000000030708668733REFRES NOW SA                 000000000149996000000000000000000000000000000000000000000000000000000000000000000000000000000000000000000000000000033047PES00010000001000000000000000000000000
202010010010010200000000000000020430000000000000000204308000000000030714141054JSNORTE INGENIERIA            000000000350015000000000000000000000000000000000000000000000000000000000000000000000000000000000000000000000000000068673PES00010000001000000000000000000000000
202010010010010200000000000000020431000000000000000204318000000000030707651675CAIMAN SRL                    000000000200002000000000000000000000000000000000000000000000000000000000000000000000000000000000000000000000000000029703PES00010000001000000000000000000000000
202010010010010200000000000000020432000000000000000204328000000000020218944214ROJAS WALTER FABIAN           000000000150001000000000000000000000000000000000000000000000000000000000000000000000000000000000000000000000000000026304PES00010000001000000000000000000000000
202010010010010200000000000000020433000000000000000204338000000000030710089899AISLACIONES Y SERVIC          000000000149983000000000000000000000000000000000000000000000000000000000000000000000000000000000000000000000000000029427PES00010000001000000000000000000000000
202010010010010200000000000000020434000000000000000204348000000000030592845845CETROGAR S.A                  000000000060000000000000000000000000000000000000000000000000000000000000000000000000000000000000000000000000000000013219PES00010000001000000000000000000000000
202010010010010200000000000000020435000000000000000204358000000000030675407416FERRETERA DEL NORTE           000000000160023000000000000000000000000000000000000000000000000000000000000000000000000000000000000000000000000000035255PES00010000001000000000000000000000000
202010010010010200000000000000020436000000000000000204368000000000020184635888VENDITTI ARMANDO              000000000200011000000000000000000000000000000000000000000000000000000000000000000000000000000000000000000000000000044065PES00010000001000000000000000000000000
202010010010010200000000000000020437000000000000000204378000000000020179278651CORRAL RIVADENEIRA J          000000000300000000000000000000000000000000000000000000000000000000000000000000000000000000000000000000000000000000058859PES00010000001000000000000000000000000
202010010010010200000000000000020438000000000000000204388000000000030711144184ANPAU SRL                     000000000100001000000000000000000000000000000000000000000000000000000000000000000000000000000000000000000000000000014852PES00010000001000000000000000000000000
202010010010010200000000000000020439000000000000000204398000000000020177831329NASTAR JOSE MIGUEL            000000000015388000000000000000000000000000000000000000000000000000000000000000000000000000000000000000000000000000000171PES00010000001000000000000000000000000
202010010010010200000000000000020440000000000000000204408000000000027314989126ROMINA DIP                    000000000200002000000000000000000000000000000000000000000000000000000000000000000000000000000000000000000000000000029703PES00010000001000000000000000000000000
202010010010010200000000000000020441000000000000000204418000000000030714516899AGRO ACONQUIJA S.R.L          000000000017002000000000000000000000000000000000000000000000000000000000000000000000000000000000000000000000000000000189PES00010000001000000000000000000000000
202010010010010200000000000000020442000000000000000204428000000000020224292016FIGUEROA OSVALDO REN          000000000021693000000000000000000000000000000000000000000000000000000000000000000000000000000000000000000000000000000241PES00010000001000000000000000000000000
202010010010010200000000000000020443000000000000000204438000000000030707219420ROLCAR SA                     000000000350005000000000000000000000000000000000000000000000000000000000000000000000000000000000000000000000000000077110PES00010000001000000000000000000000000
202010010010010200000000000000020444000000000000000204448000000000020240591805FIGUEROA JUAN SANTIA          000000000025953000000000000000000000000000000000000000000000000000000000000000000000000000000000000000000000000000000289PES00010000001000000000000000000000000
202010010010010200000000000000020445000000000000000204458000000000020257400906ROLDAN RUBEN EDUARDO          000000000099999000000000000000000000000000000000000000000000000000000000000000000000000000000000000000000000000000017535PES00010000001000000000000000000000000
202010010010010200000000000000020446000000000000000204468000000000030685694286DANTE GUSTAVO CENTEN          000000000260069000000000000000000000000000000000000000000000000000000000000000000000000000000000000000000000000000042937PES00010000001000000000000000000000000
202010010010010200000000000000020447000000000000000204478000000000020241344488MOLAIES CHRISTIAN L           000000000234766000000000000000000000000000000000000000000000000000000000000000000000000000000000000000000000000000051722PES00010000001000000000000000000000000
202010010010010200000000000000020448000000000000000204488000000000030525436817JOSE MINETTI Y CIA L          000000000028889000000000000000000000000000000000000000000000000000000000000000000000000000000000000000000000000000000321PES00010000001000000000000000000000000
202010010010010200000000000000020449000000000000000204498000000000030715400630TSA ARGENTINA                 000000000014998000000000000000000000000000000000000000000000000000000000000000000000000000000000000000000000000000000167PES00010000001000000000000000000000000
202010010010010200000000000000020450000000000000000204508000000000030557784132GEBAL S.A                     000000000310065000000000000000000000000000000000000000000000000000000000000000000000000000000000000000000000000000046049PES00010000001000000000000000000000000
202010010010010200000000000000020451000000000000000204518000000000020140991652FERNANDEZ JOSE ENRIQ          000000000200002000000000000000000000000000000000000000000000000000000000000000000000000000000000000000000000000000029703PES00010000001000000000000000000000000
202010010010010200000000000000020452000000000000000204528000000000030710735537R.V INGENIERIA S.R.L          000000000021128000000000000000000000000000000000000000000000000000000000000000000000000000000000000000000000000000000235PES00010000001000000000000000000000000
202010010010010200000000000000020453000000000000000204538000000000030708696508COMPANIA ARGENTINA D          000000000209048000000000000000000000000000000000000000000000000000000000000000000000000000000000000000000000000000041015PES00010000001000000000000000000000000
202010010010010200000000000000020454000000000000000204548000000000033712241719NICOSIA NICOSIA               000000000200002000000000000000000000000000000000000000000000000000000000000000000000000000000000000000000000000000029703PES00010000001000000000000000000000000
202010010010010200000000000000020455000000000000000204558000000000027257855509PORRICIELO ARIANA MA          000000000405086000000000000000000000000000000000000000000000000000000000000000000000000000000000000000000000000000060161PES00010000001000000000000000000000000
202010010010010200000000000000020456000000000000000204568000000000020108787393SALAZAR GUILLERMO             000000000180018000000000000000000000000000000000000000000000000000000000000000000000000000000000000000000000000000035319PES00010000001000000000000000000000000
202010010010010200000000000000020457000000000000000204578000000000020371918249FRANCO ALFREDO CHAVA          000000000200000000000000000000000000000000000000000000000000000000000000000000000000000000000000000000000000000000035071PES00010000001000000000000000000000000
202010010010010200000000000000020458000000000000000204588000000000027257855509PORRICIELLO ARIANA M          000000000300002000000000000000000000000000000000000000000000000000000000000000000000000000000000000000000000000000044555PES00010000001000000000000000000000000
202010010010010300000000000000017950000000000000000179508000000000020242669526JOSE LUIS SAVAL               000000000390429000000000000000000000000000000000000000000000000000000000000000000000000000000000000000000000000000031485PES00010000001000000000000000000000000
202010010010010300000000000000017951000000000000000179518000000000020203111046AVALOS CARLOS                 000000000100001000000000000000000000000000000000000000000000000000000000000000000000000000000000000000000000000000014852PES00010000001000000000000000000000000
202010010010010300000000000000017952000000000000000179528000000000020114221083AVALOS CARLOS                 000000000100000000000000000000000000000000000000000000000000000000000000000000000000000000000000000000000000000000014852PES00010000001000000000000000000000000
202010010010010300000000000000017953000000000000000179538000000000020240299233PINO GUSTAVO ARIEL            000000000163978000000000000000000000000000000000000000000000000000000000000000000000000000000000000000000000000000000000PES00010000001000000000000000000000000
202010010010010300000000000000017954000000000000000179548000000000020412389434ACOSTA MAURICIO GABR          000000002264931000000000000000000000000000000000000000000000000000000000000000000000000000000000000000000000000000386665PES00010000001000000000000000000000000
202010010010010300000000000000017955000000000000000179558000000000020356204132SOTELO ESTEBAN NICOL          000000000050001000000000000000000000000000000000000000000000000000000000000000000000000000000000000000000000000000011016PES00010000001000000000000000000000000
202010010010010300000000000000017956000000000000000179568000000000020275950999RAMIREZ SEBASTIAN SE          000000000990001000000000000000000000000000000000000000000000000000000000000000000000000000000000000000000000000000173602PES00010000001000000000000000000000000
202010010010010300000000000000017957000000000000000179578000000000030710430531TRANSPORTE EL TALA S          000000001240141000000000000000000000000000000000000000000000000000000000000000000000000000000000000000000000000000217466PES00010000001000000000000000000000000
202010010010010300000000000000017958000000000000000179588000000000033710877659GERARDO SFEIR Y CIA           000000000499998000000000000000000000000000000000000000000000000000000000000000000000000000000000000000000000000000074257PES00010000001000000000000000000000000
202010010010010300000000000000017959000000000000000179598000000000020307707927ALDERETES JESUS OMAR          000000000150001000000000000000000000000000000000000000000000000000000000000000000000000000000000000000000000000000022278PES00010000001000000000000000000000000
202010010010010300000000000000017960000000000000000179608000000000027061842166SALIM JULIA                   000000000420020000000000000000000000000000000000000000000000000000000000000000000000000000000000000000000000000000062379PES00010000001000000000000000000000000
202010010010010300000000000000017961000000000000000179618000000000020129186225GRANITO JOSE HUMBERT          000000000599999000000000000000000000000000000000000000000000000000000000000000000000000000000000000000000000000000105213PES00010000001000000000000000000000000
202010010010010300000000000000017962000000000000000179628000000000020307596386PELUFFO PEDRO PABLO           000000000199996000000000000000000000000000000000000000000000000000000000000000000000000000000000000000000000000000044062PES00010000001000000000000000000000000
202010010010010300000000000000017963000000000000000179638000000000030709529958LATIN LEMON SA                000000000260005000000000000000000000000000000000000000000000000000000000000000000000000000000000000000000000000000038615PES00010000001000000000000000000000000
202010010010010300000000000000017964000000000000000179648000000000020365343617GRANEROS JUAN PABLO           000000000100001000000000000000000000000000000000000000000000000000000000000000000000000000000000000000000000000000014852PES00010000001000000000000000000000000
202010010010010300000000000000017965000000000000000179658000000000030646140923SERVICIOS MODERNOS S          000000000300101000000000000000000000000000000000000000000000000000000000000000000000000000000000000000000000000000066116PES00010000001000000000000000000000000
202010010010010300000000000000017966000000000000000179668000000000027060678443CACERES VICTORIA DEL          000000000900192000000000000000000000000000000000000000000000000000000000000000000000000000000000000000000000000000133692PES00010000001000000000000000000000000
202010010010010300000000000000017967000000000000000179678000000000020177525406METALURGICA SP                000000000181802000000000000000000000000000000000000000000000000000000000000000000000000000000000000000000000000000035669PES00010000001000000000000000000000000
202010010010010300000000000000017968000000000000000179688000000000033710081099EMSETEC SRL                   000000000100002000000000000000000000000000000000000000000000000000000000000000000000000000000000000000000000000000022032PES00010000001000000000000000000000000
202010010010010300000000000000017969000000000000000179698000000000030709545910FINCAS GREYCO SRL             000000000440007000000000000000000000000000000000000000000000000000000000000000000000000000000000000000000000000000075399PES00010000001000000000000000000000000
202010010010010300000000000000017970000000000000000179708000000000020224820861ACOSTA CARLOS ANIBAL          000000000210017000000000000000000000000000000000000000000000000000000000000000000000000000000000000000000000000000041205PES00010000001000000000000000000000000
202010010010010300000000000000017971000000000000000179718000000000023270437389BRIZUELA ADRIAN DIEG          000000000699997000000000000000000000000000000000000000000000000000000000000000000000000000000000000000000000000000126555PES00010000001000000000000000000000000
202010010010010300000000000000017972000000000000000179728000000000023270437389BRIZUELA ADRIAN DIEG          000000000700257000000000000000000000000000000000000000000000000000000000000000000000000000000000000000000000000000126602PES00010000001000000000000000000000000
202010010010010300000000000000017973000000000000000179738000000000020129186225GRANITO JOSE HUMBERT          000000000599999000000000000000000000000000000000000000000000000000000000000000000000000000000000000000000000000000105213PES00010000001000000000000000000000000
202010010010010300000000000000017974000000000000000179748000000000033659968679NORVIGUET S.R.L.              000000000099999000000000000000000000000000000000000000000000000000000000000000000000000000000000000000000000000000019620PES00010000001000000000000000000000000
202010010010010300000000000000017975000000000000000179758000000000033716335599CUAECO SAS                    000000000240754000000000000000000000000000000000000000000000000000000000000000000000000000000000000000000000000000047235PES00010000001000000000000000000000000
202010010010010300000000000000017976000000000000000179768000000000023221882199RIOS RENE ALEJANDRO           000000000200000000000000000000000000000000000000000000000000000000000000000000000000000000000000000000000000000000035071PES00010000001000000000000000000000000
202010010010010300000000000000017977000000000000000179778000000000020105150831CARNELLI JORGE DANIE          000000000100002000000000000000000000000000000000000000000000000000000000000000000000000000000000000000000000000000022032PES00010000001000000000000000000000000
202010010010010300000000000000017978000000000000000179788000000000020213280725CARLOS TAMER                  000000000300041000000000000000000000000000000000000000000000000000000000000000000000000000000000000000000000000000052613PES00010000001000000000000000000000000
202010010010010300000000000000017979000000000000000179798000000000023165780094RIVERO SARA JESUS             000000000999993000000000000000000000000000000000000000000000000000000000000000000000000000000000000000000000000000175355PES00010000001000000000000000000000000
202010010010010400000000000000009202000000000000000092028000000000020143590535GIL MANUEL ANTONIO            000000000619997000000000000000000000000000000000000000000000000000000000000000000000000000000000000000000000000000108720PES00010000001000000000000000000000000
202010010010010600000000000000001214000000000000000012148000000000030641290242GUIDOLI FLORIO S.R.L          000000000019498000000000000000000000000000000000000000000000000000000000000000000000000000000000000000000000000000000000PES00010000001000000000000000000000000
202010010010010600000000000000001215000000000000000012158000000000033678720629LA PIPA SRL                   000000000019498000000000000000000000000000000000000000000000000000000000000000000000000000000000000000000000000000000000PES00010000001000000000000000000000000
202010010010010600000000000000001216000000000000000012168000000000020110747625PEREZ JUAN LUIS               000000000015302000000000000000000000000000000000000000000000000000000000000000000000000000000000000000000000000000000200PES00010000001000000000000000000000000
202010010010010600000000000000001217000000000000000012178000000000030716669587KIDPARK                       000000000031000000000000002002000000000000000000000000000000000000000000000000000000000000000000000000000000000000000125PES00010000001000000000000000000000000
202010010010010600000000000000001218000000000000000012188000000000020203347678BOBADILLA MILTON GUI          000000000019902000000000000000000000000000000000000000000000000000000000000000000000000000000000000000000000000000000179PES00010000001000000000000000000000000
202010010010010600000000000000001219000000000000000012198000000000030714141054JS NORTE                      000000000048002000000000000000000000000000000000000000000000000000000000000000000000000000000000000000000000000000000000PES00010000001000000000000000000000000
202010010010010600000000000000001220000000000000000012208000000000030715237756SIMELA SRL                    000000000032998000000000000000000000000000000000000000000000000000000000000000000000000000000000000000000000000000000000PES00010000001000000000000000000000000
202010010010010600000000000000001221000000000000000012218000000000030709545910FINCAS GREYCO SRL             000000000038202000000000000000000000000000000000000000000000000000000000000000000000000000000000000000000000000000000237PES00010000001000000000000000000000000
202010010010010600000000000000001222000000000000000012228000000000033697225639ARGENTI LEMON                 000000000032998000000000000000000000000000000000000000000000000000000000000000000000000000000000000000000000000000000000PES00010000001000000000000000000000000
202010010010010600000000000000001223000000000000000012238000000000033697225639ARGENTI LEMON                 000000000038000000000000000000000000000000000000000000000000000000000000000000000000000000000000000000000000000000000000PES00010000001000000000000000000000000
202010010010010600000000000000001224000000000000000012248000000000023224295499PEREZ ELIO ULISES             000000000039002000000000000000000000000000000000000000000000000000000000000000000000000000000000000000000000000000000000PES00010000001000000000000000000000000
202010010010010600000000000000001225000000000000000012258000000000030709195251LA CELINA SRL                 000000000028998000000000000000000000000000000000000000000000000000000000000000000000000000000000000000000000000000009287PES00010000001000000000000000000000000
202010010010010700000000000000000921000000000000000009218000000000020119103879MARTINEZ ZUCCARDI JO          000000000201500000000000000000000000000000000000000000000000000000000000000000000000000000000000000000000000000000000000PES00010000001000000000000000000000000
202010010010011000000000000000001451000000000000000014518000000000030504549328INGECO S.A.                   000000110004300000000000000462000000000000000000000000000000000000000000000000000000000000000000000000000000000019289810PES00010000001000000000000000000000000
202010010060010200000000000000033133000000000000000331339600000000000012345678Consumidor Final              000000002000000000000000000000000000000000000000000000000000000000000000000000000000000000000000000000000000000000350712PES00010000001000000000000000000000000
202010010060010200000000000000033134000000000000000331429600000000000012345678Consumidor Final              000000001101989000000000000000000000000000000000000000000000000000000000000000000000000000000000000000000000000000213198PES00010000001000000000000000000000000
202010010060010200000000000000033143000000000000000331438000000000030711190194EDICIONES ALFA S.R.L          000000000050000000000000000000000000000000000000000000000000000000000000000000000000000000000000000000000000000000007426PES00010000001000000000000000000000000
202010010060010200000000000000033144000000000000000331519600000000000012345678Consumidor Final              000000000594511000000000000000000000000000000000000000000000000000000000000000000000000000000000000000000000000000092736PES00010000001000000000000000000000000
202010010060010200000000000000033152000000000000000331528000000000030709670413EMP ARGENTINA DE SOL          000000000310031000000000000000000000000000000000000000000000000000000000000000000000000000000000000000000000000000046044PES00010000001000000000000000000000000
202010010060010200000000000000033153000000000000000331539600000000000012345678Consumidor Final              000000000100002000000000000000000000000000000000000000000000000000000000000000000000000000000000000000000000000000022032PES00010000001000000000000000000000000
202010010060010200000000000000033154000000000000000331548000000000030675428081SECRETARIA DE TRABAJ          000000000073998000000000000000000000000000000000000000000000000000000000000000000000000000000000000000000000000000014518PES00010000001000000000000000000000000
202010010060010200000000000000033155000000000000000331569600000000000012345678Consumidor Final              000000000305029000000000000000000000000000000000000000000000000000000000000000000000000000000000000000000000000000060811PES00010000001000000000000000000000000
202010010060010200000000000000033157000000000000000331578000000000030675268602COMUNA LA TRINIDAD            000000000100002000000000000000000000000000000000000000000000000000000000000000000000000000000000000000000000000000022032PES00010000001000000000000000000000000
202010010060010200000000000000033158000000000000000331699600000000000012345678Consumidor Final              000000001730579000000000000000000000000000000000000000000000000000000000000000000000000000000000000000000000000000320796PES00010000001000000000000000000000000
202010010060010200000000000000033170000000000000000331708000000000030612717733ATSA                          000000000014998000000000000000000000000000000000000000000000000000000000000000000000000000000000000000000000000000000167PES00010000001000000000000000000000000
202010010060010200000000000000033171000000000000000331909600000000000012345678Consumidor Final              000000002604589000000000000000000000000000000000000000000000000000000000000000000000000000000000000000000000000000450819PES00010000001000000000000000000000000
202010010060010300000000000000025320000000000000000253249600000000000012345678Consumidor Final              000000000661072000000000000000000000000000000000000000000000000000000000000000000000000000000000000000000000000000127998PES00010000001000000000000000000000000
202010010060010300000000000000025325000000000000000253258000000000030679951382UPCN SECC TUCUMAN             000000000300002000000000000000000000000000000000000000000000000000000000000000000000000000000000000000000000000000044555PES00010000001000000000000000000000000
202010010060010300000000000000025326000000000000000253439600000000000012345678Consumidor Final              000000002775769000000000000000000000000000000000000000000000000000000000000000000000000000000000000000000000000000505913PES00010000001000000000000000000000000
202010010060010600000000000000012896000000000000000131229600000000000012345678Consumidor Final              000000004957800000000000045101000000000000000000000000000000000000000000000000000000000000000000000000000000000000371073PES00010000001000000000000000000000000
202010010820010600000000000000024198000000000000000242289600000000000012345678Consumidor Final              000000000828200000000000002000000000000000000000000000000000000000000000000000000000000000000000000000000000000000000000PES00010000001000000000000000000000000
202010020010010100000000000000013125000000000000000131258000000000030709194204KINGBERRY S.A                 000000000220023000000000000000000000000000000000000000000000000000000000000000000000000000000000000000000000000000048474PES00010000001000000000000000000000000
202010020010010100000000000000013126000000000000000131268000000000030711668116MC KREDIT S.R.L EN F          000000000020003000000000000000000000000000000000000000000000000000000000000000000000000000000000000000000000000000000222PES00010000001000000000000000000000000
202010020010010100000000000000013127000000000000000131278000000000030714278602CREDIFLASH                    000000000030002000000000000000000000000000000000000000000000000000000000000000000000000000000000000000000000000000000334PES00010000001000000000000000000000000
202010020010010100000000000000013128000000000000000131288000000000030714126721ABC DISTRIBUCIONES            000000000340000000000000000000000000000000000000000000000000000000000000000000000000000000000000000000000000000000066707PES00010000001000000000000000000000000
202010020010010100000000000000013129000000000000000131298000000000027224289168BO MARIA ALEJANDRA            000000000021000000000000000000000000000000000000000000000000000000000000000000000000000000000000000000000000000000000234PES00010000001000000000000000000000000
202010020010010100000000000000013130000000000000000131308000000000020307707927ALDERETES JESUS OMAR          000000000027001000000000000000000000000000000000000000000000000000000000000000000000000000000000000000000000000000000300PES00010000001000000000000000000000000
202010020010010100000000000000013131000000000000000131318000000000030697209189CEBIL CON AGUA SA             000000000440030000000000000000000000000000000000000000000000000000000000000000000000000000000000000000000000000000065351PES00010000001000000000000000000000000
202010020010010100000000000000013132000000000000000131328000000000030714516899AGRO ACONQUIJA S.R.L          000000000037000000000000000000000000000000000000000000000000000000000000000000000000000000000000000000000000000000000411PES00010000001000000000000000000000000
202010020010010100000000000000013133000000000000000131338000000000020262774377ABREGU DARDO JOSE             000000000014998000000000000000000000000000000000000000000000000000000000000000000000000000000000000000000000000000000167PES00010000001000000000000000000000000
202010020010010100000000000000013134000000000000000131348000000000027297070806HERNANDEZ INES                000000000200002000000000000000000000000000000000000000000000000000000000000000000000000000000000000000000000000000029703PES00010000001000000000000000000000000
202010020010010100000000000000013135000000000000000131358000000000020240591805FIGUEROA JUAN SANTIA          000000000017224000000000000000000000000000000000000000000000000000000000000000000000000000000000000000000000000000000192PES00010000001000000000000000000000000
202010020010010100000000000000013136000000000000000131368000000000030709545910FINCAS GREYCO SRL             000000000150001000000000000000000000000000000000000000000000000000000000000000000000000000000000000000000000000000022278PES00010000001000000000000000000000000
202010020010010100000000000000013137000000000000000131378000000000020262539270SALOMON MARCOS LEONA          000000000022002000000000000000000000000000000000000000000000000000000000000000000000000000000000000000000000000000000245PES00010000001000000000000000000000000
202010020010010100000000000000013138000000000000000131388000000000030716383659LOS CARDOS SAS                000000000146369000000000000000000000000000000000000000000000000000000000000000000000000000000000000000000000000000021739PES00010000001000000000000000000000000
202010020010010100000000000000013139000000000000000131398000000000030698538569LOGHINETH SOLUCIONES          000000000032000000000000000000000000000000000000000000000000000000000000000000000000000000000000000000000000000000000356PES00010000001000000000000000000000000
202010020010010100000000000000013140000000000000000131408000000000030712478817ALINOA SA                     000000000200002000000000000000000000000000000000000000000000000000000000000000000000000000000000000000000000000000039239PES00010000001000000000000000000000000
202010020010010100000000000000013141000000000000000131418000000000030712478817ALINOA SA                     000000000064001000000000000000000000000000000000000000000000000000000000000000000000000000000000000000000000000000000712PES00010000001000000000000000000000000
202010020010010100000000000000013142000000000000000131428000000000023275700819DULIO RUBEN SCHLOTTH          000000000490038000000000000000000000000000000000000000000000000000000000000000000000000000000000000000000000000000072778PES00010000001000000000000000000000000
202010020010010100000000000000013143000000000000000131438000000000020179474124SERGIO BERMUDEZ               000000000300002000000000000000000000000000000000000000000000000000000000000000000000000000000000000000000000000000044555PES00010000001000000000000000000000000
202010020010010100000000000000013144000000000000000131448000000000030711727856CUMBRES NEVADAS S.R.          000000000199996000000000000000000000000000000000000000000000000000000000000000000000000000000000000000000000000000044062PES00010000001000000000000000000000000
202010020010010200000000000000020459000000000000000204598000000000027258440450GARZON ELIANA                 000000000200002000000000000000000000000000000000000000000000000000000000000000000000000000000000000000000000000000029703PES00010000001000000000000000000000000
202010020010010200000000000000020460000000000000000204608000000000030714516899AGRO ACONQUIJA S.R.L          000000000022002000000000000000000000000000000000000000000000000000000000000000000000000000000000000000000000000000000245PES00010000001000000000000000000000000
202010020010010200000000000000020461000000000000000204618000000000030691734915LINE UP                       000000000100002000000000000000000000000000000000000000000000000000000000000000000000000000000000000000000000000000022032PES00010000001000000000000000000000000
202010020010010200000000000000020462000000000000000204628000000000030707505113STOLLER ARGENTINA SA          000000000400010000000000000000000000000000000000000000000000000000000000000000000000000000000000000000000000000000059408PES00010000001000000000000000000000000
202010020010010200000000000000020463000000000000000204638000000000030502793175ARCOR SAIC                    000000000250019000000000000000000000000000000000000000000000000000000000000000000000000000000000000000000000000000055082PES00010000001000000000000000000000000
202010020010010200000000000000020464000000000000000204648000000000020127339555TORRES LAIN                   000000000540025000000000000000000000000000000000000000000000000000000000000000000000000000000000000000000000000000080202PES00010000001000000000000000000000000
202010020010010200000000000000020465000000000000000204658000000000030592845845CETROGAR S.A                  000000000050001000000000000000000000000000000000000000000000000000000000000000000000000000000000000000000000000000011016PES00010000001000000000000000000000000
202010020010010200000000000000020466000000000000000204668000000000030500875239SA AZUCARERA                  000000000090001000000000000000000000000000000000000000000000000000000000000000000000000000000000000000000000000000000000PES00010000001000000000000000000000000
202010020010010200000000000000020467000000000000000204678000000000020346037645ALDERETE BIMBI MARTI          000000000230029000000000000000000000000000000000000000000000000000000000000000000000000000000000000000000000000000050678PES00010000001000000000000000000000000
202010020010010200000000000000020468000000000000000204688000000000030712293507DEVELOPERS S.A                000000000149998000000000000000000000000000000000000000000000000000000000000000000000000000000000000000000000000000029430PES00010000001000000000000000000000000
202010020010010200000000000000020469000000000000000204698000000000020432039952VILLAGRA RUBEN DARIO          000000000249990000000000000000000000000000000000000000000000000000000000000000000000000000000000000000000000000000055076PES00010000001000000000000000000000000
202010020010010200000000000000020470000000000000000204708000000000020307595886RUBIO EDUARDO MARTIN          000000000100001000000000000000000000000000000000000000000000000000000000000000000000000000000000000000000000000000014852PES00010000001000000000000000000000000
202010020010010200000000000000020471000000000000000204718000000000030716383659LOS CARDOS SAS                000000000139920000000000000000000000000000000000000000000000000000000000000000000000000000000000000000000000000000020781PES00010000001000000000000000000000000
202010020010010200000000000000020472000000000000000204728000000000023229246089MARIO ANTONIO RODRIG          000000000100001000000000000000000000000000000000000000000000000000000000000000000000000000000000000000000000000000014852PES00010000001000000000000000000000000
202010020010010200000000000000020473000000000000000204738000000000030646140923SERVICIOS MODERNOS S          000000000537014000000000000000000000000000000000000000000000000000000000000000000000000000000000000000000000000000079755PES00010000001000000000000000000000000
202010020010010200000000000000020474000000000000000204748000000000027213324441GRANERO ANA MARIA             000000000200002000000000000000000000000000000000000000000000000000000000000000000000000000000000000000000000000000029703PES00010000001000000000000000000000000
202010020010010200000000000000020475000000000000000204758000000000030711064946CENTRAL OUTDOOR SRL           000000000389995000000000000000000000000000000000000000000000000000000000000000000000000000000000000000000000000000057919PES00010000001000000000000000000000000
202010020010010200000000000000020476000000000000000204768000000000030709529958LATIN LEMON SA                000000000405033000000000000000000000000000000000000000000000000000000000000000000000000000000000000000000000000000060154PES00010000001000000000000000000000000
202010020010010200000000000000020477000000000000000204778000000000030716819856INDUSTRIAS STA BARBA          000000000364616000000000000000000000000000000000000000000000000000000000000000000000000000000000000000000000000000071537PES00010000001000000000000000000000000
202010020010010200000000000000020478000000000000000204788000000000030525436817JOSE MINETTI Y CIA L          000000000120000000000000000000000000000000000000000000000000000000000000000000000000000000000000000000000000000000026437PES00010000001000000000000000000000000
202010020010010200000000000000020479000000000000000204798000000000020110641851ROMANO ANGEL MOISES           000000000080011000000000000000000000000000000000000000000000000000000000000000000000000000000000000000000000000000017628PES00010000001000000000000000000000000
202010020010010200000000000000020480000000000000000204808000000000030710899084NEWCO                         000000000300002000000000000000000000000000000000000000000000000000000000000000000000000000000000000000000000000000044555PES00010000001000000000000000000000000
202010020010010200000000000000020481000000000000000204818000000000030707564438FRUTUCUMAN SA                 000000000149996000000000000000000000000000000000000000000000000000000000000000000000000000000000000000000000000000033047PES00010000001000000000000000000000000
202010020010010200000000000000020482000000000000000204828000000000033711620449MARTIN FORMOSO INGEN          000000000250003000000000000000000000000000000000000000000000000000000000000000000000000000000000000000000000000000037129PES00010000001000000000000000000000000
202010020010010200000000000000020483000000000000000204838000000000030707564438FRUTUCUMAN SA                 000000000050001000000000000000000000000000000000000000000000000000000000000000000000000000000000000000000000000000011016PES00010000001000000000000000000000000
202010020010010200000000000000020484000000000000000204848000000000020307707927ALDERETES JESUS OMAR          000000001140000000000000000000000000000000000000000000000000000000000000000000000000000000000000000000000000000000251157PES00010000001000000000000000000000000
202010020010010200000000000000020485000000000000000204858000000000030710606826ASB TECHNOLOGIES S.R          000000000300002000000000000000000000000000000000000000000000000000000000000000000000000000000000000000000000000000044555PES00010000001000000000000000000000000
202010020010010200000000000000020486000000000000000204868000000000020393568705ABREGU RICARDO DANIE          000000000259793000000000000000000000000000000000000000000000000000000000000000000000000000000000000000000000000000000000PES00010000001000000000000000000000000
202010020010010200000000000000020487000000000000000204878000000000030710735537R.V INGENIERIA S.R.L          000000000100002000000000000000000000000000000000000000000000000000000000000000000000000000000000000000000000000000022032PES00010000001000000000000000000000000
202010020010010200000000000000020488000000000000000204888000000000030710502818KILOMETRO 14 SRL              000000000200002000000000000000000000000000000000000000000000000000000000000000000000000000000000000000000000000000029703PES00010000001000000000000000000000000
202010020010010200000000000000020489000000000000000204898000000000020178926900HAEL ANTONIO ALBERTO          000000000100001000000000000000000000000000000000000000000000000000000000000000000000000000000000000000000000000000014852PES00010000001000000000000000000000000
202010020010010200000000000000020490000000000000000204908000000000030536259194ORGANIZACION COORDIN          000000000067998000000000000000000000000000000000000000000000000000000000000000000000000000000000000000000000000000013341PES00010000001000000000000000000000000
202010020010010200000000000000020491000000000000000204918000000000027314989126ROMINA DIP                    000000000200002000000000000000000000000000000000000000000000000000000000000000000000000000000000000000000000000000029703PES00010000001000000000000000000000000
202010020010010200000000000000020492000000000000000204928000000000027057270905MANCERA JOSEFINA REM          000000000070020000000000000000000000000000000000000000000000000000000000000000000000000000000000000000000000000000015426PES00010000001000000000000000000000000
202010020010010200000000000000020493000000000000000204938000000000030714818674ALVAREZ ALUMINIO              000000000500039000000000000000000000000000000000000000000000000000000000000000000000000000000000000000000000000000074263PES00010000001000000000000000000000000
202010020010010200000000000000020494000000000000000204948000000000030591268054ERNESTO H FERNANDEZ           000000000490038000000000000000000000000000000000000000000000000000000000000000000000000000000000000000000000000000072778PES00010000001000000000000000000000000
202010020010010200000000000000020495000000000000000204958000000000020248034123MIGUEL BUESO HECTOR           000000000100002000000000000000000000000000000000000000000000000000000000000000000000000000000000000000000000000000022032PES00010000001000000000000000000000000
202010020010010200000000000000020496000000000000000204968000000000020255108574GARCIA CARLOS MAXIMI          000000000100001000000000000000000000000000000000000000000000000000000000000000000000000000000000000000000000000000014852PES00010000001000000000000000000000000
202010020010010200000000000000020497000000000000000204978000000000030707950303TRANSPORTE VERA SRL           000000000300002000000000000000000000000000000000000000000000000000000000000000000000000000000000000000000000000000044555PES00010000001000000000000000000000000
202010020010010200000000000000020498000000000000000204988000000000020138611109PEREZ RAUL SALVADOR           000000000450053000000000000000000000000000000000000000000000000000000000000000000000000000000000000000000000000000066839PES00010000001000000000000000000000000
202010020010010200000000000000020499000000000000000204998000000000020286141154PABLO FERNANDO CORRE          000000000644584000000000000000000000000000000000000000000000000000000000000000000000000000000000000000000000000000104434PES00010000001000000000000000000000000
202010020010010200000000000000020500000000000000000205008000000000027065051767MACIEL TALABERA PATR          000000000260018000000000000000000000000000000000000000000000000000000000000000000000000000000000000000000000000000038617PES00010000001000000000000000000000000
202010020010010200000000000000020501000000000000000205018000000000027257855509PORRICIELO ARIANA MA          000000000425090000000000000000000000000000000000000000000000000000000000000000000000000000000000000000000000000000063133PES00010000001000000000000000000000000
202010020010010200000000000000020502000000000000000205028000000000033709452539LAF PIPELINE SERVICE          000000000150001000000000000000000000000000000000000000000000000000000000000000000000000000000000000000000000000000026304PES00010000001000000000000000000000000
202010020010010200000000000000020503000000000000000205038000000000030679979295S.A VERACRUZ                  000000000154034000000000000000000000000000000000000000000000000000000000000000000000000000000000000000000000000000022876PES00010000001000000000000000000000000
202010020010010200000000000000020504000000000000000205048000000000030710926421AMARELA S.A                   000000000499998000000000000000000000000000000000000000000000000000000000000000000000000000000000000000000000000000074257PES00010000001000000000000000000000000
202010020010010200000000000000020505000000000000000205058000000000030714730866FERSAL SRL                    000000000200002000000000000000000000000000000000000000000000000000000000000000000000000000000000000000000000000000029703PES00010000001000000000000000000000000
202010020010010200000000000000020506000000000000000205068000000000030711067023NORRIS HIJOS SRL              000000000300000000000000000000000000000000000000000000000000000000000000000000000000000000000000000000000000000000058859PES00010000001000000000000000000000000
202010020010010200000000000000020507000000000000000205078000000000020208989317CEJAS JUAN CARLOS             000000000151873000000000000000000000000000000000000000000000000000000000000000000000000000000000000000000000000000033460PES00010000001000000000000000000000000
202010020010010300000000000000017980000000000000000179808000000000020216398808JEREZ FELIX ERNESTO           000000000369999000000000000000000000000000000000000000000000000000000000000000000000000000000000000000000000000000054950PES00010000001000000000000000000000000
202010020010010300000000000000017981000000000000000179818000000000020188062998CARDENAS LOPEZ VLADI          000000000266018000000000000000000000000000000000000000000000000000000000000000000000000000000000000000000000000000058607PES00010000001000000000000000000000000
202010020010010300000000000000017982000000000000000179828000000000030715719963ALTOS LA CELIA SRL            000000000157086000000000000000000000000000000000000000000000000000000000000000000000000000000000000000000000000000030820PES00010000001000000000000000000000000
202010020010010300000000000000017983000000000000000179838000000000030530190176JUAN CARLOS ALVAREZ           000000002393990000000000000000000000000000000000000000000000000000000000000000000000000000000000000000000000000000419800PES00010000001000000000000000000000000
202010020010010300000000000000017984000000000000000179848000000000023419603554ESPINOZA ADRIANA DEL          000000000060000000000000000000000000000000000000000000000000000000000000000000000000000000000000000000000000000000013219PES00010000001000000000000000000000000
202010020010010300000000000000017985000000000000000179858000000000020205810006RODOLFO DANIEL AGUIR          000000000200000000000000000000000000000000000000000000000000000000000000000000000000000000000000000000000000000000035071PES00010000001000000000000000000000000
202010020010010300000000000000017986000000000000000179868000000000020302599530BUSTOS SERGIO ALEJAN          000000000150001000000000000000000000000000000000000000000000000000000000000000000000000000000000000000000000000000022278PES00010000001000000000000000000000000
202010020010010300000000000000017987000000000000000179878000000000030521797904COOPERATIVA CAMPO DE          000000000009002000000000000000000000000000000000000000000000000000000000000000000000000000000000000000000000000000001983PES00010000001000000000000000000000000
202010020010010300000000000000017988000000000000000179888000000000020223364048GALLEGO CARLOS MANUE          000000000129999000000000000000000000000000000000000000000000000000000000000000000000000000000000000000000000000000019307PES00010000001000000000000000000000000
202010020010010300000000000000017989000000000000000179898000000000030711225559AGROAVICOLA SRL               000000000380002000000000000000000000000000000000000000000000000000000000000000000000000000000000000000000000000000056436PES00010000001000000000000000000000000
202010020010010300000000000000017990000000000000000179908000000000030551667800AITOR IDER  BALBO             000000000099999000000000000000000000000000000000000000000000000000000000000000000000000000000000000000000000000000019620PES00010000001000000000000000000000000
202010020010010300000000000000017991000000000000000179918000000000030707115323LOMAS DEL SUR SRL             000000000259042000000000000000000000000000000000000000000000000000000000000000000000000000000000000000000000000000057070PES00010000001000000000000000000000000
202010020010010300000000000000017992000000000000000179928000000000030709065919NAVATUC INDUSTRIAS M          000000000300002000000000000000000000000000000000000000000000000000000000000000000000000000000000000000000000000000044555PES00010000001000000000000000000000000
202010020010010300000000000000017993000000000000000179938000000000030685697250CAMPODER SRL                  000000000200000000000000000000000000000000000000000000000000000000000000000000000000000000000000000000000000000000035071PES00010000001000000000000000000000000
202010020010010300000000000000017994000000000000000179948000000000020201791007ALBORNOZ MARIO CESAR          000000000260005000000000000000000000000000000000000000000000000000000000000000000000000000000000000000000000000000038615PES00010000001000000000000000000000000
202010020010010300000000000000017995000000000000000179958000000000020143590535GIL MANUEL ANTONIO            000000000599999000000000000000000000000000000000000000000000000000000000000000000000000000000000000000000000000000105213PES00010000001000000000000000000000000
202010020010010300000000000000017996000000000000000179968000000000027057270905MANCERA JOSEFINA REM          000000000100001000000000000000000000000000000000000000000000000000000000000000000000000000000000000000000000000000014852PES00010000001000000000000000000000000
202010020010010300000000000000017997000000000000000179978000000000020324163876SALE LUCAS RENE               000000000200000000000000000000000000000000000000000000000000000000000000000000000000000000000000000000000000000000035071PES00010000001000000000000000000000000
202010020010010300000000000000017998000000000000000179988000000000020169959146PLAZA EDGARDO OMAR            000000001210005000000000000000000000000000000000000000000000000000000000000000000000000000000000000000000000000000212181PES00010000001000000000000000000000000
202010020010010300000000000000017999000000000000000179998000000000027163325573GLADYS EDITH APARICI          000000000990001000000000000000000000000000000000000000000000000000000000000000000000000000000000000000000000000000173602PES00010000001000000000000000000000000
202010020010010300000000000000018000000000000000000180008000000000033712241719NICOSIA NICOSIA               000000000150001000000000000000000000000000000000000000000000000000000000000000000000000000000000000000000000000000022278PES00010000001000000000000000000000000
202010020010010300000000000000018001000000000000000180018000000000020144483910PUCHULU RAMON JUAN            000000000490025000000000000000000000000000000000000000000000000000000000000000000000000000000000000000000000000000086605PES00010000001000000000000000000000000
202010020010010300000000000000018002000000000000000180028000000000030714263621FENIX SERVICIOS SRL           000000000149998000000000000000000000000000000000000000000000000000000000000000000000000000000000000000000000000000029430PES00010000001000000000000000000000000
202010020010010300000000000000018003000000000000000180038000000000023112392769FAJRE MARCELO                 000000000200002000000000000000000000000000000000000000000000000000000000000000000000000000000000000000000000000000029703PES00010000001000000000000000000000000
202010020010010300000000000000018004000000000000000180048000000000030714915637FENIX CONSTRUCCIONES          000000000149998000000000000000000000000000000000000000000000000000000000000000000000000000000000000000000000000000029430PES00010000001000000000000000000000000
202010020010010300000000000000018005000000000000000180058000000000030675388292MAUER S.R.L                   000000000475008000000000000000000000000000000000000000000000000000000000000000000000000000000000000000000000000000070545PES00010000001000000000000000000000000
202010020010010300000000000000018006000000000000000180068000000000027266386015CEJAS DELIA BEATRIZ           000000000300014000000000000000000000000000000000000000000000000000000000000000000000000000000000000000000000000000066097PES00010000001000000000000000000000000
202010020010010300000000000000018007000000000000000180078000000000020393664178PIZZIA NAZARENO               000000002000000000000000000000000000000000000000000000000000000000000000000000000000000000000000000000000000000000350712PES00010000001000000000000000000000000
202010020010010300000000000000018008000000000000000180088000000000020393664178PIZZIA NAZARENO               000000001870150000000000000000000000000000000000000000000000000000000000000000000000000000000000000000000000000000327942PES00010000001000000000000000000000000
202010020010010300000000000000018009000000000000000180098000000000030646328450SYNGENTA AGRO                 000000000493265000000000000000000000000000000000000000000000000000000000000000000000000000000000000000000000000000073257PES00010000001000000000000000000000000
202010020010010300000000000000018010000000000000000180108000000000020397293727PICONE LUCIANO                000000000499999000000000000000000000000000000000000000000000000000000000000000000000000000000000000000000000000000087677PES00010000001000000000000000000000000
202010020010010300000000000000018011000000000000000180118000000000020208977599LOPEZ JAVIER FRANCIS          000000001627102000000000000000000000000000000000000000000000000000000000000000000000000000000000000000000000000000285321PES00010000001000000000000000000000000
202010020010010300000000000000018012000000000000000180128000000000030694944112OLTRANS S.R.L                 000000001796059000000000000000000000000000000000000000000000000000000000000000000000000000000000000000000000000000314950PES00010000001000000000000000000000000
202010020010010400000000000000009203000000000000000092038000000000027252978777CASTRO LILIANA MARIC          000000001499999000000000000000000000000000000000000000000000000000000000000000000000000000000000000000000000000000263033PES00010000001000000000000000000000000
202010020010010500000000000000004475000000000000000044758000000000020307755786MARTINO MARIO                 000000000039498000000000000000000000000000000000000000000000000000000000000000000000000000000000000000000000000000000000PES00010000001000000000000000000000000
202010020010010500000000000000004476000000000000000044768000000000030708385960PUEBLE SA                     000000000019498000000000000000000000000000000000000000000000000000000000000000000000000000000000000000000000000000000000PES00010000001000000000000000000000000
202010020010010500000000000000004477000000000000000044778000000000030708385960PUEBLE SA                     000000000009899000000000000000000000000000000000000000000000000000000000000000000000000000000000000000000000000000000000PES00010000001000000000000000000000000
202010020010010500000000000000004478000000000000000044788000000000030714126721ABC DISTRIBUCIONES            000000000036098000000000000000000000000000000000000000000000000000000000000000000000000000000000000000000000000000000000PES00010000001000000000000000000000000
202010020010010500000000000000004479000000000000000044798000000000030707564438FRUTUCUMAN SA                 000000000020599000000000000000000000000000000000000000000000000000000000000000000000000000000000000000000000000000000000PES00010000001000000000000000000000000
202010020010010500000000000000004480000000000000000044808000000000030697209189CEBIL CON AGUA SA             000000000025998000000000000000000000000000000000000000000000000000000000000000000000000000000000000000000000000000000000PES00010000001000000000000000000000000
202010020010010500000000000000004482000000000000000044828000000000030714126721ABC DISTRIBUCIONES            000000000048002000000000000000000000000000000000000000000000000000000000000000000000000000000000000000000000000000000000PES00010000001000000000000000000000000
202010020010010500000000000000004483000000000000000044838000000000030675388292MAUER S.R.L                   000000000018098000000000000000000000000000000000000000000000000000000000000000000000000000000000000000000000000000000000PES00010000001000000000000000000000000
202010020010010600000000000000001226000000000000000012268000000000030712293507DEVELOPERS S.A                000000000039001000000000000000000000000000000000000000000000000000000000000000000000000000000000000000000000000000000137PES00010000001000000000000000000000000
202010020010010600000000000000001227000000000000000012278000000000020286816348SANCHEZ ARIEL ARNALD          000000000064700000000000000000000000000000000000000000000000000000000000000000000000000000000000000000000000000000000000PES00010000001000000000000000000000000
202010020010010600000000000000001228000000000000000012288000000000020110747625PEREZ JUAN LUIS               000000000012002000000000000000000000000000000000000000000000000000000000000000000000000000000000000000000000000000000000PES00010000001000000000000000000000000
202010020010010600000000000000001229000000000000000012298000000000030646140923SERVICIOS MODERNOS S          000000000030002000000000000000000000000000000000000000000000000000000000000000000000000000000000000000000000000000000000PES00010000001000000000000000000000000
202010020010010600000000000000001230000000000000000012308000000000030711064946CENTRAL OUTDOOR SRL           000000000017499000000000000000000000000000000000000000000000000000000000000000000000000000000000000000000000000000000000PES00010000001000000000000000000000000
202010020010010600000000000000001231000000000000000012318000000000020253316560TULA JOSE HERNAN              000000000039999000000000000000000000000000000000000000000000000000000000000000000000000000000000000000000000000000000000PES00010000001000000000000000000000000
202010020010010600000000000000001232000000000000000012328000000000027266386015CEJAS DELIA BEATRIZ           000000000022201000000000000000000000000000000000000000000000000000000000000000000000000000000000000000000000000000000000PES00010000001000000000000000000000000
202010020010010700000000000000000922000000000000000009228000000000030595034996DONATO ALVAREZ S.R.L          000000000130000000000000000000000000000000000000000000000000000000000000000000000000000000000000000000000000000000000000PES00010000001000000000000000000000000
202010020010011000000000000000001452000000000000000014528000000000030504549328INGECO S.A.                   000000043852095000000000000187000000000000000000000000000000000000000000000000000000000000000000000000000000000007689687PES00010000001000000000000000000000000
202010020060010100000000000000018580000000000000000185919600000000000012345678Consumidor Final              000000001285488000000000000000000000000000000000000000000000000000000000000000000000000000000000000000000000000000193538PES00010000001000000000000000000000000
202010020060010100000000000000018592000000000000000185928000000000030675245815MUNICIPALIDAD DE CON          000000000309484000000000000000000000000000000000000000000000000000000000000000000000000000000000000000000000000000045963PES00010000001000000000000000000000000
202010020060010100000000000000018593000000000000000186049600000000000012345678Consumidor Final              000000001667450000000000000000000000000000000000000000000000000000000000000000000000000000000000000000000000000000281764PES00010000001000000000000000000000000
202010020060010200000000000000033191000000000000000332019600000000000012345678Consumidor Final              000000002135452000000000000000000000000000000000000000000000000000000000000000000000000000000000000000000000000000412700PES00010000001000000000000000000000000
202010020060010200000000000000033202000000000000000332028000000000030711190194EDICIONES ALFA S.R.L          000000000050000000000000000000000000000000000000000000000000000000000000000000000000000000000000000000000000000000007426PES00010000001000000000000000000000000
202010020060010200000000000000033203000000000000000332169600000000000012345678Consumidor Final              000000002109283000000000000000000000000000000000000000000000000000000000000000000000000000000000000000000000000000411457PES00010000001000000000000000000000000
202010020060010200000000000000033217000000000000000332178000000000030530013576ATE ALBERDI                   000000000200002000000000000000000000000000000000000000000000000000000000000000000000000000000000000000000000000000039239PES00010000001000000000000000000000000
202010020060010200000000000000033218000000000000000332419600000000000012345678Consumidor Final              000000005176035000000000000000000000000000000000000000000000000000000000000000000000000000000000000000000000000000948036PES00010000001000000000000000000000000
202010020060010200000000000000033242000000000000000332428000000000030612717733ATSA                          000000000294552000000000000000000000000000000000000000000000000000000000000000000000000000000000000000000000000000057790PES00010000001000000000000000000000000
202010020060010200000000000000033243000000000000000332479600000000000012345678Consumidor Final              000000000796015000000000000000000000000000000000000000000000000000000000000000000000000000000000000000000000000000162177PES00010000001000000000000000000000000
202010020060010300000000000000025344000000000000000253599600000000000012345678Consumidor Final              000000002090167000000000000000000000000000000000000000000000000000000000000000000000000000000000000000000000000000400529PES00010000001000000000000000000000000
202010020060010300000000000000025360000000000000000253608000000000027056863139SALA MARIA EUGENIA            000000000108349000000000000000000000000000000000000000000000000000000000000000000000000000000000000000000000000000021258PES00010000001000000000000000000000000
202010020060010300000000000000025361000000000000000253729600000000000012345678Consumidor Final              000000002067900000000000000000000000000000000000000000000000000000000000000000000000000000000000000000000000000000380953PES00010000001000000000000000000000000
202010020060010400000000000000002405000000000000000024079600000000000012345678Consumidor Final              000000000550197000000000000000000000000000000000000000000000000000000000000000000000000000000000000000000000000000096447PES00010000001000000000000000000000000
202010020060010500000000000000080214000000000000000802749600000000000012345678Consumidor Final              000000001438202000000000005502000000000000000000000000000000000000000000000000000000000000000000000000000000000000047636PES00010000001000000000000000000000000
202010020060010500000000000000080275000000000000000802758000000000033646687239AFINOA                        000000000030002000000000000000000000000000000000000000000000000000000000000000000000000000000000000000000000000000000000PES00010000001000000000000000000000000
202010020060010500000000000000080276000000000000000803949600000000000012345678Consumidor Final              000000003044602000000000007001000000000000000000000000000000000000000000000000000000000000000000000000000000000000244662PES00010000001000000000000000000000000
202010020060010600000000000000013123000000000000000131929600000000000012345678Consumidor Final              000000001439200000000000031599000000000000000000000000000000000000000000000000000000000000000000000000000000000000133661PES00010000001000000000000000000000000
202010020060010600000000000000013193000000000000000131938000000000030675245815MUNICIPALIDAD DE CON          000000000066203000000000000000000000000000000000000000000000000000000000000000000000000000000000000000000000000000001393PES00010000001000000000000000000000000
202010020060010600000000000000013194000000000000000132179600000000000012345678Consumidor Final              000000000619800000000000010899000000000000000000000000000000000000000000000000000000000000000000000000000000000000103403PES00010000001000000000000000000000000
202010020060010700000000000000001890000000000000000018949600000000000012345678Consumidor Final              000000002060186000000000000000000000000000000000000000000000000000000000000000000000000000000000000000000000000000000000PES00010000001000000000000000000000000
202010020820010600000000000000024229000000000000000242809600000000000012345678Consumidor Final              000000001339401000000000000000000000000000000000000000000000000000000000000000000000000000000000000000000000000000000000PES00010000001000000000000000000000000
202010030010010100000000000000013145000000000000000131458000000000020224292016FIGUEROA OSVALDO REN          000000000116031000000000000000000000000000000000000000000000000000000000000000000000000000000000000000000000000000017232PES00010000001000000000000000000000000
202010030010010100000000000000013146000000000000000131468000000000020307757584DIAZ CESAR HORACIO            000000000100002000000000000000000000000000000000000000000000000000000000000000000000000000000000000000000000000000022032PES00010000001000000000000000000000000
202010030010010100000000000000013147000000000000000131478000000000033714757429NOBEN SRL                     000000000022998000000000000000000000000000000000000000000000000000000000000000000000000000000000000000000000000000000256PES00010000001000000000000000000000000
202010030010010100000000000000013148000000000000000131488000000000030710735537R.V INGENIERIA S.R.L          000000000008624000000000000000000000000000000000000000000000000000000000000000000000000000000000000000000000000000000096PES00010000001000000000000000000000000
202010030010010100000000000000013149000000000000000131498000000000020223364048GALLEGO CARLOS MANUE          000000000129999000000000000000000000000000000000000000000000000000000000000000000000000000000000000000000000000000019307PES00010000001000000000000000000000000
202010030010010100000000000000013150000000000000000131508000000000020250477326HERRERA FELIX DARIO           000000000130050000000000000000000000000000000000000000000000000000000000000000000000000000000000000000000000000000028652PES00010000001000000000000000000000000
202010030010010100000000000000013151000000000000000131518000000000020250477326HERRERA FELIX DARIO           000000000014998000000000000000000000000000000000000000000000000000000000000000000000000000000000000000000000000000000167PES00010000001000000000000000000000000
202010030010010100000000000000013152000000000000000131528000000000020178927508GONZALEZ LEONARDO AR          000000000460020000000000000000000000000000000000000000000000000000000000000000000000000000000000000000000000000000068320PES00010000001000000000000000000000000
202010030010010100000000000000013153000000000000000131538000000000030516514244PROPANORTE                    000000000160034000000000000000000000000000000000000000000000000000000000000000000000000000000000000000000000000000031399PES00010000001000000000000000000000000
202010030010010100000000000000013154000000000000000131548000000000020177525406METALURGICA SP                000000000099999000000000000000000000000000000000000000000000000000000000000000000000000000000000000000000000000000019620PES00010000001000000000000000000000000
202010030010010100000000000000013155000000000000000131558000000000027143376546SALAZAR MARIA INES            000000000300002000000000000000000000000000000000000000000000000000000000000000000000000000000000000000000000000000044555PES00010000001000000000000000000000000
202010030010010100000000000000013156000000000000000131568000000000020238617759AYALA JUAN JOSE               000000000468289000000000000000000000000000000000000000000000000000000000000000000000000000000000000000000000000000069548PES00010000001000000000000000000000000
202010030010010100000000000000013157000000000000000131578000000000030707115323LOMAS DEL SUR SRL             000000000430056000000000000000000000000000000000000000000000000000000000000000000000000000000000000000000000000000063870PES00010000001000000000000000000000000
202010030010010100000000000000013158000000000000000131588000000000030684101605LAURENZANO SA                 000000000100002000000000000000000000000000000000000000000000000000000000000000000000000000000000000000000000000000022032PES00010000001000000000000000000000000
202010030010010100000000000000013159000000000000000131598000000000020227066254RODRIGUEZ JUAN ANTON          000000000519035000000000000000000000000000000000000000000000000000000000000000000000000000000000000000000000000000077085PES00010000001000000000000000000000000
202010030010010200000000000000020508000000000000000205088000000000020276515706SPIESS PABLO OTTO             000000000285015000000000000000000000000000000000000000000000000000000000000000000000000000000000000000000000000000042329PES00010000001000000000000000000000000
202010030010010200000000000000020509000000000000000205098000000000030711251703LOS ARILOS S.R.L.             000000000200002000000000000000000000000000000000000000000000000000000000000000000000000000000000000000000000000000029703PES00010000001000000000000000000000000
202010030010010200000000000000020510000000000000000205108000000000020311796187CAZADO LUCAS                  000000000340009000000000000000000000000000000000000000000000000000000000000000000000000000000000000000000000000000050496PES00010000001000000000000000000000000
202010030010010200000000000000020511000000000000000205118000000000030710502818KILOMETRO 14 SRL              000000000200002000000000000000000000000000000000000000000000000000000000000000000000000000000000000000000000000000029703PES00010000001000000000000000000000000
202010030010010200000000000000020512000000000000000205128000000000020219481471RISSO PATRON MIGUEL           000000000200000000000000000000000000000000000000000000000000000000000000000000000000000000000000000000000000000000035071PES00010000001000000000000000000000000
202010030010010200000000000000020513000000000000000205138000000000020302599530BUSTOS SERGIO ALEJAN          000000000150001000000000000000000000000000000000000000000000000000000000000000000000000000000000000000000000000000026304PES00010000001000000000000000000000000
202010030010010200000000000000020514000000000000000205148000000000027110318303SALAZAR ESTELA DEL V          000000000129975000000000000000000000000000000000000000000000000000000000000000000000000000000000000000000000000000028635PES00010000001000000000000000000000000
202010030010010200000000000000020515000000000000000205158000000000033715923489FELMAX S.R.L                  000000000887171000000000000000000000000000000000000000000000000000000000000000000000000000000000000000000000000000167348PES00010000001000000000000000000000000
202010030010010200000000000000020516000000000000000205168000000000020279448848GALVEZ ALVARO RODRIG          000000000270166000000000000000000000000000000000000000000000000000000000000000000000000000000000000000000000000000053006PES00010000001000000000000000000000000
202010030010010200000000000000020517000000000000000205178000000000033712241719NICOSIA NICOSIA               000000000200002000000000000000000000000000000000000000000000000000000000000000000000000000000000000000000000000000029703PES00010000001000000000000000000000000
202010030010010200000000000000020518000000000000000205188000000000027352074786YANINA CORONEL                000000000099999000000000000000000000000000000000000000000000000000000000000000000000000000000000000000000000000000017535PES00010000001000000000000000000000000
202010030010010200000000000000020519000000000000000205198000000000020257400906ROLDAN RUBEN EDUARDO          000000000099999000000000000000000000000000000000000000000000000000000000000000000000000000000000000000000000000000017535PES00010000001000000000000000000000000
202010030010010200000000000000020520000000000000000205208000000000030646328450SYNGENTA AGRO                 000000000337066000000000000000000000000000000000000000000000000000000000000000000000000000000000000000000000000000050060PES00010000001000000000000000000000000
202010030010010200000000000000020521000000000000000205218000000000030639227096INTRA SRL                     000000000210052000000000000000000000000000000000000000000000000000000000000000000000000000000000000000000000000000041211PES00010000001000000000000000000000000
202010030010010200000000000000020522000000000000000205228000000000030715284371TORRES SOSA SRL               000000000150001000000000000000000000000000000000000000000000000000000000000000000000000000000000000000000000000000022278PES00010000001000000000000000000000000
202010030010010200000000000000020523000000000000000205238000000000020264471258LUDEMANN WALTER               000000000100002000000000000000000000000000000000000000000000000000000000000000000000000000000000000000000000000000022032PES00010000001000000000000000000000000
202010030010010200000000000000020524000000000000000205248000000000020148290815LOBO RAUL DANIEL              000000000290021000000000000000000000000000000000000000000000000000000000000000000000000000000000000000000000000000043072PES00010000001000000000000000000000000
202010030010010200000000000000020525000000000000000205258000000000027257855509PORRICIELLO ARIANA M          000000000400005000000000000000000000000000000000000000000000000000000000000000000000000000000000000000000000000000059407PES00010000001000000000000000000000000
202010030010010200000000000000020526000000000000000205268000000000020084466841GUILLERMO VICENTE SA          000000000100002000000000000000000000000000000000000000000000000000000000000000000000000000000000000000000000000000022032PES00010000001000000000000000000000000
202010030010010200000000000000020527000000000000000205278000000000020286141154PABLO FERNANDO CORRE          000000000186923000000000000000000000000000000000000000000000000000000000000000000000000000000000000000000000000000029427PES00010000001000000000000000000000000
202010030010010200000000000000020528000000000000000205288000000000030691778068SEGURIDAD SUAT                000000000300002000000000000000000000000000000000000000000000000000000000000000000000000000000000000000000000000000044555PES00010000001000000000000000000000000
202010030010010200000000000000020529000000000000000205298000000000020248034123MIGUEL BUESO HECTOR           000000000100002000000000000000000000000000000000000000000000000000000000000000000000000000000000000000000000000000022032PES00010000001000000000000000000000000
202010030010010200000000000000020530000000000000000205308000000000020324601598ACOSTA MARCOS GONZAL          000000000200002000000000000000000000000000000000000000000000000000000000000000000000000000000000000000000000000000029703PES00010000001000000000000000000000000
202010030010010200000000000000020531000000000000000205318000000000020202200541CARRASCO DANIEL EDUA          000000000300002000000000000000000000000000000000000000000000000000000000000000000000000000000000000000000000000000044555PES00010000001000000000000000000000000
202010030010010200000000000000020532000000000000000205328000000000020219739231JUAN CARLOS SILVA             000000004298740000000000000000000000000000000000000000000000000000000000000000000000000000000000000000000000000000753809PES00010000001000000000000000000000000
202010030010010200000000000000020533000000000000000205338000000000033708194609COPAT LTDA                    000000000200000000000000000000000000000000000000000000000000000000000000000000000000000000000000000000000000000000035071PES00010000001000000000000000000000000
202010030010010200000000000000020534000000000000000205348000000000020219739231JUAN CARLOS SILVA             000000000519994000000000000000000000000000000000000000000000000000000000000000000000000000000000000000000000000000077226PES00010000001000000000000000000000000
202010030010010200000000000000020535000000000000000205358000000000033697225639ARGENTI LEMON                 000000000200002000000000000000000000000000000000000000000000000000000000000000000000000000000000000000000000000000039239PES00010000001000000000000000000000000
202010030010010200000000000000020536000000000000000205368000000000020266383240QUIROZ GUSTAVO LINO           000000000150001000000000000000000000000000000000000000000000000000000000000000000000000000000000000000000000000000022278PES00010000001000000000000000000000000
202010030010010200000000000000020537000000000000000205378000000000030710502818KILOMETRO 14 SRL              000000000200002000000000000000000000000000000000000000000000000000000000000000000000000000000000000000000000000000029703PES00010000001000000000000000000000000
202010030010010200000000000000020538000000000000000205388000000000033714757429NOBEN SRL                     000000000180032000000000000000000000000000000000000000000000000000000000000000000000000000000000000000000000000000035322PES00010000001000000000000000000000000
202010030010010200000000000000020539000000000000000205398000000000020393568705ABREGU RICARDO DANIE          000000000200002000000000000000000000000000000000000000000000000000000000000000000000000000000000000000000000000000029703PES00010000001000000000000000000000000
202010030010010200000000000000020540000000000000000205408000000000027257855509PORRICIELO ARIANA MA          000000000474644000000000000000000000000000000000000000000000000000000000000000000000000000000000000000000000000000070492PES00010000001000000000000000000000000
202010030010010300000000000000018013000000000000000180138000000000020249823245GESTION Y OPERACIONE          000000000090001000000000000000000000000000000000000000000000000000000000000000000000000000000000000000000000000000015782PES00010000001000000000000000000000000
202010030010010300000000000000018014000000000000000180148000000000020256325129GARCIA NESTOR SERGIO          000000000190014000000000000000000000000000000000000000000000000000000000000000000000000000000000000000000000000000028220PES00010000001000000000000000000000000
202010030010010300000000000000018015000000000000000180158000000000020144803184FEMENIAS GUSTAVO              000000000700001000000000000000000000000000000000000000000000000000000000000000000000000000000000000000000000000000122750PES00010000001000000000000000000000000
202010030010010300000000000000018016000000000000000180168000000000030556381778JOSE V. PAOLETTI Y C          000000000117008000000000000000000000000000000000000000000000000000000000000000000000000000000000000000000000000000022956PES00010000001000000000000000000000000
202010030010010300000000000000018017000000000000000180178000000000020129186225GRANITO JOSE HUMBERT          000000000599999000000000000000000000000000000000000000000000000000000000000000000000000000000000000000000000000000105213PES00010000001000000000000000000000000
202010030010010300000000000000018018000000000000000180188000000000023266483759ARIAS RUBEN ALFREDO           000000000380002000000000000000000000000000000000000000000000000000000000000000000000000000000000000000000000000000056436PES00010000001000000000000000000000000
202010030010010300000000000000018019000000000000000180198000000000027110318303SALAZAR ESTELA DEL V          000000000099999000000000000000000000000000000000000000000000000000000000000000000000000000000000000000000000000000019620PES00010000001000000000000000000000000
202010030010010300000000000000018020000000000000000180208000000000020302599530BUSTOS SERGIO ALEJAN          000000000180000000000000000000000000000000000000000000000000000000000000000000000000000000000000000000000000000000026733PES00010000001000000000000000000000000
202010030010010300000000000000018021000000000000000180218000000000027261096116ACOSTA ELSA                   000000000200002000000000000000000000000000000000000000000000000000000000000000000000000000000000000000000000000000029703PES00010000001000000000000000000000000
202010030010010300000000000000018022000000000000000180228000000000020222643202GURAIIB JULIO CESAR           000000000230002000000000000000000000000000000000000000000000000000000000000000000000000000000000000000000000000000040332PES00010000001000000000000000000000000
202010030010010300000000000000018023000000000000000180238000000000020110102012JULIO CESAR PEREZ             000000000099999000000000000000000000000000000000000000000000000000000000000000000000000000000000000000000000000000019620PES00010000001000000000000000000000000
202010030010010300000000000000018024000000000000000180248000000000020084466841GUILLERMO VICENTE SA          000000000719997000000000000000000000000000000000000000000000000000000000000000000000000000000000000000000000000000126256PES00010000001000000000000000000000000
202010030010010300000000000000018025000000000000000180258000000000020250743077URUENA CARLOS FRANCI          000000000400002000000000000000000000000000000000000000000000000000000000000000000000000000000000000000000000000000064775PES00010000001000000000000000000000000
202010030010010300000000000000018026000000000000000180268000000000020342807616CRUZ SERGIO                   000000000250003000000000000000000000000000000000000000000000000000000000000000000000000000000000000000000000000000037129PES00010000001000000000000000000000000
202010030010010300000000000000018027000000000000000180278000000000030714392030COCO SH                       000000000549992000000000000000000000000000000000000000000000000000000000000000000000000000000000000000000000000000081682PES00010000001000000000000000000000000
202010030010010300000000000000018028000000000000000180288000000000020123366027MENORQUE HECTOR DANT          000000000100002000000000000000000000000000000000000000000000000000000000000000000000000000000000000000000000000000022032PES00010000001000000000000000000000000
202010030010010300000000000000018029000000000000000180298000000000030640203583KOUSAL S.A                    000000000150033000000000000000000000000000000000000000000000000000000000000000000000000000000000000000000000000000029436PES00010000001000000000000000000000000
202010030010010300000000000000018030000000000000000180308000000000027257855509PORRICIELLO ARIANA M          000000000510019000000000000000000000000000000000000000000000000000000000000000000000000000000000000000000000000000089435PES00010000001000000000000000000000000
202010030010010300000000000000018031000000000000000180318000000000020252128779VIDAL PABLO ALBERTO           000000000090018000000000000000000000000000000000000000000000000000000000000000000000000000000000000000000000000000019832PES00010000001000000000000000000000000
202010030010010300000000000000018032000000000000000180328000000000030709993611PASSERI ALDO Y PASSE          000000000599995000000000000000000000000000000000000000000000000000000000000000000000000000000000000000000000000000108476PES00010000001000000000000000000000000
202010030010010300000000000000018033000000000000000180338000000000030709993611PASSERI ALDO Y PASSE          000000000036000000000000000000000000000000000000000000000000000000000000000000000000000000000000000000000000000000000000PES00010000001000000000000000000000000
202010030010010300000000000000018034000000000000000180348000000000027065529179MARTINEZ ZUCCARDI EM          000000000320046000000000000000000000000000000000000000000000000000000000000000000000000000000000000000000000000000047531PES00010000001000000000000000000000000
202010030010010300000000000000018035000000000000000180358000000000020127349496MENA MARCELO JOSE             000000000050000000000000000000000000000000000000000000000000000000000000000000000000000000000000000000000000000000007426PES00010000001000000000000000000000000
202010030010010300000000000000018036000000000000000180368000000000030711211264PRECURADOS SAN JUAN           000000001499999000000000000000000000000000000000000000000000000000000000000000000000000000000000000000000000000000263033PES00010000001000000000000000000000000
202010030010010300000000000000018037000000000000000180378000000000030707149546FORESTAL SAN IGNACIO          000000000200002000000000000000000000000000000000000000000000000000000000000000000000000000000000000000000000000000029703PES00010000001000000000000000000000000
202010030010010300000000000000018038000000000000000180388000000000030716383659LOS CARDOS SAS                000000000139920000000000000000000000000000000000000000000000000000000000000000000000000000000000000000000000000000020781PES00010000001000000000000000000000000
202010030010010300000000000000018039000000000000000180398000000000030701513890ALCORTA MAQUINARIAS           000000000200000000000000000000000000000000000000000000000000000000000000000000000000000000000000000000000000000000035071PES00010000001000000000000000000000000
202010030010010300000000000000018040000000000000000180408000000000030709195251LA CELINA SRL                 000000000050001000000000000000000000000000000000000000000000000000000000000000000000000000000000000000000000000000011016PES00010000001000000000000000000000000
202010030010010300000000000000018041000000000000000180418000000000020202600760JOSE EMILIO TABORDA           000000000989996000000000000000000000000000000000000000000000000000000000000000000000000000000000000000000000000000178985PES00010000001000000000000000000000000
202010030010010300000000000000018042000000000000000180428000000000020926864409CONDORI QUISPE LUIS           000000000200002000000000000000000000000000000000000000000000000000000000000000000000000000000000000000000000000000029703PES00010000001000000000000000000000000
202010030010010300000000000000018043000000000000000180438000000000030714837369MUHIC HNOS. S.R.L             000000002399992000000000000000000000000000000000000000000000000000000000000000000000000000000000000000000000000000420853PES00010000001000000000000000000000000
202010030010010300000000000000018044000000000000000180448000000000023229246089MARIO ANTONIO RODRIG          000000000174999000000000000000000000000000000000000000000000000000000000000000000000000000000000000000000000000000025990PES00010000001000000000000000000000000
202010030010010300000000000000018045000000000000000180458000000000020264520925SANCHEZ LUIS MARIA            000000000820911000000000000000000000000000000000000000000000000000000000000000000000000000000000000000000000000000143951PES00010000001000000000000000000000000
202010030010010300000000000000018046000000000000000180468000000000030709182117LOGISTICA Y DISTRIBU          000000000580497000000000000000000000000000000000000000000000000000000000000000000000000000000000000000000000000000104950PES00010000001000000000000000000000000
202010030010010300000000000000018047000000000000000180478000000000030709182117LOGISTICA Y DISTRIBU          000000000580497000000000000000000000000000000000000000000000000000000000000000000000000000000000000000000000000000104950PES00010000001000000000000000000000000
202010030010010300000000000000018048000000000000000180488000000000030521797904COOPERATIVA CAMPO DE          000000000200002000000000000000000000000000000000000000000000000000000000000000000000000000000000000000000000000000029703PES00010000001000000000000000000000000
202010030010010500000000000000004484000000000000000044848000000000030695177239AGROPECUARIA MISTOL           000000000037101000000000000000000000000000000000000000000000000000000000000000000000000000000000000000000000000000000000PES00010000001000000000000000000000000
202010030010010500000000000000004485000000000000000044858000000000030709442399PUNTO DE VENTA                000000000071402000000000000000000000000000000000000000000000000000000000000000000000000000000000000000000000000000000000PES00010000001000000000000000000000000
202010030010010500000000000000004486000000000000000044868000000000020110747625PEREZ JUAN LUIS               000000000031500000000000000000000000000000000000000000000000000000000000000000000000000000000000000000000000000000000132PES00010000001000000000000000000000000
202010030010010500000000000000004487000000000000000044878000000000033707379419AGROQUIMICA ALBERDI           000000000031101000000000000000000000000000000000000000000000000000000000000000000000000000000000000000000000000000000137PES00010000001000000000000000000000000
202010030010010600000000000000001233000000000000000012338000000000020202600760JOSE EMILIO TABORDA           000000000056101000000000000000000000000000000000000000000000000000000000000000000000000000000000000000000000000000000164PES00010000001000000000000000000000000
202010030010011000000000000000001453000000000000000014538000000000030639041545AGRO CARGAS SA                000000004851268000000000000000000000000000000000000000000000000000000000000000000000000000000000000000000000000000694670PES00010000001000000000000000000000000
202010030060010100000000000000018605000000000000000186319600000000000012345678Consumidor Final              000000002377013000000000000000000000000000000000000000000000000000000000000000000000000000000000000000000000000000423554PES00010000001000000000000000000000000
202010030060010200000000000000033248000000000000000332649600000000000012345678Consumidor Final              000000002060997000000000000000000000000000000000000000000000000000000000000000000000000000000000000000000000000000387440PES00010000001000000000000000000000000
202010030060010200000000000000033265000000000000000332658000000000030676303657FUNDACION ARGENINTA           000000000049999000000000000000000000000000000000000000000000000000000000000000000000000000000000000000000000000000008767PES00010000001000000000000000000000000
202010030060010200000000000000033266000000000000000332779600000000000012345678Consumidor Final              000000002103829000000000000000000000000000000000000000000000000000000000000000000000000000000000000000000000000000414813PES00010000001000000000000000000000000
202010030060010200000000000000033278000000000000000332788000000000027056863139SALA MARIA EUGENIA            000000000120041000000000000000000000000000000000000000000000000000000000000000000000000000000000000000000000000000023552PES00010000001000000000000000000000000
202010030060010200000000000000033279000000000000000332919600000000000012345678Consumidor Final              000000001918725000000000000000000000000000000000000000000000000000000000000000000000000000000000000000000000000000370916PES00010000001000000000000000000000000
202010030060010300000000000000025373000000000000000254029600000000000012345678Consumidor Final              000000005183426000000000000000000000000000000000000000000000000000000000000000000000000000000000000000000000000000981718PES00010000001000000000000000000000000
202010030060010500000000000000080395000000000000000805909600000000000012345678Consumidor Final              000000004946869000000000030601000000000000000000000000000000000000000000000000000000000000000000000000000000000000237758PES00010000001000000000000000000000000
202010030060010600000000000000013218000000000000000132279600000000000012345678Consumidor Final              000000000413802000000000000000000000000000000000000000000000000000000000000000000000000000000000000000000000000000085633PES00010000001000000000000000000000000
202010030060010700000000000000001895000000000000000018989600000000000012345678Consumidor Final              000000002105867000000000000000000000000000000000000000000000000000000000000000000000000000000000000000000000000000000000PES00010000001000000000000000000000000
202010030820010600000000000000024281000000000000000243109600000000000012345678Consumidor Final              000000000967101000000000000000000000000000000000000000000000000000000000000000000000000000000000000000000000000000000000PES00010000001000000000000000000000000
202010040010010100000000000000013160000000000000000131608000000000030521797904COOPERATIVA CAMPO DE          000000000004498000000000000000000000000000000000000000000000000000000000000000000000000000000000000000000000000000000050PES00010000001000000000000000000000000
202010040010010100000000000000013161000000000000000131618000000000020262774377ABREGU DARDO JOSE             000000000020003000000000000000000000000000000000000000000000000000000000000000000000000000000000000000000000000000000222PES00010000001000000000000000000000000
202010040010010100000000000000013162000000000000000131628000000000023121207079LUIS ALBERTO MELLADO          000000000320001000000000000000000000000000000000000000000000000000000000000000000000000000000000000000000000000000062784PES00010000001000000000000000000000000
202010040010010200000000000000020541000000000000000205418000000000020249823245GESTION Y OPERACIONE          000000000080003000000000000000000000000000000000000000000000000000000000000000000000000000000000000000000000000000014029PES00010000001000000000000000000000000
202010040010010200000000000000020542000000000000000205428000000000030709932361DROGUERIA PLAZA ONA           000000000200002000000000000000000000000000000000000000000000000000000000000000000000000000000000000000000000000000029703PES00010000001000000000000000000000000
202010040010010200000000000000020543000000000000000205438000000000020286141154PABLO FERNANDO CORRE          000000000156090000000000000000000000000000000000000000000000000000000000000000000000000000000000000000000000000000030625PES00010000001000000000000000000000000
202010040010010200000000000000020544000000000000000205448000000000027123463213CABRERA HILDA RAQUEL          000000000090027000000000000000000000000000000000000000000000000000000000000000000000000000000000000000000000000000017663PES00010000001000000000000000000000000
202010040010010200000000000000020545000000000000000205458000000000020138611109PEREZ RAUL SALVADOR           000000000220025000000000000000000000000000000000000000000000000000000000000000000000000000000000000000000000000000032677PES00010000001000000000000000000000000
202010040010010200000000000000020546000000000000000205468000000000030710502818KILOMETRO 14 SRL              000000000200002000000000000000000000000000000000000000000000000000000000000000000000000000000000000000000000000000029703PES00010000001000000000000000000000000
202010040010010200000000000000020547000000000000000205478000000000020206924633BUABSE EDMUNDO                000000000150001000000000000000000000000000000000000000000000000000000000000000000000000000000000000000000000000000022278PES00010000001000000000000000000000000
