202012010010001200000000000000230409                8000000000030542851836ABC S.A                       000000000650850000000000000000000000000000000000000000000000000000000000000000000000000000000000000015746000000000000000PES00010000001000000000011022500000000000000000000000000                              000000000000000
202012010030001200000000000000149441                8000000000030542851836ABC S.A                       000000000583198000000000000000000000000000000000000000000000000000000000000000000000000000000000000014110000000000000000PES00010000001000000000009876700000000000000000000000000                              000000000000000
202012010010217200000000000000010350                8000000000030546689979YPF SA                        000000000002038000000000000000000000000000000000000000000000000000000000000000000000000000000000000000000000000000000000PES00010000001000000000000035400000000000000000000000000                              000000000000000
202012010010001100000000000000464655                8000000000030542851836ABC S.A                       000000001651988000000000000000000000000000000000000000000000000000000000000000000000000000000000000039966000000000000000PES00010000001000000000027977200000000000000000000000000                              000000000000000
202012010010001200000000000000231563                8000000000030542851836ABC S.A                       000000007022143000000000000000000000000000000000000000000000000000000000000000000000000000000000000169891000000000000000PES00010000001000000000118923400000000000000000000000000                              000000000000000
202012010010001100000000000000465192                8000000000030542851836ABC S.A                       000000000770000000000000000000000000000000000000000000000000000000000000000000000000000000000000000018629000000000000000PES00010000001000000000013040300000000000000000000000000                              000000000000000
202012010030001200000000000000150426                8000000000030542851836ABC S.A                       000000001166396000000000000000000000000000000000000000000000000000000000000000000000000000000000000028219000000000000000PES00010000001000000000019753500000000000000000000000000                              000000000000000
202012010010008000000000000000079970                8000000000030643087193GRUPO AUTOPARTES              000000005332583000000000000000000000000000000000000000000000000000000000000000000000076025000000000000000000000000000000PES00010000001000000000091229500000000000000000000000000                              000000000000000
202012010010201800000000000000140306                8000000000030546689979YPF SA                        000000000013038000000000000000000000000000000000000000000000000000000000000000000000000133000000000000000000000000000000PES00010000001000000000000224000000000000000000000000000                              000000000000000
202012010030201800000000000000091407                8000000000030546689979YPF SA                        000000003059309000000000000000000000000000000000000000000000000000000000000000000000030532000000000073277000000000000000PES00010000001000000000051293800000000000000000000000000                              000000000000000
202012010030201800000000000000091295                8000000000030546689979YPF SA                        000000000134648000000000000000000000000000000000000000000000000000000000000000000000001377000000000000000000000000000000PES00010000001000000000002313000000000000000000000000000                              000000000000000
202012010030201800000000000000090956                8000000000030546689979YPF SA                        000000000656721000000000000000000000000000000000000000000000000000000000000000000000006554000000000015730000000000000000PES00010000001000000000011010900000000000000000000000000                              000000000000000
202012020010100600000000000000156050                8000000000030547751252POTIGIAN GOLOSINAS SACIF      000000003739526000000000000000000000000000000000000000000000000000000000000000000000000000000000000088053000000000100008PES00010000001000000000061637000000000000000000000000000                              000000000000000
202012020010100600000000000000156052                8000000000030547751252POTIGIAN GOLOSINAS SACIF      000000004531892000000000000000000000000000000000000000000000000000000000000000000000000000000000000109643000000000000000PES00010000001000000000076749800000000000000000000000000                              000000000000000
202012020010100600000000000000156006                8000000000030547751252POTIGIAN GOLOSINAS SACIF      000000005565824000000000000000000000000000000000000000000000000000000000000000000000000000000000000134657000000000000000PES00010000001000000000094259900000000000000000000000000                              000000000000000
202012020010002100000000000000075290                8000000000030708796065SHARE OUT SRL                 000000000156446000000000000000000000000000000000000000000000000000000000000000000000006209000000000000000000000000000000PES00010000001000000000002607400000000000000000000000000                              000000000000000
202012020010509300000000000001822915                8000000000030518408689SALTA REFRESCOS S.A.          000000000996504000000000000000000000000000000000000000000000000000000000000000000000013950000000000023176000000000024599PES00010000001000000000016223400000000000000000000000000                              000000000000000
202012020010002100000000000000075289                8000000000030708796065SHARE OUT SRL                 000000004162228000000000000000000000000000000000000000000000000000000000000000000000138884000000000000000000000000000000PES00010000001000000000069826600000000000000000000000000                              000000000000000
202012020030217200000000000000008538                8000000000030546689979YPF SA                        000000000685567000000000000000000000000000000000000000000000000000000000000000000000013878000000000000000000000000000000PES00010000001000000000011657400000000000000000000000000                              000000000000000
202012020010002900000000000000048026                8000000000030677762345AXIS LOGISTICA SA             000000007379455000000000000000000000000000000000000000000000000000000000000000000000000000000000000178536000000000000000PES00010000001000000000124974700000000000000000000000000                              000000000000000
202012020030217200000000000000008539                8000000000030546689979YPF SA                        000000000045990000000000000000000000000000000000000000000000000000000000000000000000000000000000000000000000000000000000PES00010000001000000000000798200000000000000000000000000                              000000000000000
202012020030217200000000000000008540                8000000000030546689979YPF SA                        000000001881646000000000000000000000000000000000000000000000000000000000000000000000029437000000000000000000000000000000PES00010000001000000000032145900000000000000000000000000                              000000000000000
202012020010000500000000000000001971                8000000000030716323567SIDETEC SRL                   000000000502604000000000000000000000000000000000000000000000000000000000000000000000000000000000000000000000000000000000PES00010000001000000000008722900000000000000000000000000                              000000000000000
202012020010088400000000000000030638                8000000000030507950848MOLINO CANUELAS S.A.C.I.F     000000001394682000000000000000000000000000000000000000000000000000000000000000000000046218000000000032624000000000000000PES00010000001000000000022836900000000000000000000000000                              000000000000000
202012020010000300000000000000482370                8000000000033687473189PANINO SA                     000000009046137000000000000000000000000000000000000000000000000000000000000000000000000000000000000000000000000000000000PES00010000001000000000156999100000000000000000000000000                              000000000000000
202012030010201900000000000000371326                8000000000030546689979YPF SA                        000000045631500000000000000000000000000000000000000000000000000000000000000000000000455405000000001092970000000000000000PES00010000001000000000765079000000000000000000000000000                              000000000000000
202012030010201900000000000000371327                8000000000030546689979YPF SA                        000000004969454000000000000000000000000000000000000000000000000000000000000000000000049595000000000119029000000000000000PES00010000001000000000083320200000000000000000000000000                              000000000000000
202012030010807300000000000000913270                8000000000030707210385LA SERENISIMA S.A.            000000000117239000000000000000000000000000000000000000000000000000000000000000000000001671000000000000000000000000000000PES00010000001000000000002005700000000000000000000000000                              000000000000000
202012030010000100000000000000093522                8000000000030715422243DTS S.R.L.                    000000000790633000000000000000000000000000000000000000000000000000000000000000000000011272000000000000000000000000000000PES00010000001000000000013526100000000000000000000000000                              000000000000000
202012030010201800000000000000140631                8000000000030546689979YPF SA                        000000005351057000000000000000000000000000000000000000000000000000000000000000000000053404000000000128169000000000000000PES00010000001000000000089718300000000000000000000000000                              000000000000000
202012030010008000000000000000141419                8000000000030556381778JOSE V. PAOLETTI SRL          000000003456180000000000000000000000000000000000000000000000000000000000000000000000010700000000000000000000000002563063PES00010000001000000000015314700000000000000000000000000                              000000000000000
202012030010009700000000000000034875                8000000000030657865725GASNOR S.A.                   000000044472181000000000058685000000000000000000000000000000000000000000000000000000600212000000001028936000000001283975PES00010000001000000000720254800000000000000000000000000                              000000000000000
202012030010002000000000000000090783                8000000000030709442399PUNTO DE VENTA SRL            000000000326954000000000000000000000000000000000000000000000000000000000000000000000000000000000000000000000000000000000PES00010000001000000000005674400000000000000000000000000                              000000000000000
202012030010001400000000000000219699                8000000000030707249850DISTRIBUIDORA FAR PEP SH      000000000425989000000000000000000000000000000000000000000000000000000000000000000000006073000000000000000000000000000000PES00010000001000000000007287800000000000000000000000000                              000000000000000
202012030030000700000000000000003668                8000000000020133177249ROBERTO SANDOVAL              000000000215680000000000000000000000000000000000000000000000000000000000000000000000000000000000000000000000000000000000PES00010000001000000000003743200000000000000000000000000                              000000000000000
202012040030201700000000000000085913                8000000000030546689979YPF SA                        000000005297616000000000000000000000000000000000000000000000000000000000000000000000000000000000000128168000000000000000PES00010000001000000000089717700000000000000000000000000                              000000000000000
202012040010201800000000000000141020                8000000000030546689979YPF SA                        000000001852795000000000000000000000000000000000000000000000000000000000000000000000018491000000000044378000000000000000PES00010000001000000000031064800000000000000000000000000                              000000000000000
202012040010201900000000000000371602                8000000000030546689979YPF SA                        000000011580991000000000000000000000000000000000000000000000000000000000000000000000115579000000000277389000000000000000PES00010000001000000000194172300000000000000000000000000                              000000000000000
202012040010201900000000000000371603                8000000000030546689979YPF SA                        000000006988409000000000000000000000000000000000000000000000000000000000000000000000069745000000000167387000000000000000PES00010000001000000000117170900000000000000000000000000                              000000000000000
202012040010000700000000000000178450                8000000000020133177249ROBERTO SANDOVAL              000000001218996000000000000000000000000000000000000000000000000000000000000000000000000000000000000000000000000000000000PES00010000001000000000021156100000000000000000000000000                              000000000000000
202012040010000700000000000000178451                8000000000020133177249ROBERTO SANDOVAL              000000000381584000000000000000000000000000000000000000000000000000000000000000000000000000000000000000000000000000000000PES00010000001000000000006622500000000000000000000000000                              000000000000000
202012040010547900000000000000008387                8000000000030501112662BRITISH AMERICAN TABACCO      000000000360252000000000000000000000000000000000000000000000000000000000000000000000017155000000000000000000000000257422PES00010000001000000000001486900000000000000000000000000                              000000000000000
202012050010000100000000000000001204                8000000000027181590977BOXES NEUMATICOS Y SERVIC     000000000155000000000000000000000000000000000000000000000000000000000000000000000000000000000000000000000000000000000000PES00010000001000000000002690100000000000000000000000000                              000000000000000
202012050010509300000000000001825108                8000000000030518408689SALTA REFRESCOS S.A.          000000000995791000000000000000000000000000000000000000000000000000000000000000000000014029000000000022500000000000051781PES00010000001000000000015749700000000000000000000000000                              000000000000000
202012070010003900000000000000011226                8000000000030702355601NUEVO POLONORTE SRL           000000001423000000000000000000000000000000000000000000000000000000000000000000000000000000000000000000000000000000000000PES00010000001000000000024696700000000000000000000000000                              000000000000000
202012070010006000000000000000000159                8000000000030707964053COMPANIA DE NEGOCIOS S.A.     000000001077070000000000000000000000000000000000000000000000000000000000000000000000000000000000000000000000000000000000PES00010000001000000000010234600000000000000000000000000                              000000000000000
202012070010006000000000000000000160                8000000000030707964053COMPANIA DE NEGOCIOS S.A.     000000001570800000000000000000000000000000000000000000000000000000000000000000000000000000000000000000000000000000000000PES00010000001000000000014926200000000000000000000000000                              000000000000000
202012070010006000000000000000000158                8000000000030707964053COMPANIA DE NEGOCIOS S.A.     000000000160000000000000000000000000000000000000000000000000000000000000000000000000000000000000000000000000000000000000PES00010000002000000000001568700000000000000000000000000                              000000000000000
202012080010000400000000000000003193                8000000000020282237203ANDRETTA SEBASTIAN ALEJAN     000000001941748000000000000000000000000000000000000000000000000000000000000000000000000000000000000000000000000000000000PES00010000001000000000033699800000000000000000000000000                              000000000000000
202012090010088400000000000000030781                8000000000030507950848MOLINO CANUELAS S.A.C.I.F     000000003756865000000000000000000000000000000000000000000000000000000000000000000000124496000000000087880000000000000000PES00010000001000000000061515900000000000000000000000000                              000000000000000
202012090030217200000000000000009723                8000000000030546689979YPF SA                        000000000360973000000000000000000000000000000000000000000000000000000000000000000000007307000000000000000000000000000000PES00010000001000000000006138000000000000000000000000000                              000000000000000
202012090030217200000000000000009722                8000000000030546689979YPF SA                        000000000142478000000000000000000000000000000000000000000000000000000000000000000000000000000000000000000000000000000000PES00010000001000000000002472800000000000000000000000000                              000000000000000
202012090010201900000000000000371956                8000000000030546689979YPF SA                        000000000781001000000000000000000000000000000000000000000000000000000000000000000000007794000000000018707000000000000000PES00010000001000000000013094600000000000000000000000000                              000000000000000
202012090010201900000000000000371958                8000000000030546689979YPF SA                        000000000745944000000000000000000000000000000000000000000000000000000000000000000000007445000000000017867000000000000000PES00010000001000000000012506800000000000000000000000000                              000000000000000
202012090010201900000000000000371957                8000000000030546689979YPF SA                        000000000870260000000000000000000000000000000000000000000000000000000000000000000000008685000000000020845000000000000000PES00010000001000000000014591200000000000000000000000000                              000000000000000
202012090010002100000000000000075517                8000000000030708796065SHARE OUT SRL                 000000002937136000000000000000000000000000000000000000000000000000000000000000000000116555000000000000000000000000000000PES00010000001000000000048952200000000000000000000000000                              000000000000000
202012090010100600000000000000157981                8000000000030547751252POTIGIAN GOLOSINAS SACIF      000000002130790000000000000000000000000000000000000000000000000000000000000000000000000000000000000051551000000000000000PES00010000001000000000036086000000000000000000000000000                              000000000000000
202012090010000700000000000000178758                8000000000020133177249ROBERTO SANDOVAL              000000000587586000000000000000000000000000000000000000000000000000000000000000000000000000000000000000000000000000000000PES00010000001000000000010197800000000000000000000000000                              000000000000000
202012090010000700000000000000178762                8000000000020133177249ROBERTO SANDOVAL              000000000413799000000000000000000000000000000000000000000000000000000000000000000000000000000000000000000000000000000000PES00010000001000000000007181600000000000000000000000000                              000000000000000
202012090010100600000000000000157998                8000000000030547751252POTIGIAN GOLOSINAS SACIF      000000003152851000000000000000000000000000000000000000000000000000000000000000000000000000000000000075286000000000041018PES00010000001000000000052700400000000000000000000000000                              000000000000000
202012090010509300000000000001826527                8000000000030518408689SALTA REFRESCOS S.A.          000000003086199000000000000000000000000000000000000000000000000000000000000000000000043352000000000070690000000000121000PES00010000001000000000049482900000000000000000000000000                              000000000000000
202012100010000100000000000000094533                8000000000030715422243DTS S.R.L.                    000000001514408000000000000000000000000000000000000000000000000000000000000000000000021590000000000000000000000000000000PES00010000001000000000025908400000000000000000000000000                              000000000000000
202012100010000100000000000000094534                8000000000030715422243DTS S.R.L.                    000000000457250000000000000000000000000000000000000000000000000000000000000000000000006519000000000000000000000000000000PES00010000001000000000007822600000000000000000000000000                              000000000000000
202012100010002000000000000000091027                8000000000030709442399PUNTO DE VENTA SRL            000000000653621000000000000000000000000000000000000000000000000000000000000000000000009318000000000000000000000000000000PES00010000001000000000011182100000000000000000000000000                              000000000000000
202012100010008000000000000000142008                8000000000030556381778JOSE V. PAOLETTI SRL          000000005458334000000000000000000000000000000000000000000000000000000000000000000000016900000000000000000000000004050813PES00010000001000000000024134700000000000000000000000000                              000000000000000
202012100010807300000000000000916222                8000000000030707210385LA SERENISIMA S.A.            000000000949660000000000013174000000000000000000000000000000000000000000000000000000000000000000000022656000000000000000PES00010000001000000000015859100000000000000000000000000                              000000000000000
202012100010001400000000000000220302                8000000000030707249850DISTRIBUIDORA FAR PEP SH      000000000425989000000000000000000000000000000000000000000000000000000000000000000000006073000000000000000000000000000000PES00010000001000000000007287800000000000000000000000000                              000000000000000
202012100010001200000000000000232178                8000000000030542851836ABC S.A                       000000000535024000000000000000000000000000000000000000000000000000000000000000000000000000000000000012944000000000000000PES00010000001000000000009060900000000000000000000000000                              000000000000000
202012110010547400000000000000005355                8000000000030501112662BRITISH AMERICAN TABACCO      000000000624430000000000000000000000000000000000000000000000000000000000000000000000029735000000000000000000000000447249PES00010000001000000000002559000000000000000000000000000                              000000000000000
202012110010000700000000000000178985                8000000000020133177249ROBERTO SANDOVAL              000000000609878000000000000000000000000000000000000000000000000000000000000000000000000000000000000000000000000000000000PES00010000001000000000010584700000000000000000000000000                              000000000000000
202012110010000700000000000000178988                8000000000020133177249ROBERTO SANDOVAL              000000000311028000000000000000000000000000000000000000000000000000000000000000000000000000000000000000000000000000000000PES00010000001000000000005398000000000000000000000000000                              000000000000000
202012120030100600000000000000018854                8000000000030547751252POTIGIAN GOLOSINAS SACIF      000000000061454000000000000000000000000000000000000000000000000000000000000000000000000000000000000000000000000000001530PES00010000001000000000001040000000000000000000000000000                              000000000000000
202012120010509300000000000000182989                8000000000030518408689SALTA REFRESCOS S.A.          000000001562402000000000000000000000000000000000000000000000000000000000000000000000022000000000000035396000000000077351PES00010000001000000000024777500000000000000000000000000                              000000000000000
202012140010003900000000000000011334                8000000000030702355601NUEVO POLONORTE SRL           000000001300000000000000000000000000000000000000000000000000000000000000000000000000000000000000000000000000000000000000PES00010000001000000000022562000000000000000000000000000                              000000000000000
202012140010000700000000000000179202                8000000000020133177249ROBERTO SANDOVAL              000000000118278000000000000000000000000000000000000000000000000000000000000000000000000000000000000000000000000000000000PES00010000001000000000002052800000000000000000000000000                              000000000000000
202012140010009700000000000051906827                8000000000030658650242EDET S.A.                     000000021926507000000000641916000000000000000000000000000000000000000000000000000000285647000000000489681000000000000000PES00010000001000000000436024300000000000000000000000000                              000000000000000
202012140010000700000000000000179203                8000000000020133177249ROBERTO SANDOVAL              000000000438466000000000000000000000000000000000000000000000000000000000000000000000000000000000000000000000000000000000PES00010000001000000000007609700000000000000000000000000                              000000000000000
202012140010000400000000000000003223                8000000000020282237203ANDRETTA SEBASTIAN ALEJAN     000000001684644000000000000000000000000000000000000000000000000000000000000000000000000000000000000000000000000000000000PES00010000001000000000029237600000000000000000000000000                              000000000000000
202012140010509300000000000001829793                8000000000030518408689SALTA REFRESCOS S.A.          000000002570377000000000000000000000000000000000000000000000000000000000000000000000036119000000000058776000000000104839PES00010000001000000000041143400000000000000000000000000                              000000000000000
202012140010001300000000000000349552                8000000000030542851836ABC S.A                       000000000418566000000000000000000000000000000000000000000000000000000000000000000000000000000000000010127000000000000000PES00010000001000000000007088600000000000000000000000000                              000000000000000
202012150010000600000000000004931138                8000000000030547751252POTIGIAN GOLOSINAS SACIF      000000000054980000000000000000000000000000000000000000000000000000000000000000000000000000000000000000000000000000000000PES00010000001000000000000954200000000000000000000000000                              000000000000000
202012160010209300000000000001831213                8000000000030518408689SALTA REFRESCOS S.A.          000000001165779000000000000000000000000000000000000000000000000000000000000000000000016374000000000026708000000000045484PES00010000001000000000018695400000000000000000000000000                              000000000000000
202012160010002100000000000000075782                8000000000030708796065SHARE OUT SRL                 000000002964357000000000000000000000000000000000000000000000000000000000000000000000091349000000000000000000000000000000PES00010000001000000000049862100000000000000000000000000                              000000000000000
202012160010000700000000000000178590                8000000000020133177249ROBERTO SANDOVAL              000000001391360000000000000000000000000000000000000000000000000000000000000000000000000000000000000000000000000000000000PES00010000001000000000024147600000000000000000000000000                              000000000000000
202012160010000500000000000000002171                8000000000030716323567SIDETEC SRL                   000000001206648000000000000000000000000000000000000000000000000000000000000000000000000000000000000000000000000000000000PES00010000001000000000020941800000000000000000000000000                              000000000000000
202012160010000500000000000000002172                8000000000030716323567SIDETEC SRL                   000000000108000000000000000000000000000000000000000000000000000000000000000000000000000000000000000000000000000000000000PES00010000001000000000001874400000000000000000000000000                              000000000000000
202012160010088400000000000000030982                8000000000030507950848MOLINO CANUELAS S.A.C.I.F     000000002912601000000000000000000000000000000000000000000000000000000000000000000000096519000000000068131000000000000000PES00010000001000000000047691700000000000000000000000000                              000000000000000
202012160010000300000000000000484407                8000000000033687473189PANINO SA                     000000017504043000000000000000000000000000000000000000000000000000000000000000000000000000000000000000000000000000000000PES00010000001000000000303789200000000000000000000000000                              000000000000000
202012170010100600000000000000161026                8000000000030547751252POTIGIAN GOLOSINAS SACIF      000000003489320000000000000000000000000000000000000000000000000000000000000000000000000000000000000084419000000000000000PES00010000001000000000059093300000000000000000000000000                              000000000000000
202012170010008000000000000000142720                8000000000030556381778JOSE V. PAOLETTI SRL          000000009180394000000000000000000000000000000000000000000000000000000000000000000000028425000000000000000000000006814294PES00010000001000000000040571200000000000000000000000000                              000000000000000
202012170010002000000000000000091318                8000000000030709442399PUNTO DE VENTA SRL (PAOLE     000000000560063000000000000000000000000000000000000000000000000000000000000000000000007984000000000000000000000000000000PES00010000001000000000009581500000000000000000000000000                              000000000000000
202012170010807300000000000000919747                8000000000030707210385LA SERENISIMA S.A.            000000000456483000000000000000000000000000000000000000000000000000000000000000000000006353000000000010890000000000000000PES00010000001000000000007623200000000000000000000000000                              000000000000000
202012170010088400000000000000031042                8000000000030507950848MOLINO CANUELAS S.A.C.I.F     000000000278073000000000000000000000000000000000000000000000000000000000000000000000009215000000000006505000000000000000PES00010000001000000000004553200000000000000000000000000                              000000000000000
202012170010088400000000000000031059                8000000000030507950848MOLINO CANUELAS S.A.C.I.F     000000000630490000000000000000000000000000000000000000000000000000000000000000000000020893000000000014748000000000000000PES00010000001000000000010323800000000000000000000000000                              000000000000000
202012170010001400000000000000221149                8000000000030707249850DISTRIBUIDORA FAR PEP SH      000000000143689000000000000000000000000000000000000000000000000000000000000000000000000000000000000000000000000000000000PES00010000001000000000002493800000000000000000000000000                              000000000000000
202012170010100600000000000000161019                8000000000030547751252POTIGIAN GOLOSINAS SACIF      000000005832444000000000000000000000000000000000000000000000000000000000000000000000000000000000000136733000000000180814PES00010000001000000000095713100000000000000000000000000                              000000000000000
202012170010100600000000000000161020                8000000000030547751252POTIGIAN GOLOSINAS SACIF      000000000291590000000000000000000000000000000000000000000000000000000000000000000000000000000000000006563000000000020332PES00010000001000000000004593900000000000000000000000000                              000000000000000
202012170010100600000000000000161037                8000000000030547751252POTIGIAN GOLOSINAS SACIF      000000002251566000000000000000000000000000000000000000000000000000000000000000000000000000000000000054473000000000000000PES00010000001000000000038131400000000000000000000000000                              000000000000000
202012170010000100000000000000095582                8000000000030715422243DTS S.R.L.                    000000000184567000000000000000000000000000000000000000000000000000000000000000000000000000000000000000000000000000000000PES00010000001000000000003203200000000000000000000000000                              000000000000000
202012170010000600000000000004931454                8000000000030547751252POTIGIAN GOLOSINAS SACIF      000000000000029000000000000000000000000000000000000000000000000000000000000000000000000000000000000000000000000000000000PES00010000001000000000000000500000000000000000000000000                              000000000000000
202012170010000100000000000000095581                8000000000030715422243DTS S.R.L.                    000000001390199000000000000000000000000000000000000000000000000000000000000000000000019820000000000000000000000000000000PES00010000001000000000023783400000000000000000000000000                              000000000000000
202012180010507400000000000000005412                8000000000030501112662BRITISH AMERICAN TABACCO      000000000808019000000000000000000000000000000000000000000000000000000000000000000000038477000000000000000000000000582105PES00010000001000000000003253000000000000000000000000000                              000000000000000
202012180030547400000000000000000380                8000000000030501112662BRITISH AMERICAN TABACCO      000000000450310000000000000000000000000000000000000000000000000000000000000000000000021443000000000000000000000000322458PES00010000001000000000001846800000000000000000000000000                              000000000000000
202012180010000700000000000000179795                8000000000020133177249ROBERTO SANDOVAL              000000001199853000000000000000000000000000000000000000000000000000000000000000000000000000000000000000000000000000000000PES00010000001000000000020823900000000000000000000000000                              000000000000000
202012180010002100000000000000075916                8000000000030708796065SHARE OUT SRL                 000000003177631000000000000000000000000000000000000000000000000000000000000000000000126096000000000000000000000000000000PES00010000001000000000052960500000000000000000000000000                              000000000000000
202012180010001200000000000000051746                8000000000027275180993SARA BENCHIMOL                000000001818332000000000000000000000000000000000000000000000000000000000000000000000025923000000000000000000000000000000PES00010000001000000000031107900000000000000000000000000                              000000000000000
202012190010509300000000000001833661                8000000000030518408689SALTA REFRESCOS S.A.          000000001972550000000000000000000000000000000000000000000000000000000000000000000000027686000000000045346000000000070574PES00010000001000000000031742000000000000000000000000000                              000000000000000
202012200010509300000000000001834269                8000000000030518408689SALTA REFRESCOS S.A.          000000001964890000000000000000000000000000000000000000000000000000000000000000000000027636000000000044752000000000087499PES00010000001000000000031326500000000000000000000000000                              000000000000000
202012210010000700000000000000179964                8000000000020133177249ROBERTO SANDOVAL              000000001324938000000000000000000000000000000000000000000000000000000000000000000000000000000000000000000000000000000000PES00010000001000000000022994800000000000000000000000000                              000000000000000
202012210010000700000000000000179965                8000000000020133177249ROBERTO SANDOVAL              000000001386999000000000000000000000000000000000000000000000000000000000000000000000000000000000000000000000000000000000PES00010000001000000000024071900000000000000000000000000                              000000000000000
202012210010000400000000000000003260                8000000000020282237203ANDRETTA SEBASTIAN ALEJAN     000000001467536000000000000000000000000000000000000000000000000000000000000000000000000000000000000000000000000000000000PES00010000001000000000025469600000000000000000000000000                              000000000000000
202012210010003900000000000000011446                8000000000030702355601NUEVO POLONORTE SRL           000000000999998000000000000000000000000000000000000000000000000000000000000000000000000000000000000000000000000000000000PES00010000001000000000017355300000000000000000000000000                              000000000000000
202012220030255000000000000000135833                8000000000030546689979YPF SA                        000000013068000000000000000000000000000000000000000000000000000000000000000000000000000000000000000000000000000000000000PES00010000001000000000226800000000000000000000000000000                              000000000000000
202012220030217200000000000000012378                8000000000030546689979YPF SA                        000000000309243000000000000000000000000000000000000000000000000000000000000000000000000000000000000000000000000000000000PES00010000001000000000005367000000000000000000000000000                              000000000000000
202012220030217200000000000000012377                8000000000030546689979YPF SA                        000000001814823000000000000000000000000000000000000000000000000000000000000000000000033853000000000000000000000000000000PES00010000001000000000030909500000000000000000000000000                              000000000000000
202012220030217200000000000000012376                8000000000030546689979YPF SA                        000000001642584000000000000000000000000000000000000000000000000000000000000000000000030531000000000000000000000000000000PES00010000001000000000027977700000000000000000000000000                              000000000000000
202012220030217200000000000000012375                8000000000030546689979YPF SA                        000000000548724000000000000000000000000000000000000000000000000000000000000000000000011108000000000000000000000000000000PES00010000001000000000009330500000000000000000000000000                              000000000000000
202012220010002100000000000000076138                8000000000030708796065SHARE OUT SRL                 000000003571345000000000000000000000000000000000000000000000000000000000000000000000141721000000000000000000000000000000PES00010000001000000000059522400000000000000000000000000                              000000000000000
202012220010000100000000000000096278                8000000000030715422243DTS S.R.L.                    000000001739196000000000000000000000000000000000000000000000000000000000000000000000024795000000000000000000000000000000PES00010000001000000000029754100000000000000000000000000                              000000000000000
202012230010000100000000000000001220                8000000000027181590977BOXES NEUMATICOS Y SERVIC     000000000228000000000000000000000000000000000000000000000000000000000000000000000000000000000000000000000000000000000000PES00010000001000000000003957000000000000000000000000000                              000000000000000
202012230010088400000000000000031259                8000000000030507950848MOLINO CANUELAS S.A.C.I.F     000000002492988000000000000000000000000000000000000000000000000000000000000000000000082613000000000058316000000000000000PES00010000001000000000040820900000000000000000000000000                              000000000000000
202012230010000500000000000000002233                8000000000030716323567SIDETEC SRL                   000000001349350000000000000000000000000000000000000000000000000000000000000000000000000000000000000000000000000000000000PES00010000001000000000023418500000000000000000000000000                              000000000000000
202012230010509300000000000001836252                8000000000030518408689SALTA REFRESCOS S.A.          000000001099690000000000000000000000000000000000000000000000000000000000000000000000015469000000000025034000000000049465PES00010000001000000000017524100000000000000000000000000                              000000000000000
202012240010001200000000000000233105                8000000000030542851836ABC S.A                       000000009881517000000000000000000000000000000000000000000000000000000000000000000000000000000000000239069000000000000000PES00010000001000000000167348300000000000000000000000000                              000000000000000
202012240010008000000000000000143532                8000000000030556381778JOSE V. PAOLETTI SRL          000000006860155000000000000000000000000000000000000000000000000000000000000000000000021239000000000000000000000005087983PES00010000001000000000030388100000000000000000000000000                              000000000000000
202012240010002000000000000000091557                8000000000030709442399PUNTO DE VENTA SRL            000000000791917000000000000000000000000000000000000000000000000000000000000000000000011290000000000000000000000000000000PES00010000001000000000013548100000000000000000000000000                              000000000000000
202012240010001400000000000000221801                8000000000030707249850DISTRIBUIDORA FAR PEP SH      000000000490837000000000000000000000000000000000000000000000000000000000000000000000006998000000000000000000000000000000PES00010000001000000000008397200000000000000000000000000                              000000000000000
202012240010000500000000000000001455                8000000000020342268111LA LLAVE FERRETERIA           000000000039000000000000000000000000000000000000000000000000000000000000000000000000000000000000000000000000000000000000PES00010000001000000000000676900000000000000000000000000                              000000000000000
202012260010509300000000000001837945                8000000000030518408689SALTA REFRESCOS S.A.          000000001767604000000000000000000000000000000000000000000000000000000000000000000000024860000000000040264000000000078487PES00010000001000000000028185000000000000000000000000000                              000000000000000
202012260010000700000000000000180414                8000000000020133177249ROBERTO SANDOVAL              000000000150386000000000000000000000000000000000000000000000000000000000000000000000000000000000000000000000000000000000PES00010000001000000000002610000000000000000000000000000                              000000000000000
202012260010000700000000000000180415                8000000000020133177249ROBERTO SANDOVAL              000000000720387000000000000000000000000000000000000000000000000000000000000000000000000000000000000000000000000000000000PES00010000001000000000012502600000000000000000000000000                              000000000000000
202012260010807300000000000000923949                8000000000030707210385LA SERENISIMA S.A.            000000001457228000000000000000000000000000000000000000000000000000000000000000000000020280000000000034765000000000000000PES00010000001000000000024335400000000000000000000000000                              000000000000000
202012260010002900000000000000049227                8000000000030677762345AXIS LOGISTICA SA             000000018552316000000000000000000000000000000000000000000000000000000000000000000000448847000000000000000000000000000000PES00010000001000000000314192400000000000000000000000000                              000000000000000
202012280010100600000000000000165962                8000000000030547751252POTIGIAN GOLOSINAS SACIF      000000006926978000000000000000000000000000000000000000000000000000000000000000000000000000000000000167588000000000000000PES00010000001000000000117311700000000000000000000000000                              000000000000000
202012280010100600000000000000166026                8000000000030547751252POTIGIAN GOLOSINAS SACIF      000000006374581000000000000000000000000000000000000000000000000000000000000000000000000000000000000154224000000000000000PES00010000001000000000107956600000000000000000000000000                              000000000000000
202012280010000400000000000000003287                8000000000020282237203ANDRETTA SEBASTIAN ALEJAN     000000001576090000000000000000000000000000000000000000000000000000000000000000000000000000000000000000000000000000000000PES00010000001000000000027353600000000000000000000000000                              000000000000000
202012280010509300000000000001838909                8000000000030518408689SALTA REFRESCOS S.A.          000000001279175000000000000000000000000000000000000000000000000000000000000000000000018002000000000029048000000000060513PES00010000001000000000020333800000000000000000000000000                              000000000000000
202012280010000600000000000004931572                8000000000030547751252POTIGIAN GOLOSINAS SACIF      000000007219017000000000000000000000000000000000000000000000000000000000000000000000000000000000000170876000000000156132PES00010000001000000000119613400000000000000000000000000                              000000000000000
202012280010000300000000000000485821                8000000000033687473189PANINO SA                     000000006250551000000000000000000000000000000000000000000000000000000000000000000000000000000000000000000000000000000000PES00010000001000000000108480600000000000000000000000000                              000000000000000
202012280010000100000000000000001226                8000000000027181590977BOXES NEUMATICOS Y SERVIC     000000000307000000000000000000000000000000000000000000000000000000000000000000000000000000000000000000000000000000000000PES00010000001000000000005328100000000000000000000000000                              000000000000000
202012280010003900000000000000011533                8000000000030702355601NUEVO POLONORTE SRL           000000001124999000000000000000000000000000000000000000000000000000000000000000000000000000000000000000000000000000000000PES00010000001000000000019524800000000000000000000000000                              000000000000000
202012290010000700000000000000180656                8000000000020133177249ROBERTO SANDOVAL              000000000991222000000000000000000000000000000000000000000000000000000000000000000000000000000000000000000000000000000000PES00010000001000000000017203000000000000000000000000000                              000000000000000
202012290010000700000000000000180655                8000000000020133177249ROBERTO SANDOVAL              000000000138152000000000000000000000000000000000000000000000000000000000000000000000000000000000000000000000000000000000PES00010000001000000000002397700000000000000000000000000                              000000000000000
202012290010000100000000000000097078                8000000000030715422243DTS S.R.L.                    000000000782660000000000000000000000000000000000000000000000000000000000000000000000011158000000000000000000000000000000PES00010000001000000000013389700000000000000000000000000                              000000000000000
202012290010002100000000000000076479                8000000000030708796065SHARE OUT SRL                 000000001201206000000000000000000000000000000000000000000000000000000000000000000000047667000000000000000000000000000000PES00010000001000000000020020100000000000000000000000000                              000000000000000
202012290010000300000000000000000868                8000000000027123184748MOLINA CELIA GRACIELA         000000000948640000000000000000000000000000000000000000000000000000000000000000000000000000000000000000000000000000000000PES00010000001000000000016464000000000000000000000000000                              000000000000000
202012290010000500000000000000002273                8000000000030716323567SIDETEC SRL                   000000000549328000000000000000000000000000000000000000000000000000000000000000000000000000000000000000000000000000000000PES00010000001000000000009533800000000000000000000000000                              000000000000000
202012300010509300000000000001840385                8000000000030518408689SALTA REFRESCOS S.A.          000000000743813000000000000000000000000000000000000000000000000000000000000000000000010453000000000017002000000000030616PES00010000001000000000011901300000000000000000000000000                              000000000000000
202012300010100600000000000000167410                8000000000030547751252POTIGIAN GOLOSINAS SACIF      000000002991616000000000000000000000000000000000000000000000000000000000000000000000000000000000000070783000000000065899PES00010000001000000000049548400000000000000000000000000                              000000000000000
202012300010100600000000000000167353                8000000000030547751252POTIGIAN GOLOSINAS SACIF      000000009561804000000000000000000000000000000000000000000000000000000000000000000000000000000000000231334000000000000000PES00010000001000000000161933800000000000000000000000000                              000000000000000
202012300010000700000000000000180837                8000000000020133177249ROBERTO SANDOVAL              000000000956657000000000000000000000000000000000000000000000000000000000000000000000000000000000000000000000000000000000PES00010000001000000000016603100000000000000000000000000                              000000000000000
202012300010100600000000000000167376                8000000000030547751252POTIGIAN GOLOSINAS SACIF      000000003892146000000000000000000000000000000000000000000000000000000000000000000000000000000000000094165000000000000000PES00010000001000000000065915400000000000000000000000000                              000000000000000
202012300010000100000000000000001229                8000000000027181590977BOXES NEUMATICOS Y SERVIC     000000000364000000000000000000000000000000000000000000000000000000000000000000000000000000000000000000000000000000000000PES00010000001000000000006317400000000000000000000000000                              000000000000000
202012300010001900000000000000006640                8000000000033697231469PACKING ENVASES               000000000316803000000000000000000000000000000000000000000000000000000000000000000000000000000000000000000000000000000000PES00010000001000000000005498200000000000000000000000000                              000000000000000
202012300010001900000000000000006641                8000000000033697231469PACKING ENVASES               000000000047774000000000000000000000000000000000000000000000000000000000000000000000000000000000000000000000000000000000PES00010000001000000000000829100000000000000000000000000                              000000000000000
202012310010010900000000000000000064                8000000000030546689979YPF SA                        000003018324996000000596135921000000000000000000000000000000000000000000000000000000000000000000000000000000000051529983PES00010000001000000041143669900000000000000000000000000                              000000000000000
202012310010000100000000000000097426                8000000000030715422243DTS S.R.L.                    000000001413466000000000000000000000000000000000000000000000000000000000000000000000020151000000000000000000000000000000PES00010000001000000000024181500000000000000000000000000                              000000000000000
202012310010001400000000000000222359                8000000000030707249850DISTRIBUIDORA FAR PEP SH      000000000337804000000000000000000000000000000000000000000000000000000000000000000000000000000000000000000000000000000000PES00010000001000000000005862700000000000000000000000000                              000000000000000
202012310010008000000000000000144366                8000000000030556381778JOSE V. PAOLETTI SRL          000000007590042000000000000000000000000000000000000000000000000000000000000000000000023508000000000000000000000005645495PES00010000001000000000033340300000000000000000000000000                              000000000000000
