202009010030201800000000000000073793                8000000000030546689979YPF SA                        000000005191506000000000000000000000000000000000000000000000000000000000000000000000051811000000000124347000000000000000PES00010000001000000000000000000000000000000000000000000                              000000000000000
202009010030255000000000000000051481                8000000000030546689979YPF SA                        000000001936000000000000000000000000000000000000000000000000000000000000000000000000000000000000000000000000000000000000PES00010000001000000000000000000000000000000000000000000                              000000000000000
202009010010001100000000000000451186                8000000000030542851836ABC S.A                       000000001386910000000000000000000000000000000000000000000000000000000000000000000000000000000000000033554000000000000000PES00010000001000000000000000000000000000000000000000000                              000000000000000
202009010010201900000000000000357636                8000000000030546689979YPF SA                        000000000938863000000000000000000000000000000000000000000000000000000000000000000000009369000000000022488000000000000000PES00010000001000000000000000000000000000000000000000000                              000000000000000
202009010010201900000000000000358176                8000000000030546689979YPF SA                        000000026882026000000000000000000000000000000000000000000000000000000000000000000000268284000000000643881000000000000000PES00010000001000000000000000000000000000000000000000000                              000000000000000
202009010010002100000000000000068271                8000000000030703088534MERCADOLIBRE S.R.L.           000000001736064000000000000000000000000000000000000000000000000000000000000000000000000000000000000032419000000000000000PES00010000001000000000000000000000000000000000000000000                              000000000000000
202009010030217200000000000000000104                8000000000030546689979YPF SA                        000000000192016000000000000000000000000000000000000000000000000000000000000000000000000000000000000000000000000000000000PES00010000001000000000000000000000000000000000000000000                              000000000000000
202009020010201800000000000000131417                8000000000030546689979YPF SA                        000000000003888000000000000000000000000000000000000000000000000000000000000000000000000000000000000000000000000000000000PES00010000001000000000000000000000000000000000000000000                              000000000000000
202009020010000700000000000000167899                8000000000020133177249ROBERTO SANDOVAL              000000000833697000000000000000000000000000000000000000000000000000000000000000000000000000000000000000000000000000000000PES00010000001000000000000000000000000000000000000000000                              000000000000000
202009020010000700000000000000167889                8000000000020133177249ROBERTO SANDOVAL              000000000611215000000000000000000000000000000000000000000000000000000000000000000000000000000000000000000000000000000000PES00010000001000000000000000000000000000000000000000000                              000000000000000
202009020010100600000000000000127284                8000000000030547751252POTIGIAN GOLOSINAS SACIF      000000002244040000000000000000000000000000000000000000000000000000000000000000000000000000000000000052219000000000085671PES00010000001000000000000000000000000000000000000000000                              000000000000000
202009020010100600000000000000012334                8000000000030547751252POTIGIAN GOLOSINAS SACIF      000000000220288000000000000000000000000000000000000000000000000000000000000000000000000000000000000000000000000000000000PES00010000001000000000000000000000000000000000000000000                              000000000000000
202009020010100600000000000000127329                8000000000030547751252POTIGIAN GOLOSINAS SACIF      000000000588592000000000000000000000000000000000000000000000000000000000000000000000000000000000000014240000000000000000PES00010000001000000000000000000000000000000000000000000                              000000000000000
202009020030201800000000000000084963                8000000000030546689979YPF SA                        000000004968514000000000000000000000000000000000000000000000000000000000000000000000049586000000000119006000000000000000PES00010000001000000000000000000000000000000000000000000                              000000000000000
202009020030201800000000000000084533                8000000000030546689979YPF SA                        000000001083810000000000000000000000000000000000000000000000000000000000000000000000010816000000000025960000000000000000PES00010000001000000000000000000000000000000000000000000                              000000000000000
202009020010088400000000000000028137                8000000000030507950848MOLINO CANUELAS S.A.C.I.F     000000001772257000000000000000000000000000000000000000000000000000000000000000000000058730000000000041456000000000000000PES00010000001000000000000000000000000000000000000000000                              000000000000000
202009030010002100000000000000072919                8000000000030708796065SHARE OUT SRL                 000000002456823000000000000000000000000000000000000000000000000000000000000000000000090991000000000000000000000000000000PES00010000001000000000000000000000000000000000000000000                              000000000000000
202009030010000100000000000000081308                8000000000030715422243DTS S.R.L.                    000000000184392000000000000000000000000000000000000000000000000000000000000000000000000000000000000000000000000000000000PES00010000001000000000000000000000000000000000000000000                              000000000000000
202009030010001400000000000000209574                8000000000030707249850DISTRIBUIDORA FAR PEP SH      000000000187260000000000000000000000000000000000000000000000000000000000000000000000000000000000000000000000000000000000PES00010000001000000000000000000000000000000000000000000                              000000000000000
202009030010000100000000000000001053                8000000000027181590977BOXES NEUMATICOS Y SERVIC     000000000133000000000000000000000000000000000000000000000000000000000000000000000000000000000000000000000000000000000000PES00010000001000000000000000000000000000000000000000000                              000000000000000
202009030010000500000000000000001078                8000000000030716323567SIDETEC SRL                   000000000315330000000000000000000000000000000000000000000000000000000000000000000000000000000000000000000000000000000000PES00010000001000000000000000000000000000000000000000000                              000000000000000
202009030010807300000000000000869220                8000000000030707210385LA SERENISIMA S.A.            000000000240022000000000000000000000000000000000000000000000000000000000000000000000003422000000000000000000000000000000PES00010000001000000000000000000000000000000000000000000                              000000000000000
202009030010008000000000000000131928                8000000000030556381778JOSE V. PAOLETTI SRL          000000003428997000000000000000000000000000000000000000000000000000000000000000000000010631000000000000000000000002569431PES00010000001000000000000000000000000000000000000000000                              000000000000000
202009030010009800000000000000089608                8000000000030657865725GASNOR S.A.                   000000042269286000000000058641000000000000000000000000000000000000000000000000000000570449000000000977912000000001219818PES00010000001000000000000000000000000000000000000000000                              000000000000000
202009030010000500000000000000017919                8000000000020231179934CASTRO                        000000000226505000000000000000000000000000000000000000000000000000000000000000000000000000000000000000000000000000000000PES00010000001000000000000000000000000000000000000000000                              000000000000000
202009040010001200000000000000045705                8000000000027275180993SARA BENCHIMOL                000000000223322000000000000000000000000000000000000000000000000000000000000000000000000000000000000000000000000000000000PES00010000001000000000000000000000000000000000000000000                              000000000000000
202009040010547400000000000000000479                8000000000030501112662BRITISH AMERICAN TABACCO      000000000804322000000000000000000000000000000000000000000000000000000000000000000000038301000000000000000000000000601885PES00010000001000000000000000000000000000000000000000000                              000000000000000
202009040010000800000000000000000254                8000000000020123456786LUBRE SRL                     000000000032000000000000000000000000000000000000000000000000000000000000000000000000001385000000000000000000000000000000PES00010000001000000000000000000000000000000000000000000                              000000000000000
202009040010100600000000000000012867                8000000000030547751252POTIGIAN GOLOSINAS SACIF      000000000016406000000000000000000000000000000000000000000000000000000000000000000000000000000000000000000000000000000000PES00010000001000000000000000000000000000000000000000000                              000000000000000
202009040010509300000000000001771615                8000000000030518408689SALTA REFRESCOS S.A.          000000000631943000000000000000000000000000000000000000000000000000000000000000000000008916000000000014188000000000036584PES00010000001000000000000000000000000000000000000000000                              000000000000000
202009040010000700000000000000168163                8000000000020133177249ROBERTO SANDOVAL              000000000141685000000000000000000000000000000000000000000000000000000000000000000000000000000000000000000000000000000000PES00010000001000000000000000000000000000000000000000000                              000000000000000
202009040010000700000000000000168164                8000000000020133177249ROBERTO SANDOVAL              000000000228623000000000000000000000000000000000000000000000000000000000000000000000000000000000000000000000000000000000PES00010000001000000000000000000000000000000000000000000                              000000000000000
202009070010009700000000000051060540                8000000000030658650242EDET S.A.                     000000020910416000000000044779000000000000000000000000000000000000000000000000000000272785000000000467632000000000539390PES00010000001000000000000000000000000000000000000000000                              000000000000000
202009070010003900000000000000010042                8000000000030702355601NUEVO POLONORTE SRL           000000000540961000000000000000000000000000000000000000000000000000000000000000000000000000000000000000000000000000000000PES00010000001000000000000000000000000000000000000000000                              000000000000000
202009070010000700000000000000168369                8000000000020133177249ROBERTO SANDOVAL              000000000236130000000000000000000000000000000000000000000000000000000000000000000000000000000000000000000000000000000000PES00010000001000000000000000000000000000000000000000000                              000000000000000
202009070010000700000000000000168368                8000000000020133177249ROBERTO SANDOVAL              000000000308032000000000000000000000000000000000000000000000000000000000000000000000000000000000000000000000000000000000PES00010000001000000000000000000000000000000000000000000                              000000000000000
202009070030201900000000000000028565                8000000000030546689979YPF SA                        000000000169892000000000000000000000000000000000000000000000000000000000000000000000000000000000000000000000000000000000PES00010000001000000000000000000000000000000000000000000                              000000000000000
202009080010000400000000000000002790                8000000000020282237203ANDRETTA SEBASTIAN ALEJAN     000000001014662000000000000000000000000000000000000000000000000000000000000000000000000000000000000000000000000000000000PES00010000001000000000000000000000000000000000000000000                              000000000000000
202009080030217200000000000000000146                8000000000030546689979YPF SA                        000000000064005000000000000000000000000000000000000000000000000000000000000000000000000000000000000000000000000000000000PES00010000001000000000000000000000000000000000000000000                              000000000000000
202009090010000300000000000000473352                8000000000033687473189PANINO SA                     000000005618639000000000000000000000000000000000000000000000000000000000000000000000000000000000000000000000000000000000PES00010000001000000000000000000000000000000000000000000                              000000000000000
202009090010100600000000000000130087                8000000000030547751252POTIGIAN GOLOSINAS SACIF      000000001074502000000000000000000000000000000000000000000000000000000000000000000000000000000000000025996000000000000000PES00010000001000000000000000000000000000000000000000000                              000000000000000
202009090010100600000000000000130116                8000000000030547751252POTIGIAN GOLOSINAS SACIF      000000002851593000000000000000000000000000000000000000000000000000000000000000000000000000000000000068269000000000029803PES00010000001000000000000000000000000000000000000000000                              000000000000000
202009090030000700000000000000003461                8000000000020133177249ROBERTO SANDOVAL              000000000027108000000000000000000000000000000000000000000000000000000000000000000000000000000000000000000000000000000000PES00010000001000000000000000000000000000000000000000000                              000000000000000
202009090010088400000000000000028311                8000000000030507950848MOLINO CANUELAS S.A.C.I.F     000000000141009000000000000000000000000000000000000000000000000000000000000000000000004785000000000000000000000000000000PES00010000001000000000000000000000000000000000000000000                              000000000000000
202009090010088400000000000000028303                8000000000030507950848MOLINO CANUELAS S.A.C.I.F     000000000158720000000000000000000000000000000000000000000000000000000000000000000000005386000000000000000000000000000000PES00010000001000000000000000000000000000000000000000000                              000000000000000
202009090010088400000000000000028316                8000000000030507950848MOLINO CANUELAS S.A.C.I.F     000000000214257000000000000000000000000000000000000000000000000000000000000000000000007271000000000000000000000000000000PES00010000001000000000000000000000000000000000000000000                              000000000000000
202009090010509300000000000001774089                8000000000030518408689SALTA REFRESCOS S.A.          000000000463964000000000000000000000000000000000000000000000000000000000000000000000006539000000000010470000000000024682PES00010000001000000000000000000000000000000000000000000                              000000000000000
202009090010088400000000000000028288                8000000000030507950848MOLINO CANUELAS S.A.C.I.F     000000001293171000000000000000000000000000000000000000000000000000000000000000000000042854000000000030250000000000000000PES00010000001000000000000000000000000000000000000000000                              000000000000000
202009090010000500000000000000001085                8000000000030716323567SIDETEC SRL                   000000000776832000000000000000000000000000000000000000000000000000000000000000000000000000000000000000000000000000000000PES00010000001000000000000000000000000000000000000000000                              000000000000000
202009100010000700000000000000168842                8000000000020133177249ROBERTO SANDOVAL              000000000520255000000000000000000000000000000000000000000000000000000000000000000000000000000000000000000000000000000000PES00010000001000000000000000000000000000000000000000000                              000000000000000
202009100010000500000000000000001095                8000000000030716323567SIDETEC SRL                   000000000074610000000000000000000000000000000000000000000000000000000000000000000000000000000000000000000000000000000000PES00010000001000000000000000000000000000000000000000000                              000000000000000
202009100010001400000000000000210360                8000000000030707249850DISTRIBUIDORA FAR PEP SH      000000000199873000000000000000000000000000000000000000000000000000000000000000000000000000000000000000000000000000000000PES00010000001000000000000000000000000000000000000000000                              000000000000000
202009100010000100000000000000082188                8000000000030518408689SALTA REFRESCOS S.A.          000000000105923000000000000000000000000000000000000000000000000000000000000000000000000000000000000000000000000000000000PES00010000001000000000000000000000000000000000000000000                              000000000000000
202009100010000100000000000000082188                8000000000030715422243DTS S.R.L.                    000000000105923000000000000000000000000000000000000000000000000000000000000000000000000000000000000000000000000000000000PES00010000001000000000000000000000000000000000000000000                              000000000000000
202009100010002100000000000000073006                8000000000030708796065SHARE OUT SRL                 000000005331775000000000000000000000000000000000000000000000000000000000000000000000211579000000000000000000000000000000PES00010000001000000000000000000000000000000000000000000                              000000000000000
202009100010008000000000000000132607                8000000000030556381778JOSE V. PAOLETTI SRL          000000003639751000000000000000000000000000000000000000000000000000000000000000000000011283000000000000000000000002725708PES00010000001000000000000000000000000000000000000000000                              000000000000000
202009110020202300000000000000312608                8000000000030546689979YPF SA                        000000002936038000000000000000000000000000000000000000000000000000000000000000000000059434000000000000000000000000000000PES00010000001000000000000000000000000000000000000000000                              000000000000000
202009110010000700000000000000168903                8000000000020133177249ROBERTO SANDOVAL              000000000344068000000000000000000000000000000000000000000000000000000000000000000000000000000000000000000000000000000000PES00010000001000000000000000000000000000000000000000000                              000000000000000
202009110010000700000000000000168893                8000000000020133177249ROBERTO SANDOVAL              000000000057920000000000000000000000000000000000000000000000000000000000000000000000000000000000000000000000000000000000PES00010000001000000000000000000000000000000000000000000                              000000000000000
202009110010509300000000000001775409                8000000000030518408689SALTA REFRESCOS S.A.          000000001385981000000000000000000000000000000000000000000000000000000000000000000000019462000000000031795000000000052309PES00010000001000000000000000000000000000000000000000000                              000000000000000
202009110010547400000000000000004541                8000000000030501112662BRITISH AMERICAN TABACCO      000000000713448000000000000000000000000000000000000000000000000000000000000000000000033974000000000000000000000000515511PES00010000001000000000000000000000000000000000000000000                              000000000000000
202009140010509300000000000001776794                8000000000030518408689SALTA REFRESCOS S.A.          000000001509650000000000000000000000000000000000000000000000000000000000000000000000021259000000000034190000000000075217PES00010000001000000000000000000000000000000000000000000                              000000000000000
202009140010000700000000000000169054                8000000000020133177249ROBERTO SANDOVAL              000000000638956000000000000000000000000000000000000000000000000000000000000000000000000000000000000000000000000000000000PES00010000001000000000000000000000000000000000000000000                              000000000000000
202009140010000700000000000000169055                8000000000020133177249ROBERTO SANDOVAL              000000000505669000000000000000000000000000000000000000000000000000000000000000000000000000000000000000000000000000000000PES00010000001000000000000000000000000000000000000000000                              000000000000000
202009140010003900000000000000010106                8000000000030702355601NUEVO POLONORTE SRL           000000000710010000000000000000000000000000000000000000000000000000000000000000000000000000000000000000000000000000000000PES00010000001000000000000000000000000000000000000000000                              000000000000000
202009140010001200000000000000227526                8000000000030542851836ABC S.A                       000000002254011000000000000000000000000000000000000000000000000000000000000000000000000000000000000054533000000000000000PES00010000001000000000000000000000000000000000000000000                              000000000000000
202009140010001200000000000000227524                8000000000030542851836ABC S.A                       000000007525880000000000000000000000000000000000000000000000000000000000000000000000000000000000000182078000000000000000PES00010000001000000000000000000000000000000000000000000                              000000000000000
202009140010001300000000000000340439                8000000000030542851836ABC S.A                       000000000940705000000000000000000000000000000000000000000000000000000000000000000000000000000000000022759000000000000000PES00010000001000000000000000000000000000000000000000000                              000000000000000
202009140030000700000000000000003469                8000000000020133177249ROBERTO SANDOVAL              000000000054932000000000000000000000000000000000000000000000000000000000000000000000000000000000000000000000000000000000PES00010000001000000000000000000000000000000000000000000                              000000000000000
202009140010000400000000000000002806                8000000000020282237203ANDRETTA SEBASTIAN ALEJAN     000000001964629000000000000000000000000000000000000000000000000000000000000000000000000000000000000000000000000000000000PES00010000001000000000000000000000000000000000000000000                              000000000000000
202009150010807300000000000000874857                8000000000030707210385LA SERENISIMA S.A.            000000000492790000000000000000000000000000000000000000000000000000000000000000000000006858000000000011756000000000000000PES00010000001000000000000000000000000000000000000000000                              000000000000000
202009150010201900000000000000359988                8000000000030546689979YPF SA                        000000004969012000000000000000000000000000000000000000000000000000000000000000000000049591000000000119018000000000000000PES00010000001000000000000000000000000000000000000000000                              000000000000000
202009150030217200000000000000000271                8000000000030546689979YPF SA                        000000000192016000000000000000000000000000000000000000000000000000000000000000000000000000000000000000000000000000000000PES00010000001000000000000000000000000000000000000000000                              000000000000000
202009150010201800000000000000132687                8000000000030546689979YPF SA                        000000012674662000000000000000000000000000000000000000000000000000000000000000000000126494000000000303585000000000000000PES00010000001000000000000000000000000000000000000000000                              000000000000000
202009150010000500000000000000000101                8000000000020262539270MARCOS L. SALOMON             000000000040000000000000000000000000000000000000000000000000000000000000000000000000000000000000000000000000000000000000PES00010000001000000000000000000000000000000000000000000                              000000000000000
202009150010100600000000000000132630                8000000000030547751252POTIGIAN GOLOSINAS SACIF      000000000055010000000000000000000000000000000000000000000000000000000000000000000000000000000000000000000000000000000000PES00010000001000000000000000000000000000000000000000000                              000000000000000
202009160030042900000000000000000806                8000000000030507950848MOLINO CANUELAS S.A.C.I.F     000000000153334000000000000000000000000000000000000000000000000000000000000000000000000000000000000000000000000000000000PES00010000001000000000000000000000000000000000000000000                              000000000000000
202009160010509300000000000001777993                8000000000030518408689SALTA REFRESCOS S.A.          000000000612988000000000000000000000000000000000000000000000000000000000000000000000008657000000000013702000000000037981PES00010000001000000000000000000000000000000000000000000                              000000000000000
202009160010000500000000000000000102                8000000000020262539270MARCOS L. SALOMON             000000000249999000000000000000000000000000000000000000000000000000000000000000000000000000000000000000000000000000000000PES00010000001000000000000000000000000000000000000000000                              000000000000000
202009160010088400000000000000028466                8000000000030507950848MOLINO CANUELAS S.A.C.I.F     000000000869670000000000000000000000000000000000000000000000000000000000000000000000028820000000000020343000000000000000PES00010000001000000000000000000000000000000000000000000                              000000000000000
202009160010100600000000000000132971                8000000000030547751252POTIGIAN GOLOSINAS SACIF      000000003466411000000000000000000000000000000000000000000000000000000000000000000000000000000000000081242000000000108408PES00010000001000000000000000000000000000000000000000000                              000000000000000
202009160010100600000000000000132946                8000000000030547751252POTIGIAN GOLOSINAS SACIF      000000001091202000000000000000000000000000000000000000000000000000000000000000000000000000000000000026400000000000000000PES00010000001000000000000000000000000000000000000000000                              000000000000000
202009160010100600000000000000133024                8000000000030547751252POTIGIAN GOLOSINAS SACIF      000000004169540000000000000000000000000000000000000000000000000000000000000000000000000000000000000100876000000000000000PES00010000001000000000000000000000000000000000000000000                              000000000000000
202009170010002900000000000000045316                8000000000030677762345AXIS LOGISTICA SA             000000006796961000000000000000000000000000000000000000000000000000000000000000000000000000000000000164443000000000000000PES00010000001000000000000000000000000000000000000000000                              000000000000000
202009170010002100000000000000073165                8000000000030708796065SHARE OUT SRL                 000000002407306000000000000000000000000000000000000000000000000000000000000000000000095528000000000000000000000000000000PES00010000001000000000000000000000000000000000000000000                              000000000000000
202009170010001400000000000000211234                8000000000030707249850DISTRIBUIDORA FAR PEP SH      000000000187260000000000000000000000000000000000000000000000000000000000000000000000000000000000000000000000000000000000PES00010000001000000000000000000000000000000000000000000                              000000000000000
202009170010807300000000000000876210                8000000000030707210385LA SERENISIMA S.A.            000000000203059000000000000000000000000000000000000000000000000000000000000000000000002895000000000000000000000000000000PES00010000001000000000000000000000000000000000000000000                              000000000000000
202009170010000700000000000000169600                8000000000020133177249ROBERTO SANDOVAL              000000000602328000000000000000000000000000000000000000000000000000000000000000000000000000000000000000000000000000000000PES00010000001000000000000000000000000000000000000000000                              000000000000000
202009170010000100000000000000083275                8000000000030715422243DTS S.R.L.                    000000000480812000000000000000000000000000000000000000000000000000000000000000000000006855000000000000000000000000000000PES00010000001000000000000000000000000000000000000000000                              000000000000000
202009170010008000000000000000133307                8000000000030556381778JOSE V. PAOLETTI SRL          000000004265223000000000000000000000000000000000000000000000000000000000000000000000013222000000000000000000000003194082PES00010000001000000000000000000000000000000000000000000                              000000000000000
202009170010000800000000000000133307                8000000000030556381778JOSE V. PAOLETTI SRL          000000004265223000000000000000000000000000000000000000000000000000000000000000000000013222000000000000000000000003194082PES00010000001000000000000000000000000000000000000000000                              000000000000000
202009180010000500000000000000001108                8000000000030716323567SIDETEC SRL                   000000000793539000000000000000000000000000000000000000000000000000000000000000000000000000000000000000000000000000000000PES00010000001000000000000000000000000000000000000000000                              000000000000000
202009180010509300000000000001779305                8000000000030518408689SALTA REFRESCOS S.A.          000000001419247000000000000000000000000000000000000000000000000000000000000000000000019964000000000032303000000000064085PES00010000001000000000000000000000000000000000000000000                              000000000000000
202009180010000700000000000000169700                8000000000020133177249ROBERTO SANDOVAL              000000000571858000000000000000000000000000000000000000000000000000000000000000000000000000000000000000000000000000000000PES00010000001000000000000000000000000000000000000000000                              000000000000000
202009180010000700000000000000169694                8000000000020133177249ROBERTO SANDOVAL              000000000400267000000000000000000000000000000000000000000000000000000000000000000000000000000000000000000000000000000000PES00010000001000000000000000000000000000000000000000000                              000000000000000
202009180010547400000000000000004606                8000000000030501112662BRITISH AMERICAN TABACCO      000000000906593000000000000000000000000000000000000000000000000000000000000000000000043171000000000000000000000000652455PES00010000001000000000000000000000000000000000000000000                              000000000000000
202009190010001200000000000000046612                8000000000027275180993SARA BENCHIMOL                000000000905263000000000000000000000000000000000000000000000000000000000000000000000000000000000000000000000000000000000PES00010000001000000000000000000000000000000000000000000                              000000000000000
202009210010000400000000000000002833                8000000000020282237203ANDRETTA SEBASTIAN ALEJAN     000000001346390000000000000000000000000000000000000000000000000000000000000000000000000000000000000000000000000000000000PES00010000001000000000000000000000000000000000000000000                              000000000000000
202009210010509300000000000000178776                8000000000030518408689SALTA REFRESCOS S.A.          000000000946670000000000000000000000000000000000000000000000000000000000000000000000013316000000000021551000000000042563PES00010000001000000000000000000000000000000000000000000                              000000000000000
202009210010000700000000000000000028                8000000000030716269880COMOTTI:PASTAS.PIZZAS Y P     000000000254989000000000000000000000000000000000000000000000000000000000000000000000000000000000000000000000000000000000PES00010000001000000000000000000000000000000000000000000                              000000000000000
202009210010003900000000000000010192                8000000000030702355601NUEVO POLONORTE SRL           000000000473341000000000000000000000000000000000000000000000000000000000000000000000000000000000000000000000000000000000PES00010000001000000000000000000000000000000000000000000                              000000000000000
202009220010000700000000000000170023                8000000000020133177249ROBERTO SANDOVAL              000000000645612000000000000000000000000000000000000000000000000000000000000000000000000000000000000000000000000000000000PES00010000001000000000000000000000000000000000000000000                              000000000000000
202009220010000700000000000000170024                8000000000020133177249ROBERTO SANDOVAL              000000000609054000000000000000000000000000000000000000000000000000000000000000000000000000000000000000000000000000000000PES00010000001000000000000000000000000000000000000000000                              000000000000000
202009220030217200000000000000000621                8000000000030546689979YPF SA                        000000000362096000000000000000000000000000000000000000000000000000000000000000000000000000000000000000000000000000000000PES00010000001000000000000000000000000000000000000000000                              000000000000000
202009230010088400000000000000028678                8000000000030507950848MOLINO CANUELAS S.A.C.I.F     000000001463280000000000000000000000000000000000000000000000000000000000000000000000048491000000000034229000000000000000PES00010000001000000000000000000000000000000000000000000                              000000000000000
202009230010509300000000000001781991                8000000000030518408689SALTA REFRESCOS S.A.          000000001822359000000000000000000000000000000000000000000000000000000000000000000000025724000000000040824000000000109245PES00010000001000000000000000000000000000000000000000000                              000000000000000
202009230010000600000000000004922858                8000000000030547751252POTIGIAN GOLOSINAS SACIF      000000000268618000000000000000000000000000000000000000000000000000000000000000000000000000000000000006009000000000020236PES00010000001000000000000000000000000000000000000000000                              000000000000000
202009230010000600000000000004922857                8000000000030547751252POTIGIAN GOLOSINAS SACIF      000000001098302000000000000000000000000000000000000000000000000000000000000000000000000000000000000025984000000000024291PES00010000001000000000000000000000000000000000000000000                              000000000000000
202009230010000300000000000000474600                8000000000033687473189PANINO SA                     000000006109133000000000000000000000000000000000000000000000000000000000000000000000000000000000000000000000000000000000PES00010000001000000000000000000000000000000000000000000                              000000000000000
202009240010001400000000000000212146                8000000000030707249850DISTRIBUIDORA FAR PEP SH      000000000261805000000000000000000000000000000000000000000000000000000000000000000000000000000000000000000000000000000000PES00010000001000000000000000000000000000000000000000000                              000000000000000
202009240010000500000000000000001220                8000000000030716323567SIDETEC SRL                   000000000074610000000000000000000000000000000000000000000000000000000000000000000000000000000000000000000000000000000000PES00010000001000000000000000000000000000000000000000000                              000000000000000
202009240010008000000000000000134085                8000000000030556381778JOSE V. PAOLETTI SRL          000000002063008000000000000000000000000000000000000000000000000000000000000000000000006393000000000000000000000001541144PES00010000001000000000000000000000000000000000000000000                              000000000000000
202009240010000100000000000000084145                8000000000030715422243DTS S.R.L.                    000000000386667000000000000000000000000000000000000000000000000000000000000000000000005513000000000000000000000000000000PES00010000001000000000000000000000000000000000000000000                              000000000000000
202009240010000100000000000000084144                8000000000030715422243DTS S.R.L.                    000000000037984000000000000000000000000000000000000000000000000000000000000000000000000000000000000000000000000000000000PES00010000001000000000000000000000000000000000000000000                              000000000000000
202009240010100600000000000000135375                8000000000030547751252POTIGIAN GOLOSINAS SACIF      000000000685983000000000000000000000000000000000000000000000000000000000000000000000000000000000000016596000000000000000PES00010000001000000000000000000000000000000000000000000                              000000000000000
202009240010807300000000000000879854                8000000000030707210385LA SERENISIMA S.A.            000000000229003000000000000000000000000000000000000000000000000000000000000000000000003265000000000000000000000000000000PES00010000001000000000000000000000000000000000000000000                              000000000000000
202009240010100600000000000000135369                8000000000030547751252POTIGIAN GOLOSINAS SACIF      000000002041673000000000000000000000000000000000000000000000000000000000000000000000000000000000000049395000000000000000PES00010000001000000000000000000000000000000000000000000                              000000000000000
202009240010100600000000000000135371                8000000000030547751252POTIGIAN GOLOSINAS SACIF      000000002874627000000000000000000000000000000000000000000000000000000000000000000000000000000000000069547000000000000000PES00010000001000000000000000000000000000000000000000000                              000000000000000
202009240010000700000000000000170481                8000000000020133177249ROBERTO SANDOVAL              000000000295604000000000000000000000000000000000000000000000000000000000000000000000000000000000000000000000000000000000PES00010000001000000000000000000000000000000000000000000                              000000000000000
202009240010002100000000000000073308                8000000000030708796065SHARE OUT SRL                 000000001743485000000000000000000000000000000000000000000000000000000000000000000000069187000000000000000000000000000000PES00010000001000000000000000000000000000000000000000000                              000000000000000
202009240010100600000000000000135383                8000000000030547751252POTIGIAN GOLOSINAS SACIF      000000002749104000000000000000000000000000000000000000000000000000000000000000000000000000000000000066511000000000000000PES00010000001000000000000000000000000000000000000000000                              000000000000000
202009250010000700000000000000170565                8000000000020133177249ROBERTO SANDOVAL              000000000534793000000000000000000000000000000000000000000000000000000000000000000000000000000000000000000000000000000000PES00010000001000000000000000000000000000000000000000000                              000000000000000
202009250030547400000000000000000323                8000000000030501112662BRITISH AMERICAN TABACCO      000000000700478000000000000000000000000000000000000000000000000000000000000000000000033356000000000000000000000000502057PES00010000001000000000000000000000000000000000000000000                              000000000000000
202009250010547400000000000000004657                8000000000030501112662BRITISH AMERICAN TABACCO      000000000824919000000000000000000000000000000000000000000000000000000000000000000000039282000000000000000000000000601949PES00010000001000000000000000000000000000000000000000000                              000000000000000
202009250010214200000000000000165853                8000000000030546689979YPF SA                        000000005954511000000000000000000000000000000000000000000000000000000000000000000000000000000000000144060000000000000000PES00010000001000000000000000000000000000000000000000000                              000000000000000
202009250010000300000000000000000765                8000000000027123184748MOLINA CELIA GRACIELA         000000000830060000000000000000000000000000000000000000000000000000000000000000000000000000000000000000000000000000000000PES00010000001000000000000000000000000000000000000000000                              000000000000000
202009260010509300000000000001783691                8000000000030518408689SALTA REFRESCOS S.A.          000000001696256000000000000000000000000000000000000000000000000000000000000000000000023828000000000038851000000000066575PES00010000001000000000000000000000000000000000000000000                              000000000000000
202009260010000500000000000000001302                8000000000020342268111LA LLAVE FERRETERIA           000000000260000000000000000000000000000000000000000000000000000000000000000000000000000000000000000000000000000000000000PES00010000001000000000000000000000000000000000000000000                              000000000000000
202009280010000700000000000000170818                8000000000020133177249ROBERTO SANDOVAL              000000000696382000000000000000000000000000000000000000000000000000000000000000000000000000000000000000000000000000000000PES00010000001000000000000000000000000000000000000000000                              000000000000000
202009280010000700000000000000170819                8000000000020133177249ROBERTO SANDOVAL              000000000638183000000000000000000000000000000000000000000000000000000000000000000000000000000000000000000000000000000000PES00010000001000000000000000000000000000000000000000000                              000000000000000
202009280010000400000000000000002871                8000000000020282237203ANDRETTA SEBASTIAN ALEJAN     000000001097594000000000000000000000000000000000000000000000000000000000000000000000000000000000000000000000000000000000PES00010000001000000000000000000000000000000000000000000                              000000000000000
202009280010003900000000000000010285                8000000000030702355601NUEVO POLONORTE SRL           000000000659046000000000000000000000000000000000000000000000000000000000000000000000000000000000000000000000000000000000PES00010000001000000000000000000000000000000000000000000                              000000000000000
202009290030217200000000000000000686                8000000000030546689979YPF SA                        000000000192016000000000000000000000000000000000000000000000000000000000000000000000000000000000000000000000000000000000PES00010000001000000000000000000000000000000000000000000                              000000000000000
202009300010010900000000000000000061                8000000000030546689979YPF SA                        000002014437976000000390542045000000000000000000000000000000000000000000000000000000000000000000000000000000000034519145PES00010000001000000000000000000000000000000000000000000                              000000000000000
202009300010000600000000000004925354                8000000000030547751252POTIGIAN GOLOSINAS SACIF      000000006529791000000000000000000000000000000000000000000000000000000000000000000000000000000000000157435000000000022470PES00010000001000000000000000000000000000000000000000000                              000000000000000
202009300010088400000000000000028910                8000000000030507950848MOLINO CANUELAS S.A.C.I.F     000000001381971000000000000000000000000000000000000000000000000000000000000000000000045796000000000032327000000000000000PES00010000001000000000000000000000000000000000000000000                              000000000000000
202009300010509300000000000001785543                8000000000030518408689SALTA REFRESCOS S.A.          000000002362319000000000000000000000000000000000000000000000000000000000000000000000033168000000000054225000000000087847PES00010000001000000000000000000000000000000000000000000                              000000000000000
