202005010060010200000000000000027297000000000000000272978000000000000000000000CONSUMIDOR FINAL              000000000200012000000000000000000000000000000000000000000000000000000000000000000000000000000000000000000000000000044526PES00010000001000000000000000000000000
202005010010010400000000000000007491000000000000000074918000000000020310209601ALVAREZ ERICK SEBAST          000000001999999000000000000000000000000000000000000000000000000000000000000000000000000000000000000000000000000000303958PES00010000001000000000000000000000000
202005010060010400000000000000001920000000000000000019208000000000000000000000CONSUMIDOR FINAL              000000000010001000000000000000000000000000000000000000000000000000000000000000000000000000000000000000000000000000002226PES00010000001000000000000000000000000
202005010010010400000000000000007492000000000000000074928000000000020240299233PINO GUSTAVO ARIEL            000000001979998000000000000000000000000000000000000000000000000000000000000000000000000000000000000000000000000000300918PES00010000001000000000000000000000000
202005010010010400000000000000007493000000000000000074938000000000030708046724INTEGRAL PACK EXPRES          000000001400000000000000000000000000000000000000000000000000000000000000000000000000000000000000000000000000000000212770PES00010000001000000000000000000000000
202005010060010500000000000000049507000000000000000495078000000000000000000000CONSUMIDOR FINAL              000000000024600000000000000000000000000000000000000000000000000000000000000000000000000000000000000000000000000000000000PES00010000001000000000000000000000000
202005010060010500000000000000049508000000000000000495088000000000000000000000CONSUMIDOR FINAL              000000000035700000000000001500000000000000000000000000000000000000000000000000000000000000000000000000000000000000024327PES00010000001000000000000000000000000
202005010060010500000000000000049509000000000000000495098000000000000000000000CONSUMIDOR FINAL              000000000007800000000000000000000000000000000000000000000000000000000000000000000000000000000000000000000000000000004865PES00010000001000000000000000000000000
202005010060010500000000000000049510000000000000000495108000000000000000000000CONSUMIDOR FINAL              000000000037400000000000000000000000000000000000000000000000000000000000000000000000000000000000000000000000000000016218PES00010000001000000000000000000000000
202005010060010500000000000000049511000000000000000495118000000000000000000000CONSUMIDOR FINAL              000000000000001000000000000000000000000000000000000000000000000000000000000000000000000000000000000000000000000000000000PES00010000001000000000000000000000000
202005010060010500000000000000049512000000000000000495128000000000000000000000CONSUMIDOR FINAL              000000000014200000000000000000000000000000000000000000000000000000000000000000000000000000000000000000000000000000000123PES00010000001000000000000000000000000
202005010060010500000000000000049513000000000000000495138000000000000000000000CONSUMIDOR FINAL              000000000003605000000000000000000000000000000000000000000000000000000000000000000000000000000000000000000000000000000000PES00010000001000000000000000000000000
202005010060010500000000000000049514000000000000000495148000000000000000000000CONSUMIDOR FINAL              000000000162000000000000000000000000000000000000000000000000000000000000000000000000000000000000000000000000000000105075PES00010000001000000000000000000000000
202005010060010500000000000000049515000000000000000495158000000000000000000000CONSUMIDOR FINAL              000000000075000000000000000000000000000000000000000000000000000000000000000000000000000000000000000000000000000000049410PES00010000001000000000000000000000000
202005010060010200000000000000027298000000000000000272988000000000000000000000CONSUMIDOR FINAL              000000000210018000000000000000000000000000000000000000000000000000000000000000000000000000000000000000000000000000046754PES00010000001000000000000000000000000
202005010010010300000000000000014115000000000000000141158000000000020130662855CARLOS MIGUEL ABATE           000000000100001000000000000000000000000000000000000000000000000000000000000000000000000000000000000000000000000000019855PES00010000001000000000000000000000000
202005010010010400000000000000007494000000000000000074948000000000033710395999SERVICIO LOS ALFREDO          000000000989999000000000000000000000000000000000000000000000000000000000000000000000000000000000000000000000000000150459PES00010000001000000000000000000000000
202005010060010500000000000000049516000000000000000495168000000000000000000000CONSUMIDOR FINAL              000000000025100000000000000000000000000000000000000000000000000000000000000000000000000000000000000000000000000000000000PES00010000001000000000000000000000000
202005010010010500000000000000003333000000000000000033338000000000030710996586SMW AGRO S.R.L                000000000081700000000000000000000000000000000000000000000000000000000000000000000000000000000000000000000000000000000245PES00010000001000000000000000000000000
202005010060010500000000000000049517000000000000000495178000000000000000000000CONSUMIDOR FINAL              000000000000001000000000000000000000000000000000000000000000000000000000000000000000000000000000000000000000000000000000PES00010000001000000000000000000000000
202005010060010500000000000000049518000000000000000495188000000000000000000000CONSUMIDOR FINAL              000000000014600000000000000000000000000000000000000000000000000000000000000000000000000000000000000000000000000000000000PES00010000001000000000000000000000000
202005010060010500000000000000049519000000000000000495198000000000000000000000CONSUMIDOR FINAL              000000000014600000000000000000000000000000000000000000000000000000000000000000000000000000000000000000000000000000000000PES00010000001000000000000000000000000
202005010060010500000000000000049520000000000000000495208000000000000000000000CONSUMIDOR FINAL              000000000000001000000000000000000000000000000000000000000000000000000000000000000000000000000000000000000000000000000000PES00010000001000000000000000000000000
202005010060010500000000000000049521000000000000000495218000000000000000000000CONSUMIDOR FINAL              000000000000001000000000000000000000000000000000000000000000000000000000000000000000000000000000000000000000000000000000PES00010000001000000000000000000000000
202005010060010500000000000000049522000000000000000495228000000000000000000000CONSUMIDOR FINAL              000000000002800000000000000000000000000000000000000000000000000000000000000000000000000000000000000000000000000000000000PES00010000001000000000000000000000000
202005010060010500000000000000049523000000000000000495238000000000000000000000CONSUMIDOR FINAL              000000000016200000000000000000000000000000000000000000000000000000000000000000000000000000000000000000000000000000010508PES00010000001000000000000000000000000
202005010060010500000000000000049524000000000000000495248000000000000000000000CONSUMIDOR FINAL              000000000016200000000000000000000000000000000000000000000000000000000000000000000000000000000000000000000000000000010508PES00010000001000000000000000000000000
202005010060010300000000000000020885000000000000000208858000000000000000000000CONSUMIDOR FINAL              000000000109500000000000000000000000000000000000000000000000000000000000000000000000000000000000000000000000000000022262PES00010000001000000000000000000000000
202005010060010500000000000000049525000000000000000495258000000000000000000000CONSUMIDOR FINAL              000000000002800000000000000000000000000000000000000000000000000000000000000000000000000000000000000000000000000000000000PES00010000001000000000000000000000000
202005010060010500000000000000049526000000000000000495268000000000000000000000CONSUMIDOR FINAL              000000000006400000000000000000000000000000000000000000000000000000000000000000000000000000000000000000000000000000000000PES00010000001000000000000000000000000
202005010060010200000000000000027299000000000000000272998000000000000000000000CONSUMIDOR FINAL              000000000030002000000000000000000000000000000000000000000000000000000000000000000000000000000000000000000000000000006679PES00010000001000000000000000000000000
202005010060010200000000000000027300000000000000000273008000000000000000000000CONSUMIDOR FINAL              000000000040002000000000000000000000000000000000000000000000000000000000000000000000000000000000000000000000000000008905PES00010000001000000000000000000000000
202005010060010500000000000000049527000000000000000495278000000000000000000000CONSUMIDOR FINAL              000000000003600000000000000000000000000000000000000000000000000000000000000000000000000000000000000000000000000000000000PES00010000001000000000000000000000000
202005010060010500000000000000049528000000000000000495288000000000000000000000CONSUMIDOR FINAL              000000000010000000000000000000000000000000000000000000000000000000000000000000000000000000000000000000000000000000000000PES00010000001000000000000000000000000
202005010060010200000000000000027301000000000000000273018000000000000000000000CONSUMIDOR FINAL              000000000250003000000000000000000000000000000000000000000000000000000000000000000000000000000000000000000000000000055655PES00010000001000000000000000000000000
202005010060010500000000000000049529000000000000000495298000000000000000000000CONSUMIDOR FINAL              000000000003600000000000000000000000000000000000000000000000000000000000000000000000000000000000000000000000000000000000PES00010000001000000000000000000000000
202005010010010100000000000000009726000000000000000097268000000000030714516899AGRO ACONQUIJA S.R.L          000000000029000000000000000000000000000000000000000000000000000000000000000000000000000000000000000000000000000000000348PES00010000001000000000000000000000000
202005010010010200000000000000016477000000000000000164778000000000030714516899AGRO ACONQUIJA S.R.L          000000000029000000000000000000000000000000000000000000000000000000000000000000000000000000000000000000000000000000000348PES00010000001000000000000000000000000
202005010060010100000000000000013646000000000000000136468000000000000000000000CONSUMIDOR FINAL              000000000012425000000000000000000000000000000000000000000000000000000000000000000000000000000000000000000000000000000149PES00010000001000000000000000000000000
202005010010010200000000000000016478000000000000000164788000000000020082467476RODRIGUEZ JOSE RAMON          000000000149997000000000000000000000000000000000000000000000000000000000000000000000000000000000000000000000000000019721PES00010000001000000000000000000000000
202005010060010500000000000000049530000000000000000495308000000000000000000000PERSONAL LUBRE FAMAI          000000000024900000000000000000000000000000000000000000000000000000000000000000000000000000000000000000000000000000008597PES00010000001000000000000000000000000
202005010060010500000000000000049531000000000000000495318000000000000000000000CONSUMIDOR FINAL              000000000003210000000000000000000000000000000000000000000000000000000000000000000000000000000000000000000000000000000000PES00010000001000000000000000000000000
202005010060010500000000000000049532000000000000000495328000000000000000000000CONSUMIDOR FINAL              000000000010000000000000000000000000000000000000000000000000000000000000000000000000000000000000000000000000000000000056PES00010000001000000000000000000000000
202005010060010300000000000000020886000000000000000208868000000000000000000000CONSUMIDOR FINAL              000000000368656000000000000000000000000000000000000000000000000000000000000000000000000000000000000000000000000000075702PES00010000001000000000000000000000000
202005010060010500000000000000049533000000000000000495338000000000000000000000CONSUMIDOR FINAL              000000000020700000000000000000000000000000000000000000000000000000000000000000000000000000000000000000000000000000013107PES00010000001000000000000000000000000
202005010060010500000000000000049534000000000000000495348000000000000000000000CONSUMIDOR FINAL              000000000004900000000000000000000000000000000000000000000000000000000000000000000000000000000000000000000000000000000000PES00010000001000000000000000000000000
202005010060010500000000000000049535000000000000000495358000000000000000000000CONSUMIDOR FINAL              000000000050701000000000000000000000000000000000000000000000000000000000000000000000000000000000000000000000000000000000PES00010000001000000000000000000000000
202005010060010200000000000000027302000000000000000273028000000000000000000000CONSUMIDOR FINAL              000000000250033000000000000000000000000000000000000000000000000000000000000000000000000000000000000000000000000000049644PES00010000001000000000000000000000000
202005010010010300000000000000014116000000000000000141168000000000020258374569CARTA CARLOS ANTONIO          000000000149995000000000000000000000000000000000000000000000000000000000000000000000000000000000000000000000000000025124PES00010000001000000000000000000000000
202005010060010500000000000000049536000000000000000495368000000000000000000000CONSUMIDOR FINAL              000000000016200000000000000000000000000000000000000000000000000000000000000000000000000000000000000000000000000000010508PES00010000001000000000000000000000000
202005010060010200000000000000027303000000000000000273038000000000000000000000CONSUMIDOR FINAL              000000000240032000000000000000000000000000000000000000000000000000000000000000000000000000000000000000000000000000031558PES00010000001000000000000000000000000
202005010060010500000000000000049537000000000000000495378000000000000000000000CONSUMIDOR FINAL              000000000015600000000000000000000000000000000000000000000000000000000000000000000000000000000000000000000000000000009963PES00010000001000000000000000000000000
202005010060010500000000000000049538000000000000000495388000000000000000000000CONSUMIDOR FINAL              000000000011400000000000000000000000000000000000000000000000000000000000000000000000000000000000000000000000000000000000PES00010000001000000000000000000000000
202005010010010400000000000000007495000000000000000074958000000000030708557745EL CHAICO SRL                 000000002873185000000000000000000000000000000000000000000000000000000000000000000000000000000000000000000000000000423945PES00010000001000000000000000000000000
202005010060010500000000000000049539000000000000000495398000000000000000000000CONSUMIDOR FINAL              000000000059200000000000000000000000000000000000000000000000000000000000000000000000000000000000000000000000000000000110PES00010000001000000000000000000000000
202005010060010500000000000000049540000000000000000495408000000000000000000000CONSUMIDOR FINAL              000000000000001000000000000000000000000000000000000000000000000000000000000000000000000000000000000000000000000000000000PES00010000001000000000000000000000000
202005010060010500000000000000049541000000000000000495418000000000000000000000CONSUMIDOR FINAL              000000000031200000000000000000000000000000000000000000000000000000000000000000000000000000000000000000000000000000019926PES00010000001000000000000000000000000
202005010060010200000000000000027304000000000000000273048000000000000000000000CONSUMIDOR FINAL              000000000050003000000000000000000000000000000000000000000000000000000000000000000000000000000000000000000000000000011131PES00010000001000000000000000000000000
202005010060010200000000000000027305000000000000000273058000000000000000000000CONSUMIDOR FINAL              000000000200029000000000000000000000000000000000000000000000000000000000000000000000000000000000000000000000000000026299PES00010000001000000000000000000000000
202005010060010100000000000000013647000000000000000136478000000000000000000000CONSUMIDOR FINAL              000000000340004000000000000000000000000000000000000000000000000000000000000000000000000000000000000000000000000000044702PES00010000001000000000000000000000000
202005010010010400000000000000007496000000000000000074968000000000030709790311INTEROL SRL                   000000000700003000000000000000000000000000000000000000000000000000000000000000000000000000000000000000000000000000106386PES00010000001000000000000000000000000
202005010010010300000000000000014117000000000000000141178000000000030646328450SYNGENTA AGRO                 000000000310020000000000000000000000000000000000000000000000000000000000000000000000000000000000000000000000000000039708PES00010000001000000000000000000000000
202005010060010500000000000000049542000000000000000495428000000000000000000000CONSUMIDOR FINAL              000000000008200000000000000000000000000000000000000000000000000000000000000000000000000000000000000000000000000000000000PES00010000001000000000000000000000000
202005010060010500000000000000049543000000000000000495438000000000000000000000CONSUMIDOR FINAL              000000000016400000000000007000000000000000000000000000000000000000000000000000000000000000000000000000000000000000000000PES00010000001000000000000000000000000
202005010060010500000000000000049544000000000000000495448000000000000000000000CONSUMIDOR FINAL              000000000000001000000000000000000000000000000000000000000000000000000000000000000000000000000000000000000000000000000000PES00010000001000000000000000000000000
202005010060010500000000000000049545000000000000000495458000000000000000000000CONSUMIDOR FINAL              000000000010000000000000000000000000000000000000000000000000000000000000000000000000000000000000000000000000000000000000PES00010000001000000000000000000000000
202005010060010500000000000000049546000000000000000495468000000000000000000000CONSUMIDOR FINAL              000000000009600000000000000000000000000000000000000000000000000000000000000000000000000000000000000000000000000000000000PES00010000001000000000000000000000000
202005010060010500000000000000049547000000000000000495478000000000000000000000CONSUMIDOR FINAL              000000000000001000000000000000000000000000000000000000000000000000000000000000000000000000000000000000000000000000000000PES00010000001000000000000000000000000
202005010060010500000000000000049548000000000000000495488000000000000000000000CONSUMIDOR FINAL              000000000011400000000000000000000000000000000000000000000000000000000000000000000000000000000000000000000000000000000000PES00010000001000000000000000000000000
202005010060010300000000000000020887000000000000000208878000000000000000000000CONSUMIDOR FINAL              000000000149998000000000000000000000000000000000000000000000000000000000000000000000000000000000000000000000000000029782PES00010000001000000000000000000000000
202005010060010200000000000000027306000000000000000273068000000000000000000000CONSUMIDOR FINAL              000000000100000000000000000000000000000000000000000000000000000000000000000000000000000000000000000000000000000000022262PES00010000001000000000000000000000000
202005010010010300000000000000014118000000000000000141188000000000030709195251LA CELINA SRL                 000000000419300000000000000000000000000000000000000000000000000000000000000000000000000000000000000000000000000000022262PES00010000001000000000000000000000000
202005010060010500000000000000049549000000000000000495498000000000000000000000CONSUMIDOR FINAL              000000000008200000000000000000000000000000000000000000000000000000000000000000000000000000000000000000000000000000000000PES00010000001000000000000000000000000
202005010010010500000000000000003334000000000000000033348000000000030709195251LA CELINA SRL                 000000000029900000000000000000000000000000000000000000000000000000000000000000000000000000000000000000000000000000016706PES00010000001000000000000000000000000
202005010060010500000000000000049550000000000000000495508000000000000000000000CONSUMIDOR FINAL              000000000011400000000000000000000000000000000000000000000000000000000000000000000000000000000000000000000000000000000000PES00010000001000000000000000000000000
202005010060010500000000000000049551000000000000000495518000000000000000000000CONSUMIDOR FINAL              000000000010800000000000000000000000000000000000000000000000000000000000000000000000000000000000000000000000000000000000PES00010000001000000000000000000000000
202005010060010500000000000000049552000000000000000495528000000000000000000000CONSUMIDOR FINAL              000000000005000000000000000000000000000000000000000000000000000000000000000000000000000000000000000000000000000000000000PES00010000001000000000000000000000000
202005010060010500000000000000049553000000000000000495538000000000000000000000CONSUMIDOR FINAL              000000000012400000000000000000000000000000000000000000000000000000000000000000000000000000000000000000000000000000000271PES00010000001000000000000000000000000
202005010060010100000000000000013648000000000000000136488000000000000000000000CONSUMIDOR FINAL              000000000025000000000000000000000000000000000000000000000000000000000000000000000000000000000000000000000000000000000300PES00010000001000000000000000000000000
202005010060010100000000000000013649000000000000000136498000000000000000000000CONSUMIDOR FINAL              000000000030002000000000000000000000000000000000000000000000000000000000000000000000000000000000000000000000000000006679PES00010000001000000000000000000000000
202005010060010500000000000000049554000000000000000495548000000000000000000000CONSUMIDOR FINAL              000000000015600000000000000000000000000000000000000000000000000000000000000000000000000000000000000000000000000000009963PES00010000001000000000000000000000000
202005010060010500000000000000049555000000000000000495558000000000000000000000CONSUMIDOR FINAL              000000000026400000000000000000000000000000000000000000000000000000000000000000000000000000000000000000000000000000004987PES00010000001000000000000000000000000
202005010060010500000000000000049556000000000000000495568000000000000000000000CONSUMIDOR FINAL              000000000011000000000000000000000000000000000000000000000000000000000000000000000000000000000000000000000000000000000000PES00010000001000000000000000000000000
202005010060010300000000000000020888000000000000000208888000000000000000000000CONSUMIDOR FINAL              000000000100000000000000000000000000000000000000000000000000000000000000000000000000000000000000000000000000000000022262PES00010000001000000000000000000000000
202005010060010500000000000000049557000000000000000495578000000000000000000000CONSUMIDOR FINAL              000000000007800000000000000000000000000000000000000000000000000000000000000000000000000000000000000000000000000000004865PES00010000001000000000000000000000000
202005010060010500000000000000049558000000000000000495588000000000000000000000CONSUMIDOR FINAL              000000000042800000000000000000000000000000000000000000000000000000000000000000000000000000000000000000000000000000009376PES00010000001000000000000000000000000
202005010060010500000000000000049559000000000000000495598000000000000000000000CONSUMIDOR FINAL              000000000016000000000000000000000000000000000000000000000000000000000000000000000000000000000000000000000000000000000000PES00010000001000000000000000000000000
202005010060010500000000000000049560000000000000000495608000000000000000000000CONSUMIDOR FINAL              000000000016000000000000000000000000000000000000000000000000000000000000000000000000000000000000000000000000000000000000PES00010000001000000000000000000000000
202005010060010300000000000000020889000000000000000208898000000000000000000000CONSUMIDOR FINAL              000000000150003000000000000000000000000000000000000000000000000000000000000000000000000000000000000000000000000000033393PES00010000001000000000000000000000000
202005010060010500000000000000049561000000000000000495618000000000000000000000CONSUMIDOR FINAL              000000000014000000000000000000000000000000000000000000000000000000000000000000000000000000000000000000000000000000008951PES00010000001000000000000000000000000
202005010060010500000000000000049562000000000000000495628000000000000000000000CONSUMIDOR FINAL              000000000057000000000000000000000000000000000000000000000000000000000000000000000000000000000000000000000000000000040545PES00010000001000000000000000000000000
202005010060010200000000000000027307000000000000000273078000000000000000000000CONSUMIDOR FINAL              000000000200002000000000000000000000000000000000000000000000000000000000000000000000000000000000000000000000000000039710PES00010000001000000000000000000000000
202005010060010200000000000000027308000000000000000273088000000000000000000000CONSUMIDOR FINAL              000000000040800000000000000000000000000000000000000000000000000000000000000000000000000000000000000000000000000000000000PES00010000001000000000000000000000000
202005010060010500000000000000049563000000000000000495638000000000000000000000CONSUMIDOR FINAL              000000000016001000000000000000000000000000000000000000000000000000000000000000000000000000000000000000000000000000000000PES00010000001000000000000000000000000
202005010060010200000000000000027309000000000000000273098000000000000000000000CONSUMIDOR FINAL              000000000305012000000000000000000000000000000000000000000000000000000000000000000000000000000000000000000000000000067901PES00010000001000000000000000000000000
202005010060010500000000000000049564000000000000000495648000000000000000000000CONSUMIDOR FINAL              000000000007000000000000000000000000000000000000000000000000000000000000000000000000000000000000000000000000000000000000PES00010000001000000000000000000000000
202005010010010100000000000000009727000000000000000097278000000000020262463576GRANDE WATER DANIEL           000000000200042000000000000000000000000000000000000000000000000000000000000000000000000000000000000000000000000000044533PES00010000001000000000000000000000000
202005010060010500000000000000049565000000000000000495658000000000000000000000CONSUMIDOR FINAL              000000000088200000000000000000000000000000000000000000000000000000000000000000000000000000000000000000000000000000056678PES00010000001000000000000000000000000
202005010060010200000000000000027310000000000000000273108000000000000000000000CONSUMIDOR FINAL              000000000030002000000000000000000000000000000000000000000000000000000000000000000000000000000000000000000000000000006679PES00010000001000000000000000000000000
202005010060010300000000000000020890000000000000000208908000000000000000000000CONSUMIDOR FINAL              000000000168542000000000000000000000000000000000000000000000000000000000000000000000000000000000000000000000000000025615PES00010000001000000000000000000000000
202005010060010500000000000000049566000000000000000495668000000000000000000000CONSUMIDOR FINAL              000000000024400000000000000000000000000000000000000000000000000000000000000000000000000000000000000000000000000000016434PES00010000001000000000000000000000000
202005010060010500000000000000049567000000000000000495678000000000000000000000CONSUMIDOR FINAL              000000000005000000000000000000000000000000000000000000000000000000000000000000000000000000000000000000000000000000000000PES00010000001000000000000000000000000
202005010060010100000000000000013650000000000000000136508000000000000000000000CONSUMIDOR FINAL              000000000018787000000000000000000000000000000000000000000000000000000000000000000000000000000000000000000000000000000226PES00010000001000000000000000000000000
202005010060010500000000000000049568000000000000000495688000000000000000000000CONSUMIDOR FINAL              000000000168000000000000000000000000000000000000000000000000000000000000000000000000000000000000000000000000000000107412PES00010000001000000000000000000000000
202005010060010500000000000000049569000000000000000495698000000000000000000000CONSUMIDOR FINAL              000000000029400000000000000000000000000000000000000000000000000000000000000000000000000000000000000000000000000000018893PES00010000001000000000000000000000000
202005010060010500000000000000049570000000000000000495708000000000000000000000CONSUMIDOR FINAL              000000000015000000000000000000000000000000000000000000000000000000000000000000000000000000000000000000000000000000000000PES00010000001000000000000000000000000
202005010060010500000000000000049571000000000000000495718000000000000000000000CONSUMIDOR FINAL              000000000006100000000000000000000000000000000000000000000000000000000000000000000000000000000000000000000000000000000169PES00010000001000000000000000000000000
202005010060010500000000000000049572000000000000000495728000000000000000000000CONSUMIDOR FINAL              000000000007200000000000000000000000000000000000000000000000000000000000000000000000000000000000000000000000000000000000PES00010000001000000000000000000000000
202005010010010200000000000000016479000000000000000164798000000000030714613622AGRO SELECTA SRL              000000000200003000000000000000000000000000000000000000000000000000000000000000000000000000000000000000000000000000026296PES00010000001000000000000000000000000
202005010060010500000000000000049573000000000000000495738000000000000000000000CONSUMIDOR FINAL              000000000005000000000000000000000000000000000000000000000000000000000000000000000000000000000000000000000000000000000000PES00010000001000000000000000000000000
202005010060010200000000000000027311000000000000000273118000000000000000000000CONSUMIDOR FINAL              000000000200000000000000000000000000000000000000000000000000000000000000000000000000000000000000000000000000000000044523PES00010000001000000000000000000000000
202005010060010300000000000000020891000000000000000208918000000000000000000000CONSUMIDOR FINAL              000000000150003000000000000000000000000000000000000000000000000000000000000000000000000000000000000000000000000000033393PES00010000001000000000000000000000000
202005010010010200000000000000016480000000000000000164808000000000020217039852FABIO ABDALA                  000000000510032000000000000000000000000000000000000000000000000000000000000000000000000000000000000000000000000000067057PES00010000001000000000000000000000000
202005010060010500000000000000049574000000000000000495748000000000000000000000CONSUMIDOR FINAL              000000000012500000000000000000000000000000000000000000000000000000000000000000000000000000000000000000000000000000000000PES00010000001000000000000000000000000
202005010060010500000000000000049575000000000000000495758000000000000000000000CONSUMIDOR FINAL              000000000020400000000000000000000000000000000000000000000000000000000000000000000000000000000000000000000000000000012458PES00010000001000000000000000000000000
202005010060010500000000000000049576000000000000000495768000000000000000000000CONSUMIDOR FINAL              000000000009300000000000000000000000000000000000000000000000000000000000000000000000000000000000000000000000000000000385PES00010000001000000000000000000000000
202005010060010500000000000000049577000000000000000495778000000000000000000000CONSUMIDOR FINAL              000000000018900000000000000000000000000000000000000000000000000000000000000000000000000000000000000000000000000000000000PES00010000001000000000000000000000000
202005010060010500000000000000049578000000000000000495788000000000000000000000CONSUMIDOR FINAL              000000000057000000000000000000000000000000000000000000000000000000000000000000000000000000000000000000000000000000000000PES00010000001000000000000000000000000
202005010060010500000000000000049579000000000000000495798000000000000000000000CONSUMIDOR FINAL              000000000000001000000000000000000000000000000000000000000000000000000000000000000000000000000000000000000000000000000000PES00010000001000000000000000000000000
202005010060010500000000000000049580000000000000000495808000000000000000000000CONSUMIDOR FINAL              000000000005000000000000000000000000000000000000000000000000000000000000000000000000000000000000000000000000000000000000PES00010000001000000000000000000000000
202005010060010200000000000000027312000000000000000273128000000000000000000000CONSUMIDOR FINAL              000000000077068000000000000000000000000000000000000000000000000000000000000000000000000000000000000000000000000000015302PES00010000001000000000000000000000000
202005010060010200000000000000027313000000000000000273138000000000000000000000CONSUMIDOR FINAL              000000000050003000000000000000000000000000000000000000000000000000000000000000000000000000000000000000000000000000011131PES00010000001000000000000000000000000
202005010060010500000000000000049581000000000000000495818000000000000000000000CONSUMIDOR FINAL              000000000012300000000000000000000000000000000000000000000000000000000000000000000000000000000000000000000000000000004865PES00010000001000000000000000000000000
202005010060010500000000000000049582000000000000000495828000000000000000000000CONSUMIDOR FINAL              000000000043000000000000000000000000000000000000000000000000000000000000000000000000000000000000000000000000000000000000PES00010000001000000000000000000000000
202005010060010300000000000000020892000000000000000208928000000000000000000000CONSUMIDOR FINAL              000000000100000000000000000000000000000000000000000000000000000000000000000000000000000000000000000000000000000000022262PES00010000001000000000000000000000000
202005010060010200000000000000027314000000000000000273148000000000000000000000CONSUMIDOR FINAL              000000000091080000000000000000000000000000000000000000000000000000000000000000000000000000000000000000000000000000020276PES00010000001000000000000000000000000
202005010060010500000000000000049583000000000000000495838000000000000000000000CONSUMIDOR FINAL              000000000011700000000000000000000000000000000000000000000000000000000000000000000000000000000000000000000000000000000172PES00010000001000000000000000000000000
202005010010010400000000000000007497000000000000000074978000000000020317166622LOBO JOSE MEDARDO             000000001199998000000000000000000000000000000000000000000000000000000000000000000000000000000000000000000000000000182374PES00010000001000000000000000000000000
202005010010010300000000000000014119000000000000000141198000000000020228993566GIL SEBASTIAN RICARD          000000001150117000000000000000000000000000000000000000000000000000000000000000000000000000000000000000000000000000174793PES00010000001000000000000000000000000
202005010060010500000000000000049584000000000000000495848000000000027391433785PERSONAL LUBRE FAMAI          000000000006500000000000000000000000000000000000000000000000000000000000000000000000000000000000000000000000000000000000PES00010000001000000000000000000000000
202005010060010500000000000000049585000000000000000495858000000000000000000000CONSUMIDOR FINAL              000000000031000000000000000000000000000000000000000000000000000000000000000000000000000000000000000000000000000000000169PES00010000001000000000000000000000000
202005010060010300000000000000020893000000000000000208938000000000000000000000CONSUMIDOR FINAL              000000000100000000000000000000000000000000000000000000000000000000000000000000000000000000000000000000000000000000022262PES00010000001000000000000000000000000
202005010060010500000000000000049586000000000000000495868000000000000000000000CONSUMIDOR FINAL              000000000021900000000000000000000000000000000000000000000000000000000000000000000000000000000000000000000000000000000000PES00010000001000000000000000000000000
202005010010010300000000000000014120000000000000000141208000000000030716029499LOGISTICA Y SERVICIO          000000000050003000000000000000000000000000000000000000000000000000000000000000000000000000000000000000000000000000011131PES00010000001000000000000000000000000
202005010060010300000000000000020894000000000000000208948000000000000000000000CONSUMIDOR FINAL              000000000149997000000000000000000000000000000000000000000000000000000000000000000000000000000000000000000000000000019721PES00010000001000000000000000000000000
202005010060010500000000000000049587000000000000000495878000000000000000000000CONSUMIDOR FINAL              000000000023400000000000000000000000000000000000000000000000000000000000000000000000000000000000000000000000000000014945PES00010000001000000000000000000000000
202005010060010500000000000000049588000000000000000495888000000000000000000000CONSUMIDOR FINAL              000000000000500000000000000000000000000000000000000000000000000000000000000000000000000000000000000000000000000000000000PES00010000001000000000000000000000000
202005010010010300000000000000014121000000000000000141218000000000020393664178PIZZIA NAZARENO               000000001120018000000000000000000000000000000000000000000000000000000000000000000000000000000000000000000000000000170219PES00010000001000000000000000000000000
202005010060010500000000000000049589000000000000000495898000000000000000000000CONSUMIDOR FINAL              000000000031000000000000000000000000000000000000000000000000000000000000000000000000000000000000000000000000000000020024PES00010000001000000000000000000000000
202005010060010500000000000000049590000000000000000495908000000000000000000000CONSUMIDOR FINAL              000000000005000000000000000000000000000000000000000000000000000000000000000000000000000000000000000000000000000000000000PES00010000001000000000000000000000000
202005010060010500000000000000049591000000000000000495918000000000000000000000CONSUMIDOR FINAL              000000000007500000000000000000000000000000000000000000000000000000000000000000000000000000000000000000000000000000000000PES00010000001000000000000000000000000
202005010060010500000000000000049592000000000000000495928000000000000000000000CONSUMIDOR FINAL              000000000028000000000000000000000000000000000000000000000000000000000000000000000000000000000000000000000000000000017902PES00010000001000000000000000000000000
202005010010010300000000000000014122000000000000000141228000000000020274902966SALINAS SERGIO GERAR          000000001000002000000000000000000000000000000000000000000000000000000000000000000000000000000000000000000000000000151979PES00010000001000000000000000000000000
202005010060010500000000000000049593000000000000000495938000000000000000000000CONSUMIDOR FINAL              000000000016000000000000000000000000000000000000000000000000000000000000000000000000000000000000000000000000000000010012PES00010000001000000000000000000000000
202005010060010500000000000000049594000000000000000495948000000000000000000000CONSUMIDOR FINAL              000000000013000000000000000000000000000000000000000000000000000000000000000000000000000000000000000000000000000000000000PES00010000001000000000000000000000000
202005010060010500000000000000049595000000000000000495958000000000027391433785PERSONAL LUBRE FAMAI          000000000041000000000000000000000000000000000000000000000000000000000000000000000000000000000000000000000000000000017902PES00010000001000000000000000000000000
202005010060010500000000000000049596000000000000000495968000000000000000000000CONSUMIDOR FINAL              000000000015900000000000000000000000000000000000000000000000000000000000000000000000000000000000000000000000000000000318PES00010000001000000000000000000000000
202005010060010500000000000000049597000000000000000495978000000000000000000000CONSUMIDOR FINAL              000000000005000000000000000000000000000000000000000000000000000000000000000000000000000000000000000000000000000000000000PES00010000001000000000000000000000000
202005010060010500000000000000049598000000000000000495988000000000000000000000CONSUMIDOR FINAL              000000000016900000000000000000000000000000000000000000000000000000000000000000000000000000000000000000000000000000000000PES00010000001000000000000000000000000
202005010010010200000000000000016481000000000000000164818000000000033711512689TRANSPORTE CIUDADA D          000000000099998000000000000000000000000000000000000000000000000000000000000000000000000000000000000000000000000000013147PES00010000001000000000000000000000000
202005010060010500000000000000049599000000000000000495998000000000000000000000CONSUMIDOR FINAL              000000000005000000000000000000000000000000000000000000000000000000000000000000000000000000000000000000000000000000000000PES00010000001000000000000000000000000
202005010060010200000000000000027315000000000000000273158000000000000000000000CONSUMIDOR FINAL              000000000050003000000000000000000000000000000000000000000000000000000000000000000000000000000000000000000000000000011131PES00010000001000000000000000000000000
202005010060010500000000000000049600000000000000000496008000000000000000000000CONSUMIDOR FINAL              000000000017000000000000000000000000000000000000000000000000000000000000000000000000000000000000000000000000000000010458PES00010000001000000000000000000000000
202005010060010500000000000000049601000000000000000496018000000000000000000000CONSUMIDOR FINAL              000000000031000000000000000000000000000000000000000000000000000000000000000000000000000000000000000000000000000000020024PES00010000001000000000000000000000000
202005010010010200000000000000016482000000000000000164828000000000030716383659LOS CARDOS SAS                000000000230068000000000000000000000000000000000000000000000000000000000000000000000000000000000000000000000000000030248PES00010000001000000000000000000000000
202005010060010500000000000000049602000000000000000496028000000000000000000000CONSUMIDOR FINAL              000000000008800000000000000000000000000000000000000000000000000000000000000000000000000000000000000000000000000000004865PES00010000001000000000000000000000000
202005010010010200000000000000016483000000000000000164838000000000020274548887GUSTAVO CORNEJO               000000000099998000000000000000000000000000000000000000000000000000000000000000000000000000000000000000000000000000015198PES00010000001000000000000000000000000
202005010010010200000000000000016484000000000000000164848000000000027273454271PAEZ VALERIA                  000000001499998000000000000000000000000000000000000000000000000000000000000000000000000000000000000000000000000000227968PES00010000001000000000000000000000000
202005010060010500000000000000049603000000000000000496038000000000000000000000CONSUMIDOR FINAL              000000000005000000000000000000000000000000000000000000000000000000000000000000000000000000000000000000000000000000000000PES00010000001000000000000000000000000
202005010060010500000000000000049604000000000000000496048000000000000000000000CONSUMIDOR FINAL              000000000014600000000000000000000000000000000000000000000000000000000000000000000000000000000000000000000000000000000000PES00010000001000000000000000000000000
202005010060010200000000000000027316000000000000000273168000000000000000000000CONSUMIDOR FINAL              000000000267725000000000000000000000000000000000000000000000000000000000000000000000000000000000000000000000000000053157PES00010000001000000000000000000000000
202005010060010500000000000000049605000000000000000496058000000000000000000000CONSUMIDOR FINAL              000000000038700000000000000000000000000000000000000000000000000000000000000000000000000000000000000000000000000000010680PES00010000001000000000000000000000000
202005010060010500000000000000049606000000000000000496068000000000000000000000CONSUMIDOR FINAL              000000000040000000000000000000000000000000000000000000000000000000000000000000000000000000000000000000000000000000000000PES00010000001000000000000000000000000
202005010060010500000000000000049607000000000000000496078000000000000000000000CONSUMIDOR FINAL              000000000045300000000000000000000000000000000000000000000000000000000000000000000000000000000000000000000000000000029068PES00010000001000000000000000000000000
202005010060010500000000000000049608000000000000000496088000000000000000000000CONSUMIDOR FINAL              000000000023300000000000000000000000000000000000000000000000000000000000000000000000000000000000000000000000000000014994PES00010000001000000000000000000000000
202005010060010500000000000000049609000000000000000496098000000000000000000000CONSUMIDOR FINAL              000000000029800000000000000000000000000000000000000000000000000000000000000000000000000000000000000000000000000000000056PES00010000001000000000000000000000000
202005010060010500000000000000049610000000000000000496108000000000000000000000CONSUMIDOR FINAL              000000000023000000000000000000000000000000000000000000000000000000000000000000000000000000000000000000000000000000013239PES00010000001000000000000000000000000
202005010060010500000000000000049611000000000000000496118000000000000000000000CONSUMIDOR FINAL              000000000023000000000000000000000000000000000000000000000000000000000000000000000000000000000000000000000000000000000000PES00010000001000000000000000000000000
202005010010010400000000000000007498000000000000000074988000000000020274902966SALINAS SERGIO GERAR          000000000999997000000000000000000000000000000000000000000000000000000000000000000000000000000000000000000000000000151978PES00010000001000000000000000000000000
202005010060010300000000000000020895000000000000000208958000000000000000000000CONSUMIDOR FINAL              000000000100000000000000000000000000000000000000000000000000000000000000000000000000000000000000000000000000000000022262PES00010000001000000000000000000000000
202005010060010300000000000000020896000000000000000208968000000000000000000000CONSUMIDOR FINAL              000000000050003000000000000000000000000000000000000000000000000000000000000000000000000000000000000000000000000000011131PES00010000001000000000000000000000000
202005010060010200000000000000027317000000000000000273178000000000000000000000CONSUMIDOR FINAL              000000000320003000000000000000000000000000000000000000000000000000000000000000000000000000000000000000000000000000040758PES00010000001000000000000000000000000
202005010060010500000000000000049612000000000000000496128000000000027391433785PERSONAL LUBRE FAMAI          000000000010100000000000000000000000000000000000000000000000000000000000000000000000000000000000000000000000000000000000PES00010000001000000000000000000000000
202005010060010400000000000000001921000000000000000019218000000000000000000000CONSUMIDOR FINAL              000000001300080000000000000000000000000000000000000000000000000000000000000000000000000000000000000000000000000000197585PES00010000001000000000000000000000000
202005010060010200000000000000027318000000000000000273188000000000000000000000CONSUMIDOR FINAL              000000000300001000000000000000000000000000000000000000000000000000000000000000000000000000000000000000000000000000039443PES00010000001000000000000000000000000
202005020060010300000000000000020897000000000000000208978000000000000000000000CONSUMIDOR FINAL              000000000200003000000000000000000000000000000000000000000000000000000000000000000000000000000000000000000000000000026296PES00010000001000000000000000000000000
202005020010010400000000000000007499000000000000000074998000000000020143590535GIL MANUEL ANTONIO            000000000559998000000000000000000000000000000000000000000000000000000000000000000000000000000000000000000000000000085108PES00010000001000000000000000000000000
202005020060010400000000000000001922000000000000000019228000000000000000000000CONSUMIDOR FINAL              000000000010001000000000000000000000000000000000000000000000000000000000000000000000000000000000000000000000000000002226PES00010000001000000000000000000000000
202005020010010400000000000000007500000000000000000075008000000000020143590535GIL MANUEL ANTONIO            000000000559998000000000000000000000000000000000000000000000000000000000000000000000000000000000000000000000000000085108PES00010000001000000000000000000000000
202005020010010400000000000000007501000000000000000075018000000000030708598190DISENO Y CONSTRUCCIO          000000000989999000000000000000000000000000000000000000000000000000000000000000000000000000000000000000000000000000150459PES00010000001000000000000000000000000
202005020010010100000000000000009728000000000000000097288000000000030715823299SYSMOTION S.R.L               000000000049999000000000000000000000000000000000000000000000000000000000000000000000000000000000000000000000000000007599PES00010000001000000000000000000000000
202005020060010200000000000000027319000000000000000273198000000000000000000000CONSUMIDOR FINAL              000000000392551000000000000000000000000000000000000000000000000000000000000000000000000000000000000000000000000000051611PES00010000001000000000000000000000000
202005020060010500000000000000049613000000000000000496138000000000000000000000CONSUMIDOR FINAL              000000000015600000000000000000000000000000000000000000000000000000000000000000000000000000000000000000000000000000009963PES00010000001000000000000000000000000
202005020060010500000000000000049614000000000000000496148000000000000000000000CONSUMIDOR FINAL              000000000008300000000000000000000000000000000000000000000000000000000000000000000000000000000000000000000000000000005229PES00010000001000000000000000000000000
202005020060010500000000000000049615000000000000000496158000000000000000000000CONSUMIDOR FINAL              000000000007500000000000000000000000000000000000000000000000000000000000000000000000000000000000000000000000000000004941PES00010000001000000000000000000000000
202005020060010200000000000000027320000000000000000273208000000000000000000000CONSUMIDOR FINAL              000000000149997000000000000000000000000000000000000000000000000000000000000000000000000000000000000000000000000000019721PES00010000001000000000000000000000000
202005020060010500000000000000049616000000000000000496168000000000000000000000CONSUMIDOR FINAL              000000000015400000000000000000000000000000000000000000000000000000000000000000000000000000000000000000000000000000000000PES00010000001000000000000000000000000
202005020010010200000000000000016485000000000000000164858000000000020143239625OLMO EMILIO LAUDINO           000000000150021000000000000000000000000000000000000000000000000000000000000000000000000000000000000000000000000000033397PES00010000001000000000000000000000000
202005020060010100000000000000013651000000000000000136518000000000000000000000CONSUMIDOR FINAL              000000000010000000000000000000000000000000000000000000000000000000000000000000000000000000000000000000000000000000000120PES00010000001000000000000000000000000
202005020010010300000000000000014123000000000000000141238000000000027161720629PALAVECINO MARIA EST          000000000149998000000000000000000000000000000000000000000000000000000000000000000000000000000000000000000000000000029782PES00010000001000000000000000000000000
202005020010010300000000000000014124000000000000000141248000000000020248038706SUREDA PEDRO JUAN             000000000100001000000000000000000000000000000000000000000000000000000000000000000000000000000000000000000000000000019855PES00010000001000000000000000000000000
202005020010010300000000000000014125000000000000000141258000000000020188062998CARDENAS LOPEZ VLADI          000000000170058000000000000000000000000000000000000000000000000000000000000000000000000000000000000000000000000000037858PES00010000001000000000000000000000000
202005020060010500000000000000049617000000000000000496178000000000000000000000CONSUMIDOR FINAL              000000000006100000000000000000000000000000000000000000000000000000000000000000000000000000000000000000000000000000000169PES00010000001000000000000000000000000
202005020060010200000000000000027321000000000000000273218000000000000000000000CONSUMIDOR FINAL              000000000249999000000000000000000000000000000000000000000000000000000000000000000000000000000000000000000000000000049637PES00010000001000000000000000000000000
202005020060010200000000000000027322000000000000000273228000000000000000000000CONSUMIDOR FINAL              000000000030002000000000000000000000000000000000000000000000000000000000000000000000000000000000000000000000000000006679PES00010000001000000000000000000000000
202005020060010500000000000000049618000000000000000496188000000000000000000000CONSUMIDOR FINAL              000000000005000000000000000000000000000000000000000000000000000000000000000000000000000000000000000000000000000000000000PES00010000001000000000000000000000000
202005020010010400000000000000007502000000000000000075028000000000020328530806LUIS JESUS COLLETTI           000000000399998000000000000000000000000000000000000000000000000000000000000000000000000000000000000000000000000000060791PES00010000001000000000000000000000000
202005020060010500000000000000049619000000000000000496198000000000027391433785PERSONAL LUBRE FAMAI          000000000003100000000000000000000000000000000000000000000000000000000000000000000000000000000000000000000000000000000000PES00010000001000000000000000000000000
202005020060010200000000000000027323000000000000000273238000000000000000000000CONSUMIDOR FINAL              000000000200002000000000000000000000000000000000000000000000000000000000000000000000000000000000000000000000000000030396PES00010000001000000000000000000000000
202005020060010100000000000000013652000000000000000136528000000000000000000000CONSUMIDOR FINAL              000000000016292000000000000000000000000000000000000000000000000000000000000000000000000000000000000000000000000000000196PES00010000001000000000000000000000000
202005020060010500000000000000049620000000000000000496208000000000000000000000CONSUMIDOR FINAL              000000000011400000000000000000000000000000000000000000000000000000000000000000000000000000000000000000000000000000008109PES00010000001000000000000000000000000
202005020060010500000000000000049621000000000000000496218000000000000000000000CONSUMIDOR FINAL              000000000000500000000000000000000000000000000000000000000000000000000000000000000000000000000000000000000000000000000000PES00010000001000000000000000000000000
202005020010010200000000000000016486000000000000000164868000000000030710996586SMW AGRO S.R.L                000000000346602000000000000000000000000000000000000000000000000000000000000000000000000000000000000000000000000000045570PES00010000001000000000000000000000000
202005020010010500000000000000003335000000000000000033358000000000030710996586SMW AGRO S.R.L                000000000077700000000000000000000000000000000000000000000000000000000000000000000000000000000000000000000000000000000245PES00010000001000000000000000000000000
202005020060010500000000000000049622000000000000000496228000000000000000000000CONSUMIDOR FINAL              000000000011400000000000000000000000000000000000000000000000000000000000000000000000000000000000000000000000000000008109PES00010000001000000000000000000000000
202005020010010500000000000000003336000000000000000033368000000000030710996586SMW AGRO S.R.L                000000000102200000000000000000000000000000000000000000000000000000000000000000000000000000000000000000000000000000000786PES00010000001000000000000000000000000
202005020060010500000000000000049623000000000000000496238000000000027391433785PERSONAL LUBRE FAMAI          000000000003100000000000000000000000000000000000000000000000000000000000000000000000000000000000000000000000000000000000PES00010000001000000000000000000000000
202005020060010500000000000000049624000000000000000496248000000000000000000000CONSUMIDOR FINAL              000000000016600000000000000000000000000000000000000000000000000000000000000000000000000000000000000000000000000000010458PES00010000001000000000000000000000000
202005020060010500000000000000049625000000000000000496258000000000027391433785PERSONAL LUBRE FAMAI          000000000003610000000000000000000000000000000000000000000000000000000000000000000000000000000000000000000000000000000000PES00010000001000000000000000000000000
202005020060010200000000000000027324000000000000000273248000000000020290108773VICENTE GOMEZ                 000000000050003000000000000000000000000000000000000000000000000000000000000000000000000000000000000000000000000000011131PES00010000001000000000000000000000000
202005020010010300000000000000014126000000000000000141268000000000027103217887MARTINEZ DELIA ROSA           000000000200003000000000000000000000000000000000000000000000000000000000000000000000000000000000000000000000000000026296PES00010000001000000000000000000000000
202005020060010500000000000000049626000000000000000496268000000000000000000000CONSUMIDOR FINAL              000000000017700000000000000000000000000000000000000000000000000000000000000000000000000000000000000000000000000000000056PES00010000001000000000000000000000000
202005020060010500000000000000049627000000000000000496278000000000000000000000CONSUMIDOR FINAL              000000000000300000000000000000000000000000000000000000000000000000000000000000000000000000000000000000000000000000000000PES00010000001000000000000000000000000
202005020060010500000000000000049628000000000000000496288000000000027391433785PERSONAL LUBRE FAMAI          000000000003610000000000000000000000000000000000000000000000000000000000000000000000000000000000000000000000000000000000PES00010000001000000000000000000000000
202005020060010300000000000000020898000000000000000208988000000000000000000000CONSUMIDOR FINAL              000000000080000000000000000000000000000000000000000000000000000000000000000000000000000000000000000000000000000000010518PES00010000001000000000000000000000000
202005020060010500000000000000049629000000000000000496298000000000027391433785PERSONAL LUBRE FAMAI          000000000018300000000000000000000000000000000000000000000000000000000000000000000000000000000000000000000000000000009446PES00010000001000000000000000000000000
202005020060010500000000000000049630000000000000000496308000000000000000000000CONSUMIDOR FINAL              000000000016200000000000000000000000000000000000000000000000000000000000000000000000000000000000000000000000000000010508PES00010000001000000000000000000000000
202005020060010500000000000000049631000000000000000496318000000000000000000000CONSUMIDOR FINAL              000000000005000000000000000000000000000000000000000000000000000000000000000000000000000000000000000000000000000000000000PES00010000001000000000000000000000000
202005020060010500000000000000049632000000000000000496328000000000027391433785PERSONAL LUBRE FAMAI          000000000003100000000000000000000000000000000000000000000000000000000000000000000000000000000000000000000000000000000000PES00010000001000000000000000000000000
202005020010010200000000000000016487000000000000000164878000000000030716819856INDUSTRIAS STA BARBA          000000000420004000000000000000000000000000000000000000000000000000000000000000000000000000000000000000000000000000055221PES00010000001000000000000000000000000
202005020060010500000000000000049633000000000000000496338000000000027391433785PERSONAL LUBRE FAMAI          000000000003900000000000000000000000000000000000000000000000000000000000000000000000000000000000000000000000000000000000PES00010000001000000000000000000000000
202005020010010300000000000000014127000000000000000141278000000000030716354357LUJMAT AGROSERVICIOS          000000000200003000000000000000000000000000000000000000000000000000000000000000000000000000000000000000000000000000026296PES00010000001000000000000000000000000
202005020060010100000000000000013653000000000000000136538000000000000000000000CONSUMIDOR FINAL              000000000021000000000000000000000000000000000000000000000000000000000000000000000000000000000000000000000000000000000252PES00010000001000000000000000000000000
202005020010010300000000000000014128000000000000000141288000000000030715188615AGRO AST SRL                  000000000150003000000000000000000000000000000000000000000000000000000000000000000000000000000000000000000000000000022797PES00010000001000000000000000000000000
202005020060010500000000000000049634000000000000000496348000000000000000000000CONSUMIDOR FINAL              000000000030100000000000000000000000000000000000000000000000000000000000000000000000000000000000000000000000000000000123PES00010000001000000000000000000000000
202005020060010300000000000000020899000000000000000208998000000000000000000000CONSUMIDOR FINAL              000000000030002000000000000000000000000000000000000000000000000000000000000000000000000000000000000000000000000000006679PES00010000001000000000000000000000000
202005020060010500000000000000049635000000000000000496358000000000000000000000CONSUMIDOR FINAL              000000000023101000000000000000000000000000000000000000000000000000000000000000000000000000000000000000000000000000000000PES00010000001000000000000000000000000
202005020060010500000000000000049636000000000000000496368000000000000000000000CONSUMIDOR FINAL              000000000003100000000000000000000000000000000000000000000000000000000000000000000000000000000000000000000000000000000000PES00010000001000000000000000000000000
202005020010010400000000000000007503000000000000000075038000000000020324163876SALE LUCAS RENE               000000000495002000000000000000000000000000000000000000000000000000000000000000000000000000000000000000000000000000075230PES00010000001000000000000000000000000
202005020010010200000000000000016488000000000000000164888000000000020202198512ALVARADO FAVIO                000000000450011000000000000000000000000000000000000000000000000000000000000000000000000000000000000000000000000000059166PES00010000001000000000000000000000000
202005020060010500000000000000049637000000000000000496378000000000000000000000CONSUMIDOR FINAL              000000000007800000000000000000000000000000000000000000000000000000000000000000000000000000000000000000000000000000004982PES00010000001000000000000000000000000
202005020060010500000000000000049638000000000000000496388000000000000000000000CONSUMIDOR FINAL              000000000005000000000000000000000000000000000000000000000000000000000000000000000000000000000000000000000000000000000000PES00010000001000000000000000000000000
202005020060010500000000000000049639000000000000000496398000000000000000000000CONSUMIDOR FINAL              000000000031200000000000000000000000000000000000000000000000000000000000000000000000000000000000000000000000000000019926PES00010000001000000000000000000000000
202005020060010500000000000000049640000000000000000496408000000000000000000000CONSUMIDOR FINAL              000000000008300000000000000000000000000000000000000000000000000000000000000000000000000000000000000000000000000000005229PES00010000001000000000000000000000000
202005020060010500000000000000049641000000000000000496418000000000000000000000CONSUMIDOR FINAL              000000000001500000000000001500000000000000000000000000000000000000000000000000000000000000000000000000000000000000000000PES00010000001N00000000000000000000000
202005020060010100000000000000013654000000000000000136548000000000000000000000CONSUMIDOR FINAL              000000000024900000000000000000000000000000000000000000000000000000000000000000000000000000000000000000000000000000000299PES00010000001000000000000000000000000
202005020060010200000000000000027325000000000000000273258000000000000000000000CONSUMIDOR FINAL              000000000200000000000000000000000000000000000000000000000000000000000000000000000000000000000000000000000000000000044523PES00010000001000000000000000000000000
202005020010010200000000000000016489000000000000000164898000000000030710735537R.V INGENIERIA S.R.L          000000000050003000000000000000000000000000000000000000000000000000000000000000000000000000000000000000000000000000011131PES00010000001000000000000000000000000
202005020010010400000000000000007504000000000000000075048000000000020160741253SANCHEZ JOSE ORLANDO          000000001000002000000000000000000000000000000000000000000000000000000000000000000000000000000000000000000000000000151979PES00010000001000000000000000000000000
202005020010010100000000000000009729000000000000000097298000000000030710735537R.V INGENIERIA S.R.L          000000000017066000000000000000000000000000000000000000000000000000000000000000000000000000000000000000000000000000000205PES00010000001000000000000000000000000
202005020060010200000000000000027326000000000000000273268000000000000000000000CONSUMIDOR FINAL              000000000100000000000000000000000000000000000000000000000000000000000000000000000000000000000000000000000000000000022262PES00010000001000000000000000000000000
202005020060010500000000000000049642000000000000000496428000000000000000000000CONSUMIDOR FINAL              000000000005000000000000000000000000000000000000000000000000000000000000000000000000000000000000000000000000000000000000PES00010000001000000000000000000000000
202005020010010300000000000000014129000000000000000141298000000000030709702390YABITEL SA                    000000000150003000000000000000000000000000000000000000000000000000000000000000000000000000000000000000000000000000033393PES00010000001000000000000000000000000
202005020060010500000000000000049643000000000000000496438000000000000000000000CONSUMIDOR FINAL              000000000020200000000000000000000000000000000000000000000000000000000000000000000000000000000000000000000000000000000000PES00010000001000000000000000000000000
202005020060010500000000000000049644000000000000000496448000000000000000000000CONSUMIDOR FINAL              000000000033200000000000000000000000000000000000000000000000000000000000000000000000000000000000000000000000000000020917PES00010000001000000000000000000000000
202005020010010100000000000000009730000000000000000097308000000000030711668116MC KREDIT S.R.L EN F          000000000019300000000000000000000000000000000000000000000000000000000000000000000000000000000000000000000000000000000232PES00010000001000000000000000000000000
202005020060010200000000000000027327000000000000000273278000000000000000000000CONSUMIDOR FINAL              000000000200002000000000000000000000000000000000000000000000000000000000000000000000000000000000000000000000000000039710PES00010000001000000000000000000000000
202005020060010500000000000000049645000000000000000496458000000000000000000000CONSUMIDOR FINAL              000000000032400000000000000000000000000000000000000000000000000000000000000000000000000000000000000000000000000000021015PES00010000001000000000000000000000000
202005020010010400000000000000007505000000000000000075058000000000030709861189**ANULADA**                   000000000000000000000000000000000000000000000000000000000000000000000000000000000000000000000000000000000000000000000000PES00010000001N00000000000000000000000
202005020010010400000000000000007506000000000000000075068000000000020160741253SANCHEZ JOSE ORLANDO          000000001000002000000000000000000000000000000000000000000000000000000000000000000000000000000000000000000000000000151979PES00010000001000000000000000000000000
202005020060010500000000000000049646000000000000000496468000000000000000000000CONSUMIDOR FINAL              000000000028300000000000000000000000000000000000000000000000000000000000000000000000000000000000000000000000000000009446PES00010000001000000000000000000000000
202005020060010300000000000000020900000000000000000209008000000000000000000000CONSUMIDOR FINAL              000000000059997000000000000000000000000000000000000000000000000000000000000000000000000000000000000000000000000000013356PES00010000001000000000000000000000000
202005020060010500000000000000049647000000000000000496478000000000000000000000CONSUMIDOR FINAL              000000000028400000000000000000000000000000000000000000000000000000000000000000000000000000000000000000000000000000000000PES00010000001000000000000000000000000
202005020060010200000000000000027328000000000000000273288000000000000000000000CONSUMIDOR FINAL              000000000109004000000000000000000000000000000000000000000000000000000000000000000000000000000000000000000000000000024266PES00010000001000000000000000000000000
202005020010010100000000000000009731000000000000000097318000000000027267820738SALCEDO CYNTHIA MARI          000000000250012000000000000000000000000000000000000000000000000000000000000000000000000000000000000000000000000000034921PES00010000001000000000000000000000000
202005020010010100000000000000009732000000000000000097328000000000020277510953IBANEZ CLAUDIO LEONA          000000000030614000000000000000000000000000000000000000000000000000000000000000000000000000000000000000000000000000000368PES00010000001000000000000000000000000
202005020060010500000000000000049648000000000000000496488000000000000000000000CONSUMIDOR FINAL              000000000011400000000000000000000000000000000000000000000000000000000000000000000000000000000000000000000000000000000000PES00010000001000000000000000000000000
202005020010010400000000000000007507000000000000000075078000000000030709861189TRANSPORTE SAN GABRI          000000002000000000000000000000000000000000000000000000000000000000000000000000000000000000000000000000000000000000295105PES00010000001000000000000000000000000
202005020060010500000000000000049649000000000000000496498000000000000000000000CONSUMIDOR FINAL              000000000005000000000000000000000000000000000000000000000000000000000000000000000000000000000000000000000000000000000000PES00010000001000000000000000000000000
202005020010010100000000000000009733000000000000000097338000000000033714757429NOBEN SRL                     000000000017200000000000000000000000000000000000000000000000000000000000000000000000000000000000000000000000000000000207PES00010000001000000000000000000000000
202005020060010500000000000000049650000000000000000496508000000000000000000000CONSUMIDOR FINAL              000000000008300000000000000000000000000000000000000000000000000000000000000000000000000000000000000000000000000000005229PES00010000001000000000000000000000000
202005020010010300000000000000014130000000000000000141308000000000023136520334GOMEZ JUANA ROSA              000000000099998000000000000000000000000000000000000000000000000000000000000000000000000000000000000000000000000000013147PES00010000001000000000000000000000000
202005020060010500000000000000049651000000000000000496518000000000000000000000CONSUMIDOR FINAL              000000000010400000000000000000000000000000000000000000000000000000000000000000000000000000000000000000000000000000000000PES00010000001000000000000000000000000
202005020010010400000000000000007508000000000000000075088000000000020143590535GIL MANUEL ANTONIO            000000000559998000000000000000000000000000000000000000000000000000000000000000000000000000000000000000000000000000085108PES00010000001000000000000000000000000
202005020060010500000000000000049652000000000000000496528000000000000000000000CONSUMIDOR FINAL              000000000028700000000000000000000000000000000000000000000000000000000000000000000000000000000000000000000000000000018397PES00010000001000000000000000000000000
202005020060010500000000000000049653000000000000000496538000000000000000000000CONSUMIDOR FINAL              000000000011400000000000000000000000000000000000000000000000000000000000000000000000000000000000000000000000000000000000PES00010000001000000000000000000000000
202005020060010500000000000000049654000000000000000496548000000000000000000000CONSUMIDOR FINAL              000000000011400000000000000000000000000000000000000000000000000000000000000000000000000000000000000000000000000000000000PES00010000001000000000000000000000000
202005020010010300000000000000014131000000000000000141318000000000020341079307ZABALETA LEANDRO              000000000989999000000000000000000000000000000000000000000000000000000000000000000000000000000000000000000000000000150459PES00010000001000000000000000000000000
202005020060010500000000000000049655000000000000000496558000000000000000000000CONSUMIDOR FINAL              000000000018000000000000000000000000000000000000000000000000000000000000000000000000000000000000000000000000000000000000PES00010000001000000000000000000000000
202005020060010500000000000000049656000000000000000496568000000000000000000000CONSUMIDOR FINAL              000000000000001000000000000000000000000000000000000000000000000000000000000000000000000000000000000000000000000000000000PES00010000001000000000000000000000000
202005020060010500000000000000049657000000000000000496578000000000027391433785PERSONAL LUBRE FAMAI          000000000000800000000000000000000000000000000000000000000000000000000000000000000000000000000000000000000000000000000000PES00010000001000000000000000000000000
202005020060010500000000000000049658000000000000000496588000000000000000000000CONSUMIDOR FINAL              000000000006400000000000000000000000000000000000000000000000000000000000000000000000000000000000000000000000000000000000PES00010000001000000000000000000000000
202005020060010200000000000000027329000000000000000273298000000000000000000000CONSUMIDOR FINAL              000000000100001000000000000000000000000000000000000000000000000000000000000000000000000000000000000000000000000000019855PES00010000001000000000000000000000000
202005020010010400000000000000007509000000000000000075098000000000020128926012GUILLEN EDUARDO               000000002934519000000000000000000000000000000000000000000000000000000000000000000000000000000000000000000000000000443012PES00010000001000000000000000000000000
202005020060010700000000000000001304000000000000000013048000000000000000000000CONSUMIDOR FINAL              000000000585701000000000000000000000000000000000000000000000000000000000000000000000000000000000000000000000000000000000PES00010000001000000000000000000000000
202005020010010100000000000000009734000000000000000097348000000000020119100993FERNANDEZ EDUARDO AL          000000000022000000000000000000000000000000000000000000000000000000000000000000000000000000000000000000000000000000000264PES00010000001000000000000000000000000
202005020060010500000000000000049659000000000000000496598000000000000000000000CONSUMIDOR FINAL              000000000005000000000000000000000000000000000000000000000000000000000000000000000000000000000000000000000000000000000000PES00010000001000000000000000000000000
202005020010010100000000000000009735000000000000000097358000000000020119100993FERNANDEZ EDUARDO AL          000000000023000000000000000000000000000000000000000000000000000000000000000000000000000000000000000000000000000000000276PES00010000001000000000000000000000000
202005020060010500000000000000049660000000000000000496608000000000000000000000CONSUMIDOR FINAL              000000000003200000000000000000000000000000000000000000000000000000000000000000000000000000000000000000000000000000000000PES00010000001000000000000000000000000
202005020060010500000000000000049661000000000000000496618000000000000000000000CONSUMIDOR FINAL              000000000004000000000000000000000000000000000000000000000000000000000000000000000000000000000000000000000000000000000000PES00010000001000000000000000000000000
202005020060010500000000000000049662000000000000000496628000000000000000000000CONSUMIDOR FINAL              000000000014600000000000000000000000000000000000000000000000000000000000000000000000000000000000000000000000000000000000PES00010000001000000000000000000000000
202005020060010100000000000000013655000000000000000136558000000000000000000000CONSUMIDOR FINAL              000000000003000000000000000000000000000000000000000000000000000000000000000000000000000000000000000000000000000000000000PES00010000001000000000000000000000000
202005020010010300000000000000014132000000000000000141328000000000020213280725CARLOS TAMER                  000000000300039000000000000000000000000000000000000000000000000000000000000000000000000000000000000000000000000000045600PES00010000001000000000000000000000000
202005020060010500000000000000049663000000000000000496638000000000000000000000CONSUMIDOR FINAL              000000000011400000000000000000000000000000000000000000000000000000000000000000000000000000000000000000000000000000000000PES00010000001000000000000000000000000
202005020010010200000000000000016490000000000000000164908000000000033708194609COPAT LTDA                    000000000149998000000000000000000000000000000000000000000000000000000000000000000000000000000000000000000000000000029782PES00010000001000000000000000000000000
202005020060010500000000000000049664000000000000000496648000000000000000000000CONSUMIDOR FINAL              000000000000002000000000000000000000000000000000000000000000000000000000000000000000000000000000000000000000000000000000PES00010000001000000000000000000000000
202005020060010500000000000000049665000000000000000496658000000000000000000000CONSUMIDOR FINAL              000000000010000000000000000000000000000000000000000000000000000000000000000000000000000000000000000000000000000000000000PES00010000001000000000000000000000000
202005020060010500000000000000049666000000000000000496668000000000000000000000CONSUMIDOR FINAL              000000000005000000000000000000000000000000000000000000000000000000000000000000000000000000000000000000000000000000000000PES00010000001000000000000000000000000
202005020010010300000000000000014133000000000000000141338000000000020080040254MARTINEZ SANTAMARINA          000000000200003000000000000000000000000000000000000000000000000000000000000000000000000000000000000000000000000000026296PES00010000001000000000000000000000000
202005020060010500000000000000049667000000000000000496678000000000000000000000CONSUMIDOR FINAL              000000000042800000000000000000000000000000000000000000000000000000000000000000000000000000000000000000000000000000000000PES00010000001000000000000000000000000
202005020060010500000000000000049668000000000000000496688000000000000000000000CONSUMIDOR FINAL              000000000006100000000000000000000000000000000000000000000000000000000000000000000000000000000000000000000000000000000169PES00010000001000000000000000000000000
202005020060010500000000000000049669000000000000000496698000000000000000000000CONSUMIDOR FINAL              000000000010100000000000000000000000000000000000000000000000000000000000000000000000000000000000000000000000000000000000PES00010000001000000000000000000000000
202005020060010500000000000000049670000000000000000496708000000000027391433785PERSONAL LUBRE FAMAI          000000000003100000000000000000000000000000000000000000000000000000000000000000000000000000000000000000000000000000000000PES00010000001000000000000000000000000
202005020060010500000000000000049671000000000000000496718000000000000000000000CONSUMIDOR FINAL              000000000016600000000000000000000000000000000000000000000000000000000000000000000000000000000000000000000000000000010458PES00010000001000000000000000000000000
202005020010010500000000000000003337000000000000000033378000000000030709195251LA CELINA SRL                 000000000018500000000000000000000000000000000000000000000000000000000000000000000000000000000000000000000000000000008597PES00010000001000000000000000000000000
202005020060010500000000000000049672000000000000000496728000000000000000000000CONSUMIDOR FINAL              000000000012500000000000000000000000000000000000000000000000000000000000000000000000000000000000000000000000000000000000PES00010000001000000000000000000000000
202005020060010500000000000000049673000000000000000496738000000000000000000000CONSUMIDOR FINAL              000000000012400000000000000000000000000000000000000000000000000000000000000000000000000000000000000000000000000000000000PES00010000001000000000000000000000000
202005020060010500000000000000049674000000000000000496748000000000000000000000CONSUMIDOR FINAL              000000000008600000000000000000000000000000000000000000000000000000000000000000000000000000000000000000000000000000000000PES00010000001000000000000000000000000
202005020010010200000000000000016491000000000000000164918000000000020110641851ROMANO ANGEL MOISES           000000000170161000000000000000000000000000000000000000000000000000000000000000000000000000000000000000000000000000037881PES00010000001000000000000000000000000
202005020010010400000000000000007510000000000000000075108000000000027216358401BELMONTE GABRIELA AM          000000001199998000000000000000000000000000000000000000000000000000000000000000000000000000000000000000000000000000182374PES00010000001000000000000000000000000
202005020060010500000000000000049675000000000000000496758000000000000000000000CONSUMIDOR FINAL              000000000000001000000000000000000000000000000000000000000000000000000000000000000000000000000000000000000000000000000000PES00010000001000000000000000000000000
202005020060010500000000000000049676000000000000000496768000000000000000000000CONSUMIDOR FINAL              000000000022800000000000000000000000000000000000000000000000000000000000000000000000000000000000000000000000000000000000PES00010000001000000000000000000000000
202005020060010200000000000000027330000000000000000273308000000000000000000000CONSUMIDOR FINAL              000000000100000000000000000000000000000000000000000000000000000000000000000000000000000000000000000000000000000000022262PES00010000001000000000000000000000000
202005020060010500000000000000049677000000000000000496778000000000000000000000CONSUMIDOR FINAL              000000000056400000000000000000000000000000000000000000000000000000000000000000000000000000000000000000000000000000027702PES00010000001000000000000000000000000
202005020060010200000000000000027331000000000000000273318000000000000000000000CONSUMIDOR FINAL              000000000030002000000000000000000000000000000000000000000000000000000000000000000000000000000000000000000000000000006679PES00010000001000000000000000000000000
202005020010010300000000000000014134000000000000000141348000000000030715284371TORRES SOSA SRL               000000000150003000000000000000000000000000000000000000000000000000000000000000000000000000000000000000000000000000033393PES00010000001000000000000000000000000
202005020060010100000000000000013656000000000000000136568000000000000000000000CONSUMIDOR FINAL              000000000130017000000000000000000000000000000000000000000000000000000000000000000000000000000000000000000000000000025815PES00010000001000000000000000000000000
202005020060010500000000000000049678000000000000000496788000000000000000000000CONSUMIDOR FINAL              000000000027000000000000000000000000000000000000000000000000000000000000000000000000000000000000000000000000000000000000PES00010000001000000000000000000000000
202005020010010300000000000000014135000000000000000141358000000000020186098979LUIS RUIZ TORRES              000000000099998000000000000000000000000000000000000000000000000000000000000000000000000000000000000000000000000000013147PES00010000001000000000000000000000000
202005020060010100000000000000013657000000000000000136578000000000000000000000CONSUMIDOR FINAL              000000000100000000000000000000000000000000000000000000000000000000000000000000000000000000000000000000000000000000022262PES00010000001000000000000000000000000
202005020060010500000000000000049679000000000000000496798000000000000000000000CONSUMIDOR FINAL              000000000020001000000000000000000000000000000000000000000000000000000000000000000000000000000000000000000000000000000000PES00010000001000000000000000000000000
202005020060010500000000000000049680000000000000000496808000000000000000000000CONSUMIDOR FINAL              000000000022801000000000000000000000000000000000000000000000000000000000000000000000000000000000000000000000000000000000PES00010000001000000000000000000000000
202005020060010200000000000000027332000000000000000273328000000000000000000000CONSUMIDOR FINAL              000000000230001000000000000000000000000000000000000000000000000000000000000000000000000000000000000000000000000000051202PES00010000001000000000000000000000000
202005020060010200000000000000027333000000000000000273338000000000000000000000CONSUMIDOR FINAL              000000000050003000000000000000000000000000000000000000000000000000000000000000000000000000000000000000000000000000011131PES00010000001000000000000000000000000
202005020060010500000000000000049681000000000000000496818000000000000000000000CONSUMIDOR FINAL              000000000027000000000000000000000000000000000000000000000000000000000000000000000000000000000000000000000000000000017195PES00010000001000000000000000000000000
202005020060010500000000000000049682000000000000000496828000000000027391433785PERSONAL LUBRE FAMAI          000000000007000000000000000000000000000000000000000000000000000000000000000000000000000000000000000000000000000000000000PES00010000001000000000000000000000000
202005020060010500000000000000049683000000000000000496838000000000027391433785PERSONAL LUBRE FAMAI          000000000013000000000000000000000000000000000000000000000000000000000000000000000000000000000000000000000000000000000000PES00010000001000000000000000000000000
202005020060010500000000000000049684000000000000000496848000000000000000000000CONSUMIDOR FINAL              000000000021301000000000000000000000000000000000000000000000000000000000000000000000000000000000000000000000000000000123PES00010000001000000000000000000000000
202005020060010500000000000000049685000000000000000496858000000000000000000000CONSUMIDOR FINAL              000000000013500000000000000000000000000000000000000000000000000000000000000000000000000000000000000000000000000000008597PES00010000001000000000000000000000000
202005020060010500000000000000049686000000000000000496868000000000000000000000CONSUMIDOR FINAL              000000000015600000000000000000000000000000000000000000000000000000000000000000000000000000000000000000000000000000009963PES00010000001000000000000000000000000
202005020010010400000000000000007511000000000000000075118000000000020281244923DAOUA GUSTAVO DANIEL          000000001000002000000000000000000000000000000000000000000000000000000000000000000000000000000000000000000000000000151979PES00010000001000000000000000000000000
202005020060010500000000000000049687000000000000000496878000000000000000000000CONSUMIDOR FINAL              000000000060700000000000000000000000000000000000000000000000000000000000000000000000000000000000000000000000000000038798PES00010000001000000000000000000000000
202005020060010500000000000000049688000000000000000496888000000000000000000000**ANULADA**                   000000000000000000000000000000000000000000000000000000000000000000000000000000000000000000000000000000000000000000000000PES00010000001N00000000000000000000000
202005020060010500000000000000049689000000000000000496898000000000000000000000**ANULADA**                   000000000000000000000000000000000000000000000000000000000000000000000000000000000000000000000000000000000000000000000000PES00010000001N00000000000000000000000
202005020060010500000000000000049690000000000000000496908000000000000000000000CONSUMIDOR FINAL              000000000007500000000000000000000000000000000000000000000000000000000000000000000000000000000000000000000000000000004941PES00010000001000000000000000000000000
202005020060010500000000000000049691000000000000000496918000000000000000000000CONSUMIDOR FINAL              000000000071100000000000000000000000000000000000000000000000000000000000000000000000000000000000000000000000000000045534PES00010000001000000000000000000000000
202005020060010100000000000000013658000000000000000136588000000000000000000000CONSUMIDOR FINAL              000000000015419000000000000000000000000000000000000000000000000000000000000000000000000000000000000000000000000000000185PES00010000001000000000000000000000000
202005020060010500000000000000049692000000000000000496928000000000000000000000**ANULADA**                   000000000000000000000000000000000000000000000000000000000000000000000000000000000000000000000000000000000000000000000000PES00010000001N00000000000000000000000
202005020060010500000000000000049693000000000000000496938000000000000000000000CONSUMIDOR FINAL              000000000023000000000000000000000000000000000000000000000000000000000000000000000000000000000000000000000000000000014953PES00010000001000000000000000000000000
202005020060010500000000000000049694000000000000000496948000000000000000000000CONSUMIDOR FINAL              000000000019600000000000000000000000000000000000000000000000000000000000000000000000000000000000000000000000000000000169PES00010000001000000000000000000000000
202005020060010100000000000000013659000000000000000136598000000000000000000000CONSUMIDOR FINAL              000000000040002000000000000000000000000000000000000000000000000000000000000000000000000000000000000000000000000000008905PES00010000001000000000000000000000000
202005020060010300000000000000020901000000000000000209018000000000000000000000CONSUMIDOR FINAL              000000000030002000000000000000000000000000000000000000000000000000000000000000000000000000000000000000000000000000006679PES00010000001000000000000000000000000
202005020010010200000000000000016492000000000000000164928000000000020376581749LAZARTE JUAN IGNACIO          000000000099998000000000000000000000000000000000000000000000000000000000000000000000000000000000000000000000000000013147PES00010000001000000000000000000000000
202005020010010700000000000000000806000000000000000008068000000000020272987786MENA FERNANDO                 000000001705001000000000000000000000000000000000000000000000000000000000000000000000000000000000000000000000000000000000PES00010000001000000000000000000000000
202005020060010500000000000000049695000000000000000496958000000000000000000000CONSUMIDOR FINAL              000000000029400000000000000000000000000000000000000000000000000000000000000000000000000000000000000000000000000000018893PES00010000001000000000000000000000000
202005020010010200000000000000016493000000000000000164938000000000020115093313ROBLEDO HECTOR HORLA          000000000099998000000000000000000000000000000000000000000000000000000000000000000000000000000000000000000000000000013147PES00010000001000000000000000000000000
202005020060010500000000000000049696000000000000000496968000000000000000000000CONSUMIDOR FINAL              000000000033900000000000001500000000000000000000000000000000000000000000000000000000000000000000000000000000000000021015PES00010000001000000000000000000000000
202005020060010700000000000000001305000000000000000013058000000000000000000000CONSUMIDOR FINAL              000000000520201000000000000000000000000000000000000000000000000000000000000000000000000000000000000000000000000000000000PES00010000001000000000000000000000000
202005020010010100000000000000009736000000000000000097368000000000030714516899AGRO ACONQUIJA S.R.L          000000000021956000000000000000000000000000000000000000000000000000000000000000000000000000000000000000000000000000000264PES00010000001000000000000000000000000
202005020060010300000000000000020902000000000000000209028000000000000000000000CONSUMIDOR FINAL              000000000099998000000000000000000000000000000000000000000000000000000000000000000000000000000000000000000000000000015198PES00010000001000000000000000000000000
202005020060010500000000000000049697000000000000000496978000000000000000000000CONSUMIDOR FINAL              000000000010000000000000000000000000000000000000000000000000000000000000000000000000000000000000000000000000000000000000PES00010000001000000000000000000000000
202005020060010500000000000000049698000000000000000496988000000000000000000000CONSUMIDOR FINAL              000000000016400000000000000000000000000000000000000000000000000000000000000000000000000000000000000000000000000000000000PES00010000001000000000000000000000000
202005020060010200000000000000027334000000000000000273348000000000000000000000CONSUMIDOR FINAL              000000000050003000000000000000000000000000000000000000000000000000000000000000000000000000000000000000000000000000011131PES00010000001000000000000000000000000
202005020060010100000000000000013660000000000000000136608000000000000000000000CONSUMIDOR FINAL              000000000040002000000000000000000000000000000000000000000000000000000000000000000000000000000000000000000000000000008905PES00010000001000000000000000000000000
202005020060010300000000000000020903000000000000000209038000000000000000000000CONSUMIDOR FINAL              000000000190109000000000000000000000000000000000000000000000000000000000000000000000000000000000000000000000000000037746PES00010000001000000000000000000000000
202005020060010500000000000000049699000000000000000496998000000000000000000000CONSUMIDOR FINAL              000000000006100000000000000000000000000000000000000000000000000000000000000000000000000000000000000000000000000000000169PES00010000001000000000000000000000000
202005020010010400000000000000007512000000000000000075128000000000020338190841JOSE MIGUEL YERNA             000000001000002000000000000000000000000000000000000000000000000000000000000000000000000000000000000000000000000000151979PES00010000001000000000000000000000000
202005020060010500000000000000049700000000000000000497008000000000000000000000CONSUMIDOR FINAL              000000000085700000000000000000000000000000000000000000000000000000000000000000000000000000000000000000000000000000054563PES00010000001000000000000000000000000
202005020060010100000000000000013661000000000000000136618000000000000000000000CONSUMIDOR FINAL              000000000480082000000000000000000000000000000000000000000000000000000000000000000000000000000000000000000000000000106874PES00010000001000000000000000000000000
202005020060010100000000000000013662000000000000000136628000000000000000000000CONSUMIDOR FINAL              000000000050017000000000000000000000000000000000000000000000000000000000000000000000000000000000000000000000000000009931PES00010000001000000000000000000000000
202005020060010500000000000000049701000000000000000497018000000000000000000000CONSUMIDOR FINAL              000000000135000000000000000000000000000000000000000000000000000000000000000000000000000000000000000000000000000000085973PES00010000001000000000000000000000000
202005020060010500000000000000049702000000000000000497028000000000000000000000CONSUMIDOR FINAL              000000000004000000000000000000000000000000000000000000000000000000000000000000000000000000000000000000000000000000000000PES00010000001000000000000000000000000
202005020010010200000000000000016494000000000000000164948000000000027213324441GRANERO ANA MARIA             000000000100000000000000000000000000000000000000000000000000000000000000000000000000000000000000000000000000000000022262PES00010000001000000000000000000000000
202005020010010400000000000000007513000000000000000075138000000000020338190841JOSE MIGUEL YERNA             000000001000002000000000000000000000000000000000000000000000000000000000000000000000000000000000000000000000000000151979PES00010000001000000000000000000000000
202005020060010500000000000000049703000000000000000497038000000000000000000000CONSUMIDOR FINAL              000000000014700000000000000000000000000000000000000000000000000000000000000000000000000000000000000000000000000000009446PES00010000001000000000000000000000000
202005020060010200000000000000027335000000000000000273358000000000000000000000CONSUMIDOR FINAL              000000000139997000000000000000000000000000000000000000000000000000000000000000000000000000000000000000000000000000027796PES00010000001000000000000000000000000
202005020060010500000000000000049704000000000000000497048000000000000000000000CONSUMIDOR FINAL              000000000014600000000000000000000000000000000000000000000000000000000000000000000000000000000000000000000000000000000000PES00010000001000000000000000000000000
202005020010010300000000000000014136000000000000000141368000000000030639041545AGRO CARGAS SA                000000000390016000000000000000000000000000000000000000000000000000000000000000000000000000000000000000000000000000051278PES00010000001000000000000000000000000
202005020010010200000000000000016495000000000000000164958000000000020172682058VELIZ SERGIO RENE             000000000249299000000000000000000000000000000000000000000000000000000000000000000000000000000000000000000000000000032777PES00010000001000000000000000000000000
202005020010010300000000000000014137000000000000000141378000000000020084466841GUILLERMO VICENTE SA          000000000446432000000000000000000000000000000000000000000000000000000000000000000000000000000000000000000000000000067848PES00010000001000000000000000000000000
202005020060010500000000000000049705000000000000000497058000000000000000000000CONSUMIDOR FINAL              000000000020001000000000000000000000000000000000000000000000000000000000000000000000000000000000000000000000000000000000PES00010000001000000000000000000000000
202005020010010200000000000000016496000000000000000164968000000000030639227096INTRA SRL                     000000000300037000000000000000000000000000000000000000000000000000000000000000000000000000000000000000000000000000059572PES00010000001000000000000000000000000
202005020060010200000000000000027336000000000000000273368000000000000000000000CONSUMIDOR FINAL              000000000130002000000000000000000000000000000000000000000000000000000000000000000000000000000000000000000000000000028940PES00010000001000000000000000000000000
202005020060010500000000000000049706000000000000000497068000000000000000000000CONSUMIDOR FINAL              000000000021000000000000000000000000000000000000000000000000000000000000000000000000000000000000000000000000000000013538PES00010000001000000000000000000000000
202005020060010500000000000000049707000000000000000497078000000000027391433785PERSONAL LUBRE FAMAI          000000000022015000000000003500000000000000000000000000000000000000000000000000000000000000000000000000000000000000000169PES00010000001000000000000000000000000
202005020060010500000000000000049708000000000000000497088000000000000000000000CONSUMIDOR FINAL              000000000000001000000000000000000000000000000000000000000000000000000000000000000000000000000000000000000000000000000000PES00010000001000000000000000000000000
202005020060010200000000000000027337000000000000000273378000000000000000000000CONSUMIDOR FINAL              000000000272044000000000000000000000000000000000000000000000000000000000000000000000000000000000000000000000000000037914PES00010000001000000000000000000000000
202005020060010300000000000000020904000000000000000209048000000000000000000000CONSUMIDOR FINAL              000000000330001000000000000000000000000000000000000000000000000000000000000000000000000000000000000000000000000000073464PES00010000001000000000000000000000000
202005020060010500000000000000049709000000000000000497098000000000027391433785PERSONAL LUBRE FAMAI          000000000010000000000000007000000000000000000000000000000000000000000000000000000000000000000000000000000000000000000000PES00010000001000000000000000000000000
202005020010010200000000000000016497000000000000000164978000000000020255430654CESCA JOSE LUIS (LAR          000000000099998000000000000000000000000000000000000000000000000000000000000000000000000000000000000000000000000000015198PES00010000001000000000000000000000000
202005020060010500000000000000049710000000000000000497108000000000000000000000CONSUMIDOR FINAL              000000000292000000000000000000000000000000000000000000000000000000000000000000000000000000000000000000000000000000180990PES00010000001000000000000000000000000
202005020060010500000000000000049711000000000000000497118000000000027391433785PERSONAL LUBRE FAMAI          000000000017905000000000000000000000000000000000000000000000000000000000000000000000000000000000000000000000000000000169PES00010000001000000000000000000000000
202005020060010300000000000000020905000000000000000209058000000000000000000000CONSUMIDOR FINAL              000000000020900000000000000000000000000000000000000000000000000000000000000000000000000000000000000000000000000000000000PES00010000001000000000000000000000000
202005020060010500000000000000049712000000000000000497128000000000000000000000CONSUMIDOR FINAL              000000000005000000000000000000000000000000000000000000000000000000000000000000000000000000000000000000000000000000000000PES00010000001000000000000000000000000
