202008140010011000000000000000001261000000000000000012618000000000030504549328INGECO S.A.                   000000164375480-00000000000106000000000000000000000000000000000000000000000000000000000000000000000000000000000029448970PES00010000001000000000000000000000000
202008270060010500000000000000073595000000000000000735959600000000000012345678Consumidor Final              000000005390011000000000014302000000000000000000000000000000000000000000000000000000000000000000000000000000000000379598PES00010000002000000000000000000000000
202008280010011000000000000000001317000000000000000013178000000000030710423292TRANSPORTADORA MINER          000000144975000-00000000000105000000000000000000000000000000000000000000000000000000000000000000000000000000000026237500PES00010000001000000000000000000000000
202008070060010500000000000000069265000000000000000694679600000000000012345678Consumidor Final              000000005396855000000000030202000000000000000000000000000000000000000000000000000000000000000000000000000000000000327804PES00010000002000000000000000000000000
202008100060010500000000000000069802000000000000000699849600000000000012345678Consumidor Final              000000004375961000000000028102000000000000000000000000000000000000000000000000000000000000000000000000000000000000463080PES00010000002000000000000000000000000
202008120060010500000000000000070222000000000000000703619600000000000012345678Consumidor Final              000000002878861000000000005199000000000000000000000000000000000000000000000000000000000000000000000000000000000000219936PES00010000002000000000000000000000000
202008120060010500000000000000070363000000000000000704369600000000000012345678Consumidor Final              000000001816500000000000004700000000000000000000000000000000000000000000000000000000000000000000000000000000000000198052PES00010000002000000000000000000000000
202008040010010100000000000000011540000000000000000115408000000000023258573889HAEL JUAN ESTEBAN             000000000250072000000000000000000000000000000000000000000000000000000000000000000000000000000000000000000000000000059082PES00010000001000000000000000000000000
202008190010010100000000000000000002000000000000000000028000000000030716256312RP CONSTRUCCIONES SR          000000000019999000000000000000000000000000000000000000000000000000000000000000000000000000000000000000000000000000002805PES00010000001000000000000000000000000
202008010010010100000000000000011485000000000000000114858000000000033714757429NOBEN SRL                     000000000033003000000000000000000000000000000000000000000000000000000000000000000000000000000000000000000000000000000396PES00010000001000000000000000000000000
202008010010010100000000000000011486000000000000000114868000000000027261096116ACOSTA ELSA                   000000000300005000000000000000000000000000000000000000000000000000000000000000000000000000000000000000000000000000043940PES00010000001000000000000000000000000
202008010010010100000000000000011487000000000000000114878000000000027110318303SALAZAR ESTELA DEL V          000000000100000000000000000000000000000000000000000000000000000000000000000000000000000000000000000000000000000000023626PES00010000001000000000000000000000000
202008010010010100000000000000011488000000000000000114888000000000030685646389VITRASERV SRL                 000000000149999000000000000000000000000000000000000000000000000000000000000000000000000000000000000000000000000000021969PES00010000001000000000000000000000000
202008010010010100000000000000011489000000000000000114898000000000020053969985MORALES MARIO RUFINO          000000000200002000000000000000000000000000000000000000000000000000000000000000000000000000000000000000000000000000029294PES00010000001000000000000000000000000
202008010010010100000000000000011490000000000000000114908000000000030714014346NORTE DISTRIBUCIONES          000000000300005000000000000000000000000000000000000000000000000000000000000000000000000000000000000000000000000000043940PES00010000001000000000000000000000000
202008010010010100000000000000011491000000000000000114918000000000020082467476RODRIGUEZ JOSE RAMON          000000000200002000000000000000000000000000000000000000000000000000000000000000000000000000000000000000000000000000029294PES00010000001000000000000000000000000
202008010010010100000000000000011492000000000000000114928000000000030714782130S.B.CONSTRUCCIONES S          000000000200002000000000000000000000000000000000000000000000000000000000000000000000000000000000000000000000000000029294PES00010000001000000000000000000000000
202008010010010100000000000000011493000000000000000114938000000000030715950134EL TUCUMANITO BUS SA          000000000260217000000000000000000000000000000000000000000000000000000000000000000000000000000000000000000000000000038112PES00010000001000000000000000000000000
202008010010010100000000000000011494000000000000000114948000000000030675251025BIO TUC SRL                   000000000468007000000000000000000000000000000000000000000000000000000000000000000000000000000000000000000000000000068546PES00010000001000000000000000000000000
202008010010010100000000000000011495000000000000000114958000000000020208985761PABLO ROBIN                   000000000099997000000000000000000000000000000000000000000000000000000000000000000000000000000000000000000000000000014646PES00010000001000000000000000000000000
202008010010010100000000000000011496000000000000000114968000000000030657865725GASNOR SA                     000000000025001000000000000000000000000000000000000000000000000000000000000000000000000000000000000000000000000000000300PES00010000001000000000000000000000000
202008010010010100000000000000011497000000000000000114978000000000030710502818KILOMETRO 14 SRL              000000000100000000000000000000000000000000000000000000000000000000000000000000000000000000000000000000000000000000023626PES00010000001000000000000000000000000
202008010010010100000000000000011498000000000000000114988000000000020224292016FIGUEROA OSVALDO REN          000000000025001000000000000000000000000000000000000000000000000000000000000000000000000000000000000000000000000000000300PES00010000001000000000000000000000000
2020080100100101000000000000000114990000000000000001149980000000000307164338343 Y AGROSERVICIOS SR          000000000480044000000000000000000000000000000000000000000000000000000000000000000000000000000000000000000000000000070309PES00010000001000000000000000000000000
202008010010010100000000000000011500000000000000000115008000000000024322814298GUSTAVO CASTILLO              000000000480008000000000000000000000000000000000000000000000000000000000000000000000000000000000000000000000000000101145PES00010000001000000000000000000000000
202008010010010100000000000000011501000000000000000115018000000000020341328641GONZALO MARTIN ERAZZ          000000000199999000000000000000000000000000000000000000000000000000000000000000000000000000000000000000000000000000047251PES00010000001000000000000000000000000
202008020010010100000000000000011502000000000000000115028000000000030710735537R.V INGENIERIA S.R.L          000000000021806000000000000000000000000000000000000000000000000000000000000000000000000000000000000000000000000000000262PES00010000001000000000000000000000000
202008020010010100000000000000011503000000000000000115038000000000020130068023JUAN VALDEZ                   000000000012999000000000000000000000000000000000000000000000000000000000000000000000000000000000000000000000000000000156PES00010000001000000000000000000000000
202008020010010100000000000000011504000000000000000115048000000000027257855509PORRICIELO ARIANA MA          000000000409028000000000000000000000000000000000000000000000000000000000000000000000000000000000000000000000000000059908PES00010000001000000000000000000000000
202008020010010100000000000000011505000000000000000115058000000000020122578535RAMON EDUARDO ALBORN          000000000149999000000000000000000000000000000000000000000000000000000000000000000000000000000000000000000000000000021969PES00010000001000000000000000000000000
202008020010010100000000000000011506000000000000000115068000000000027310018916ARGOTA CLAUDIA                000000000050003000000000000000000000000000000000000000000000000000000000000000000000000000000000000000000000000000011813PES00010000001000000000000000000000000
202008020010010100000000000000011507000000000000000115078000000000020257400906ROLDAN RUBEN EDUARDO          000000000049997000000000000000000000000000000000000000000000000000000000000000000000000000000000000000000000000000008465PES00010000001000000000000000000000000
202008020010010100000000000000011508000000000000000115088000000000020277510953IBANEZ CLAUDIO LEONA          000000000021036000000000000000000000000000000000000000000000000000000000000000000000000000000000000000000000000000000253PES00010000001000000000000000000000000
202008020010010100000000000000011509000000000000000115098000000000030675379013CORRESNOA                     000000000030026000000000000000000000000000000000000000000000000000000000000000000000000000000000000000000000000000007094PES00010000001000000000000000000000000
202008030010010100000000000000011510000000000000000115108000000000020291030735MEDINA JOSE ROLANDO           000000000300490000000000000000000000000000000000000000000000000000000000000000000000000000000000000000000000000000038087PES00010000001000000000000000000000000
202008030010010100000000000000011511000000000000000115118000000000020289542257GOMEZ ANGEL ARIEL             000000000015000000000000000000000000000000000000000000000000000000000000000000000000000000000000000000000000000000000180PES00010000001000000000000000000000000
202008030010010100000000000000011512000000000000000115128000000000020160911388YSA VICTOR HUGO               000000000200002000000000000000000000000000000000000000000000000000000000000000000000000000000000000000000000000000029294PES00010000001000000000000000000000000
202008030010010100000000000000011513000000000000000115138000000000030716383659LOS CARDOS SAS                000000000130024000000000000000000000000000000000000000000000000000000000000000000000000000000000000000000000000000019044PES00010000001000000000000000000000000
202008030010010100000000000000011514000000000000000115148000000000020277220114PEREZ PEDRO JOSE              000000000185681000000000000000000000000000000000000000000000000000000000000000000000000000000000000000000000000000043869PES00010000001000000000000000000000000
202008030010010100000000000000011515000000000000000115158000000000020376581749LAZARTE JUAN IGNACIO          000000000059998000000000000000000000000000000000000000000000000000000000000000000000000000000000000000000000000000014174PES00010000001000000000000000000000000
202008030010010100000000000000011516000000000000000115168000000000030714516899AGRO ACONQUIJA S.R.L          000000000023001000000000000000000000000000000000000000000000000000000000000000000000000000000000000000000000000000000276PES00010000001000000000000000000000000
202008030010010100000000000000011517000000000000000115178000000000027257855509PORRICIELLO ARIANA M          000000000350000000000000000000000000000000000000000000000000000000000000000000000000000000000000000000000000000000051263PES00010000001000000000000000000000000
202008030010010100000000000000011518000000000000000115188000000000020110317396MOLINA CARLOS ANTONI          000000000050003000000000000000000000000000000000000000000000000000000000000000000000000000000000000000000000000000011813PES00010000001000000000000000000000000
202008030010010100000000000000011519000000000000000115198000000000030711523274MIXER SA                      000000000026646000000000000000000000000000000000000000000000000000000000000000000000000000000000000000000000000000000320PES00010000001000000000000000000000000
202008030010010100000000000000011520000000000000000115208000000000020355194613CISTERNA MARTIN NAHU          000000000032000000000000000000000000000000000000000000000000000000000000000000000000000000000000000000000000000000000384PES00010000001000000000000000000000000
202008030010010100000000000000011521000000000000000115218000000000030521797904COOPERATIVA CAMPO DE          000000000038199000000000000000000000000000000000000000000000000000000000000000000000000000000000000000000000000000000459PES00010000001000000000000000000000000
202008030010010100000000000000011522000000000000000115228000000000020175264486AGUERA JUAN ANTONIO           000000000012999000000000000000000000000000000000000000000000000000000000000000000000000000000000000000000000000000000156PES00010000001000000000000000000000000
202008030010010100000000000000011523000000000000000115238000000000020175264486AGUERA JUAN ANTONIO           000000000015000000000000000000000000000000000000000000000000000000000000000000000000000000000000000000000000000000000180PES00010000001000000000000000000000000
202008030010010100000000000000011524000000000000000115248000000000023333753944SONIA CARDOZO                 000000000200002000000000000000000000000000000000000000000000000000000000000000000000000000000000000000000000000000042143PES00010000001000000000000000000000000
202008030010010100000000000000011525000000000000000115258000000000033714757429NOBEN SRL                     000000000032000000000000000000000000000000000000000000000000000000000000000000000000000000000000000000000000000000000384PES00010000001000000000000000000000000
202008030010010100000000000000011526000000000000000115268000000000020201605629ARGANARAZ SERGIO EMI          000000000500005000000000000000000000000000000000000000000000000000000000000000000000000000000000000000000000000000084652PES00010000001000000000000000000000000
202008030010010100000000000000011527000000000000000115278000000000030649695365ROSSO HNOS SA                 000000000031259000000000000000000000000000000000000000000000000000000000000000000000000000000000000000000000000000000375PES00010000001000000000000000000000000
202008040010010100000000000000011528000000000000000115288000000000027258440450GARZON ELIANA                 000000000015000000000000000000000000000000000000000000000000000000000000000000000000000000000000000000000000000000000180PES00010000001000000000000000000000000
202008040010010100000000000000011529000000000000000115298000000000030675286511EYPO S.R.L                    000000000049997000000000000000000000000000000000000000000000000000000000000000000000000000000000000000000000000000008465PES00010000001000000000000000000000000
202008040010010100000000000000011530000000000000000115308000000000030711729816CEDELA S.A.                   000000000149999000000000000000000000000000000000000000000000000000000000000000000000000000000000000000000000000000021969PES00010000001000000000000000000000000
202008040010010100000000000000011531000000000000000115318000000000030578071977ROSARIO AGRO INDUSTR          000000000260021000000000000000000000000000000000000000000000000000000000000000000000000000000000000000000000000000061432PES00010000001000000000000000000000000
202008040010010100000000000000011532000000000000000115328000000000020279448848GALVEZ RODRIGO                000000000021001000000000000000000000000000000000000000000000000000000000000000000000000000000000000000000000000000000252PES00010000001000000000000000000000000
202008040010010100000000000000011533000000000000000115338000000000033711942349CONCISA SRL                   000000000220019000000000000000000000000000000000000000000000000000000000000000000000000000000000000000000000000000037250PES00010000001000000000000000000000000
202008040010010100000000000000011534000000000000000115348000000000020202850015COCIMANO BAUZA ALFRE          000000001035155000000000000000000000000000000000000000000000000000000000000000000000000000000000000000000000000000151613PES00010000001000000000000000000000000
202008040010010100000000000000011535000000000000000115358000000000020289542257GOMEZ ANGEL ARIEL             000000000014002000000000000000000000000000000000000000000000000000000000000000000000000000000000000000000000000000000168PES00010000001000000000000000000000000
202008040010010100000000000000011536000000000000000115368000000000020290105715MAZZA DAVID FERNANDO          000000000350000000000000000000000000000000000000000000000000000000000000000000000000000000000000000000000000000000051263PES00010000001000000000000000000000000
202008040010010100000000000000011537000000000000000115378000000000030715533665ALCIVET S.R.L                 000000000270026000000000000000000000000000000000000000000000000000000000000000000000000000000000000000000000000000056899PES00010000001000000000000000000000000
202008040010010100000000000000011538000000000000000115388000000000020240591805FIGUEROA JUAN SANTIA          000000000027002000000000000000000000000000000000000000000000000000000000000000000000000000000000000000000000000000000324PES00010000001000000000000000000000000
202008040010010100000000000000011539000000000000000115398000000000020279448848GALVEZ RODRIGO                000000000019998000000000000000000000000000000000000000000000000000000000000000000000000000000000000000000000000000000240PES00010000001000000000000000000000000
202008040010010100000000000000011541000000000000000115418000000000020175264486AGUERA JUAN ANTONIO           000000000017997000000000000000000000000000000000000000000000000000000000000000000000000000000000000000000000000000000216PES00010000001000000000000000000000000
202008040010010100000000000000011542000000000000000115428000000000020175264486AGUERA JUAN ANTONIO           000000000020001000000000000000000000000000000000000000000000000000000000000000000000000000000000000000000000000000004726PES00010000001000000000000000000000000
202008040010010100000000000000011543000000000000000115438000000000020278752152MANCILLA JORGE ANTON          000000000300005000000000000000000000000000000000000000000000000000000000000000000000000000000000000000000000000000043940PES00010000001000000000000000000000000
202008040010010100000000000000011544000000000000000115448000000000030714516899AGRO ACONQUIJA S.R.L          000000000036678000000000000000000000000000000000000000000000000000000000000000000000000000000000000000000000000000000441PES00010000001000000000000000000000000
202008040010010100000000000000011545000000000000000115458000000000020286816348SANCHEZ ARIEL ARNALD          000000000033003000000000000000000000000000000000000000000000000000000000000000000000000000000000000000000000000000000396PES00010000001000000000000000000000000
202008040010010100000000000000011546000000000000000115468000000000033710082389PODA VERDE SRL                000000000032000000000000000000000000000000000000000000000000000000000000000000000000000000000000000000000000000000000384PES00010000001000000000000000000000000
202008040010010100000000000000011547000000000000000115478000000000020277510953IBANEZ CLAUDIO LEONA          000000000030863000000000000000000000000000000000000000000000000000000000000000000000000000000000000000000000000000000371PES00010000001000000000000000000000000
202008040010010100000000000000011548000000000000000115488000000000020255430654JOSE LUIS CESCA (COR          000000000410006000000000000000000000000000000000000000000000000000000000000000000000000000000000000000000000000000060051PES00010000001000000000000000000000000
202008040010010100000000000000011549000000000000000115498000000000027161756690NAMUR MARIA DE LOS A          000000000209038000000000000000000000000000000000000000000000000000000000000000000000000000000000000000000000000000049387PES00010000001000000000000000000000000
202008040010010100000000000000011550000000000000000115508000000000020262425151QUINTEROS ROBERTO NI          000000000149999000000000000000000000000000000000000000000000000000000000000000000000000000000000000000000000000000021969PES00010000001000000000000000000000000
202008040010010100000000000000011551000000000000000115518000000000020144797117LAZARTI HECTOR RUBEN          000000000224064000000000000000000000000000000000000000000000000000000000000000000000000000000000000000000000000000047214PES00010000001000000000000000000000000
202008040010010100000000000000011552000000000000000115528000000000020213280725CARLOS TAMER                  000000000245099000000000000000000000000000000000000000000000000000000000000000000000000000000000000000000000000000041496PES00010000001000000000000000000000000
202008040010010100000000000000011553000000000000000115538000000000020277510953IBANEZ CLAUDIO LEONA          000000000022400000000000000000000000000000000000000000000000000000000000000000000000000000000000000000000000000000000269PES00010000001000000000000000000000000
202008050010010100000000000000011554000000000000000115548000000000030691734915LINE UP                       000000000100000000000000000000000000000000000000000000000000000000000000000000000000000000000000000000000000000000023626PES00010000001000000000000000000000000
202008050010010100000000000000011555000000000000000115558000000000030691743647AGROSISTEMAS SRL              000000000397374000000000000000000000000000000000000000000000000000000000000000000000000000000000000000000000000000054195PES00010000001000000000000000000000000
202008050010010100000000000000011556000000000000000115568000000000030714516899AGRO ACONQUIJA S.R.L          000000000042019000000000000000000000000000000000000000000000000000000000000000000000000000000000000000000000000000000176PES00010000001000000000000000000000000
202008050010010100000000000000011557000000000000000115578000000000030714278602CREDIFLASH                    000000000030000000000000000000000000000000000000000000000000000000000000000000000000000000000000000000000000000000000360PES00010000001000000000000000000000000
202008050010010100000000000000011558000000000000000115588000000000030711668116MC KREDIT S.R.L EN F          000000000015000000000000000000000000000000000000000000000000000000000000000000000000000000000000000000000000000000000180PES00010000001000000000000000000000000
202008050010010100000000000000011559000000000000000115598000000000020208985761PABLO ROBIN                   000000000200002000000000000000000000000000000000000000000000000000000000000000000000000000000000000000000000000000029294PES00010000001000000000000000000000000
202008050010010100000000000000011560000000000000000115608000000000020279448848GALVEZ RODRIGO                000000000024500000000000000000000000000000000000000000000000000000000000000000000000000000000000000000000000000000000294PES00010000001000000000000000000000000
202008050010010100000000000000011561000000000000000115618000000000020143520618JOSE ALBERTO DE LA V          000000000041541000000000000000000000000000000000000000000000000000000000000000000000000000000000000000000000000000000499PES00010000001000000000000000000000000
202008050010010100000000000000011562000000000000000115628000000000030712478817ALINOA SA                     000000000061003000000000000000000000000000000000000000000000000000000000000000000000000000000000000000000000000000000733PES00010000001000000000000000000000000
202008050010010100000000000000011563000000000000000115638000000000023344439109REDING JORGE                  000000000216076000000000000000000000000000000000000000000000000000000000000000000000000000000000000000000000000000051049PES00010000001000000000000000000000000
202008050010010100000000000000011564000000000000000115648000000000027264052071SILVINA DEL ROSARIO           000000000099997000000000000000000000000000000000000000000000000000000000000000000000000000000000000000000000000000014646PES00010000001000000000000000000000000
202008050010010100000000000000011565000000000000000115658000000000027257855509PORRICIELLO ARIANA M          000000000200002000000000000000000000000000000000000000000000000000000000000000000000000000000000000000000000000000029294PES00010000001000000000000000000000000
202008050010010100000000000000011566000000000000000115668000000000020419824004ROLDAN TOBIAS GASTON          000000000110006000000000000000000000000000000000000000000000000000000000000000000000000000000000000000000000000000023180PES00010000001000000000000000000000000
202008050010010100000000000000011567000000000000000115678000000000020170946430RAMIRO ESTEBAN GUERR          000000000061498000000000000000000000000000000000000000000000000000000000000000000000000000000000000000000000000000000739PES00010000001000000000000000000000000
202008050010010100000000000000011568000000000000000115688000000000020108347989LUIS EDUARDO MARTINE          000000000220070000000000000000000000000000000000000000000000000000000000000000000000000000000000000000000000000000046372PES00010000001000000000000000000000000
202008050010010100000000000000011569000000000000000115698000000000030711523274MIXER SA                      000000000031399000000000000000000000000000000000000000000000000000000000000000000000000000000000000000000000000000000377PES00010000001000000000000000000000000
202008050010010100000000000000011570000000000000000115708000000000020307707927ALDERETES JESUS OMAR          000000001113079000000000000000000000000000000000000000000000000000000000000000000000000000000000000000000000000000262973PES00010000001000000000000000000000000
202008050010010100000000000000011571000000000000000115718000000000020219481471RISSO PATRON MIGUEL           000000000100000000000000000000000000000000000000000000000000000000000000000000000000000000000000000000000000000000023626PES00010000001000000000000000000000000
202008050010010100000000000000011572000000000000000115728000000000020121486351MARTIN JULIO ALBERTO          000000000100000000000000000000000000000000000000000000000000000000000000000000000000000000000000000000000000000000023626PES00010000001000000000000000000000000
202008050010010100000000000000011573000000000000000115738000000000020240591805FIGUEROA JUAN SANTIA          000000000030000000000000000000000000000000000000000000000000000000000000000000000000000000000000000000000000000000000360PES00010000001000000000000000000000000
202008050010010100000000000000011574000000000000000115748000000000020250477326HERRERA FELIX DARIO           000000000271078000000000000000000000000000000000000000000000000000000000000000000000000000000000000000000000000000050576PES00010000001000000000000000000000000
202008050010010100000000000000011575000000000000000115758000000000020267576824DOFFO LEONELO                 000000000054500000000000000000000000000000000000000000000000000000000000000000000000000000000000000000000000000000000655PES00010000001000000000000000000000000
202008050010010100000000000000011576000000000000000115768000000000027206129439HERRERA LILIANA               000000000024739000000000000000000000000000000000000000000000000000000000000000000000000000000000000000000000000000000297PES00010000001000000000000000000000000
202008060010010100000000000000011577000000000000000115778000000000030711668116MC KREDIT S.R.L EN F          000000000018913000000000000000000000000000000000000000000000000000000000000000000000000000000000000000000000000000000227PES00010000001000000000000000000000000
202008060010010100000000000000011578000000000000000115788000000000030710735537R.V INGENIERIA S.R.L          000000000013921000000000000000000000000000000000000000000000000000000000000000000000000000000000000000000000000000000167PES00010000001000000000000000000000000
202008060010010100000000000000011579000000000000000115798000000000030709194204KINGBERRY S.A                 000000000048481000000000000000000000000000000000000000000000000000000000000000000000000000000000000000000000000000000582PES00010000001000000000000000000000000
202008060010010100000000000000011580000000000000000115808000000000030639227096INTRA SRL                     000000000190126000000000000000000000000000000000000000000000000000000000000000000000000000000000000000000000000000040063PES00010000001000000000000000000000000
202008060010010100000000000000011581000000000000000115818000000000020225583758SERGIO GADUR                  000000000149999000000000000000000000000000000000000000000000000000000000000000000000000000000000000000000000000000021969PES00010000001000000000000000000000000
202008060010010100000000000000011582000000000000000115828000000000020257403689CHAYLE VICENTE SEBAS          000000000051012000000000000000000000000000000000000000000000000000000000000000000000000000000000000000000000000000000613PES00010000001000000000000000000000000
202008060010010100000000000000011583000000000000000115838000000000027941454394ALICIA RAQUEL DE MAI          000000000028000000000000000000000000000000000000000000000000000000000000000000000000000000000000000000000000000000000336PES00010000001000000000000000000000000
202008060010010100000000000000011584000000000000000115848000000000020262539270SALOMON MARCOS LEONA          000000000015000000000000000000000000000000000000000000000000000000000000000000000000000000000000000000000000000000000180PES00010000001000000000000000000000000
202008060010010100000000000000011585000000000000000115858000000000020102200676JOSE CUSSEDDU                 000000000433032000000000000000000000000000000000000000000000000000000000000000000000000000000000000000000000000000063423PES00010000001000000000000000000000000
202008060010010100000000000000011586000000000000000115868000000000023284963954ALBA JOSEFINA ALDANA          000000000100000000000000000000000000000000000000000000000000000000000000000000000000000000000000000000000000000000023626PES00010000001000000000000000000000000
202008060010010100000000000000011587000000000000000115878000000000030709545910FINCAS GREYCO SRL             000000000419025000000000000000000000000000000000000000000000000000000000000000000000000000000000000000000000000000061372PES00010000001000000000000000000000000
202008060010010100000000000000011588000000000000000115888000000000020175264486AGUERA JUAN ANTONIO           000000000010002000000000000000000000000000000000000000000000000000000000000000000000000000000000000000000000000000000120PES00010000001000000000000000000000000
202008060010010100000000000000011589000000000000000115898000000000030714613541SAN AGUSTIN SERVICIO          000000000303071000000000000000000000000000000000000000000000000000000000000000000000000000000000000000000000000000044390PES00010000001000000000000000000000000
202008060010010100000000000000011590000000000000000115908000000000030714516899AGRO ACONQUIJA S.R.L          000000000030390000000000000000000000000000000000000000000000000000000000000000000000000000000000000000000000000000000365PES00010000001000000000000000000000000
202008060010010100000000000000011591000000000000000115918000000000020122578535RAMON EDUARDO ALBORN          000000000149999000000000000000000000000000000000000000000000000000000000000000000000000000000000000000000000000000021969PES00010000001000000000000000000000000
202008060010010100000000000000011592000000000000000115928000000000027103217887MARTINEZ DELIA ROSA           000000000099999000000000000000000000000000000000000000000000000000000000000000000000000000000000000000000000000000021072PES00010000001000000000000000000000000
202008060010010100000000000000011593000000000000000115938000000000030716744198CONSTRUFAM SRL                000000000019998000000000000000000000000000000000000000000000000000000000000000000000000000000000000000000000000000000240PES00010000001000000000000000000000000
202008060010010100000000000000011594000000000000000115948000000000020172973044ROCHA DANTE OMAR              000000000099999000000000000000000000000000000000000000000000000000000000000000000000000000000000000000000000000000021072PES00010000001000000000000000000000000
202008060010010100000000000000011595000000000000000115958000000000020375019567CONTRERAS IVAN                000000000050001000000000000000000000000000000000000000000000000000000000000000000000000000000000000000000000000000007323PES00010000001000000000000000000000000
202008060010010100000000000000011596000000000000000115968000000000020176192187TRANSPORTE SERGIO FR          000000000040449000000000000000000000000000000000000000000000000000000000000000000000000000000000000000000000000000000000PES00010000001000000000000000000000000
202008060010010100000000000000011597000000000000000115978000000000030668713749TIMAC AGROARGENTINA           000000000043000000000000000000000000000000000000000000000000000000000000000000000000000000000000000000000000000000000517PES00010000001000000000000000000000000
202008060010010100000000000000011598000000000000000115988000000000020182032701OLIVARES RODOLFO              000000000014002000000000000000000000000000000000000000000000000000000000000000000000000000000000000000000000000000000168PES00010000001000000000000000000000000
202008060010010100000000000000011599000000000000000115998000000000023278093549MAZZA ERNESTO RODOLF          000000000300005000000000000000000000000000000000000000000000000000000000000000000000000000000000000000000000000000043940PES00010000001000000000000000000000000
202008060010010100000000000000011600000000000000000116008000000000020279448848GALVEZ RODRIGO                000000000035003000000000000000000000000000000000000000000000000000000000000000000000000000000000000000000000000000000420PES00010000001000000000000000000000000
202008070010010100000000000000011601000000000000000116018000000000030712386416C.V CONSTRUCCIONES S          000000000050003000000000000000000000000000000000000000000000000000000000000000000000000000000000000000000000000000011813PES00010000001000000000000000000000000
202008070010010100000000000000011602000000000000000116028000000000023039247224SUCESION RODRIGUEZ D          000000000032700000000000000000000000000000000000000000000000000000000000000000000000000000000000000000000000000000000393PES00010000001000000000000000000000000
202008070010010100000000000000011603000000000000000116038000000000020335404638MEDRANO FEDERICO              000000000200002000000000000000000000000000000000000000000000000000000000000000000000000000000000000000000000000000029294PES00010000001000000000000000000000000
202008070010010100000000000000011604000000000000000116048000000000030710735537R.V INGENIERIA S.R.L          000000000010229000000000000000000000000000000000000000000000000000000000000000000000000000000000000000000000000000000123PES00010000001000000000000000000000000
202008070010010100000000000000011605000000000000000116058000000000020279448848GALVEZ RODRIGO                000000000017997000000000000000000000000000000000000000000000000000000000000000000000000000000000000000000000000000000216PES00010000001000000000000000000000000
202008070010010100000000000000011606000000000000000116068000000000030646140923SERVICIOS MODERNOS S          000000000031784000000000000000000000000000000000000000000000000000000000000000000000000000000000000000000000000000000382PES00010000001000000000000000000000000
202008070010010100000000000000011607000000000000000116078000000000020223364048GALLEGO CARLOS MANUE          000000000120006000000000000000000000000000000000000000000000000000000000000000000000000000000000000000000000000000017577PES00010000001000000000000000000000000
202008070010010100000000000000011608000000000000000116088000000000030716383659LOS CARDOS SAS                000000000130044000000000000000000000000000000000000000000000000000000000000000000000000000000000000000000000000000019047PES00010000001000000000000000000000000
202008070010010100000000000000011609000000000000000116098000000000030712386416C.V CONSTRUCCIONES S          000000000200001000000000000000000000000000000000000000000000000000000000000000000000000000000000000000000000000000029293PES00010000001000000000000000000000000
202008070010010100000000000000011610000000000000000116108000000000027226988632PAZ EVA SILVANA               000000000299996000000000000000000000000000000000000000000000000000000000000000000000000000000000000000000000000000056435PES00010000001000000000000000000000000
202008070010010100000000000000011611000000000000000116118000000000020375019567CONTRERAS IVAN                000000000050001000000000000000000000000000000000000000000000000000000000000000000000000000000000000000000000000000007323PES00010000001000000000000000000000000
202008070010010100000000000000011612000000000000000116128000000000030714516899AGRO ACONQUIJA S.R.L          000000000020459000000000000000000000000000000000000000000000000000000000000000000000000000000000000000000000000000000246PES00010000001000000000000000000000000
202008070010010100000000000000011613000000000000000116138000000000020279741855LAMELAS JOSE OSCAR            000000000015618000000000000000000000000000000000000000000000000000000000000000000000000000000000000000000000000000000188PES00010000001000000000000000000000000
202008070010010100000000000000011614000000000000000116148000000000020170946430GUERRERO RAMIRO               000000000053001000000000000000000000000000000000000000000000000000000000000000000000000000000000000000000000000000000637PES00010000001000000000000000000000000
202008070010010100000000000000011615000000000000000116158000000000020070198771MEDINA MANUEL                 000000000200002000000000000000000000000000000000000000000000000000000000000000000000000000000000000000000000000000029294PES00010000001000000000000000000000000
202008070010010100000000000000011616000000000000000116168000000000030714570540HORTIFRUT EXPOFRESH           000000000300005000000000000000000000000000000000000000000000000000000000000000000000000000000000000000000000000000043940PES00010000001000000000000000000000000
202008070010010100000000000000011617000000000000000116178000000000020324372661RAMIRO REYES JEREZ            000000000044003000000000000000000000000000000000000000000000000000000000000000000000000000000000000000000000000000000529PES00010000001000000000000000000000000
202008070010010100000000000000011618000000000000000116188000000000020439785021ZELARAYAN RICARDO JO          000000000023001000000000000000000000000000000000000000000000000000000000000000000000000000000000000000000000000000000276PES00010000001000000000000000000000000
202008070010010100000000000000011619000000000000000116198000000000030646140923SERVICIOS MODERNOS S          000000000240000000000000000000000000000000000000000000000000000000000000000000000000000000000000000000000000000000056702PES00010000001000000000000000000000000
202008070010010100000000000000011620000000000000000116208000000000027143376546SALAZAR MARIA INES            000000000300005000000000000000000000000000000000000000000000000000000000000000000000000000000000000000000000000000043940PES00010000001000000000000000000000000
202008070010010100000000000000011621000000000000000116218000000000020104320784SILVA ANGEL CUSTODIO          000000000370022000000000000000000000000000000000000000000000000000000000000000000000000000000000000000000000000000054195PES00010000001000000000000000000000000
202008070010010100000000000000011622000000000000000116228000000000030715400630TSA ARGENTINA                 000000000016003000000000000000000000000000000000000000000000000000000000000000000000000000000000000000000000000000000192PES00010000001000000000000000000000000
202008070010010100000000000000011623000000000000000116238000000000020289542257GOMEZ ANGEL ARIEL             000000000027002000000000000000000000000000000000000000000000000000000000000000000000000000000000000000000000000000000324PES00010000001000000000000000000000000
202008070010010100000000000000011624000000000000000116248000000000030712251103BAQUIA SRL                    000000000250002000000000000000000000000000000000000000000000000000000000000000000000000000000000000000000000000000036616PES00010000001000000000000000000000000
202008070010010100000000000000011625000000000000000116258000000000023313124894BRITO NATALIA YANINA          000000000099997000000000000000000000000000000000000000000000000000000000000000000000000000000000000000000000000000014646PES00010000001000000000000000000000000
202008070010010100000000000000011626000000000000000116268000000000030715472127LA FERRETERIA SRL             000000000199999000000000000000000000000000000000000000000000000000000000000000000000000000000000000000000000000000047251PES00010000001000000000000000000000000
202008070010010100000000000000011627000000000000000116278000000000027206129439HERRERA LILIANA               000000000031002000000000000000000000000000000000000000000000000000000000000000000000000000000000000000000000000000000372PES00010000001000000000000000000000000
202008070010010100000000000000011628000000000000000116288000000000023327269054SAAVEDRA NATALIA DEL          000000000200002000000000000000000000000000000000000000000000000000000000000000000000000000000000000000000000000000029294PES00010000001000000000000000000000000
202008070010010100000000000000011629000000000000000116298000000000030710502818KILOMETRO 14 SRL              000000000099997000000000000000000000000000000000000000000000000000000000000000000000000000000000000000000000000000014646PES00010000001000000000000000000000000
202008080010010100000000000000011630000000000000000116308000000000030680922345ITALGAS S.A.                  000000000156171000000000000000000000000000000000000000000000000000000000000000000000000000000000000000000000000000000000PES00010000001000000000000000000000000
202008080010010100000000000000011631000000000000000116318000000000033714757429NOBEN SRL                     000000000020307000000000000000000000000000000000000000000000000000000000000000000000000000000000000000000000000000000244PES00010000001000000000000000000000000
202008080010010100000000000000011632000000000000000116328000000000020224292016FIGUEROA OSVALDO REN          000000000030436000000000000000000000000000000000000000000000000000000000000000000000000000000000000000000000000000000366PES00010000001000000000000000000000000
202008080010010100000000000000011633000000000000000116338000000000020224292016FIGUEROA OSVALDO REN          000000000358001000000000000000000000000000000000000000000000000000000000000000000000000000000000000000000000000000084581PES00010000001000000000000000000000000
202008080010010100000000000000011634000000000000000116348000000000020955599080JAWANDHA AMRINDER SI          000000000120051000000000000000000000000000000000000000000000000000000000000000000000000000000000000000000000000000025296PES00010000001000000000000000000000000
202008080010010100000000000000011635000000000000000116358000000000020955599080JAWANDHA AMRINDER SI          000000000023998000000000000000000000000000000000000000000000000000000000000000000000000000000000000000000000000000000288PES00010000001000000000000000000000000
202008080010010100000000000000011636000000000000000116368000000000020082467476RODRIGUEZ JOSE RAMON          000000000179998000000000000000000000000000000000000000000000000000000000000000000000000000000000000000000000000000026363PES00010000001000000000000000000000000
202008080010010100000000000000011637000000000000000116378000000000030716383659LOS CARDOS SAS                000000000193473000000000000000000000000000000000000000000000000000000000000000000000000000000000000000000000000000028337PES00010000001000000000000000000000000
202008080010010100000000000000011638000000000000000116388000000000030709195251LA CELINA SRL                 000000000200045000000000000000000000000000000000000000000000000000000000000000000000000000000000000000000000000000042445PES00010000001000000000000000000000000
202008080010010100000000000000011639000000000000000116398000000000030709421197TRANSPORTE TRONADOR           000000000199999000000000000000000000000000000000000000000000000000000000000000000000000000000000000000000000000000047251PES00010000001000000000000000000000000
202008080010010100000000000000011640000000000000000116408000000000030707636544RIO SINGUIL SA                000000000099997000000000000000000000000000000000000000000000000000000000000000000000000000000000000000000000000000014646PES00010000001000000000000000000000000
202008080010010100000000000000011641000000000000000116418000000000020279448848GALVEZ RODRIGO                000000000030000000000000000000000000000000000000000000000000000000000000000000000000000000000000000000000000000000000360PES00010000001000000000000000000000000
202008080010010100000000000000011642000000000000000116428000000000033710082389PODA VERDE SRL                000000000035003000000000000000000000000000000000000000000000000000000000000000000000000000000000000000000000000000000420PES00010000001000000000000000000000000
202008080010010100000000000000011643000000000000000116438000000000030714914711AMARELA TUCUMAN SRL           000000000400001000000000000000000000000000000000000000000000000000000000000000000000000000000000000000000000000000058585PES00010000001000000000000000000000000
202008080010010100000000000000011644000000000000000116448000000000030716819856INDUSTRIA SANTA BARB          000000000250002000000000000000000000000000000000000000000000000000000000000000000000000000000000000000000000000000036616PES00010000001000000000000000000000000
202008080010010100000000000000011645000000000000000116458000000000020248038706SUREDA PEDRO JUAN             000000000099997000000000000000000000000000000000000000000000000000000000000000000000000000000000000000000000000000014646PES00010000001000000000000000000000000
202008080010010100000000000000011646000000000000000116468000000000020256326036ARABOW CARLOS RUBEN           000000000099999000000000000000000000000000000000000000000000000000000000000000000000000000000000000000000000000000021072PES00010000001000000000000000000000000
202008090010010100000000000000011647000000000000000116478000000000030710735537R.V INGENIERIA S.R.L          000000000080002000000000000000000000000000000000000000000000000000000000000000000000000000000000000000000000000000016857PES00010000001000000000000000000000000
202008090010010100000000000000011648000000000000000116488000000000030710735537R.V INGENIERIA S.R.L          000000000014703000000000000000000000000000000000000000000000000000000000000000000000000000000000000000000000000000000177PES00010000001000000000000000000000000
202008090010010100000000000000011649000000000000000116498000000000020166938911BRIZUELA HUGO ALBERT          000000000056003000000000000000000000000000000000000000000000000000000000000000000000000000000000000000000000000000008202PES00010000001000000000000000000000000
202008090010010100000000000000011650000000000000000116508000000000020166938911BRIZUELA HUGO ALBERT          000000000149999000000000000000000000000000000000000000000000000000000000000000000000000000000000000000000000000000021969PES00010000001000000000000000000000000
202008090010010100000000000000011651000000000000000116518000000000020161468003RIVERA MOISES RODOLF          000000000099997000000000000000000000000000000000000000000000000000000000000000000000000000000000000000000000000000014646PES00010000001000000000000000000000000
202008090010010100000000000000011652000000000000000116528000000000030707695842ARIDOS DEL SALI SRL           000000000400015000000000000000000000000000000000000000000000000000000000000000000000000000000000000000000000000000058588PES00010000001000000000000000000000000
202008100010010100000000000000011653000000000000000116538000000000020314684827QUISPE ARIEL ALBERTO          000000000027002000000000000000000000000000000000000000000000000000000000000000000000000000000000000000000000000000000324PES00010000001000000000000000000000000
202008100010010100000000000000011654000000000000000116548000000000030710735537R.V INGENIERIA S.R.L          000000000016003000000000000000000000000000000000000000000000000000000000000000000000000000000000000000000000000000000192PES00010000001000000000000000000000000
202008100010010100000000000000011655000000000000000116558000000000030526143813OSCAR BARBIERI                000000000070001000000000000000000000000000000000000000000000000000000000000000000000000000000000000000000000000000014750PES00010000001000000000000000000000000
202008100010010100000000000000011656000000000000000116568000000000030692158012GLENSOL S.A                   000000000270017000000000000000000000000000000000000000000000000000000000000000000000000000000000000000000000000000063793PES00010000001000000000000000000000000
202008100010010100000000000000011657000000000000000116578000000000030521797904COOPERATIVA CAMPO DE          000000000015000000000000000000000000000000000000000000000000000000000000000000000000000000000000000000000000000000000180PES00010000001000000000000000000000000
202008100010010100000000000000011658000000000000000116588000000000030521797904COOPERATIVA CAMPO DE          000000000030003000000000000000000000000000000000000000000000000000000000000000000000000000000000000000000000000000007088PES00010000001000000000000000000000000
202008100010010100000000000000011659000000000000000116598000000000023039247224SUCESION RODRIGUEZ D          000000000028694000000000000000000000000000000000000000000000000000000000000000000000000000000000000000000000000000000345PES00010000001000000000000000000000000
202008100010010100000000000000011660000000000000000116608000000000027290108786RUEDA MARIA DE LOS A          000000000037185000000000000000000000000000000000000000000000000000000000000000000000000000000000000000000000000000000447PES00010000001000000000000000000000000
202008100010010100000000000000011661000000000000000116618000000000020955599080JAWANDHA AMRINDER SI          000000000260036000000000000000000000000000000000000000000000000000000000000000000000000000000000000000000000000000038087PES00010000001000000000000000000000000
202008100010010100000000000000011662000000000000000116628000000000030714516899AGRO ACONQUIJA S.R.L          000000000059998000000000000000000000000000000000000000000000000000000000000000000000000000000000000000000000000000014174PES00010000001000000000000000000000000
202008100010010100000000000000011663000000000000000116638000000000030551667800AITOR IDER  BALBO             000000000240943000000000000000000000000000000000000000000000000000000000000000000000000000000000000000000000000000050771PES00010000001000000000000000000000000
202008100010010100000000000000011664000000000000000116648000000000030714516899AGRO ACONQUIJA S.R.L          000000000033003000000000000000000000000000000000000000000000000000000000000000000000000000000000000000000000000000000396PES00010000001000000000000000000000000
202008100010010100000000000000011665000000000000000116658000000000030685697250CAMPODER SRL                  000000000199999000000000000000000000000000000000000000000000000000000000000000000000000000000000000000000000000000037623PES00010000001000000000000000000000000
202008100010010100000000000000011666000000000000000116668000000000020347090507MANUEL ESTEBAN FERNA          000000000200002000000000000000000000000000000000000000000000000000000000000000000000000000000000000000000000000000029294PES00010000001000000000000000000000000
202008100010010100000000000000011667000000000000000116678000000000020375019567CONTRERAS IVAN                000000000069997000000000000000000000000000000000000000000000000000000000000000000000000000000000000000000000000000010252PES00010000001000000000000000000000000
202008100010010100000000000000011668000000000000000116688000000000030525436817JOSE MINETTI Y CIA L          000000000120000000000000000000000000000000000000000000000000000000000000000000000000000000000000000000000000000000028351PES00010000001000000000000000000000000
202008100010010100000000000000011669000000000000000116698000000000020279448848GALVEZ RODRIGO                000000000019998000000000000000000000000000000000000000000000000000000000000000000000000000000000000000000000000000000240PES00010000001000000000000000000000000
202008100010010100000000000000011670000000000000000116708000000000020213280725CARLOS TAMER                  000000000100000000000000000000000000000000000000000000000000000000000000000000000000000000000000000000000000000000023626PES00010000001000000000000000000000000
202008100010010100000000000000011671000000000000000116718000000000030712345647TRAILINGSAT                   000000000150003000000000000000000000000000000000000000000000000000000000000000000000000000000000000000000000000000035439PES00010000001000000000000000000000000
202008100010010100000000000000011672000000000000000116728000000000020181866943GABRIEL ZINGALE               000000000089997000000000000000000000000000000000000000000000000000000000000000000000000000000000000000000000000000021263PES00010000001000000000000000000000000
202008100010010100000000000000011673000000000000000116738000000000020165261624MUDAD FRANCISCO               000000000468049000000000000000000000000000000000000000000000000000000000000000000000000000000000000000000000000000110580PES00010000001000000000000000000000000
202008100010010100000000000000011674000000000000000116748000000000020100149878BUFFO CARLOS ENRIQUE          000000000200002000000000000000000000000000000000000000000000000000000000000000000000000000000000000000000000000000029294PES00010000001000000000000000000000000
202008100010010100000000000000011675000000000000000116758000000000020293897426GONZALEZ WALTER DANI          000000000108807000000000000000000000000000000000000000000000000000000000000000000000000000000000000000000000000000015937PES00010000001000000000000000000000000
202008100010010100000000000000011676000000000000000116768000000000020250477326HERRERA FELIX DARIO           000000000130093000000000000000000000000000000000000000000000000000000000000000000000000000000000000000000000000000030735PES00010000001000000000000000000000000
202008100010010100000000000000011677000000000000000116778000000000020311284895ROCHA JUAN MANUEL             000000000199999000000000000000000000000000000000000000000000000000000000000000000000000000000000000000000000000000037623PES00010000001000000000000000000000000
202008100010010100000000000000011678000000000000000116788000000000027314989126ROMINA DIP                    000000000200002000000000000000000000000000000000000000000000000000000000000000000000000000000000000000000000000000029294PES00010000001000000000000000000000000
202008100010010100000000000000011679000000000000000116798000000000020305397793JALIS LUIS EDUERDO            000000000100000000000000000000000000000000000000000000000000000000000000000000000000000000000000000000000000000000023626PES00010000001000000000000000000000000
202008100010010100000000000000011680000000000000000116808000000000030709545910FINCAS GREYCO SRL             000000000310016000000000000000000000000000000000000000000000000000000000000000000000000000000000000000000000000000045407PES00010000001000000000000000000000000
202008100010010100000000000000011681000000000000000116818000000000030551667800AITOR IDER  BALBO             000000000295014000000000000000000000000000000000000000000000000000000000000000000000000000000000000000000000000000062164PES00010000001000000000000000000000000
202008100010010100000000000000011682000000000000000116828000000000020307707927ALDERETES JESUS OMAR          000000001119995000000000000000000000000000000000000000000000000000000000000000000000000000000000000000000000000000264606PES00010000001000000000000000000000000
202008100010010100000000000000011683000000000000000116838000000000030646140923SERVICIOS MODERNOS S          000000000022529000000000000000000000000000000000000000000000000000000000000000000000000000000000000000000000000000000271PES00010000001000000000000000000000000
202008100010010100000000000000011684000000000000000116848000000000030708650885MACROPHARMA SA                000000000175042000000000000000000000000000000000000000000000000000000000000000000000000000000000000000000000000000041354PES00010000001000000000000000000000000
202008100010010100000000000000011685000000000000000116858000000000020256326036ARABOW CARLOS RUBEN           000000000050003000000000000000000000000000000000000000000000000000000000000000000000000000000000000000000000000000011813PES00010000001000000000000000000000000
202008100010010100000000000000011686000000000000000116868000000000020102200676JOSE CUSSEDDU                 000000000380000000000000000000000000000000000000000000000000000000000000000000000000000000000000000000000000000000055657PES00010000001000000000000000000000000
202008100010010100000000000000011687000000000000000116878000000000020202200541CARRASCO DANIEL EDUA          000000000300005000000000000000000000000000000000000000000000000000000000000000000000000000000000000000000000000000043940PES00010000001000000000000000000000000
202008100010010100000000000000011688000000000000000116888000000000030586733334CARTOCOR SA                   000000000300005000000000000000000000000000000000000000000000000000000000000000000000000000000000000000000000000000043940PES00010000001000000000000000000000000
202008100010010100000000000000011689000000000000000116898000000000020279617771JORGE PELUFFO                 000000000100000000000000000000000000000000000000000000000000000000000000000000000000000000000000000000000000000000023626PES00010000001000000000000000000000000
202008100010010100000000000000011690000000000000000116908000000000030521797904COOPERATIVA CAMPO DE          000000000015700000000000000000000000000000000000000000000000000000000000000000000000000000000000000000000000000000000189PES00010000001000000000000000000000000
202008100010010100000000000000011691000000000000000116918000000000023344439109REDING JORGE                  000000000100000000000000000000000000000000000000000000000000000000000000000000000000000000000000000000000000000000023626PES00010000001000000000000000000000000
202008100010010100000000000000011692000000000000000116928000000000030710735537R.V INGENIERIA S.R.L          000000000050003000000000000000000000000000000000000000000000000000000000000000000000000000000000000000000000000000011813PES00010000001000000000000000000000000
202008100010010100000000000000011693000000000000000116938000000000020330504588ALVARO MEDINA                 000000000031002000000000000000000000000000000000000000000000000000000000000000000000000000000000000000000000000000000372PES00010000001000000000000000000000000
202008100010010100000000000000011694000000000000000116948000000000020262425151QUINTEROS ROBERTO NI          000000000223938000000000000000000000000000000000000000000000000000000000000000000000000000000000000000000000000000052906PES00010000001000000000000000000000000
202008100010010100000000000000011695000000000000000116958000000000020213280725CARLOS TAMER                  000000000260067000000000000000000000000000000000000000000000000000000000000000000000000000000000000000000000000000048922PES00010000001000000000000000000000000
202008100010010100000000000000011696000000000000000116968000000000020262539270SALOMON MARCOS LEONA          000000000019000000000000000000000000000000000000000000000000000000000000000000000000000000000000000000000000000000000228PES00010000001000000000000000000000000
202008100010010100000000000000011697000000000000000116978000000000023116154439TORRES FERNANDO               000000000099996000000000000000000000000000000000000000000000000000000000000000000000000000000000000000000000000000018811PES00010000001000000000000000000000000
202008100010010100000000000000011698000000000000000116988000000000027264052071SILVINA DEL ROSARIO           000000000050001000000000000000000000000000000000000000000000000000000000000000000000000000000000000000000000000000007323PES00010000001000000000000000000000000
202008100010010100000000000000011699000000000000000116998000000000020314684827QUISPE ARIEL ALBERTO          000000000023998000000000000000000000000000000000000000000000000000000000000000000000000000000000000000000000000000000288PES00010000001000000000000000000000000
202008100010010100000000000000011700000000000000000117008000000000020172232273MONFORT MARCELO FRAN          000000002460011000000000000000000000000000000000000000000000000000000000000000000000000000000000000000000000000000462768PES00010000001000000000000000000000000
202008110010010100000000000000011701000000000000000117018000000000030695177239AGROPECUARIA MISTOL           000000000335027000000000000000000000000000000000000000000000000000000000000000000000000000000000000000000000000000049069PES00010000001000000000000000000000000
202008110010010100000000000000011702000000000000000117028000000000020134744198ENRIQUE MARIO ROJAS           000000000150003000000000000000000000000000000000000000000000000000000000000000000000000000000000000000000000000000035439PES00010000001000000000000000000000000
202008110010010100000000000000011703000000000000000117038000000000030691734915LINE UP                       000000000100000000000000000000000000000000000000000000000000000000000000000000000000000000000000000000000000000000023626PES00010000001000000000000000000000000
202008110010010100000000000000011704000000000000000117048000000000027184069488GARCIA NORMA                  000000000390037000000000000000000000000000000000000000000000000000000000000000000000000000000000000000000000000000057126PES00010000001000000000000000000000000
202008110010010100000000000000011705000000000000000117058000000000020346037645ALDERETE BIMBI MARTI          000000000229159000000000000000000000000000000000000000000000000000000000000000000000000000000000000000000000000000054141PES00010000001000000000000000000000000
202008110010010100000000000000011706000000000000000117068000000000020335404638MEDRANO FEDERICO              000000000200002000000000000000000000000000000000000000000000000000000000000000000000000000000000000000000000000000029294PES00010000001000000000000000000000000
202008110010010100000000000000011707000000000000000117078000000000030710735537R.V INGENIERIA S.R.L          000000000015396000000000000000000000000000000000000000000000000000000000000000000000000000000000000000000000000000000185PES00010000001000000000000000000000000
202008110010010100000000000000011708000000000000000117088000000000030708668733REFRES NOW SA                 000000000150003000000000000000000000000000000000000000000000000000000000000000000000000000000000000000000000000000035439PES00010000001000000000000000000000000
202008110010010100000000000000011709000000000000000117098000000000030711369895CAQUY SRL                     000000000200002000000000000000000000000000000000000000000000000000000000000000000000000000000000000000000000000000029294PES00010000001000000000000000000000000
202008110010010100000000000000011710000000000000000117108000000000020289542257GOMEZ ANGEL ARIEL             000000000023998000000000000000000000000000000000000000000000000000000000000000000000000000000000000000000000000000000288PES00010000001000000000000000000000000
202008110010010100000000000000011711000000000000000117118000000000020108787393SALAZAR GUILLERMO             000000000210003000000000000000000000000000000000000000000000000000000000000000000000000000000000000000000000000000049615PES00010000001000000000000000000000000
202008110010010100000000000000011712000000000000000117128000000000030691778068SEGURIDAD SUAT                000000000200002000000000000000000000000000000000000000000000000000000000000000000000000000000000000000000000000000029294PES00010000001000000000000000000000000
202008110010010100000000000000011713000000000000000117138000000000030591268054ERNESTO H FERNANDEZ           000000000430033000000000000000000000000000000000000000000000000000000000000000000000000000000000000000000000000000065679PES00010000001000000000000000000000000
202008110010010100000000000000011714000000000000000117148000000000020213280725CARLOS TAMER                  000000000200002000000000000000000000000000000000000000000000000000000000000000000000000000000000000000000000000000029294PES00010000001000000000000000000000000
202008110010010100000000000000011715000000000000000117158000000000030710959052CARBAT SA                     000000000200002000000000000000000000000000000000000000000000000000000000000000000000000000000000000000000000000000029294PES00010000001000000000000000000000000
202008110010010100000000000000011716000000000000000117168000000000030639227096INTRA SRL                     000000000216414000000000000000000000000000000000000000000000000000000000000000000000000000000000000000000000000000045602PES00010000001000000000000000000000000
202008110010010100000000000000011717000000000000000117178000000000030521797904COOPERATIVA CAMPO DE          000000000011402000000000000000000000000000000000000000000000000000000000000000000000000000000000000000000000000000000137PES00010000001000000000000000000000000
202008110010010100000000000000011718000000000000000117188000000000030708733756FINCA LA CAROLINA             000000000200002000000000000000000000000000000000000000000000000000000000000000000000000000000000000000000000000000029294PES00010000001000000000000000000000000
202008110010010100000000000000011719000000000000000117198000000000020185119093ALBERTO RODRIGUEZ             000000000315045000000000000000000000000000000000000000000000000000000000000000000000000000000000000000000000000000046143PES00010000001000000000000000000000000
202008110010010100000000000000011720000000000000000117208000000000030709194204KINGBERRY S.A                 000000000036852000000000000000000000000000000000000000000000000000000000000000000000000000000000000000000000000000000443PES00010000001000000000000000000000000
202008110010010100000000000000011721000000000000000117218000000000020110747625PEREZ JUAN LUIS               000000000120006000000000000000000000000000000000000000000000000000000000000000000000000000000000000000000000000000017577PES00010000001000000000000000000000000
202008110010010100000000000000011722000000000000000117228000000000020170946430RAMIRO ESTEBAN GUERR          000000000064000000000000000000000000000000000000000000000000000000000000000000000000000000000000000000000000000000000769PES00010000001000000000000000000000000
202008110010010100000000000000011723000000000000000117238000000000030714782130S.B.CONSTRUCCIONES S          000000000400001000000000000000000000000000000000000000000000000000000000000000000000000000000000000000000000000000058585PES00010000001000000000000000000000000
202008110010010100000000000000011724000000000000000117248000000000030531878171BOCANERA SA                   000000000100000000000000000000000000000000000000000000000000000000000000000000000000000000000000000000000000000000023626PES00010000001000000000000000000000000
202008110010010100000000000000011725000000000000000117258000000000030716819856INDUSTRIA SANTA BARB          000000000200002000000000000000000000000000000000000000000000000000000000000000000000000000000000000000000000000000042143PES00010000001000000000000000000000000
202008110010010100000000000000011726000000000000000117268000000000033710082389PODA VERDE SRL                000000000026798000000000000000000000000000000000000000000000000000000000000000000000000000000000000000000000000000000322PES00010000001000000000000000000000000
202008110010010100000000000000011727000000000000000117278000000000020107910914VALDEZ RUFINO CESAR           000000000400001000000000000000000000000000000000000000000000000000000000000000000000000000000000000000000000000000058585PES00010000001000000000000000000000000
202008110010010100000000000000011728000000000000000117288000000000030709101354COSMOFLOR SA                  000000000230086000000000000000000000000000000000000000000000000000000000000000000000000000000000000000000000000000054359PES00010000001000000000000000000000000
202008110010010100000000000000011729000000000000000117298000000000027257855509PORRICIELLO ARIANA M          000000000400001000000000000000000000000000000000000000000000000000000000000000000000000000000000000000000000000000058585PES00010000001000000000000000000000000
202008110010010100000000000000011730000000000000000117308000000000020179278651CORRAL RIVADENEIRA J          000000000200002000000000000000000000000000000000000000000000000000000000000000000000000000000000000000000000000000042143PES00010000001000000000000000000000000
202008110010010100000000000000011731000000000000000117318000000000020387410210ALVARO MANUEL DIAZ            000000000100000000000000000000000000000000000000000000000000000000000000000000000000000000000000000000000000000000023626PES00010000001000000000000000000000000
202008110010010100000000000000011732000000000000000117328000000000030710735537R.V INGENIERIA S.R.L          000000000019712000000000000000000000000000000000000000000000000000000000000000000000000000000000000000000000000000000237PES00010000001000000000000000000000000
202008110010010100000000000000011733000000000000000117338000000000030715719963ALTOS LA CELIA SRL            000000000523026000000000000000000000000000000000000000000000000000000000000000000000000000000000000000000000000000076605PES00010000001000000000000000000000000
202008110010010100000000000000011734000000000000000117348000000000020172449876BRITO ANGEL DIONICIO          000000000300005000000000000000000000000000000000000000000000000000000000000000000000000000000000000000000000000000043940PES00010000001000000000000000000000000
202008110010010100000000000000011735000000000000000117358000000000020290039380MIGUEL AGUSTIN LEAS           000000000300005000000000000000000000000000000000000000000000000000000000000000000000000000000000000000000000000000043940PES00010000001000000000000000000000000
202008110010010100000000000000011736000000000000000117368000000000030708282703DISTRIBUIDORA GONZAL          000000000199999000000000000000000000000000000000000000000000000000000000000000000000000000000000000000000000000000037623PES00010000001000000000000000000000000
202008110010010100000000000000011737000000000000000117378000000000033710082389PODA VERDE SRL                000000000038001000000000000000000000000000000000000000000000000000000000000000000000000000000000000000000000000000000456PES00010000001000000000000000000000000
202008110010010100000000000000011738000000000000000117388000000000030710853297SANATORIO DEL SOL S.          000000000550001000000000000000000000000000000000000000000000000000000000000000000000000000000000000000000000000000080556PES00010000001000000000000000000000000
202008110010010100000000000000011739000000000000000117398000000000030715030000SOBRE RUEDAS SRL              000000000039482000000000000000000000000000000000000000000000000000000000000000000000000000000000000000000000000000000474PES00010000001000000000000000000000000
202008110010010100000000000000011740000000000000000117408000000000030712293507DEVELOPERS S.A                000000000200002000000000000000000000000000000000000000000000000000000000000000000000000000000000000000000000000000042143PES00010000001000000000000000000000000
202008110010010100000000000000011741000000000000000117418000000000030709095486ALFA EMPRESA CONSTRU          000000000402047000000000000000000000000000000000000000000000000000000000000000000000000000000000000000000000000000058885PES00010000001000000000000000000000000
202008110010010100000000000000011742000000000000000117428000000000020177525406METALURGICA SP                000000000099977000000000000000000000000000000000000000000000000000000000000000000000000000000000000000000000000000023620PES00010000001000000000000000000000000
202008110010010100000000000000011743000000000000000117438000000000020080040254MARTINEZ SANTAMARINA          000000000270041000000000000000000000000000000000000000000000000000000000000000000000000000000000000000000000000000056902PES00010000001000000000000000000000000
202008110010010100000000000000011744000000000000000117448000000000030715227254SANITAS MEDICINA LAB          000000000069997000000000000000000000000000000000000000000000000000000000000000000000000000000000000000000000000000010252PES00010000001000000000000000000000000
202008110010010100000000000000011745000000000000000117458000000000030715822187QUIMICA TUCUMAN SRL           000000000495024000000000000000000000000000000000000000000000000000000000000000000000000000000000000000000000000000072504PES00010000001000000000000000000000000
202008110010010100000000000000011746000000000000000117468000000000030712386416C.V CONSTRUCCIONES S          000000000100000000000000000000000000000000000000000000000000000000000000000000000000000000000000000000000000000000023626PES00010000001000000000000000000000000
202008110010010100000000000000011747000000000000000117478000000000030675388292MAUER S.R.L                   000000000100000000000000000000000000000000000000000000000000000000000000000000000000000000000000000000000000000000023626PES00010000001000000000000000000000000
202008110010010100000000000000011748000000000000000117488000000000030592845845CETROGAR S.A                  000000000059998000000000000000000000000000000000000000000000000000000000000000000000000000000000000000000000000000014174PES00010000001000000000000000000000000
202008110010010100000000000000011749000000000000000117498000000000030710502818KILOMETRO 14 SRL              000000000099997000000000000000000000000000000000000000000000000000000000000000000000000000000000000000000000000000014646PES00010000001000000000000000000000000
202008110010010100000000000000011750000000000000000117508000000000020377280378SZMYD JESUS EMMANUEL          000000000049998000000000000000000000000000000000000000000000000000000000000000000000000000000000000000000000000000010535PES00010000001000000000000000000000000
202008120010010100000000000000011751000000000000000117518000000000030502793175ARCOR SAIC                    000000000209852000000000000000000000000000000000000000000000000000000000000000000000000000000000000000000000000000049579PES00010000001000000000000000000000000
202008120010010100000000000000011752000000000000000117528000000000030592845845CETROGAR S.A                  000000000059998000000000000000000000000000000000000000000000000000000000000000000000000000000000000000000000000000014174PES00010000001000000000000000000000000
202008120010010100000000000000011753000000000000000117538000000000020323484350PALACIO CELSO                 000000000250056000000000000000000000000000000000000000000000000000000000000000000000000000000000000000000000000000059078PES00010000001000000000000000000000000
202008120010010100000000000000011754000000000000000117548000000000027207590091SILVA CYNTHIA                 000000000250000000000000000000000000000000000000000000000000000000000000000000000000000000000000000000000000000000052678PES00010000001000000000000000000000000
202008120010010100000000000000011755000000000000000117558000000000027290108786RUEDA MARIA DE LOS A          000000000036000000000000000000000000000000000000000000000000000000000000000000000000000000000000000000000000000000000432PES00010000001000000000000000000000000
202008120010010100000000000000011756000000000000000117568000000000030708764236ROBERTO SALINAS E HI          000000000100000000000000000000000000000000000000000000000000000000000000000000000000000000000000000000000000000000023626PES00010000001000000000000000000000000
202008120010010100000000000000011757000000000000000117578000000000020172449876BRITO ANGEL DIONICIO          000000000300005000000000000000000000000000000000000000000000000000000000000000000000000000000000000000000000000000043940PES00010000001000000000000000000000000
202008120010010100000000000000011758000000000000000117588000000000030711668116MC KREDIT S.R.L EN F          000000000015000000000000000000000000000000000000000000000000000000000000000000000000000000000000000000000000000000000180PES00010000001000000000000000000000000
202008120010010100000000000000011759000000000000000117598000000000030518643742INSTELEC SRL                  000000000420024000000000000000000000000000000000000000000000000000000000000000000000000000000000000000000000000000061518PES00010000001000000000000000000000000
202008120010010100000000000000011760000000000000000117608000000000020220731287MEDRANO VICTOR HUGO           000000000149999000000000000000000000000000000000000000000000000000000000000000000000000000000000000000000000000000021969PES00010000001000000000000000000000000
202008120010010100000000000000011761000000000000000117618000000000020223364048GALLEGO CARLOS MANUE          000000000120006000000000000000000000000000000000000000000000000000000000000000000000000000000000000000000000000000017577PES00010000001000000000000000000000000
202008120010010100000000000000011762000000000000000117628000000000030715946048FELD SAS                      000000000150002000000000000000000000000000000000000000000000000000000000000000000000000000000000000000000000000000028218PES00010000001000000000000000000000000
202008120010010100000000000000011763000000000000000117638000000000020111403989GONZALO LUIS MACIEL           000000000159997000000000000000000000000000000000000000000000000000000000000000000000000000000000000000000000000000023434PES00010000001000000000000000000000000
202008120010010100000000000000011764000000000000000117648000000000020279448848GALVEZ RODRIGO                000000000020611000000000000000000000000000000000000000000000000000000000000000000000000000000000000000000000000000000248PES00010000001000000000000000000000000
202008120010010100000000000000011765000000000000000117658000000000030521797904COOPERATIVA CAMPO DE          000000000016003000000000000000000000000000000000000000000000000000000000000000000000000000000000000000000000000000000192PES00010000001000000000000000000000000
202008120010010100000000000000011766000000000000000117668000000000030697232768ORTEGA CAMIONES SA            000000000100000000000000000000000000000000000000000000000000000000000000000000000000000000000000000000000000000000023626PES00010000001000000000000000000000000
202008120010010100000000000000011767000000000000000117678000000000020393568705ABREGU RICARDO DANIE          000000000100957000000000000000000000000000000000000000000000000000000000000000000000000000000000000000000000000000000400PES00010000001000000000000000000000000
202008120010010100000000000000011768000000000000000117688000000000030714570540HORTIFRUT EXPOFRESH           000000000400001000000000000000000000000000000000000000000000000000000000000000000000000000000000000000000000000000058585PES00010000001000000000000000000000000
202008120010010100000000000000011769000000000000000117698000000000030714644226LA HIGUERA S.R.L              000000000445023000000000000000000000000000000000000000000000000000000000000000000000000000000000000000000000000000105140PES00010000001000000000000000000000000
202008120010010100000000000000011770000000000000000117708000000000027257855509PORRICIELO ARIANA MA          000000000395014000000000000000000000000000000000000000000000000000000000000000000000000000000000000000000000000000057856PES00010000001000000000000000000000000
202008120010010100000000000000011771000000000000000117718000000000020165261624MUDAD FRANCISCO               000000000540036000000000000000000000000000000000000000000000000000000000000000000000000000000000000000000000000000127587PES00010000001000000000000000000000000
202008120010010100000000000000011772000000000000000117728000000000030711278903LA CIUDADELA SRL              000000000208014000000000000000000000000000000000000000000000000000000000000000000000000000000000000000000000000000030467PES00010000001000000000000000000000000
202008120010010100000000000000011773000000000000000117738000000000030697195706NEOCON S.A                    000000000230056000000000000000000000000000000000000000000000000000000000000000000000000000000000000000000000000000054352PES00010000001000000000000000000000000
202008120010010100000000000000011774000000000000000117748000000000020252124196LUIS MARIO PETRELLI           000000000250053000000000000000000000000000000000000000000000000000000000000000000000000000000000000000000000000000052690PES00010000001000000000000000000000000
202008120010010100000000000000011775000000000000000117758000000000020307707927ALDERETES JESUS OMAR          000000001119995000000000000000000000000000000000000000000000000000000000000000000000000000000000000000000000000000264606PES00010000001000000000000000000000000
202008120010010100000000000000011776000000000000000117768000000000020307707927ALDERETES JESUS OMAR          000000000030003000000000000000000000000000000000000000000000000000000000000000000000000000000000000000000000000000007088PES00010000001000000000000000000000000
202008120010010100000000000000011777000000000000000117778000000000020121486947DE FAVERI JORGE HUMB          000000000410040000000000000000000000000000000000000000000000000000000000000000000000000000000000000000000000000000060057PES00010000001000000000000000000000000
202008120010010100000000000000011778000000000000000117788000000000020379568662ANGEL ARMANDO LAMAS           000000000100000000000000000000000000000000000000000000000000000000000000000000000000000000000000000000000000000000023626PES00010000001000000000000000000000000
202008120010010100000000000000011779000000000000000117798000000000030716791803SERVICIOS AGRICOLAS           000000000100000000000000000000000000000000000000000000000000000000000000000000000000000000000000000000000000000000023626PES00010000001000000000000000000000000
202008120010010100000000000000011780000000000000000117808000000000020170741723CASANAS JUAN FRANCIS          000000000050003000000000000000000000000000000000000000000000000000000000000000000000000000000000000000000000000000011813PES00010000001000000000000000000000000
202008120010010100000000000000011781000000000000000117818000000000020102200676JOSE CUSSEDDU                 000000000418168000000000000000000000000000000000000000000000000000000000000000000000000000000000000000000000000000061247PES00010000001000000000000000000000000
202008120010010100000000000000011782000000000000000117828000000000023230550859ALMIRON CESAR OSVALD          000000000280028000000000000000000000000000000000000000000000000000000000000000000000000000000000000000000000000000066159PES00010000001000000000000000000000000
202008120010010100000000000000011783000000000000000117838000000000030710828179ASOC. CIVIL DEPORTIV          000000000159998000000000000000000000000000000000000000000000000000000000000000000000000000000000000000000000000000033714PES00010000001000000000000000000000000
202008120010010100000000000000011784000000000000000117848000000000020122578535RAMON EDUARDO ALBORN          000000000149999000000000000000000000000000000000000000000000000000000000000000000000000000000000000000000000000000021969PES00010000001000000000000000000000000
202008120010010100000000000000011785000000000000000117858000000000030521797904COOPERATIVA CAMPO DE          000000000010398000000000000000000000000000000000000000000000000000000000000000000000000000000000000000000000000000000125PES00010000001000000000000000000000000
202008120010010100000000000000011786000000000000000117868000000000033707560679LA MARTINA SRL                000000000200002000000000000000000000000000000000000000000000000000000000000000000000000000000000000000000000000000029294PES00010000001000000000000000000000000
202008120010010100000000000000011787000000000000000117878000000000033707560679LA MARTINA SRL                000000000050001000000000000000000000000000000000000000000000000000000000000000000000000000000000000000000000000000007323PES00010000001000000000000000000000000
202008120010010100000000000000011788000000000000000117888000000000027945807607ORTEGA FERNANDEZ ANT          000000000410060000000000000000000000000000000000000000000000000000000000000000000000000000000000000000000000000000060059PES00010000001000000000000000000000000
202008120010010100000000000000011789000000000000000117898000000000033623510129HILADOS SANTA MARIA           000000000480011000000000000000000000000000000000000000000000000000000000000000000000000000000000000000000000000000070305PES00010000001000000000000000000000000
202008120010010100000000000000011790000000000000000117908000000000020277510953IBANEZ CLAUDIO LEONA          000000000024727000000000000000000000000000000000000000000000000000000000000000000000000000000000000000000000000000000297PES00010000001000000000000000000000000
202008120010010100000000000000011791000000000000000117918000000000020277510953IBANEZ CLAUDIO LEONA          000000000174997000000000000000000000000000000000000000000000000000000000000000000000000000000000000000000000000000041344PES00010000001000000000000000000000000
202008120010010100000000000000011792000000000000000117928000000000027261096116ACOSTA ELSA                   000000000299997000000000000000000000000000000000000000000000000000000000000000000000000000000000000000000000000000043938PES00010000001000000000000000000000000
202008120010010100000000000000011793000000000000000117938000000000030715806815BUILDING WORD S.R.L           000000000250002000000000000000000000000000000000000000000000000000000000000000000000000000000000000000000000000000036616PES00010000001000000000000000000000000
202008120010010100000000000000011794000000000000000117948000000000020213389689SILVA MARIO                   000000000060008000000000000000000000000000000000000000000000000000000000000000000000000000000000000000000000000000014178PES00010000001000000000000000000000000
202008120010010100000000000000011795000000000000000117958000000000020275979369SUELDO RICARDO                000000000140024000000000000000000000000000000000000000000000000000000000000000000000000000000000000000000000000000029505PES00010000001000000000000000000000000
202008120010010100000000000000011796000000000000000117968000000000020144483910PUCHULU RAMON JUAN            000000000099999000000000000000000000000000000000000000000000000000000000000000000000000000000000000000000000000000021072PES00010000001000000000000000000000000
202008120010010100000000000000011797000000000000000117978000000000020160600005QUESADA JUAN CARLOS           000000000300005000000000000000000000000000000000000000000000000000000000000000000000000000000000000000000000000000043940PES00010000001000000000000000000000000
202008120010010100000000000000011798000000000000000117988000000000020302083496POMO MATIAS ADOLFO            000000000199999000000000000000000000000000000000000000000000000000000000000000000000000000000000000000000000000000037623PES00010000001000000000000000000000000
202008130010010100000000000000011799000000000000000117998000000000020175264486AGUERA JUAN ANTONIO           000000000023001000000000000000000000000000000000000000000000000000000000000000000000000000000000000000000000000000000276PES00010000001000000000000000000000000
202008130010010100000000000000011800000000000000000118008000000000030712419225AGRO ALIANZA SA               000000000079999000000000000000000000000000000000000000000000000000000000000000000000000000000000000000000000000000018900PES00010000001000000000000000000000000
202008130010010100000000000000011801000000000000000118018000000000027217453092ANA MARIA FIGUEROA            000000000135040000000000000000000000000000000000000000000000000000000000000000000000000000000000000000000000000000019779PES00010000001000000000000000000000000
202008130010010100000000000000011802000000000000000118028000000000027261096116ACOSTA ELSA                   000000000149997000000000000000000000000000000000000000000000000000000000000000000000000000000000000000000000000000031607PES00010000001000000000000000000000000
202008130010010100000000000000011803000000000000000118038000000000030710735537R.V INGENIERIA S.R.L          000000000012655000000000000000000000000000000000000000000000000000000000000000000000000000000000000000000000000000000152PES00010000001000000000000000000000000
202008130010010100000000000000011804000000000000000118048000000000030641290242GUIDOLI FLORIO S.R.L          000000000149997000000000000000000000000000000000000000000000000000000000000000000000000000000000000000000000000000031607PES00010000001000000000000000000000000
202008130010010100000000000000011805000000000000000118058000000000023314259599ZELARAYAN NICOLAS             000000000220005000000000000000000000000000000000000000000000000000000000000000000000000000000000000000000000000000046358PES00010000001000000000000000000000000
202008130010010100000000000000011806000000000000000118068000000000030714126721ABC DISTRIBUCIONES            000000000270026000000000000000000000000000000000000000000000000000000000000000000000000000000000000000000000000000056899PES00010000001000000000000000000000000
202008130010010100000000000000011807000000000000000118078000000000020220738958BUTELER GUSTAVO               000000000320007000000000000000000000000000000000000000000000000000000000000000000000000000000000000000000000000000075604PES00010000001000000000000000000000000
202008130010010100000000000000011808000000000000000118088000000000030715070681AGRODESARROLLOS               000000000373026000000000000000000000000000000000000000000000000000000000000000000000000000000000000000000000000000054635PES00010000001000000000000000000000000
202008130010010100000000000000011809000000000000000118098000000000020220731287MEDRANO VICTOR HUGO           000000000069997000000000000000000000000000000000000000000000000000000000000000000000000000000000000000000000000000010252PES00010000001000000000000000000000000
202008130010010100000000000000011810000000000000000118108000000000030708668733REFRES NOW SA                 000000000270005000000000000000000000000000000000000000000000000000000000000000000000000000000000000000000000000000056895PES00010000001000000000000000000000000
202008130010010100000000000000011811000000000000000118118000000000030711668116MC KREDIT S.R.L EN F          000000000035837000000000000000000000000000000000000000000000000000000000000000000000000000000000000000000000000000000430PES00010000001000000000000000000000000
202008130010010100000000000000011812000000000000000118128000000000020279448848GALVEZ RODRIGO                000000000020254000000000000000000000000000000000000000000000000000000000000000000000000000000000000000000000000000000243PES00010000001000000000000000000000000
202008130010010100000000000000011813000000000000000118138000000000020324372661RAMIRO REYES JEREZ            000000000053298000000000000000000000000000000000000000000000000000000000000000000000000000000000000000000000000000000640PES00010000001000000000000000000000000
202008130010010100000000000000011814000000000000000118148000000000020260316835NASSER ROLANDO JAVIE          000000000022657000000000000000000000000000000000000000000000000000000000000000000000000000000000000000000000000000000272PES00010000001000000000000000000000000
202008130010010100000000000000011815000000000000000118158000000000020260316835NASSER ROLANDO JAVIE          000000000100000000000000000000000000000000000000000000000000000000000000000000000000000000000000000000000000000000023626PES00010000001000000000000000000000000
202008130010010100000000000000011816000000000000000118168000000000030709194204KINGBERRY S.A                 000000000230070000000000000000000000000000000000000000000000000000000000000000000000000000000000000000000000000000054355PES00010000001000000000000000000000000
202008130010010100000000000000011817000000000000000118178000000000030712478817ALINOA SA                     000000000069161000000000000000000000000000000000000000000000000000000000000000000000000000000000000000000000000000000831PES00010000001000000000000000000000000
202008130010010100000000000000011818000000000000000118188000000000020263049269PONCE PEDRO PABLO             000000000100000000000000000000000000000000000000000000000000000000000000000000000000000000000000000000000000000000023626PES00010000001000000000000000000000000
202008130010010100000000000000011819000000000000000118198000000000020170406177TERAN JOSE LUCAS              000000000200002000000000000000000000000000000000000000000000000000000000000000000000000000000000000000000000000000029294PES00010000001000000000000000000000000
202008130010010100000000000000011820000000000000000118208000000000020315490236LOBO JORGE AGUSTO             000000000199999000000000000000000000000000000000000000000000000000000000000000000000000000000000000000000000000000047251PES00010000001000000000000000000000000
202008130010010100000000000000011821000000000000000118218000000000030709545910FINCAS GREYCO SRL             000000000069997000000000000000000000000000000000000000000000000000000000000000000000000000000000000000000000000000016538PES00010000001000000000000000000000000
202008130010010100000000000000011822000000000000000118228000000000030709545910FINCAS GREYCO SRL             000000000199999000000000000000000000000000000000000000000000000000000000000000000000000000000000000000000000000000047251PES00010000001000000000000000000000000
202008130010010100000000000000011823000000000000000118238000000000020223975780RODRIGUEZ JOSE RODOL          000000000099997000000000000000000000000000000000000000000000000000000000000000000000000000000000000000000000000000014646PES00010000001000000000000000000000000
202008130010010100000000000000011824000000000000000118248000000000030710938357TEMAS INDUSTRIALES S          000000000300005000000000000000000000000000000000000000000000000000000000000000000000000000000000000000000000000000043940PES00010000001000000000000000000000000
202008130010010100000000000000011825000000000000000118258000000000020219481471RISSO PATRON MIGUEL           000000000069997000000000000000000000000000000000000000000000000000000000000000000000000000000000000000000000000000016538PES00010000001000000000000000000000000
202008130010010100000000000000011826000000000000000118268000000000020174941891GURAIIB EDUARDO               000000000535008000000000000000000000000000000000000000000000000000000000000000000000000000000000000000000000000000078360PES00010000001000000000000000000000000
202008130010010100000000000000011827000000000000000118278000000000020315884188JUAN EMMANUEL PEREA           000000000050012000000000000000000000000000000000000000000000000000000000000000000000000000000000000000000000000000011816PES00010000001000000000000000000000000
202008130010010100000000000000011828000000000000000118288000000000030712508848ESCALA PREMOLDEADOS           000000000100000000000000000000000000000000000000000000000000000000000000000000000000000000000000000000000000000000023626PES00010000001000000000000000000000000
202008130010010100000000000000011829000000000000000118298000000000030709833800CONSULTORES INDUSTRI          000000000079999000000000000000000000000000000000000000000000000000000000000000000000000000000000000000000000000000018900PES00010000001000000000000000000000000
202008130010010100000000000000011830000000000000000118308000000000030557784132GEBAL S.A                     000000000260007000000000000000000000000000000000000000000000000000000000000000000000000000000000000000000000000000038081PES00010000001000000000000000000000000
202008130010010100000000000000011831000000000000000118318000000000030715719963ALTOS LA CELIA SRL            000000000430035000000000000000000000000000000000000000000000000000000000000000000000000000000000000000000000000000062984PES00010000001000000000000000000000000
202008130010010100000000000000011832000000000000000118328000000000020313573134FERNANDO NICOLAS ZAR          000000000016003000000000000000000000000000000000000000000000000000000000000000000000000000000000000000000000000000000192PES00010000001000000000000000000000000
202008130010010100000000000000011833000000000000000118338000000000030592845845CETROGAR S.A                  000000000059998000000000000000000000000000000000000000000000000000000000000000000000000000000000000000000000000000014174PES00010000001000000000000000000000000
202008130010010100000000000000011834000000000000000118348000000000020202200541CARRASCO DANIEL EDUA          000000000350000000000000000000000000000000000000000000000000000000000000000000000000000000000000000000000000000000051263PES00010000001000000000000000000000000
202008130010010100000000000000011835000000000000000118358000000000030715400630TSA ARGENTINA                 000000000015000000000000000000000000000000000000000000000000000000000000000000000000000000000000000000000000000000000180PES00010000001000000000000000000000000
202008130010010100000000000000011836000000000000000118368000000000030710251637CONTROL INDUSTRIAL N          000000000050003000000000000000000000000000000000000000000000000000000000000000000000000000000000000000000000000000011813PES00010000001000000000000000000000000
202008130010010100000000000000011837000000000000000118378000000000020314684827QUISPE ARIEL ALBERTO          000000000017000000000000000000000000000000000000000000000000000000000000000000000000000000000000000000000000000000000204PES00010000001000000000000000000000000
202008130010010100000000000000011838000000000000000118388000000000020322356197PINTOR GUILLERMO MAT          000000000465037000000000000000000000000000000000000000000000000000000000000000000000000000000000000000000000000000068111PES00010000001000000000000000000000000
202008130010010100000000000000011839000000000000000118398000000000020260112296ROMANO SERGIO RAUL            000000000499999000000000000000000000000000000000000000000000000000000000000000000000000000000000000000000000000000073232PES00010000001000000000000000000000000
202008130010010100000000000000011840000000000000000118408000000000030714875112ELECTROMECANICA DEL           000000000050003000000000000000000000000000000000000000000000000000000000000000000000000000000000000000000000000000011813PES00010000001000000000000000000000000
202008130010010100000000000000011841000000000000000118418000000000033716283319CEF GROUP SRL                 000000000430002000000000000000000000000000000000000000000000000000000000000000000000000000000000000000000000000000062980PES00010000001000000000000000000000000
2020081300100101000000000000000118420000000000000001184280000000000307141489541000 VER S.R.L                000000000200002000000000000000000000000000000000000000000000000000000000000000000000000000000000000000000000000000042143PES00010000001000000000000000000000000
202008130010010100000000000000011843000000000000000118438000000000020255430654JOSE LUIS CESCA (COR          000000000390018000000000000000000000000000000000000000000000000000000000000000000000000000000000000000000000000000057124PES00010000001000000000000000000000000
202008130010010100000000000000011844000000000000000118448000000000020240299233PINO GUSTAVO ARIEL            000000001979994000000000000000000000000000000000000000000000000000000000000000000000000000000000000000000000000000372469PES00010000001000000000000000000000000
202008130010010100000000000000011845000000000000000118458000000000020376581749LAZARTE JUAN IGNACIO          000000000050003000000000000000000000000000000000000000000000000000000000000000000000000000000000000000000000000000011813PES00010000001000000000000000000000000
202008140010010100000000000000011846000000000000000118468000000000030710502818KILOMETRO 14 SRL              000000000238133000000000000000000000000000000000000000000000000000000000000000000000000000000000000000000000000000029294PES00010000001000000000000000000000000
202008140010010100000000000000011847000000000000000118478000000000030709191361EL LIMON SRL                  000000000255026000000000000000000000000000000000000000000000000000000000000000000000000000000000000000000000000000037352PES00010000001000000000000000000000000
202008140010010100000000000000011848000000000000000118488000000000030711064946CENTRAL OUTDOOR SRL           000000000485033000000000000000000000000000000000000000000000000000000000000000000000000000000000000000000000000000071040PES00010000001000000000000000000000000
202008140010010100000000000000011849000000000000000118498000000000030685697250CAMPODER SRL                  000000000147020000000000000000000000000000000000000000000000000000000000000000000000000000000000000000000000000000027656PES00010000001000000000000000000000000
