202007150010001000000000000000003893000000000000000038938000000000030500875239SA AZUCARERA                  000000000028600000000000000000000000000000000000000000000000000000000000000000000000000000000000000000000000000000000000PES00010000001000000000000000000000000
202007010030001100000000000000000053000000000000000000538000000000030708913266TRANSPORTE HACHA DE           000000000053491000000000000000000000000000000000000000000000000000000000000000000000000000000000000000000000000000000000PES00010000001000000000000000000000000
202007030010001000000000000000000858000000000000000008588000000000030711057591ZAMAGRO S.R.L                 000000000022000000000000000000000000000000000000000000000000000000000000000000000000000000000000000000000000000000000000PES00010000001000000000000000000000000
202007080010001000000000000000000859000000000000000008598000000000030707010017NIDEPLUS SA                   000000001265201000000000000000000000000000000000000000000000000000000000000000000000000000000000000000000000000000000000PES00010000001000000000000000000000000
202007130010001000000000000000000860000000000000000008608000000000027257855509PORRICIELLO ARIANA M          000000000906401000000000000000000000000000000000000000000000000000000000000000000000000000000000000000000000000000000000PES00010000001000000000000000000000000
202007160010001000000000000000000861000000000000000008618000000000020213280725CARLOS TAMER                  000000000320400000000000000000000000000000000000000000000000000000000000000000000000000000000000000000000000000000000000PES00010000001000000000000000000000000
202007200010001000000000000000000862000000000000000008628000000000030714040142RODOLFO DANTE GOMEZ           000000000435708000000000000000000000000000000000000000000000000000000000000000000000000000000000000000000000000000000000PES00010000001000000000000000000000000
202007210010001000000000000000000863000000000000000008638000000000020385092653ALDERETE CLAUDIO FAB          000000000638600000000000000000000000000000000000000000000000000000000000000000000000000000000000000000000000000000000000PES00010000001000000000000000000000000
202007210010001000000000000000000864000000000000000008648000000000020160911388YSA VICTOR HUGO               000000000441301000000000000000000000000000000000000000000000000000000000000000000000000000000000000000000000000000000000PES00010000001000000000000000000000000
202007240010001000000000000000000865000000000000000008658000000000030591268054ERNESTO H FERNANDEZ           000000000668601000000000000000000000000000000000000000000000000000000000000000000000000000000000000000000000000000000000PES00010000001000000000000000000000000
202007240010001000000000000000000867000000000000000008678000000000027342268515GOMEZ MAURA MERCEDES          000000000536701000000000000000000000000000000000000000000000000000000000000000000000000000000000000000000000000000000000PES00010000001000000000000000000000000
202007250010001000000000000000000868000000000000000008688000000000024112845468CHAILE CARLOS RUBEN           000000000071000000000000000000000000000000000000000000000000000000000000000000000000000000000000000000000000000000000000PES00010000001000000000000000000000000
2020072700100010000000000000000008690000000000000000086980000000000307141489541000 VER S.R.L                000000000059800000000000000000000000000000000000000000000000000000000000000000000000000000000000000000000000000000000000PES00010000001000000000000000000000000
202007300010001000000000000000000870000000000000000008708000000000030715274732COOPERATIVA DONA JUA          000000001527261000000000000000000000000000000000000000000000000000000000000000000000000000000000000000000000000000000000PES00010000001000000000000000000000000
202007010010001000000000000000000993000000000000000009938000000000030716471043GRUPO LICI SRL                000000000014000000000000000000000000000000000000000000000000000000000000000000000000000000000000000000000000000000000000PES00010000001000000000000000000000000
202007010010001000000000000000000994000000000000000009948000000000030709195251LA CELINA SRL                 000000000022100000000000000000000000000000000000000000000000000000000000000000000000000000000000000000000000000000008833PES00010000001000000000000000000000000
202007010010001000000000000000000995000000000000000009958000000000023687260783EL PUCARA S.A                 000000000040000000000000000000000000000000000000000000000000000000000000000000000000000000000000000000000000000000000000PES00010000001000000000000000000000000
202007020010001000000000000000000996000000000000000009968000000000030714516899AGRO ACONQUIJA S.R.L          000000000017500000000000000000000000000000000000000000000000000000000000000000000000000000000000000000000000000000000000PES00010000001000000000000000000000000
202007020010001000000000000000000997000000000000000009978000000000030709195251LA CELINA SRL                 000000000009200000000000000000000000000000000000000000000000000000000000000000000000000000000000000000000000000000000000PES00010000001000000000000000000000000
202007030010001000000000000000000998000000000000000009988000000000030702346971ENGORDAR SA                   000000000040900000000000000000000000000000000000000000000000000000000000000000000000000000000000000000000000000000000123PES00010000001000000000000000000000000
202007040010001000000000000000000999000000000000000009998000000000030710735537R.V INGENIERIA S.R.L          000000000017500000000000000000000000000000000000000000000000000000000000000000000000000000000000000000000000000000000000PES00010000001000000000000000000000000
202007040010001000000000000000001000000000000000000010008000000000020253316560TULA JOSE HERNAN              000000000017500000000000000000000000000000000000000000000000000000000000000000000000000000000000000000000000000000000000PES00010000001000000000000000000000000
202007040010001000000000000000001001000000000000000010018000000000030709195251LA CELINA SRL                 000000000022100000000000000000000000000000000000000000000000000000000000000000000000000000000000000000000000000000008833PES00010000001000000000000000000000000
202007040010001000000000000000001002000000000000000010028000000000020201610398ALMARAZ FEDERICO CES          000000000032200000000000000000000000000000000000000000000000000000000000000000000000000000000000000000000000000000000000PES00010000001000000000000000000000000
202007060010001000000000000000001003000000000000000010038000000000033697225639ARGENTI LEMON                 000000000042000000000000000000000000000000000000000000000000000000000000000000000000000000000000000000000000000000000000PES00010000001000000000000000000000000
202007060010001000000000000000001004000000000000000010048000000000030518408689SALTA REFRESCO                000000000015000000000000000000000000000000000000000000000000000000000000000000000000000000000000000000000000000000000000PES00010000001000000000000000000000000
202007070010001000000000000000001005000000000000000010058000000000020276515706SPIESS PABLO OTTO             000000000046200000000000000000000000000000000000000000000000000000000000000000000000000000000000000000000000000000000000PES00010000001000000000000000000000000
202007070010001000000000000000001006000000000000000010068000000000030709101354COSMOFLOR SA                  000000000044000000000000000000000000000000000000000000000000000000000000000000000000000000000000000000000000000000000000PES00010000001000000000000000000000000
202007070010001000000000000000001007000000000000000010078000000000033687260789EL PUCARA S.A                 000000000033000000000000000000000000000000000000000000000000000000000000000000000000000000000000000000000000000000000000PES00010000001000000000000000000000000
202007080010001000000000000000001008000000000000000010088000000000033678720629LA PIPA SRL                   000000000037000000000000000000000000000000000000000000000000000000000000000000000000000000000000000000000000000000000000PES00010000001000000000000000000000000
202007080010001000000000000000001009000000000000000010098000000000030712293507DEVELOPERS S.A                000000000037000000000000000000000000000000000000000000000000000000000000000000000000000000000000000000000000000000000000PES00010000001000000000000000000000000
202007080010001000000000000000001010000000000000000010108000000000030709195251LA CELINA SRL                 000000000012900000000000000000000000000000000000000000000000000000000000000000000000000000000000000000000000000000008833PES00010000001000000000000000000000000
202007080010001000000000000000001011000000000000000010118000000000027266386015CEJAS DELIA BEATRIZ           000000000019800000000000000000000000000000000000000000000000000000000000000000000000000000000000000000000000000000000000PES00010000001000000000000000000000000
202007100010001000000000000000001012000000000000000010128000000000030716471043GRUPO LICI SRL                000000000018500000000000000000000000000000000000000000000000000000000000000000000000000000000000000000000000000000000000PES00010000001000000000000000000000000
202007130010001000000000000000001013000000000000000010138000000000030709868639TECNO CAMPO SRL               000000000040900000000000000000000000000000000000000000000000000000000000000000000000000000000000000000000000000000000000PES00010000001000000000000000000000000
202007130010001000000000000000001014000000000000000010148000000000030709195251LA CELINA SRL                 000000000022400000000000000000000000000000000000000000000000000000000000000000000000000000000000000000000000000000008833PES00010000001000000000000000000000000
202007130010001000000000000000001015000000000000000010158000000000030716663929UNIFRUTTI S.A                 000000000044000000000000000000000000000000000000000000000000000000000000000000000000000000000000000000000000000000000000PES00010000001000000000000000000000000
202007140010001000000000000000001016000000000000000010168000000000020110747625PEREZ JUAN LUIS               000000000013900000000000000000000000000000000000000000000000000000000000000000000000000000000000000000000000000000000000PES00010000001000000000000000000000000
202007140010001000000000000000001017000000000000000010178000000000020202119876LUIS MOVANE                   000000000039500000000000000000000000000000000000000000000000000000000000000000000000000000000000000000000000000000000000PES00010000001000000000000000000000000
202007140010001000000000000000001018000000000000000010188000000000030714126721ABC DISTRIBUCIONES            000000000031800000000000000000000000000000000000000000000000000000000000000000000000000000000000000000000000000000000000PES00010000001000000000000000000000000
202007150010001000000000000000001019000000000000000010198000000000020138487823PALACIOS JORGE EDUAR          000000000105600000000000000000000000000000000000000000000000000000000000000000000000000000000000000000000000000000000000PES00010000001000000000000000000000000
202007150010001000000000000000001020000000000000000010208000000000020138487823PALACIOS JORGE EDUAR          000000000011200000000000000000000000000000000000000000000000000000000000000000000000000000000000000000000000000000000000PES00010000001000000000000000000000000
202007150010001000000000000000001021000000000000000010218000000000030646167775METALFOR                      000000000041800000000000000000000000000000000000000000000000000000000000000000000000000000000000000000000000000000000239PES00010000001000000000000000000000000
202007150010001000000000000000001022000000000000000010228000000000020286816348SANCHEZ ARIEL ARNALD          000000000018500000000000000000000000000000000000000000000000000000000000000000000000000000000000000000000000000000000000PES00010000001000000000000000000000000
202007150010001000000000000000001023000000000000000010238000000000030709740934FERTILIZANTES FULLTE          000000000026600000000000000000000000000000000000000000000000000000000000000000000000000000000000000000000000000000000127PES00010000001000000000000000000000000
202007150010001000000000000000001024000000000000000010248000000000030716663929UNIFRUTTI S.A                 000000000077000000000000000000000000000000000000000000000000000000000000000000000000000000000000000000000000000000000000PES00010000001000000000000000000000000
202007160010001000000000000000001025000000000000000010258000000000033691776919FABRICA DE FIDEOS RI          000000000048800000000000000000000000000000000000000000000000000000000000000000000000000000000000000000000000000000000000PES00010000001000000000000000000000000
202007160010001000000000000000001026000000000000000010268000000000030709101354COSMOFLOR SA                  000000000044000000000000000000000000000000000000000000000000000000000000000000000000000000000000000000000000000000000000PES00010000001000000000000000000000000
202007160010001000000000000000001027000000000000000010278000000000020160911388YSA VICTOR HUGO               000000000032000000000000000000000000000000000000000000000000000000000000000000000000000000000000000000000000000000000000PES00010000001000000000000000000000000
202007170010001000000000000000001028000000000000000010288000000000020129578166NEME SCHEIJ ALFREDO           000000000049100000000000000000000000000000000000000000000000000000000000000000000000000000000000000000000000000000000000PES00010000001000000000000000000000000
202007170010001000000000000000001029000000000000000010298000000000030710735537R.V INGENIERIA S.R.L          000000000007600000000000000000000000000000000000000000000000000000000000000000000000000000000000000000000000000000000000PES00010000001000000000000000000000000
202007170010001000000000000000001030000000000000000010308000000000020253041227AGUILAR ARIEL                 000000000017200000000000000000000000000000000000000000000000000000000000000000000000000000000000000000000000000000000000PES00010000001000000000000000000000000
202007170010001000000000000000001031000000000000000010318000000000033697225639ARGENTI LEMON                 000000000022500000000000000000000000000000000000000000000000000000000000000000000000000000000000000000000000000000000190PES00010000001000000000000000000000000
202007170010001000000000000000001032000000000000000010328000000000033707379419AGROQUIMICA ALBERDI           000000000021400000000000000000000000000000000000000000000000000000000000000000000000000000000000000000000000000000000000PES00010000001000000000000000000000000
202007170010001000000000000000001033000000000000000010338000000000020249606058DIBE MARTIN                   000000000056100000000000000000000000000000000000000000000000000000000000000000000000000000000000000000000000000000000000PES00010000001000000000000000000000000
202007180010001000000000000000001034000000000000000010348000000000030702145895REMA TIP-TOP SERVICE          000000000101400000000000000000000000000000000000000000000000000000000000000000000000000000000000000000000000000000000473PES00010000001000000000000000000000000
202007200010001000000000000000001035000000000000000010358000000000030714516899AGRO ACONQUIJA S.R.L          000000000018000000000000000000000000000000000000000000000000000000000000000000000000000000000000000000000000000000000000PES00010000001000000000000000000000000
202007200010001000000000000000001036000000000000000010368000000000030709195251LA CELINA SRL                 000000000009500000000000000000000000000000000000000000000000000000000000000000000000000000000000000000000000000000000000PES00010000001000000000000000000000000
202007200010001000000000000000001037000000000000000010378000000000027266386015CEJAS DELIA BEATRIZ           000000000019800000000000000000000000000000000000000000000000000000000000000000000000000000000000000000000000000000000000PES00010000001000000000000000000000000
202007210010001000000000000000001038000000000000000010388000000000030709786446KURSK SRL                     000000000033000000000000000000000000000000000000000000000000000000000000000000000000000000000000000000000000000000000000PES00010000001000000000000000000000000
202007210010001000000000000000001039000000000000000010398000000000030714516899AGRO ACONQUIJA S.R.L          000000000060505000000000010900000000000000000000000000000000000000000000000000000000000000000000000000000000000000000000PES00010000001000000000000000000000000
202007210010001000000000000000001040000000000000000010408000000000020110747625PEREZ JUAN LUIS               000000000028000000000000000000000000000000000000000000000000000000000000000000000000000000000000000000000000000000000000PES00010000001000000000000000000000000
202007210010001000000000000000001041000000000000000010418000000000030714960950FAST AGRO ARGENTINA           000000000044000000000000000000000000000000000000000000000000000000000000000000000000000000000000000000000000000000000000PES00010000001000000000000000000000000
202007210010001000000000000000001042000000000000000010428000000000030709101354COSMOFLOR SA                  000000000044000000000000000000000000000000000000000000000000000000000000000000000000000000000000000000000000000000000000PES00010000001000000000000000000000000
202007210010001000000000000000001043000000000000000010438000000000033716401249VILOAGRO S.A.S                000000000044000000000000000000000000000000000000000000000000000000000000000000000000000000000000000000000000000000000000PES00010000001000000000000000000000000
202007210010001000000000000000001044000000000000000010448000000000030578654182BP SA                         000000000030000000000000000000000000000000000000000000000000000000000000000000000000000000000000000000000000000000000000PES00010000001000000000000000000000000
202007220010001000000000000000001045000000000000000010458000000000030707976957AGRO LAJITAS                  000000000020900000000000000000000000000000000000000000000000000000000000000000000000000000000000000000000000000000000000PES00010000001000000000000000000000000
202007220010001000000000000000001046000000000000000010468000000000030709195251LA CELINA SRL                 000000000022400000000000000000000000000000000000000000000000000000000000000000000000000000000000000000000000000000008833PES00010000001000000000000000000000000
202007220010001000000000000000001047000000000000000010478000000000020165490194TYSCO MARCELO EDUARD          000000000037500000000000000000000000000000000000000000000000000000000000000000000000000000000000000000000000000000000000PES00010000001000000000000000000000000
202007220010001000000000000000001048000000000000000010488000000000027217464590MEONE EUGENIA                 000000000060000000000000000000000000000000000000000000000000000000000000000000000000000000000000000000000000000000000000PES00010000001000000000000000000000000
202007220010001000000000000000001049000000000000000010498000000000020176852233CATALAN JOSE ANTONIO          000000000057700000000000000000000000000000000000000000000000000000000000000000000000000000000000000000000000000000000000PES00010000001000000000000000000000000
202007220010001000000000000000001050000000000000000010508000000000027266386015CEJAS DELIA BEATRIZ           000000000095500000000000000000000000000000000000000000000000000000000000000000000000000000000000000000000000000000000000PES00010000001000000000000000000000000
202007230010001000000000000000001051000000000000000010518000000000020307755786MARTINO MARIO                 000000000027600000000000000000000000000000000000000000000000000000000000000000000000000000000000000000000000000000000000PES00010000001000000000000000000000000
202007230010001000000000000000001052000000000000000010528000000000030709101354COSMOFLOR SA                  000000000033000000000000000000000000000000000000000000000000000000000000000000000000000000000000000000000000000000000000PES00010000001000000000000000000000000
202007230010001000000000000000001053000000000000000010538000000000030697195706NEOCON S.A                    000000000057100000000000000000000000000000000000000000000000000000000000000000000000000000000000000000000000000000000411PES00010000001000000000000000000000000
202007230010001000000000000000001054000000000000000010548000000000030710502818KILOMETRO 14 SRL              000000000032800000000000000000000000000000000000000000000000000000000000000000000000000000000000000000000000000000000000PES00010000001000000000000000000000000
202007230010001000000000000000001055000000000000000010558000000000020160911388YSA VICTOR HUGO               000000000032000000000000000000000000000000000000000000000000000000000000000000000000000000000000000000000000000000000000PES00010000001000000000000000000000000
202007240010001000000000000000001056000000000000000010568000000000030709195251LA CELINA SRL                 000000000022400000000000000000000000000000000000000000000000000000000000000000000000000000000000000000000000000000008833PES00010000001000000000000000000000000
202007250010001000000000000000001057000000000000000010578000000000030709195251LA CELINA SRL                 000000000024000000000000000000000000000000000000000000000000000000000000000000000000000000000000000000000000000000000000PES00010000001000000000000000000000000
202007270010001000000000000000001058000000000000000010588000000000030500875239S.A AZUCARERA J.FRIA          000000000071600000000000000000000000000000000000000000000000000000000000000000000000000000000000000000000000000000000000PES00010000001000000000000000000000000
202007270010001000000000000000001059000000000000000010598000000000030518408689SALTA REFRESCO                000000000060000000000000000000000000000000000000000000000000000000000000000000000000000000000000000000000000000000000000PES00010000001000000000000000000000000
202007270010001000000000000000001060000000000000000010608000000000030709195251LA CELINA SRL                 000000000014500000000000000000000000000000000000000000000000000000000000000000000000000000000000000000000000000000000000PES00010000001000000000000000000000000
202007280010001000000000000000001061000000000000000010618000000000030714516899AGRO ACONQUIJA S.R.L          000000000015200000000000000000000000000000000000000000000000000000000000000000000000000000000000000000000000000000000000PES00010000001000000000000000000000000
202007280010001000000000000000001062000000000000000010628000000000030709195251LA CELINA SRL                 000000000027400000000000000000000000000000000000000000000000000000000000000000000000000000000000000000000000000000008833PES00010000001000000000000000000000000
202007280010001000000000000000001063000000000000000010638000000000020259225273FERREYRA MARTIN GUID          000000000037500000000000000000000000000000000000000000000000000000000000000000000000000000000000000000000000000000000000PES00010000001000000000000000000000000
202007290010001000000000000000001064000000000000000010648000000000030695177239AGROPECUARIA MISTOL           000000000018500000000000000000000000000000000000000000000000000000000000000000000000000000000000000000000000000000000000PES00010000001000000000000000000000000
202007290010001000000000000000001065000000000000000010658000000000030635815201FRESENIUS MEDICAL CA          000000000018000000000000000000000000000000000000000000000000000000000000000000000000000000000000000000000000000000000000PES00010000001000000000000000000000000
202007290010001000000000000000001066000000000000000010668000000000030714516899AGRO ACONQUIJA S.R.L          000000000060900000000000014000000000000000000000000000000000000000000000000000000000000000000000000000000000000000000000PES00010000001000000000000000000000000
202007290010001000000000000000001067000000000000000010678000000000030714141054JSNORTE INGENIERIA            000000000044000000000000000000000000000000000000000000000000000000000000000000000000000000000000000000000000000000000000PES00010000001000000000000000000000000
202007300010001000000000000000001068000000000000000010688000000000030714516899AGRO ACONQUIJA S.R.L          000000000016500000000000000000000000000000000000000000000000000000000000000000000000000000000000000000000000000000000000PES00010000001000000000000000000000000
202007300010001000000000000000001069000000000000000010698000000000030714459569LICING SRL                    000000000021900000000000000000000000000000000000000000000000000000000000000000000000000000000000000000000000000000000000PES00010000001000000000000000000000000
202007300010001000000000000000001070000000000000000010708000000000030506230914CITROMAX SACI                 000000000035000000000000000000000000000000000000000000000000000000000000000000000000000000000000000000000000000000000000PES00010000001000000000000000000000000
202007310010001000000000000000001071000000000000000010718000000000020272987786MENA FERNANDO                 000000000009500000000000000000000000000000000000000000000000000000000000000000000000000000000000000000000000000000000000PES00010000001000000000000000000000000
202007010010001000000000000000003800000000000000000038008000000000030710735537R.V INGENIERIA S.R.L          000000000026700000000000000000000000000000000000000000000000000000000000000000000000000000000000000000000000000000000000PES00010000001000000000000000000000000
202007010010001000000000000000003801000000000000000038018000000000030710061196NATUBY SRL                    000000000071100000000000000000000000000000000000000000000000000000000000000000000000000000000000000000000000000000000000PES00010000001000000000000000000000000
202007010010001000000000000000003802000000000000000038028000000000030709101354COSMOFLOR SA                  000000000040000000000000000000000000000000000000000000000000000000000000000000000000000000000000000000000000000000000000PES00010000001000000000000000000000000
202007010010001000000000000000003803000000000000000038038000000000030552385442ICA EMPRESA CONSTRUC          000000000031000000000000000000000000000000000000000000000000000000000000000000000000000000000000000000000000000000000000PES00010000001000000000000000000000000
202007010010001000000000000000003804000000000000000038048000000000020241343201TORANZO JOSE PIO              000000000016400000000000000000000000000000000000000000000000000000000000000000000000000000000000000000000000000000000000PES00010000001000000000000000000000000
202007010010001000000000000000003805000000000000000038058000000000030710956045SALUD RENAL                   000000000025500000000000000000000000000000000000000000000000000000000000000000000000000000000000000000000000000000000000PES00010000001000000000000000000000000
202007010010001000000000000000003806000000000000000038068000000000030710691661TECMIC S.R.L                  000000000017200000000000000000000000000000000000000000000000000000000000000000000000000000000000000000000000000000000000PES00010000001000000000000000000000000
202007010010001000000000000000003808000000000000000038088000000000027266386015CEJAS DELIA BEATRIZ           000000000018800000000000000000000000000000000000000000000000000000000000000000000000000000000000000000000000000000000000PES00010000001000000000000000000000000
202007010010001000000000000000003809000000000000000038098000000000020123527381RICARDO VILLAGRA VEL          000000000051600000000000000000000000000000000000000000000000000000000000000000000000000000000000000000000000000000000000PES00010000001000000000000000000000000
202007020010001000000000000000003810000000000000000038108000000000020262499015HERRERA MARIANO               000000000035000000000000000000000000000000000000000000000000000000000000000000000000000000000000000000000000000000000000PES00010000001000000000000000000000000
202007020010001000000000000000003811000000000000000038118000000000030710735537R.V INGENIERIA S.R.L          000000000017500000000000000000000000000000000000000000000000000000000000000000000000000000000000000000000000000000000000PES00010000001000000000000000000000000
202007020010001000000000000000003812000000000000000038128000000000030716471043GRUPO LICI SRL                000000000022400000000000000000000000000000000000000000000000000000000000000000000000000000000000000000000000000000000110PES00010000001000000000000000000000000
202007020010001000000000000000003813000000000000000038138000000000033697225639ARGENTI LEMON                 000000000025000000000000000000000000000000000000000000000000000000000000000000000000000000000000000000000000000000000363PES00010000001000000000000000000000000
202007020010001000000000000000003814000000000000000038148000000000030518643742INSTELEC SRL                  000000000040000000000000000000000000000000000000000000000000000000000000000000000000000000000000000000000000000000000000PES00010000001000000000000000000000000
202007020010001000000000000000003815000000000000000038158000000000030691743647AGROSISTEMAS SRL              000000000049500000000000000000000000000000000000000000000000000000000000000000000000000000000000000000000000000000000000PES00010000001000000000000000000000000
202007020010001000000000000000003816000000000000000038168000000000030709101354COSMOFLOR SA                  000000000013500000000000000000000000000000000000000000000000000000000000000000000000000000000000000000000000000000000000PES00010000001000000000000000000000000
202007020010001000000000000000003817000000000000000038178000000000020225571822ALMARAZ MIGUEL                000000000068400000000000000000000000000000000000000000000000000000000000000000000000000000000000000000000000000000000000PES00010000001000000000000000000000000
202007030010001000000000000000003818000000000000000038188000000000020129578166NEME SCHEIJ ALFREDO           000000000031000000000000000000000000000000000000000000000000000000000000000000000000000000000000000000000000000000000000PES00010000001000000000000000000000000
202007030010001000000000000000003819000000000000000038198000000000020132789348ANDREOZZI MANUEL ENR          000000000025600000000000000000000000000000000000000000000000000000000000000000000000000000000000000000000000000000000000PES00010000001000000000000000000000000
202007030010001000000000000000003820000000000000000038208000000000030621779199ELEMENTOS Y MAT. IND          000000000020500000000000000000000000000000000000000000000000000000000000000000000000000000000000000000000000000000000000PES00010000001000000000000000000000000
202007030010001000000000000000003821000000000000000038218000000000030695177239AGROPECUARIA MISTOL           000000000035500000000000000000000000000000000000000000000000000000000000000000000000000000000000000000000000000000000000PES00010000001000000000000000000000000
202007030010001000000000000000003822000000000000000038228000000000030621779199ELEMENTOS Y MAT. IND          000000000007800000000000000000000000000000000000000000000000000000000000000000000000000000000000000000000000000000000158PES00010000001000000000000000000000000
202007030010001000000000000000003823000000000000000038238000000000030709101354COSMOFLOR SA                  000000000040000000000000000000000000000000000000000000000000000000000000000000000000000000000000000000000000000000000000PES00010000001000000000000000000000000
202007030010001000000000000000003824000000000000000038248000000000030709195251LA CELINA SRL                 000000000020700000000000000000000000000000000000000000000000000000000000000000000000000000000000000000000000000000008833PES00010000001000000000000000000000000
202007030010001000000000000000003826000000000000000038268000000000030715400630TSA ARGENTINA                 000000000033600000000000000000000000000000000000000000000000000000000000000000000000000000000000000000000000000000010083PES00010000001000000000000000000000000
202007040010001000000000000000003827000000000000000038278000000000020342879692LUCIANO DEVANI                000000000043900000000000000000000000000000000000000000000000000000000000000000000000000000000000000000000000000000000123PES00010000001000000000000000000000000
202007040010001000000000000000003828000000000000000038288000000000030713516305AGROPECUARIA LAGUNA           000000000047500000000000000000000000000000000000000000000000000000000000000000000000000000000000000000000000000000000750PES00010000001000000000000000000000000
202007040010001000000000000000003829000000000000000038298000000000020123527381RICARDO VILLAGRA VEL          000000000027000000000000000000000000000000000000000000000000000000000000000000000000000000000000000000000000000000019375PES00010000001000000000000000000000000
202007060010001000000000000000003830000000000000000038308000000000030593315157BROMETAN S.R.L                000000000035000000000000000000000000000000000000000000000000000000000000000000000000000000000000000000000000000000000000PES00010000001000000000000000000000000
202007060010001000000000000000003832000000000000000038328000000000020253316560TULA JOSE HERNAN              000000000017500000000000000000000000000000000000000000000000000000000000000000000000000000000000000000000000000000000000PES00010000001000000000000000000000000
202007060010001000000000000000003833000000000000000038338000000000030716471043GRUPO LICI SRL                000000000017500000000000000000000000000000000000000000000000000000000000000000000000000000000000000000000000000000000000PES00010000001000000000000000000000000
202007060010001000000000000000003834000000000000000038348000000000030716422247SUNDAY SRL                    000000000074900000000000000000000000000000000000000000000000000000000000000000000000000000000000000000000000000000000194PES00010000001000000000000000000000000
202007060010001000000000000000003835000000000000000038358000000000030709101354COSMOFLOR SA                  000000000040000000000000000000000000000000000000000000000000000000000000000000000000000000000000000000000000000000000000PES00010000001000000000000000000000000
202007060010001000000000000000003836000000000000000038368000000000030716663929UNIFRUTTI S.A                 000000000044100000000000000000000000000000000000000000000000000000000000000000000000000000000000000000000000000000000120PES00010000001000000000000000000000000
202007060010001000000000000000003837000000000000000038378000000000020162057252EDGAR RAMON PERONA            000000000017200000000000000000000000000000000000000000000000000000000000000000000000000000000000000000000000000000000000PES00010000001000000000000000000000000
202007060010001000000000000000003838000000000000000038388000000000027266386015CEJAS DELIA BEATRIZ           000000000018500000000000000000000000000000000000000000000000000000000000000000000000000000000000000000000000000000000000PES00010000001000000000000000000000000
202007070010001000000000000000003839000000000000000038398000000000030714516899AGRO ACONQUIJA S.R.L          000000000018500000000000000000000000000000000000000000000000000000000000000000000000000000000000000000000000000000000000PES00010000001000000000000000000000000
202007070010001000000000000000003840000000000000000038408000000000020110747625PEREZ JUAN LUIS               000000000018500000000000000000000000000000000000000000000000000000000000000000000000000000000000000000000000000000000000PES00010000001000000000000000000000000
202007070010001000000000000000003841000000000000000038418000000000020342879692LUCIANO DEVANI                000000000055700000000000000000000000000000000000000000000000000000000000000000000000000000000000000000000000000000000245PES00010000001000000000000000000000000
202007070010001000000000000000003842000000000000000038428000000000027279604070ALANIS LUCIANA                000000000101300000000000000000000000000000000000000000000000000000000000000000000000000000000000000000000000000000000091PES00010000001000000000000000000000000
202007070010001000000000000000003843000000000000000038438000000000027266386015CEJAS DELIA BEATRIZ           000000000021000000000000000000000000000000000000000000000000000000000000000000000000000000000000000000000000000000000000PES00010000001000000000000000000000000
202007070010001000000000000000003844000000000000000038448000000000020272716855ISA JORGE SEBASTIAN           000000000060600000000000000000000000000000000000000000000000000000000000000000000000000000000000000000000000000000020307PES00010000001000000000000000000000000
202007080010001000000000000000003846000000000000000038468000000000030716471043GRUPO LICI SRL                000000000028400000000000000000000000000000000000000000000000000000000000000000000000000000000000000000000000000000000123PES00010000001000000000000000000000000
202007080010001000000000000000003847000000000000000038478000000000030518408689SALTA REFRESCO                000000000027800000000000000000000000000000000000000000000000000000000000000000000000000000000000000000000000000000000000PES00010000001000000000000000000000000
202007080010001000000000000000003848000000000000000038488000000000030500875239SA AZUCARERA                  000000000088000000000000000000000000000000000000000000000000000000000000000000000000000000000000000000000000000000000000PES00010000001000000000000000000000000
202007080010001000000000000000003849000000000000000038498000000000030707089586NYNAGRO SRL                   000000000060000000000000000000000000000000000000000000000000000000000000000000000000000000000000000000000000000000000000PES00010000001000000000000000000000000
202007080010001000000000000000003850000000000000000038508000000000030691734915LINE UP SA                    000000000023200000000000000000000000000000000000000000000000000000000000000000000000000000000000000000000000000000000000PES00010000001000000000000000000000000
202007090010001000000000000000003851000000000000000038518000000000020249823245GESTION Y OPERACIONE          000000000040100000000000000000000000000000000000000000000000000000000000000000000000000000000000000000000000000000000000PES00010000001000000000000000000000000
202007090010001000000000000000003853000000000000000038538000000000020109644529SORIA RICARDO                 000000000051200000000000000000000000000000000000000000000000000000000000000000000000000000000000000000000000000000000194PES00010000001000000000000000000000000
202007090010001000000000000000003854000000000000000038548000000000033716401249VILOAGRO S.A.S                000000000033000000000000000000000000000000000000000000000000000000000000000000000000000000000000000000000000000000000000PES00010000001000000000000000000000000
202007090010001000000000000000003855000000000000000038558000000000030675388292MAUER S.R.L                   000000000043500000000000000000000000000000000000000000000000000000000000000000000000000000000000000000000000000000000352PES00010000001000000000000000000000000
202007100010001000000000000000003857000000000000000038578000000000030709786446KURSK SRL                     000000000019000000000000000000000000000000000000000000000000000000000000000000000000000000000000000000000000000000000000PES00010000001000000000000000000000000
202007100010001000000000000000003858000000000000000038588000000000020253316560TULA JOSE HERNAN              000000000018500000000000000000000000000000000000000000000000000000000000000000000000000000000000000000000000000000000000PES00010000001000000000000000000000000
202007100010001000000000000000003859000000000000000038598000000000020172702075CLAUDIO NADER                 000000000025500000000000000000000000000000000000000000000000000000000000000000000000000000000000000000000000000000000000PES00010000001000000000000000000000000
202007100010001000000000000000003860000000000000000038608000000000030691743647AGROSISTEMAS SRL              000000000064300000000000000000000000000000000000000000000000000000000000000000000000000000000000000000000000000000000000PES00010000001000000000000000000000000
202007100010001000000000000000003861000000000000000038618000000000030679979295S.A VERACRUZ                  000000000066000000000000000000000000000000000000000000000000000000000000000000000000000000000000000000000000000000000000PES00010000001000000000000000000000000
202007100010001000000000000000003862000000000000000038628000000000027266386015CEJAS DELIA BEATRIZ           000000000023600000000000000000000000000000000000000000000000000000000000000000000000000000000000000000000000000000000000PES00010000001000000000000000000000000
202007110010001000000000000000003863000000000000000038638000000000027232475906GARCIA TELMA PAOLA            000000000074000000000000000000000000000000000000000000000000000000000000000000000000000000000000000000000000000000000000PES00010000001000000000000000000000000
202007120010001000000000000000003864000000000000000038648000000000030709375381CAMINOA S.A                   000000000012500000000000000000000000000000000000000000000000000000000000000000000000000000000000000000000000000000000000PES00010000001000000000000000000000000
202007120010001000000000000000003865000000000000000038658000000000020253316560TULA JOSE HERNAN              000000000021000000000000000000000000000000000000000000000000000000000000000000000000000000000000000000000000000000000000PES00010000001000000000000000000000000
202007130010001000000000000000003867000000000000000038678000000000020188062998CARDENAS LOPEZ VLADI          000000000013900000000000000000000000000000000000000000000000000000000000000000000000000000000000000000000000000000000000PES00010000001000000000000000000000000
202007130010001000000000000000003868000000000000000038688000000000030659863789SERVICIO ELECTRONICO          000000000043700000000000000000000000000000000000000000000000000000000000000000000000000000000000000000000000000000000120PES00010000001000000000000000000000000
202007130010001000000000000000003869000000000000000038698000000000030518408689SALTA REFRESCO                000000000032000000000000000000000000000000000000000000000000000000000000000000000000000000000000000000000000000000000000PES00010000001000000000000000000000000
202007130010001000000000000000003870000000000000000038708000000000033697225639ARGENTI LEMON                 000000000019000000000000000000000000000000000000000000000000000000000000000000000000000000000000000000000000000000000000PES00010000001000000000000000000000000
202007130010001000000000000000003871000000000000000038718000000000030646140923SERVICIOS MODERNOS S          000000000027500000000000000000000000000000000000000000000000000000000000000000000000000000000000000000000000000000000000PES00010000001000000000000000000000000
202007130010001000000000000000003872000000000000000038728000000000027133985889CASTILLO ANGELA ISAB          000000000086000000000000000000000000000000000000000000000000000000000000000000000000000000000000000000000000000000000000PES00010000001000000000000000000000000
202007130010001000000000000000003873000000000000000038738000000000030659863789SERVICIO ELECTRONICO          000000000044000000000000000000000000000000000000000000000000000000000000000000000000000000000000000000000000000000000000PES00010000001000000000000000000000000
202007130010001000000000000000003874000000000000000038748000000000030709786446KURSK SRL                     000000000024400000000000000000000000000000000000000000000000000000000000000000000000000000000000000000000000000000000000PES00010000001000000000000000000000000
202007130010001000000000000000003875000000000000000038758000000000020272987786MENA FERNANDO                 000000000018000000000000000000000000000000000000000000000000000000000000000000000000000000000000000000000000000000000000PES00010000001000000000000000000000000
202007130010001000000000000000003876000000000000000038768000000000020272716855ISA JORGE SEBASTIAN           000000000068700000000000000000000000000000000000000000000000000000000000000000000000000000000000000000000000000000010154PES00010000001000000000000000000000000
202007140010001000000000000000003877000000000000000038778000000000030593315157BROMETAN S.R.L                000000000026100000000000000000000000000000000000000000000000000000000000000000000000000000000000000000000000000000000101PES00010000001000000000000000000000000
202007140010001000000000000000003878000000000000000038788000000000030500875239S.A AZUCARERA J.FRIA          000000000018500000000000000000000000000000000000000000000000000000000000000000000000000000000000000000000000000000000000PES00010000001000000000000000000000000
202007140010001000000000000000003879000000000000000038798000000000030714516899AGRO ACONQUIJA S.R.L          000000000018000000000000000000000000000000000000000000000000000000000000000000000000000000000000000000000000000000000000PES00010000001000000000000000000000000
202007140010001000000000000000003880000000000000000038808000000000030689536944UNITEC SA                     000000000028100000000000000000000000000000000000000000000000000000000000000000000000000000000000000000000000000000000000PES00010000001000000000000000000000000
202007140010001000000000000000003881000000000000000038818000000000020286816348SANCHEZ ARIEL ARNALD          000000000018500000000000000000000000000000000000000000000000000000000000000000000000000000000000000000000000000000000000PES00010000001000000000000000000000000
202007140010001000000000000000003882000000000000000038828000000000030685694286PETROARSA SA                  000000000024500000000000000000000000000000000000000000000000000000000000000000000000000000000000000000000000000000000000PES00010000001000000000000000000000000
202007140010001000000000000000003883000000000000000038838000000000030518643742INSTELEC SRL                  000000000042000000000000000000000000000000000000000000000000000000000000000000000000000000000000000000000000000000000000PES00010000001000000000000000000000000
202007140010001000000000000000003884000000000000000038848000000000030501087161COMPANIA AZUCARERA S          000000000138300000000000000000000000000000000000000000000000000000000000000000000000000000000000000000000000000000000000PES00010000001000000000000000000000000
202007140010001000000000000000003885000000000000000038858000000000020110747625PEREZ JUAN LUIS               000000000025900000000000000000000000000000000000000000000000000000000000000000000000000000000000000000000000000000000000PES00010000001000000000000000000000000
202007140010001000000000000000003886000000000000000038868000000000020110747625PEREZ JUAN LUIS               000000000008600000000000000000000000000000000000000000000000000000000000000000000000000000000000000000000000000000000000PES00010000001000000000000000000000000
202007140010001000000000000000003887000000000000000038878000000000027266386015CEJAS DELIA BEATRIZ           000000000019800000000000000000000000000000000000000000000000000000000000000000000000000000000000000000000000000000000000PES00010000001000000000000000000000000
202007150010001000000000000000003888000000000000000038888000000000020286816348SANCHEZ ARIEL ARNALD          000000000018500000000000000000000000000000000000000000000000000000000000000000000000000000000000000000000000000000000000PES00010000001000000000000000000000000
202007150010001000000000000000003890000000000000000038908000000000020253316560TULA JOSE HERNAN              000000000033000000000000000000000000000000000000000000000000000000000000000000000000000000000000000000000000000000000000PES00010000001000000000000000000000000
202007150010001000000000000000003891000000000000000038918000000000030707465049LAPACHO AMARILLO S.R          000000000037000000000000000000000000000000000000000000000000000000000000000000000000000000000000000000000000000000000000PES00010000001000000000000000000000000
202007150010001000000000000000003892000000000000000038928000000000023245030649GONZALEZ ALEJANDRO C          000000000029000000000000000000000000000000000000000000000000000000000000000000000000000000000000000000000000000000000000PES00010000001000000000000000000000000
202007150010001000000000000000003894000000000000000038948000000000030709195251LA CELINA SRL                 000000000022400000000000000000000000000000000000000000000000000000000000000000000000000000000000000000000000000000008833PES00010000001000000000000000000000000
202007150010001000000000000000003895000000000000000038958000000000033697225639ARGENTI LEMON                 000000000119000000000000000000000000000000000000000000000000000000000000000000000000000000000000000000000000000000000000PES00010000001000000000000000000000000
202007150010001000000000000000003896000000000000000038968000000000027266386015CEJAS DELIA BEATRIZ           000000000021000000000000000000000000000000000000000000000000000000000000000000000000000000000000000000000000000000000000PES00010000001000000000000000000000000
202007160010001000000000000000003897000000000000000038978000000000030708650885MACROPHARMA SA                000000000023600000000000000000000000000000000000000000000000000000000000000000000000000000000000000000000000000000000000PES00010000001000000000000000000000000
202007160010001000000000000000003898000000000000000038988000000000030518408689SALTA REFRESCO                000000000018500000000000000000000000000000000000000000000000000000000000000000000000000000000000000000000000000000000000PES00010000001000000000000000000000000
202007160010001000000000000000003899000000000000000038998000000000030712262768BELCHEN SRL                   000000000018500000000000000000000000000000000000000000000000000000000000000000000000000000000000000000000000000000000000PES00010000001000000000000000000000000
202007160010001000000000000000003900000000000000000039008000000000030628821506ALBIERO HNOS SRL              000000000037000000000000000000000000000000000000000000000000000000000000000000000000000000000000000000000000000000000000PES00010000001000000000000000000000000
202007160010001000000000000000003901000000000000000039018000000000030710996586SMW AGRO S.R.L                000000000077000000000000000000000000000000000000000000000000000000000000000000000000000000000000000000000000000000000546PES00010000001000000000000000000000000
202007160010001000000000000000003902000000000000000039028000000000030709932361DROGUERIA PLAZA ONA           000000000038000000000000000000000000000000000000000000000000000000000000000000000000000000000000000000000000000000000000PES00010000001000000000000000000000000
202007160010001000000000000000003903000000000000000039038000000000030708385960PUEBLE SA                     000000000018500000000000000000000000000000000000000000000000000000000000000000000000000000000000000000000000000000000000PES00010000001000000000000000000000000
202007160010001000000000000000003904000000000000000039048000000000020342879692LUCIANO DEVANI                000000000050300000000000000000000000000000000000000000000000000000000000000000000000000000000000000000000000000000000123PES00010000001000000000000000000000000
202007160010001000000000000000003905000000000000000039058000000000030714516899AGRO ACONQUIJA S.R.L          000000000033000000000000000000000000000000000000000000000000000000000000000000000000000000000000000000000000000000000000PES00010000001000000000000000000000000
202007160010001000000000000000003906000000000000000039068000000000030708128410GRUPO DE ACQUITECTOS          000000000042000000000000000000000000000000000000000000000000000000000000000000000000000000000000000000000000000000000000PES00010000001000000000000000000000000
202007160010001000000000000000003907000000000000000039078000000000030709195251LA CELINA SRL                 000000000009500000000000000000000000000000000000000000000000000000000000000000000000000000000000000000000000000000000000PES00010000001000000000000000000000000
202007160010001000000000000000003908000000000000000039088000000000020272716855ISA JORGE SEBASTIAN           000000000058000000000000000000000000000000000000000000000000000000000000000000000000000000000000000000000000000000010154PES00010000001000000000000000000000000
202007160010001000000000000000003909000000000000000039098000000000020286816348SANCHEZ ARIEL ARNALD          000000000018500000000000000000000000000000000000000000000000000000000000000000000000000000000000000000000000000000000000PES00010000001000000000000000000000000
202007170010001000000000000000003910000000000000000039108000000000030636021578DOW AGROSCIENCES ARG          000000000025000000000000000000000000000000000000000000000000000000000000000000000000000000000000000000000000000000000000PES00010000001000000000000000000000000
202007170010001000000000000000003911000000000000000039118000000000030518643742INSTELEC SRL                  000000000050900000000000000000000000000000000000000000000000000000000000000000000000000000000000000000000000000000000000PES00010000001000000000000000000000000
202007170010001000000000000000003912000000000000000039128000000000023376315819ARDILES LEONARDO FAB          000000000024200000000000000000000000000000000000000000000000000000000000000000000000000000000000000000000000000000000000PES00010000001000000000000000000000000
202007170010001000000000000000003913000000000000000039138000000000030707176713OSCAR PEMAN Y ASOCIA          000000000014800000000000000000000000000000000000000000000000000000000000000000000000000000000000000000000000000000000000PES00010000001000000000000000000000000
202007170010001000000000000000003914000000000000000039148000000000030710303874SEFAR SA                      000000000011600000000000000000000000000000000000000000000000000000000000000000000000000000000000000000000000000000000000PES00010000001000000000000000000000000
202007170010001000000000000000003915000000000000000039158000000000030710089899AISLACIONES Y SERVIC          000000000044000000000000000000000000000000000000000000000000000000000000000000000000000000000000000000000000000000000000PES00010000001000000000000000000000000
202007170010001000000000000000003916000000000000000039168000000000030708128410GRUPO DE ACQUITECTOS          000000000025500000000000000000000000000000000000000000000000000000000000000000000000000000000000000000000000000000000000PES00010000001000000000000000000000000
202007170010001000000000000000003917000000000000000039178000000000020119091226FIGUEROA RICARDO LUI          000000000044000000000000000000000000000000000000000000000000000000000000000000000000000000000000000000000000000000000000PES00010000001000000000000000000000000
202007170010001000000000000000003918000000000000000039188000000000030707176713OSCAR PEMAN Y ASOCIA          000000000053000000000000000000000000000000000000000000000000000000000000000000000000000000000000000000000000000000000000PES00010000001000000000000000000000000
202007170010001000000000000000003919000000000000000039198000000000027266386015CEJAS DELIA BEATRIZ           000000000028800000000000000000000000000000000000000000000000000000000000000000000000000000000000000000000000000000000000PES00010000001000000000000000000000000
202007180010001000000000000000003920000000000000000039208000000000030709195251LA CELINA SRL                 000000000022400000000000000000000000000000000000000000000000000000000000000000000000000000000000000000000000000000008833PES00010000001000000000000000000000000
202007180010001000000000000000003921000000000000000039218000000000020379574077MANSUR JUSTO                  000000000034900000000000000000000000000000000000000000000000000000000000000000000000000000000000000000000000000000010934PES00010000001000000000000000000000000
202007190010001000000000000000003922000000000000000039228000000000020214043379DEANA MARCOS                  000000000014800000000000000000000000000000000000000000000000000000000000000000000000000000000000000000000000000000000000PES00010000001000000000000000000000000
202007200010001000000000000000003923000000000000000039238000000000023253685409CARRERAS MIGUEL ANGE          000000000043300000000000000000000000000000000000000000000000000000000000000000000000000000000000000000000000000000000056PES00010000001000000000000000000000000
202007200010001000000000000000003924000000000000000039248000000000030659863789SERVICIO ELECTRONICO          000000000026500000000000000000000000000000000000000000000000000000000000000000000000000000000000000000000000000000000000PES00010000001000000000000000000000000
202007200010001000000000000000003925000000000000000039258000000000023224295499PEREZ ELIO ULISES             000000000018500000000000000000000000000000000000000000000000000000000000000000000000000000000000000000000000000000000000PES00010000001000000000000000000000000
202007200010001000000000000000003926000000000000000039268000000000033697225639ARGENTI LEMON                 000000000033000000000000000000000000000000000000000000000000000000000000000000000000000000000000000000000000000000000000PES00010000001000000000000000000000000
202007200010001000000000000000003927000000000000000039278000000000030655862885RODADOS MEDITERRANEA          000000000033000000000000000000000000000000000000000000000000000000000000000000000000000000000000000000000000000000000000PES00010000001000000000000000000000000
202007200010001000000000000000003928000000000000000039288000000000030552385442ICA EMPRESA CONSTRUC          000000000033000000000000000000000000000000000000000000000000000000000000000000000000000000000000000000000000000000000000PES00010000001000000000000000000000000
202007200010001000000000000000003929000000000000000039298000000000030716663929UNIFRUTTI S.A                 000000000042000000000000000000000000000000000000000000000000000000000000000000000000000000000000000000000000000000000000PES00010000001000000000000000000000000
202007200010001000000000000000003930000000000000000039308000000000030716847787KYT S.A.S                     000000000066000000000000000000000000000000000000000000000000000000000000000000000000000000000000000000000000000000000000PES00010000001000000000000000000000000
202007200010001000000000000000003931000000000000000039318000000000020272716855ISA JORGE SEBASTIAN           000000000090900000000000000000000000000000000000000000000000000000000000000000000000000000000000000000000000000000020307PES00010000001000000000000000000000000
202007210010001000000000000000003932000000000000000039328000000000023266483759ARIAS RUBEN ALFREDO           000000000014800000000000000000000000000000000000000000000000000000000000000000000000000000000000000000000000000000000000PES00010000001000000000000000000000000
202007210010001000000000000000003933000000000000000039338000000000030702346971ENGORDAR SA                   000000000042300000000000000000000000000000000000000000000000000000000000000000000000000000000000000000000000000000000123PES00010000001000000000000000000000000
202007210010001000000000000000003934000000000000000039348000000000030710303874SEFAR SA                      000000000013000000000000000000000000000000000000000000000000000000000000000000000000000000000000000000000000000000000000PES00010000001000000000000000000000000
202007210010001000000000000000003935000000000000000039358000000000030514960956PAZ AGRO S.A                  000000000039700000000000000000000000000000000000000000000000000000000000000000000000000000000000000000000000000000000127PES00010000001000000000000000000000000
202007210010001000000000000000003936000000000000000039368000000000030655862885RODADOS MEDITERRANEA          000000000044000000000000000000000000000000000000000000000000000000000000000000000000000000000000000000000000000000000000PES00010000001000000000000000000000000
202007210010001000000000000000003938000000000000000039388000000000033697225639ARGENTI LEMON                 000000000081500000000000000000000000000000000000000000000000000000000000000000000000000000000000000000000000000000000000PES00010000001000000000000000000000000
202007210010001000000000000000003939000000000000000039398000000000030627718213LAAP S. A.                    000000000053900000000000000000000000000000000000000000000000000000000000000000000000000000000000000000000000000000000000PES00010000001000000000000000000000000
202007210010001000000000000000003940000000000000000039408000000000030697218056SINER S.A                     000000000060000000000000000000000000000000000000000000000000000000000000000000000000000000000000000000000000000000000000PES00010000001000000000000000000000000
202007210010001000000000000000003941000000000000000039418000000000020160911388YSA VICTOR HUGO               000000000028400000000000000000000000000000000000000000000000000000000000000000000000000000000000000000000000000000009877PES00010000001000000000000000000000000
202007210010001000000000000000003942000000000000000039428000000000030695177239AGROPECUARIA MISTOL           000000000022400000000000000000000000000000000000000000000000000000000000000000000000000000000000000000000000000000000000PES00010000001000000000000000000000000
202007210010001000000000000000003943000000000000000039438000000000027266386015CEJAS DELIA BEATRIZ           000000000019800000000000000000000000000000000000000000000000000000000000000000000000000000000000000000000000000000000000PES00010000001000000000000000000000000
202007210010001000000000000000003944000000000000000039448000000000030715960059ZMG ARGENTINA NOA SR          000000000016000000000000000000000000000000000000000000000000000000000000000000000000000000000000000000000000000000000000PES00010000001000000000000000000000000
202007220010001000000000000000003945000000000000000039458000000000033691776919FABRICA DE FIDEOS RI          000000000055500000000000000000000000000000000000000000000000000000000000000000000000000000000000000000000000000000000000PES00010000001000000000000000000000000
202007220010001000000000000000003946000000000000000039468000000000020202844694RICARDO DANTE PACE            000000000018500000000000000000000000000000000000000000000000000000000000000000000000000000000000000000000000000000000000PES00010000001000000000000000000000000
202007220010001000000000000000003947000000000000000039478000000000020224148934GUILLERMO TREJO               000000000019300000000000000000000000000000000000000000000000000000000000000000000000000000000000000000000000000000000000PES00010000001000000000000000000000000
202007220010001000000000000000003948000000000000000039488000000000030709101354COSMOFLOR SA                  000000000033000000000000000000000000000000000000000000000000000000000000000000000000000000000000000000000000000000000000PES00010000001000000000000000000000000
202007220010001000000000000000003949000000000000000039498000000000030716663929UNIFRUTTI S.A                 000000000042000000000000000000000000000000000000000000000000000000000000000000000000000000000000000000000000000000000000PES00010000001000000000000000000000000
202007220010001000000000000000003950000000000000000039508000000000020172702075CLAUDIO NADER                 000000000042000000000000000000000000000000000000000000000000000000000000000000000000000000000000000000000000000000000000PES00010000001000000000000000000000000
202007220010001000000000000000003951000000000000000039518000000000033697225639ARGENTI LEMON                 000000000033000000000000000000000000000000000000000000000000000000000000000000000000000000000000000000000000000000000000PES00010000001000000000000000000000000
202007220010001000000000000000003952000000000000000039528000000000030707010017NIDEPLUS SA                   000000000023200000000000000000000000000000000000000000000000000000000000000000000000000000000000000000000000000000000000PES00010000001000000000000000000000000
202007220010001000000000000000003953000000000000000039538000000000027133985889CASTILLO ANGELA ISAB          000000000074000000000000000000000000000000000000000000000000000000000000000000000000000000000000000000000000000000000000PES00010000001000000000000000000000000
202007220010001000000000000000003954000000000000000039548000000000020272716855SEBASTIAN ISA                 000000000041500000000000000000000000000000000000000000000000000000000000000000000000000000000000000000000000000000000000PES00010000001000000000000000000000000
202007220010001000000000000000003955000000000000000039558000000000020272716855SEBASTIAN ISA                 000000000032400000000000000000000000000000000000000000000000000000000000000000000000000000000000000000000000000000020307PES00010000001000000000000000000000000
202007230010001000000000000000003957000000000000000039578000000000020249823245GESTION Y OPERACIONE          000000000035100000000000000000000000000000000000000000000000000000000000000000000000000000000000000000000000000000000000PES00010000001000000000000000000000000
202007230010001000000000000000003958000000000000000039588000000000020249823245GESTION Y OPERACIONE          000000000018500000000000000000000000000000000000000000000000000000000000000000000000000000000000000000000000000000000000PES00010000001000000000000000000000000
202007230010001000000000000000003959000000000000000039598000000000033564217129DI BACCO Y COMPANIA           000000000093500000000000000000000000000000000000000000000000000000000000000000000000000000000000000000000000000000000000PES00010000001000000000000000000000000
202007230010001000000000000000003960000000000000000039608000000000030709101354COSMOFLOR SA                  000000000013900000000000000000000000000000000000000000000000000000000000000000000000000000000000000000000000000000000000PES00010000001000000000000000000000000
202007230010001000000000000000003961000000000000000039618000000000020326354229ROCHA ANDRES RAMON            000000000039400000000000000000000000000000000000000000000000000000000000000000000000000000000000000000000000000000000000PES00010000001000000000000000000000000
202007230010001000000000000000003962000000000000000039628000000000030715237756SIMELA SRL                    000000000033000000000000000000000000000000000000000000000000000000000000000000000000000000000000000000000000000000000000PES00010000001000000000000000000000000
202007230010001000000000000000003963000000000000000039638000000000030710061196NATUBY SRL                    000000000059800000000000000000000000000000000000000000000000000000000000000000000000000000000000000000000000000000000000PES00010000001000000000000000000000000
202007230010001000000000000000003964000000000000000039648000000000030710502818KILOMETRO 14 SRL              000000000023200000000000000000000000000000000000000000000000000000000000000000000000000000000000000000000000000000000000PES00010000001000000000000000000000000
202007230010001000000000000000003965000000000000000039658000000000030710502818KILOMETRO 14 SRL              000000000011600000000000000000000000000000000000000000000000000000000000000000000000000000000000000000000000000000000000PES00010000001000000000000000000000000
202007240010001000000000000000003967000000000000000039678000000000030708555602AISLANTE TECNOPOR SR          000000000040400000000000000000000000000000000000000000000000000000000000000000000000000000000000000000000000000000000095PES00010000001000000000000000000000000
202007240010001000000000000000003968000000000000000039688000000000030698538569LOGHINETH SOLUCIONES          000000000037000000000000000000000000000000000000000000000000000000000000000000000000000000000000000000000000000000000000PES00010000001000000000000000000000000
202007240010001000000000000000003969000000000000000039698000000000030714213977FAMISA SRL                    000000000100000000000000000000000000000000000000000000000000000000000000000000000000000000000000000000000000000000001957PES00010000001000000000000000000000000
202007240010001000000000000000003970000000000000000039708000000000030709101354COSMOFLOR SA                  000000000033000000000000000000000000000000000000000000000000000000000000000000000000000000000000000000000000000000000000PES00010000001000000000000000000000000
202007240010001000000000000000003971000000000000000039718000000000030716663929UNIFRUTTI S.A                 000000000066000000000000000000000000000000000000000000000000000000000000000000000000000000000000000000000000000000000000PES00010000001000000000000000000000000
202007240010001000000000000000003972000000000000000039728000000000030716663929UNIFRUTTI S.A                 000000000022200000000000000000000000000000000000000000000000000000000000000000000000000000000000000000000000000000000253PES00010000001000000000000000000000000
202007240010001000000000000000003973000000000000000039738000000000030709101354COSMOFLOR SA                  000000000011100000000000000000000000000000000000000000000000000000000000000000000000000000000000000000000000000000000120PES00010000001000000000000000000000000
202007240010001000000000000000003974000000000000000039748000000000030675245815MUNICIPALIDAD DE CON          000000000080500000000000000000000000000000000000000000000000000000000000000000000000000000000000000000000000000000000000PES00010000001000000000000000000000000
202007240010001000000000000000003975000000000000000039758000000000030709868639TECNO CAMPO SRL               000000000012700000000000000000000000000000000000000000000000000000000000000000000000000000000000000000000000000000000000PES00010000001000000000000000000000000
202007240010001000000000000000003976000000000000000039768000000000020178927508GONZALEZ LEONARDO AR          000000000030700000000000000000000000000000000000000000000000000000000000000000000000000000000000000000000000000000000000PES00010000001000000000000000000000000
202007250010001000000000000000003977000000000000000039778000000000030518408689SALTA REFRESCO                000000000037000000000000000000000000000000000000000000000000000000000000000000000000000000000000000000000000000000000000PES00010000001000000000000000000000000
202007260010001000000000000000003978000000000000000039788000000000030707442642OSYM S.R.L                    000000000074000000000000000000000000000000000000000000000000000000000000000000000000000000000000000000000000000000000000PES00010000001000000000000000000000000
202007260010001000000000000000003979000000000000000039798000000000020110747625PEREZ JUAN LUIS               000000000027500000000000000000000000000000000000000000000000000000000000000000000000000000000000000000000000000000000000PES00010000001000000000000000000000000
202007270010001000000000000000003980000000000000000039808000000000030695177239AGROPECUARIA MISTOL           000000000032700000000000000000000000000000000000000000000000000000000000000000000000000000000000000000000000000000000120PES00010000001000000000000000000000000
202007270010001000000000000000003981000000000000000039818000000000020257403689CHAYLE VICENTE SEBAS          000000000007600000000000000000000000000000000000000000000000000000000000000000000000000000000000000000000000000000000000PES00010000001000000000000000000000000
202007270010001000000000000000003982000000000000000039828000000000030655862885RODADOS MEDITERRANEO          000000000044000000000000000000000000000000000000000000000000000000000000000000000000000000000000000000000000000000000000PES00010000001000000000000000000000000
202007270010001000000000000000003983000000000000000039838000000000030714213977FAMISA SRL                    000000000057200000000000000000000000000000000000000000000000000000000000000000000000000000000000000000000000000000000000PES00010000001000000000000000000000000
202007270010001000000000000000003984000000000000000039848000000000030675245815MUNICIPALIDAD DE CON          000000000033100000000000000000000000000000000000000000000000000000000000000000000000000000000000000000000000000000000158PES00010000001000000000000000000000000
202007270010001000000000000000003985000000000000000039858000000000027266386015CEJAS DELIA BEATRIZ           000000000019800000000000000000000000000000000000000000000000000000000000000000000000000000000000000000000000000000000000PES00010000001000000000000000000000000
202007280010001000000000000000003986000000000000000039868000000000020138487823PALACIOS JORGE EDUAR          000000000104500000000000000000000000000000000000000000000000000000000000000000000000000000000000000000000000000000000000PES00010000001000000000000000000000000
202007280010001000000000000000003987000000000000000039878000000000020070921503VELEZ TOMAS ROQUE             000000000015000000000000000000000000000000000000000000000000000000000000000000000000000000000000000000000000000000000000PES00010000001000000000000000000000000
202007280010001000000000000000003988000000000000000039888000000000020132791040CUEZZO HUGO GERARDO           000000000049700000000000000000000000000000000000000000000000000000000000000000000000000000000000000000000000000000000000PES00010000001000000000000000000000000
202007280010001000000000000000003989000000000000000039898000000000030500875239SA AZUCARERA                  000000000034300000000000000000000000000000000000000000000000000000000000000000000000000000000000000000000000000000000000PES00010000001000000000000000000000000
202007280010001000000000000000003990000000000000000039908000000000033623510129HILADOS SANTA MARIA           000000000026500000000000000000000000000000000000000000000000000000000000000000000000000000000000000000000000000000000000PES00010000001000000000000000000000000
202007280010001000000000000000003991000000000000000039918000000000020160911388YSA VICTOR HUGO               000000000032000000000000000000000000000000000000000000000000000000000000000000000000000000000000000000000000000000000000PES00010000001000000000000000000000000
202007280010001000000000000000003992000000000000000039928000000000020176852233CATALAN JOSE ANTONIO          000000000098300000000000000000000000000000000000000000000000000000000000000000000000000000000000000000000000000000000000PES00010000001000000000000000000000000
202007290010001000000000000000003993000000000000000039938000000000030634133794TECNO CONSTRUCCIONES          000000000048100000000000000000000000000000000000000000000000000000000000000000000000000000000000000000000000000000000000PES00010000001000000000000000000000000
202007290010001000000000000000003994000000000000000039948000000000030707976957AGRO LAJITAS                  000000000016000000000000000000000000000000000000000000000000000000000000000000000000000000000000000000000000000000000000PES00010000001000000000000000000000000
202007290010001000000000000000003995000000000000000039958000000000030708128410GRUPO DE ACQUITECTOS          000000000025000000000000000000000000000000000000000000000000000000000000000000000000000000000000000000000000000000000000PES00010000001000000000000000000000000
202007290010001000000000000000003996000000000000000039968000000000030711767874SERVICIOS VIAL TRADE          000000000037500000000000000000000000000000000000000000000000000000000000000000000000000000000000000000000000000000000000PES00010000001000000000000000000000000
202007290010001000000000000000003997000000000000000039978000000000030709195251LA CELINA SRL                 000000000027400000000000000000000000000000000000000000000000000000000000000000000000000000000000000000000000000000008833PES00010000001000000000000000000000000
202007290010001000000000000000003998000000000000000039988000000000020185804799PEREZ JOSE ADRIAN             000000000044000000000000000000000000000000000000000000000000000000000000000000000000000000000000000000000000000000000000PES00010000001000000000000000000000000
202007290010001000000000000000003999000000000000000039998000000000020241343201TORANZO JOSE PIO              000000000037000000000000000000000000000000000000000000000000000000000000000000000000000000000000000000000000000000000000PES00010000001000000000000000000000000
202007300010001000000000000000004000000000000000000040008000000000020129578166NEME SCHEIJ ALFREDO           000000000028900000000000000000000000000000000000000000000000000000000000000000000000000000000000000000000000000000000000PES00010000001000000000000000000000000
202007300010001000000000000000004001000000000000000040018000000000030627718213LAAP S. A.                    000000000028400000000000000000000000000000000000000000000000000000000000000000000000000000000000000000000000000000000000PES00010000001000000000000000000000000
202007300010001000000000000000004002000000000000000040028000000000033697225639ARGENTI LEMON                 000000000044700000000000000000000000000000000000000000000000000000000000000000000000000000000000000000000000000000000172PES00010000001000000000000000000000000
202007300010001000000000000000004003000000000000000040038000000000020326354229ROCHA ANDRES RAMON            000000000034500000000000000000000000000000000000000000000000000000000000000000000000000000000000000000000000000000000000PES00010000001000000000000000000000000
202007300010001000000000000000004004000000000000000040048000000000030655862885RODADOS MEDITERRANEA          000000000044000000000000000000000000000000000000000000000000000000000000000000000000000000000000000000000000000000000000PES00010000001000000000000000000000000
202007300010001000000000000000004005000000000000000040058000000000030557784132GEBAL S.A                     000000000030100000000000000000000000000000000000000000000000000000000000000000000000000000000000000000000000000000000000PES00010000001000000000000000000000000
202007300010001000000000000000004006000000000000000040068000000000033697225639ARGENTI LEMON                 000000000033000000000000000000000000000000000000000000000000000000000000000000000000000000000000000000000000000000000000PES00010000001000000000000000000000000
202007300010001000000000000000004007000000000000000040078000000000033697225639ARGENTI LEMON                 000000000042000000000000000000000000000000000000000000000000000000000000000000000000000000000000000000000000000000000000PES00010000001000000000000000000000000
202007310010001000000000000000004008000000000000000040088000000000030636021578DOW AGROSCIENCES ARG          000000000101500000000000000000000000000000000000000000000000000000000000000000000000000000000000000000000000000000000123PES00010000001000000000000000000000000
202007310010001000000000000000004009000000000000000040098000000000020955599080JAWANDHA AMRINDER SI          000000000037000000000000000000000000000000000000000000000000000000000000000000000000000000000000000000000000000000000000PES00010000001000000000000000000000000
202007310010001000000000000000004010000000000000000040108000000000030500875239SA AZUCARERA                  000000000035000000000000000000000000000000000000000000000000000000000000000000000000000000000000000000000000000000000000PES00010000001000000000000000000000000
202007310010001000000000000000004011000000000000000040118000000000030709786446KURSK SRL                     000000000021500000000000000000000000000000000000000000000000000000000000000000000000000000000000000000000000000000000000PES00010000001000000000000000000000000
202007310010001000000000000000004012000000000000000040128000000000030522189894UPL ARGENTINA S.A             000000000051900000000000000000000000000000000000000000000000000000000000000000000000000000000000000000000000000000000000PES00010000001000000000000000000000000
202007310010001000000000000000004013000000000000000040138000000000030691743647AGROSISTEMAS SRL              000000000064900000000000000000000000000000000000000000000000000000000000000000000000000000000000000000000000000000000000PES00010000001000000000000000000000000
202007310010001000000000000000004014000000000000000040148000000000033697225639ARGENTI LEMON                 000000000035000000000000000000000000000000000000000000000000000000000000000000000000000000000000000000000000000000000000PES00010000001000000000000000000000000
202007310010001000000000000000004015000000000000000040158000000000020311796187CAZADO LUCAS                  000000000037000000000000000000000000000000000000000000000000000000000000000000000000000000000000000000000000000000000000PES00010000001000000000000000000000000
202007310010001000000000000000004016000000000000000040168000000000020272987786MENA FERNANDO                 000000000014800000000000000000000000000000000000000000000000000000000000000000000000000000000000000000000000000000000000PES00010000001000000000000000000000000
202007310010001000000000000000004017000000000000000040178000000000030716383659LOS CARDOS SAS                000000000010200000000000000000000000000000000000000000000000000000000000000000000000000000000000000000000000000000000123PES00010000001000000000000000000000000
202007010010001000000000000000008446000000000000000084468000000000030710612524PABLO Y FERNANDO TAC          000000002500000000000000000000000000000000000000000000000000000000000000000000000000000000000000000000000000000000379947PES00010000001000000000000000000000000
202007010010001000000000000000008447000000000000000084478000000000030716730529SAM SRL                       000000000500001000000000000000000000000000000000000000000000000000000000000000000000000000000000000000000000000000075990PES00010000001000000000000000000000000
202007010010001000000000000000008448000000000000000084488000000000023419603554ESPINOZA ADRIANA DEL          000000000200063000000000000000000000000000000000000000000000000000000000000000000000000000000000000000000000000000030405PES00010000001000000000000000000000000
202007010010001000000000000000008449000000000000000084498000000000023419603554ESPINOZA ADRIANA DEL          000000000300001000000000000000000000000000000000000000000000000000000000000000000000000000000000000000000000000000039443PES00010000001000000000000000000000000
202007010010001000000000000000008450000000000000000084508000000000020130451862JOSE SEBASTIAN TOLED          000000001499998000000000000000000000000000000000000000000000000000000000000000000000000000000000000000000000000000227968PES00010000001000000000000000000000000
202007010010001000000000000000008451000000000000000084518000000000020408602646SOUTULLO RENZO EDGAR          000000000399998000000000000000000000000000000000000000000000000000000000000000000000000000000000000000000000000000060791PES00010000001000000000000000000000000
202007010010001000000000000000008452000000000000000084528000000000020338188235BELMONTE VICTOR EMIL          000000001999999000000000000000000000000000000000000000000000000000000000000000000000000000000000000000000000000000303958PES00010000001000000000000000000000000
202007010010001000000000000000008453000000000000000084538000000000030621779199ELEMENTOS Y MAT. IND          000000002479891000000000000000000000000000000000000000000000000000000000000000000000000000000000000000000000000000308442PES00010000001000000000000000000000000
202007010010001000000000000000008454000000000000000084548000000000030709808873MAX CLEM (CESCA CORT          000000001999999000000000000000000000000000000000000000000000000000000000000000000000000000000000000000000000000000303958PES00010000001000000000000000000000000
202007010010001000000000000000008455000000000000000084558000000000020113359790GOMEZ HUMBERTO DAVID          000000000300000000000000000000000000000000000000000000000000000000000000000000000000000000000000000000000000000000045594PES00010000001000000000000000000000000
202007010010001000000000000000008456000000000000000084568000000000020338188235BELMONTE VICTOR EMIL          000000001499998000000000000000000000000000000000000000000000000000000000000000000000000000000000000000000000000000227968PES00010000001000000000000000000000000
202007010010001000000000000000008457000000000000000084578000000000020338188235BELMONTE VICTOR EMIL          000000001499998000000000000000000000000000000000000000000000000000000000000000000000000000000000000000000000000000227968PES00010000001000000000000000000000000
202007010010001000000000000000008458000000000000000084588000000000020213280288MORENO CARLOS ADRIAN          000000000500001000000000000000000000000000000000000000000000000000000000000000000000000000000000000000000000000000075990PES00010000001000000000000000000000000
202007010010001000000000000000008459000000000000000084598000000000020129361450ALARCON DANIEL RODOL          000000001115878000000000000000000000000000000000000000000000000000000000000000000000000000000000000000000000000000169590PES00010000001000000000000000000000000
202007010010001000000000000000008460000000000000000084608000000000030694944112OLTRANS S.R.L                 000000000800001000000000000000000000000000000000000000000000000000000000000000000000000000000000000000000000000000121583PES00010000001000000000000000000000000
202007010010001000000000000000008461000000000000000084618000000000020302603139RENE LUIS GRANITO             000000000700003000000000000000000000000000000000000000000000000000000000000000000000000000000000000000000000000000106386PES00010000001000000000000000000000000
202007010010001000000000000000008462000000000000000084628000000000020161540898HERRERA RICARDO ALBE          000000001999999000000000000000000000000000000000000000000000000000000000000000000000000000000000000000000000000000303958PES00010000001000000000000000000000000
202007010010001000000000000000008463000000000000000084638000000000020267983632PORCO NINA OSCAR ALF          000000000930114000000000000000000000000000000000000000000000000000000000000000000000000000000000000000000000000000141358PES00010000001000000000000000000000000
202007010010001000000000000000008464000000000000000084648000000000020139044976ROMAN ROMULO JABIER           000000002100003000000000000000000000000000000000000000000000000000000000000000000000000000000000000000000000000000319156PES00010000001000000000000000000000000
202007010010001000000000000000008465000000000000000084658000000000030709808873MAX CLEM (CESCA CORT          000000001199998000000000000000000000000000000000000000000000000000000000000000000000000000000000000000000000000000182374PES00010000001000000000000000000000000
202007010010001000000000000000008466000000000000000084668000000000030694944112OLTRANS S.R.L                 000000000800001000000000000000000000000000000000000000000000000000000000000000000000000000000000000000000000000000121583PES00010000001000000000000000000000000
202007010010001000000000000000008467000000000000000084678000000000027216358401BELMONTE GABRIELA AM          000000002906168000000000000000000000000000000000000000000000000000000000000000000000000000000000000000000000000000441676PES00010000001000000000000000000000000
202007010010001000000000000000008468000000000000000084688000000000030714928690TRANS REMESAR SA              000000000999997000000000000000000000000000000000000000000000000000000000000000000000000000000000000000000000000000151978PES00010000001000000000000000000000000
202007020010001000000000000000008469000000000000000084698000000000020228993566GIL SEBASTIAN RICARD          000000001283689000000000000000000000000000000000000000000000000000000000000000000000000000000000000000000000000000195094PES00010000001000000000000000000000000
202007020010001000000000000000008470000000000000000084708000000000020289582410RUBEN IVAN FERRARE            000000001100000000000000000000000000000000000000000000000000000000000000000000000000000000000000000000000000000000167177PES00010000001000000000000000000000000
202007020010001000000000000000008471000000000000000084718000000000020228993566GIL SEBASTIAN RICARD          000000001317916000000000000000000000000000000000000000000000000000000000000000000000000000000000000000000000000000200295PES00010000001000000000000000000000000
202007020010001000000000000000008472000000000000000084728000000000020289582410RUBEN IVAN FERRARE            000000001100000000000000000000000000000000000000000000000000000000000000000000000000000000000000000000000000000000167177PES00010000001000000000000000000000000
202007020010001000000000000000008473000000000000000084738000000000027216358401BELMONTE GABRIELA AM          000000003493252000000000000000000000000000000000000000000000000000000000000000000000000000000000000000000000000000530900PES00010000001000000000000000000000000
202007020010001000000000000000008474000000000000000084748000000000020346035367LUQUE EZEQUIEL ALEJA          000000000999997000000000000000000000000000000000000000000000000000000000000000000000000000000000000000000000000000151978PES00010000001000000000000000000000000
202007020010001000000000000000008475000000000000000084758000000000020221806833ANDRADE ANDRES OSVAL          000000000700003000000000000000000000000000000000000000000000000000000000000000000000000000000000000000000000000000106386PES00010000001000000000000000000000000
202007020010001000000000000000008476000000000000000084768000000000020328530806LUIS JESUS COLLETTI           000000000499997000000000000000000000000000000000000000000000000000000000000000000000000000000000000000000000000000065738PES00010000001000000000000000000000000
202007020010001000000000000000008477000000000000000084778000000000023419603554ESPINOZA ADRIANA DEL          000000000300001000000000000000000000000000000000000000000000000000000000000000000000000000000000000000000000000000039443PES00010000001000000000000000000000000
202007020010001000000000000000008478000000000000000084788000000000030697226792MURNOSS SRL                   000000000349999000000000000000000000000000000000000000000000000000000000000000000000000000000000000000000000000000053192PES00010000001000000000000000000000000
202007020010001000000000000000008479000000000000000084798000000000030675376669MARATHON S.R.L                000000000300000000000000000000000000000000000000000000000000000000000000000000000000000000000000000000000000000000045594PES00010000001000000000000000000000000
202007020010001000000000000000008480000000000000000084808000000000030694944112OLTRANS S.R.L                 000000000989999000000000000000000000000000000000000000000000000000000000000000000000000000000000000000000000000000150459PES00010000001000000000000000000000000
202007020010001000000000000000008481000000000000000084818000000000030716430096MARSEL SRL                    000000000399999000000000000000000000000000000000000000000000000000000000000000000000000000000000000000000000000000052590PES00010000001000000000000000000000000
202007020010001000000000000000008482000000000000000084828000000000030709458996CEREALES 2000 S.R.L.          000000001199998000000000000000000000000000000000000000000000000000000000000000000000000000000000000000000000000000182374PES00010000001000000000000000000000000
202007020010001000000000000000008483000000000000000084838000000000020113809966JUAN REYES                    000000001200004000000000000000000000000000000000000000000000000000000000000000000000000000000000000000000000000000157772PES00010000001000000000000000000000000
202007020010001000000000000000008484000000000000000084848000000000027277630872LOTRANS SA                    000000002360040000000000000000000000000000000000000000000000000000000000000000000000000000000000000000000000000000358676PES00010000001000000000000000000000000
202007020010001000000000000000008485000000000000000084858000000000020238077533CUFRE ARIEL RUBEN             000000001700017000000000000000000000000000000000000000000000000000000000000000000000000000000000000000000000000000247500PES00010000001000000000000000000000000
202007020010001000000000000000008486000000000000000084868000000000020310209601ALVAREZ ERICK SEBAST          000000001999999000000000000000000000000000000000000000000000000000000000000000000000000000000000000000000000000000303958PES00010000001000000000000000000000000
202007020010001000000000000000008487000000000000000084878000000000020274902966SALINAS SERGIO GERAR          000000000999997000000000000000000000000000000000000000000000000000000000000000000000000000000000000000000000000000151978PES00010000001000000000000000000000000
202007020010001000000000000000008488000000000000000084888000000000020393664178PIZZIA NAZARENO               000000001950351000000000000000000000000000000000000000000000000000000000000000000000000000000000000000000000000000296412PES00010000001000000000000000000000000
202007020010001000000000000000008489000000000000000084898000000000030709861189TRANSPORTE SAN GABRI          000000000999868000000000000000000000000000000000000000000000000000000000000000000000000000000000000000000000000000147533PES00010000001000000000000000000000000
202007020010001000000000000000008490000000000000000084908000000000023176718099CALVO JOSE LUIS               000000003600062000000000000000000000000000000000000000000000000000000000000000000000000000000000000000000000000000547133PES00010000001000000000000000000000000
202007020010001000000000000000008491000000000000000084918000000000020080303891PASSADORES SANTIAGO           000000000499998000000000000000000000000000000000000000000000000000000000000000000000000000000000000000000000000000078334PES00010000001000000000000000000000000
202007020010001000000000000000008492000000000000000084928000000000020080303891PASSADORES SANTIAGO           000000000499998000000000000000000000000000000000000000000000000000000000000000000000000000000000000000000000000000078334PES00010000001000000000000000000000000
202007030010001000000000000000008493000000000000000084938000000000020274902966SALINAS SERGIO GERAR          000000001000002000000000000000000000000000000000000000000000000000000000000000000000000000000000000000000000000000151979PES00010000001000000000000000000000000
202007030010001000000000000000008494000000000000000084948000000000020380233607NIETO IVAN MATIAS (C          000000000999997000000000000000000000000000000000000000000000000000000000000000000000000000000000000000000000000000151978PES00010000001000000000000000000000000
202007030010001000000000000000008495000000000000000084958000000000020213280288MORENO CARLOS ADRIAN          000000000999997000000000000000000000000000000000000000000000000000000000000000000000000000000000000000000000000000151978PES00010000001000000000000000000000000
202007030010001000000000000000008496000000000000000084968000000000020108003783TRANSP VAZQUEZ ANGEL          000000000300000000000000000000000000000000000000000000000000000000000000000000000000000000000000000000000000000000045594PES00010000001000000000000000000000000
202007030010001000000000000000008497000000000000000084978000000000030716730529SAM SRL                       000000000300022000000000000000000000000000000000000000000000000000000000000000000000000000000000000000000000000000045597PES00010000001000000000000000000000000
202007030010001000000000000000008498000000000000000084988000000000020129186225GRANITO JOSE HUMBERT          000000000800001000000000000000000000000000000000000000000000000000000000000000000000000000000000000000000000000000121583PES00010000001000000000000000000000000
202007030010001000000000000000008499000000000000000084998000000000020373108562COSTILLA HECTOR DANI          000000000300000000000000000000000000000000000000000000000000000000000000000000000000000000000000000000000000000000045594PES00010000001000000000000000000000000
202007030010001000000000000000008502000000000000000085028000000000030708462515BYB S.R.L                     000000000010000000000000000000000000000000000000000000000000000000000000000000000000000000000000000000000000000000000000PES00010000001000000000000000000000000
202007030010001000000000000000008503000000000000000085038000000000020161720225VILLAFANE JUAN ALBER          000000002820095000000000000000000000000000000000000000000000000000000000000000000000000000000000000000000000000000428595PES00010000001000000000000000000000000
202007030010001000000000000000008504000000000000000085048000000000020106041238JUAN BARRERA                  000000000599999000000000000000000000000000000000000000000000000000000000000000000000000000000000000000000000000000091187PES00010000001000000000000000000000000
202007030010001000000000000000008505000000000000000085058000000000027114608578LAZARTE ANDREA ROSA           000000000500001000000000000000000000000000000000000000000000000000000000000000000000000000000000000000000000000000075990PES00010000001000000000000000000000000
202007030010001000000000000000008506000000000000000085068000000000030714198773TRANSPORTE YAYA S. A          000000000200002000000000000000000000000000000000000000000000000000000000000000000000000000000000000000000000000000030396PES00010000001000000000000000000000000
202007030010001000000000000000008507000000000000000085078000000000024284767442LAGARRIGUE JUAN PABL          000000000989999000000000000000000000000000000000000000000000000000000000000000000000000000000000000000000000000000150459PES00010000001000000000000000000000000
202007030010001000000000000000008508000000000000000085088000000000020169959146PLAZA EDGARDO OMAR            000000001190062000000000000000000000000000000000000000000000000000000000000000000000000000000000000000000000000000180864PES00010000001000000000000000000000000
202007030010001000000000000000008509000000000000000085098000000000020146562699GUBIOTTI HECTOR ANIB          000000000989999000000000000000000000000000000000000000000000000000000000000000000000000000000000000000000000000000150459PES00010000001000000000000000000000000
202007030010001000000000000000008510000000000000000085108000000000020183787560BIANCHI CARLOS ESTEB          000000001238884000000000000000000000000000000000000000000000000000000000000000000000000000000000000000000000000000169578PES00010000001000000000000000000000000
202007030010001000000000000000008511000000000000000085118000000000030708427086COMERCIAL BELTRAN             000000001060010000000000000000000000000000000000000000000000000000000000000000000000000000000000000000000000000000161099PES00010000001000000000000000000000000
202007030010001000000000000000008512000000000000000085128000000000027163325573GLADYS EDITH APARICI          000000001060010000000000000000000000000000000000000000000000000000000000000000000000000000000000000000000000000000161099PES00010000001000000000000000000000000
202007040010001000000000000000008513000000000000000085138000000000020228993566GIL SEBASTIAN RICARD          000000000989999000000000000000000000000000000000000000000000000000000000000000000000000000000000000000000000000000150459PES00010000001000000000000000000000000
202007040010001000000000000000008514000000000000000085148000000000020143590535GIL MANUEL ANTONIO            000000000899999000000000000000000000000000000000000000000000000000000000000000000000000000000000000000000000000000136781PES00010000001000000000000000000000000
202007040010001000000000000000008515000000000000000085158000000000020358078703ANTONI DANIEL ALBERT          000000000574637000000000000000000000000000000000000000000000000000000000000000000000000000000000000000000000000000084789PES00010000001000000000000000000000000
202007040010001000000000000000008516000000000000000085168000000000020281244923DAOUA GUSTAVO DANIEL          000000000999997000000000000000000000000000000000000000000000000000000000000000000000000000000000000000000000000000151978PES00010000001000000000000000000000000
202007040010001000000000000000008517000000000000000085178000000000020129186225GRANITO JOSE HUMBERT          000000000800001000000000000000000000000000000000000000000000000000000000000000000000000000000000000000000000000000121583PES00010000001000000000000000000000000
202007040010001000000000000000008518000000000000000085188000000000024284767442LAGARRIGUE JUAN PABL          000000000801563000000000000000000000000000000000000000000000000000000000000000000000000000000000000000000000000000121821PES00010000001000000000000000000000000
202007040010001000000000000000008519000000000000000085198000000000024284767442LAGARRIGUE JUAN PABL          000000001120001000000000000000000000000000000000000000000000000000000000000000000000000000000000000000000000000000170216PES00010000001000000000000000000000000
202007040010001000000000000000008520000000000000000085208000000000020252104888FERNANDEZ LUIS ANTON          000000000574637000000000000000000000000000000000000000000000000000000000000000000000000000000000000000000000000000084789PES00010000001000000000000000000000000
202007040010001000000000000000008521000000000000000085218000000000030709808873MAX CLEM (CESCA CORT          000000001999999000000000000000000000000000000000000000000000000000000000000000000000000000000000000000000000000000303958PES00010000001000000000000000000000000
202007040010001000000000000000008522000000000000000085228000000000020310209601ALVAREZ ERICK SEBAST          000000000599999000000000000000000000000000000000000000000000000000000000000000000000000000000000000000000000000000091187PES00010000001000000000000000000000000
