202011010010010100000000000000013759000000000000000137598000000000030715400630TSA ARGENTINA                 000000000022998000000000000000000000000000000000000000000000000000000000000000000000000000000000000000000000000000000238PES00010000001000000000000000000000000
202011010010010100000000000000013760000000000000000137608000000000030710735537R.V INGENIERIA S.R.L          000000000023656000000000000000000000000000000000000000000000000000000000000000000000000000000000000000000000000000000245PES00010000001000000000000000000000000
202011010010010100000000000000013761000000000000000137618000000000030714040142RODOLFO DANTE GOMEZ           000000000100004000000000000000000000000000000000000000000000000000000000000000000000000000000000000000000000000000020398PES00010000001000000000000000000000000
202011010010010100000000000000013762000000000000000137628000000000020279448848GALVEZ ALVARO RODRIG          000000000150001000000000000000000000000000000000000000000000000000000000000000000000000000000000000000000000000000030596PES00010000001000000000000000000000000
202011010010010100000000000000013763000000000000000137638000000000020279448848GALVEZ ALVARO RODRIG          000000000032703000000000000000000000000000000000000000000000000000000000000000000000000000000000000000000000000000000338PES00010000001000000000000000000000000
202011010010010100000000000000013764000000000000000137648000000000030716383659LOS CARDOS SAS                000000000217620000000000000000000000000000000000000000000000000000000000000000000000000000000000000000000000000000033602PES00010000001000000000000000000000000
202011010010010100000000000000013765000000000000000137658000000000020276515706SPIESS PABLO OTTO             000000000300002000000000000000000000000000000000000000000000000000000000000000000000000000000000000000000000000000046323PES00010000001000000000000000000000000
202011010010010200000000000000021259000000000000000212598000000000020277983525HERRERA NEDER                 000000000435003000000000000000000000000000000000000000000000000000000000000000000000000000000000000000000000000000099631PES00010000001000000000000000000000000
202011010010010200000000000000021260000000000000000212608000000000030691811138ESTER RUBINO S.R.L.           000000000260141000000000000000000000000000000000000000000000000000000000000000000000000000000000000000000000000000059581PES00010000001000000000000000000000000
202011010010010200000000000000021261000000000000000212618000000000030712262768BELCHEN SRL                   000000000260018000000000000000000000000000000000000000000000000000000000000000000000000000000000000000000000000000040149PES00010000001000000000000000000000000
202011010010010200000000000000021262000000000000000212628000000000020311796187CAZADO LUCAS                  000000000450014000000000000000000000000000000000000000000000000000000000000000000000000000000000000000000000000000069486PES00010000001000000000000000000000000
202011010010010200000000000000021263000000000000000212638000000000030567663090S.T.I.A                       000000000299999000000000000000000000000000000000000000000000000000000000000000000000000000000000000000000000000000068711PES00010000001000000000000000000000000
202011010010010200000000000000021264000000000000000212648000000000020204334278SOLANO ESTEVES                000000000200102000000000000000000000000000000000000000000000000000000000000000000000000000000000000000000000000000030897PES00010000001000000000000000000000000
202011010010010200000000000000021265000000000000000212658000000000020365841803PABLO ORTEGA                  000000000360013000000000000000000000000000000000000000000000000000000000000000000000000000000000000000000000000000073433PES00010000001000000000000000000000000
202011010010010200000000000000021266000000000000000212668000000000030708885661BALVERDE SRL                  000000000250059000000000000000000000000000000000000000000000000000000000000000000000000000000000000000000000000000042348PES00010000001000000000000000000000000
202011010010010200000000000000021267000000000000000212678000000000020371883143QUIROGA MARCELO FEDE          000000000100004000000000000000000000000000000000000000000000000000000000000000000000000000000000000000000000000000020398PES00010000001000000000000000000000000
202011010010010200000000000000021268000000000000000212688000000000020102198299CERVINIO LUIS ALFRED          000000000099997000000000000000000000000000000000000000000000000000000000000000000000000000000000000000000000000000022903PES00010000001000000000000000000000000
202011010010010200000000000000021269000000000000000212698000000000020256326036ARABOW CARLOS RUBEN           000000000109997000000000000000000000000000000000000000000000000000000000000000000000000000000000000000000000000000025193PES00010000001000000000000000000000000
202011010010010200000000000000021270000000000000000212708000000000020256326036ARABOW CARLOS RUBEN           000000000048998000000000000000000000000000000000000000000000000000000000000000000000000000000000000000000000000000011223PES00010000001000000000000000000000000
202011010010010200000000000000021271000000000000000212718000000000030708973528ARRENDAR SRL                  000000000310047000000000000000000000000000000000000000000000000000000000000000000000000000000000000000000000000000047875PES00010000001000000000000000000000000
202011010010010200000000000000021272000000000000000212728000000000023278093549MAZZA ERNESTO RODOLF          000000000534979000000000000000000000000000000000000000000000000000000000000000000000000000000000000000000000000000082606PES00010000001000000000000000000000000
202011010010010300000000000000018798000000000000000187988000000000030712262768BELCHEN SRL                   000000000213084000000000000000000000000000000000000000000000000000000000000000000000000000000000000000000000000000032903PES00010000001000000000000000000000000
202011010010010300000000000000018799000000000000000187998000000000020181867540BURGOS RAUL ANTONIO           000000000099997000000000000000000000000000000000000000000000000000000000000000000000000000000000000000000000000000022903PES00010000001000000000000000000000000
202011010010010300000000000000018800000000000000000188008000000000027352074786YANINA CORONEL                000000000099997000000000000000000000000000000000000000000000000000000000000000000000000000000000000000000000000000022903PES00010000001000000000000000000000000
202011010010010300000000000000018801000000000000000188018000000000030518643742INSTELEC SRL                  000000000299996000000000000000000000000000000000000000000000000000000000000000000000000000000000000000000000000000046322PES00010000001000000000000000000000000
202011010010010300000000000000018802000000000000000188028000000000020265315101OROSCO OMAR                   000000000200000000000000000000000000000000000000000000000000000000000000000000000000000000000000000000000000000000030882PES00010000001000000000000000000000000
202011010010010300000000000000018803000000000000000188038000000000030710735537R.V INGENIERIA S.R.L          000000000199996000000000000000000000000000000000000000000000000000000000000000000000000000000000000000000000000000040795PES00010000001000000000000000000000000
202011010010010300000000000000018804000000000000000188048000000000030715488635NOROESTE EQUIPAMIENT          000000000149998000000000000000000000000000000000000000000000000000000000000000000000000000000000000000000000000000023161PES00010000001000000000000000000000000
202011010010010300000000000000018805000000000000000188058000000000030547057771ORGANIZACION GALVES           000000000230021000000000000000000000000000000000000000000000000000000000000000000000000000000000000000000000000000046919PES00010000001000000000000000000000000
202011010010010300000000000000018806000000000000000188068000000000030522437650SANTISTA ARGENTINA S          000000000099997000000000000000000000000000000000000000000000000000000000000000000000000000000000000000000000000000022903PES00010000001000000000000000000000000
202011010010010300000000000000018807000000000000000188078000000000020179885086MARCELO FABIAN PERET          000000000099996000000000000000000000000000000000000000000000000000000000000000000000000000000000000000000000000000015440PES00010000001000000000000000000000000
202011010010010300000000000000018808000000000000000188088000000000020941936858JUAN ACHU QUISPE              000000001760017000000000000000000000000000000000000000000000000000000000000000000000000000000000000000000000000000271763PES00010000001000000000000000000000000
202011010010010300000000000000018809000000000000000188098000000000020234116275MARTIN MARTINEZ               000000000750005000000000000000000000000000000000000000000000000000000000000000000000000000000000000000000000000000136731PES00010000001000000000000000000000000
202011010010010300000000000000018810000000000000000188108000000000020102198256GARCIA BIAGOSCH ALBE          000000000391605000000000000000000000000000000000000000000000000000000000000000000000000000000000000000000000000000060468PES00010000001000000000000000000000000
202011010010010300000000000000018811000000000000000188118000000000030525436817JOSE MINETI Y CIA LT          000000000331505000000000000000000000000000000000000000000000000000000000000000000000000000000000000000000000000000051188PES00010000001000000000000000000000000
202011010010010300000000000000018812000000000000000188128000000000020214043379DEANA MARCOS                  000000000100004000000000000000000000000000000000000000000000000000000000000000000000000000000000000000000000000000020398PES00010000001000000000000000000000000
202011010010010400000000000000009530000000000000000095308000000000020245759135TRANSPORTE ARNAUDO G          000000001200010000000000000000000000000000000000000000000000000000000000000000000000000000000000000000000000000000218769PES00010000001000000000000000000000000
202011010010010500000000000000004729000000000000000047298000000000020311796187CAZADO LUCAS                  000000000034001000000000000000000000000000000000000000000000000000000000000000000000000000000000000000000000000000000000PES00010000001000000000000000000000000
202011010010010500000000000000004730000000000000000047308000000000020110747625PEREZ JUAN LUIS               000000000024001000000000000000000000000000000000000000000000000000000000000000000000000000000000000000000000000000000164PES00010000001000000000000000000000000
202011010010010500000000000000004731000000000000000047318000000000030710502818KILOMETRO 14 SRL              000000000024999000000000000000000000000000000000000000000000000000000000000000000000000000000000000000000000000000000413PES00010000001000000000000000000000000
202011010010010500000000000000004732000000000000000047328000000000020214043379DEANA MARCOS                  000000000019498000000000000000000000000000000000000000000000000000000000000000000000000000000000000000000000000000000000PES00010000001000000000000000000000000
202011010060010100000000000000019574000000000000000195959600000000000012345678Consumidor Final              000000002111388000000000000000000000000000000000000000000000000000000000000000000000000000000000000000000000000000408129PES00010000001000000000000000000000000
202011010060010200000000000000034401000000000000000344409600000000000012345678Consumidor Final              000000006880862000000000000000000000000000000000000000000000000000000000000000000000000000000000000000000000000001306092PES00010000001000000000000000000000000
202011010060010300000000000000026265000000000000000262979600000000000012345678Consumidor Final              000000004915222000000000000000000000000000000000000000000000000000000000000000000000000000000000000000000000000000977064PES00010000001000000000000000000000000
202011010060010500000000000000086888000000000000000870449600000000000012345678Consumidor Final              000000004764350000000000011001000000000000000000000000000000000000000000000000000000000000000000000000000000000000296101PES00010000001000000000000000000000000
202011010060010600000000000000013737000000000000000137489600000000000012345678Consumidor Final              000000000385400000000000003502000000000000000000000000000000000000000000000000000000000000000000000000000000000000098268PES00010000001000000000000000000000000
202011010820010600000000000000025176000000000000000251869600000000000012345678Consumidor Final              000000000628995000000000000199000000000000000000000000000000000000000000000000000000000000000000000000000000000000000000PES00010000002000000000000000000000000
202011020010010100000000000000013766000000000000000137668000000000020313573134FERNANDO NICOLAS ZAR          000000000030001000000000000000000000000000000000000000000000000000000000000000000000000000000000000000000000000000000310PES00010000001000000000000000000000000
202011020010010100000000000000013767000000000000000137678000000000020313573134FERNANDO NICOLAS ZAR          000000000100004000000000000000000000000000000000000000000000000000000000000000000000000000000000000000000000000000020398PES00010000001000000000000000000000000
202011020010010100000000000000013768000000000000000137688000000000027258440450GARZON ELIANA                 000000000023999000000000000000000000000000000000000000000000000000000000000000000000000000000000000000000000000000000248PES00010000001000000000000000000000000
202011020010010100000000000000013769000000000000000137698000000000030716744198CONSTRUFAM SRL                000000000026002000000000000000000000000000000000000000000000000000000000000000000000000000000000000000000000000000000269PES00010000001000000000000000000000000
202011020010010100000000000000013770000000000000000137708000000000030710735537R.V INGENIERIA S.R.L          000000000013198000000000000000000000000000000000000000000000000000000000000000000000000000000000000000000000000000000136PES00010000001000000000000000000000000
202011020010010100000000000000013771000000000000000137718000000000030712478817ALINOA SA                     000000000064998000000000000000000000000000000000000000000000000000000000000000000000000000000000000000000000000000000672PES00010000001000000000000000000000000
202011020010010100000000000000013772000000000000000137728000000000020331378365GUILLERMO JOSE MORS           000000000379999000000000000000000000000000000000000000000000000000000000000000000000000000000000000000000000000000058675PES00010000001000000000000000000000000
202011020010010100000000000000013773000000000000000137738000000000030707505113STOLLER ARGENTINA SA          000000000394905000000000000000000000000000000000000000000000000000000000000000000000000000000000000000000000000000057131PES00010000001000000000000000000000000
202011020010010100000000000000013774000000000000000137748000000000030714516899AGRO ACONQUIJA S.R.L          000000000031002000000000000000000000000000000000000000000000000000000000000000000000000000000000000000000000000000000320PES00010000001000000000000000000000000
202011020010010100000000000000013775000000000000000137758000000000020178926900HAEL ANTONIO ALBERTO          000000000200000000000000000000000000000000000000000000000000000000000000000000000000000000000000000000000000000000030882PES00010000001000000000000000000000000
202011020010010100000000000000013776000000000000000137768000000000020240591805FIGUEROA JUAN SANTIA          000000000014998000000000000000000000000000000000000000000000000000000000000000000000000000000000000000000000000000000155PES00010000001000000000000000000000000
202011020010010100000000000000013777000000000000000137778000000000030675286511EYPO S.R.L                    000000000019999000000000000000000000000000000000000000000000000000000000000000000000000000000000000000000000000000000207PES00010000001000000000000000000000000
202011020010010100000000000000013778000000000000000137788000000000020307707927ALDERETES JESUS OMAR          000000000025000000000000000000000000000000000000000000000000000000000000000000000000000000000000000000000000000000000258PES00010000001000000000000000000000000
202011020010010100000000000000013779000000000000000137798000000000020266849681CARAM CARLOS DANIEL           000000000044999000000000000000000000000000000000000000000000000000000000000000000000000000000000000000000000000000000465PES00010000001000000000000000000000000
202011020010010100000000000000013780000000000000000137808000000000030708462515BYB S.R.L                     000000000013000000000000000000000000000000000000000000000000000000000000000000000000000000000000000000000000000000000134PES00010000001000000000000000000000000
202011020010010100000000000000013781000000000000000137818000000000030711038171CRUCE SRL                     000000000200000000000000000000000000000000000000000000000000000000000000000000000000000000000000000000000000000000030882PES00010000001000000000000000000000000
202011020010010100000000000000013782000000000000000137828000000000020277211212GONZALEZ EDMUNDO              000000000021000000000000000000000000000000000000000000000000000000000000000000000000000000000000000000000000000000000217PES00010000001000000000000000000000000
202011020010010100000000000000013783000000000000000137838000000000020279741855LAMELAS JOSE OSCAR            000000000025000000000000000000000000000000000000000000000000000000000000000000000000000000000000000000000000000000000258PES00010000001000000000000000000000000
202011020010010200000000000000021273000000000000000212738000000000020295559501CANGRO WALTER                 000000000989997000000000000000000000000000000000000000000000000000000000000000000000000000000000000000000000000000186061PES00010000001000000000000000000000000
202011020010010200000000000000021274000000000000000212748000000000020295559501CANGRO WALTER                 000000000110000000000000000000000000000000000000000000000000000000000000000000000000000000000000000000000000000000020673PES00010000001000000000000000000000000
202011020010010200000000000000021275000000000000000212758000000000030711824886GREEN PACK SA                 000000000350155000000000000000000000000000000000000000000000000000000000000000000000000000000000000000000000000000071423PES00010000001000000000000000000000000
202011020010010200000000000000021276000000000000000212768000000000030712478817ALINOA SA                     000000000199996000000000000000000000000000000000000000000000000000000000000000000000000000000000000000000000000000040795PES00010000001000000000000000000000000
202011020010010200000000000000021277000000000000000212778000000000030714019739PRONAVE SA                    000000000007998000000000000000000000000000000000000000000000000000000000000000000000000000000000000000000000000000000000PES00010000001000000000000000000000000
202011020010010200000000000000021278000000000000000212788000000000020172702075CLAUDIO NADER                 000000000200000000000000000000000000000000000000000000000000000000000000000000000000000000000000000000000000000000030882PES00010000001000000000000000000000000
202011020010010200000000000000021279000000000000000212798000000000030710735537R.V INGENIERIA S.R.L          000000000049999000000000000000000000000000000000000000000000000000000000000000000000000000000000000000000000000000011452PES00010000001000000000000000000000000
202011020010010200000000000000021280000000000000000212808000000000030711173605RUISCAR SRL                   000000000110819000000000000000000000000000000000000000000000000000000000000000000000000000000000000000000000000000000000PES00010000001000000000000000000000000
202011020010010200000000000000021281000000000000000212818000000000020264124906HEREDIA VICTOR HUGO           000000000350002000000000000000000000000000000000000000000000000000000000000000000000000000000000000000000000000000063808PES00010000001000000000000000000000000
202011020010010200000000000000021282000000000000000212828000000000023324131639VIDOZ FEDERICO                000000000457073000000000000000000000000000000000000000000000000000000000000000000000000000000000000000000000000000070576PES00010000001000000000000000000000000
202011020010010200000000000000021283000000000000000212838000000000030675286511EYPO S.R.L                    000000000019999000000000000000000000000000000000000000000000000000000000000000000000000000000000000000000000000000000207PES00010000001000000000000000000000000
202011020010010200000000000000021284000000000000000212848000000000030708668733REFRES NOW SA                 000000000299994000000000000000000000000000000000000000000000000000000000000000000000000000000000000000000000000000061192PES00010000001000000000000000000000000
202011020010010200000000000000021285000000000000000212858000000000020275979369SUELDO RICARDO                000000000100004000000000000000000000000000000000000000000000000000000000000000000000000000000000000000000000000000020398PES00010000001000000000000000000000000
202011020010010200000000000000021286000000000000000212868000000000033707457819KRON S.A                      000000000149998000000000000000000000000000000000000000000000000000000000000000000000000000000000000000000000000000023161PES00010000001000000000000000000000000
202011020010010200000000000000021287000000000000000212878000000000020080366796SASSI COLOMBRES JORG          000000000310047000000000000000000000000000000000000000000000000000000000000000000000000000000000000000000000000000047875PES00010000001000000000000000000000000
202011020010010200000000000000021288000000000000000212888000000000030639221128LAS LANZAS S.A.               000000000307062000000000000000000000000000000000000000000000000000000000000000000000000000000000000000000000000000047413PES00010000001000000000000000000000000
202011020010010200000000000000021289000000000000000212898000000000030715940961SIMPLY BLUE S.A.S             000000000200009000000000000000000000000000000000000000000000000000000000000000000000000000000000000000000000000000045809PES00010000001000000000000000000000000
202011020010010200000000000000021290000000000000000212908000000000020163789877NAVARRO RUBEN ENRIQU          000000000200000000000000000000000000000000000000000000000000000000000000000000000000000000000000000000000000000000030882PES00010000001000000000000000000000000
202011020010010200000000000000021291000000000000000212918000000000020284765002BRITO HORACIO JESUS           000000000392884000000000000000000000000000000000000000000000000000000000000000000000000000000000000000000000000000080139PES00010000001000000000000000000000000
202011020010010200000000000000021292000000000000000212928000000000030715157701LOS ARBOLES SRL               000000000200001000000000000000000000000000000000000000000000000000000000000000000000000000000000000000000000000000045807PES00010000001000000000000000000000000
202011020010010200000000000000021293000000000000000212938000000000020111570893CRIADO GUSTAVO JORGE          000000000299996000000000000000000000000000000000000000000000000000000000000000000000000000000000000000000000000000046322PES00010000001000000000000000000000000
202011020010010200000000000000021294000000000000000212948000000000030714042447TIKAL S.R.L                   000000000200000000000000000000000000000000000000000000000000000000000000000000000000000000000000000000000000000000030882PES00010000001000000000000000000000000
202011020010010200000000000000021295000000000000000212958000000000030711033994APPOLLONI INGENIERIA          000000000200002000000000000000000000000000000000000000000000000000000000000000000000000000000000000000000000000000036462PES00010000001000000000000000000000000
202011020010010200000000000000021296000000000000000212968000000000020250250631SUAREZ DANIEL ANTONI          000000000300001000000000000000000000000000000000000000000000000000000000000000000000000000000000000000000000000000061193PES00010000001000000000000000000000000
202011020010010200000000000000021297000000000000000212978000000000030691784890MELIAN SA                     000000000149998000000000000000000000000000000000000000000000000000000000000000000000000000000000000000000000000000023161PES00010000001000000000000000000000000
202011020010010200000000000000021298000000000000000212988000000000020926864409CONDORI QUISPE LUIS           000000000260039000000000000000000000000000000000000000000000000000000000000000000000000000000000000000000000000000048364PES00010000001000000000000000000000000
202011020010010200000000000000021299000000000000000212998000000000020277323037CARRAZANO ENZO JAVIE          000000000289998000000000000000000000000000000000000000000000000000000000000000000000000000000000000000000000000000054503PES00010000001000000000000000000000000
202011020010010200000000000000021300000000000000000213008000000000027282212264ZULEMA MARIA GUYOT            000000000200001000000000000000000000000000000000000000000000000000000000000000000000000000000000000000000000000000045807PES00010000001000000000000000000000000
202011020010010200000000000000021301000000000000000213018000000000030691734915LINE UP SA                    000000000100004000000000000000000000000000000000000000000000000000000000000000000000000000000000000000000000000000020398PES00010000001000000000000000000000000
202011020010010200000000000000021302000000000000000213028000000000020069967095SUCESION TERAN RODOL          000000000299996000000000000000000000000000000000000000000000000000000000000000000000000000000000000000000000000000046322PES00010000001000000000000000000000000
202011020010010200000000000000021303000000000000000213038000000000030502793175ARCOR SAIC                    000000000300131000000000000000000000000000000000000000000000000000000000000000000000000000000000000000000000000000061219PES00010000001000000000000000000000000
202011020010010300000000000000018813000000000000000188138000000000020248034123MIGUEL BUESO HECTOR           000000000499998000000000000000000000000000000000000000000000000000000000000000000000000000000000000000000000000000097696PES00010000001000000000000000000000000
202011020010010300000000000000018814000000000000000188148000000000020188062998CARDENAS LOPEZ VLADI          000000000190015000000000000000000000000000000000000000000000000000000000000000000000000000000000000000000000000000043519PES00010000001000000000000000000000000
202011020010010300000000000000018815000000000000000188158000000000027310367929PARRA MARIA JOSE              000000000399998000000000000000000000000000000000000000000000000000000000000000000000000000000000000000000000000000061763PES00010000001000000000000000000000000
202011020010010300000000000000018816000000000000000188168000000000030691734915LINE UP                       000000000059999000000000000000000000000000000000000000000000000000000000000000000000000000000000000000000000000000013741PES00010000001000000000000000000000000
202011020010010300000000000000018817000000000000000188178000000000020208985761PABLO ROBIN                   000000000200001000000000000000000000000000000000000000000000000000000000000000000000000000000000000000000000000000045807PES00010000001000000000000000000000000
202011020010010300000000000000018818000000000000000188188000000000030592845845CETROGAR S.A                  000000000059999000000000000000000000000000000000000000000000000000000000000000000000000000000000000000000000000000013741PES00010000001000000000000000000000000
202011020010010300000000000000018819000000000000000188198000000000027103217887MARTINEZ DELIA ROSA           000000000299996000000000000000000000000000000000000000000000000000000000000000000000000000000000000000000000000000046322PES00010000001000000000000000000000000
2020110200100103000000000000000188200000000000000001882080000000000307141489541000 VER S.R.L                000000000150012000000000000000000000000000000000000000000000000000000000000000000000000000000000000000000000000000034359PES00010000001000000000000000000000000
202011020010010300000000000000018821000000000000000188218000000000020248237393ALDO JAVIER LEMOS             000000000099996000000000000000000000000000000000000000000000000000000000000000000000000000000000000000000000000000015440PES00010000001000000000000000000000000
202011020010010300000000000000018822000000000000000188228000000000020080458836SUCESION DE KOTLET L          000000000300001000000000000000000000000000000000000000000000000000000000000000000000000000000000000000000000000000061193PES00010000001000000000000000000000000
202011020010010300000000000000018823000000000000000188238000000000030685646389VITRASERV SRL                 000000000099997000000000000000000000000000000000000000000000000000000000000000000000000000000000000000000000000000018230PES00010000001000000000000000000000000
202011020010010300000000000000018824000000000000000188248000000000030707184104COOP DE TRABAJO EL P          000000000150026000000000000000000000000000000000000000000000000000000000000000000000000000000000000000000000000000023166PES00010000001000000000000000000000000
202011020010010300000000000000018825000000000000000188258000000000020274548887GUSTAVO FRANCISCO CO          000000000300001000000000000000000000000000000000000000000000000000000000000000000000000000000000000000000000000000061193PES00010000001000000000000000000000000
202011020010010300000000000000018826000000000000000188268000000000020307707927ALDERETES JESUS OMAR          000000001179998000000000000000000000000000000000000000000000000000000000000000000000000000000000000000000000000000270262PES00010000001000000000000000000000000
202011020010010300000000000000018827000000000000000188278000000000030551667800AITOR IDER  BALBO             000000000350286000000000000000000000000000000000000000000000000000000000000000000000000000000000000000000000000000071450PES00010000001000000000000000000000000
202011020010010300000000000000018828000000000000000188288000000000030557784132GEBAL S.A                     000000000560041000000000000000000000000000000000000000000000000000000000000000000000000000000000000000000000000000086476PES00010000001000000000000000000000000
202011020010010300000000000000018829000000000000000188298000000000020202200541CARRASCO DANIEL EDUA          000000000200000000000000000000000000000000000000000000000000000000000000000000000000000000000000000000000000000000030882PES00010000001000000000000000000000000
202011020010010300000000000000018830000000000000000188308000000000020172682058VELIZ SERGIO RENE             000000000375577000000000000000000000000000000000000000000000000000000000000000000000000000000000000000000000000000057992PES00010000001000000000000000000000000
202011020010010300000000000000018831000000000000000188318000000000030707564438FRUTUCUMAN SA                 000000000049999000000000000000000000000000000000000000000000000000000000000000000000000000000000000000000000000000011452PES00010000001000000000000000000000000
202011020010010300000000000000018832000000000000000188328000000000030710374399DISTRITAFISENO S.R.L          000000000500000000000000000000000000000000000000000000000000000000000000000000000000000000000000000000000000000000114517PES00010000001000000000000000000000000
202011020010010300000000000000018833000000000000000188338000000000030525436817JOSE MINETI Y CIA LT          000000000069997000000000000000000000000000000000000000000000000000000000000000000000000000000000000000000000000000016032PES00010000001000000000000000000000000
202011020010010300000000000000018834000000000000000188348000000000020122578535RAMON EDUARDO ALBORN          000000000099996000000000000000000000000000000000000000000000000000000000000000000000000000000000000000000000000000015440PES00010000001000000000000000000000000
202011020010010300000000000000018835000000000000000188358000000000020122578535RAMON EDUARDO ALBORN          000000000150001000000000000000000000000000000000000000000000000000000000000000000000000000000000000000000000000000030596PES00010000001000000000000000000000000
202011020010010300000000000000018836000000000000000188368000000000020110845937MONACO HECTOR                 000000000499995000000000000000000000000000000000000000000000000000000000000000000000000000000000000000000000000000077204PES00010000001000000000000000000000000
202011020010010300000000000000018837000000000000000188378000000000020213280725CARLOS TAMER                  000000000330018000000000000000000000000000000000000000000000000000000000000000000000000000000000000000000000000000060165PES00010000001000000000000000000000000
202011020010010400000000000000009531000000000000000095318000000000020060851825DONELLI ERNESTO HUGO          000000001000002000000000000000000000000000000000000000000000000000000000000000000000000000000000000000000000000000182307PES00010000001000000000000000000000000
202011020010010400000000000000009532000000000000000095328000000000020129186225GRANITO JOSE HUMBERT          000000000600005000000000000000000000000000000000000000000000000000000000000000000000000000000000000000000000000000109385PES00010000001000000000000000000000000
202011020010010400000000000000009533000000000000000095338000000000020143590535GIL MANUEL ANTONIO            000000000580000000000000000000000000000000000000000000000000000000000000000000000000000000000000000000000000000000105738PES00010000001000000000000000000000000
202011020010010400000000000000009534000000000000000095348000000000030716744198CONSTRUFAM SRL                000000001100006000000000000000000000000000000000000000000000000000000000000000000000000000000000000000000000000000200538PES00010000001000000000000000000000000
202011020010010400000000000000009535000000000000000095358000000000020295559501CANGRO WALTER                 000000000900004000000000000000000000000000000000000000000000000000000000000000000000000000000000000000000000000000164076PES00010000001000000000000000000000000
202011020010010400000000000000009536000000000000000095368000000000027057270905MANCERA JOSEFINA REM          000000000950004000000000000000000000000000000000000000000000000000000000000000000000000000000000000000000000000000175529PES00010000001000000000000000000000000
202011020010010400000000000000009537000000000000000095378000000000020129186225GRANITO JOSE HUMBERT          000000000600005000000000000000000000000000000000000000000000000000000000000000000000000000000000000000000000000000109385PES00010000001000000000000000000000000
202011020010010400000000000000009538000000000000000095388000000000023249870854GRAMAJO NORMA ANDREA          000000000599999000000000000000000000000000000000000000000000000000000000000000000000000000000000000000000000000000109384PES00010000001000000000000000000000000
202011020010010400000000000000009539000000000000000095398000000000020236978134BOLLO FACUNDO JOSE            000000000989997000000000000000000000000000000000000000000000000000000000000000000000000000000000000000000000000000186061PES00010000001000000000000000000000000
202011020010010400000000000000009540000000000000000095408000000000020203702249LUNA FABIAN ALFREDO           000000003010020000000000000000000000000000000000000000000000000000000000000000000000000000000000000000000000000000548747PES00010000001000000000000000000000000
202011020010010500000000000000004733000000000000000047338000000000033794525396GRUPO TERGOLAF                000000000017499000000000000000000000000000000000000000000000000000000000000000000000000000000000000000000000000000000000PES00010000001000000000000000000000000
202011020010010500000000000000004734000000000000000047348000000000030707695842ARIDOS DEL SALI SRL           000000000039002000000000000000000000000000000000000000000000000000000000000000000000000000000000000000000000000000000000PES00010000001000000000000000000000000
202011020010010500000000000000004735000000000000000047358000000000020163789877NAVARRO RUBEN ENRIQU          000000000052998000000000000000000000000000000000000000000000000000000000000000000000000000000000000000000000000000000000PES00010000001000000000000000000000000
202011020010010500000000000000004736000000000000000047368000000000033697225639ARGENTI LEMON                 000000000032998000000000000000000000000000000000000000000000000000000000000000000000000000000000000000000000000000000000PES00010000001000000000000000000000000
202011020010010500000000000000004737000000000000000047378000000000030711714851SERVIFRUCTUS S.R.L            000000000048002000000000000000000000000000000000000000000000000000000000000000000000000000000000000000000000000000000000PES00010000001000000000000000000000000
202011020010010500000000000000004738000000000000000047388000000000030711038171CRUCE SRL                     000000000056798000000000000000000000000000000000000000000000000000000000000000000000000000000000000000000000000000012022PES00010000001000000000000000000000000
2020110200100105000000000000000047390000000000000000473980000000000307141489541000 VER S.R.L                000000000005700000000000002001000000000000000000000000000000000000000000000000000000000000000000000000000000000000000000PES00010000001000000000000000000000000
202011020010010600000000000000001290000000000000000012908000000000023104588379ROBERTO CHELALA               000000000034998000000000000000000000000000000000000000000000000000000000000000000000000000000000000000000000000000000000PES00010000001000000000000000000000000
202011020010010600000000000000001291000000000000000012918000000000030709195251LA CELINA SRL                 000000000023502000000000000000000000000000000000000000000000000000000000000000000000000000000000000000000000000000009287PES00010000001000000000000000000000000
202011020010010600000000000000001292000000000000000012928000000000030707564438FRUTUCUMAN SA                 000000000051298000000000000000000000000000000000000000000000000000000000000000000000000000000000000000000000000000000000PES00010000001000000000000000000000000
202011020010010600000000000000001293000000000000000012938000000000020110747625PEREZ JUAN LUIS               000000000018098000000000000000000000000000000000000000000000000000000000000000000000000000000000000000000000000000000000PES00010000001000000000000000000000000
202011020010010600000000000000001294000000000000000012948000000000030707695842ARIDOS DEL SALI SRL           000000000033897000000000000000000000000000000000000000000000000000000000000000000000000000000000000000000000000000000000PES00010000001000000000000000000000000
202011010010010700000000000000000943000000000000000009438000000000023137038374MUSTAFA NERINA JULIE          000000001267619000000000000000000000000000000000000000000000000000000000000000000000000000000000000000000000000000000000PES00010000001000000000000000000000000
202011010010011000000000000000001551000000000000000015518000000000020160911388YSA VICTOR HUGO               000000000940534000000000000000000000000000000000000000000000000000000000000000000000000000000000000000000000000000167442PES00010000001000000000000000000000000
202011010010011000000000000000001552000000000000000015528000000000020279448848GALVEZ ALVARO RODRIG          000000001818671000000000000000000000000000000000000000000000000000000000000000000000000000000000000000000000000000114346PES00010000001000000000000000000000000
202011010010011000000000000000001553000000000000000015538000000000020110747625PEREZ JUAN LUIS               000000001788612000000000000000000000000000000000000000000000000000000000000000000000000000000000000000000000000000220896PES00010000001000000000000000000000000
202011010010011000000000000000001554000000000000000015548000000000020307757584DIAZ CESAR HORACIO            000000006852570000000000000000000000000000000000000000000000000000000000000000000000000000000000000000000000000001245084PES00010000001000000000000000000000000
202011010010011000000000000000001555000000000000000015558000000000030709549452AGRICOLA MARES SA             000000001341286000000000000000000000000000000000000000000000000000000000000000000000000000000000000000000000000000207107PES00010000001000000000000000000000000
202011010010011000000000000000001556000000000000000015568000000000030711133980ALUAP GROUP SRL               000000001219658000000000000000000000000000000000000000000000000000000000000000000000000000000000000000000000000000230201PES00010000001000000000000000000000000
202011010010011000000000000000001557000000000000000015578000000000030716663929UNIFRUTTI S.A                 000000003523802000000000000000000000000000000000000000000000000000000000000000000000000000000000000000000000000000633406PES00010000001000000000000000000000000
202011010010011000000000000000001558000000000000000015588000000000030711824886GREEN PACK SA                 000000002224934000000000000000000000000000000000000000000000000000000000000000000000000000000000000000000000000000390061PES00010000001000000000000000000000000
202011010010011000000000000000001559000000000000000015598000000000033716027649ARNOA SRL                     000000000700369000000000000000000000000000000000000000000000000000000000000000000000000000000000000000000000000000135069PES00010000001000000000000000000000000
202011010010011000000000000000001560000000000000000015608000000000020375019567CONTRERAS IVAN                000000000150048000000000000000000000000000000000000000000000000000000000000000000000000000000000000000000000000000034366PES00010000001000000000000000000000000
202011010010011000000000000000001561000000000000000015618000000000030709040428ANPAMA SRL                    000000006014907000000000000000000000000000000000000000000000000000000000000000000000000000000000000000000000000001010117PES00010000001000000000000000000000000
202011010060010100000000000000019596000000000000000196229600000000000012345678Consumidor Final              000000002738969000000000000000000000000000000000000000000000000000000000000000000000000000000000000000000000000000417446PES00010000001000000000000000000000000
202011010060010200000000000000034441000000000000000344729600000000000012345678Consumidor Final              000000005680526000000000000000000000000000000000000000000000000000000000000000000000000000000000000000000000000001145544PES00010000001000000000000000000000000
202011010060010300000000000000026298000000000000000263129600000000000012345678Consumidor Final              000000002806635000000000000000000000000000000000000000000000000000000000000000000000000000000000000000000000000000569305PES00010000001000000000000000000000000
202011010060010300000000000000026313000000000000000263139600000000000012345678Consumidor Final              000000002079996000000000000000000000000000000000000000000000000000000000000000000000000000000000000000000000000000379197PES00010000001000000000000000000000000
202011010060010300000000000000026314000000000000000263199600000000000012345678Consumidor Final              000000001053496000000000000000000000000000000000000000000000000000000000000000000000000000000000000000000000000000215761PES00010000001000000000000000000000000
202011010060010400000000000000002562000000000000000025639600000000000012345678Consumidor Final              000000000359998000000000000000000000000000000000000000000000000000000000000000000000000000000000000000000000000000068434PES00010000001000000000000000000000000
202011010060010400000000000000002564000000000000000025649600000000000012345678Consumidor Final              000000002259858000000000000000000000000000000000000000000000000000000000000000000000000000000000000000000000000000404179PES00010000001000000000000000000000000
202011010060010500000000000000087045000000000000000872329600000000000012345678Consumidor Final              000000004227507000000000058599000000000000000000000000000000000000000000000000000000000000000000000000000000000000273434PES00010000002000000000000000000000000
202011010060010600000000000000013749000000000000000137789600000000000012345678Consumidor Final              000000000650600000000000003497000000000000000000000000000000000000000000000000000000000000000000000000000000000000097031PES00010000001000000000000000000000000
202011010060010700000000000000001966000000000000000019709600000000000012345678Consumidor Final              000000001930163000000000000000000000000000000000000000000000000000000000000000000000000000000000000000000000000000000000PES00010000001000000000000000000000000
202011010820010600000000000000025187000000000000000252299600000000000012345678Consumidor Final              000000001190365000000000021200000000000000000000000000000000000000000000000000000000000000000000000000000000000000000000PES00010000001000000000000000000000000
202011010010010100000000000000013784000000000000000137848000000000020313573134FERNANDO NICOLAS ZAR          000000000030001000000000000000000000000000000000000000000000000000000000000000000000000000000000000000000000000000000310PES00010000001000000000000000000000000
202011010010010100000000000000013785000000000000000137858000000000020313573134FERNANDO NICOLAS ZAR          000000000100004000000000000000000000000000000000000000000000000000000000000000000000000000000000000000000000000000020398PES00010000001000000000000000000000000
202011010010010100000000000000013786000000000000000137868000000000030710735537R.V INGENIERIA S.R.L          000000000013973000000000000000000000000000000000000000000000000000000000000000000000000000000000000000000000000000000144PES00010000001000000000000000000000000
202011010010010100000000000000013787000000000000000137878000000000030710735537R.V INGENIERIA S.R.L          000000000018118000000000000000000000000000000000000000000000000000000000000000000000000000000000000000000000000000000187PES00010000001000000000000000000000000
202011010010010100000000000000013788000000000000000137888000000000020084466841GUILLERMO VICENTE SA          000000000510065000000000000000000000000000000000000000000000000000000000000000000000000000000000000000000000000000078759PES00010000001000000000000000000000000
202011010010010100000000000000013789000000000000000137898000000000020257403689CHAYLE VICENTE SEBAS          000000000047997000000000000000000000000000000000000000000000000000000000000000000000000000000000000000000000000000000496PES00010000001000000000000000000000000
202011010010010100000000000000013790000000000000000137908000000000030714392030COCO SH                       000000000360013000000000000000000000000000000000000000000000000000000000000000000000000000000000000000000000000000073433PES00010000001000000000000000000000000
202011010010010100000000000000013791000000000000000137918000000000030713606304EARLY CROP SA                 000000000473808000000000000000000000000000000000000000000000000000000000000000000000000000000000000000000000000000073160PES00010000001000000000000000000000000
202011010010010100000000000000013792000000000000000137928000000000030709183458IRARRAZABAL - NIEVA           000000000149998000000000000000000000000000000000000000000000000000000000000000000000000000000000000000000000000000023161PES00010000001000000000000000000000000
202011010010010100000000000000013793000000000000000137938000000000020286141154PABLO FERNANDO CORRE          000000000119998000000000000000000000000000000000000000000000000000000000000000000000000000000000000000000000000000024477PES00010000001000000000000000000000000
202011010010010100000000000000013794000000000000000137948000000000030708462515BYB S.R.L                     000000000011999000000000000000000000000000000000000000000000000000000000000000000000000000000000000000000000000000000124PES00010000001000000000000000000000000
202011010010010100000000000000013795000000000000000137958000000000030714126721ABC DISTRIBUCIONES            000000000029000000000000000000000000000000000000000000000000000000000000000000000000000000000000000000000000000000000300PES00010000001000000000000000000000000
202011010010010100000000000000013796000000000000000137968000000000030709100579TRES DECIMA                   000000000141014000000000000000000000000000000000000000000000000000000000000000000000000000000000000000000000000000032298PES00010000001000000000000000000000000
202011010010010100000000000000013797000000000000000137978000000000020277211212GONZALEZ EDMUNDO              000000000022998000000000000000000000000000000000000000000000000000000000000000000000000000000000000000000000000000000238PES00010000001000000000000000000000000
202011010010010100000000000000013798000000000000000137988000000000030714516899AGRO ACONQUIJA S.R.L          000000000018997000000000000000000000000000000000000000000000000000000000000000000000000000000000000000000000000000000196PES00010000001000000000000000000000000
202011010010010100000000000000013799000000000000000137998000000000020279448848GALVEZ ALVARO RODRIG          000000000030001000000000000000000000000000000000000000000000000000000000000000000000000000000000000000000000000000000310PES00010000001000000000000000000000000
202011010010010100000000000000013800000000000000000138008000000000030714914711AMARELA TUCUMAN SRL           000000000099996000000000000000000000000000000000000000000000000000000000000000000000000000000000000000000000000000015440PES00010000001000000000000000000000000
202011010010010100000000000000013801000000000000000138018000000000027352074786YANINA CORONEL                000000000070000000000000000000000000000000000000000000000000000000000000000000000000000000000000000000000000000000012761PES00010000001000000000000000000000000
202011010010010200000000000000021304000000000000000213048000000000030711278903LA CIUDADELA SRL              000000000394957000000000000000000000000000000000000000000000000000000000000000000000000000000000000000000000000000060985PES00010000001000000000000000000000000
202011010010010200000000000000021305000000000000000213058000000000023304346299DIAZ RUBEN EDGARDO            000000000070000000000000000000000000000000000000000000000000000000000000000000000000000000000000000000000000000000012761PES00010000001000000000000000000000000
202011010010010200000000000000021306000000000000000213068000000000030695177239AGROPECUARIA MISTOL           000000000120003000000000000000000000000000000000000000000000000000000000000000000000000000000000000000000000000000018529PES00010000001000000000000000000000000
202011010010010200000000000000021307000000000000000213078000000000030714019739PRONAVE SA                    000000000285011000000000000000000000000000000000000000000000000000000000000000000000000000000000000000000000000000044008PES00010000001000000000000000000000000
202011010010010200000000000000021308000000000000000213088000000000030712262768BELCHEN SRL                   000000000290012000000000000000000000000000000000000000000000000000000000000000000000000000000000000000000000000000044780PES00010000001000000000000000000000000
202011010010010200000000000000021309000000000000000213098000000000033714757429NOBEN SRL                     000000000079999000000000000000000000000000000000000000000000000000000000000000000000000000000000000000000000000000016318PES00010000001000000000000000000000000
202011010010010200000000000000021310000000000000000213108000000000033714757429NOBEN SRL                     000000000016000000000000000000000000000000000000000000000000000000000000000000000000000000000000000000000000000000000165PES00010000001000000000000000000000000
202011010010010200000000000000021311000000000000000213118000000000030711064946CENTRAL OUTDOOR SRL           000000000360137000000000000000000000000000000000000000000000000000000000000000000000000000000000000000000000000000055609PES00010000001000000000000000000000000
202011010010010200000000000000021312000000000000000213128000000000030716471043GRUPO LICI SRL                000000000390044000000000000000000000000000000000000000000000000000000000000000000000000000000000000000000000000000060227PES00010000001000000000000000000000000
202011010010010200000000000000021313000000000000000213138000000000030716256312RP CONSTRUCCIONES SR          000000000100004000000000000000000000000000000000000000000000000000000000000000000000000000000000000000000000000000020398PES00010000001000000000000000000000000
202011010010010200000000000000021314000000000000000213148000000000030711038171CRUCE SRL                     000000000230001000000000000000000000000000000000000000000000000000000000000000000000000000000000000000000000000000035514PES00010000001000000000000000000000000
202011010010010200000000000000021315000000000000000213158000000000020080366796SASSI COLOMBRES JORG          000000000780017000000000000000000000000000000000000000000000000000000000000000000000000000000000000000000000000000142203PES00010000001000000000000000000000000
202011010010010200000000000000021316000000000000000213168000000000030536259194ORGANIZACION COORDIN          000000000017002000000000000000000000000000000000000000000000000000000000000000000000000000000000000000000000000000003894PES00010000001000000000000000000000000
202011010010010200000000000000021317000000000000000213178000000000030536259194ORGANIZACION COORDIN          000000000017002000000000000000000000000000000000000000000000000000000000000000000000000000000000000000000000000000003894PES00010000001000000000000000000000000
202011010010010200000000000000021318000000000000000213188000000000030536259194ORGANIZACION COORDIN          000000000017002000000000000000000000000000000000000000000000000000000000000000000000000000000000000000000000000000003894PES00010000001000000000000000000000000
202011010010010200000000000000021319000000000000000213198000000000030646328450SYNGENTA AGRO                 000000000400033000000000000000000000000000000000000000000000000000000000000000000000000000000000000000000000000000061769PES00010000001000000000000000000000000
202011010010010200000000000000021320000000000000000213208000000000020080040254MARTINEZ SANTAMARINA          000000000310041000000000000000000000000000000000000000000000000000000000000000000000000000000000000000000000000000063241PES00010000001000000000000000000000000
202011010010010200000000000000021321000000000000000213218000000000020245938072MARZORATTI LUIS ALBE          000000000270006000000000000000000000000000000000000000000000000000000000000000000000000000000000000000000000000000041691PES00010000001000000000000000000000000
202011010010010200000000000000021322000000000000000213228000000000020078847442SLEIMAN JOREGE JOSE           000000000299996000000000000000000000000000000000000000000000000000000000000000000000000000000000000000000000000000046322PES00010000001000000000000000000000000
202011010010010200000000000000021323000000000000000213238000000000030691784890MELIAN SA                     000000000149998000000000000000000000000000000000000000000000000000000000000000000000000000000000000000000000000000023161PES00010000001000000000000000000000000
202011010010010200000000000000021324000000000000000213248000000000030716332884AGROPECUARIA BALVERD          000000000439990000000000000000000000000000000000000000000000000000000000000000000000000000000000000000000000000000067938PES00010000001000000000000000000000000
202011010010010200000000000000021325000000000000000213258000000000020300697454ISSA EMMANUEL DANTE           000000000200000000000000000000000000000000000000000000000000000000000000000000000000000000000000000000000000000000030882PES00010000001000000000000000000000000
202011010010010200000000000000021326000000000000000213268000000000030504244586SAGEMULLER S.A.               000000000385007000000000000000000000000000000000000000000000000000000000000000000000000000000000000000000000000000078532PES00010000001000000000000000000000000
202011010010010200000000000000021327000000000000000213278000000000027261096116ACOSTA ELSA                   000000000418022000000000000000000000000000000000000000000000000000000000000000000000000000000000000000000000000000064546PES00010000001000000000000000000000000
202011010010010200000000000000021328000000000000000213288000000000023266483759ARIAS RUBEN ALFREDO           000000000495048000000000000000000000000000000000000000000000000000000000000000000000000000000000000000000000000000076440PES00010000001000000000000000000000000
202011010010010200000000000000021329000000000000000213298000000000030709866709LAROCCA SALTA NEUMAT          000000000389955000000000000000000000000000000000000000000000000000000000000000000000000000000000000000000000000000071091PES00010000001000000000000000000000000
202011010010010300000000000000018838000000000000000188388000000000023262906299JOSE ARTURO GRAMAJO           000000000289155000000000000000000000000000000000000000000000000000000000000000000000000000000000000000000000000000044649PES00010000001000000000000000000000000
202011010010010300000000000000018839000000000000000188398000000000023262906299JOSE ARTURO GRAMAJO           000000000599998000000000000000000000000000000000000000000000000000000000000000000000000000000000000000000000000000092645PES00010000001000000000000000000000000
202011010010010300000000000000018840000000000000000188408000000000030716430096MARCEL SRL                    000000000800008000000000000000000000000000000000000000000000000000000000000000000000000000000000000000000000000000145847PES00010000001000000000000000000000000
202011010010010300000000000000018841000000000000000188418000000000020143590535GIL MANUEL ANTONIO            000000000620003000000000000000000000000000000000000000000000000000000000000000000000000000000000000000000000000000113030PES00010000001000000000000000000000000
202011010010010300000000000000018842000000000000000188428000000000020256325129GARCIA NESTOR SERGIO          000000000270006000000000000000000000000000000000000000000000000000000000000000000000000000000000000000000000000000055075PES00010000001000000000000000000000000
202011010010010300000000000000018843000000000000000188438000000000030502755206SA RODRIGUEZ HERMANO          000000000040031000000000000000000000000000000000000000000000000000000000000000000000000000000000000000000000000000007298PES00010000001000000000000000000000000
202011010010010300000000000000018844000000000000000188448000000000030712262768BELCHEN SRL                   000000000360014000000000000000000000000000000000000000000000000000000000000000000000000000000000000000000000000000055590PES00010000001000000000000000000000000
202011010010010300000000000000018845000000000000000188458000000000030707695842ARIDOS DEL SALI SRL           000000000300024000000000000000000000000000000000000000000000000000000000000000000000000000000000000000000000000000046327PES00010000001000000000000000000000000
202011010010010300000000000000018846000000000000000188468000000000030710735537R.V INGENIERIA S.R.L          000000000130002000000000000000000000000000000000000000000000000000000000000000000000000000000000000000000000000000029775PES00010000001000000000000000000000000
202011010010010300000000000000018847000000000000000188478000000000030714590908INSITU S.R.L                  000000000720001000000000000000000000000000000000000000000000000000000000000000000000000000000000000000000000000000132195PES00010000001000000000000000000000000
202011010010010300000000000000018848000000000000000188488000000000027061842166SALIM JULIA                   000000000480030000000000000000000000000000000000000000000000000000000000000000000000000000000000000000000000000000074121PES00010000001000000000000000000000000
202011010010010300000000000000018849000000000000000188498000000000030685722069BIZKAITARRA SA                000000000330041000000000000000000000000000000000000000000000000000000000000000000000000000000000000000000000000000067321PES00010000001000000000000000000000000
202011010010010300000000000000018850000000000000000188508000000000030710430531TRANSPORTE EL TALA S          000000000500001000000000000000000000000000000000000000000000000000000000000000000000000000000000000000000000000000091154PES00010000001000000000000000000000000
202011010010010300000000000000018851000000000000000188518000000000027305044712MARIA BELEN GALLO             000000000249998000000000000000000000000000000000000000000000000000000000000000000000000000000000000000000000000000050993PES00010000001000000000000000000000000
202011010010010300000000000000018852000000000000000188528000000000020255410092LOPEZ JAVIER GUILLER          000000000309026000000000000000000000000000000000000000000000000000000000000000000000000000000000000000000000000000056338PES00010000001000000000000000000000000
202011010010010300000000000000018853000000000000000188538000000000020202740066HOFFMANN ECTOR                000000000469999000000000000000000000000000000000000000000000000000000000000000000000000000000000000000000000000000072572PES00010000001000000000000000000000000
202011010010010300000000000000018854000000000000000188548000000000030714076635COOP LA JUNTA DE VIL          000000000300028000000000000000000000000000000000000000000000000000000000000000000000000000000000000000000000000000068716PES00010000001000000000000000000000000
202011010010010300000000000000018855000000000000000188558000000000020177830888ARANDA EDUARDO ANTON          000000000149998000000000000000000000000000000000000000000000000000000000000000000000000000000000000000000000000000023161PES00010000001000000000000000000000000
202011010010010300000000000000018856000000000000000188568000000000027065529179MARTINEZ ZUCCARDI EM          000000000530010000000000000000000000000000000000000000000000000000000000000000000000000000000000000000000000000000081838PES00010000001000000000000000000000000
202011010010010300000000000000018857000000000000000188578000000000030709101354COSMOFLOR SA                  000000000269005000000000000000000000000000000000000000000000000000000000000000000000000000000000000000000000000000061611PES00010000001000000000000000000000000
202011010010010300000000000000018859000000000000000188598000000000030714516899AGRO ACONQUIJA S.R.L          000000000069997000000000000000000000000000000000000000000000000000000000000000000000000000000000000000000000000000016032PES00010000001000000000000000000000000
202011010010010300000000000000018860000000000000000188608000000000020179474124SERGIO BERMUDEZ               000000000572360000000000000000000000000000000000000000000000000000000000000000000000000000000000000000000000000000098766PES00010000001000000000000000000000000
202011010010010300000000000000018861000000000000000188618000000000020206302683TRUSARELLI CARLOS             000000000200000000000000000000000000000000000000000000000000000000000000000000000000000000000000000000000000000000030882PES00010000001000000000000000000000000
202011010010010300000000000000018862000000000000000188628000000000020259634629FERNANDEZ LUIS FERNA          000000000299999000000000000000000000000000000000000000000000000000000000000000000000000000000000000000000000000000054692PES00010000001000000000000000000000000
202011010010010300000000000000018863000000000000000188638000000000027261096116ACOSTA ELSA                   000000000309998000000000000000000000000000000000000000000000000000000000000000000000000000000000000000000000000000071000PES00010000001000000000000000000000000
202011010010010300000000000000018864000000000000000188648000000000020129186225GRANITO JOSE HUMBERT          000000000600005000000000000000000000000000000000000000000000000000000000000000000000000000000000000000000000000000109385PES00010000001000000000000000000000000
202011010010010400000000000000009541000000000000000095418000000000030564744952NEUMATICOS EL SOL SR          000000000710094000000000000000000000000000000000000000000000000000000000000000000000000000000000000000000000000000129455PES00010000001000000000000000000000000
202011010010010400000000000000009542000000000000000095428000000000020218944214ROJAS WALTER FABIAN           000000000250002000000000000000000000000000000000000000000000000000000000000000000000000000000000000000000000000000038602PES00010000001000000000000000000000000
202011010010010400000000000000009543000000000000000095438000000000020138614736PONCE DE LEON ANTONI          000000000700008000000000000000000000000000000000000000000000000000000000000000000000000000000000000000000000000000108088PES00010000001000000000000000000000000
202011010010010400000000000000009544000000000000000095448000000000020119182299JUAN FEDERICO TORRES          000000000400003000000000000000000000000000000000000000000000000000000000000000000000000000000000000000000000000000072923PES00010000001000000000000000000000000
202011010010010400000000000000009545000000000000000095458000000000030711173605RUISCAR SRL                   000000000147758000000000000000000000000000000000000000000000000000000000000000000000000000000000000000000000000000000000PES00010000001000000000000000000000000
202011010010010400000000000000009546000000000000000095468000000000020138611109PEREZ RAUL SALVADOR           000000003000013000000000000000000000000000000000000000000000000000000000000000000000000000000000000000000000000000546922PES00010000001000000000000000000000000
202011010010010400000000000000009547000000000000000095478000000000030714327638MADASA SRL                    000000000299999000000000000000000000000000000000000000000000000000000000000000000000000000000000000000000000000000054692PES00010000001000000000000000000000000
202011010010010400000000000000009548000000000000000095488000000000030708594128LOGISTICA Y DISTRIBU          000000001200003000000000000000000000000000000000000000000000000000000000000000000000000000000000000000000000000000218768PES00010000001000000000000000000000000
202011010010010400000000000000009549000000000000000095498000000000020161540898HERRERA RICARDO ALBE          000000001500010000000000000000000000000000000000000000000000000000000000000000000000000000000000000000000000000000273462PES00010000001000000000000000000000000
202011010010010400000000000000009550000000000000000095508000000000027130986361FERNANDEZ MARIA LUIS          000000001278438000000000000000000000000000000000000000000000000000000000000000000000000000000000000000000000000000226280PES00010000001000000000000000000000000
202011010010010400000000000000009551000000000000000095518000000000020135822907DANIEL PIRONI                 000000000510295000000000000000000000000000000000000000000000000000000000000000000000000000000000000000000000000000095905PES00010000001000000000000000000000000
202011010010010400000000000000009552000000000000000095528000000000020135822907DANIEL PIRONI                 000000000989997000000000000000000000000000000000000000000000000000000000000000000000000000000000000000000000000000186061PES00010000001000000000000000000000000
202011010010010400000000000000009553000000000000000095538000000000030715025570COLDDRY S.A                   000000000989997000000000000000000000000000000000000000000000000000000000000000000000000000000000000000000000000000186061PES00010000001000000000000000000000000
202011010010010400000000000000009554000000000000000095548000000000030715025570COLDDRY S.A                   000000000610001000000000000000000000000000000000000000000000000000000000000000000000000000000000000000000000000000114644PES00010000001000000000000000000000000
202011010010010400000000000000009555000000000000000095558000000000020172973044ROCHA DANTE OMAR              000000001500109000000000000000000000000000000000000000000000000000000000000000000000000000000000000000000000000000273480PES00010000001000000000000000000000000
202011010010010400000000000000009556000000000000000095568000000000023305865729BRANDALISSI GERARDO           000000001570018000000000000000000000000000000000000000000000000000000000000000000000000000000000000000000000000000286225PES00010000001000000000000000000000000
202011010010010400000000000000009557000000000000000095578000000000020311146298LO MONACO JUAN PABLO          000000001000002000000000000000000000000000000000000000000000000000000000000000000000000000000000000000000000000000182307PES00010000001000000000000000000000000
202011010010010500000000000000004740000000000000000047408000000000020257403689CHAYLE VICENTE SEBAS          000000000030002000000000000000000000000000000000000000000000000000000000000000000000000000000000000000000000000000000000PES00010000001000000000000000000000000
202011010010010500000000000000004741000000000000000047418000000000030695177239AGROPECUARIA MISTOL           000000000047501000000000000000000000000000000000000000000000000000000000000000000000000000000000000000000000000000000000PES00010000001000000000000000000000000
202011010010010500000000000000004742000000000000000047428000000000030708128410GRUPO DE ACQUITECTOS          000000000027502000000000000000000000000000000000000000000000000000000000000000000000000000000000000000000000000000000000PES00010000001000000000000000000000000
202011010010010500000000000000004743000000000000000047438000000000030709868639TECNO CAMPO SRL               000000000038398000000000000000000000000000000000000000000000000000000000000000000000000000000000000000000000000000000179PES00010000001000000000000000000000000
202011010010010500000000000000004744000000000000000047448000000000030707976957AGRO LAJITAS                  000000000022598000000000000000000000000000000000000000000000000000000000000000000000000000000000000000000000000000000000PES00010000001000000000000000000000000
202011010010010500000000000000004745000000000000000047458000000000020267835307GUERRERO FONIO MATIA          000000000026102000000000000000000000000000000000000000000000000000000000000000000000000000000000000000000000000000000058PES00010000001000000000000000000000000
202011010010010500000000000000004746000000000000000047468000000000030716847787KYT SAS                       000000000066003000000000000000000000000000000000000000000000000000000000000000000000000000000000000000000000000000000000PES00010000001000000000000000000000000
202011010010010500000000000000004747000000000000000047478000000000033697225639ARGENTI LEMON                 000000000048002000000000000000000000000000000000000000000000000000000000000000000000000000000000000000000000000000000000PES00010000001000000000000000000000000
202011010010010500000000000000004748000000000000000047488000000000030500875239SA AZUCARERA                  000000000019500000000000000198000000000000000000000000000000000000000000000000000000000000000000000000000000000000000000PES00010000002000000000000000000000000
202011010010010500000000000000004749000000000000000047498000000000030716663929UNIFRUTTI S.A                 000000000023602000000000000000000000000000000000000000000000000000000000000000000000000000000000000000000000000000000249PES00010000001000000000000000000000000
202011010010010500000000000000004750000000000000000047508000000000020110747625PEREZ JUAN LUIS               000000000019498000000000000000000000000000000000000000000000000000000000000000000000000000000000000000000000000000000000PES00010000001000000000000000000000000
202011010010010600000000000000001295000000000000000012958000000000030646328450SYNGENTA AGRO                 000000000155498000000000000000000000000000000000000000000000000000000000000000000000000000000000000000000000000000000290PES00010000001000000000000000000000000
202011010010010600000000000000001296000000000000000012968000000000020202850015COCIMANO BAUZA ALFRE          000000000058498000000000000000000000000000000000000000000000000000000000000000000000000000000000000000000000000000000355PES00010000001000000000000000000000000
202011010010010600000000000000001297000000000000000012978000000000030711714851SERVIFRUCTUS S.R.L            000000000179501000000000000000000000000000000000000000000000000000000000000000000000000000000000000000000000000000000000PES00010000001000000000000000000000000
202011010010010600000000000000001298000000000000000012988000000000030500875239SA AZUCARERA                  000000000076702000000000000000000000000000000000000000000000000000000000000000000000000000000000000000000000000000000000PES00010000001000000000000000000000000
202011010010010700000000000000000944000000000000000009448000000000027257855509PORRICIELO ARIANA MA          000000000925610000000000000000000000000000000000000000000000000000000000000000000000000000000000000000000000000000000000PES00010000001000000000000000000000000
202011010010011000000000000000001562000000000000000015628000000000030708707240LAS MILAS SRL                 000000000250002000000000000000000000000000000000000000000000000000000000000000000000000000000000000000000000000000038602PES00010000001000000000000000000000000
202011010010011000000000000000001563000000000000000015638000000000030708496827MARGESI S.A                   000000002519188000000000000000000000000000000000000000000000000000000000000000000000000000000000000000000000000000462499PES00010000001000000000000000000000000
202011010010011000000000000000001564000000000000000015648000000000030628029780DIEGO ZAMORA E HIJO           000000005030588000000000000000000000000000000000000000000000000000000000000000000000000000000000000000000000000000889305PES00010000001000000000000000000000000
202011010010011000000000000000001565000000000000000015658000000000030708513543TIERRA DE ARANDANOS           000000000570819000000000000000000000000000000000000000000000000000000000000000000000000000000000000000000000000000092282PES00010000001000000000000000000000000
202011010010011000000000000000001566000000000000000015668000000000030712992006TIERRA DE BERRIES S.          000000001585728000000000000000000000000000000000000000000000000000000000000000000000000000000000000000000000000000287894PES00010000001000000000000000000000000
202011010010011000000000000000001567000000000000000015678000000000030504726173ESTISOL SACIF                 000000000274253000000000000000000000000000000000000000000000000000000000000000000000000000000000000000000000000000040331PES00010000001000000000000000000000000
202011010010011000000000000000001568000000000000000015688000000000030658650242EDET                          000000000680531000000000000000000000000000000000000000000000000000000000000000000000000000000000000000000000000000114891PES00010000001000000000000000000000000
202011010010011000000000000000001569000000000000000015698000000000030658650242EDET                          000000000071298000000000000000000000000000000000000000000000000000000000000000000000000000000000000000000000000000000000PES00010000001000000000000000000000000
202011010010011000000000000000001570000000000000000015708000000000030716738538GRUPO CITREA SA               000000000282027000000000000000000000000000000000000000000000000000000000000000000000000000000000000000000000000000061519PES00010000001000000000000000000000000
202011010010011000000000000000001571000000000000000015718000000000030708067837AGRICOLA DE LEALES S          000000001098204000000000000000000000000000000000000000000000000000000000000000000000000000000000000000000000000000167881PES00010000001000000000000000000000000
202011010010011000000000000000001572000000000000000015728000000000033708668759ACHERAL S.A                   000000002482410000000000000000000000000000000000000000000000000000000000000000000000000000000000000000000000000000452560PES00010000001000000000000000000000000
202011010060010100000000000000019623000000000000000196289600000000000012345678Consumidor Final              000000000391622000000000000000000000000000000000000000000000000000000000000000000000000000000000000000000000000000047268PES00010000001000000000000000000000000
202011010060010100000000000000019629000000000000000196298000000000030546679183INTA FAMAILLA                 000000000099996000000000000000000000000000000000000000000000000000000000000000000000000000000000000000000000000000015440PES00010000001000000000000000000000000
202011010060010100000000000000019630000000000000000196499600000000000012345678Consumidor Final              000000002184872000000000000000000000000000000000000000000000000000000000000000000000000000000000000000000000000000348380PES00010000001000000000000000000000000
202011010060010200000000000000034473000000000000000344759600000000000012345678Consumidor Final              000000000629997000000000000000000000000000000000000000000000000000000000000000000000000000000000000000000000000000114387PES00010000001000000000000000000000000
202011010060010200000000000000034476000000000000000344768000000000030711190194EDICIONES ALFA S.R.L          000000000099996000000000000000000000000000000000000000000000000000000000000000000000000000000000000000000000000000015440PES00010000001000000000000000000000000
202011010060010200000000000000034477000000000000000344879600000000000012345678Consumidor Final              000000001385121000000000000000000000000000000000000000000000000000000000000000000000000000000000000000000000000000270239PES00010000001000000000000000000000000
202011010060010200000000000000034488000000000000000344888000000000030675428081SECRETARIA DE MIPIME          000000000099996000000000000000000000000000000000000000000000000000000000000000000000000000000000000000000000000000015440PES00010000001000000000000000000000000
202011010060010200000000000000034489000000000000000344989600000000000012345678Consumidor Final              000000001501727000000000000000000000000000000000000000000000000000000000000000000000000000000000000000000000000000324720PES00010000001000000000000000000000000
202011010060010200000000000000034499000000000000000344998000000000030546679183INTA FAMAILLA                 000000000300001000000000000000000000000000000000000000000000000000000000000000000000000000000000000000000000000000061193PES00010000001000000000000000000000000
202011010060010200000000000000034500000000000000000345049600000000000012345678Consumidor Final              000000000840068000000000000000000000000000000000000000000000000000000000000000000000000000000000000000000000000000172857PES00010000001000000000000000000000000
202011010060010300000000000000026320000000000000000263349600000000000012345678Consumidor Final              000000003372774000000000000000000000000000000000000000000000000000000000000000000000000000000000000000000000000000676180PES00010000001000000000000000000000000
202011010060010300000000000000026335000000000000000263358000000000030679951382UPCN SEC TUCUMAN              000000000299996000000000000000000000000000000000000000000000000000000000000000000000000000000000000000000000000000046322PES00010000001000000000000000000000000
202011010060010300000000000000026336000000000000000263409600000000000012345678Consumidor Final              000000000869988000000000000000000000000000000000000000000000000000000000000000000000000000000000000000000000000000170049PES00010000001000000000000000000000000
202011010060010300000000000000026341000000000000000263418000000000030546679183INTA FAMAILLA                 000000000219994000000000000000000000000000000000000000000000000000000000000000000000000000000000000000000000000000050387PES00010000001000000000000000000000000
202011010060010300000000000000026342000000000000000263459600000000000012345678Consumidor Final              000000000678105000000000000000000000000000000000000000000000000000000000000000000000000000000000000000000000000000128690PES00010000001000000000000000000000000
202011010060010300000000000000026346000000000000000263468000000000030675245815MUNICIPALIDAD DE CON          000000000130040000000000000000000000000000000000000000000000000000000000000000000000000000000000000000000000000000020080PES00010000001000000000000000000000000
202011010060010300000000000000026347000000000000000263499600000000000012345678Consumidor Final              000000000361022000000000000000000000000000000000000000000000000000000000000000000000000000000000000000000000000000075583PES00010000001000000000000000000000000
202011010060010300000000000000026350000000000000000263508000000000030675428081SUPERIOR GOBIERNO DE          000000000200000000000000000000000000000000000000000000000000000000000000000000000000000000000000000000000000000000030882PES00010000001000000000000000000000000
202011010060010300000000000000026351000000000000000263579600000000000012345678Consumidor Final              000000000996020000000000000000000000000000000000000000000000000000000000000000000000000000000000000000000000000000184415PES00010000001000000000000000000000000
202011010060010400000000000000002565000000000000000025659600000000000012345678Consumidor Final              000000000129999000000000000000000000000000000000000000000000000000000000000000000000000000000000000000000000000000020072PES00010000001000000000000000000000000
202011010060010500000000000000087233000000000000000874129600000000000012345678Consumidor Final              000000003992770000000000043098000000000000000000000000000000000000000000000000000000000000000000000000000000000000302387PES00010000002000000000000000000000000
202011010060010500000000000000087413000000000000000874138000000000030675245815MUNICIPALIDAD DE CON          000000000025099000000000000000000000000000000000000000000000000000000000000000000000000000000000000000000000000000000334PES00010000001000000000000000000000000
202011010060010500000000000000087414000000000000000874499600000000000012345678Consumidor Final              000000000830800000000000003497000000000000000000000000000000000000000000000000000000000000000000000000000000000000028795PES00010000001000000000000000000000000
202011010060010600000000000000013779000000000000000137969600000000000012345678Consumidor Final              000000000441500000000000002000000000000000000000000000000000000000000000000000000000000000000000000000000000000000043036PES00010000001000000000000000000000000
202011010060010700000000000000001971000000000000000019759600000000000012345678Consumidor Final              000000001469775000000000000000000000000000000000000000000000000000000000000000000000000000000000000000000000000000000000PES00010000001000000000000000000000000
202011010820010600000000000000025230000000000000000252559600000000000012345678Consumidor Final              000000000601168000000000000000000000000000000000000000000000000000000000000000000000000000000000000000000000000000000000PES00010000001000000000000000000000000
202011010010010100000000000000013802000000000000000138028000000000020143590535GIL MANUEL ANTONIO            000000000620003000000000000000000000000000000000000000000000000000000000000000000000000000000000000000000000000000113030PES00010000001000000000000000000000000
202011010010010100000000000000013803000000000000000138038000000000027258440450GARZON ELIANA                 000000000022001000000000000000000000000000000000000000000000000000000000000000000000000000000000000000000000000000000227PES00010000001000000000000000000000000
202011010010010100000000000000013804000000000000000138048000000000027258440450GARZON ELIANA                 000000000069997000000000000000000000000000000000000000000000000000000000000000000000000000000000000000000000000000016032PES00010000001000000000000000000000000
202011010010010100000000000000013805000000000000000138058000000000020224292016FIGUEROA OSVALDO REN          000000000019999000000000000000000000000000000000000000000000000000000000000000000000000000000000000000000000000000000207PES00010000001000000000000000000000000
202011010010010100000000000000013806000000000000000138068000000000030712293507DEVELOPERS S.A                000000000120012000000000000000000000000000000000000000000000000000000000000000000000000000000000000000000000000000024480PES00010000001000000000000000000000000
202011010010010100000000000000013807000000000000000138078000000000020083502003TORRES OMAR ERNESTO           000000000027003000000000000000000000000000000000000000000000000000000000000000000000000000000000000000000000000000000279PES00010000001000000000000000000000000
202011010010010100000000000000013808000000000000000138088000000000030710735537R.V INGENIERIA S.R.L          000000000014998000000000000000000000000000000000000000000000000000000000000000000000000000000000000000000000000000000155PES00010000001000000000000000000000000
202011010010010100000000000000013809000000000000000138098000000000030592845845CETROGAR S.A                  000000000059999000000000000000000000000000000000000000000000000000000000000000000000000000000000000000000000000000013741PES00010000001000000000000000000000000
202011010010010100000000000000013810000000000000000138108000000000020105534354AGUERO RAMON BENITO           000000000200000000000000000000000000000000000000000000000000000000000000000000000000000000000000000000000000000000030882PES00010000001000000000000000000000000
202011010010010100000000000000013811000000000000000138118000000000030714126721ABC DISTRIBUCIONES            000000000034001000000000000000000000000000000000000000000000000000000000000000000000000000000000000000000000000000000351PES00010000001000000000000000000000000
202011010010010100000000000000013812000000000000000138128000000000020250477326HERRERA FELIX DARIO           000000000140161000000000000000000000000000000000000000000000000000000000000000000000000000000000000000000000000000032102PES00010000001000000000000000000000000
202011010010010100000000000000013813000000000000000138138000000000020432039952VILLAGRA RUBEN DARIO          000000000110027000000000000000000000000000000000000000000000000000000000000000000000000000000000000000000000000000025200PES00010000001000000000000000000000000
202011010010010100000000000000013814000000000000000138148000000000030708668733REFRES NOW SA                 000000000220053000000000000000000000000000000000000000000000000000000000000000000000000000000000000000000000000000044885PES00010000001000000000000000000000000
202011010010010100000000000000013815000000000000000138158000000000030714679240ENERGY LINK S.A               000000000200000000000000000000000000000000000000000000000000000000000000000000000000000000000000000000000000000000030882PES00010000001000000000000000000000000
202011010010010100000000000000013816000000000000000138168000000000030711668116MC KREDIT S.R.L EN F          000000000022001000000000000000000000000000000000000000000000000000000000000000000000000000000000000000000000000000000227PES00010000001000000000000000000000000
202011010010010100000000000000013817000000000000000138178000000000033681246989TECNOGRAF                     000000000250002000000000000000000000000000000000000000000000000000000000000000000000000000000000000000000000000000038602PES00010000001000000000000000000000000
202011010010010100000000000000013818000000000000000138188000000000033681246989TECNOGRAF                     000000000029149000000000000000000000000000000000000000000000000000000000000000000000000000000000000000000000000000000000PES00010000001000000000000000000000000
202011010010010100000000000000013819000000000000000138198000000000030707184104COOP DE TRABAJO EL P          000000000149999000000000000000000000000000000000000000000000000000000000000000000000000000000000000000000000000000033683PES00010000001000000000000000000000000
202011010010010100000000000000013820000000000000000138208000000000030521797904COOPERATIVA CAMPO DE          000000000350004000000000000000000000000000000000000000000000000000000000000000000000000000000000000000000000000000063960PES00010000001000000000000000000000000
202011010010010100000000000000013821000000000000000138218000000000023131665679MOYANO OSCAR                  000000000249998000000000000000000000000000000000000000000000000000000000000000000000000000000000000000000000000000037845PES00010000001000000000000000000000000
202011010010010100000000000000013822000000000000000138228000000000020257403689CHAYLE VICENTE SEBAS          000000000062000000000000000000000000000000000000000000000000000000000000000000000000000000000000000000000000000000000641PES00010000001000000000000000000000000
202011010010010100000000000000013823000000000000000138238000000000020178362578COSTA HECTOR                  000000000079997000000000000000000000000000000000000000000000000000000000000000000000000000000000000000000000000000012110PES00010000001000000000000000000000000
202011010010010100000000000000013824000000000000000138248000000000030711523274MIXER SA                      000000000030123000000000000000000000000000000000000000000000000000000000000000000000000000000000000000000000000000000311PES00010000001000000000000000000000000
202011010010010100000000000000013825000000000000000138258000000000030709101354COSMOFLOR SA                  000000000180040000000000000000000000000000000000000000000000000000000000000000000000000000000000000000000000000000040429PES00010000001000000000000000000000000
202011010010010100000000000000013826000000000000000138268000000000030571438247BIOFARMA S.A                  000000000444695000000000000000000000000000000000000000000000000000000000000000000000000000000000000000000000000000067319PES00010000001000000000000000000000000
202011010010010100000000000000013827000000000000000138278000000000020109500829PABLO GOLDMAN                 000000000300077000000000000000000000000000000000000000000000000000000000000000000000000000000000000000000000000000060007PES00010000001000000000000000000000000
202011010010010100000000000000013828000000000000000138288000000000020224292016FIGUEROA OSVALDO REN          000000000025367000000000000000000000000000000000000000000000000000000000000000000000000000000000000000000000000000000262PES00010000001000000000000000000000000
202011010010010100000000000000013829000000000000000138298000000000030709545910FINCAS GREYCO SRL             000000000039002000000000000000000000000000000000000000000000000000000000000000000000000000000000000000000000000000000403PES00010000001000000000000000000000000
202011010010010100000000000000013830000000000000000138308000000000027065529179MARTINEZ ZUCCARDI EM          000000000420116000000000000000000000000000000000000000000000000000000000000000000000000000000000000000000000000000063598PES00010000001000000000000000000000000
202011010010010100000000000000013831000000000000000138318000000000030715960059ZMG ARGENTINA NOA SR          000000000032999000000000000000000000000000000000000000000000000000000000000000000000000000000000000000000000000000000341PES00010000001000000000000000000000000
202011010010010100000000000000013832000000000000000138328000000000020110289600NARVAEZ TRISTAN DEME          000000000990006000000000000000000000000000000000000000000000000000000000000000000000000000000000000000000000000000176949PES00010000001000000000000000000000000
202011010010010100000000000000013833000000000000000138338000000000030592845845CETROGAR S.A                  000000000060000000000000000000000000000000000000000000000000000000000000000000000000000000000000000000000000000000013473PES00010000001000000000000000000000000
202011010010010100000000000000013834000000000000000138348000000000030710735537R.V INGENIERIA S.R.L          000000000015423000000000000000000000000000000000000000000000000000000000000000000000000000000000000000000000000000000159PES00010000001000000000000000000000000
202011010010010100000000000000013835000000000000000138358000000000030710606826ASB TECHNOLOGIES S.R          000000000029998000000000000000000000000000000000000000000000000000000000000000000000000000000000000000000000000000004542PES00010000001000000000000000000000000
202011010010010100000000000000013836000000000000000138368000000000020213280725CARLOS TAMER                  000000000319995000000000000000000000000000000000000000000000000000000000000000000000000000000000000000000000000000057195PES00010000001000000000000000000000000
202011010010010100000000000000013837000000000000000138378000000000027297070806HERNANDEZ INES                000000000099997000000000000000000000000000000000000000000000000000000000000000000000000000000000000000000000000000017873PES00010000001000000000000000000000000
202011010010010100000000000000013838000000000000000138388000000000030604438256HYTSA ESTUDIOS Y ROY          000000000100001000000000000000000000000000000000000000000000000000000000000000000000000000000000000000000000000000019997PES00010000001000000000000000000000000
202011010010010100000000000000013839000000000000000138398000000000030715237756SIMELA SRL                    000000000399998000000000000000000000000000000000000000000000000000000000000000000000000000000000000000000000000000060553PES00010000001000000000000000000000000
202011010010010100000000000000013840000000000000000138408000000000030667130871FIYING S.R.L                  000000001153891000000000000000000000000000000000000000000000000000000000000000000000000000000000000000000000000000176949PES00010000001000000000000000000000000
202011010010010200000000000000021330000000000000000213308000000000020138487823PALACIOS JORGE EDUAR          000000000150046000000000000000000000000000000000000000000000000000000000000000000000000000000000000000000000000000023169PES00010000001000000000000000000000000
202011010010010200000000000000021331000000000000000213318000000000030716035006SANTILLAN HERMANOS D          000000000400003000000000000000000000000000000000000000000000000000000000000000000000000000000000000000000000000000072923PES00010000001000000000000000000000000
202011010010010200000000000000021332000000000000000213328000000000030710996586SMW AGRO S.R.L                000000000430001000000000000000000000000000000000000000000000000000000000000000000000000000000000000000000000000000066396PES00010000001000000000000000000000000
202011010010010200000000000000021333000000000000000213338000000000020134760029BOUHIER NORBERTO              000000000299996000000000000000000000000000000000000000000000000000000000000000000000000000000000000000000000000000046322PES00010000001000000000000000000000000
202011010010010200000000000000021334000000000000000213348000000000030521797904COOPERATIVA CAMPO DE          000000000030002000000000000000000000000000000000000000000000000000000000000000000000000000000000000000000000000000006119PES00010000001000000000000000000000000
202011010010010200000000000000021335000000000000000213358000000000030709702390YABITEL S.A                   000000000200001000000000000000000000000000000000000000000000000000000000000000000000000000000000000000000000000000045807PES00010000001000000000000000000000000
202011010010010200000000000000021336000000000000000213368000000000030710735537R.V INGENIERIA S.R.L          000000000099997000000000000000000000000000000000000000000000000000000000000000000000000000000000000000000000000000022903PES00010000001000000000000000000000000
202011010010010200000000000000021337000000000000000213378000000000030715560379SOTO HNOS OBRA Y SER          000000000099997000000000000000000000000000000000000000000000000000000000000000000000000000000000000000000000000000018230PES00010000001000000000000000000000000
202011010010010200000000000000021338000000000000000213388000000000033528305909MOLINO FLORENCIA              000000000320036000000000000000000000000000000000000000000000000000000000000000000000000000000000000000000000000000073300PES00010000001000000000000000000000000
202011010010010200000000000000021339000000000000000213398000000000020202198660MARCELO MIGUEL NAVAR          000000000099997000000000000000000000000000000000000000000000000000000000000000000000000000000000000000000000000000018230PES00010000001000000000000000000000000
202011010010010200000000000000021340000000000000000213408000000000020147543280GARDELLA JUAN CARLOS          000000000312933000000000000000000000000000000000000000000000000000000000000000000000000000000000000000000000000000070270PES00010000001000000000000000000000000
202011010010010200000000000000021341000000000000000213418000000000020218678476CAVALLO ELIO RAUL             000000000200000000000000000000000000000000000000000000000000000000000000000000000000000000000000000000000000000000030277PES00010000001000000000000000000000000
202011010010010200000000000000021342000000000000000213428000000000030709195251LA CELINA SRL                 000000000049999000000000000000000000000000000000000000000000000000000000000000000000000000000000000000000000000000011227PES00010000001000000000000000000000000
202011010010010200000000000000021343000000000000000213438000000000020276515706SPIESS PABLO OTTO             000000000306001000000000000000000000000000000000000000000000000000000000000000000000000000000000000000000000000000046323PES00010000001000000000000000000000000
202011010010010200000000000000021344000000000000000213448000000000020177525406METALURGICA SP                000000000100000000000000000000000000000000000000000000000000000000000000000000000000000000000000000000000000000000019996PES00010000001000000000000000000000000
202011010010010200000000000000021345000000000000000213458000000000030657865725GASNOR SA                     000000000011394000000000000000000000000000000000000000000000000000000000000000000000000000000000000000000000000000000118PES00010000001000000000000000000000000
202011010010010200000000000000021346000000000000000213468000000000030715400630TSA ARGENTINA                 000000000470021000000000000000000000000000000000000000000000000000000000000000000000000000000000000000000000000000071154PES00010000001000000000000000000000000
202011010010010200000000000000021347000000000000000213478000000000030712125493FADUA TUCUMAN SA              000000000099999000000000000000000000000000000000000000000000000000000000000000000000000000000000000000000000000000022455PES00010000001000000000000000000000000
202011010010010200000000000000021348000000000000000213488000000000030707564438FRUTUCUMAN SA                 000000000120001000000000000000000000000000000000000000000000000000000000000000000000000000000000000000000000000000026947PES00010000001000000000000000000000000
202011010010010200000000000000021349000000000000000213498000000000020314684827QUISPE ARIEL ALBERTO          000000000018002000000000000000000000000000000000000000000000000000000000000000000000000000000000000000000000000000000186PES00010000001000000000000000000000000
202011010010010200000000000000021350000000000000000213508000000000030708544678PEDROTTI SRL                  000000000155024000000000000000000000000000000000000000000000000000000000000000000000000000000000000000000000000000023468PES00010000001000000000000000000000000
202011010010010200000000000000021351000000000000000213518000000000020203702249LUNA FABIAN ALFREDO           000000000510026000000000000000000000000000000000000000000000000000000000000000000000000000000000000000000000000000077209PES00010000001000000000000000000000000
202011010010010200000000000000021352000000000000000213528000000000030710089899AISLACIONES Y SERVIC          000000000446468000000000000000000000000000000000000000000000000000000000000000000000000000000000000000000000000000067588PES00010000001000000000000000000000000
202011010010010200000000000000021353000000000000000213538000000000020080366796SASSI COLOMBRES JORG          000000001100019000000000000000000000000000000000000000000000000000000000000000000000000000000000000000000000000000188134PES00010000001000000000000000000000000
202011010010010200000000000000021354000000000000000213548000000000020184635888VENDITTI ARMANDO              000000000299999000000000000000000000000000000000000000000000000000000000000000000000000000000000000000000000000000045415PES00010000001000000000000000000000000
202011010010010200000000000000021355000000000000000213558000000000030710735537R.V INGENIERIA S.R.L          000000000050000000000000000000000000000000000000000000000000000000000000000000000000000000000000000000000000000000011227PES00010000001000000000000000000000000
202011010010010200000000000000021356000000000000000213568000000000020123366027MENORQUE HECTOR DANT          000000000099999000000000000000000000000000000000000000000000000000000000000000000000000000000000000000000000000000022455PES00010000001000000000000000000000000
202011010010010200000000000000021357000000000000000213578000000000020239087591ROMERO GUSTAVO ARIEL          000000000299999000000000000000000000000000000000000000000000000000000000000000000000000000000000000000000000000000045415PES00010000001000000000000000000000000
