2020081400100110000000000000000012610000000000000000126180000000030-50454932-8INGECO S.A.                   000000164375480-00000000000106000000000000000000000000000000000000000000000000000000000000000000000000000000000029448970PES00010000001000000000000000000000000
202008270060010500000000000000073595000000000000000735959600000000000012345678Consumidor Final              000000005390011000000000014302000000000000000000000000000000000000000000000000000000000000000000000000000000000000379598PES00010000002000000000000000000000000
2020082800100110000000000000000013170000000000000000131780000000030-71042329-2TRANSPORTADORA MINER          000000144975000-00000000000105000000000000000000000000000000000000000000000000000000000000000000000000000000000026237500PES00010000001000000000000000000000000
202008070060010500000000000000069265000000000000000694679600000000000012345678Consumidor Final              000000005396855000000000030202000000000000000000000000000000000000000000000000000000000000000000000000000000000000327804PES00010000002000000000000000000000000
202008100060010500000000000000069802000000000000000699849600000000000012345678Consumidor Final              000000004375961000000000028102000000000000000000000000000000000000000000000000000000000000000000000000000000000000463080PES00010000002000000000000000000000000
202008120060010500000000000000070222000000000000000703619600000000000012345678Consumidor Final              000000002878861000000000005199000000000000000000000000000000000000000000000000000000000000000000000000000000000000219936PES00010000002000000000000000000000000
202008120060010500000000000000070363000000000000000704369600000000000012345678Consumidor Final              000000001816500000000000004700000000000000000000000000000000000000000000000000000000000000000000000000000000000000198052PES00010000002000000000000000000000000
2020080400100101000000000000000115400000000000000001154080000000023-25857388-9HAEL JUAN ESTEBAN             000000000250072000000000000000000000000000000000000000000000000000000000000000000000000000000000000000000000000000059082PES00010000001000000000000000000000000
2020081900100101000000000000000000020000000000000000000280000000030-71625631-2RP CONSTRUCCIONES SR          000000000019999000000000000000000000000000000000000000000000000000000000000000000000000000000000000000000000000000002805PES00010000001000000000000000000000000
2020080100100101000000000000000114850000000000000001148580000000033-71475742-9NOBEN SRL                     000000000033003000000000000000000000000000000000000000000000000000000000000000000000000000000000000000000000000000000396PES00010000001000000000000000000000000
2020080100100101000000000000000114860000000000000001148680000000027-26109611-6ACOSTA ELSA                   000000000300005000000000000000000000000000000000000000000000000000000000000000000000000000000000000000000000000000043940PES00010000001000000000000000000000000
2020080100100101000000000000000114870000000000000001148780000000027-11031830-3SALAZAR ESTELA DEL V          000000000100000000000000000000000000000000000000000000000000000000000000000000000000000000000000000000000000000000023626PES00010000001000000000000000000000000
2020080100100101000000000000000114880000000000000001148880000000030-68564638-9VITRASERV SRL                 000000000149999000000000000000000000000000000000000000000000000000000000000000000000000000000000000000000000000000021969PES00010000001000000000000000000000000
2020080100100101000000000000000114890000000000000001148980000000020-05396998-5MORALES MARIO RUFINO          000000000200002000000000000000000000000000000000000000000000000000000000000000000000000000000000000000000000000000029294PES00010000001000000000000000000000000
2020080100100101000000000000000114900000000000000001149080000000030-71401434-6NORTE DISTRIBUCIONES          000000000300005000000000000000000000000000000000000000000000000000000000000000000000000000000000000000000000000000043940PES00010000001000000000000000000000000
2020080100100101000000000000000114910000000000000001149180000000020-08246747-6RODRIGUEZ JOSE RAMON          000000000200002000000000000000000000000000000000000000000000000000000000000000000000000000000000000000000000000000029294PES00010000001000000000000000000000000
2020080100100101000000000000000114920000000000000001149280000000030-71478213-0S.B.CONSTRUCCIONES S          000000000200002000000000000000000000000000000000000000000000000000000000000000000000000000000000000000000000000000029294PES00010000001000000000000000000000000
2020080100100101000000000000000114930000000000000001149380000000030-71595013-4EL TUCUMANITO BUS SA          000000000260217000000000000000000000000000000000000000000000000000000000000000000000000000000000000000000000000000038112PES00010000001000000000000000000000000
2020080100100101000000000000000114940000000000000001149480000000030-67525102-5BIO TUC SRL                   000000000468007000000000000000000000000000000000000000000000000000000000000000000000000000000000000000000000000000068546PES00010000001000000000000000000000000
2020080100100101000000000000000114950000000000000001149580000000020-20898576-1PABLO ROBIN                   000000000099997000000000000000000000000000000000000000000000000000000000000000000000000000000000000000000000000000014646PES00010000001000000000000000000000000
2020080100100101000000000000000114960000000000000001149680000000030-65786572-5GASNOR SA                     000000000025001000000000000000000000000000000000000000000000000000000000000000000000000000000000000000000000000000000300PES00010000001000000000000000000000000
2020080100100101000000000000000114970000000000000001149780000000030-71050281-8KILOMETRO 14 SRL              000000000100000000000000000000000000000000000000000000000000000000000000000000000000000000000000000000000000000000023626PES00010000001000000000000000000000000
2020080100100101000000000000000114980000000000000001149880000000020-22429201-6FIGUEROA OSVALDO REN          000000000025001000000000000000000000000000000000000000000000000000000000000000000000000000000000000000000000000000000300PES00010000001000000000000000000000000
2020080100100101000000000000000114990000000000000001149980000000030-71643383-43 Y AGROSERVICIOS SR          000000000480044000000000000000000000000000000000000000000000000000000000000000000000000000000000000000000000000000070309PES00010000001000000000000000000000000
2020080100100101000000000000000115000000000000000001150080000000024-32281429-8GUSTAVO CASTILLO              000000000480008000000000000000000000000000000000000000000000000000000000000000000000000000000000000000000000000000101145PES00010000001000000000000000000000000
2020080100100101000000000000000115010000000000000001150180000000020-34132864-1GONZALO MARTIN ERAZZ          000000000199999000000000000000000000000000000000000000000000000000000000000000000000000000000000000000000000000000047251PES00010000001000000000000000000000000
2020080200100101000000000000000115020000000000000001150280000000030-71073553-7R.V INGENIERIA S.R.L          000000000021806000000000000000000000000000000000000000000000000000000000000000000000000000000000000000000000000000000262PES00010000001000000000000000000000000
2020080200100101000000000000000115030000000000000001150380000000020-13006802-3JUAN VALDEZ                   000000000012999000000000000000000000000000000000000000000000000000000000000000000000000000000000000000000000000000000156PES00010000001000000000000000000000000
2020080200100101000000000000000115040000000000000001150480000000027-25785550-9PORRICIELO ARIANA MA          000000000409028000000000000000000000000000000000000000000000000000000000000000000000000000000000000000000000000000059908PES00010000001000000000000000000000000
2020080200100101000000000000000115050000000000000001150580000000020-12257853-5RAMON EDUARDO ALBORN          000000000149999000000000000000000000000000000000000000000000000000000000000000000000000000000000000000000000000000021969PES00010000001000000000000000000000000
2020080200100101000000000000000115060000000000000001150680000000027-31001891-6ARGOTA CLAUDIA                000000000050003000000000000000000000000000000000000000000000000000000000000000000000000000000000000000000000000000011813PES00010000001000000000000000000000000
2020080200100101000000000000000115070000000000000001150780000000020-25740090-6ROLDAN RUBEN EDUARDO          000000000049997000000000000000000000000000000000000000000000000000000000000000000000000000000000000000000000000000008465PES00010000001000000000000000000000000
2020080200100101000000000000000115080000000000000001150880000000020-27751095-3IBANEZ CLAUDIO LEONA          000000000021036000000000000000000000000000000000000000000000000000000000000000000000000000000000000000000000000000000253PES00010000001000000000000000000000000
2020080200100101000000000000000115090000000000000001150980000000030-67537901-3CORRESNOA                     000000000030026000000000000000000000000000000000000000000000000000000000000000000000000000000000000000000000000000007094PES00010000001000000000000000000000000
2020080300100101000000000000000115100000000000000001151080000000020-29103073-5MEDINA JOSE ROLANDO           000000000300490000000000000000000000000000000000000000000000000000000000000000000000000000000000000000000000000000038087PES00010000001000000000000000000000000
2020080300100101000000000000000115110000000000000001151180000000020-28954225-7GOMEZ ANGEL ARIEL             000000000015000000000000000000000000000000000000000000000000000000000000000000000000000000000000000000000000000000000180PES00010000001000000000000000000000000
2020080300100101000000000000000115120000000000000001151280000000020-16091138-8YSA VICTOR HUGO               000000000200002000000000000000000000000000000000000000000000000000000000000000000000000000000000000000000000000000029294PES00010000001000000000000000000000000
2020080300100101000000000000000115130000000000000001151380000000030-71638365-9LOS CARDOS SAS                000000000130024000000000000000000000000000000000000000000000000000000000000000000000000000000000000000000000000000019044PES00010000001000000000000000000000000
2020080300100101000000000000000115140000000000000001151480000000020-27722011-4PEREZ PEDRO JOSE              000000000185681000000000000000000000000000000000000000000000000000000000000000000000000000000000000000000000000000043869PES00010000001000000000000000000000000
2020080300100101000000000000000115150000000000000001151580000000020-37658174-9LAZARTE JUAN IGNACIO          000000000059998000000000000000000000000000000000000000000000000000000000000000000000000000000000000000000000000000014174PES00010000001000000000000000000000000
2020080300100101000000000000000115160000000000000001151680000000030-71451689-9AGRO ACONQUIJA S.R.L          000000000023001000000000000000000000000000000000000000000000000000000000000000000000000000000000000000000000000000000276PES00010000001000000000000000000000000
2020080300100101000000000000000115170000000000000001151780000000027-25785550-9PORRICIELLO ARIANA M          000000000350000000000000000000000000000000000000000000000000000000000000000000000000000000000000000000000000000000051263PES00010000001000000000000000000000000
2020080300100101000000000000000115180000000000000001151880000000020-11031739-6MOLINA CARLOS ANTONI          000000000050003000000000000000000000000000000000000000000000000000000000000000000000000000000000000000000000000000011813PES00010000001000000000000000000000000
2020080300100101000000000000000115190000000000000001151980000000030-71152327-4MIXER SA                      000000000026646000000000000000000000000000000000000000000000000000000000000000000000000000000000000000000000000000000320PES00010000001000000000000000000000000
2020080300100101000000000000000115200000000000000001152080000000020-35519461-3CISTERNA MARTIN NAHU          000000000032000000000000000000000000000000000000000000000000000000000000000000000000000000000000000000000000000000000384PES00010000001000000000000000000000000
2020080300100101000000000000000115210000000000000001152180000000030-52179790-4COOPERATIVA CAMPO DE          000000000038199000000000000000000000000000000000000000000000000000000000000000000000000000000000000000000000000000000459PES00010000001000000000000000000000000
2020080300100101000000000000000115220000000000000001152280000000020-17526448-6AGUERA JUAN ANTONIO           000000000012999000000000000000000000000000000000000000000000000000000000000000000000000000000000000000000000000000000156PES00010000001000000000000000000000000
2020080300100101000000000000000115230000000000000001152380000000020-17526448-6AGUERA JUAN ANTONIO           000000000015000000000000000000000000000000000000000000000000000000000000000000000000000000000000000000000000000000000180PES00010000001000000000000000000000000
2020080300100101000000000000000115240000000000000001152480000000023-33375394-4SONIA CARDOZO                 000000000200002000000000000000000000000000000000000000000000000000000000000000000000000000000000000000000000000000042143PES00010000001000000000000000000000000
2020080300100101000000000000000115250000000000000001152580000000033-71475742-9NOBEN SRL                     000000000032000000000000000000000000000000000000000000000000000000000000000000000000000000000000000000000000000000000384PES00010000001000000000000000000000000
2020080300100101000000000000000115260000000000000001152680000000020-20160562-9ARGANARAZ SERGIO EMI          000000000500005000000000000000000000000000000000000000000000000000000000000000000000000000000000000000000000000000084652PES00010000001000000000000000000000000
2020080300100101000000000000000115270000000000000001152780000000030-64969536-5ROSSO HNOS SA                 000000000031259000000000000000000000000000000000000000000000000000000000000000000000000000000000000000000000000000000375PES00010000001000000000000000000000000
2020080400100101000000000000000115280000000000000001152880000000027-25844045-0GARZON ELIANA                 000000000015000000000000000000000000000000000000000000000000000000000000000000000000000000000000000000000000000000000180PES00010000001000000000000000000000000
2020080400100101000000000000000115290000000000000001152980000000030-67528651-1EYPO S.R.L                    000000000049997000000000000000000000000000000000000000000000000000000000000000000000000000000000000000000000000000008465PES00010000001000000000000000000000000
2020080400100101000000000000000115300000000000000001153080000000030-71172981-6CEDELA S.A.                   000000000149999000000000000000000000000000000000000000000000000000000000000000000000000000000000000000000000000000021969PES00010000001000000000000000000000000
2020080400100101000000000000000115310000000000000001153180000000030-57807197-7ROSARIO AGRO INDUSTR          000000000260021000000000000000000000000000000000000000000000000000000000000000000000000000000000000000000000000000061432PES00010000001000000000000000000000000
2020080400100101000000000000000115320000000000000001153280000000020-27944884-8GALVEZ RODRIGO                000000000021001000000000000000000000000000000000000000000000000000000000000000000000000000000000000000000000000000000252PES00010000001000000000000000000000000
2020080400100101000000000000000115330000000000000001153380000000033-71194234-9CONCISA SRL                   000000000220019000000000000000000000000000000000000000000000000000000000000000000000000000000000000000000000000000037250PES00010000001000000000000000000000000
2020080400100101000000000000000115340000000000000001153480000000020-20285001-5COCIMANO BAUZA ALFRE          000000001035155000000000000000000000000000000000000000000000000000000000000000000000000000000000000000000000000000151613PES00010000001000000000000000000000000
2020080400100101000000000000000115350000000000000001153580000000020-28954225-7GOMEZ ANGEL ARIEL             000000000014002000000000000000000000000000000000000000000000000000000000000000000000000000000000000000000000000000000168PES00010000001000000000000000000000000
2020080400100101000000000000000115360000000000000001153680000000020-29010571-5MAZZA DAVID FERNANDO          000000000350000000000000000000000000000000000000000000000000000000000000000000000000000000000000000000000000000000051263PES00010000001000000000000000000000000
2020080400100101000000000000000115370000000000000001153780000000030-71553366-5ALCIVET S.R.L                 000000000270026000000000000000000000000000000000000000000000000000000000000000000000000000000000000000000000000000056899PES00010000001000000000000000000000000
2020080400100101000000000000000115380000000000000001153880000000020-24059180-5FIGUEROA JUAN SANTIA          000000000027002000000000000000000000000000000000000000000000000000000000000000000000000000000000000000000000000000000324PES00010000001000000000000000000000000
2020080400100101000000000000000115390000000000000001153980000000020-27944884-8GALVEZ RODRIGO                000000000019998000000000000000000000000000000000000000000000000000000000000000000000000000000000000000000000000000000240PES00010000001000000000000000000000000
2020080400100101000000000000000115410000000000000001154180000000020-17526448-6AGUERA JUAN ANTONIO           000000000017997000000000000000000000000000000000000000000000000000000000000000000000000000000000000000000000000000000216PES00010000001000000000000000000000000
2020080400100101000000000000000115420000000000000001154280000000020-17526448-6AGUERA JUAN ANTONIO           000000000020001000000000000000000000000000000000000000000000000000000000000000000000000000000000000000000000000000004726PES00010000001000000000000000000000000
2020080400100101000000000000000115430000000000000001154380000000020-27875215-2MANCILLA JORGE ANTON          000000000300005000000000000000000000000000000000000000000000000000000000000000000000000000000000000000000000000000043940PES00010000001000000000000000000000000
2020080400100101000000000000000115440000000000000001154480000000030-71451689-9AGRO ACONQUIJA S.R.L          000000000036678000000000000000000000000000000000000000000000000000000000000000000000000000000000000000000000000000000441PES00010000001000000000000000000000000
2020080400100101000000000000000115450000000000000001154580000000020-28681634-8SANCHEZ ARIEL ARNALD          000000000033003000000000000000000000000000000000000000000000000000000000000000000000000000000000000000000000000000000396PES00010000001000000000000000000000000
2020080400100101000000000000000115460000000000000001154680000000033-71008238-9PODA VERDE SRL                000000000032000000000000000000000000000000000000000000000000000000000000000000000000000000000000000000000000000000000384PES00010000001000000000000000000000000
2020080400100101000000000000000115470000000000000001154780000000020-27751095-3IBANEZ CLAUDIO LEONA          000000000030863000000000000000000000000000000000000000000000000000000000000000000000000000000000000000000000000000000371PES00010000001000000000000000000000000
2020080400100101000000000000000115480000000000000001154880000000020-25543065-4JOSE LUIS CESCA (COR          000000000410006000000000000000000000000000000000000000000000000000000000000000000000000000000000000000000000000000060051PES00010000001000000000000000000000000
2020080400100101000000000000000115490000000000000001154980000000027-16175669-0NAMUR MARIA DE LOS A          000000000209038000000000000000000000000000000000000000000000000000000000000000000000000000000000000000000000000000049387PES00010000001000000000000000000000000
2020080400100101000000000000000115500000000000000001155080000000020-26242515-1QUINTEROS ROBERTO NI          000000000149999000000000000000000000000000000000000000000000000000000000000000000000000000000000000000000000000000021969PES00010000001000000000000000000000000
2020080400100101000000000000000115510000000000000001155180000000020-14479711-7LAZARTI HECTOR RUBEN          000000000224064000000000000000000000000000000000000000000000000000000000000000000000000000000000000000000000000000047214PES00010000001000000000000000000000000
2020080400100101000000000000000115520000000000000001155280000000020-21328072-5CARLOS TAMER                  000000000245099000000000000000000000000000000000000000000000000000000000000000000000000000000000000000000000000000041496PES00010000001000000000000000000000000
2020080400100101000000000000000115530000000000000001155380000000020-27751095-3IBANEZ CLAUDIO LEONA          000000000022400000000000000000000000000000000000000000000000000000000000000000000000000000000000000000000000000000000269PES00010000001000000000000000000000000
2020080500100101000000000000000115540000000000000001155480000000030-69173491-5LINE UP                       000000000100000000000000000000000000000000000000000000000000000000000000000000000000000000000000000000000000000000023626PES00010000001000000000000000000000000
2020080500100101000000000000000115550000000000000001155580000000030-69174364-7AGROSISTEMAS SRL              000000000397374000000000000000000000000000000000000000000000000000000000000000000000000000000000000000000000000000054195PES00010000001000000000000000000000000
2020080500100101000000000000000115560000000000000001155680000000030-71451689-9AGRO ACONQUIJA S.R.L          000000000042019000000000000000000000000000000000000000000000000000000000000000000000000000000000000000000000000000000176PES00010000001000000000000000000000000
2020080500100101000000000000000115570000000000000001155780000000030-71427860-2CREDIFLASH                    000000000030000000000000000000000000000000000000000000000000000000000000000000000000000000000000000000000000000000000360PES00010000001000000000000000000000000
2020080500100101000000000000000115580000000000000001155880000000030-71166811-6MC KREDIT S.R.L EN F          000000000015000000000000000000000000000000000000000000000000000000000000000000000000000000000000000000000000000000000180PES00010000001000000000000000000000000
2020080500100101000000000000000115590000000000000001155980000000020-20898576-1PABLO ROBIN                   000000000200002000000000000000000000000000000000000000000000000000000000000000000000000000000000000000000000000000029294PES00010000001000000000000000000000000
2020080500100101000000000000000115600000000000000001156080000000020-27944884-8GALVEZ RODRIGO                000000000024500000000000000000000000000000000000000000000000000000000000000000000000000000000000000000000000000000000294PES00010000001000000000000000000000000
2020080500100101000000000000000115610000000000000001156180000000020-14352061-8JOSE ALBERTO DE LA V          000000000041541000000000000000000000000000000000000000000000000000000000000000000000000000000000000000000000000000000499PES00010000001000000000000000000000000
2020080500100101000000000000000115620000000000000001156280000000030-71247881-7ALINOA SA                     000000000061003000000000000000000000000000000000000000000000000000000000000000000000000000000000000000000000000000000733PES00010000001000000000000000000000000
2020080500100101000000000000000115630000000000000001156380000000023-34443910-9REDING JORGE                  000000000216076000000000000000000000000000000000000000000000000000000000000000000000000000000000000000000000000000051049PES00010000001000000000000000000000000
2020080500100101000000000000000115640000000000000001156480000000027-26405207-1SILVINA DEL ROSARIO           000000000099997000000000000000000000000000000000000000000000000000000000000000000000000000000000000000000000000000014646PES00010000001000000000000000000000000
2020080500100101000000000000000115650000000000000001156580000000027-25785550-9PORRICIELLO ARIANA M          000000000200002000000000000000000000000000000000000000000000000000000000000000000000000000000000000000000000000000029294PES00010000001000000000000000000000000
2020080500100101000000000000000115660000000000000001156680000000020-41982400-4ROLDAN TOBIAS GASTON          000000000110006000000000000000000000000000000000000000000000000000000000000000000000000000000000000000000000000000023180PES00010000001000000000000000000000000
2020080500100101000000000000000115670000000000000001156780000000020-17094643-0RAMIRO ESTEBAN GUERR          000000000061498000000000000000000000000000000000000000000000000000000000000000000000000000000000000000000000000000000739PES00010000001000000000000000000000000
2020080500100101000000000000000115680000000000000001156880000000020-10834798-9LUIS EDUARDO MARTINE          000000000220070000000000000000000000000000000000000000000000000000000000000000000000000000000000000000000000000000046372PES00010000001000000000000000000000000
2020080500100101000000000000000115690000000000000001156980000000030-71152327-4MIXER SA                      000000000031399000000000000000000000000000000000000000000000000000000000000000000000000000000000000000000000000000000377PES00010000001000000000000000000000000
2020080500100101000000000000000115700000000000000001157080000000020-30770792-7ALDERETES JESUS OMAR          000000001113079000000000000000000000000000000000000000000000000000000000000000000000000000000000000000000000000000262973PES00010000001000000000000000000000000
2020080500100101000000000000000115710000000000000001157180000000020-21948147-1RISSO PATRON MIGUEL           000000000100000000000000000000000000000000000000000000000000000000000000000000000000000000000000000000000000000000023626PES00010000001000000000000000000000000
2020080500100101000000000000000115720000000000000001157280000000020-12148635-1MARTIN JULIO ALBERTO          000000000100000000000000000000000000000000000000000000000000000000000000000000000000000000000000000000000000000000023626PES00010000001000000000000000000000000
2020080500100101000000000000000115730000000000000001157380000000020-24059180-5FIGUEROA JUAN SANTIA          000000000030000000000000000000000000000000000000000000000000000000000000000000000000000000000000000000000000000000000360PES00010000001000000000000000000000000
2020080500100101000000000000000115740000000000000001157480000000020-25047732-6HERRERA FELIX DARIO           000000000271078000000000000000000000000000000000000000000000000000000000000000000000000000000000000000000000000000050576PES00010000001000000000000000000000000
2020080500100101000000000000000115750000000000000001157580000000020-26757682-4DOFFO LEONELO                 000000000054500000000000000000000000000000000000000000000000000000000000000000000000000000000000000000000000000000000655PES00010000001000000000000000000000000
2020080500100101000000000000000115760000000000000001157680000000027-20612943-9HERRERA LILIANA               000000000024739000000000000000000000000000000000000000000000000000000000000000000000000000000000000000000000000000000297PES00010000001000000000000000000000000
2020080600100101000000000000000115770000000000000001157780000000030-71166811-6MC KREDIT S.R.L EN F          000000000018913000000000000000000000000000000000000000000000000000000000000000000000000000000000000000000000000000000227PES00010000001000000000000000000000000
2020080600100101000000000000000115780000000000000001157880000000030-71073553-7R.V INGENIERIA S.R.L          000000000013921000000000000000000000000000000000000000000000000000000000000000000000000000000000000000000000000000000167PES00010000001000000000000000000000000
2020080600100101000000000000000115790000000000000001157980000000030-70919420-4KINGBERRY S.A                 000000000048481000000000000000000000000000000000000000000000000000000000000000000000000000000000000000000000000000000582PES00010000001000000000000000000000000
2020080600100101000000000000000115800000000000000001158080000000030-63922709-6INTRA SRL                     000000000190126000000000000000000000000000000000000000000000000000000000000000000000000000000000000000000000000000040063PES00010000001000000000000000000000000
2020080600100101000000000000000115810000000000000001158180000000020-22558375-8SERGIO GADUR                  000000000149999000000000000000000000000000000000000000000000000000000000000000000000000000000000000000000000000000021969PES00010000001000000000000000000000000
2020080600100101000000000000000115820000000000000001158280000000020-25740368-9CHAYLE VICENTE SEBAS          000000000051012000000000000000000000000000000000000000000000000000000000000000000000000000000000000000000000000000000613PES00010000001000000000000000000000000
2020080600100101000000000000000115830000000000000001158380000000027-94145439-4ALICIA RAQUEL DE MAI          000000000028000000000000000000000000000000000000000000000000000000000000000000000000000000000000000000000000000000000336PES00010000001000000000000000000000000
2020080600100101000000000000000115840000000000000001158480000000020-26253927-0SALOMON MARCOS LEONA          000000000015000000000000000000000000000000000000000000000000000000000000000000000000000000000000000000000000000000000180PES00010000001000000000000000000000000
2020080600100101000000000000000115850000000000000001158580000000020-10220067-6JOSE CUSSEDDU                 000000000433032000000000000000000000000000000000000000000000000000000000000000000000000000000000000000000000000000063423PES00010000001000000000000000000000000
2020080600100101000000000000000115860000000000000001158680000000023-28496395-4ALBA JOSEFINA ALDANA          000000000100000000000000000000000000000000000000000000000000000000000000000000000000000000000000000000000000000000023626PES00010000001000000000000000000000000
2020080600100101000000000000000115870000000000000001158780000000030-70954591-0FINCAS GREYCO SRL             000000000419025000000000000000000000000000000000000000000000000000000000000000000000000000000000000000000000000000061372PES00010000001000000000000000000000000
2020080600100101000000000000000115880000000000000001158880000000020-17526448-6AGUERA JUAN ANTONIO           000000000010002000000000000000000000000000000000000000000000000000000000000000000000000000000000000000000000000000000120PES00010000001000000000000000000000000
2020080600100101000000000000000115890000000000000001158980000000030-71461354-1SAN AGUSTIN SERVICIO          000000000303071000000000000000000000000000000000000000000000000000000000000000000000000000000000000000000000000000044390PES00010000001000000000000000000000000
2020080600100101000000000000000115900000000000000001159080000000030-71451689-9AGRO ACONQUIJA S.R.L          000000000030390000000000000000000000000000000000000000000000000000000000000000000000000000000000000000000000000000000365PES00010000001000000000000000000000000
2020080600100101000000000000000115910000000000000001159180000000020-12257853-5RAMON EDUARDO ALBORN          000000000149999000000000000000000000000000000000000000000000000000000000000000000000000000000000000000000000000000021969PES00010000001000000000000000000000000
2020080600100101000000000000000115920000000000000001159280000000027-10321788-7MARTINEZ DELIA ROSA           000000000099999000000000000000000000000000000000000000000000000000000000000000000000000000000000000000000000000000021072PES00010000001000000000000000000000000
2020080600100101000000000000000115930000000000000001159380000000030-71674419-8CONSTRUFAM SRL                000000000019998000000000000000000000000000000000000000000000000000000000000000000000000000000000000000000000000000000240PES00010000001000000000000000000000000
2020080600100101000000000000000115940000000000000001159480000000020-17297304-4ROCHA DANTE OMAR              000000000099999000000000000000000000000000000000000000000000000000000000000000000000000000000000000000000000000000021072PES00010000001000000000000000000000000
2020080600100101000000000000000115950000000000000001159580000000020-37501956-7CONTRERAS IVAN                000000000050001000000000000000000000000000000000000000000000000000000000000000000000000000000000000000000000000000007323PES00010000001000000000000000000000000
2020080600100101000000000000000115960000000000000001159680000000020-17619218-7TRANSPORTE SERGIO FR          000000000040449000000000000000000000000000000000000000000000000000000000000000000000000000000000000000000000000000000000PES00010000001000000000000000000000000
2020080600100101000000000000000115970000000000000001159780000000030-66871374-9TIMAC AGROARGENTINA           000000000043000000000000000000000000000000000000000000000000000000000000000000000000000000000000000000000000000000000517PES00010000001000000000000000000000000
2020080600100101000000000000000115980000000000000001159880000000020-18203270-1OLIVARES RODOLFO              000000000014002000000000000000000000000000000000000000000000000000000000000000000000000000000000000000000000000000000168PES00010000001000000000000000000000000
2020080600100101000000000000000115990000000000000001159980000000023-27809354-9MAZZA ERNESTO RODOLF          000000000300005000000000000000000000000000000000000000000000000000000000000000000000000000000000000000000000000000043940PES00010000001000000000000000000000000
2020080600100101000000000000000116000000000000000001160080000000020-27944884-8GALVEZ RODRIGO                000000000035003000000000000000000000000000000000000000000000000000000000000000000000000000000000000000000000000000000420PES00010000001000000000000000000000000
2020080700100101000000000000000116010000000000000001160180000000030-71238641-6C.V CONSTRUCCIONES S          000000000050003000000000000000000000000000000000000000000000000000000000000000000000000000000000000000000000000000011813PES00010000001000000000000000000000000
2020080700100101000000000000000116020000000000000001160280000000023-03924722-4SUCESION RODRIGUEZ D          000000000032700000000000000000000000000000000000000000000000000000000000000000000000000000000000000000000000000000000393PES00010000001000000000000000000000000
2020080700100101000000000000000116030000000000000001160380000000020-33540463-8MEDRANO FEDERICO              000000000200002000000000000000000000000000000000000000000000000000000000000000000000000000000000000000000000000000029294PES00010000001000000000000000000000000
2020080700100101000000000000000116040000000000000001160480000000030-71073553-7R.V INGENIERIA S.R.L          000000000010229000000000000000000000000000000000000000000000000000000000000000000000000000000000000000000000000000000123PES00010000001000000000000000000000000
2020080700100101000000000000000116050000000000000001160580000000020-27944884-8GALVEZ RODRIGO                000000000017997000000000000000000000000000000000000000000000000000000000000000000000000000000000000000000000000000000216PES00010000001000000000000000000000000
2020080700100101000000000000000116060000000000000001160680000000030-64614092-3SERVICIOS MODERNOS S          000000000031784000000000000000000000000000000000000000000000000000000000000000000000000000000000000000000000000000000382PES00010000001000000000000000000000000
2020080700100101000000000000000116070000000000000001160780000000020-22336404-8GALLEGO CARLOS MANUE          000000000120006000000000000000000000000000000000000000000000000000000000000000000000000000000000000000000000000000017577PES00010000001000000000000000000000000
2020080700100101000000000000000116080000000000000001160880000000030-71638365-9LOS CARDOS SAS                000000000130044000000000000000000000000000000000000000000000000000000000000000000000000000000000000000000000000000019047PES00010000001000000000000000000000000
2020080700100101000000000000000116090000000000000001160980000000030-71238641-6C.V CONSTRUCCIONES S          000000000200001000000000000000000000000000000000000000000000000000000000000000000000000000000000000000000000000000029293PES00010000001000000000000000000000000
2020080700100101000000000000000116100000000000000001161080000000027-22698863-2PAZ EVA SILVANA               000000000299996000000000000000000000000000000000000000000000000000000000000000000000000000000000000000000000000000056435PES00010000001000000000000000000000000
2020080700100101000000000000000116110000000000000001161180000000020-37501956-7CONTRERAS IVAN                000000000050001000000000000000000000000000000000000000000000000000000000000000000000000000000000000000000000000000007323PES00010000001000000000000000000000000
2020080700100101000000000000000116120000000000000001161280000000030-71451689-9AGRO ACONQUIJA S.R.L          000000000020459000000000000000000000000000000000000000000000000000000000000000000000000000000000000000000000000000000246PES00010000001000000000000000000000000
2020080700100101000000000000000116130000000000000001161380000000020-27974185-5LAMELAS JOSE OSCAR            000000000015618000000000000000000000000000000000000000000000000000000000000000000000000000000000000000000000000000000188PES00010000001000000000000000000000000
2020080700100101000000000000000116140000000000000001161480000000020-17094643-0GUERRERO RAMIRO               000000000053001000000000000000000000000000000000000000000000000000000000000000000000000000000000000000000000000000000637PES00010000001000000000000000000000000
2020080700100101000000000000000116150000000000000001161580000000020-07019877-1MEDINA MANUEL                 000000000200002000000000000000000000000000000000000000000000000000000000000000000000000000000000000000000000000000029294PES00010000001000000000000000000000000
2020080700100101000000000000000116160000000000000001161680000000030-71457054-0HORTIFRUT EXPOFRESH           000000000300005000000000000000000000000000000000000000000000000000000000000000000000000000000000000000000000000000043940PES00010000001000000000000000000000000
2020080700100101000000000000000116170000000000000001161780000000020-32437266-1RAMIRO REYES JEREZ            000000000044003000000000000000000000000000000000000000000000000000000000000000000000000000000000000000000000000000000529PES00010000001000000000000000000000000
2020080700100101000000000000000116180000000000000001161880000000020-43978502-1ZELARAYAN RICARDO JO          000000000023001000000000000000000000000000000000000000000000000000000000000000000000000000000000000000000000000000000276PES00010000001000000000000000000000000
2020080700100101000000000000000116190000000000000001161980000000030-64614092-3SERVICIOS MODERNOS S          000000000240000000000000000000000000000000000000000000000000000000000000000000000000000000000000000000000000000000056702PES00010000001000000000000000000000000
2020080700100101000000000000000116200000000000000001162080000000027-14337654-6SALAZAR MARIA INES            000000000300005000000000000000000000000000000000000000000000000000000000000000000000000000000000000000000000000000043940PES00010000001000000000000000000000000
2020080700100101000000000000000116210000000000000001162180000000020-10432078-4SILVA ANGEL CUSTODIO          000000000370022000000000000000000000000000000000000000000000000000000000000000000000000000000000000000000000000000054195PES00010000001000000000000000000000000
2020080700100101000000000000000116220000000000000001162280000000030-71540063-0TSA ARGENTINA                 000000000016003000000000000000000000000000000000000000000000000000000000000000000000000000000000000000000000000000000192PES00010000001000000000000000000000000
2020080700100101000000000000000116230000000000000001162380000000020-28954225-7GOMEZ ANGEL ARIEL             000000000027002000000000000000000000000000000000000000000000000000000000000000000000000000000000000000000000000000000324PES00010000001000000000000000000000000
2020080700100101000000000000000116240000000000000001162480000000030-71225110-3BAQUIA SRL                    000000000250002000000000000000000000000000000000000000000000000000000000000000000000000000000000000000000000000000036616PES00010000001000000000000000000000000
2020080700100101000000000000000116250000000000000001162580000000023-31312489-4BRITO NATALIA YANINA          000000000099997000000000000000000000000000000000000000000000000000000000000000000000000000000000000000000000000000014646PES00010000001000000000000000000000000
2020080700100101000000000000000116260000000000000001162680000000030-71547212-7LA FERRETERIA SRL             000000000199999000000000000000000000000000000000000000000000000000000000000000000000000000000000000000000000000000047251PES00010000001000000000000000000000000
2020080700100101000000000000000116270000000000000001162780000000027-20612943-9HERRERA LILIANA               000000000031002000000000000000000000000000000000000000000000000000000000000000000000000000000000000000000000000000000372PES00010000001000000000000000000000000
2020080700100101000000000000000116280000000000000001162880000000023-32726905-4SAAVEDRA NATALIA DEL          000000000200002000000000000000000000000000000000000000000000000000000000000000000000000000000000000000000000000000029294PES00010000001000000000000000000000000
2020080700100101000000000000000116290000000000000001162980000000030-71050281-8KILOMETRO 14 SRL              000000000099997000000000000000000000000000000000000000000000000000000000000000000000000000000000000000000000000000014646PES00010000001000000000000000000000000
2020080800100101000000000000000116300000000000000001163080000000030-68092234-5ITALGAS S.A.                  000000000156171000000000000000000000000000000000000000000000000000000000000000000000000000000000000000000000000000000000PES00010000001000000000000000000000000
2020080800100101000000000000000116310000000000000001163180000000033-71475742-9NOBEN SRL                     000000000020307000000000000000000000000000000000000000000000000000000000000000000000000000000000000000000000000000000244PES00010000001000000000000000000000000
2020080800100101000000000000000116320000000000000001163280000000020-22429201-6FIGUEROA OSVALDO REN          000000000030436000000000000000000000000000000000000000000000000000000000000000000000000000000000000000000000000000000366PES00010000001000000000000000000000000
2020080800100101000000000000000116330000000000000001163380000000020-22429201-6FIGUEROA OSVALDO REN          000000000358001000000000000000000000000000000000000000000000000000000000000000000000000000000000000000000000000000084581PES00010000001000000000000000000000000
2020080800100101000000000000000116340000000000000001163480000000020-95559908-0JAWANDHA AMRINDER SI          000000000120051000000000000000000000000000000000000000000000000000000000000000000000000000000000000000000000000000025296PES00010000001000000000000000000000000
2020080800100101000000000000000116350000000000000001163580000000020-95559908-0JAWANDHA AMRINDER SI          000000000023998000000000000000000000000000000000000000000000000000000000000000000000000000000000000000000000000000000288PES00010000001000000000000000000000000
2020080800100101000000000000000116360000000000000001163680000000020-08246747-6RODRIGUEZ JOSE RAMON          000000000179998000000000000000000000000000000000000000000000000000000000000000000000000000000000000000000000000000026363PES00010000001000000000000000000000000
2020080800100101000000000000000116370000000000000001163780000000030-71638365-9LOS CARDOS SAS                000000000193473000000000000000000000000000000000000000000000000000000000000000000000000000000000000000000000000000028337PES00010000001000000000000000000000000
2020080800100101000000000000000116380000000000000001163880000000030-70919525-1LA CELINA SRL                 000000000200045000000000000000000000000000000000000000000000000000000000000000000000000000000000000000000000000000042445PES00010000001000000000000000000000000
2020080800100101000000000000000116390000000000000001163980000000030-70942119-7TRANSPORTE TRONADOR           000000000199999000000000000000000000000000000000000000000000000000000000000000000000000000000000000000000000000000047251PES00010000001000000000000000000000000
2020080800100101000000000000000116400000000000000001164080000000030-70763654-4RIO SINGUIL SA                000000000099997000000000000000000000000000000000000000000000000000000000000000000000000000000000000000000000000000014646PES00010000001000000000000000000000000
2020080800100101000000000000000116410000000000000001164180000000020-27944884-8GALVEZ RODRIGO                000000000030000000000000000000000000000000000000000000000000000000000000000000000000000000000000000000000000000000000360PES00010000001000000000000000000000000
2020080800100101000000000000000116420000000000000001164280000000033-71008238-9PODA VERDE SRL                000000000035003000000000000000000000000000000000000000000000000000000000000000000000000000000000000000000000000000000420PES00010000001000000000000000000000000
2020080800100101000000000000000116430000000000000001164380000000030-71491471-1AMARELA TUCUMAN SRL           000000000400001000000000000000000000000000000000000000000000000000000000000000000000000000000000000000000000000000058585PES00010000001000000000000000000000000
2020080800100101000000000000000116440000000000000001164480000000030-71681985-6INDUSTRIA SANTA BARB          000000000250002000000000000000000000000000000000000000000000000000000000000000000000000000000000000000000000000000036616PES00010000001000000000000000000000000
2020080800100101000000000000000116450000000000000001164580000000020-24803870-6SUREDA PEDRO JUAN             000000000099997000000000000000000000000000000000000000000000000000000000000000000000000000000000000000000000000000014646PES00010000001000000000000000000000000
2020080800100101000000000000000116460000000000000001164680000000020-25632603-6ARABOW CARLOS RUBEN           000000000099999000000000000000000000000000000000000000000000000000000000000000000000000000000000000000000000000000021072PES00010000001000000000000000000000000
2020080900100101000000000000000116470000000000000001164780000000030-71073553-7R.V INGENIERIA S.R.L          000000000080002000000000000000000000000000000000000000000000000000000000000000000000000000000000000000000000000000016857PES00010000001000000000000000000000000
2020080900100101000000000000000116480000000000000001164880000000030-71073553-7R.V INGENIERIA S.R.L          000000000014703000000000000000000000000000000000000000000000000000000000000000000000000000000000000000000000000000000177PES00010000001000000000000000000000000
2020080900100101000000000000000116490000000000000001164980000000020-16693891-1BRIZUELA HUGO ALBERT          000000000056003000000000000000000000000000000000000000000000000000000000000000000000000000000000000000000000000000008202PES00010000001000000000000000000000000
2020080900100101000000000000000116500000000000000001165080000000020-16693891-1BRIZUELA HUGO ALBERT          000000000149999000000000000000000000000000000000000000000000000000000000000000000000000000000000000000000000000000021969PES00010000001000000000000000000000000
2020080900100101000000000000000116510000000000000001165180000000020-16146800-3RIVERA MOISES RODOLF          000000000099997000000000000000000000000000000000000000000000000000000000000000000000000000000000000000000000000000014646PES00010000001000000000000000000000000
2020080900100101000000000000000116520000000000000001165280000000030-70769584-2ARIDOS DEL SALI SRL           000000000400015000000000000000000000000000000000000000000000000000000000000000000000000000000000000000000000000000058588PES00010000001000000000000000000000000
2020081000100101000000000000000116530000000000000001165380000000020-31468482-7QUISPE ARIEL ALBERTO          000000000027002000000000000000000000000000000000000000000000000000000000000000000000000000000000000000000000000000000324PES00010000001000000000000000000000000
2020081000100101000000000000000116540000000000000001165480000000030-71073553-7R.V INGENIERIA S.R.L          000000000016003000000000000000000000000000000000000000000000000000000000000000000000000000000000000000000000000000000192PES00010000001000000000000000000000000
2020081000100101000000000000000116550000000000000001165580000000030-52614381-3OSCAR BARBIERI                000000000070001000000000000000000000000000000000000000000000000000000000000000000000000000000000000000000000000000014750PES00010000001000000000000000000000000
2020081000100101000000000000000116560000000000000001165680000000030-69215801-2GLENSOL S.A                   000000000270017000000000000000000000000000000000000000000000000000000000000000000000000000000000000000000000000000063793PES00010000001000000000000000000000000
2020081000100101000000000000000116570000000000000001165780000000030-52179790-4COOPERATIVA CAMPO DE          000000000015000000000000000000000000000000000000000000000000000000000000000000000000000000000000000000000000000000000180PES00010000001000000000000000000000000
2020081000100101000000000000000116580000000000000001165880000000030-52179790-4COOPERATIVA CAMPO DE          000000000030003000000000000000000000000000000000000000000000000000000000000000000000000000000000000000000000000000007088PES00010000001000000000000000000000000
2020081000100101000000000000000116590000000000000001165980000000023-03924722-4SUCESION RODRIGUEZ D          000000000028694000000000000000000000000000000000000000000000000000000000000000000000000000000000000000000000000000000345PES00010000001000000000000000000000000
2020081000100101000000000000000116600000000000000001166080000000027-29010878-6RUEDA MARIA DE LOS A          000000000037185000000000000000000000000000000000000000000000000000000000000000000000000000000000000000000000000000000447PES00010000001000000000000000000000000
2020081000100101000000000000000116610000000000000001166180000000020-95559908-0JAWANDHA AMRINDER SI          000000000260036000000000000000000000000000000000000000000000000000000000000000000000000000000000000000000000000000038087PES00010000001000000000000000000000000
2020081000100101000000000000000116620000000000000001166280000000030-71451689-9AGRO ACONQUIJA S.R.L          000000000059998000000000000000000000000000000000000000000000000000000000000000000000000000000000000000000000000000014174PES00010000001000000000000000000000000
2020081000100101000000000000000116630000000000000001166380000000030-55166780-0AITOR IDER  BALBO             000000000240943000000000000000000000000000000000000000000000000000000000000000000000000000000000000000000000000000050771PES00010000001000000000000000000000000
2020081000100101000000000000000116640000000000000001166480000000030-71451689-9AGRO ACONQUIJA S.R.L          000000000033003000000000000000000000000000000000000000000000000000000000000000000000000000000000000000000000000000000396PES00010000001000000000000000000000000
2020081000100101000000000000000116650000000000000001166580000000030-68569725-0CAMPODER SRL                  000000000199999000000000000000000000000000000000000000000000000000000000000000000000000000000000000000000000000000037623PES00010000001000000000000000000000000
2020081000100101000000000000000116660000000000000001166680000000020-34709050-7MANUEL ESTEBAN FERNA          000000000200002000000000000000000000000000000000000000000000000000000000000000000000000000000000000000000000000000029294PES00010000001000000000000000000000000
2020081000100101000000000000000116670000000000000001166780000000020-37501956-7CONTRERAS IVAN                000000000069997000000000000000000000000000000000000000000000000000000000000000000000000000000000000000000000000000010252PES00010000001000000000000000000000000
2020081000100101000000000000000116680000000000000001166880000000030-52543681-7JOSE MINETTI Y CIA L          000000000120000000000000000000000000000000000000000000000000000000000000000000000000000000000000000000000000000000028351PES00010000001000000000000000000000000
2020081000100101000000000000000116690000000000000001166980000000020-27944884-8GALVEZ RODRIGO                000000000019998000000000000000000000000000000000000000000000000000000000000000000000000000000000000000000000000000000240PES00010000001000000000000000000000000
2020081000100101000000000000000116700000000000000001167080000000020-21328072-5CARLOS TAMER                  000000000100000000000000000000000000000000000000000000000000000000000000000000000000000000000000000000000000000000023626PES00010000001000000000000000000000000
2020081000100101000000000000000116710000000000000001167180000000030-71234564-7TRAILINGSAT                   000000000150003000000000000000000000000000000000000000000000000000000000000000000000000000000000000000000000000000035439PES00010000001000000000000000000000000
2020081000100101000000000000000116720000000000000001167280000000020-18186694-3GABRIEL ZINGALE               000000000089997000000000000000000000000000000000000000000000000000000000000000000000000000000000000000000000000000021263PES00010000001000000000000000000000000
2020081000100101000000000000000116730000000000000001167380000000020-16526162-4MUDAD FRANCISCO               000000000468049000000000000000000000000000000000000000000000000000000000000000000000000000000000000000000000000000110580PES00010000001000000000000000000000000
2020081000100101000000000000000116740000000000000001167480000000020-10014987-8BUFFO CARLOS ENRIQUE          000000000200002000000000000000000000000000000000000000000000000000000000000000000000000000000000000000000000000000029294PES00010000001000000000000000000000000
2020081000100101000000000000000116750000000000000001167580000000020-29389742-6GONZALEZ WALTER DANI          000000000108807000000000000000000000000000000000000000000000000000000000000000000000000000000000000000000000000000015937PES00010000001000000000000000000000000
2020081000100101000000000000000116760000000000000001167680000000020-25047732-6HERRERA FELIX DARIO           000000000130093000000000000000000000000000000000000000000000000000000000000000000000000000000000000000000000000000030735PES00010000001000000000000000000000000
2020081000100101000000000000000116770000000000000001167780000000020-31128489-5ROCHA JUAN MANUEL             000000000199999000000000000000000000000000000000000000000000000000000000000000000000000000000000000000000000000000037623PES00010000001000000000000000000000000
2020081000100101000000000000000116780000000000000001167880000000027-31498912-6ROMINA DIP                    000000000200002000000000000000000000000000000000000000000000000000000000000000000000000000000000000000000000000000029294PES00010000001000000000000000000000000
2020081000100101000000000000000116790000000000000001167980000000020-30539779-3JALIS LUIS EDUERDO            000000000100000000000000000000000000000000000000000000000000000000000000000000000000000000000000000000000000000000023626PES00010000001000000000000000000000000
2020081000100101000000000000000116800000000000000001168080000000030-70954591-0FINCAS GREYCO SRL             000000000310016000000000000000000000000000000000000000000000000000000000000000000000000000000000000000000000000000045407PES00010000001000000000000000000000000
2020081000100101000000000000000116810000000000000001168180000000030-55166780-0AITOR IDER  BALBO             000000000295014000000000000000000000000000000000000000000000000000000000000000000000000000000000000000000000000000062164PES00010000001000000000000000000000000
2020081000100101000000000000000116820000000000000001168280000000020-30770792-7ALDERETES JESUS OMAR          000000001119995000000000000000000000000000000000000000000000000000000000000000000000000000000000000000000000000000264606PES00010000001000000000000000000000000
2020081000100101000000000000000116830000000000000001168380000000030-64614092-3SERVICIOS MODERNOS S          000000000022529000000000000000000000000000000000000000000000000000000000000000000000000000000000000000000000000000000271PES00010000001000000000000000000000000
2020081000100101000000000000000116840000000000000001168480000000030-70865088-5MACROPHARMA SA                000000000175042000000000000000000000000000000000000000000000000000000000000000000000000000000000000000000000000000041354PES00010000001000000000000000000000000
2020081000100101000000000000000116850000000000000001168580000000020-25632603-6ARABOW CARLOS RUBEN           000000000050003000000000000000000000000000000000000000000000000000000000000000000000000000000000000000000000000000011813PES00010000001000000000000000000000000
2020081000100101000000000000000116860000000000000001168680000000020-10220067-6JOSE CUSSEDDU                 000000000380000000000000000000000000000000000000000000000000000000000000000000000000000000000000000000000000000000055657PES00010000001000000000000000000000000
2020081000100101000000000000000116870000000000000001168780000000020-20220054-1CARRASCO DANIEL EDUA          000000000300005000000000000000000000000000000000000000000000000000000000000000000000000000000000000000000000000000043940PES00010000001000000000000000000000000
2020081000100101000000000000000116880000000000000001168880000000030-58673333-4CARTOCOR SA                   000000000300005000000000000000000000000000000000000000000000000000000000000000000000000000000000000000000000000000043940PES00010000001000000000000000000000000
2020081000100101000000000000000116890000000000000001168980000000020-27961777-1JORGE PELUFFO                 000000000100000000000000000000000000000000000000000000000000000000000000000000000000000000000000000000000000000000023626PES00010000001000000000000000000000000
2020081000100101000000000000000116900000000000000001169080000000030-52179790-4COOPERATIVA CAMPO DE          000000000015700000000000000000000000000000000000000000000000000000000000000000000000000000000000000000000000000000000189PES00010000001000000000000000000000000
2020081000100101000000000000000116910000000000000001169180000000023-34443910-9REDING JORGE                  000000000100000000000000000000000000000000000000000000000000000000000000000000000000000000000000000000000000000000023626PES00010000001000000000000000000000000
2020081000100101000000000000000116920000000000000001169280000000030-71073553-7R.V INGENIERIA S.R.L          000000000050003000000000000000000000000000000000000000000000000000000000000000000000000000000000000000000000000000011813PES00010000001000000000000000000000000
2020081000100101000000000000000116930000000000000001169380000000020-33050458-8ALVARO MEDINA                 000000000031002000000000000000000000000000000000000000000000000000000000000000000000000000000000000000000000000000000372PES00010000001000000000000000000000000
2020081000100101000000000000000116940000000000000001169480000000020-26242515-1QUINTEROS ROBERTO NI          000000000223938000000000000000000000000000000000000000000000000000000000000000000000000000000000000000000000000000052906PES00010000001000000000000000000000000
2020081000100101000000000000000116950000000000000001169580000000020-21328072-5CARLOS TAMER                  000000000260067000000000000000000000000000000000000000000000000000000000000000000000000000000000000000000000000000048922PES00010000001000000000000000000000000
2020081000100101000000000000000116960000000000000001169680000000020-26253927-0SALOMON MARCOS LEONA          000000000019000000000000000000000000000000000000000000000000000000000000000000000000000000000000000000000000000000000228PES00010000001000000000000000000000000
2020081000100101000000000000000116970000000000000001169780000000023-11615443-9TORRES FERNANDO               000000000099996000000000000000000000000000000000000000000000000000000000000000000000000000000000000000000000000000018811PES00010000001000000000000000000000000
2020081000100101000000000000000116980000000000000001169880000000027-26405207-1SILVINA DEL ROSARIO           000000000050001000000000000000000000000000000000000000000000000000000000000000000000000000000000000000000000000000007323PES00010000001000000000000000000000000
2020081000100101000000000000000116990000000000000001169980000000020-31468482-7QUISPE ARIEL ALBERTO          000000000023998000000000000000000000000000000000000000000000000000000000000000000000000000000000000000000000000000000288PES00010000001000000000000000000000000
2020081000100101000000000000000117000000000000000001170080000000020-17223227-3MONFORT MARCELO FRAN          000000002460011000000000000000000000000000000000000000000000000000000000000000000000000000000000000000000000000000462768PES00010000001000000000000000000000000
2020081100100101000000000000000117010000000000000001170180000000030-69517723-9AGROPECUARIA MISTOL           000000000335027000000000000000000000000000000000000000000000000000000000000000000000000000000000000000000000000000049069PES00010000001000000000000000000000000
2020081100100101000000000000000117020000000000000001170280000000020-13474419-8ENRIQUE MARIO ROJAS           000000000150003000000000000000000000000000000000000000000000000000000000000000000000000000000000000000000000000000035439PES00010000001000000000000000000000000
2020081100100101000000000000000117030000000000000001170380000000030-69173491-5LINE UP                       000000000100000000000000000000000000000000000000000000000000000000000000000000000000000000000000000000000000000000023626PES00010000001000000000000000000000000
2020081100100101000000000000000117040000000000000001170480000000027-18406948-8GARCIA NORMA                  000000000390037000000000000000000000000000000000000000000000000000000000000000000000000000000000000000000000000000057126PES00010000001000000000000000000000000
2020081100100101000000000000000117050000000000000001170580000000020-34603764-5ALDERETE BIMBI MARTI          000000000229159000000000000000000000000000000000000000000000000000000000000000000000000000000000000000000000000000054141PES00010000001000000000000000000000000
2020081100100101000000000000000117060000000000000001170680000000020-33540463-8MEDRANO FEDERICO              000000000200002000000000000000000000000000000000000000000000000000000000000000000000000000000000000000000000000000029294PES00010000001000000000000000000000000
2020081100100101000000000000000117070000000000000001170780000000030-71073553-7R.V INGENIERIA S.R.L          000000000015396000000000000000000000000000000000000000000000000000000000000000000000000000000000000000000000000000000185PES00010000001000000000000000000000000
2020081100100101000000000000000117080000000000000001170880000000030-70866873-3REFRES NOW SA                 000000000150003000000000000000000000000000000000000000000000000000000000000000000000000000000000000000000000000000035439PES00010000001000000000000000000000000
2020081100100101000000000000000117090000000000000001170980000000030-71136989-5CAQUY SRL                     000000000200002000000000000000000000000000000000000000000000000000000000000000000000000000000000000000000000000000029294PES00010000001000000000000000000000000
2020081100100101000000000000000117100000000000000001171080000000020-28954225-7GOMEZ ANGEL ARIEL             000000000023998000000000000000000000000000000000000000000000000000000000000000000000000000000000000000000000000000000288PES00010000001000000000000000000000000
2020081100100101000000000000000117110000000000000001171180000000020-10878739-3SALAZAR GUILLERMO             000000000210003000000000000000000000000000000000000000000000000000000000000000000000000000000000000000000000000000049615PES00010000001000000000000000000000000
2020081100100101000000000000000117120000000000000001171280000000030-69177806-8SEGURIDAD SUAT                000000000200002000000000000000000000000000000000000000000000000000000000000000000000000000000000000000000000000000029294PES00010000001000000000000000000000000
2020081100100101000000000000000117130000000000000001171380000000030-59126805-4ERNESTO H FERNANDEZ           000000000430033000000000000000000000000000000000000000000000000000000000000000000000000000000000000000000000000000065679PES00010000001000000000000000000000000
2020081100100101000000000000000117140000000000000001171480000000020-21328072-5CARLOS TAMER                  000000000200002000000000000000000000000000000000000000000000000000000000000000000000000000000000000000000000000000029294PES00010000001000000000000000000000000
2020081100100101000000000000000117150000000000000001171580000000030-71095905-2CARBAT SA                     000000000200002000000000000000000000000000000000000000000000000000000000000000000000000000000000000000000000000000029294PES00010000001000000000000000000000000
2020081100100101000000000000000117160000000000000001171680000000030-63922709-6INTRA SRL                     000000000216414000000000000000000000000000000000000000000000000000000000000000000000000000000000000000000000000000045602PES00010000001000000000000000000000000
2020081100100101000000000000000117170000000000000001171780000000030-52179790-4COOPERATIVA CAMPO DE          000000000011402000000000000000000000000000000000000000000000000000000000000000000000000000000000000000000000000000000137PES00010000001000000000000000000000000
2020081100100101000000000000000117180000000000000001171880000000030-70873375-6FINCA LA CAROLINA             000000000200002000000000000000000000000000000000000000000000000000000000000000000000000000000000000000000000000000029294PES00010000001000000000000000000000000
2020081100100101000000000000000117190000000000000001171980000000020-18511909-3ALBERTO RODRIGUEZ             000000000315045000000000000000000000000000000000000000000000000000000000000000000000000000000000000000000000000000046143PES00010000001000000000000000000000000
2020081100100101000000000000000117200000000000000001172080000000030-70919420-4KINGBERRY S.A                 000000000036852000000000000000000000000000000000000000000000000000000000000000000000000000000000000000000000000000000443PES00010000001000000000000000000000000
2020081100100101000000000000000117210000000000000001172180000000020-11074762-5PEREZ JUAN LUIS               000000000120006000000000000000000000000000000000000000000000000000000000000000000000000000000000000000000000000000017577PES00010000001000000000000000000000000
2020081100100101000000000000000117220000000000000001172280000000020-17094643-0RAMIRO ESTEBAN GUERR          000000000064000000000000000000000000000000000000000000000000000000000000000000000000000000000000000000000000000000000769PES00010000001000000000000000000000000
2020081100100101000000000000000117230000000000000001172380000000030-71478213-0S.B.CONSTRUCCIONES S          000000000400001000000000000000000000000000000000000000000000000000000000000000000000000000000000000000000000000000058585PES00010000001000000000000000000000000
2020081100100101000000000000000117240000000000000001172480000000030-53187817-1BOCANERA SA                   000000000100000000000000000000000000000000000000000000000000000000000000000000000000000000000000000000000000000000023626PES00010000001000000000000000000000000
2020081100100101000000000000000117250000000000000001172580000000030-71681985-6INDUSTRIA SANTA BARB          000000000200002000000000000000000000000000000000000000000000000000000000000000000000000000000000000000000000000000042143PES00010000001000000000000000000000000
2020081100100101000000000000000117260000000000000001172680000000033-71008238-9PODA VERDE SRL                000000000026798000000000000000000000000000000000000000000000000000000000000000000000000000000000000000000000000000000322PES00010000001000000000000000000000000
2020081100100101000000000000000117270000000000000001172780000000020-10791091-4VALDEZ RUFINO CESAR           000000000400001000000000000000000000000000000000000000000000000000000000000000000000000000000000000000000000000000058585PES00010000001000000000000000000000000
2020081100100101000000000000000117280000000000000001172880000000030-70910135-4COSMOFLOR SA                  000000000230086000000000000000000000000000000000000000000000000000000000000000000000000000000000000000000000000000054359PES00010000001000000000000000000000000
2020081100100101000000000000000117290000000000000001172980000000027-25785550-9PORRICIELLO ARIANA M          000000000400001000000000000000000000000000000000000000000000000000000000000000000000000000000000000000000000000000058585PES00010000001000000000000000000000000
2020081100100101000000000000000117300000000000000001173080000000020-17927865-1CORRAL RIVADENEIRA J          000000000200002000000000000000000000000000000000000000000000000000000000000000000000000000000000000000000000000000042143PES00010000001000000000000000000000000
2020081100100101000000000000000117310000000000000001173180000000020-38741021-0ALVARO MANUEL DIAZ            000000000100000000000000000000000000000000000000000000000000000000000000000000000000000000000000000000000000000000023626PES00010000001000000000000000000000000
2020081100100101000000000000000117320000000000000001173280000000030-71073553-7R.V INGENIERIA S.R.L          000000000019712000000000000000000000000000000000000000000000000000000000000000000000000000000000000000000000000000000237PES00010000001000000000000000000000000
2020081100100101000000000000000117330000000000000001173380000000030-71571996-3ALTOS LA CELIA SRL            000000000523026000000000000000000000000000000000000000000000000000000000000000000000000000000000000000000000000000076605PES00010000001000000000000000000000000
2020081100100101000000000000000117340000000000000001173480000000020-17244987-6BRITO ANGEL DIONICIO          000000000300005000000000000000000000000000000000000000000000000000000000000000000000000000000000000000000000000000043940PES00010000001000000000000000000000000
2020081100100101000000000000000117350000000000000001173580000000020-29003938-0MIGUEL AGUSTIN LEAS           000000000300005000000000000000000000000000000000000000000000000000000000000000000000000000000000000000000000000000043940PES00010000001000000000000000000000000
2020081100100101000000000000000117360000000000000001173680000000030-70828270-3DISTRIBUIDORA GONZAL          000000000199999000000000000000000000000000000000000000000000000000000000000000000000000000000000000000000000000000037623PES00010000001000000000000000000000000
2020081100100101000000000000000117370000000000000001173780000000033-71008238-9PODA VERDE SRL                000000000038001000000000000000000000000000000000000000000000000000000000000000000000000000000000000000000000000000000456PES00010000001000000000000000000000000
2020081100100101000000000000000117380000000000000001173880000000030-71085329-7SANATORIO DEL SOL S.          000000000550001000000000000000000000000000000000000000000000000000000000000000000000000000000000000000000000000000080556PES00010000001000000000000000000000000
2020081100100101000000000000000117390000000000000001173980000000030-71503000-0SOBRE RUEDAS SRL              000000000039482000000000000000000000000000000000000000000000000000000000000000000000000000000000000000000000000000000474PES00010000001000000000000000000000000
2020081100100101000000000000000117400000000000000001174080000000030-71229350-7DEVELOPERS S.A                000000000200002000000000000000000000000000000000000000000000000000000000000000000000000000000000000000000000000000042143PES00010000001000000000000000000000000
2020081100100101000000000000000117410000000000000001174180000000030-70909548-6ALFA EMPRESA CONSTRU          000000000402047000000000000000000000000000000000000000000000000000000000000000000000000000000000000000000000000000058885PES00010000001000000000000000000000000
2020081100100101000000000000000117420000000000000001174280000000020-17752540-6METALURGICA SP                000000000099977000000000000000000000000000000000000000000000000000000000000000000000000000000000000000000000000000023620PES00010000001000000000000000000000000
2020081100100101000000000000000117430000000000000001174380000000020-08004025-4MARTINEZ SANTAMARINA          000000000270041000000000000000000000000000000000000000000000000000000000000000000000000000000000000000000000000000056902PES00010000001000000000000000000000000
2020081100100101000000000000000117440000000000000001174480000000030-71522725-4SANITAS MEDICINA LAB          000000000069997000000000000000000000000000000000000000000000000000000000000000000000000000000000000000000000000000010252PES00010000001000000000000000000000000
2020081100100101000000000000000117450000000000000001174580000000030-71582218-7QUIMICA TUCUMAN SRL           000000000495024000000000000000000000000000000000000000000000000000000000000000000000000000000000000000000000000000072504PES00010000001000000000000000000000000
2020081100100101000000000000000117460000000000000001174680000000030-71238641-6C.V CONSTRUCCIONES S          000000000100000000000000000000000000000000000000000000000000000000000000000000000000000000000000000000000000000000023626PES00010000001000000000000000000000000
2020081100100101000000000000000117470000000000000001174780000000030-67538829-2MAUER S.R.L                   000000000100000000000000000000000000000000000000000000000000000000000000000000000000000000000000000000000000000000023626PES00010000001000000000000000000000000
2020081100100101000000000000000117480000000000000001174880000000030-59284584-5CETROGAR S.A                  000000000059998000000000000000000000000000000000000000000000000000000000000000000000000000000000000000000000000000014174PES00010000001000000000000000000000000
2020081100100101000000000000000117490000000000000001174980000000030-71050281-8KILOMETRO 14 SRL              000000000099997000000000000000000000000000000000000000000000000000000000000000000000000000000000000000000000000000014646PES00010000001000000000000000000000000
2020081100100101000000000000000117500000000000000001175080000000020-37728037-8SZMYD JESUS EMMANUEL          000000000049998000000000000000000000000000000000000000000000000000000000000000000000000000000000000000000000000000010535PES00010000001000000000000000000000000
2020081200100101000000000000000117510000000000000001175180000000030-50279317-5ARCOR SAIC                    000000000209852000000000000000000000000000000000000000000000000000000000000000000000000000000000000000000000000000049579PES00010000001000000000000000000000000
2020081200100101000000000000000117520000000000000001175280000000030-59284584-5CETROGAR S.A                  000000000059998000000000000000000000000000000000000000000000000000000000000000000000000000000000000000000000000000014174PES00010000001000000000000000000000000
2020081200100101000000000000000117530000000000000001175380000000020-32348435-0PALACIO CELSO                 000000000250056000000000000000000000000000000000000000000000000000000000000000000000000000000000000000000000000000059078PES00010000001000000000000000000000000
2020081200100101000000000000000117540000000000000001175480000000027-20759009-1SILVA CYNTHIA                 000000000250000000000000000000000000000000000000000000000000000000000000000000000000000000000000000000000000000000052678PES00010000001000000000000000000000000
2020081200100101000000000000000117550000000000000001175580000000027-29010878-6RUEDA MARIA DE LOS A          000000000036000000000000000000000000000000000000000000000000000000000000000000000000000000000000000000000000000000000432PES00010000001000000000000000000000000
2020081200100101000000000000000117560000000000000001175680000000030-70876423-6ROBERTO SALINAS E HI          000000000100000000000000000000000000000000000000000000000000000000000000000000000000000000000000000000000000000000023626PES00010000001000000000000000000000000
2020081200100101000000000000000117570000000000000001175780000000020-17244987-6BRITO ANGEL DIONICIO          000000000300005000000000000000000000000000000000000000000000000000000000000000000000000000000000000000000000000000043940PES00010000001000000000000000000000000
2020081200100101000000000000000117580000000000000001175880000000030-71166811-6MC KREDIT S.R.L EN F          000000000015000000000000000000000000000000000000000000000000000000000000000000000000000000000000000000000000000000000180PES00010000001000000000000000000000000
2020081200100101000000000000000117590000000000000001175980000000030-51864374-2INSTELEC SRL                  000000000420024000000000000000000000000000000000000000000000000000000000000000000000000000000000000000000000000000061518PES00010000001000000000000000000000000
2020081200100101000000000000000117600000000000000001176080000000020-22073128-7MEDRANO VICTOR HUGO           000000000149999000000000000000000000000000000000000000000000000000000000000000000000000000000000000000000000000000021969PES00010000001000000000000000000000000
2020081200100101000000000000000117610000000000000001176180000000020-22336404-8GALLEGO CARLOS MANUE          000000000120006000000000000000000000000000000000000000000000000000000000000000000000000000000000000000000000000000017577PES00010000001000000000000000000000000
2020081200100101000000000000000117620000000000000001176280000000030-71594604-8FELD SAS                      000000000150002000000000000000000000000000000000000000000000000000000000000000000000000000000000000000000000000000028218PES00010000001000000000000000000000000
2020081200100101000000000000000117630000000000000001176380000000020-11140398-9GONZALO LUIS MACIEL           000000000159997000000000000000000000000000000000000000000000000000000000000000000000000000000000000000000000000000023434PES00010000001000000000000000000000000
2020081200100101000000000000000117640000000000000001176480000000020-27944884-8GALVEZ RODRIGO                000000000020611000000000000000000000000000000000000000000000000000000000000000000000000000000000000000000000000000000248PES00010000001000000000000000000000000
2020081200100101000000000000000117650000000000000001176580000000030-52179790-4COOPERATIVA CAMPO DE          000000000016003000000000000000000000000000000000000000000000000000000000000000000000000000000000000000000000000000000192PES00010000001000000000000000000000000
2020081200100101000000000000000117660000000000000001176680000000030-69723276-8ORTEGA CAMIONES SA            000000000100000000000000000000000000000000000000000000000000000000000000000000000000000000000000000000000000000000023626PES00010000001000000000000000000000000
2020081200100101000000000000000117670000000000000001176780000000020-39356870-5ABREGU RICARDO DANIE          000000000100957000000000000000000000000000000000000000000000000000000000000000000000000000000000000000000000000000000400PES00010000001000000000000000000000000
2020081200100101000000000000000117680000000000000001176880000000030-71457054-0HORTIFRUT EXPOFRESH           000000000400001000000000000000000000000000000000000000000000000000000000000000000000000000000000000000000000000000058585PES00010000001000000000000000000000000
2020081200100101000000000000000117690000000000000001176980000000030-71464422-6LA HIGUERA S.R.L              000000000445023000000000000000000000000000000000000000000000000000000000000000000000000000000000000000000000000000105140PES00010000001000000000000000000000000
2020081200100101000000000000000117700000000000000001177080000000027-25785550-9PORRICIELO ARIANA MA          000000000395014000000000000000000000000000000000000000000000000000000000000000000000000000000000000000000000000000057856PES00010000001000000000000000000000000
2020081200100101000000000000000117710000000000000001177180000000020-16526162-4MUDAD FRANCISCO               000000000540036000000000000000000000000000000000000000000000000000000000000000000000000000000000000000000000000000127587PES00010000001000000000000000000000000
2020081200100101000000000000000117720000000000000001177280000000030-71127890-3LA CIUDADELA SRL              000000000208014000000000000000000000000000000000000000000000000000000000000000000000000000000000000000000000000000030467PES00010000001000000000000000000000000
2020081200100101000000000000000117730000000000000001177380000000030-69719570-6NEOCON S.A                    000000000230056000000000000000000000000000000000000000000000000000000000000000000000000000000000000000000000000000054352PES00010000001000000000000000000000000
2020081200100101000000000000000117740000000000000001177480000000020-25212419-6LUIS MARIO PETRELLI           000000000250053000000000000000000000000000000000000000000000000000000000000000000000000000000000000000000000000000052690PES00010000001000000000000000000000000
2020081200100101000000000000000117750000000000000001177580000000020-30770792-7ALDERETES JESUS OMAR          000000001119995000000000000000000000000000000000000000000000000000000000000000000000000000000000000000000000000000264606PES00010000001000000000000000000000000
2020081200100101000000000000000117760000000000000001177680000000020-30770792-7ALDERETES JESUS OMAR          000000000030003000000000000000000000000000000000000000000000000000000000000000000000000000000000000000000000000000007088PES00010000001000000000000000000000000
2020081200100101000000000000000117770000000000000001177780000000020-12148694-7DE FAVERI JORGE HUMB          000000000410040000000000000000000000000000000000000000000000000000000000000000000000000000000000000000000000000000060057PES00010000001000000000000000000000000
2020081200100101000000000000000117780000000000000001177880000000020-37956866-2ANGEL ARMANDO LAMAS           000000000100000000000000000000000000000000000000000000000000000000000000000000000000000000000000000000000000000000023626PES00010000001000000000000000000000000
2020081200100101000000000000000117790000000000000001177980000000030-71679180-3SERVICIOS AGRICOLAS           000000000100000000000000000000000000000000000000000000000000000000000000000000000000000000000000000000000000000000023626PES00010000001000000000000000000000000
2020081200100101000000000000000117800000000000000001178080000000020-17074172-3CASANAS JUAN FRANCIS          000000000050003000000000000000000000000000000000000000000000000000000000000000000000000000000000000000000000000000011813PES00010000001000000000000000000000000
2020081200100101000000000000000117810000000000000001178180000000020-10220067-6JOSE CUSSEDDU                 000000000418168000000000000000000000000000000000000000000000000000000000000000000000000000000000000000000000000000061247PES00010000001000000000000000000000000
2020081200100101000000000000000117820000000000000001178280000000023-23055085-9ALMIRON CESAR OSVALD          000000000280028000000000000000000000000000000000000000000000000000000000000000000000000000000000000000000000000000066159PES00010000001000000000000000000000000
2020081200100101000000000000000117830000000000000001178380000000030-71082817-9ASOC. CIVIL DEPORTIV          000000000159998000000000000000000000000000000000000000000000000000000000000000000000000000000000000000000000000000033714PES00010000001000000000000000000000000
2020081200100101000000000000000117840000000000000001178480000000020-12257853-5RAMON EDUARDO ALBORN          000000000149999000000000000000000000000000000000000000000000000000000000000000000000000000000000000000000000000000021969PES00010000001000000000000000000000000
2020081200100101000000000000000117850000000000000001178580000000030-52179790-4COOPERATIVA CAMPO DE          000000000010398000000000000000000000000000000000000000000000000000000000000000000000000000000000000000000000000000000125PES00010000001000000000000000000000000
2020081200100101000000000000000117860000000000000001178680000000033-70756067-9LA MARTINA SRL                000000000200002000000000000000000000000000000000000000000000000000000000000000000000000000000000000000000000000000029294PES00010000001000000000000000000000000
2020081200100101000000000000000117870000000000000001178780000000033-70756067-9LA MARTINA SRL                000000000050001000000000000000000000000000000000000000000000000000000000000000000000000000000000000000000000000000007323PES00010000001000000000000000000000000
2020081200100101000000000000000117880000000000000001178880000000027-94580760-7ORTEGA FERNANDEZ ANT          000000000410060000000000000000000000000000000000000000000000000000000000000000000000000000000000000000000000000000060059PES00010000001000000000000000000000000
2020081200100101000000000000000117890000000000000001178980000000033-62351012-9HILADOS SANTA MARIA           000000000480011000000000000000000000000000000000000000000000000000000000000000000000000000000000000000000000000000070305PES00010000001000000000000000000000000
2020081200100101000000000000000117900000000000000001179080000000020-27751095-3IBANEZ CLAUDIO LEONA          000000000024727000000000000000000000000000000000000000000000000000000000000000000000000000000000000000000000000000000297PES00010000001000000000000000000000000
2020081200100101000000000000000117910000000000000001179180000000020-27751095-3IBANEZ CLAUDIO LEONA          000000000174997000000000000000000000000000000000000000000000000000000000000000000000000000000000000000000000000000041344PES00010000001000000000000000000000000
2020081200100101000000000000000117920000000000000001179280000000027-26109611-6ACOSTA ELSA                   000000000299997000000000000000000000000000000000000000000000000000000000000000000000000000000000000000000000000000043938PES00010000001000000000000000000000000
2020081200100101000000000000000117930000000000000001179380000000030-71580681-5BUILDING WORD S.R.L           000000000250002000000000000000000000000000000000000000000000000000000000000000000000000000000000000000000000000000036616PES00010000001000000000000000000000000
2020081200100101000000000000000117940000000000000001179480000000020-21338968-9SILVA MARIO                   000000000060008000000000000000000000000000000000000000000000000000000000000000000000000000000000000000000000000000014178PES00010000001000000000000000000000000
2020081200100101000000000000000117950000000000000001179580000000020-27597936-9SUELDO RICARDO                000000000140024000000000000000000000000000000000000000000000000000000000000000000000000000000000000000000000000000029505PES00010000001000000000000000000000000
2020081200100101000000000000000117960000000000000001179680000000020-14448391-0PUCHULU RAMON JUAN            000000000099999000000000000000000000000000000000000000000000000000000000000000000000000000000000000000000000000000021072PES00010000001000000000000000000000000
2020081200100101000000000000000117970000000000000001179780000000020-16060000-5QUESADA JUAN CARLOS           000000000300005000000000000000000000000000000000000000000000000000000000000000000000000000000000000000000000000000043940PES00010000001000000000000000000000000
2020081200100101000000000000000117980000000000000001179880000000020-30208349-6POMO MATIAS ADOLFO            000000000199999000000000000000000000000000000000000000000000000000000000000000000000000000000000000000000000000000037623PES00010000001000000000000000000000000
2020081300100101000000000000000117990000000000000001179980000000020-17526448-6AGUERA JUAN ANTONIO           000000000023001000000000000000000000000000000000000000000000000000000000000000000000000000000000000000000000000000000276PES00010000001000000000000000000000000
2020081300100101000000000000000118000000000000000001180080000000030-71241922-5AGRO ALIANZA SA               000000000079999000000000000000000000000000000000000000000000000000000000000000000000000000000000000000000000000000018900PES00010000001000000000000000000000000
2020081300100101000000000000000118010000000000000001180180000000027-21745309-2ANA MARIA FIGUEROA            000000000135040000000000000000000000000000000000000000000000000000000000000000000000000000000000000000000000000000019779PES00010000001000000000000000000000000
2020081300100101000000000000000118020000000000000001180280000000027-26109611-6ACOSTA ELSA                   000000000149997000000000000000000000000000000000000000000000000000000000000000000000000000000000000000000000000000031607PES00010000001000000000000000000000000
2020081300100101000000000000000118030000000000000001180380000000030-71073553-7R.V INGENIERIA S.R.L          000000000012655000000000000000000000000000000000000000000000000000000000000000000000000000000000000000000000000000000152PES00010000001000000000000000000000000
2020081300100101000000000000000118040000000000000001180480000000030-64129024-2GUIDOLI FLORIO S.R.L          000000000149997000000000000000000000000000000000000000000000000000000000000000000000000000000000000000000000000000031607PES00010000001000000000000000000000000
2020081300100101000000000000000118050000000000000001180580000000023-31425959-9ZELARAYAN NICOLAS             000000000220005000000000000000000000000000000000000000000000000000000000000000000000000000000000000000000000000000046358PES00010000001000000000000000000000000
2020081300100101000000000000000118060000000000000001180680000000030-71412672-1ABC DISTRIBUCIONES            000000000270026000000000000000000000000000000000000000000000000000000000000000000000000000000000000000000000000000056899PES00010000001000000000000000000000000
2020081300100101000000000000000118070000000000000001180780000000020-22073895-8BUTELER GUSTAVO               000000000320007000000000000000000000000000000000000000000000000000000000000000000000000000000000000000000000000000075604PES00010000001000000000000000000000000
2020081300100101000000000000000118080000000000000001180880000000030-71507068-1AGRODESARROLLOS               000000000373026000000000000000000000000000000000000000000000000000000000000000000000000000000000000000000000000000054635PES00010000001000000000000000000000000
2020081300100101000000000000000118090000000000000001180980000000020-22073128-7MEDRANO VICTOR HUGO           000000000069997000000000000000000000000000000000000000000000000000000000000000000000000000000000000000000000000000010252PES00010000001000000000000000000000000
2020081300100101000000000000000118100000000000000001181080000000030-70866873-3REFRES NOW SA                 000000000270005000000000000000000000000000000000000000000000000000000000000000000000000000000000000000000000000000056895PES00010000001000000000000000000000000
2020081300100101000000000000000118110000000000000001181180000000030-71166811-6MC KREDIT S.R.L EN F          000000000035837000000000000000000000000000000000000000000000000000000000000000000000000000000000000000000000000000000430PES00010000001000000000000000000000000
2020081300100101000000000000000118120000000000000001181280000000020-27944884-8GALVEZ RODRIGO                000000000020254000000000000000000000000000000000000000000000000000000000000000000000000000000000000000000000000000000243PES00010000001000000000000000000000000
2020081300100101000000000000000118130000000000000001181380000000020-32437266-1RAMIRO REYES JEREZ            000000000053298000000000000000000000000000000000000000000000000000000000000000000000000000000000000000000000000000000640PES00010000001000000000000000000000000
2020081300100101000000000000000118140000000000000001181480000000020-26031683-5NASSER ROLANDO JAVIE          000000000022657000000000000000000000000000000000000000000000000000000000000000000000000000000000000000000000000000000272PES00010000001000000000000000000000000
2020081300100101000000000000000118150000000000000001181580000000020-26031683-5NASSER ROLANDO JAVIE          000000000100000000000000000000000000000000000000000000000000000000000000000000000000000000000000000000000000000000023626PES00010000001000000000000000000000000
2020081300100101000000000000000118160000000000000001181680000000030-70919420-4KINGBERRY S.A                 000000000230070000000000000000000000000000000000000000000000000000000000000000000000000000000000000000000000000000054355PES00010000001000000000000000000000000
2020081300100101000000000000000118170000000000000001181780000000030-71247881-7ALINOA SA                     000000000069161000000000000000000000000000000000000000000000000000000000000000000000000000000000000000000000000000000831PES00010000001000000000000000000000000
2020081300100101000000000000000118180000000000000001181880000000020-26304926-9PONCE PEDRO PABLO             000000000100000000000000000000000000000000000000000000000000000000000000000000000000000000000000000000000000000000023626PES00010000001000000000000000000000000
2020081300100101000000000000000118190000000000000001181980000000020-17040617-7TERAN JOSE LUCAS              000000000200002000000000000000000000000000000000000000000000000000000000000000000000000000000000000000000000000000029294PES00010000001000000000000000000000000
2020081300100101000000000000000118200000000000000001182080000000020-31549023-6LOBO JORGE AGUSTO             000000000199999000000000000000000000000000000000000000000000000000000000000000000000000000000000000000000000000000047251PES00010000001000000000000000000000000
2020081300100101000000000000000118210000000000000001182180000000030-70954591-0FINCAS GREYCO SRL             000000000069997000000000000000000000000000000000000000000000000000000000000000000000000000000000000000000000000000016538PES00010000001000000000000000000000000
2020081300100101000000000000000118220000000000000001182280000000030-70954591-0FINCAS GREYCO SRL             000000000199999000000000000000000000000000000000000000000000000000000000000000000000000000000000000000000000000000047251PES00010000001000000000000000000000000
2020081300100101000000000000000118230000000000000001182380000000020-22397578-0RODRIGUEZ JOSE RODOL          000000000099997000000000000000000000000000000000000000000000000000000000000000000000000000000000000000000000000000014646PES00010000001000000000000000000000000
2020081300100101000000000000000118240000000000000001182480000000030-71093835-7TEMAS INDUSTRIALES S          000000000300005000000000000000000000000000000000000000000000000000000000000000000000000000000000000000000000000000043940PES00010000001000000000000000000000000
2020081300100101000000000000000118250000000000000001182580000000020-21948147-1RISSO PATRON MIGUEL           000000000069997000000000000000000000000000000000000000000000000000000000000000000000000000000000000000000000000000016538PES00010000001000000000000000000000000
2020081300100101000000000000000118260000000000000001182680000000020-17494189-1GURAIIB EDUARDO               000000000535008000000000000000000000000000000000000000000000000000000000000000000000000000000000000000000000000000078360PES00010000001000000000000000000000000
2020081300100101000000000000000118270000000000000001182780000000020-31588418-8JUAN EMMANUEL PEREA           000000000050012000000000000000000000000000000000000000000000000000000000000000000000000000000000000000000000000000011816PES00010000001000000000000000000000000
2020081300100101000000000000000118280000000000000001182880000000030-71250884-8ESCALA PREMOLDEADOS           000000000100000000000000000000000000000000000000000000000000000000000000000000000000000000000000000000000000000000023626PES00010000001000000000000000000000000
2020081300100101000000000000000118290000000000000001182980000000030-70983380-0CONSULTORES INDUSTRI          000000000079999000000000000000000000000000000000000000000000000000000000000000000000000000000000000000000000000000018900PES00010000001000000000000000000000000
2020081300100101000000000000000118300000000000000001183080000000030-55778413-2GEBAL S.A                     000000000260007000000000000000000000000000000000000000000000000000000000000000000000000000000000000000000000000000038081PES00010000001000000000000000000000000
2020081300100101000000000000000118310000000000000001183180000000030-71571996-3ALTOS LA CELIA SRL            000000000430035000000000000000000000000000000000000000000000000000000000000000000000000000000000000000000000000000062984PES00010000001000000000000000000000000
2020081300100101000000000000000118320000000000000001183280000000020-31357313-4FERNANDO NICOLAS ZAR          000000000016003000000000000000000000000000000000000000000000000000000000000000000000000000000000000000000000000000000192PES00010000001000000000000000000000000
2020081300100101000000000000000118330000000000000001183380000000030-59284584-5CETROGAR S.A                  000000000059998000000000000000000000000000000000000000000000000000000000000000000000000000000000000000000000000000014174PES00010000001000000000000000000000000
2020081300100101000000000000000118340000000000000001183480000000020-20220054-1CARRASCO DANIEL EDUA          000000000350000000000000000000000000000000000000000000000000000000000000000000000000000000000000000000000000000000051263PES00010000001000000000000000000000000
2020081300100101000000000000000118350000000000000001183580000000030-71540063-0TSA ARGENTINA                 000000000015000000000000000000000000000000000000000000000000000000000000000000000000000000000000000000000000000000000180PES00010000001000000000000000000000000
2020081300100101000000000000000118360000000000000001183680000000030-71025163-7CONTROL INDUSTRIAL N          000000000050003000000000000000000000000000000000000000000000000000000000000000000000000000000000000000000000000000011813PES00010000001000000000000000000000000
2020081300100101000000000000000118370000000000000001183780000000020-31468482-7QUISPE ARIEL ALBERTO          000000000017000000000000000000000000000000000000000000000000000000000000000000000000000000000000000000000000000000000204PES00010000001000000000000000000000000
2020081300100101000000000000000118380000000000000001183880000000020-32235619-7PINTOR GUILLERMO MAT          000000000465037000000000000000000000000000000000000000000000000000000000000000000000000000000000000000000000000000068111PES00010000001000000000000000000000000
2020081300100101000000000000000118390000000000000001183980000000020-26011229-6ROMANO SERGIO RAUL            000000000499999000000000000000000000000000000000000000000000000000000000000000000000000000000000000000000000000000073232PES00010000001000000000000000000000000
2020081300100101000000000000000118400000000000000001184080000000030-71487511-2ELECTROMECANICA DEL           000000000050003000000000000000000000000000000000000000000000000000000000000000000000000000000000000000000000000000011813PES00010000001000000000000000000000000
2020081300100101000000000000000118410000000000000001184180000000033-71628331-9CEF GROUP SRL                 000000000430002000000000000000000000000000000000000000000000000000000000000000000000000000000000000000000000000000062980PES00010000001000000000000000000000000
2020081300100101000000000000000118420000000000000001184280000000030-71414895-41000 VER S.R.L                000000000200002000000000000000000000000000000000000000000000000000000000000000000000000000000000000000000000000000042143PES00010000001000000000000000000000000
2020081300100101000000000000000118430000000000000001184380000000020-25543065-4JOSE LUIS CESCA (COR          000000000390018000000000000000000000000000000000000000000000000000000000000000000000000000000000000000000000000000057124PES00010000001000000000000000000000000
2020081300100101000000000000000118440000000000000001184480000000020-24029923-3PINO GUSTAVO ARIEL            000000001979994000000000000000000000000000000000000000000000000000000000000000000000000000000000000000000000000000372469PES00010000001000000000000000000000000
2020081300100101000000000000000118450000000000000001184580000000020-37658174-9LAZARTE JUAN IGNACIO          000000000050003000000000000000000000000000000000000000000000000000000000000000000000000000000000000000000000000000011813PES00010000001000000000000000000000000
2020081400100101000000000000000118460000000000000001184680000000030-71050281-8KILOMETRO 14 SRL              000000000238133000000000000000000000000000000000000000000000000000000000000000000000000000000000000000000000000000029294PES00010000001000000000000000000000000
2020081400100101000000000000000118470000000000000001184780000000030-70919136-1EL LIMON SRL                  000000000255026000000000000000000000000000000000000000000000000000000000000000000000000000000000000000000000000000037352PES00010000001000000000000000000000000
2020081400100101000000000000000118480000000000000001184880000000030-71106494-6CENTRAL OUTDOOR SRL           000000000485033000000000000000000000000000000000000000000000000000000000000000000000000000000000000000000000000000071040PES00010000001000000000000000000000000
2020081400100101000000000000000118490000000000000001184980000000030-68569725-0CAMPODER SRL                  000000000147020000000000000000000000000000000000000000000000000000000000000000000000000000000000000000000000000000027656PES00010000001000000000000000000000000
