202007010010001100000000000000439724                8000000000030542851836ABC S.A                       000000002807264000000000000000000000000000000000000000067918000000000000000000000000000000000000000000000000000000000000PES00010000001000000000000000000000000000000000000000000                              000000000000000
202007010030001200000000000000143694                8000000000030542851836ABC S.A                       000000000072740000000000000000000000000000000000000000001760000000000000000000000000000000000000000000000000000000000000PES00010000001000000000000000000000000000000000000000000                              000000000000000
202007010010001200000000000000222882                8000000000030542851836ABC S.A                       000000003391920000000000000000000000000000000000000000082063000000000000000000000000000000000000000000000000000000000000PES00010000001000000000000000000000000000000000000000000                              000000000000000
202007010030000700000000000000003260                8000000000020133177249ROBERTO SANDOVAL              000000000052819000000000000000000000000000000000000000000000000000000000000000000000000000000000000000000000000000000000PES00010000001000000000000000000000000000000000000000000                              000000000000000
202007010010201900000000000000350448                8000000000030546689979YPF SA                        000000053711852000000000000000000000000000000000000001286511000000000000000000000000536050000000000000000000000000000000PES00010000001000000000000000000000000000000000000000000                              000000000000000
202007010010001200000000000000223513                8000000000030542851836ABC S.A                       000000010413008000000000000000000000000000000000000000251928000000000000000000000000000000000000000000000000000000000000PES00010000001000000000000000000000000000000000000000000                              000000000000000
202007010010001100000000000000443390                8000000000030542851836ABC S.A                       000000001270348000000000000000000000000000000000000000030734000000000000000000000000000000000000000000000000000000000000PES00010000001000000000000000000000000000000000000000000                              000000000000000
202007010010001300000000000000332902                8000000000030542851836ABC S.A                       000000000808133000000000000000000000000000000000000000019552000000000000000000000000000000000000000000000000000000000000PES00010000001000000000000000000000000000000000000000000                              000000000000000
202007010030100600000000000000011735                8000000000030547751252POTIGIAN GOLOSINAS SACIF      000000000170086000000000000000000000000000000000000000000000000000000000000000000000000000000000000000000000000000000000PES00010000001000000000000000000000000000000000000000000                              000000000000000
202007010030100600000000000000011747                8000000000030547751252POTIGIAN GOLOSINAS SACIF      000000000702513000000000000000000000000000000000000000016597000000000000000000000000000000000000000000000000000000016515PES00010000001000000000000000000000000000000000000000000                              000000000000000
202007010010201800000000000000122418                8000000000030546689979YPF SA                        000000000010921000000000000000000000000000000000000000000000000000000000000000000000000112000000000000000000000000000000PES00010000001000000000000000000000000000000000000000000                              000000000000000
202007010010100600000000000000106172                8000000000030547751252POTIGIAN GOLOSINAS SACIF      000000001928981000000000000000000000000000000000000000046669000000000000000000000000000000000000000000000000000000000000PES00010000001000000000000000000000000000000000000000000                              000000000000000
202007010010100600000000000000106173                8000000000030547751252POTIGIAN GOLOSINAS SACIF      000000002013653000000000000000000000000000000000000000048717000000000000000000000000000000000000000000000000000000000000PES00010000001000000000000000000000000000000000000000000                              000000000000000
202007010010509300000000000001735574                8000000000030518408689SALTA REFRESCOS S.A.          000000001092941000000000000000000000000000000000000000025750000000000000000000000000015254000000000000000000000000013358PES00010000001000000000000000000000000000000000000000000                              000000000000000
202007010010000300000000000000000376                8000000000020203703067VIERA MIGUEL ANTONIO          000000001128000000000000000000000000000000000000000000000000000000000000000000000000000000000000000000000000000000000000PES00010000001000000000000000000000000000000000000000000                              000000000000000
202007020010000100000000000000073211                8000000000030715422243DTS S.R.L.                    000000001037158000000000000000000000000000000000000000000000000000000000000000000000014786000000000000000000000000000000PES00010000001000000000000000000000000000000000000000000                              000000000000000
202007020010000100000000000000073212                8000000000030715422243DTS S.R.L.                    000000000053470000000000000000000000000000000000000000000000000000000000000000000000000000000000000000000000000000000000PES00010000001000000000000000000000000000000000000000000                              000000000000000
202007020010002100000000000000071052                8000000000030708796065SHARE OUT SRL                 000000001241270000000000000000000000000000000000000000000000000000000000000000000000049258000000000000000000000000000000PES00010000001000000000000000000000000000000000000000000                              000000000000000
202007020010000500000000000000000701                8000000000030716323567SIDETEC SRL                   000000000035870000000000000000000000000000000000000000000000000000000000000000000000000000000000000000000000000000000000PES00010000001000000000000000000000000000000000000000000                              000000000000000
202007020010807300000000000000838878                8000000000030707210385LA SERENISIMA S.A.            000000000252041000000000000000000000000000000000000000006013000000000000000000000000003508000000000000000000000000000000PES00010000001000000000000000000000000000000000000000000                              000000000000000
202007020010008000000000000000125235                8000000000030556381778JOSE V. PAOLETTI SRL          000000016431389000000000000000000000000000000000000000000000000000000000000000000000050954000000000000000000000012333577PES00010000001000000000000000000000000000000000000000000                              000000000000000
202007020010201900000000000000351076                8000000000030546689979YPF SA                        000000001111920000000000000000000000000000000000000000026633000000000000000000000000011097000000000000000000000000000000PES00010000001000000000000000000000000000000000000000000                              000000000000000
202007020010001200000000000000223647                8000000000030542851836ABC S.A                       000000000353399000000000000000000000000000000000000000008550000000000000000000000000000000000000000000000000000000000000PES00010000001000000000000000000000000000000000000000000                              000000000000000
202007020010000500000000000000001155                8000000000020342268111LA LLAVE FERRETERIA           000000000020000000000000000000000000000000000000000000000000000000000000000000000000000000000000000000000000000000000000PES00010000001000000000000000000000000000000000000000000                              000000000000000
202007030010509300000000000001736896                8000000000030518408689SALTA REFRESCOS S.A.          000000000509667000000000000000000000000000000000000000011745000000000000000000000000007150000000000000000000000000017042PES00010000001000000000000000000000000000000000000000000                              000000000000000
202007030010547400000000000000003964                8000000000030501112662BRITISH AMERICAN TABACCO      000000000963624000000000000000000000000000000000000000000000000000000000000000000000045887000000000000000000000000694404PES00010000001000000000000000000000000000000000000000000                              000000000000000
202007030010000700000000000000160832                8000000000020133177249ROBERTO SANDOVAL              000000001300151000000000000000000000000000000000000000000000000000000000000000000000000000000000000000000000000000000000PES00010000001000000000000000000000000000000000000000000                              000000000000000
202007030010000700000000000000160826                8000000000020133177249ROBERTO SANDOVAL              000000000053799000000000000000000000000000000000000000000000000000000000000000000000000000000000000000000000000000000000PES00010000001000000000000000000000000000000000000000000                              000000000000000
202007030010000700000000000000160833                8000000000020133177249ROBERTO SANDOVAL              000000000866245000000000000000000000000000000000000000000000000000000000000000000000000000000000000000000000000000000000PES00010000001000000000000000000000000000000000000000000                              000000000000000
202007030030201800000000000000079284                8000000000030546689979YPF SA                        000000000037417000000000000000000000000000000000000000000000000000000000000000000000000383000000000000000000000000000000PES00010000001000000000000000000000000000000000000000000                              000000000000000
202007030010000600000000000000000194                8000000000030716012413ANA MENDEZ DULCE Y SALADO     000000000659934000000000000000000000000000000000000000000000000000000000000000000000000000000000000000000000000000000000PES00010000001000000000000000000000000000000000000000000                              000000000000000
202007060010000700000000000000161020                8000000000020282237203ANDRETTA SEBASTIAN ALEJAN     000000000681804000000000000000000000000000000000000000000000000000000000000000000000000000000000000000000000000000000000PES00010000001000000000000000000000000000000000000000000                              000000000000000
202007060010000700000000000000161020                8000000000020133177249ROBERTO SANDOVAL              000000000725900000000000000000000000000000000000000000000000000000000000000000000000000000000000000000000000000000000000PES00010000001000000000000000000000000000000000000000000                              000000000000000
202007060010000700000000000000161021                8000000000020133177249ROBERTO SANDOVAL              000000000642790000000000000000000000000000000000000000000000000000000000000000000000000000000000000000000000000000000000PES00010000001000000000000000000000000000000000000000000                              000000000000000
202007060010009800000000000000087381                8000000000030657865725GASNOR S.A.                   000000042249098000000000058660000000000000000000000000977445000000000000000000000000570176000000000000000000000001219219PES00010000001000000000000000000000000000000000000000000                              000000000000000
202007060010509300000000000001738304                8000000000030518408689SALTA REFRESCOS S.A.          000000000911035000000000000000000000000000000000000000020463000000000000000000000000012852000000000000000000000000052375PES00010000001000000000000000000000000000000000000000000                              000000000000000
202007060010003900000000000000009307                8000000000030702355601NUEVO POLONORTE SRL           000000000642390000000000000000000000000000000000000000000000000000000000000000000000000000000000000000000000000000000000PES00010000001000000000000000000000000000000000000000000                              000000000000000
202007070010009700000000000050495809                8000000000030658650242EDET S.A.                     000000020216584000000001470529000000000000000000000000451847000000000000000000000000263577000000000000000000000000000000PES00010000001000000000000000000000000000000000000000000                              000000000000000
202007080010002100000000000000071246                8000000000030708796065SHARE OUT SRL                 000000001877211000000000000000000000000000000000000000000000000000000000000000000000074492000000000000000000000000000000PES00010000001000000000000000000000000000000000000000000                              000000000000000
202007080010509300000000000001739537                8000000000030518408689SALTA REFRESCOS S.A.          000000001080391000000000000000000000000000000000000000024572000000000000000000000000015200000000000000000000000000049561PES00010000001000000000000000000000000000000000000000000                              000000000000000
202007080010000500000000000000000762                8000000000030716323567SIDETEC SRL                   000000000661672000000000000000000000000000000000000000000000000000000000000000000000000000000000000000000000000000000000PES00010000001000000000000000000000000000000000000000000                              000000000000000
202007080030001200000000000000144634                8000000000030542851836ABC S.A                       000000000766887000000000000000000000000000000000000000018554000000000000000000000000000000000000000000000000000000000000PES00010000001000000000000000000000000000000000000000000                              000000000000000
202007080010001400000000000000203475                8000000000030707249850DISTRIBUIDORA FAR PEP SH      000000000188683000000000000000000000000000000000000000000000000000000000000000000000000000000000000000000000000000000000PES00010000001000000000000000000000000000000000000000000                              000000000000000
202007080010000300000000000000468783                8000000000033687473189PANINO SA                     000000005209693000000000000000000000000000000000000000000000000000000000000000000000000000000000000000000000000000000000PES00010000001000000000000000000000000000000000000000000                              000000000000000
202007080010100600000000000000108739                8000000000030547751252POTIGIAN GOLOSINAS SACIF      000000005258208000000000000000000000000000000000000000127215000000000000000000000000000000000000000000000000000000000000PES00010000001000000000000000000000000000000000000000000                              000000000000000
202007080010000300000000000000000685                8000000000027123184748MOLINA CELIA GRACIELA         000000000653400000000000000000000000000000000000000000000000000000000000000000000000000000000000000000000000000000000000PES00010000001000000000000000000000000000000000000000000                              000000000000000
202007080010088400000000000000026785                8000000000030507950848MOLINO CANUELAS S.A.C.I.F     000000000191363000000000000000000000000000000000000000000000000000000000000000000000006494000000000000000000000000000000PES00010000001000000000000000000000000000000000000000000                              000000000000000
202007080010088400000000000000026775                8000000000030507950848MOLINO CANUELAS S.A.C.I.F     000000002387699000000000000000000000000000000000000000055853000000000000000000000000079125000000000000000000000000000000PES00010000001000000000000000000000000000000000000000000                              000000000000000
202007090010100600000000000000108838                8000000000030547751252POTIGIAN GOLOSINAS SACIF      000000004601692000000000000000000000000000000000000000111165000000000000000000000000000000000000000000000000000000006860PES00010000001000000000000000000000000000000000000000000                              000000000000000
202007090030255000000000000000064795                8000000000030546689979YPF SA                        000000001286662000000000000000000000000000000000000000000000000000000000000000000000000000000000000000000000000000000000PES00010000001000000000000000000000000000000000000000000                              000000000000000
202007100010000700000000000000161592                8000000000020133177249ROBERTO SANDOVAL              000000000377668000000000000000000000000000000000000000000000000000000000000000000000000000000000000000000000000000000000PES00010000001000000000000000000000000000000000000000000                              000000000000000
202007100030255000000000000000065810                8000000000030546689979YPF SA                        000000000848948000000000000000000000000000000000000000000000000000000000000000000000000000000000000000000000000000000000PES00010000001000000000000000000000000000000000000000000                              000000000000000
202007100030255000000000000000067261                8000000000030546689979YPF SA                        000000001865426000000000000000000000000000000000000000000000000000000000000000000000000000000000000000000000000000000000PES00010000001000000000000000000000000000000000000000000                              000000000000000
202007100010000700000000000000161520                8000000000020133177249ROBERTO SANDOVAL              000000000390380000000000000000000000000000000000000000000000000000000000000000000000000000000000000000000000000000000000PES00010000001000000000000000000000000000000000000000000                              000000000000000
202007100010000700000000000000161543                8000000000020133177249ROBERTO SANDOVAL              000000000698215000000000000000000000000000000000000000000000000000000000000000000000000000000000000000000000000000000000PES00010000001000000000000000000000000000000000000000000                              000000000000000
202007110030255000000000000000068052                8000000000030546689979YPF SA                        000000006611750000000000000000000000000000000000000000000000000000000000000000000000000000000000000000000000000000000000PES00010000001000000000000000000000000000000000000000000                              000000000000000
202007110010547400000000000000004012                8000000000030501112662BRITISH AMERICAN TABACCO      000000001405859000000000000000000000000000000000000000007241000000000000000000000000066601000000000000000000000001039952PES00010000001000000000000000000000000000000000000000000                              000000000000000
202007110010001200000000000000042653                8000000000027275180993SARA BENCHIMOL                000000000260618000000000000000000000000000000000000000000000000000000000000000000000000000000000000000000000000000000000PES00010000001000000000000000000000000000000000000000000                              000000000000000
202007120010201800000000000000123399                8000000000030546689979YPF SA                        000000005839583000000000000000000000000000000000000000139870000000000000000000000000058279000000000000000000000000000000PES00010000001000000000000000000000000000000000000000000                              000000000000000
202007130010003900000000000000009369                8000000000030702355601NUEVO POLONORTE SRL           000000000439530000000000000000000000000000000000000000000000000000000000000000000000000000000000000000000000000000000000PES00010000001000000000000000000000000000000000000000000                              000000000000000
202007130010509300000000000001742023                8000000000030518408689SALTA REFRESCOS S.A.          000000001016708000000000000000000000000000000000000000023585000000000000000000000000014241000000000000000000000000027636PES00010000001000000000000000000000000000000000000000000                              000000000000000
202007130010000400000000000000002532                8000000000020282237203ANDRETTA SEBASTIAN ALEJAN     000000001279213000000000000000000000000000000000000000000000000000000000000000000000000000000000000000000000000000000000PES00010000001000000000000000000000000000000000000000000                              000000000000000
202007140030255000000000000000070057                8000000000030546689979YPF SA                        000000010620000000000000000000000000000000000000000000000000000000000000000000000000000000000000000000000000000000000000PES00010000001000000000000000000000000000000000000000000                              000000000000000
202007140030255000000000000000069913                8000000000030546689979YPF SA                        000000000870000000000000000000000000000000000000000000000000000000000000000000000000000000000000000000000000000000000000PES00010000001000000000000000000000000000000000000000000                              000000000000000
202007140010000700000000000000161906                8000000000020133177249ROBERTO SANDOVAL              000000000274059000000000000000000000000000000000000000000000000000000000000000000000000000000000000000000000000000000000PES00010000001000000000000000000000000000000000000000000                              000000000000000
202007140010000700000000000000161907                8000000000020133177249ROBERTO SANDOVAL              000000000646946000000000000000000000000000000000000000000000000000000000000000000000000000000000000000000000000000000000PES00010000001000000000000000000000000000000000000000000                              000000000000000
202007150010000500000000000000000795                8000000000030716323567SIDETEC SRL                   000000000246592000000000000000000000000000000000000000000000000000000000000000000000000000000000000000000000000000000000PES00010000001000000000000000000000000000000000000000000                              000000000000000
202007150010100600000000000000110181                8000000000030547751252POTIGIAN GOLOSINAS SACIF      000000000000012000000000000000000000000000000000000000000000000000000000000000000000000000000000000000000000000000000000PES00010000001000000000000000000000000000000000000000000                              000000000000000
202007150010100600000000000000110180                8000000000030547751252POTIGIAN GOLOSINAS SACIF      000000010294280000000000000000000000000000000000000000249055000000000000000000000000000000000000000000000000000000000000PES00010000001000000000000000000000000000000000000000000                              000000000000000
202007150010100600000000000000110187                8000000000030547751252POTIGIAN GOLOSINAS SACIF      000000006499449000000000000000000000000000000000000000156713000000000000000000000000000000000000000000000000000000021991PES00010000001000000000000000000000000000000000000000000                              000000000000000
202007150010088400000000000000026914                8000000000030507950848MOLINO CANUELAS S.A.C.I.F     000000001515645000000000035453000000000000000000000000000000000000000000000000000000050226000000000000000000000000000000PES00010000001000000000000000000000000000000000000000000                              000000000000000
202007150030000700000000000000003338                8000000000020133177249ROBERTO SANDOVAL              000000000037489000000000000000000000000000000000000000000000000000000000000000000000000000000000000000000000000000000000PES00010000001000000000000000000000000000000000000000000                              000000000000000
202007160010000100000000000000074862                8000000000030715422243DTS S.R.L.                    000000000716017000000000000000000000000000000000000000000000000000000000000000000000010208000000000000000000000000000000PES00010000001000000000000000000000000000000000000000000                              000000000000000
202007160010002100000000000000071486                8000000000030708796065SHARE OUT SRL                 000000001183688000000000000000000000000000000000000000000000000000000000000000000000046972000000000000000000000000000000PES00010000001000000000000000000000000000000000000000000                              000000000000000
202007160010002100000000000000071485                8000000000030708796065SHARE OUT SRL                 000000001529226000000000000000000000000000000000000000000000000000000000000000000000060684000000000000000000000000000000PES00010000001000000000000000000000000000000000000000000                              000000000000000
202007160010001200000000000000224343                8000000000030542851836ABC S.A                       000000003678831000000000000000000000000000000000000000089004000000000000000000000000000000000000000000000000000000000000PES00010000001000000000000000000000000000000000000000000                              000000000000000
202007160010807300000000000000844932                8000000000030707210385LA SERENISIMA S.A.            000000000263283000000000000000000000000000000000000000006281000000000000000000000000003664000000000000000000000000000000PES00010000001000000000000000000000000000000000000000000                              000000000000000
202007160010002000000000000000085287                8000000000030709442399PUNTO DE VENTA SRL            000000000177853000000000000000000000000000000000000000000000000000000000000000000000000000000000000000000000000000000000PES00010000001000000000000000000000000000000000000000000                              000000000000000
202007160010001400000000000000204325                8000000000030707249850DISTRIBUIDORA FAR PEP SH      000000000129122000000000000000000000000000000000000000000000000000000000000000000000000000000000000000000000000000000000PES00010000001000000000000000000000000000000000000000000                              000000000000000
202007160010008000000000000000126690                8000000000030556381778JOSE V. PAOLETTI SRL          000000007595610000000000000000000000000000000000000000000000000000000000000000000000023544000000000000000000000005683983PES00010000001000000000000000000000000000000000000000000                              000000000000000
202007170010000700000000000000001192                8000000000020133177249ROBERTO SANDOVAL              000000000401592000000000000000000000000000000000000000000000000000000000000000000000000000000000000000000000000000000000PES00010000001000000000000000000000000000000000000000000                              000000000000000
202007170010000700000000000000162401                8000000000020133177249ROBERTO SANDOVAL              000000000552107000000000000000000000000000000000000000000000000000000000000000000000000000000000000000000000000000000000PES00010000001000000000000000000000000000000000000000000                              000000000000000
202007170010509300000000000001744683                8000000000030518408689SALTA REFRESCOS S.A.          000000001414780000000000000000000000000000000000000000032118000000000000000000000000019912000000000000000000000000067305PES00010000001000000000000000000000000000000000000000000                              000000000000000
202007170030201800000000000000080055                8000000000030546689979YPF SA                        000000000782946000000000000000000000000000000000000000018753000000000000000000000000007814000000000000000000000000000000PES00010000001000000000000000000000000000000000000000000                              000000000000000
202007170010547400000000000000004073                8000000000030501112662BRITISH AMERICAN TABACCO      000000000735505000000000000000000000000000000000000000000000000000000000000000000000035024000000000000000000000000526819PES00010000001000000000000000000000000000000000000000000                              000000000000000
202007170010201900000000000000352499                8000000000030546689979YPF SA                        000000009034533000000000000000000000000000000000000000216396000000000000000000000000090165000000000000000000000000000000PES00010000001000000000000000000000000000000000000000000                              000000000000000
202007180010000500000000000000001174                8000000000020342268111LA LLAVE FERRETERIA           000000000053000000000000000000000000000000000000000000000000000000000000000000000000000000000000000000000000000000000000PES00010000001000000000000000000000000000000000000000000                              000000000000000
202007200010000400000000000000002573                8000000000020282237203ANDRETTA SEBASTIAN ALEJAN     000000001259424000000000000000000000000000000000000000000000000000000000000000000000000000000000000000000000000000000000PES00010000001000000000000000000000000000000000000000000                              000000000000000
202007200010509300000000000001746162                8000000000030518408689SALTA REFRESCOS S.A.          000000000844581000000000000000000000000000000000000000018957000000000000000000000000011917000000000000000000000000049107PES00010000001000000000000000000000000000000000000000000                              000000000000000
202007210010000500000000000000000818                8000000000030716323567SIDETEC SRL                   000000001234614000000000000000000000000000000000000000000000000000000000000000000000000000000000000000000000000000000000PES00010000001000000000000000000000000000000000000000000                              000000000000000
202007210010000700000000000000162742                8000000000020133177249ROBERTO SANDOVAL              000000000508582000000000000000000000000000000000000000000000000000000000000000000000000000000000000000000000000000000000PES00010000001000000000000000000000000000000000000000000                              000000000000000
202007210010000700000000000000162741                8000000000020133177249ROBERTO SANDOVAL              000000000216566000000000000000000000000000000000000000000000000000000000000000000000000000000000000000000000000000000000PES00010000001000000000000000000000000000000000000000000                              000000000000000
202007210010000700000000000000162743                8000000000020133177249ROBERTO SANDOVAL              000000000638322000000000000000000000000000000000000000000000000000000000000000000000000000000000000000000000000000000000PES00010000001000000000000000000000000000000000000000000                              000000000000000
202007210010003900000000000000009497                8000000000030702355601NUEVO POLONORTE SRL           000000000540961000000000000000000000000000000000000000000000000000000000000000000000000000000000000000000000000000000000PES00010000001000000000000000000000000000000000000000000                              000000000000000
202007220010100600000000000000112714                8000000000030547751252POTIGIAN GOLOSINAS SACIF      000000001756569000000000000000000000000000000000000000041977000000000000000000000000000000000000000000000000000000021516PES00010000001000000000000000000000000000000000000000000                              000000000000000
202007220010100600000000000000112799                8000000000030518408689SALTA REFRESCOS S.A.          000000003935268000000000000000000000000000000000000000095208000000000000000000000000000000000000000000000000000000000000PES00010000001000000000000000000000000000000000000000000                              000000000000000
202007220010100600000000000000112799                8000000000030547751252POTIGIAN GOLOSINAS SACIF      000000003935268000000000000000000000000000000000000000095208000000000000000000000000000000000000000000000000000000000000PES00010000001000000000000000000000000000000000000000000                              000000000000000
202007220010100600000000000000112775                8000000000030547751252POTIGIAN GOLOSINAS SACIF      000000003571691000000000000000000000000000000000000000086412000000000000000000000000000000000000000000000000000000000000PES00010000001000000000000000000000000000000000000000000                              000000000000000
202007220010000500000000000000469537                8000000000033687473189PANINO SA                     000000007691571000000000000000000000000000000000000000000000000000000000000000000000000000000000000000000000000000000000PES00010000001000000000000000000000000000000000000000000                              000000000000000
202007230010002100000000000000071732                8000000000030708796065SHARE OUT SRL                 000000001666297000000000000000000000000000000000000000000000000000000000000000000000066124000000000000000000000000000000PES00010000001000000000000000000000000000000000000000000                              000000000000000
202007230010002100000000000000071733                8000000000030708796065SHARE OUT SRL                 000000001730083000000000000000000000000000000000000000000000000000000000000000000000069263000000000000000000000000000000PES00010000002000000000000000000000000000000000000000000                              000000000000000
202007230010000100000000000000075889                8000000000030715422243DTS S.R.L.                    000000000166835000000000000000000000000000000000000000000000000000000000000000000000000000000000000000000000000000000000PES00010000001000000000000000000000000000000000000000000                              000000000000000
202007230010008000000000000000127436                8000000000030556381778JOSE V. PAOLETTI SRL          000000001345637000000000000000000000000000000000000000000000000000000000000000000000004176000000000000000000000001014949PES00010000001000000000000000000000000000000000000000000                              000000000000000
202007230010088400000000000000027124                8000000000030507950848MOLINO CANUELAS S.A.C.I.F     000000001471578000000000000000000000000000000000000000034423000000000000000000000000048766000000000000000000000000000000PES00010000001000000000000000000000000000000000000000000                              000000000000000
202007230010080700000000000000848642                8000000000030707210385LA SERENISIMA S.A.            000000000792356000000000000000000000000000000000000000018903000000000000000000000000011027000000000000000000000000000000PES00010000001000000000000000000000000000000000000000000                              000000000000000
202007230010201800000000000000125272                8000000000030546689979YPF SA                        000000012211058000000000000000000000000000000000000000292480000000000000000000000000121867000000000000000000000000000000PES00010000001000000000000000000000000000000000000000000                              000000000000000
202007230010001300000000000000000038                8000000000020286802312COMOTTI:PASTA.PIZZA Y POS     000000000720000000000000000000000000000000000000000000000000000000000000000000000000000000000000000000000000000000000000PES00010000001000000000000000000000000000000000000000000                              000000000000000
202007240010547400000000000000004140                8000000000030501112662BRITISH AMERICAN TABACCO      000000000813498000000000000000000000000000000000000000000000000000000000000000000000038738000000000000000000000000589507PES00010000001000000000000000000000000000000000000000000                              000000000000000
202007240010000700000000000000163280                8000000000020133177249ROBERTO SANDOVAL              000000000218756000000000000000000000000000000000000000000000000000000000000000000000000000000000000000000000000000000000PES00010000001000000000000000000000000000000000000000000                              000000000000000
202007240010000700000000000000163281                8000000000020133177249ROBERTO SANDOVAL              000000000448219000000000000000000000000000000000000000000000000000000000000000000000000000000000000000000000000000000000PES00010000001000000000000000000000000000000000000000000                              000000000000000
202007240010509300000000000001748868                8000000000030518408689SALTA REFRESCOS S.A.          000000001029579000000000000000000000000000000000000000023355000000000000000000000000014494000000000000000000000000049762PES00010000001000000000000000000000000000000000000000000                              000000000000000
202007270010201800000000000000126356                8000000000030546689979YPF SA                        000000001536640000000000000000000000000000000000000000036806000000000000000000000000015336000000000000000000000000000000PES00010000001000000000000000000000000000000000000000000                              000000000000000
202007270010509300000000000001750272                8000000000030518408689SALTA REFRESCOS S.A.          000000000753480000000000000000000000000000000000000000016860000000000000000000000000010639000000000000000000000000045948PES00010000001000000000000000000000000000000000000000000                              000000000000000
202007270010000400000000000000002607                8000000000020282237203ANDRETTA SEBASTIAN ALEJAN     000000001952643000000000000000000000000000000000000000000000000000000000000000000000000000000000000000000000000000000000PES00010000001000000000000000000000000000000000000000000                              000000000000000
202007270010003900000000000000009587                8000000000030702355601NUEVO POLONORTE SRL           000000000473341000000000000000000000000000000000000000000000000000000000000000000000000000000000000000000000000000000000PES00010000001000000000000000000000000000000000000000000                              000000000000000
202007270010001400000000000000205191                8000000000030707249850DISTRIBUIDORA FAR PEP SH      000000000305687000000000000000000000000000000000000000000000000000000000000000000000000000000000000000000000000000000000PES00010000001000000000000000000000000000000000000000000                              000000000000000
202007280010000700000000000000163587                8000000000020133177249ROBERTO SANDOVAL              000000000672255000000000000000000000000000000000000000000000000000000000000000000000000000000000000000000000000000000000PES00010000001000000000000000000000000000000000000000000                              000000000000000
202007280010000700000000000000163588                8000000000020133177249ROBERTO SANDOVAL              000000000348184000000000000000000000000000000000000000000000000000000000000000000000000000000000000000000000000000000000PES00010000001000000000000000000000000000000000000000000                              000000000000000
202007290010088400000000000000027298                8000000000030507950848MOLINO CANUELAS S.A.C.I.F     000000002322559000000000000000000000000000000000000000054329000000000000000000000000076966000000000000000000000000000000PES00010000001000000000000000000000000000000000000000000                              000000000000000
202007290010000300000000000000000792                8000000000020249829898DUMA DISTRIBUCIONES           000000003519171000000000000000000000000000000000000000000000000000000000000000000000000000000000000000000000000000000000PES00010000001000000000000000000000000000000000000000000                              000000000000000
202007290010100600000000000000114973                8000000000030547751252POTIGIAN GOLOSINAS SACIF      000000006983216000000000000000000000000000000000000000168949000000000000000000000000000000000000000000000000000000000000PES00010000001000000000000000000000000000000000000000000                              000000000000000
202007290030807300000000000000053810                8000000000030707210385LA SERENISIMA S.A.            000000000064927000000000000000000000000000000000000000000000000000000000000000000000000000000000000000000000000000000000PES00010000001000000000000000000000000000000000000000000                              000000000000000
202007290010100600000000000000114965                8000000000030547751252POTIGIAN GOLOSINAS SACIF      000000001533708000000000000000000000000000000000000000036187000000000000000000000000000000000000000000000000000000037961PES00010000001000000000000000000000000000000000000000000                              000000000000000
202007290010100600000000000000114966                8000000000030547751252POTIGIAN GOLOSINAS SACIF      000000001335972000000000000000000000000000000000000000032322000000000000000000000000000000000000000000000000000000000000PES00010000001000000000000000000000000000000000000000000                              000000000000000
202007290010000300000000000000470008                8000000000033687473189PANINO SA                     000000005589449000000000000000000000000000000000000000000000000000000000000000000000000000000000000000000000000000000000PES00010000001000000000000000000000000000000000000000000                              000000000000000
202007300030255000000000000000079408                8000000000030546689979YPF SA                        000000004908450000000000000000000000000000000000000000000000000000000000000000000000000000000000000000000000000000000000PES00010000001000000000000000000000000000000000000000000                              000000000000000
202007300010000200000000000000000073                8000000000027160911080CLELIA ESTHER GUILLEN         000000000670000000000000000000000000000000000000000000000000000000000000000000000000000000000000000000000000000000000000PES00010000001000000000000000000000000000000000000000000                              000000000000000
202007300010001400000000000000205855                8000000000030707249850DISTRIBUIDORA FAR PEP SH      000000000246126000000000000000000000000000000000000000000000000000000000000000000000000000000000000000000000000000000000PES00010000001000000000000000000000000000000000000000000                              000000000000000
202007300010000100000000000000076803                8000000000030715422243DTS S.R.L.                    000000000376425000000000000000000000000000000000000000000000000000000000000000000000005367000000000000000000000000000000PES00010000001000000000000000000000000000000000000000000                              000000000000000
202007300010008000000000000000128243                8000000000030556381778JOSE V. PAOLETTI SRL          000000002989985000000000000000000000000000000000000000000000000000000000000000000000009288000000000000000000000002272053PES00010000001000000000000000000000000000000000000000000                              000000000000000
202007300010002100000000000000071959                8000000000030708796065SHARE OUT SRL                 000000003280953000000000000000000000000000000000000000000000000000000000000000000000130199000000000000000000000000000000PES00010000001000000000000000000000000000000000000000000                              000000000000000
202007300010002900000000000000044120                8000000000030677762345AXIS LOGISTICA SA             000000004981598000000000000000000000000000000000000000120523000000000000000000000000000000000000000000000000000000000000PES00010000001000000000000000000000000000000000000000000                              000000000000000
202007300010807300000000000000852262                8000000000030707210385LA SERENISIMA S.A.            000000000325793000000000000000000000000000000000000000007772000000000000000000000000004534000000000000000000000000000000PES00010000001000000000000000000000000000000000000000000                              000000000000000
202007310030255000000000000000080317                8000000000030546689979YPF SA                        000000002478322000000000000000000000000000000000000000000000000000000000000000000000000000000000000000000000000000000000PES00010000001000000000000000000000000000000000000000000                              000000000000000
202007310030255000000000000000081422                8000000000030546689979YPF SA                        000000014495000000000000000000000000000000000000000000000000000000000000000000000000000000000000000000000000000000000000PES00010000001000000000000000000000000000000000000000000                              000000000000000
202007310010509300000000000001752735                8000000000030518408689SALTA REFRESCOS S.A.          000000000812633000000000000000000000000000000000000000018327000000000000000000000000011454000000000000000000000000043675PES00010000001000000000000000000000000000000000000000000                              000000000000000
202007310010547400000000000000004207                8000000000030501112662BRITISH AMERICAN TABACCO      000000000360155000000000000000000000000000000000000000000000000000000000000000000000017150000000000000000000000000268338PES00010000001000000000000000000000000000000000000000000                              000000000000000
202007310010003000000000000000001333                8000000000030707964053COMPANIA DE NEGOCIOS S.A.     000000000446590000000000000000000000000000000000000000000000000000000000000000000000000000000000000000000000000000000000PES00010000001000000000000000000000000000000000000000000                              000000000000000
202007310010010900000000000000000025                8000000000030546689979YPF SA                        000002299131732000000451640112000000000000000000000000000000000000000000000000000000000000000000000000000000000039848835PES00010000001000000000000000000000000000000000000000000                              000000000000000
