202011010030255000000000000000124755                8000000000030546689979YPF SA                        000000005360900000000000000000000000000000000000000000000000000000000000000000000000000000000000000000000000000000000000PES00010000001000000000093040400000000000000000000000000                              000000000000000
202011010030201800000000000000089400                8000000000030546689979YPF SA                        000000001080730000000000000000000000000000000000000000000000000000000000000000000000010786000000000025886000000000000000PES00010000001000000000018120000000000000000000000000000                              000000000000000
202011010030201800000000000000088997                8000000000030546689979YPF SA                        000000001806403000000000000000000000000000000000000000000000000000000000000000000000018028000000000043267000000000000000PES00010000001000000000030287000000000000000000000000000                              000000000000000
202011020010003900000000000000010779                8000000000030702355601NUEVO POLONORTE SRL           000000001096000000000000000000000000000000000000000000000000000000000000000000000000000000000000000000000000000000000000PES00010000001000000000019021500000000000000000000000000                              000000000000000
202011020010000700000000000000174793                8000000000020133177249ROBERTO SANDOVAL              000000000479345000000000000000000000000000000000000000000000000000000000000000000000000000000000000000000000000000000000PES00010000001000000000008319200000000000000000000000000                              000000000000000
202011020010000700000000000000174783                8000000000020133177249ROBERTO SANDOVAL              000000001705366000000000000000000000000000000000000000000000000000000000000000000000000000000000000000000000000000000000PES00010000001000000000029597300000000000000000000000000                              000000000000000
202011020010201800000000000000138024                8000000000030546689979YPF SA                        000000002081576000000000000000000000000000000000000000000000000000000000000000000000020774000000000049858000000000000000PES00010000001000000000034900700000000000000000000000000                              000000000000000
202011020010000400000000000000003007                8000000000020282237203ANDRETTA SEBASTIAN ALEJAN     000000001913555000000000000000000000000000000000000000000000000000000000000000000000000000000000000000000000000000000000PES00010000001000000000033210500000000000000000000000000                              000000000000000
202011030010000900000000000000006497                8000000000027060678443VICTORIA DEL CARMEN CACER     000000000265000000000000000000000000000000000000000000000000000000000000000000000000000000000000000000000000000000000000PES00010000001000000000004599200000000000000000000000000                              000000000000000
202011030030217200000000000000004156                8000000000030546689979YPF SA                        000000000682792000000000000000000000000000000000000000000000000000000000000000000000011102000000000000000000000000000000PES00010000001000000000011657500000000000000000000000000                              000000000000000
202011030030217200000000000000004157                8000000000030546689979YPF SA                        000000000647038000000000000000000000000000000000000000000000000000000000000000000000005888000000000000000000000000000000PES00010000001000000000011127500000000000000000000000000                              000000000000000
202011030030217200000000000000004158                8000000000030546689979YPF SA                        000000000021963000000000000000000000000000000000000000000000000000000000000000000000000000000000000000000000000000000000PES00010000001000000000000381200000000000000000000000000                              000000000000000
202011030010100600000000000000144750                8000000000030547751252POTIGIAN GOLOSINAS SACIF      000000000054965000000000000000000000000000000000000000000000000000000000000000000000000000000000000000000000000000000000PES00010000001000000000000953900000000000000000000000000                              000000000000000
202011040010002900000000000000046824                8000000000030677762345AXIS LOGISTICA SA             000000006032981000000000000000000000000000000000000000000000000000000000000000000000145960000000000000000000000000000000PES00010000001000000000102171400000000000000000000000000                              000000000000000
202011040010002900000000000000046840                8000000000030677762345AXIS LOGISTICA SA             000000000847941000000000000000000000000000000000000000000000000000000000000000000000020515000000000000000000000000000000PES00010000001000000000014360300000000000000000000000000                              000000000000000
202011040010000200000000000000000006                8000000000020207599620CASTRO SERGIO ADALBERTO       000000000400002000000000000000000000000000000000000000000000000000000000000000000000000000000000000000000000000000000000PES00010000001000000000006942200000000000000000000000000                              000000000000000
202011040010000300000000000000479025                8000000000033687473189PANINO SA                     000000007669452000000000000000000000000000000000000000000000000000000000000000000000000000000000000000000000000000000000PES00010000001000000000133106200000000000000000000000000                              000000000000000
202011040010100600000000000000145320                8000000000030547751252POTIGIAN GOLOSINAS SACIF      000000005137289000000000000000000000000000000000000000000000000000000000000000000000000000000000000123700000000000024342PES00010000001000000000086590200000000000000000000000000                              000000000000000
202011040010509300000000000001805324                8000000000030518408689SALTA REFRESCOS S.A.          000000001367548000000000000000000000000000000000000000000000000000000000000000000000019241000000000031089000000000063299PES00010000001000000000021762200000000000000000000000000                              000000000000000
202011040010100600000000000000145316                8000000000030547751252POTIGIAN GOLOSINAS SACIF      000000004577541000000000000000000000000000000000000000000000000000000000000000000000000000000000000110747000000000000000PES00010000001000000000077522900000000000000000000000000                              000000000000000
202011040010088400000000000000029903                8000000000030507950848MOLINO CANUELAS S.A.C.I.F     000000001003668000000000000000000000000000000000000000000000000000000000000000000000033260000000000023478000000000000000PES00010000001000000000016434300000000000000000000000000                              000000000000000
202011050010008000000000000000138339                8000000000030556381778JOSE V. PAOLETTI SRL          000000002312498000000000000000000000000000000000000000000000000000000000000000000000007160000000000000000000000001716731PES00010000001000000000010215500000000000000000000000000                              000000000000000
202011050010807300000000000000899829                8000000000030707210385LA SERENISIMA S.A.            000000000506675000000000000000000000000000000000000000000000000000000000000000000000007051000000000012088000000000000000PES00010000001000000000008461400000000000000000000000000                              000000000000000
202011050010001100000000000000462243                8000000000030542851836ABC S.A                       000000002615433000000000000000000000000000000000000000000000000000000000000000000000000000000000000063277000000000000000PES00010000001000000000044293600000000000000000000000000                              000000000000000
202011050010000100000000000000089509                8000000000030715422243DTS S.R.L.                    000000000611847000000000000000000000000000000000000000000000000000000000000000000000008723000000000000000000000000000000PES00010000001000000000010467500000000000000000000000000                              000000000000000
202011050010002100000000000000074427                8000000000030708796065SHARE OUT SRL                 000000002919275000000000000000000000000000000000000000000000000000000000000000000000115845000000000000000000000000000000PES00010000001000000000048654600000000000000000000000000                              000000000000000
202011050010000500000000000000001495                8000000000030716323567SIDETEC SRL                   000000000637752000000000000000000000000000000000000000000000000000000000000000000000000000000000000000000000000000000000PES00010000001000000000011068400000000000000000000000000                              000000000000000
202011050010001400000000000000216601                8000000000030707249850DISTRIBUIDORA FAR PEP SH      000000000273881000000000000000000000000000000000000000000000000000000000000000000000000000000000000000000000000000000000PES00010000001000000000004753300000000000000000000000000                              000000000000000
202011050010000900000000000000006507                8000000000027060678443VICTORIA DEL CARMEN CACER     000000000633000000000000000000000000000000000000000000000000000000000000000000000000000000000000000000000000000000000000PES00010000001000000000010985900000000000000000000000000                              000000000000000
202011050010000100000000000000001164                8000000000027181590977BOXES NEUMATICOS Y SERVIC     000000000117999000000000000000000000000000000000000000000000000000000000000000000000000000000000000000000000000000000000PES00010000001000000000002047900000000000000000000000000                              000000000000000
202011050010001200000000000000230383                8000000000030542851836ABC S.A                       000000008140298000000000000000000000000000000000000000000000000000000000000000000000000000000000000196943000000000000000PES00010000001000000000137859900000000000000000000000000                              000000000000000
202011050010009600000000000000016160                8000000000030657865725GASNOR S.A.                   000000045372117000000000058620000000000000000000000000000000000000000000000000000000612299000000001049655000000001315409PES00010000001000000000734758700000000000000000000000000                              000000000000000
202011050010001500000000000000000023                8000000000030716269880COMOTTI:PASTAS. PIZZAS Y      000000000199989000000000000000000000000000000000000000000000000000000000000000000000000000000000000000000000000000000000PES00010000001000000000003470900000000000000000000000000                              000000000000000
202011050010000300000000000000000824                8000000000020249829898DUMA DISTRIBUCIONES           000000002229691000000000000000000000000000000000000000000000000000000000000000000000000000000000000000000000000000000000PES00010000001000000000038697100000000000000000000000000                              000000000000000
202011060010547400000000000000005052                8000000000030501112662BRITISH AMERICAN TABACCO      000000003508319000000000000000000000000000000000000000000000000000000000000000000000166143000000000019322000000002543544PES00010000001000000000013525200000000000000000000000000                              000000000000000
202011060010001100000000000000462381                8000000000030542851836ABC S.A                       000000000436196000000000000000000000000000000000000000000000000000000000000000000000000000000000000010553000000000000000PES00010000001000000000007387200000000000000000000000000                              000000000000000
202011060010000700000000000000175336                8000000000020133177249ROBERTO SANDOVAL              000000000244569000000000000000000000000000000000000000000000000000000000000000000000000000000000000000000000000000000000PES00010000001000000000004244600000000000000000000000000                              000000000000000
202011070010509300000000000001807567                8000000000030518408689SALTA REFRESCOS S.A.          000000001495520000000000000000000000000000000000000000000000000000000000000000000000021030000000000034094000000000065284PES00010000001000000000023865600000000000000000000000000                              000000000000000
202011090010000400000000000000004524                8000000000030694616484RIEGO INTEGRAL SA             000000000269242000000000000000000000000000000000000000000000000000000000000000000000000000000000000000000000000000000000PES00010000002000000000004472200000000000000000000000000                              000000000000000
202011090010003900000000000000010864                8000000000030702355601NUEVO POLONORTE SRL           000000000972999000000000000000000000000000000000000000000000000000000000000000000000000000000000000000000000000000000000PES00010000001000000000016886800000000000000000000000000                              000000000000000
202011090010000400000000000000003053                8000000000020282237203ANDRETTA SEBASTIAN ALEJAN     000000001251892000000000000000000000000000000000000000000000000000000000000000000000000000000000000000000000000000000000PES00010000001000000000021727100000000000000000000000000                              000000000000000
202011090010000700000000000000175495                8000000000020133177249ROBERTO SANDOVAL              000000000431988000000000000000000000000000000000000000000000000000000000000000000000000000000000000000000000000000000000PES00010000001000000000007497300000000000000000000000000                              000000000000000
202011090010000700000000000000175496                8000000000020133177249ROBERTO SANDOVAL              000000000585281000000000000000000000000000000000000000000000000000000000000000000000000000000000000000000000000000000000PES00010000001000000000010157800000000000000000000000000                              000000000000000
202011100030217200000000000000005134                8000000000030546689979YPF SA                        000000000589687000000000000000000000000000000000000000000000000000000000000000000000011937000000000000000000000000000000PES00010000001000000000010027100000000000000000000000000                              000000000000000
202011100030217200000000000000005133                8000000000030546689979YPF SA                        000000000796873000000000000000000000000000000000000000000000000000000000000000000000013247000000000000000000000000000000PES00010000001000000000013600100000000000000000000000000                              000000000000000
202011100030217200000000000000005132                8000000000030546689979YPF SA                        000000000449215000000000000000000000000000000000000000000000000000000000000000000000009093000000000000000000000000000000PES00010000001000000000007638500000000000000000000000000                              000000000000000
202011100030217200000000000000005131                8000000000030546689979YPF SA                        000000000268676000000000000000000000000000000000000000000000000000000000000000000000000000000000000000000000000000000000PES00010000001000000000004663000000000000000000000000000                              000000000000000
202011110010509300000000000001809683                8000000000030518408689SALTA REFRESCOS S.A.          000000001188710000000000000000000000000000000000000000000000000000000000000000000000016713000000000027113000000000051333PES00010000001000000000018979000000000000000000000000000                              000000000000000
202011110010509300000000000001809684                8000000000030518408689SALTA REFRESCOS S.A.          000000000202517000000000000000000000000000000000000000000000000000000000000000000000002907000000000000000000000000006644PES00010000001000000000003349000000000000000000000000000                              000000000000000
202011110010000300000000000000000819                8000000000027123184748MOLINA CELIA GRACIELA         000000000914712000000000000000000000000000000000000000000000000000000000000000000000000000000000000000000000000000000000PES00010000001000000000015875200000000000000000000000000                              000000000000000
202011110010088400000000000000030093                8000000000030507950848MOLINO CANUELAS S.A.C.I.F     000000001860962000000000000000000000000000000000000000000000000000000000000000000000061669000000000043531000000000000000PES00010000001000000000030471900000000000000000000000000                              000000000000000
202011110010100600000000000000148221                8000000000030547751252POTIGIAN GOLOSINAS SACIF      000000002714221000000000000000000000000000000000000000000000000000000000000000000000000000000000000065667000000000000000PES00010000001000000000045966600000000000000000000000000                              000000000000000
202011110010100600000000000000148243                8000000000030547751252POTIGIAN GOLOSINAS SACIF      000000004242555000000000000000000000000000000000000000000000000000000000000000000000000000000000000101082000000000064487PES00010000001000000000070757600000000000000000000000000                              000000000000000
202011110010002100000000000000074598                8000000000030708796065SHARE OUT SRL                 000000002882305000000000000000000000000000000000000000000000000000000000000000000000114377000000000000000000000000000000PES00010000001000000000048038400000000000000000000000000                              000000000000000
202011120010001400000000000000217329                8000000000030707249850DISTRIBUIDORA FAR PEP SH      000000000340150000000000000000000000000000000000000000000000000000000000000000000000000000000000000000000000000000000000PES00010000001000000000005903400000000000000000000000000                              000000000000000
202011120010000500000000000000001635                8000000000030716323567SIDETEC SRL                   000000001433652000000000000000000000000000000000000000000000000000000000000000000000000000000000000000000000000000000000PES00010000001000000000024881600000000000000000000000000                              000000000000000
202011120010008000000000000004139087                8000000000030556381778JOSE V. PAOLETTI SRL          000000003094017000000000000000000000000000000000000000000000000000000000000000000000009584000000000000000000000002303453PES00010000001000000000013554200000000000000000000000000                              000000000000000
202011120010000100000000000000090536                8000000000030715422243DTS S.R.L.                    000000000446460000000000000000000000000000000000000000000000000000000000000000000000006365000000000000000000000000000000PES00010000001000000000007638000000000000000000000000000                              000000000000000
202011120010807300000000000000903383                8000000000030707210385LA SERENISIMA S.A.            000000000319902000000000000000000000000000000000000000000000000000000000000000000000004452000000000007632000000000000000PES00010000001000000000005342300000000000000000000000000                              000000000000000
202011120010009700000000000051632739                8000000000030658650242EDET S.A.                     000000024214454000000000634436000000000000000000000000000000000000000000000000000000316450000000000542486000000000000000PES00010000001000000000483047400000000000000000000000000                              000000000000000
202011120010000100000000000000001172                8000000000027181590977BOXES NEUMATICOS Y SERVIC     000000000279000000000000000000000000000000000000000000000000000000000000000000000000000000000000000000000000000000000000PES00010000001000000000004842100000000000000000000000000                              000000000000000
202011120010000700000000000000176091                8000000000020133177249ROBERTO SANDOVAL              000000001184817000000000000000000000000000000000000000000000000000000000000000000000000000000000000000000000000000000000PES00010000001000000000020562900000000000000000000000000                              000000000000000
202011120010000700000000000000176090                8000000000020133177249ROBERTO SANDOVAL              000000000332283000000000000000000000000000000000000000000000000000000000000000000000000000000000000000000000000000000000PES00010000001000000000005766900000000000000000000000000                              000000000000000
202011130010000700000000000000176110                8000000000020133177249ROBERTO SANDOVAL              000000000116960000000000000000000000000000000000000000000000000000000000000000000000000000000000000000000000000000000000PES00010000001000000000002029900000000000000000000000000                              000000000000000
202011130010000700000000000000176106                8000000000020133177249ROBERTO SANDOVAL              000000000650115000000000000000000000000000000000000000000000000000000000000000000000000000000000000000000000000000000000PES00010000001000000000011283000000000000000000000000000                              000000000000000
202011130010507400000000000000005119                8000000000030501112662BRITISH AMERICAN TABACCO      000000000466282000000000000000000000000000000000000000000000000000000000000000000000022204000000000000000000000000338216PES00010000001000000000001837300000000000000000000000000                              000000000000000
202011140010509300000000000001811914                8000000000030518408689SALTA REFRESCOS S.A.          000000001086178000000000000000000000000000000000000000000000000000000000000000000000015319000000000024432000000000060986PES00010000001000000000017102700000000000000000000000000                              000000000000000
202011160010000700000000000000176351                8000000000020133177249ROBERTO SANDOVAL              000000001937897000000000000000000000000000000000000000000000000000000000000000000000000000000000000000000000000000000000PES00010000001000000000033632900000000000000000000000000                              000000000000000
202011160010000400000000000000003094                8000000000020282237203ANDRETTA SEBASTIAN ALEJAN     000000001315802000000000000000000000000000000000000000000000000000000000000000000000000000000000000000000000000000000000PES00010000001000000000022836200000000000000000000000000                              000000000000000
202011160010000700000000000000176352                8000000000020133177249ROBERTO SANDOVAL              000000000550819000000000000000000000000000000000000000000000000000000000000000000000000000000000000000000000000000000000PES00010000001000000000009559700000000000000000000000000                              000000000000000
202011160010003900000000000000010968                8000000000030702355601NUEVO POLONORTE SRL           000000001214000000000000000000000000000000000000000000000000000000000000000000000000000000000000000000000000000000000000PES00010000001000000000021069400000000000000000000000000                              000000000000000
202011160010000500000000000000001391                8000000000020342268111LA LLAVE FERRETERIA           000000000028000000000000000000000000000000000000000000000000000000000000000000000000000000000000000000000000000000000000PES00010000001000000000000486000000000000000000000000000                              000000000000000
202011170010201800000000000000138599                8000000000030546689979YPF SA                        000000001832976000000000000000000000000000000000000000000000000000000000000000000000018293000000000043904000000000000000PES00010000001000000000030732500000000000000000000000000                              000000000000000
202011170030217200000000000000006271                8000000000030546689979YPF SA                        000000001368256000000000000000000000000000000000000000000000000000000000000000000000014719000000000000000000000000000000PES00010000001000000000023491200000000000000000000000000                              000000000000000
202011170030217200000000000000006272                8000000000030546689979YPF SA                        000000000682792000000000000000000000000000000000000000000000000000000000000000000000011102000000000000000000000000000000PES00010000001000000000011657500000000000000000000000000                              000000000000000
202011180010100600000000000000151065                8000000000030547751252POTIGIAN GOLOSINAS SACIF      000000001644108000000000000000000000000000000000000000000000000000000000000000000000000000000000000039170000000000025081PES00010000001000000000027419000000000000000000000000000                              000000000000000
202011180010001900000000000000006422                8000000000033697231469PACKING ENVASES SRL           000000000296849000000000000000000000000000000000000000000000000000000000000000000000000000000000000000000000000000000000PES00010000001000000000005151900000000000000000000000000                              000000000000000
202011180010002100000000000000074820                8000000000030708796065SHARE OUT SRL                 000000002942796000000000000000000000000000000000000000000000000000000000000000000000116779000000000000000000000000000000PES00010000001000000000049046600000000000000000000000000                              000000000000000
202011180010100600000000000000151082                8000000000030547751252POTIGIAN GOLOSINAS SACIF      000000002830991000000000000000000000000000000000000000000000000000000000000000000000000000000000000068492000000000000000PES00010000001000000000047944200000000000000000000000000                              000000000000000
202011180010100600000000000000151099                8000000000030547751252POTIGIAN GOLOSINAS SACIF      000000003752682000000000000000000000000000000000000000000000000000000000000000000000000000000000000090791000000000000000PES00010000001000000000063553500000000000000000000000000                              000000000000000
202011180010000300000000000000480895                8000000000033687473189PANINO SA                     000000010592267000000000000000000000000000000000000000000000000000000000000000000000000000000000000000000000000000000000PES00010000001000000000183832700000000000000000000000000                              000000000000000
202011180010509300000000000001813920                8000000000030518408689SALTA REFRESCOS S.A.          000000001465678000000000000000000000000000000000000000000000000000000000000000000000020639000000000033200000000000072792PES00010000001000000000023239700000000000000000000000000                              000000000000000
202011190010000100000000000000091587                8000000000030715422243DTS S.R.L.                    000000000476442000000000000000000000000000000000000000000000000000000000000000000000006793000000000000000000000000000000PES00010000001000000000008150900000000000000000000000000                              000000000000000
202011190010000100000000000000091586                8000000000030715422243DTS S.R.L.                    000000000144063000000000000000000000000000000000000000000000000000000000000000000000000000000000000000000000000000000000PES00010000001000000000002500300000000000000000000000000                              000000000000000
202011190010001400000000000000218256                8000000000030707249850DISTRIBUIDORA FAR PEP SH      000000000273881000000000000000000000000000000000000000000000000000000000000000000000000000000000000000000000000000000000PES00010000001000000000004753300000000000000000000000000                              000000000000000
202011190010008000000000000000139910                8000000000030556381778JOSE V. PAOLETTI SRL          000000003411696000000000000000000000000000000000000000000000000000000000000000000000010571000000000000000000000002545225PES00010000001000000000014854500000000000000000000000000                              000000000000000
202011190010002000000000000000090262                8000000000030709442399PUNTO DE VENTA SRL            000000000337980000000000000000000000000000000000000000000000000000000000000000000000000000000000000000000000000000000000PES00010000001000000000005865800000000000000000000000000                              000000000000000
202011190010807300000000000000906782                8000000000030707210385LA SERENISIMA S.A.            000000000852375000000000000000000000000000000000000000000000000000000000000000000000011862000000000020335000000000000000PES00010000001000000000014234500000000000000000000000000                              000000000000000
202011200010000700000000000000176937                8000000000020133177249ROBERTO SANDOVAL              000000001754371000000000000000000000000000000000000000000000000000000000000000000000000000000000000000000000000000000000PES00010000001000000000030447800000000000000000000000000                              000000000000000
202011200010547400000000000000005186                8000000000030501112662BRITISH AMERICAN TABACCO      000000000243770000000000000000000000000000000000000000000000000000000000000000000000011608000000000000000000000000176900PES00010000001000000000000959100000000000000000000000000                              000000000000000
202011210010000500000000000000001765                8000000000030716323567SIDETEC SRL                   000000000392748000000000000000000000000000000000000000000000000000000000000000000000000000000000000000000000000000000000PES00010000001000000000006816300000000000000000000000000                              000000000000000
202011210010509300000000000001816218                8000000000030518408689SALTA REFRESCOS S.A.          000000001320452000000000000000000000000000000000000000000000000000000000000000000000018580000000000030019000000000061079PES00010000001000000000021013400000000000000000000000000                              000000000000000
202011230010000700000000000000177178                8000000000020133177249ROBERTO SANDOVAL              000000000345454000000000000000000000000000000000000000000000000000000000000000000000000000000000000000000000000000000000PES00010000001000000000005995500000000000000000000000000                              000000000000000
202011230010000700000000000000177179                8000000000020133177249ROBERTO SANDOVAL              000000000281692000000000000000000000000000000000000000000000000000000000000000000000000000000000000000000000000000000000PES00010000001000000000004888900000000000000000000000000                              000000000000000
202011230010003900000000000000011053                8000000000030702355601NUEVO POLONORTE SRL           000000000656000000000000000000000000000000000000000000000000000000000000000000000000000000000000000000000000000000000000PES00010000001000000000011385100000000000000000000000000                              000000000000000
202011230010000400000000000000003130                8000000000020282237203ANDRETTA SEBASTIAN ALEJAN     000000001457171000000000000000000000000000000000000000000000000000000000000000000000000000000000000000000000000000000000PES00010000001000000000025289700000000000000000000000000                              000000000000000
202011240030217200000000000000007428                8000000000030546689979YPF SA                        000000001587859000000000000000000000000000000000000000000000000000000000000000000000020606000000000000000000000000000000PES00010000001000000000027200300000000000000000000000000                              000000000000000
202011240030217200000000000000007429                8000000000030546689979YPF SA                        000000000022995000000000000000000000000000000000000000000000000000000000000000000000000000000000000000000000000000000000PES00010000001000000000000399100000000000000000000000000                              000000000000000
202011240030217200000000000000007430                8000000000030546689979YPF SA                        000000000268676000000000000000000000000000000000000000000000000000000000000000000000000000000000000000000000000000000000PES00010000001000000000004663000000000000000000000000000                              000000000000000
202011240010001200000000000000231380                8000000000030542851836ABC S.A                       000000004810115000000000000000000000000000000000000000000000000000000000000000000000000000000000000116374000000000000000PES00010000001000000000081461600000000000000000000000000                              000000000000000
202011240010201900000000000000369645                8000000000030546689979YPF SA                        000000080458699000000000000000000000000000000000000000000000000000000000000000000000802981000000001927154000000000000000PES00010000001000000001349008200000000000000000000000000                              000000000000000
202011240010000100000000000000001186                8000000000027181590977BOXES NEUMATICOS Y SERVIC     000000000264000000000000000000000000000000000000000000000000000000000000000000000000000000000000000000000000000000000000PES00010000001000000000004581900000000000000000000000000                              000000000000000
202011250010100600000000000000153396                8000000000030547751252POTIGIAN GOLOSINAS SACIF      000000003022790000000000000000000000000000000000000000000000000000000000000000000000000000000000000070750000000000098445PES00010000001000000000049525200000000000000000000000000                              000000000000000
202011250010000500000000000000001829                8000000000030716323567SIDETEC SRL                   000000000458076000000000000000000000000000000000000000000000000000000000000000000000000000000000000000000000000000000000PES00010000001000000000007950100000000000000000000000000                              000000000000000
202011250010100600000000000000153384                8000000000030547751252POTIGIAN GOLOSINAS SACIF      000000005994745000000000000000000000000000000000000000000000000000000000000000000000000000000000000145034000000000000000PES00010000001000000000101523900000000000000000000000000                              000000000000000
202011250010100600000000000000153398                8000000000030547751252POTIGIAN GOLOSINAS SACIF      000000004226310000000000000000000000000000000000000000000000000000000000000000000000000000000000000102249000000000000000PES00010000001000000000071574600000000000000000000000000                              000000000000000
202011250010088400000000000000030455                8000000000030507950848MOLINO CANUELAS S.A.C.I.F     000000002040017000000000000000000000000000000000000000000000000000000000000000000000067602000000000047720000000000000000PES00010000001000000000033403800000000000000000000000000                              000000000000000
202011250010000700000000000000177557                8000000000020133177249ROBERTO SANDOVAL              000000000785711000000000000000000000000000000000000000000000000000000000000000000000000000000000000000000000000000000000PES00010000001000000000013636300000000000000000000000000                              000000000000000
202011250010509300000000000001818506                8000000000030518408689SALTA REFRESCOS S.A.          000000001788939000000000000000000000000000000000000000000000000000000000000000000000025172000000000040669000000000082784PES00010000001000000000028468300000000000000000000000000                              000000000000000
202011250010001500000000000000000033                8000000000030716269880COMOTTI: PASTAS.PIAZAS. P     000000000199989000000000000000000000000000000000000000000000000000000000000000000000000000000000000000000000000000000000PES00010000001000000000003470900000000000000000000000000                              000000000000000
202011250010002100000000000000075026                8000000000030708796065SHARE OUT SRL                 000000003810876000000000000000000000000000000000000000000000000000000000000000000000124943000000000000000000000000000000PES00010000001000000000063970700000000000000000000000000                              000000000000000
202011250030000700000000000000003644                8000000000020133177249ROBERTO SANDOVAL              000000000042812000000000000000000000000000000000000000000000000000000000000000000000000000000000000000000000000000000000PES00010000001000000000000743000000000000000000000000000                              000000000000000
202011260010000100000000000000092480                8000000000030715422243DTS S.R.L.                    000000000964991000000000000000000000000000000000000000000000000000000000000000000000013758000000000000000000000000000000PES00010000001000000000016509000000000000000000000000000                              000000000000000
202011260010001400000000000000218849                8000000000030707249850DISTRIBUIDORA FAR PEP SH      000000000273881000000000000000000000000000000000000000000000000000000000000000000000000000000000000000000000000000000000PES00010000001000000000004753300000000000000000000000000                              000000000000000
202011260010002000000000000000090517                8000000000030709442399PUNTO DE VENTA SRL            000000000502521000000000000000000000000000000000000000000000000000000000000000000000007164000000000000000000000000000000PES00010000001000000000008597100000000000000000000000000                              000000000000000
202011260010008000000000000000014532                8000000000030556381778JOSE V. PAOLETTI SRL          000000005125779000000000000000000000000000000000000000000000000000000000000000000000015877000000000000000000000003814931PES00010000001000000000022474700000000000000000000000000                              000000000000000
202011260010000500000000000000001405                8000000000020342268111LA LLAVE FERRETERIA           000000000060787000000000000000000000000000000000000000000000000000000000000000000000000000000000000000000000000000000000PES00010000001000000000001055000000000000000000000000000                              000000000000000
202011260010201800000000000000139631                8000000000030546689979YPF SA                        000000009777851000000000000000000000000000000000000000000000000000000000000000000000097583000000000234200000000000000000PES00010000001000000000163940000000000000000000000000000                              000000000000000
202011260010214200000000000000166822                8000000000030546689979YPF SA                        000000006976718000000000000000000000000000000000000000000000000000000000000000000000000000000000000168791000000000000000PES00010000001000000000118154100000000000000000000000000                              000000000000000
202011260010807300000000000000909904                8000000000030707210385LA SERENISIMA S.A.            000000000846393000000000000000000000000000000000000000000000000000000000000000000000011779000000000020192000000000000000PES00010000001000000000014134600000000000000000000000000                              000000000000000
202011270010000700000000000000177755                8000000000020133177249ROBERTO SANDOVAL              000000000214523000000000000000000000000000000000000000000000000000000000000000000000000000000000000000000000000000000000PES00010000001000000000003723100000000000000000000000000                              000000000000000
202011270010000700000000000000177749                8000000000020133177249ROBERTO SANDOVAL              000000000246104000000000000000000000000000000000000000000000000000000000000000000000000000000000000000000000000000000000PES00010000001000000000004271200000000000000000000000000                              000000000000000
202011270030255000000000000000131189                8000000000030546689979YPF SA                        000000003983018000000000000000000000000000000000000000000000000000000000000000000000000000000000000000000000000000000000PES00010000001000000000069126800000000000000000000000000                              000000000000000
202011270030255000000000000000131476                8000000000030546689979YPF SA                        000000005865500000000000000000000000000000000000000000000000000000000000000000000000000000000000000000000000000000000000PES00010000001000000000101797900000000000000000000000000                              000000000000000
202011280010509300000000000001820825                8000000000030518408689SALTA REFRESCOS S.A.          000000001175076000000000000000000000000000000000000000000000000000000000000000000000016568000000000026463000000000064698PES00010000001000000000018524200000000000000000000000000                              000000000000000
202011280010001200000000000000050589                8000000000027275180993SARA BENCHIMOL                000000000313455000000000000000000000000000000000000000000000000000000000000000000000004469000000000000000000000000000000PES00010000001000000000005362600000000000000000000000000                              000000000000000
202011300010509300000000000001821604                8000000000030518408689SALTA REFRESCOS S.A.          000000000763258000000000000000000000000000000000000000000000000000000000000000000000010734000000000017394000000000033582PES00010000001000000000012175600000000000000000000000000                              000000000000000
202011300010003900000000000000011134                8000000000030702355601NUEVO POLONORTE SRL           000000001322000000000000000000000000000000000000000000000000000000000000000000000000000000000000000000000000000000000000PES00010000001000000000022943800000000000000000000000000                              000000000000000
202011300010000700000000000000177922                8000000000020133177249ROBERTO SANDOVAL              000000001132255000000000000000000000000000000000000000000000000000000000000000000000000000000000000000000000000000000000PES00010000001000000000019650700000000000000000000000000                              000000000000000
202011300010000700000000000000177920                8000000000020133177249ROBERTO SANDOVAL              000000001922070000000000000000000000000000000000000000000000000000000000000000000000000000000000000000000000000000000000PES00010000001000000000033358200000000000000000000000000                              000000000000000
202011300010000700000000000000177921                8000000000020133177249ROBERTO SANDOVAL              000000000091143000000000000000000000000000000000000000000000000000000000000000000000000000000000000000000000000000000000PES00010000001000000000001581800000000000000000000000000                              000000000000000
202011300010010900000000000000000063                8000000000030546689979YPF SA                        000002254389057000000441341780000000000000000000000000000000000000000000000000000000000000000000000000000000000038902775PES00010000001000000030790937200000000000000000000000000                              000000000000000
202011300010000400000000000000003165                8000000000020282237203ANDRETTA SEBASTIAN ALEJAN     000000001446806000000000000000000000000000000000000000000000000000000000000000000000000000000000000000000000000000000000PES00010000001000000000025109900000000000000000000000000                              000000000000000
