2020081800300011000000000000000005260000000000000000052680000000020-07007717-6GHIGGIA JOSE ALFREDO          000000005100000000000001049502000000000000000000000000000000000000000000000000000000000000000000000000000000000000000000PES00010000001000000000000000000000000
2020080700300015000000000000000001040000000000000000010480000000030-54668997-9YPF SA                        000000002239145000000000000000000000000000000000000000000000000000000000000000000000000000000000000000000000000000000000PES00010000001000000000000000000000000
2020080300100052000000000000000002580000000000000000025880000000030-70806783-7AGRICOLA DE LEALES SC         000000002789757000000000000000000000000000000000000000000000000000000000000000000000000000000000000000000000000000000000PES00010000001000000000000000000000000
2020080400300200000000000000000000060000000000000000000680000000030-51548847-9YPF GAS SA                    000000058020186000000000000000000000000000000000000000000000000000000000000000000000000000000000000000000000000000000000PES00010000001000000000000000000000000
2020080100100011000000000000000107840000000000000001078480000000030-71492201-3DON BETO SRL (ST)             000000021199999000000000000000000000000000000000000000000000000000000000000000000000000000000000000000000000000003778200PES00010000001000000000000000000000000
2020080100100011000000000000000107850000000000000001078580000000030-71492201-3DON BETO SRL (ST)             000000031799998000000000000000000000000000000000000000000000000000000000000000000000000000000000000000000000000005667300PES00010000001000000000000000000000000
2020080100100014000000000000000147360000000000000001473680000000020-08067639-6ARGENTE DOMINGO ANDRES        000000003345022000000000000000000000000000000000000000000000000000000000000000000000000000000000000000000000000000000000PES00010000001000000000000000000000000
2020080100100014000000000000000147370000000000000001473780000000030-68565532-9PRODUCCION SA                 000000001614019000000000000000000000000000000000000000000000000000000000000000000000000000000000000000000000000000000000PES00010000001000000000000000000000000
2020080100100014000000000000000147380000000000000001473880000000030-50623091-4CITROMAX S.A.C.I              000000007996475000000000000000000000000000000000000000000000000000000000000000000000000000000000000000000000000000000000PES00010000001000000000000000000000000
2020080100100014000000000000000147390000000000000001473980000000023-29666418-9GONZALEZ COLETTI ALVARO AGUSTI000000000475311000000000000000000000000000000000000000000000000000000000000000000000000000000000000000000000000000000000PES00010000001000000000000000000000000
2020080100100014000000000000000147400000000000000001474080000000030-70806783-7AGRICOLA DE LEALES SC         000000000575897000000000000000000000000000000000000000000000000000000000000000000000000000000000000000000000000000000000PES00010000001000000000000000000000000
2020080100600014000000000000000040140000000000000000401480000000027-23020425-5PAZ SILVIA PATRICIA           000000000905063000000000000000000000000000000000000000000000000000000000000000000000000000000000000000000000000000000000PES00010000001000000000000000000000000
2020080100600014000000000000000040150000000000000000401580000000020-27301052-2ROMANO DANIEL H               000000006341282000000000000000000000000000000000000000000000000000000000000000000000000000000000000000000000000000000000PES00010000001000000000000000000000000
2020080100600014000000000000000040160000000000000000401680000000020-17464304-1VILLALOBO CESAR ALBERTO       000000000699409000000000000000000000000000000000000000000000000000000000000000000000000000000000000000000000000000000000PES00010000001000000000000000000000000
2020080100300014000000000000000022700000000000000000227080000000030-70918982-0EL RAYO BUS SRL               000000003345022000000000000000000000000000000000000000000000000000000000000000000000000000000000000000000000000000000000PES00010000001000000000000000000000000
2020080100800014000000000000000006780000000000000000067880000000020-14135438-9MORALES JOSE ANTONIO          000000002986626000000000000000000000000000000000000000000000000000000000000000000000000000000000000000000000000000000000PES00010000001000000000000000000000000
2020080300100011000000000000000107860000000000000001078680000000020-34226808-1CANO ARON JOSE VICTOR (ST)    000000021199999000000000000000000000000000000000000000000000000000000000000000000000000000000000000000000000000003778200PES00010000001000000000000000000000000
2020080300100011000000000000000107870000000000000001078780000000020-34226808-1CANO ARON JOSE VICTOR (ST)    000000021199999000000000000000000000000000000000000000000000000000000000000000000000000000000000000000000000000003778200PES00010000001000000000000000000000000
2020080300100011000000000000000107880000000000000001078880000000030-70976790-5COOP AGROPECUARIA LOS BARRIENT000000015899996000000000000000000000000000000000000000000000000000000000000000000000000000000000000000000000000002833650PES00010000001000000000000000000000000
2020080300100011000000000000000107890000000000000001078980000000023-20898630-9GUTIERREZ JORGE LUIS (ST)     000000005299997000000000000000000000000000000000000000000000000000000000000000000000000000000000000000000000000000944550PES00010000001000000000000000000000000
2020080300100011000000000000000107900000000000000001079080000000020-17337860-3JUAREZ ANTONIO ARMANDO (ST)   000000015899996000000000000000000000000000000000000000000000000000000000000000000000000000000000000000000000000002833650PES00010000001000000000000000000000000
2020080300100011000000000000000107910000000000000001079180000000020-17337860-3JUAREZ ANTONIO ARMANDO (ST)   000000015899996000000000000000000000000000000000000000000000000000000000000000000000000000000000000000000000000002833650PES00010000001000000000000000000000000
2020080300100011000000000000000107920000000000000001079280000000030-71681985-6INDUSTRIAS SANTA BARBARA SRL E000000010599999000000000000000000000000000000000000000000000000000000000000000000000000000000000000000000000000001889100PES00010000001000000000000000000000000
2020080300100011000000000000000107930000000000000001079380000000030-71681985-6INDUSTRIAS SANTA BARBARA SRL E000000010599999000000000000000000000000000000000000000000000000000000000000000000000000000000000000000000000000001889100PES00010000001000000000000000000000000
2020080300100011000000000000000107940000000000000001079480000000020-03502161-3SUCESION DE ACOSTA ANTONIO H (000000015899996000000000000000000000000000000000000000000000000000000000000000000000000000000000000000000000000002833650PES00010000001000000000000000000000000
2020080300100011000000000000000107950000000000000001079580000000020-25320080-5VILLAFANE ARIEL HUGO (ST)     000000005299997000000000000000000000000000000000000000000000000000000000000000000000000000000000000000000000000000944550PES00010000001000000000000000000000000
2020080300100011000000000000000107960000000000000001079680000000020-08099481-9BRAVO ZAVALETA ARMANDO MANUEL 000000017099999000000000000000000000000000000000000000000000000000000000000000000000000000000000000000000000000002833650PES00010000001000000000000000000000000
2020080300100011000000000000000107970000000000000001079780000000030-70872456-0LA ASTURIANA S.R.L            000000011000002000000000000000000000000000000000000000000000000000000000000000000000000000000000000000000000000001889100PES00010000001000000000000000000000000
2020080300100011000000000000000107980000000000000001079880000000030-71526151-7SERCOU SRL                    000000021400000000000000000000000000000000000000000000000000000000000000000000000000000000000000000000000000000003778200PES00010000001000000000000000000000000
2020080300100011000000000000000107990000000000000001079980000000030-70872456-0LA ASTURIANA S.R.L            000000005499998000000000000000000000000000000000000000000000000000000000000000000000000000000000000000000000000000944550PES00010000001000000000000000000000000
2020080300100011000000000000000108000000000000000001080080000000020-17054243-7BINI JOSE HUMBERTO            000000011000002000000000000000000000000000000000000000000000000000000000000000000000000000000000000000000000000001889100PES00010000001000000000000000000000000
2020080300100011000000000000000108010000000000000001080180000000030-62600961-8EXPRESO RIVADAVIA SRL         000000016911957000000000000000000000000000000000000000000000000000000000000000000000000000000000000000000000000003071960PES00010000001000000000000000000000000
2020080300100011000000000000000108020000000000000001080280000000030-62600961-8EXPRESO RIVADAVIA SRL         000000022904442000000000000000000000000000000000000000000000000000000000000000000000000000000000000000000000000004160459PES00010000001000000000000000000000000
2020080300100011000000000000000108030000000000000001080380000000030-70806783-7AGRICOLA DE LEALES SC         000000299600000000000000000000000000000000000000000000000000000000000000000000000000000000000000000000000000000052894800PES00010000001000000000000000000000000
2020080300100011000000000000000108040000000000000001080480000000030-70891326-6TRANSPORTE HACHA DE PIEDRA SRL000000059613232000000000000000000000000000000000000000000000000000000000000000000000000000000000000000000000000011150035PES00010000001000000000000000000000000
2020080300100014000000000000000147410000000000000001474180000000030-70771115-5YELLOW CAB                    000000009405641000000000000000000000000000000000000000000000000000000000000000000000000000000000000000000000000000000000PES00010000001000000000000000000000000
2020080300100014000000000000000147420000000000000001474280000000027-24007148-2VILLAVICENCIO MARIA DE LOS ANG000000003335901000000000000000000000000000000000000000000000000000000000000000000000000000000000000000000000000000000000PES00010000001000000000000000000000000
2020080300100014000000000000000147430000000000000001474380000000033-69177691-9FABRICA DE FIDEOS RIVOLI SA   000000000793109000000000000000000000000000000000000000000000000000000000000000000000000000000000000000000000000000000000PES00010000001000000000000000000000000
2020080300100014000000000000000147440000000000000001474480000000027-25853408-0MESON NANCY BEATRIZ           000000003146876000000000000000000000000000000000000000000000000000000000000000000000000000000000000000000000000000000000PES00010000001000000000000000000000000
2020080300100014000000000000000147450000000000000001474580000000030-70872456-0LA ASTURIANA S.R.L            000000006141332000000000000000000000000000000000000000000000000000000000000000000000000000000000000000000000000000000000PES00010000001000000000000000000000000
2020080300100014000000000000000147460000000000000001474680000000030-70733820-9SERVICIOS Y AVENTURAS SRL     000000000964209000000000000000000000000000000000000000000000000000000000000000000000000000000000000000000000000000000000PES00010000001000000000000000000000000
2020080300100014000000000000000147470000000000000001474780000000030-50623091-4CITROMAX S.A.C.I              000000007196832000000000000000000000000000000000000000000000000000000000000000000000000000000000000000000000000000000000PES00010000001000000000000000000000000
2020080300100014000000000000000147480000000000000001474880000000030-63904154-5AGRO CARGAS SA                000000000596674000000000000000000000000000000000000000000000000000000000000000000000000000000000000000000000000000000000PES00010000001000000000000000000000000
2020080300100014000000000000000147490000000000000001474980000000030-70238033-9DANOVIS S.A                   000000015043855000000000000000000000000000000000000000000000000000000000000000000000000000000000000000000000000000000000PES00010000001000000000000000000000000
2020080300100014000000000000000147500000000000000001475080000000020-27751095-3IBANEZ CLAUDIO LEONARDO       000000000842926000000000000000000000000000000000000000000000000000000000000000000000000000000000000000000000000000000000PES00010000001000000000000000000000000
2020080300100014000000000000000147510000000000000001475180000000020-16282984-0BRAVO OSCAR ROLANDO           000000004442907000000000000000000000000000000000000000000000000000000000000000000000000000000000000000000000000000000000PES00010000001000000000000000000000000
2020080300100014000000000000000147520000000000000001475280000000030-70238033-9DANOVIS S.A                   000000013676227000000000000000000000000000000000000000000000000000000000000000000000000000000000000000000000000000000000PES00010000001000000000000000000000000
2020080300100014000000000000000147530000000000000001475380000000030-63183894-0PANPACK S.A                   000000001843239000000000000000000000000000000000000000000000000000000000000000000000000000000000000000000000000000000000PES00010000001000000000000000000000000
2020080300100014000000000000000147540000000000000001475480000000023-12433014-9ACEVEDO MARIO RAMON           000000045696831000000000000000000000000000000000000000000000000000000000000000000000000000000000000000000000000000000000PES00010000001000000000000000000000000
2020080300100014000000000000000147550000000000000001475580000000020-38509265-3ALDERETE CLAUDIO FABIAN       000000002838435000000000000000000000000000000000000000000000000000000000000000000000000000000000000000000000000000000000PES00010000001000000000000000000000000
2020080300100014000000000000000147560000000000000001475680000000030-50551763-2VICENTE TRAPANI SA            000000000466541000000000000000000000000000000000000000000000000000000000000000000000000000000000000000000000000000000000PES00010000001000000000000000000000000
2020080300100052000000000000000002590000000000000000025980000000020-05396269-7DEL PERO PEDRO DOMINGO        000000021758671000000000000000000000000000000000000000000000000000000000000000000000000000000000000000000000000000000000PES00010000001000000000000000000000000
2020080300600011000000000000000002180000000000000000021880000000023-11828599-9BREMBILLA FERNANDO M (ST)     000000007950001000000000000000000000000000000000000000000000000000000000000000000000000000000000000000000000000001416825PES00010000001000000000000000000000000
2020080300600011000000000000000002190000000000000000021980000000020-17926517-7GUTIERREZ JUAN MANUEL (ST)    000000005299997000000000000000000000000000000000000000000000000000000000000000000000000000000000000000000000000000944550PES00010000001000000000000000000000000
2020080300600011000000000000000002200000000000000000022080000000033-63864078-9DIRECCION PROVINCIAL DE VIALID000000056800002000000000000000000000000000000000000000000000000000000000000000000000000000000000000000000000000009445500PES00010000001000000000000000000000000
2020080300600014000000000000000040170000000000000000401780000000020-23239246-1GEREZ SERGIO GUSTAVO          000000005014620000000000000000000000000000000000000000000000000000000000000000000000000000000000000000000000000000000000PES00010000001000000000000000000000000
2020080300600014000000000000000040180000000000000000401880000000020-17464304-1VILLALOBO CESAR ALBERTO       000000000396552000000000000000000000000000000000000000000000000000000000000000000000000000000000000000000000000000000000PES00010000001000000000000000000000000
2020080300300015000000000000000001010000000000000000010180000000030-54668997-9YPF SA                        000000087991729000000000000000000000000000000000000000000000000000000000000000000000000000000000000000000000000000000000PES00010000001000000000000000000000000
2020080300300011000000000000000005180000000000000000051880000000020-39974493-9MIRANDA ARIEL MATIAS (ST)     000000021199999000000000000000000000000000000000000000000000000000000000000000000000000000000000000000000000000003778200PES00010000001000000000000000000000000
2020080300300011000000000000000005190000000000000000051980000000020-39974493-9MIRANDA ARIEL MATIAS (ST)     000000031799998000000000000000000000000000000000000000000000000000000000000000000000000000000000000000000000000005667300PES00010000001000000000000000000000000
2020080300300011000000000000000005200000000000000000052080000000030-70798511-5TRAPICHE SA                   000000049050571000000000000000000000000000000000000000000000000000000000000000000000000000000000000000000000000000000000PES00010000001000000000000000000000000
2020080300300014000000000000000022710000000000000000227180000000030-50623091-4CITROMAX S.A.C.I              000000007996475000000000000000000000000000000000000000000000000000000000000000000000000000000000000000000000000000000000PES00010000001000000000000000000000000
2020080300300014000000000000000022720000000000000000227280000000030-68565532-9PRODUCCION SA                 000000001889409000000000000000000000000000000000000000000000000000000000000000000000000000000000000000000000000000000000PES00010000001000000000000000000000000
2020080300300014000000000000000022730000000000000000227380000000030-70238033-9DANOVIS S.A                   000000015043855000000000000000000000000000000000000000000000000000000000000000000000000000000000000000000000000000000000PES00010000001000000000000000000000000
2020080300300014000000000000000022740000000000000000227480000000030-71519608-1SERGIO MORALES SRL            000000000298628000000000000000000000000000000000000000000000000000000000000000000000000000000000000000000000000000000000PES00010000001000000000000000000000000
2020080300200011000000000000000002110000000000000000021180000000030-70798511-5TRAPICHE SA                   000000049050571000000000000000000000000000000000000000000000000000000000000000000000000000000000000000000000000000000000PES00010000001000000000000000000000000
2020080300200011000000000000000002120000000000000000021280000000030-70798511-5TRAPICHE SA                   000000002058583000000000000000000000000000000000000000000000000000000000000000000000000000000000000000000000000000000000PES00010000001000000000000000000000000
2020080400100011000000000000000108050000000000000001080580000000030-71442973-2AGRO SERVICIOS SH             000000005349999000000000000000000000000000000000000000000000000000000000000000000000000000000000000000000000000000944550PES00010000001000000000000000000000000
2020080400100011000000000000000108060000000000000001080680000000030-66808507-1LA JUSTINA SA                 000000056000002000000000000000000000000000000000000000000000000000000000000000000000000000000000000000000000000009445500PES00010000001000000000000000000000000
2020080400100011000000000000000108070000000000000001080780000000030-62091992-2RF y J BUDEGUER SRL           000000008250000000000000000000000000000000000000000000000000000000000000000000000000000000000000000000000000000001416825PES00010000001000000000000000000000000
2020080400100011000000000000000108080000000000000001080880000000030-62600961-8EXPRESO RIVADAVIA SRL         000000017977439000000000000000000000000000000000000000000000000000000000000000000000000000000000000000000000000003265498PES00010000001000000000000000000000000
2020080400100011000000000000000108090000000000000001080980000000030-71405735-5ZAFIROS DEL NOA SA            000000005600002000000000000000000000000000000000000000000000000000000000000000000000000000000000000000000000000000944550PES00010000001000000000000000000000000
2020080400100014000000000000000147570000000000000001475780000000030-71164253-2CENTRO DE SERVICIOS DEL ESTE S000000006926599000000000000000000000000000000000000000000000000000000000000000000000000000000000000000000000000000000000PES00010000001000000000000000000000000
2020080400100014000000000000000147580000000000000001475880000000027-28496442-5RACEDO ROSANA ESTER           000000002615594000000000000000000000000000000000000000000000000000000000000000000000000000000000000000000000000000000000PES00010000001000000000000000000000000
2020080400100014000000000000000147590000000000000001475980000000030-68565532-9PRODUCCION SA                 000000002507310000000000000000000000000000000000000000000000000000000000000000000000000000000000000000000000000000000000PES00010000001000000000000000000000000
2020080400100014000000000000000147600000000000000001476080000000020-20285135-6RODA SERGIO ESTEBAN           000000001397469000000000000000000000000000000000000000000000000000000000000000000000000000000000000000000000000000000000PES00010000001000000000000000000000000
2020080400100014000000000000000147610000000000000001476180000000020-07007717-6GHIGGIA JOSE ALFREDO          000000005963819000000000000000000000000000000000000000000000000000000000000000000000000000000000000000000000000000000000PES00010000001000000000000000000000000
2020080400100014000000000000000147620000000000000001476280000000030-70899532-7EL BAYO SERVICIOS AGROPECUARIO000000000562696000000000000000000000000000000000000000000000000000000000000000000000000000000000000000000000000000000000PES00010000001000000000000000000000000
2020080400100014000000000000000147630000000000000001476380000000030-63904154-5AGRO CARGAS SA                000000000405667000000000000000000000000000000000000000000000000000000000000000000000000000000000000000000000000000000000PES00010000001000000000000000000000000
2020080400100014000000000000000147640000000000000001476480000000023-07091924-9HERRERA JORGE ARMANDO         000000000993952000000000000000000000000000000000000000000000000000000000000000000000000000000000000000000000000000000000PES00010000001000000000000000000000000
2020080400100014000000000000000147650000000000000001476580000000020-20218565-8AHUMADA ROBERTO               000000003265018000000000000000000000000000000000000000000000000000000000000000000000000000000000000000000000000000000000PES00010000001000000000000000000000000
2020080400100014000000000000000147660000000000000001476680000000027-25255351-2VIZCARRA ANALIA DEL VALLE     000000005014620000000000000000000000000000000000000000000000000000000000000000000000000000000000000000000000000000000000PES00010000001000000000000000000000000
2020080400100016000000000000000007790000000000000000077980000000030-70772880-5PROYECTOS METALURGICOS S.A.   000000001274643000000000000000000000000000000000000000000000000000000000000000000000000000000000000000000000000000000000PES00010000001000000000000000000000000
2020080400100051000000000000000002290000000000000000022980000000030-71131337-7NAVEL SRL                     000000002878774000000000000000000000000000000000000000000000000000000000000000000000000000000000000000000000000000000000PES00010000001000000000000000000000000
2020080400100052000000000000000002600000000000000000026080000000020-12892601-2GUILLEN EDUARDO               000000097603945000000000000000000000000000000000000000000000000000000000000000000000000000000000000000000000000000000000PES00010000001000000000000000000000000
2020080400100052000000000000000002610000000000000000026180000000030-70806783-7AGRICOLA DE LEALES SC         000000001999177000000000000000000000000000000000000000000000000000000000000000000000000000000000000000000000000000000000PES00010000001000000000000000000000000
2020080400100200000000000000000000560000000000000000005680000000030-51548847-9YPF GAS SA                    000000058020186000000000000000000000000000000000000000000000000000000000000000000000000000000000000000000000000000000000PES00010000001000000000000000000000000
2020080400600014000000000000000040190000000000000000401980000000020-12733415-4QUIROGA JUAN CARLOS           000000002969271000000000000000000000000000000000000000000000000000000000000000000000000000000000000000000000000000000000PES00010000001000000000000000000000000
2020080400300015000000000000000001020000000000000000010280000000030-54668997-9YPF SA                        000000088308327000000000000000000000000000000000000000000000000000000000000000000000000000000000000000000000000000000000PES00010000001000000000000000000000000
2020080400300014000000000000000022750000000000000000227580000000020-17136959-3FERNANDEZ LUIS ALBERTO        000000002694422000000000000000000000000000000000000000000000000000000000000000000000000000000000000000000000000000000000PES00010000001000000000000000000000000
2020080400300014000000000000000022760000000000000000227680000000020-20218565-8AHUMADA ROBERTO               000000000286234000000000000000000000000000000000000000000000000000000000000000000000000000000000000000000000000000000000PES00010000001000000000000000000000000
2020080400300014000000000000000022770000000000000000227780000000020-20218565-8AHUMADA ROBERTO               000000000298697000000000000000000000000000000000000000000000000000000000000000000000000000000000000000000000000000000000PES00010000001000000000000000000000000
2020080400800014000000000000000006790000000000000000067980000000027-23020425-5PAZ SILVIA PATRICIA           000000000733640000000000000000000000000000000000000000000000000000000000000000000000000000000000000000000000000000000000PES00010000001000000000000000000000000
2020080400200011000000000000000002130000000000000000021380000000020-12892601-2GUILLEN EDUARDO               000000004727758000000000000000000000000000000000000000000000000000000000000000000000000000000000000000000000000000000000PES00010000001000000000000000000000000
2020080500100011000000000000000108100000000000000001081080000000030-62600961-8EXPRESO RIVADAVIA SRL         000000010479560000000000000000000000000000000000000000000000000000000000000000000000000000000000000000000000000001903552PES00010000001000000000000000000000000
2020080500100011000000000000000108110000000000000001081180000000020-35193775-1MARIN GUIDO ALEJANDRO         000000052999997000000000000000000000000000000000000000000000000000000000000000000000000000000000000000000000000009445500PES00010000001000000000000000000000000
2020080500100011000000000000000108120000000000000001081280000000020-22924881-3PEDRAZA PEDRO ANTONIO         000000010599999000000000000000000000000000000000000000000000000000000000000000000000000000000000000000000000000001889100PES00010000001000000000000000000000000
2020080500100011000000000000000108130000000000000001081380000000020-06085260-0ACUNA JOSE DOMINGO            000000005400000000000000000000000000000000000000000000000000000000000000000000000000000000000000000000000000000000944550PES00010000001000000000000000000000000
2020080500100011000000000000000108140000000000000001081480000000020-18505900-7VITAR MANUEL FERNANDO         000000008250000000000000000000000000000000000000000000000000000000000000000000000000000000000000000000000000000001416825PES00010000001000000000000000000000000
2020080500100011000000000000000108150000000000000001081580000000020-29685853-7VIEYRA JORGE LINO             000000008250000000000000000000000000000000000000000000000000000000000000000000000000000000000000000000000000000001416825PES00010000001000000000000000000000000
2020080500100011000000000000000108160000000000000001081680000000020-08590051-0MENTEL MANUEL PAULO           000000016200001000000000000000000000000000000000000000000000000000000000000000000000000000000000000000000000000002833650PES00010000001000000000000000000000000
2020080500100011000000000000000108170000000000000001081780000000030-71509855-1SUCROALCOHOLERA DEL SUR SA    000000088400000000000000000000000000000000000000000000000000000000000000000000000000000000000000000000000000000016057350PES00010000001000000000000000000000000
2020080500100011000000000000000108180000000000000001081880000000023-29135039-9SILVA SERGIO EDUARDO          000000089590001000000000000000000000000000000000000000000000000000000000000000000000000000000000000000000000000016057350PES00010000001000000000000000000000000
2020080500100014000000000000000147670000000000000001476780000000020-08067639-6ARGENTE DOMINGO ANDRES        000000000733502000000000000000000000000000000000000000000000000000000000000000000000000000000000000000000000000000000000PES00010000001000000000000000000000000
2020080500100014000000000000000147680000000000000001476880000000033-70802593-9CIA YESERA  DEL NORTE SRL     000000002665492000000000000000000000000000000000000000000000000000000000000000000000000000000000000000000000000000000000PES00010000001000000000000000000000000
2020080500100014000000000000000147690000000000000001476980000000027-06067844-3CACERES VICTORIA DEL CARMEN   000000002212963000000000000000000000000000000000000000000000000000000000000000000000000000000000000000000000000000000000PES00010000001000000000000000000000000
2020080500100014000000000000000147700000000000000001477080000000030-71476431-0ARIAS DANTE,VICTOR Y WILLIAM S000000002936924000000000000000000000000000000000000000000000000000000000000000000000000000000000000000000000000000000000PES00010000001000000000000000000000000
2020080500100014000000000000000147710000000000000001477180000000030-68567422-6BLAZQUEZ SRL                  000000000401484000000000000000000000000000000000000000000000000000000000000000000000000000000000000000000000000000000000PES00010000001000000000000000000000000
2020080500100014000000000000000147720000000000000001477280000000023-14225082-9RODRIGUEZ CARLOS DANIEL       000000000349707000000000000000000000000000000000000000000000000000000000000000000000000000000000000000000000000000000000PES00010000001000000000000000000000000
2020080500100014000000000000000147730000000000000001477380000000030-51774682-3SAN VALERO SRL                000000002665492000000000000000000000000000000000000000000000000000000000000000000000000000000000000000000000000000000000PES00010000001000000000000000000000000
2020080500100014000000000000000147740000000000000001477480000000033-70756067-9LA MARTINA SERVICIOS AGRICOLAS000000003294340000000000000000000000000000000000000000000000000000000000000000000000000000000000000000000000000000000000PES00010000001000000000000000000000000
2020080500100014000000000000000147750000000000000001477580000000030-70872456-0LA ASTURIANA S.R.L            000000000842926000000000000000000000000000000000000000000000000000000000000000000000000000000000000000000000000000000000PES00010000001000000000000000000000000
2020080500100014000000000000000147760000000000000001477680000000020-28531567-1ROTH GERARDO ARIEL            000000004169798000000000000000000000000000000000000000000000000000000000000000000000000000000000000000000000000000000000PES00010000001000000000000000000000000
2020080500100014000000000000000147770000000000000001477780000000030-71648412-9TRAPANI FRESH                 000000003600078000000000000000000000000000000000000000000000000000000000000000000000000000000000000000000000000000000000PES00010000001000000000000000000000000
2020080500100014000000000000000147780000000000000001477880000000020-11239190-9MAX CARLOS ALBERTO            000000000451733000000000000000000000000000000000000000000000000000000000000000000000000000000000000000000000000000000000PES00010000001000000000000000000000000
2020080500100052000000000000000002620000000000000000026280000000027-27595135-3GALVEZ AGUEDA FABIOLA         000000001985485000000000000000000000000000000000000000000000000000000000000000000000000000000000000000000000000000000000PES00010000001000000000000000000000000
2020080500100052000000000000000002630000000000000000026380000000030-63922709-6INTRA S.R.L.                  000000016100018000000000000000000000000000000000000000000000000000000000000000000000000000000000000000000000000000000000PES00010000001000000000000000000000000
2020080500100200000000000000000000570000000000000000005780000000030-51548847-9YPF GAS SA                    000000085000161000000000000000000000000000000000000000000000000000000000000000000000000000000000000000000000000000000000PES00010000001000000000000000000000000
2020080500600011000000000000000002210000000000000000022180000000033-63864078-9DIRECCION PROVINCIAL DE VIALID000000045440002000000000000000000000000000000000000000000000000000000000000000000000000000000000000000000000000007556400PES00010000001000000000000000000000000
2020080500600014000000000000000040200000000000000000402080000000027-33050903-7AVILA NADIA NOELIA            000000003284891000000000000000000000000000000000000000000000000000000000000000000000000000000000000000000000000000000000PES00010000001000000000000000000000000
2020080500600014000000000000000040210000000000000000402180000000020-21746057-4SECO FLAVIO DANIEL            000000003430632000000000000000000000000000000000000000000000000000000000000000000000000000000000000000000000000000000000PES00010000001000000000000000000000000
2020080500600016000000000000000002450000000000000000024580000000033-63864078-9DIRECCION PROVINCIAL DE VIALID000001474999997000000000000000000000000000000000000000000000000000000000000000000000000000000000000000000000000000000000PES00010000001000000000000000000000000
2020080500300015000000000000000001030000000000000000010380000000030-54668997-9YPF SA                        000000004137794000000000000000000000000000000000000000000000000000000000000000000000000000000000000000000000000000000000PES00010000001000000000000000000000000
2020080600100011000000000000000108190000000000000001081980000000030-71301460-1MAELI SRL                     000000016200001000000000000000000000000000000000000000000000000000000000000000000000000000000000000000000000000002833650PES00010000001000000000000000000000000
2020080600100011000000000000000108200000000000000001082080000000030-71509855-1SUCROALCOHOLERA DEL SUR SA    000000088400000000000000000000000000000000000000000000000000000000000000000000000000000000000000000000000000000016057350PES00010000001000000000000000000000000
2020080600100011000000000000000108210000000000000001082180000000030-62600961-8EXPRESO RIVADAVIA SRL         000000019777160000000000000000000000000000000000000000000000000000000000000000000000000000000000000000000000000003592407PES00010000001000000000000000000000000
2020080600100011000000000000000108220000000000000001082280000000030-70797695-7AGRO LAJITAS SA               000000018000003000000000000000000000000000000000000000000000000000000000000000000000000000000000000000000000000002833650PES00010000001000000000000000000000000
2020080600100011000000000000000108230000000000000001082380000000030-70872456-0LA ASTURIANA S.R.L            000000021999999000000000000000000000000000000000000000000000000000000000000000000000000000000000000000000000000003778200PES00010000001000000000000000000000000
2020080600100011000000000000000108240000000000000001082480000000020-23027140-3ROTH CARLOS GERMAN            000000039959998000000000000000000000000000000000000000000000000000000000000000000000000000000000000000000000000006989670PES00010000001000000000000000000000000
2020080600100011000000000000000108250000000000000001082580000000020-28531567-1ROTH GERARDO ARIEL            000000016200001000000000000000000000000000000000000000000000000000000000000000000000000000000000000000000000000002833650PES00010000001000000000000000000000000
2020080600100014000000000000000147790000000000000001477980000000030-70970239-0YABITEL SA                    000000056311061000000000000000000000000000000000000000000000000000000000000000000000000000000000000000000000000000000000PES00010000001000000000000000000000000
2020080600100014000000000000000147800000000000000001478080000000030-67541508-7CIA AZUCARERA LOS BALCANES SA 000000006760621000000000000000000000000000000000000000000000000000000000000000000000000000000000000000000000000000000000PES00010000001000000000000000000000000
2020080600100014000000000000000147810000000000000001478180000000030-67541508-7CIA AZUCARERA LOS BALCANES SA 000000008298047000000000000000000000000000000000000000000000000000000000000000000000000000000000000000000000000000000000PES00010000001000000000000000000000000
2020080600100014000000000000000147820000000000000001478280000000020-37728037-8SZMYD JESUS EMMANUEL          000000007305104000000000000000000000000000000000000000000000000000000000000000000000000000000000000000000000000000000000PES00010000001000000000000000000000000
2020080600100014000000000000000147830000000000000001478380000000020-13040803-7DIAZ FRANCISCO                000000004169798000000000000000000000000000000000000000000000000000000000000000000000000000000000000000000000000000000000PES00010000001000000000000000000000000
2020080600100014000000000000000147840000000000000001478480000000020-13563011-0MENA CARLOS ADOLFO            000000000751531000000000000000000000000000000000000000000000000000000000000000000000000000000000000000000000000000000000PES00010000001000000000000000000000000
2020080600100014000000000000000147850000000000000001478580000000020-10015058-2MEDINA BENIGNO NOLASCO        000000011309945000000000000000000000000000000000000000000000000000000000000000000000000000000000000000000000000000000000PES00010000001000000000000000000000000
2020080600100014000000000000000147860000000000000001478680000000030-52340824-7CERAMICA MARCOS PAZ SRL       000000013630592000000000000000000000000000000000000000000000000000000000000000000000000000000000000000000000000000000000PES00010000001000000000000000000000000
2020080600100014000000000000000147870000000000000001478780000000030-71514424-3INGENIERIA MANTENIMIENTO Y SER000000003345022000000000000000000000000000000000000000000000000000000000000000000000000000000000000000000000000000000000PES00010000001000000000000000000000000
2020080600100014000000000000000147880000000000000001478880000000030-71227254-2OLGA ZOTTOLA DE SIMONETO E HIJ000000004512660000000000000000000000000000000000000000000000000000000000000000000000000000000000000000000000000000000000PES00010000001000000000000000000000000
2020080600100014000000000000000147890000000000000001478980000000030-71227254-2OLGA ZOTTOLA DE SIMONETO E HIJ000000000753450000000000000000000000000000000000000000000000000000000000000000000000000000000000000000000000000000000000PES00010000001000000000000000000000000
2020080600100014000000000000000147900000000000000001479080000000033-70756067-9LA MARTINA SERVICIOS AGRICOLAS000000009215642000000000000000000000000000000000000000000000000000000000000000000000000000000000000000000000000000000000PES00010000001000000000000000000000000
2020080600100014000000000000000147910000000000000001479180000000030-71164253-2CENTRO DE SERVICIOS DEL ESTE S000000002507310000000000000000000000000000000000000000000000000000000000000000000000000000000000000000000000000000000000PES00010000001000000000000000000000000
2020080600100014000000000000000147920000000000000001479280000000030-64969673-6RONDEAU SRL                   000000006010514000000000000000000000000000000000000000000000000000000000000000000000000000000000000000000000000000000000PES00010000001000000000000000000000000
2020080600100014000000000000000147930000000000000001479380000000020-11239190-9MAX CARLOS ALBERTO            000000001199052000000000000000000000000000000000000000000000000000000000000000000000000000000000000000000000000000000000PES00010000001000000000000000000000000
2020080600100014000000000000000147940000000000000001479480000000030-71234003-3POWER SRL                     000000001123888000000000000000000000000000000000000000000000000000000000000000000000000000000000000000000000000000000000PES00010000001000000000000000000000000
2020080600100016000000000000000007800000000000000000078080000000030-71234003-3POWER SRL                     000000000787261000000000000000000000000000000000000000000000000000000000000000000000000000000000000000000000000000000000PES00010000001000000000000000000000000
2020080600100052000000000000000002640000000000000000026480000000030-70806783-7AGRICOLA DE LEALES SC         000000199665860000000000000000000000000000000000000000000000000000000000000000000000000000000000000000000000000000000000PES00010000001000000000000000000000000
2020080600600011000000000000000002220000000000000000022280000000033-63864078-9DIRECCION PROVINCIAL DE VIALID000000025559998000000000000000000000000000000000000000000000000000000000000000000000000000000000000000000000000004250475PES00010000001000000000000000000000000
2020080600300014000000000000000022780000000000000000227880000000030-71074561-3EMPRESA LIBERTAD SRL UTE      000000000298628000000000000000000000000000000000000000000000000000000000000000000000000000000000000000000000000000000000PES00010000001000000000000000000000000
2020080600300014000000000000000022790000000000000000227980000000030-71074561-3EMPRESA LIBERTAD SRL UTE      000000000334502000000000000000000000000000000000000000000000000000000000000000000000000000000000000000000000000000000000PES00010000001000000000000000000000000
2020080700100011000000000000000108260000000000000001082680000000030-70962825-5PACTA SRL                     000000016199998000000000000000000000000000000000000000000000000000000000000000000000000000000000000000000000000003148500PES00010000001000000000000000000000000
2020080700100011000000000000000108270000000000000001082780000000030-71008027-1LA RONDA S.R.L.               000000016349998000000000000000000000000000000000000000000000000000000000000000000000000000000000000000000000000003148500PES00010000001000000000000000000000000
2020080700100011000000000000000108280000000000000001082880000000030-71038312-6TM ROLDAN SRL                 000000004950001000000000000000000000000000000000000000000000000000000000000000000000000000000000000000000000000000944550PES00010000001000000000000000000000000
2020080700100011000000000000000108290000000000000001082980000000030-62600961-8EXPRESO RIVADAVIA SRL         000000016787163000000000000000000000000000000000000000000000000000000000000000000000000000000000000000000000000003388101PES00010000001000000000000000000000000
2020080700100011000000000000000108300000000000000001083080000000030-71509855-1SUCROALCOHOLERA DEL SUR SA    000000088400000000000000000000000000000000000000000000000000000000000000000000000000000000000000000000000000000017841500PES00010000001000000000000000000000000
2020080700100014000000000000000147950000000000000001479580000000020-29044851-5VILLALON MARTIN ANTONIO       000000001503068000000000000000000000000000000000000000000000000000000000000000000000000000000000000000000000000000000000PES00010000001000000000000000000000000
2020080700100014000000000000000147960000000000000001479680000000030-71509855-1SUCROALCOHOLERA DEL SUR SA    000000007201713000000000000000000000000000000000000000000000000000000000000000000000000000000000000000000000000000000000PES00010000001000000000000000000000000
2020080700100014000000000000000147970000000000000001479780000000020-16753890-9BARRIONUEVO JOSE HUMBERTO     000000000475311000000000000000000000000000000000000000000000000000000000000000000000000000000000000000000000000000000000PES00010000001000000000000000000000000
2020080700100014000000000000000147980000000000000001479880000000033-71586145-9GRUPO MUNOZ SRL               000000003870237000000000000000000000000000000000000000000000000000000000000000000000000000000000000000000000000000000000PES00010000001000000000000000000000000
2020080700100014000000000000000147990000000000000001479980000000023-31128433-9CARRASCO RAUL RICARDO         000000004294509000000000000000000000000000000000000000000000000000000000000000000000000000000000000000000000000000000000PES00010000001000000000000000000000000
2020080700100014000000000000000148000000000000000001480080000000027-28496442-5RACEDO ROSANA ESTER           000000001790016000000000000000000000000000000000000000000000000000000000000000000000000000000000000000000000000000000000PES00010000001000000000000000000000000
2020080700100014000000000000000148010000000000000001480180000000020-08518298-7VALLEJO JUAN GUILLERMO        000000004473791000000000000000000000000000000000000000000000000000000000000000000000000000000000000000000000000000000000PES00010000001000000000000000000000000
2020080700100014000000000000000148020000000000000001480280000000020-26385098-0CHAYA SEBASTIAN ENRIQUE       000000001268259000000000000000000000000000000000000000000000000000000000000000000000000000000000000000000000000000000000PES00010000001000000000000000000000000
2020080700100014000000000000000148030000000000000001480380000000033-70756067-9LA MARTINA SERVICIOS AGRICOLAS000000000401484000000000000000000000000000000000000000000000000000000000000000000000000000000000000000000000000000000000PES00010000001000000000000000000000000
2020080700100014000000000000000148040000000000000001480480000000027-41275009-3PARADI ROCIO NAHIR            000000007529381000000000000000000000000000000000000000000000000000000000000000000000000000000000000000000000000000000000PES00010000001000000000000000000000000
2020080700100014000000000000000148050000000000000001480580000000030-50454932-8INGECO SA                     000000001382886000000000000000000000000000000000000000000000000000000000000000000000000000000000000000000000000000000000PES00010000001000000000000000000000000
2020080700100014000000000000000148060000000000000001480680000000030-50454932-8INGECO SA                     000000004408007000000000000000000000000000000000000000000000000000000000000000000000000000000000000000000000000000000000PES00010000001000000000000000000000000
2020080700100014000000000000000148070000000000000001480780000000030-50275520-6SA RODRIGUEZ HNOS CIFA        000000000396552000000000000000000000000000000000000000000000000000000000000000000000000000000000000000000000000000000000PES00010000001000000000000000000000000
2020080700100014000000000000000148080000000000000001480880000000020-29673955-4MUHIC GIANNI MIRKO            000000004795074000000000000000000000000000000000000000000000000000000000000000000000000000000000000000000000000000000000PES00010000001000000000000000000000000
2020080700100014000000000000000148090000000000000001480980000000027-17613616-8JUAREZ SILVIA MONICA          000000004579942000000000000000000000000000000000000000000000000000000000000000000000000000000000000000000000000000000000PES00010000001000000000000000000000000
2020080700100016000000000000000007810000000000000000078180000000030-50454932-8INGECO SA                     000000000734793000000000000000000000000000000000000000000000000000000000000000000000000000000000000000000000000000000000PES00010000001000000000000000000000000
2020080700100016000000000000000007820000000000000000078280000000020-29673955-4MUHIC GIANNI MIRKO            000000001002450000000000000000000000000000000000000000000000000000000000000000000000000000000000000000000000000000000000PES00010000001000000000000000000000000
2020080700100052000000000000000002650000000000000000026580000000020-16682948-9GOMEZ NESTOR NICOLAS          000000053999992000000000000000000000000000000000000000000000000000000000000000000000000000000000000000000000000000000000PES00010000001000000000000000000000000
2020080700600014000000000000000040220000000000000000402280000000027-05876719-6SARAVIA ELDA SINFOROSA        000000002507310000000000000000000000000000000000000000000000000000000000000000000000000000000000000000000000000000000000PES00010000001000000000000000000000000
2020080700600014000000000000000040230000000000000000402380000000020-28790409-7MATIUZZI ALFREDO              000000000946376000000000000000000000000000000000000000000000000000000000000000000000000000000000000000000000000000000000PES00010000001000000000000000000000000
2020080700300015000000000000000001050000000000000000010580000000030-54668997-9YPF SA                        000000175166063000000000000000000000000000000000000000000000000000000000000000000000000000000000000000000000000000000000PES00010000001000000000000000000000000
2020080700300014000000000000000022800000000000000000228080000000020-28151295-2VACA SERGIO MANUEL            000000000356397000000000000000000000000000000000000000000000000000000000000000000000000000000000000000000000000000000000PES00010000001000000000000000000000000
2020080700300014000000000000000022810000000000000000228180000000030-71476431-0ARIAS DANTE,VICTOR Y WILLIAM S000000000472551000000000000000000000000000000000000000000000000000000000000000000000000000000000000000000000000000000000PES00010000001000000000000000000000000
2020080800100011000000000000000108310000000000000001083180000000023-32726905-4SAAVEDRA NATALIA DEL VALLE    000000008475001000000000000000000000000000000000000000000000000000000000000000000000000000000000000000000000000001574250PES00010000001000000000000000000000000
2020080800100011000000000000000108320000000000000001083280000000030-71526151-7SERCOU SRL                    000000008025002000000000000000000000000000000000000000000000000000000000000000000000000000000000000000000000000001574250PES00010000001000000000000000000000000
2020080800100011000000000000000108330000000000000001083380000000030-69178205-7DARDO JESUS SH                000000010773002000000000000000000000000000000000000000000000000000000000000000000000000000000000000000000000000002093753PES00010000001000000000000000000000000
2020080800100011000000000000000108340000000000000001083480000000027-12272198-7IBANEZ MARTA NORMA            000000005400003000000000000000000000000000000000000000000000000000000000000000000000000000000000000000000000000001049500PES00010000001000000000000000000000000
2020080800100011000000000000000108350000000000000001083580000000027-27595135-3GALVEZ AGUEDA FABIOLA         000000005400003000000000000000000000000000000000000000000000000000000000000000000000000000000000000000000000000001049500PES00010000001000000000000000000000000
2020080800100011000000000000000108360000000000000001083680000000030-71509855-1SUCROALCOHOLERA DEL SUR SA    000000088400000000000000000000000000000000000000000000000000000000000000000000000000000000000000000000000000000017841500PES00010000001000000000000000000000000
2020080800100011000000000000000108370000000000000001083780000000023-29135039-9SILVA SERGIO EDUARDO          000000089590000000000000000000000000000000000000000000000000000000000000000000000000000000000000000000000000000017841500PES00010000001000000000000000000000000
2020080800100011000000000000000108380000000000000001083880000000030-62600961-8EXPRESO RIVADAVIA SRL         000000007505679000000000000000000000000000000000000000000000000000000000000000000000000000000000000000000000000001514848PES00010000001000000000000000000000000
2020080800100014000000000000000148100000000000000001481080000000030-70792794-8FGF TRAPANI SA                000000002533538000000000000000000000000000000000000000000000000000000000000000000000000000000000000000000000000000000000PES00010000001000000000000000000000000
2020080800100014000000000000000148110000000000000001481180000000027-17613616-8JUAREZ SILVIA MONICA          000000003116343000000000000000000000000000000000000000000000000000000000000000000000000000000000000000000000000000000000PES00010000001000000000000000000000000
2020080800100014000000000000000148120000000000000001481280000000020-29673955-4MUHIC GIANNI MIRKO            000000002413132000000000000000000000000000000000000000000000000000000000000000000000000000000000000000000000000000000000PES00010000001000000000000000000000000
2020080800300014000000000000000022820000000000000000228280000000020-29673955-4MUHIC GIANNI MIRKO            000000004795074000000000000000000000000000000000000000000000000000000000000000000000000000000000000000000000000000000000PES00010000001000000000000000000000000
2020081000100011000000000000000108390000000000000001083980000000030-71439153-0AFISA SRL (ST)                000000026500003000000000000000000000000000000000000000000000000000000000000000000000000000000000000000000000000005247500PES00010000001000000000000000000000000
2020081000100011000000000000000108400000000000000001084080000000020-34226808-1CANO ARON JOSE VICTOR (ST)    000000013249999000000000000000000000000000000000000000000000000000000000000000000000000000000000000000000000000002623750PES00010000001000000000000000000000000
2020081000100011000000000000000108410000000000000001084180000000030-70976790-5COOP AGROPECUARIA LOS BARRIENT000000021199998000000000000000000000000000000000000000000000000000000000000000000000000000000000000000000000000004198000PES00010000001000000000000000000000000
2020081000100011000000000000000108420000000000000001084280000000030-71492201-3DON BETO SRL (ST)             000000015899999000000000000000000000000000000000000000000000000000000000000000000000000000000000000000000000000003148500PES00010000001000000000000000000000000
2020081000100011000000000000000108430000000000000001084380000000023-20898630-9GUTIERREZ JORGE LUIS (ST)     000000005300000000000000000000000000000000000000000000000000000000000000000000000000000000000000000000000000000001049500PES00010000001000000000000000000000000
2020081000100011000000000000000108440000000000000001084480000000030-71681985-6INDUSTRIAS SANTA BARBARA SRL E000000015899999000000000000000000000000000000000000000000000000000000000000000000000000000000000000000000000000003148500PES00010000001000000000000000000000000
2020081000100011000000000000000108450000000000000001084580000000020-17337860-3JUAREZ ANTONIO ARMANDO (ST)   000000015899999000000000000000000000000000000000000000000000000000000000000000000000000000000000000000000000000003148500PES00010000001000000000000000000000000
2020081000100011000000000000000108460000000000000001084680000000030-51088532-1LA BANDA SRL (ST)             000000053000001000000000000000000000000000000000000000000000000000000000000000000000000000000000000000000000000010495000PES00010000001000000000000000000000000
2020081000100011000000000000000108470000000000000001084780000000020-39974493-9MIRANDA ARIEL MATIAS (ST)     000000015899999000000000000000000000000000000000000000000000000000000000000000000000000000000000000000000000000003148500PES00010000001000000000000000000000000
2020081000100011000000000000000108480000000000000001084880000000020-25320080-5VILLAFANE ARIEL HUGO (ST)     000000007949999000000000000000000000000000000000000000000000000000000000000000000000000000000000000000000000000001574250PES00010000001000000000000000000000000
2020081000100011000000000000000108490000000000000001084980000000030-71001068-0ZAPULLA JOSE E Y G SALVADOR SH000000031800003000000000000000000000000000000000000000000000000000000000000000000000000000000000000000000000000006297000PES00010000001000000000000000000000000
2020081000100011000000000000000108500000000000000001085080000000030-71509855-1SUCROALCOHOLERA DEL SUR SA    000000088400000000000000000000000000000000000000000000000000000000000000000000000000000000000000000000000000000017841500PES00010000001000000000000000000000000
2020081000100011000000000000000108510000000000000001085180000000030-71001068-0ZAPULLA JOSE E Y G SALVADOR SH000000005300000000000000000000000000000000000000000000000000000000000000000000000000000000000000000000000000000001049500PES00010000001000000000000000000000000
2020081000100011000000000000000108520000000000000001085280000000030-71496631-2FYL TRANS SRL                 000000015450000000000000000000000000000000000000000000000000000000000000000000000000000000000000000000000000000003148500PES00010000001000000000000000000000000
2020081000100011000000000000000108530000000000000001085380000000030-62600961-8EXPRESO RIVADAVIA SRL         000000017687277000000000000000000000000000000000000000000000000000000000000000000000000000000000000000000000000003569769PES00010000001000000000000000000000000
2020081000100011000000000000000108540000000000000001085480000000030-70891326-6TRANSPORTE HACHA DE PIEDRA SRL000000035692589000000000000000000000000000000000000000000000000000000000000000000000000000000000000000000000000007273665PES00010000001000000000000000000000000
2020081000100011000000000000000108550000000000000001085580000000030-71457586-0SYNBUILD SA                   000000003239998000000000000000000000000000000000000000000000000000000000000000000000000000000000000000000000000000629700PES00010000001000000000000000000000000
2020081000100011000000000000000108560000000000000001085680000000020-22969386-8ROTTA MANUEL JUAN             000000032400002000000000000000000000000000000000000000000000000000000000000000000000000000000000000000000000000006297000PES00010000001000000000000000000000000
2020081000100014000000000000000148130000000000000001481380000000020-11475833-8CARRERA FRANCISCO EDUARDO     000000000639566000000000000000000000000000000000000000000000000000000000000000000000000000000000000000000000000000000000PES00010000001000000000000000000000000
2020081000100014000000000000000148140000000000000001481480000000030-71257780-7LAS VALKIRIAS SRL             000000010029235000000000000000000000000000000000000000000000000000000000000000000000000000000000000000000000000000000000PES00010000001000000000000000000000000
2020081000100014000000000000000148150000000000000001481580000000020-22924881-3PEDRAZA PEDRO ANTONIO         000000001069433000000000000000000000000000000000000000000000000000000000000000000000000000000000000000000000000000000000PES00010000001000000000000000000000000
2020081000100014000000000000000148160000000000000001481680000000020-43772359-2CHIBILISCO VENZAL AGUSTIN     000000001697912000000000000000000000000000000000000000000000000000000000000000000000000000000000000000000000000000000000PES00010000001000000000000000000000000
2020081000100014000000000000000148170000000000000001481780000000030-71555371-2COMPLEJO AZUCARERO CONCEPCION 000000037852430000000000000000000000000000000000000000000000000000000000000000000000000000000000000000000000000000000000PES00010000001000000000000000000000000
2020081000100014000000000000000148180000000000000001481880000000030-50922600-4MONTE BELLO SRL               000000001208813000000000000000000000000000000000000000000000000000000000000000000000000000000000000000000000000000000000PES00010000001000000000000000000000000
2020081000100014000000000000000148190000000000000001481980000000030-70240214-6PREMOL SRL                    000000000401484000000000000000000000000000000000000000000000000000000000000000000000000000000000000000000000000000000000PES00010000001000000000000000000000000
2020081000100014000000000000000148200000000000000001482080000000030-70806783-7AGRICOLA DE LEALES SC         000000000897382000000000000000000000000000000000000000000000000000000000000000000000000000000000000000000000000000000000PES00010000001000000000000000000000000
2020081000100014000000000000000148210000000000000001482180000000030-50454932-8INGECO SA                     000000007464139000000000000000000000000000000000000000000000000000000000000000000000000000000000000000000000000000000000PES00010000001000000000000000000000000
2020081000100014000000000000000148220000000000000001482280000000020-29044851-5VILLALON MARTIN ANTONIO       000000002992595000000000000000000000000000000000000000000000000000000000000000000000000000000000000000000000000000000000PES00010000001000000000000000000000000
2020081000100014000000000000000148230000000000000001482380000000020-26385098-0CHAYA SEBASTIAN ENRIQUE       000000005185415000000000000000000000000000000000000000000000000000000000000000000000000000000000000000000000000000000000PES00010000001000000000000000000000000
2020081000100014000000000000000148240000000000000001482480000000030-70970401-6SALSENCH SRL                  000000007987083000000000000000000000000000000000000000000000000000000000000000000000000000000000000000000000000000000000PES00010000001000000000000000000000000
2020081000100014000000000000000148250000000000000001482580000000027-30598112-0CANGEMI IVANNA MARCELA        000000003639432000000000000000000000000000000000000000000000000000000000000000000000000000000000000000000000000000000000PES00010000001000000000000000000000000
2020081000100014000000000000000148260000000000000001482680000000030-71587016-5LA PICK UP REPUESTOS SRL      000000035731185000000000000000000000000000000000000000000000000000000000000000000000000000000000000000000000000000000000PES00010000001000000000000000000000000
2020081000100014000000000000000148270000000000000001482780000000030-50551763-2VICENTE TRAPANI SA            000000003752821000000000000000000000000000000000000000000000000000000000000000000000000000000000000000000000000000000000PES00010000001000000000000000000000000
2020081000100052000000000000000002660000000000000000026680000000020-16682948-9GOMEZ NESTOR NICOLAS          000000053999992000000000000000000000000000000000000000000000000000000000000000000000000000000000000000000000000000000000PES00010000001000000000000000000000000
2020081000100052000000000000000002670000000000000000026780000000020-25741019-7GARCIA VICTOR MANUEL          000000040021290000000000000000000000000000000000000000000000000000000000000000000000000000000000000000000000000000000000PES00010000001000000000000000000000000
2020081000100052000000000000000002680000000000000000026880000000020-08083597-4TRAPANI IGNACIO               000000534295125000000000000000000000000000000000000000000000000000000000000000000000000000000000000000000000000000000000PES00010000001000000000000000000000000
2020081000100052000000000000000002690000000000000000026980000000020-10910036-7QUIROGA DIEGO ABEL            000000056872750000000000000000000000000000000000000000000000000000000000000000000000000000000000000000000000000000000000PES00010000001000000000000000000000000
2020081000100200000000000000000000590000000000000000005980000000030-51649274-7CONORVIAL S.A.                000000058999999000000000000000000000000000000000000000000000000000000000000000000000000000000000000000000000000010495000PES00010000001000000000000000000000000
2020081000600011000000000000000002230000000000000000022380000000020-17926517-7GUTIERREZ JUAN MANUEL (ST)    000000005300000000000000000000000000000000000000000000000000000000000000000000000000000000000000000000000000000001049500PES00010000001000000000000000000000000
2020081000600014000000000000000040240000000000000000402480000000020-26277085-1MORENO JOSE ALBERTO           000000001743570000000000000000000000000000000000000000000000000000000000000000000000000000000000000000000000000000000000PES00010000001000000000000000000000000
2020081000600014000000000000000040250000000000000000402580000000027-23020425-5PAZ SILVIA PATRICIA           000000000985925000000000000000000000000000000000000000000000000000000000000000000000000000000000000000000000000000000000PES00010000001000000000000000000000000
2020081000600014000000000000000040260000000000000000402680000000020-22233476-5ONTIVEROS GUSTAVO             000000007420815000000000000000000000000000000000000000000000000000000000000000000000000000000000000000000000000000000000PES00010000001000000000000000000000000
2020081000600014000000000000000040270000000000000000402780000000020-11267521-4LIZARRAGA EDMUNDO ANTONIO     000000006282136000000000000000000000000000000000000000000000000000000000000000000000000000000000000000000000000000000000PES00010000001000000000000000000000000
2020081000300015000000000000000001060000000000000000010680000000030-54668997-9YPF SA                        000000087362679000000000000000000000000000000000000000000000000000000000000000000000000000000000000000000000000000000000PES00010000001000000000000000000000000
2020081000300015000000000000000001070000000000000000010780000000030-54668997-9YPF SA                        000000054827616000000000000000000000000000000000000000000000000000000000000000000000000000000000000000000000000000000000PES00010000001000000000000000000000000
2020081000300015000000000000000001080000000000000000010880000000030-54668997-9YPF SA                        000000085474844000000000000000000000000000000000000000000000000000000000000000000000000000000000000000000000000000000000PES00010000001000000000000000000000000
2020081000300015000000000000000001090000000000000000010980000000030-54668997-9YPF SA                        000000192318399000000000000000000000000000000000000000000000000000000000000000000000000000000000000000000000000000000000PES00010000001000000000000000000000000
2020081000300015000000000000000001100000000000000000011080000000030-54668997-9YPF SA                        000000263038546000000000000000000000000000000000000000000000000000000000000000000000000000000000000000000000000000000000PES00010000001000000000000000000000000
2020081000300015000000000000000001110000000000000000011180000000030-54668997-9YPF SA                        000000885275170000000000000000000000000000000000000000000000000000000000000000000000000000000000000000000000000000000000PES00010000001000000000000000000000000
2020081000300015000000000000000001120000000000000000011280000000030-54668997-9YPF SA                        000000088527517000000000000000000000000000000000000000000000000000000000000000000000000000000000000000000000000000000000PES00010000001000000000000000000000000
2020081000300015000000000000000001130000000000000000011380000000030-54668997-9YPF SA                        000000088527517000000000000000000000000000000000000000000000000000000000000000000000000000000000000000000000000000000000PES00010000001000000000000000000000000
2020081000300015000000000000000001140000000000000000011480000000030-54668997-9YPF SA                        000000033426766000000000000000000000000000000000000000000000000000000000000000000000000000000000000000000000000000000000PES00010000001000000000000000000000000
2020081000300014000000000000000022830000000000000000228380000000033-56421712-9DI BACCO Y CIA SA             000000000489076000000000000000000000000000000000000000000000000000000000000000000000000000000000000000000000000000000000PES00010000001000000000000000000000000
2020081000300014000000000000000022840000000000000000228480000000020-26385098-0CHAYA SEBASTIAN ENRIQUE       000000000164831000000000000000000000000000000000000000000000000000000000000000000000000000000000000000000000000000000000PES00010000001000000000000000000000000
2020081000300052000000000000000000280000000000000000002880000000020-16682948-9GOMEZ NESTOR NICOLAS          000000053999992000000000000000000000000000000000000000000000000000000000000000000000000000000000000000000000000000000000PES00010000001000000000000000000000000
2020081000800014000000000000000006800000000000000000068080000000020-35195924-0POOLIMAS JORGE LUIS           000000000025825000000000000000000000000000000000000000000000000000000000000000000000000000000000000000000000000000000000PES00010000001000000000000000000000000
2020081000800014000000000000000006810000000000000000068180000000020-35195924-0POOLIMAS JORGE LUIS           000000000059486000000000000000000000000000000000000000000000000000000000000000000000000000000000000000000000000000000000PES00010000001000000000000000000000000
2020081100100011000000000000000108570000000000000001085780000000020-07075452-6PARIZ MAURICIO                000000016200004000000000000000000000000000000000000000000000000000000000000000000000000000000000000000000000000003148500PES00010000001000000000000000000000000
2020081100100011000000000000000108580000000000000001085880000000030-70872456-0LA ASTURIANA S.R.L            000000027499999000000000000000000000000000000000000000000000000000000000000000000000000000000000000000000000000005247500PES00010000001000000000000000000000000
2020081100100011000000000000000108590000000000000001085980000000033-70923561-9ACEQUIONES SRL                000000008099999000000000000000000000000000000000000000000000000000000000000000000000000000000000000000000000000001574250PES00010000001000000000000000000000000
2020081100100011000000000000000108600000000000000001086080000000023-29943598-9VERA JORGE NICOLAS            000000010800001000000000000000000000000000000000000000000000000000000000000000000000000000000000000000000000000002099000PES00010000001000000000000000000000000
2020081100100011000000000000000108610000000000000001086180000000030-70858734-2QUILLEN BERRIES S.A           000000008099999000000000000000000000000000000000000000000000000000000000000000000000000000000000000000000000000001574250PES00010000001000000000000000000000000
2020081100100011000000000000000108620000000000000001086280000000020-08099481-9BRAVO ZAVALETA ARMANDO MANUEL 000000017100002000000000000000000000000000000000000000000000000000000000000000000000000000000000000000000000000003148500PES00010000001000000000000000000000000
2020081100100011000000000000000108630000000000000001086380000000020-06085649-5GUILLELMI DOMINGO RAMON       000000027000004000000000000000000000000000000000000000000000000000000000000000000000000000000000000000000000000005247500PES00010000001000000000000000000000000
2020081100100011000000000000000108640000000000000001086480000000020-13674431-4BRIZ RAMON OSCAR              000000029393799000000000000000000000000000000000000000000000000000000000000000000000000000000000000000000000000005820527PES00010000001000000000000000000000000
2020081100100011000000000000000108650000000000000001086580000000020-06350225-2GOIZUETA FELIPE PEDRO         000000017699998000000000000000000000000000000000000000000000000000000000000000000000000000000000000000000000000002833650PES00010000001000000000000000000000000
2020081100100011000000000000000108660000000000000001086680000000020-07007717-6GHIGGIA JOSE ALFREDO          000000200465701000000000000000000000000000000000000000000000000000000000000000000000000000000000000000000000000041252697PES00010000001000000000000000000000000
2020081100100011000000000000000108670000000000000001086780000000030-70891326-6TRANSPORTE HACHA DE PIEDRA SRL000000004315141000000000000000000000000000000000000000000000000000000000000000000000000000000000000000000000000000838655PES00010000001000000000000000000000000
2020081100100011000000000000000108680000000000000001086880000000030-62600961-8EXPRESO RIVADAVIA SRL         000000018250441000000000000000000000000000000000000000000000000000000000000000000000000000000000000000000000000003683430PES00010000001000000000000000000000000
2020081100100014000000000000000148280000000000000001482880000000030-71509855-1SUCROALCOHOLERA DEL SUR SA    000000021915024000000000000000000000000000000000000000000000000000000000000000000000000000000000000000000000000000000000PES00010000001000000000000000000000000
2020081100100014000000000000000148290000000000000001482980000000027-06133981-2SIERRA SILVIA RAMONA          000000005862467000000000000000000000000000000000000000000000000000000000000000000000000000000000000000000000000000000000PES00010000001000000000000000000000000
2020081100100014000000000000000148300000000000000001483080000000027-28496442-5RACEDO ROSANA ESTER           000000002813394000000000000000000000000000000000000000000000000000000000000000000000000000000000000000000000000000000000PES00010000001000000000000000000000000
2020081100100014000000000000000148310000000000000001483180000000030-71631834-2SEIMA SRL                     000000005328840000000000000000000000000000000000000000000000000000000000000000000000000000000000000000000000000000000000PES00010000001000000000000000000000000
2020081100100014000000000000000148320000000000000001483280000000030-50454932-8INGECO SA                     000000002665492000000000000000000000000000000000000000000000000000000000000000000000000000000000000000000000000000000000PES00010000001000000000000000000000000
2020081100100014000000000000000148330000000000000001483380000000020-13563090-0RODRIGUEZ MARCELO OSVALDO     000000002792830000000000000000000000000000000000000000000000000000000000000000000000000000000000000000000000000000000000PES00010000001000000000000000000000000
2020081100100014000000000000000148340000000000000001483480000000023-07091924-9HERRERA JORGE ARMANDO         000000002158225000000000000000000000000000000000000000000000000000000000000000000000000000000000000000000000000000000000PES00010000001000000000000000000000000
2020081100100014000000000000000148350000000000000001483580000000020-16059998-8DIAZ JOSE LUIS                000000003294340000000000000000000000000000000000000000000000000000000000000000000000000000000000000000000000000000000000PES00010000001000000000000000000000000
2020081100100014000000000000000148360000000000000001483680000000030-70717516-4LERMITEL SA                   000000087474939000000000000000000000000000000000000000000000000000000000000000000000000000000000000000000000000000000000PES00010000001000000000000000000000000
2020081100100014000000000000000148370000000000000001483780000000020-12893822-3DECIMA ARMANDO                000000003345022000000000000000000000000000000000000000000000000000000000000000000000000000000000000000000000000000000000PES00010000001000000000000000000000000
2020081100100014000000000000000148380000000000000001483880000000030-70772880-5PROYECTOS METALURGICOS S.A.   000000005608943000000000000000000000000000000000000000000000000000000000000000000000000000000000000000000000000000000000PES00010000001000000000000000000000000
2020081100100014000000000000000148390000000000000001483980000000027-32829221-7CARRIZO NOELIA DEL VALLE      000000002558724000000000000000000000000000000000000000000000000000000000000000000000000000000000000000000000000000000000PES00010000001000000000000000000000000
2020081100100051000000000000000002300000000000000000023080000000020-06085649-5GUILLELMI DOMINGO RAMON       000000039597250000000000000000000000000000000000000000000000000000000000000000000000000000000000000000000000000000000000PES00010000001000000000000000000000000
2020081100100052000000000000000002700000000000000000027080000000020-08285123-3CABEZON BARONE RICARDO H      000000059219160000000000000000000000000000000000000000000000000000000000000000000000000000000000000000000000000000000000PES00010000001000000000000000000000000
2020081100100052000000000000000002710000000000000000027180000000030-70806783-7AGRICOLA DE LEALES SC         000000000599826000000000000000000000000000000000000000000000000000000000000000000000000000000000000000000000000000000000PES00010000001000000000000000000000000
2020081100600014000000000000000040280000000000000000402880000000020-32413735-2BAZAN RUIZ FRANCO EMMANUEL    000000001598087000000000000000000000000000000000000000000000000000000000000000000000000000000000000000000000000000000000PES00010000001000000000000000000000000
2020081100600014000000000000000040290000000000000000402980000000020-17464304-1VILLALOBO CESAR ALBERTO       000000000733502000000000000000000000000000000000000000000000000000000000000000000000000000000000000000000000000000000000PES00010000001000000000000000000000000
2020081100300011000000000000000005210000000000000000052180000000030-70891326-6TRANSPORTE HACHA DE PIEDRA SRL000000004315141000000000000000000000000000000000000000000000000000000000000000000000000000000000000000000000000000838655PES00010000001000000000000000000000000
2020081100300014000000000000000022850000000000000000228580000000030-56197327-6TRANSMISION AUTOMOTOR (P)     000000000655382000000000000000000000000000000000000000000000000000000000000000000000000000000000000000000000000000000000PES00010000001000000000000000000000000
2020081100300014000000000000000022860000000000000000228680000000030-50507957-0V.H.A SA                      000000001086407000000000000000000000000000000000000000000000000000000000000000000000000000000000000000000000000000000000PES00010000001000000000000000000000000
2020081100300014000000000000000022870000000000000000228780000000020-29044851-5VILLALON MARTIN ANTONIO       000000000872133000000000000000000000000000000000000000000000000000000000000000000000000000000000000000000000000000000000PES00010000001000000000000000000000000
2020081100800014000000000000000006820000000000000000068280000000020-17464304-1VILLALOBO CESAR ALBERTO       000000000320719000000000000000000000000000000000000000000000000000000000000000000000000000000000000000000000000000000000PES00010000001000000000000000000000000
2020081100800014000000000000000006830000000000000000068380000000020-37727416-5TORRES GUILLERMO MARCELINO    000000000224547000000000000000000000000000000000000000000000000000000000000000000000000000000000000000000000000000000000PES00010000001000000000000000000000000
2020081100800014000000000000000006840000000000000000068480000000020-21746057-4SECO FLAVIO DANIEL            000000002225046000000000000000000000000000000000000000000000000000000000000000000000000000000000000000000000000000000000PES00010000001000000000000000000000000
2020081100800014000000000000000006850000000000000000068580000000020-21746057-4SECO FLAVIO DANIEL            000000000890018000000000000000000000000000000000000000000000000000000000000000000000000000000000000000000000000000000000PES00010000001000000000000000000000000
2020081100200011000000000000000002140000000000000000021480000000020-10910036-7QUIROGA DIEGO ABEL            000000025592737000000000000000000000000000000000000000000000000000000000000000000000000000000000000000000000000000000000PES00010000001000000000000000000000000
2020081200100011000000000000000108690000000000000001086980000000033-71475742-9NOBEN SRL                     000000027499999000000000000000000000000000000000000000000000000000000000000000000000000000000000000000000000000005247500PES00010000001000000000000000000000000
2020081200100011000000000000000108700000000000000001087080000000030-70746504-9LAPACHO AMARILLO SRL          000000010800001000000000000000000000000000000000000000000000000000000000000000000000000000000000000000000000000002099000PES00010000001000000000000000000000000
2020081200100011000000000000000108710000000000000001087180000000030-70708958-6NYNAGRO S.R.L.                000000011300001000000000000000000000000000000000000000000000000000000000000000000000000000000000000000000000000002099000PES00010000001000000000000000000000000
2020081200100011000000000000000108720000000000000001087280000000023-29666418-9GONZALEZ COLETTI ALVARO AGUSTI000000005400003000000000000000000000000000000000000000000000000000000000000000000000000000000000000000000000000001049500PES00010000001000000000000000000000000
2020081200100011000000000000000108730000000000000001087380000000030-71038312-6TM ROLDAN SRL                 000000004800002000000000000000000000000000000000000000000000000000000000000000000000000000000000000000000000000000755640PES00010000001000000000000000000000000
2020081200100011000000000000000108740000000000000001087480000000020-10791091-4VALDEZ RUFINO CESAR           000000021247703000000000000000000000000000000000000000000000000000000000000000000000000000000000000000000000000004207446PES00010000001000000000000000000000000
2020081200100011000000000000000108750000000000000001087580000000030-62600961-8EXPRESO RIVADAVIA SRL         000000019512480000000000000000000000000000000000000000000000000000000000000000000000000000000000000000000000000003938144PES00010000001000000000000000000000000
2020081200100011000000000000000108760000000000000001087680000000030-71666392-9UNIFRUTTI SA                  000000008099999000000000000000000000000000000000000000000000000000000000000000000000000000000000000000000000000001574250PES00010000001000000000000000000000000
2020081200100014000000000000000148400000000000000001484080000000020-10791091-4VALDEZ RUFINO CESAR           000000003752700000000000000000000000000000000000000000000000000000000000000000000000000000000000000000000000000000000000PES00010000001000000000000000000000000
2020081200100014000000000000000148410000000000000001484180000000020-10982303-2DEL POZO FELICIANO CESAR      000000000994718000000000000000000000000000000000000000000000000000000000000000000000000000000000000000000000000000000000PES00010000001000000000000000000000000
2020081200100014000000000000000148420000000000000001484280000000030-70795392-2FIDUAGRO SRL                  000000000412005000000000000000000000000000000000000000000000000000000000000000000000000000000000000000000000000000000000PES00010000001000000000000000000000000
2020081200100014000000000000000148430000000000000001484380000000020-27752670-1ROJAS SEGUNDO AGUSTIN         000000004169798000000000000000000000000000000000000000000000000000000000000000000000000000000000000000000000000000000000PES00010000001000000000000000000000000
2020081200100014000000000000000148440000000000000001484480000000023-29666418-9GONZALEZ COLETTI ALVARO AGUSTI000000001100247000000000000000000000000000000000000000000000000000000000000000000000000000000000000000000000000000000000PES00010000001000000000000000000000000
2020081200100014000000000000000148450000000000000001484580000000023-29666418-9GONZALEZ COLETTI ALVARO AGUSTI000000000475311000000000000000000000000000000000000000000000000000000000000000000000000000000000000000000000000000000000PES00010000001000000000000000000000000
2020081200100014000000000000000148460000000000000001484680000000027-17040898-0MARTINEZ ZUCCARDI ARIADNA I   000000000599526000000000000000000000000000000000000000000000000000000000000000000000000000000000000000000000000000000000PES00010000001000000000000000000000000
2020081200100014000000000000000148470000000000000001484780000000030-70872456-0LA ASTURIANA S.R.L            000000002790669000000000000000000000000000000000000000000000000000000000000000000000000000000000000000000000000000000000PES00010000001000000000000000000000000
2020081200100014000000000000000148480000000000000001484880000000023-07091924-9HERRERA JORGE ARMANDO         000000000906918000000000000000000000000000000000000000000000000000000000000000000000000000000000000000000000000000000000PES00010000001000000000000000000000000
2020081200100014000000000000000148490000000000000001484980000000030-71227254-2OLGA ZOTTOLA DE SIMONETO E HIJ000000000496382000000000000000000000000000000000000000000000000000000000000000000000000000000000000000000000000000000000PES00010000001000000000000000000000000
2020081200100014000000000000000148500000000000000001485080000000030-71227254-2OLGA ZOTTOLA DE SIMONETO E HIJ000000001656542000000000000000000000000000000000000000000000000000000000000000000000000000000000000000000000000000000000PES00010000001000000000000000000000000
2020081200100014000000000000000148510000000000000001485180000000023-10842181-9GASETU JUAN CARLOS            000000003345022000000000000000000000000000000000000000000000000000000000000000000000000000000000000000000000000000000000PES00010000001000000000000000000000000
2020081200100014000000000000000148520000000000000001485280000000033-71147477-9HIJOS DE ANTONIO ZAMORA SRL   000000001697912000000000000000000000000000000000000000000000000000000000000000000000000000000000000000000000000000000000PES00010000001000000000000000000000000
2020081200600016000000000000000002460000000000000000024680000000030-65045552-1MUNICIPALIDAD DE FAMAILLA     000000175000001000000000000000000000000000000000000000000000000000000000000000000000000000000000000000000000000000000000PES00010000001000000000000000000000000
2020081200300011000000000000000005220000000000000000052280000000033-70923561-9ACEQUIONES SRL                000000008099999000000000000000000000000000000000000000000000000000000000000000000000000000000000000000000000000001574250PES00010000001000000000000000000000000
2020081200800016000000000000000000280000000000000000002880000000030-65045552-1MUNICIPALIDAD DE FAMAILLA     000000008750000000000000000000000000000000000000000000000000000000000000000000000000000000000000000000000000000000000000PES00010000001000000000000000000000000
2020081300100011000000000000000108770000000000000001087780000000020-08094217-7GUILLELMI ANGEL SANTOS        000000009179998000000000000000000000000000000000000000000000000000000000000000000000000000000000000000000000000001784150PES00010000001000000000000000000000000
2020081300100011000000000000000108780000000000000001087880000000023-29135039-9SILVA SERGIO EDUARDO          000000089759999000000000000000000000000000000000000000000000000000000000000000000000000000000000000000000000000017841500PES00010000001000000000000000000000000
2020081300100011000000000000000108790000000000000001087980000000030-62600961-8EXPRESO RIVADAVIA SRL         000000019115718000000000000000000000000000000000000000000000000000000000000000000000000000000000000000000000000003858067PES00010000001000000000000000000000000
2020081300100011000000000000000108800000000000000001088080000000020-23021814-6RODRIGUEZ JAVIER ENRIQUE      000000005300000000000000000000000000000000000000000000000000000000000000000000000000000000000000000000000000000001049500PES00010000001000000000000000000000000
2020081300100011000000000000000108810000000000000001088180000000020-33630910-8LUNA OMAR FEDERICO            000000015899999000000000000000000000000000000000000000000000000000000000000000000000000000000000000000000000000003148500PES00010000001000000000000000000000000
2020081300100014000000000000000148530000000000000001485380000000030-70240214-6PREMOL SRL                    000000000299763000000000000000000000000000000000000000000000000000000000000000000000000000000000000000000000000000000000PES00010000001000000000000000000000000
2020081300100014000000000000000148540000000000000001485480000000020-20898931-7CEJAS JUAN CARLOS MANUEL      000000002191241000000000000000000000000000000000000000000000000000000000000000000000000000000000000000000000000000000000PES00010000001000000000000000000000000
2020081300100014000000000000000148550000000000000001485580000000023-08395432-9SUCESION DE RODA MARIO OSVALDO000000003241388000000000000000000000000000000000000000000000000000000000000000000000000000000000000000000000000000000000PES00010000001000000000000000000000000
2020081300100014000000000000000148560000000000000001485680000000030-67525102-5BIO TUC SRL                   000000002323477000000000000000000000000000000000000000000000000000000000000000000000000000000000000000000000000000000000PES00010000001000000000000000000000000
2020081300100014000000000000000148570000000000000001485780000000020-08099481-9BRAVO ZAVALETA ARMANDO MANUEL 000000000793109000000000000000000000000000000000000000000000000000000000000000000000000000000000000000000000000000000000PES00010000001000000000000000000000000
2020081300100014000000000000000148580000000000000001485880000000020-13674431-4BRIZ RAMON OSCAR              000000000575897000000000000000000000000000000000000000000000000000000000000000000000000000000000000000000000000000000000PES00010000001000000000000000000000000
2020081300100052000000000000000002720000000000000000027280000000030-71202984-2FINCA LAS PAJITAS SA          000000007499951000000000000000000000000000000000000000000000000000000000000000000000000000000000000000000000000000000000PES00010000001000000000000000000000000
2020081300600014000000000000000040300000000000000000403080000000020-24981449-1CORTI SERGIO DANIEL           000000000944705000000000000000000000000000000000000000000000000000000000000000000000000000000000000000000000000000000000PES00010000001000000000000000000000000
2020081300300011000000000000000005230000000000000000052380000000030-71001068-0ZAPULLA JOSE E Y G SALVADOR SH000000005300000000000000000000000000000000000000000000000000000000000000000000000000000000000000000000000000000001049500PES00010000001000000000000000000000000
2020081300300014000000000000000022880000000000000000228880000000030-68565532-9PRODUCCION SA                 000000002128367000000000000000000000000000000000000000000000000000000000000000000000000000000000000000000000000000000000PES00010000001000000000000000000000000
2020081300300014000000000000000022890000000000000000228980000000033-70802593-9CIA YESERA  DEL NORTE SRL     000000002665492000000000000000000000000000000000000000000000000000000000000000000000000000000000000000000000000000000000PES00010000001000000000000000000000000
2020081400100011000000000000000108820000000000000001088280000000030-70746504-9LAPACHO AMARILLO SRL          000000021600001000000000000000000000000000000000000000000000000000000000000000000000000000000000000000000000000004198000PES00010000001000000000000000000000000
2020081400100011000000000000000108830000000000000001088380000000020-06992029-3RODRIGUEZ MARIO               000000013249999000000000000000000000000000000000000000000000000000000000000000000000000000000000000000000000000002623750PES00010000001000000000000000000000000
2020081400100011000000000000000108840000000000000001088480000000020-37728037-8SZMYD JESUS EMMANUEL          000000013874998000000000000000000000000000000000000000000000000000000000000000000000000000000000000000000000000002623750PES00010000001000000000000000000000000
2020081400100011000000000000000108850000000000000001088580000000020-16753890-9BARRIONUEVO JOSE HUMBERTO     000000026499998000000000000000000000000000000000000000000000000000000000000000000000000000000000000000000000000005247500PES00010000001000000000000000000000000
2020081400100011000000000000000108860000000000000001088680000000030-62091992-2RF y J BUDEGUER SRL           000000008249999000000000000000000000000000000000000000000000000000000000000000000000000000000000000000000000000001574250PES00010000001000000000000000000000000
2020081400100011000000000000000108870000000000000001088780000000020-18505900-7VITAR MANUEL FERNANDO         000000008249999000000000000000000000000000000000000000000000000000000000000000000000000000000000000000000000000001574250PES00010000001000000000000000000000000
2020081400100011000000000000000108880000000000000001088880000000030-67442832-0RAICES SH                     000000011000002000000000000000000000000000000000000000000000000000000000000000000000000000000000000000000000000002099000PES00010000001000000000000000000000000
2020081400100011000000000000000108890000000000000001088980000000030-70872456-0LA ASTURIANA S.R.L            000000019250001000000000000000000000000000000000000000000000000000000000000000000000000000000000000000000000000003673250PES00010000001000000000000000000000000
2020081400100011000000000000000108900000000000000001089080000000030-62600961-8EXPRESO RIVADAVIA SRL         000000021496802000000000000000000000000000000000000000000000000000000000000000000000000000000000000000000000000004338633PES00010000001000000000000000000000000
2020081400100014000000000000000148590000000000000001485980000000020-08083597-4TRAPANI IGNACIO               000000003371694000000000000000000000000000000000000000000000000000000000000000000000000000000000000000000000000000000000PES00010000001000000000000000000000000
2020081400100014000000000000000148600000000000000001486080000000020-12541241-7SOLORZANO JOSE LUIS           000000002657321000000000000000000000000000000000000000000000000000000000000000000000000000000000000000000000000000000000PES00010000001000000000000000000000000
2020081400100014000000000000000148610000000000000001486180000000020-23295831-7JEREZ WALTER OSCAR         RI 000000002136848000000000000000000000000000000000000000000000000000000000000000000000000000000000000000000000000000000000PES00010000001000000000000000000000000
2020081400100014000000000000000148620000000000000001486280000000020-12541241-7SOLORZANO JOSE LUIS           000000000461961000000000000000000000000000000000000000000000000000000000000000000000000000000000000000000000000000000000PES00010000001000000000000000000000000
2020081400100014000000000000000148630000000000000001486380000000030-71510276-1ARIDOS CALERA SRL             000000006010514000000000000000000000000000000000000000000000000000000000000000000000000000000000000000000000000000000000PES00010000001000000000000000000000000
2020081400100014000000000000000148640000000000000001486480000000020-29673955-4MUHIC GIANNI MIRKO            000000002381943000000000000000000000000000000000000000000000000000000000000000000000000000000000000000000000000000000000PES00010000001000000000000000000000000
2020081400100014000000000000000148650000000000000001486580000000033-71147477-9HIJOS DE ANTONIO ZAMORA SRL   000000003395825000000000000000000000000000000000000000000000000000000000000000000000000000000000000000000000000000000000PES00010000001000000000000000000000000
2020081400100014000000000000000148660000000000000001486680000000020-16753572-1SAFATLE FERNANDO              000000022831525000000000000000000000000000000000000000000000000000000000000000000000000000000000000000000000000000000000PES00010000001000000000000000000000000
2020081400100014000000000000000148670000000000000001486780000000030-71227254-2OLGA ZOTTOLA DE SIMONETO E HIJ000000037673742000000000000000000000000000000000000000000000000000000000000000000000000000000000000000000000000000000000PES00010000001000000000000000000000000
2020081400100014000000000000000148680000000000000001486880000000030-51225326-8JAUFFROY HNOS S.A.S.C         000000004194188000000000000000000000000000000000000000000000000000000000000000000000000000000000000000000000000000000000PES00010000001000000000000000000000000
2020081400100014000000000000000148690000000000000001486980000000020-29673955-4MUHIC GIANNI MIRKO            000000002531199000000000000000000000000000000000000000000000000000000000000000000000000000000000000000000000000000000000PES00010000001000000000000000000000000
2020081400100014000000000000000148700000000000000001487080000000020-11910387-9MARTINEZ ZUCCARDI JORGE A     000000005921302000000000000000000000000000000000000000000000000000000000000000000000000000000000000000000000000000000000PES00010000001000000000000000000000000
2020081400600011000000000000000002240000000000000000022480000000020-24279698-6VILLAFANE MIGUEL ANGEL (ST)   000000007949999000000000000000000000000000000000000000000000000000000000000000000000000000000000000000000000000001574250PES00010000001000000000000000000000000
2020081400600014000000000000000040310000000000000000403180000000033-63864078-9DIRECCION PROVINCIAL DE VIALID000000000418821000000000000000000000000000000000000000000000000000000000000000000000000000000000000000000000000000000000PES00010000001000000000000000000000000
2020081400600014000000000000000040320000000000000000403280000000020-21746057-4SECO FLAVIO DANIEL            000000014067339000000000000000000000000000000000000000000000000000000000000000000000000000000000000000000000000000000000PES00010000001000000000000000000000000
2020081400600052000000000000000000110000000000000000001180000000020-07043877-2SAENZ RODOLFO                 000000010979964000000000000000000000000000000000000000000000000000000000000000000000000000000000000000000000000000000000PES00010000001000000000000000000000000
2020081400300015000000000000000001150000000000000000011580000000030-54668997-9YPF SA                        000000618559278000000000000000000000000000000000000000000000000000000000000000000000000000000000000000000000000000000000PES00010000001000000000000000000000000
2020081400300015000000000000000001160000000000000000011680000000030-54668997-9YPF SA                        000000047819485000000000000000000000000000000000000000000000000000000000000000000000000000000000000000000000000000000000PES00010000001000000000000000000000000
2020081400300015000000000000000001170000000000000000011780000000030-54668997-9YPF SA                        000000000520644000000000000000000000000000000000000000000000000000000000000000000000000000000000000000000000000000000000PES00010000001000000000000000000000000
2020081400300011000000000000000005240000000000000000052480000000020-25320080-5VILLAFANE ARIEL HUGO (ST)     000000007949999000000000000000000000000000000000000000000000000000000000000000000000000000000000000000000000000001574250PES00010000001000000000000000000000000
2020081400300014000000000000000022900000000000000000229080000000033-71147477-9HIJOS DE ANTONIO ZAMORA SRL   000000001697912000000000000000000000000000000000000000000000000000000000000000000000000000000000000000000000000000000000PES00010000001000000000000000000000000
2020081500100011000000000000000108910000000000000001089180000000030-71526151-7SERCOU SRL                    000000008025002000000000000000000000000000000000000000000000000000000000000000000000000000000000000000000000000001574250PES00010000001000000000000000000000000
2020081500100011000000000000000108920000000000000001089280000000020-29685853-7VIEYRA JORGE LINO             000000008249999000000000000000000000000000000000000000000000000000000000000000000000000000000000000000000000000001574250PES00010000001000000000000000000000000
2020081500100011000000000000000108930000000000000001089380000000030-70806783-7AGRICOLA DE LEALES SC         000000037449998000000000000000000000000000000000000000000000000000000000000000000000000000000000000000000000000007346500PES00010000001000000000000000000000000
2020081500100011000000000000000108940000000000000001089480000000030-71301460-1MAELI SRL                     000000015899999000000000000000000000000000000000000000000000000000000000000000000000000000000000000000000000000003148500PES00010000001000000000000000000000000
2020081500100011000000000000000108950000000000000001089580000000030-62600961-8EXPRESO RIVADAVIA SRL         000000020355919000000000000000000000000000000000000000000000000000000000000000000000000000000000000000000000000004108373PES00010000001000000000000000000000000
2020081500200011000000000000000002150000000000000000021580000000030-70806783-7AGRICOLA DE LEALES SC         000000071705555000000000000000000000000000000000000000000000000000000000000000000000000000000000000000000000000000000000PES00010000001000000000000000000000000
2020081800100011000000000000000108960000000000000001089680000000030-71439153-0AFISA SRL (ST)                000000026500003000000000000000000000000000000000000000000000000000000000000000000000000000000000000000000000000005247500PES00010000001000000000000000000000000
2020081800100011000000000000000108970000000000000001089780000000020-34226808-1CANO ARON JOSE VICTOR (ST)    000000015899999000000000000000000000000000000000000000000000000000000000000000000000000000000000000000000000000003148500PES00010000001000000000000000000000000
2020081800100011000000000000000108980000000000000001089880000000020-34226808-1CANO ARON JOSE VICTOR (ST)    000000015899999000000000000000000000000000000000000000000000000000000000000000000000000000000000000000000000000003148500PES00010000001000000000000000000000000
2020081800100011000000000000000108990000000000000001089980000000030-70976790-5COOP AGROPECUARIA LOS BARRIENT000000015899999000000000000000000000000000000000000000000000000000000000000000000000000000000000000000000000000003148500PES00010000001000000000000000000000000
2020081800100011000000000000000109000000000000000001090080000000030-70976790-5COOP AGROPECUARIA LOS BARRIENT000000021199998000000000000000000000000000000000000000000000000000000000000000000000000000000000000000000000000004198000PES00010000001000000000000000000000000
2020081800100011000000000000000109010000000000000001090180000000030-71492201-3DON BETO SRL (ST)             000000021199998000000000000000000000000000000000000000000000000000000000000000000000000000000000000000000000000004198000PES00010000001000000000000000000000000
2020081800100011000000000000000109020000000000000001090280000000023-20898630-9GUTIERREZ JORGE LUIS (ST)     000000010599999000000000000000000000000000000000000000000000000000000000000000000000000000000000000000000000000002099000PES00010000001000000000000000000000000
2020081800100011000000000000000109030000000000000001090380000000023-20898630-9GUTIERREZ JORGE LUIS (ST)     000000010599999000000000000000000000000000000000000000000000000000000000000000000000000000000000000000000000000002099000PES00010000001000000000000000000000000
2020081800100011000000000000000109040000000000000001090480000000030-71681985-6INDUSTRIAS SANTA BARBARA SRL E000000015899999000000000000000000000000000000000000000000000000000000000000000000000000000000000000000000000000003148500PES00010000001000000000000000000000000
2020081800100011000000000000000109050000000000000001090580000000020-17337860-3JUAREZ ANTONIO ARMANDO (ST)   000000015899999000000000000000000000000000000000000000000000000000000000000000000000000000000000000000000000000003148500PES00010000001000000000000000000000000
2020081800100011000000000000000109060000000000000001090680000000020-39974493-9MIRANDA ARIEL MATIAS (ST)     000000021199998000000000000000000000000000000000000000000000000000000000000000000000000000000000000000000000000004198000PES00010000001000000000000000000000000
