202009010010001100000000000000010994000000000000000109948000000000020080994819BRAVO ZAVALETA ARMANDO MANUEL 000000017580003000000000000000000000000000000000000000000000000000000000000000000000000000000000000000000000000003148500PES00010000001000000000000000000000000
202009010010001100000000000000010995000000000000000109958000000000020167538909BARRIONUEVO JOSE HUMBERTO     000000013912503000000000000000000000000000000000000000000000000000000000000000000000000000000000000000000000000002623750PES00010000001000000000000000000000000
202009010010001100000000000000010996000000000000000109968000000000030708067837AGRICOLA DE LEALES SC         000000039325999000000000000000000000000000000000000000000000000000000000000000000000000000000000000000000000000007346500PES00010000001000000000000000000000000
202009010010001100000000000000010997000000000000000109978000000000033714757429NOBEN SRL                     000000022980000000000000000000000000000000000000000000000000000000000000000000000000000000000000000000000000000004198000PES00010000001000000000000000000000000
202009010010001100000000000000010998000000000000000109988000000000023291350399SILVA SERGIO EDUARDO          000000094009997000000000000000000000000000000000000000000000000000000000000000000000000000000000000000000000000017841500PES00010000001000000000000000000000000
202009010010001100000000000000010999000000000000000109998000000000030626009618EXPRESO RIVADAVIA SRL         000000020503938000000000000000000000000000000000000000000000000000000000000000000000000000000000000000000000000003941187PES00010000001000000000000000000000000
202009010010001400000000000000015014000000000000000150148000000000030715098551SUCROALCOHOLERA DEL SUR SA    000000002669761000000000000000000000000000000000000000000000000000000000000000000000000000000000000000000000000000000000PES00010000001000000000000000000000000
202009010010001400000000000000015015000000000000000150158000000000030715098551SUCROALCOHOLERA DEL SUR SA    000000008810765000000000000000000000000000000000000000000000000000000000000000000000000000000000000000000000000000000000PES00010000001000000000000000000000000
202009010010001400000000000000015016000000000000000150168000000000020069967095SUCESION DE TERAN RODOLFO NICO000000007365593000000000000000000000000000000000000000000000000000000000000000000000000000000000000000000000000000000000PES00010000001000000000000000000000000
202009010010001400000000000000015017000000000000000150178000000000030714764310ARIAS DANTE,VICTOR Y WILLIAM S000000001174391000000000000000000000000000000000000000000000000000000000000000000000000000000000000000000000000000000000PES00010000001000000000000000000000000
202009010010001400000000000000015018000000000000000150188000000000030504549328INGECO SA                     000000004121646000000000000000000000000000000000000000000000000000000000000000000000000000000000000000000000000000000000PES00010000001000000000000000000000000
202009010010001400000000000000015019000000000000000150198000000000020265849041CUEVA MARCELO OMAR            000000003345022000000000000000000000000000000000000000000000000000000000000000000000000000000000000000000000000000000000PES00010000001000000000000000000000000
202009010010001400000000000000015020000000000000000150208000000000030713014601MAELI SRL                     000000002665492000000000000000000000000000000000000000000000000000000000000000000000000000000000000000000000000000000000PES00010000001000000000000000000000000
202009010010001400000000000000015021000000000000000150218000000000030707953922FIDUAGRO SRL                  000000000793109000000000000000000000000000000000000000000000000000000000000000000000000000000000000000000000000000000000PES00010000001000000000000000000000000
202009010010001400000000000000015022000000000000000150228000000000030707338209SERVICIOS Y AVENTURAS SRL     000000001010799000000000000000000000000000000000000000000000000000000000000000000000000000000000000000000000000000000000PES00010000001000000000000000000000000
202009010010001400000000000000015023000000000000000150238000000000030714332348QUIPAN SRL                    000000002189795000000000000000000000000000000000000000000000000000000000000000000000000000000000000000000000000000000000PES00010000001000000000000000000000000
202009010010001400000000000000015024000000000000000150248000000000020377280378SZMYD JESUS EMMANUEL          000000003294340000000000000000000000000000000000000000000000000000000000000000000000000000000000000000000000000000000000PES00010000001000000000000000000000000
202009010010005100000000000000000235000000000000000002358000000000020282213908ARGENTE DANTE RUBEN           000000005927064000000000000000000000000000000000000000000000000000000000000000000000000000000000000000000000000000000000PES00010000001000000000000000000000000
202009010010005100000000000000000236000000000000000002368000000000020282213908ARGENTE DANTE RUBEN           000000002680392000000000000000000000000000000000000000000000000000000000000000000000000000000000000000000000000000000000PES00010000001000000000000000000000000
202009010010005200000000000000000290000000000000000002908000000000020938619507MEDICI PEDRO FERRUCCIO        000000002025507000000000000000000000000000000000000000000000000000000000000000000000000000000000000000000000000000000000PES00010000001000000000000000000000000
202009010060001400000000000000004050000000000000000040508000000000020217460574SECO FLAVIO DANIEL            000000011879999000000000000000000000000000000000000000000000000000000000000000000000000000000000000000000000000000000000PES00010000001000000000000000000000000
202009010060001400000000000000004051000000000000000040518000000000027217998226CASTRO MARIA ROSA             000000005124915000000000000000000000000000000000000000000000000000000000000000000000000000000000000000000000000000000000PES00010000001000000000000000000000000
202009010060001400000000000000004052000000000000000040528000000000020117077374SALAZAR JUAN JOSE             000000002507310000000000000000000000000000000000000000000000000000000000000000000000000000000000000000000000000000000000PES00010000001000000000000000000000000
202009010060001400000000000000004053000000000000000040538000000000020217460574SECO FLAVIO DANIEL            000000000699409000000000000000000000000000000000000000000000000000000000000000000000000000000000000000000000000000000000PES00010000001000000000000000000000000
202009010060001400000000000000004054000000000000000040548000000000020217460574SECO FLAVIO DANIEL            000000000699069000000000000000000000000000000000000000000000000000000000000000000000000000000000000000000000000000000000PES00010000001000000000000000000000000
202009010030001400000000000000002332000000000000000023328000000000027065585591SINGH AIDA DEL VALLE          000000000581866000000000000000000000000000000000000000000000000000000000000000000000000000000000000000000000000000000000PES00010000001000000000000000000000000
202009010030001400000000000000002333000000000000000023338000000000020070077176GHIGGIA JOSE ALFREDO          000000000596380000000000000000000000000000000000000000000000000000000000000000000000000000000000000000000000000000000000PES00010000001000000000000000000000000
202009010030001400000000000000002334000000000000000023348000000000020070077176GHIGGIA JOSE ALFREDO          000000000501752000000000000000000000000000000000000000000000000000000000000000000000000000000000000000000000000000000000PES00010000001000000000000000000000000
202009010030001400000000000000002335000000000000000023358000000000020326874079DIP DANTE GUSTAVO EXEQUIEL    000000000298697000000000000000000000000000000000000000000000000000000000000000000000000000000000000000000000000000000000PES00010000001000000000000000000000000
202009010030001400000000000000002336000000000000000023368000000000023119096669VILLAFANE LUIS ANTONIO       L000000000227935000000000000000000000000000000000000000000000000000000000000000000000000000000000000000000000000000000000PES00010000001000000000000000000000000
202009010080001400000000000000000699000000000000000006998000000000020384904972ROMANO LEAL JAVIER ALFREDO    000000000322626000000000000000000000000000000000000000000000000000000000000000000000000000000000000000000000000000000000PES00010000001000000000000000000000000
202009020010001100000000000000011000000000000000000110008000000000030709549452AGRICOLA MARES SA             000000016694997000000000000000000000000000000000000000000000000000000000000000000000000000000000000000000000000003148500PES00010000001000000000000000000000000
202009020010001100000000000000011001000000000000000110018000000000030707953922FIDUAGRO SRL                  000000058600002000000000000000000000000000000000000000000000000000000000000000000000000000000000000000000000000010495000PES00010000001000000000000000000000000
202009020010001100000000000000011002000000000000000110028000000000030620919922RF y J BUDEGUER SRL           000000008617499000000000000000000000000000000000000000000000000000000000000000000000000000000000000000000000000001574250PES00010000001000000000000000000000000
202009020010001100000000000000011003000000000000000110038000000000030620919922RF y J BUDEGUER SRL           000000028725003000000000000000000000000000000000000000000000000000000000000000000000000000000000000000000000000005247500PES00010000001000000000000000000000000
202009020010001100000000000000011004000000000000000110048000000000030646268393WALCONS SRL                   000000112599993000000000000000000000000000000000000000000000000000000000000000000000000000000000000000000000000020990000PES00010000001000000000000000000000000
202009020010001100000000000000011005000000000000000110058000000000030626009618EXPRESO RIVADAVIA SRL         000000013201737000000000000000000000000000000000000000000000000000000000000000000000000000000000000000000000000002537586PES00010000001000000000000000000000000
202009020010001100000000000000011006000000000000000110068000000000020070077176GHIGGIA JOSE ALFREDO          000000091817200000000000000000000000000000000000000000000000000000000000000000000000000000000000000000000000000018181538PES00010000001000000000000000000000000
202009020010001100000000000000011007000000000000000110078000000000030714057355ZAFIROS DEL NOA SA            000000005700002000000000000000000000000000000000000000000000000000000000000000000000000000000000000000000000000001049500PES00010000001000000000000000000000000
202009020010001400000000000000015025000000000000000150258000000000020318542911VARGAS RUBEN ALBERTO          000000009513619000000000000000000000000000000000000000000000000000000000000000000000000000000000000000000000000000000000PES00010000001000000000000000000000000
202009020010001400000000000000015026000000000000000150268000000000023111033919CHIVILISCO HECTOR SALVADOR    000000000994718000000000000000000000000000000000000000000000000000000000000000000000000000000000000000000000000000000000PES00010000001000000000000000000000000
202009020010001400000000000000015027000000000000000150278000000000030715801619TRANSPORTE SAN LUCAS SRL      000000003752821000000000000000000000000000000000000000000000000000000000000000000000000000000000000000000000000000000000PES00010000001000000000000000000000000
202009020010001400000000000000015028000000000000000150288000000000020326874079DIP DANTE GUSTAVO EXEQUIEL    000000005921302000000000000000000000000000000000000000000000000000000000000000000000000000000000000000000000000000000000PES00010000001000000000000000000000000
202009020010001400000000000000015029000000000000000150298000000000030707338209SERVICIOS Y AVENTURAS SRL     000000002665492000000000000000000000000000000000000000000000000000000000000000000000000000000000000000000000000000000000PES00010000001000000000000000000000000
202009020010001400000000000000015030000000000000000150308000000000030708365234GARRO SRL                     000000002398940000000000000000000000000000000000000000000000000000000000000000000000000000000000000000000000000000000000PES00010000001000000000000000000000000
202009020010001400000000000000015031000000000000000150318000000000020318542911VARGAS RUBEN ALBERTO          000000000903472000000000000000000000000000000000000000000000000000000000000000000000000000000000000000000000000000000000PES00010000001000000000000000000000000
202009020010001400000000000000015032000000000000000150328000000000020938619507MEDICI PEDRO FERRUCCIO        000000000338016000000000000000000000000000000000000000000000000000000000000000000000000000000000000000000000000000000000PES00010000001000000000000000000000000
202009020010005100000000000000000237000000000000000002378000000000030708587342QUILLEN BERRIES S.A           000000001647478000000000000000000000000000000000000000000000000000000000000000000000000000000000000000000000000000000000PES00010000001000000000000000000000000
202009020010005200000000000000000291000000000000000002918000000000030708587342QUILLEN BERRIES S.A           000000004450080000000000000000000000000000000000000000000000000000000000000000000000000000000000000000000000000000000000PES00010000001000000000000000000000000
202009020010005200000000000000000292000000000000000002928000000000030708587342QUILLEN BERRIES S.A           000000004063916000000000000000000000000000000000000000000000000000000000000000000000000000000000000000000000000000000000PES00010000001000000000000000000000000
202009020030001400000000000000002337000000000000000023378000000000030523408247CERAMICA MARCOS PAZ SRL       000000000544022000000000000000000000000000000000000000000000000000000000000000000000000000000000000000000000000000000000PES00010000001000000000000000000000000
202009020030001400000000000000002338000000000000000023388000000000023124330149ACEVEDO MARIO RAMON           000000004569680000000000000000000000000000000000000000000000000000000000000000000000000000000000000000000000000000000000PES00010000001000000000000000000000000
202009020030005200000000000000000029000000000000000000298000000000030708587342QUILLEN BERRIES S.A           000000004450080000000000000000000000000000000000000000000000000000000000000000000000000000000000000000000000000000000000PES00010000001000000000000000000000000
202009030010001100000000000000011008000000000000000110088000000000020299973116VITRIU NICOLAS                000000011490000000000000000000000000000000000000000000000000000000000000000000000000000000000000000000000000000002099000PES00010000001000000000000000000000000
202009030010001100000000000000011009000000000000000110098000000000030711384185RIO BLANCO DEL TONTON SRL     000000006214998000000000000000000000000000000000000000000000000000000000000000000000000000000000000000000000000001154450PES00010000001000000000000000000000000
202009030010001100000000000000011010000000000000000110108000000000030707465049LAPACHO AMARILLO SRL          000000011260002000000000000000000000000000000000000000000000000000000000000000000000000000000000000000000000000002099000PES00010000001000000000000000000000000
202009030010001100000000000000011011000000000000000110118000000000030707465049LAPACHO AMARILLO SRL          000000022519999000000000000000000000000000000000000000000000000000000000000000000000000000000000000000000000000004198000PES00010000001000000000000000000000000
202009030010001100000000000000011012000000000000000110128000000000030709628255PACTA SRL                     000000016889998000000000000000000000000000000000000000000000000000000000000000000000000000000000000000000000000003148500PES00010000001000000000000000000000000
202009030010001100000000000000011013000000000000000110138000000000030715261517SERCOU SRL                    000000016889998000000000000000000000000000000000000000000000000000000000000000000000000000000000000000000000000003148500PES00010000001000000000000000000000000
202009030010001100000000000000011014000000000000000110148000000000020229693868ROTTA MANUEL JUAN             000000016889998000000000000000000000000000000000000000000000000000000000000000000000000000000000000000000000000003148500PES00010000001000000000000000000000000
202009030010001100000000000000011015000000000000000110158000000000030626009618EXPRESO RIVADAVIA SRL         000000029435953000000000000000000000000000000000000000000000000000000000000000000000000000000000000000000000000005658064PES00010000001000000000000000000000000
202009030010001400000000000000015033000000000000000150338000000000023119096669VILLAFANE LUIS ANTONIO       L000000002376002000000000000000000000000000000000000000000000000000000000000000000000000000000000000000000000000000000000PES00010000001000000000000000000000000
202009030010001400000000000000015034000000000000000150348000000000027170408980MARTINEZ ZUCCARDI ARIADNA I   000000000299763000000000000000000000000000000000000000000000000000000000000000000000000000000000000000000000000000000000PES00010000001000000000000000000000000
202009030010001400000000000000015035000000000000000150358000000000030709702390YABITEL SA                    000000015201236000000000000000000000000000000000000000000000000000000000000000000000000000000000000000000000000000000000PES00010000001000000000000000000000000
202009030010001400000000000000015036000000000000000150368000000000030697176043PERFORACIONES Y SERVICIOS SRL 000000000701247000000000000000000000000000000000000000000000000000000000000000000000000000000000000000000000000000000000PES00010000001000000000000000000000000
202009030010001400000000000000015037000000000000000150378000000000020263850980CHAYA SEBASTIAN ENRIQUE       000000004310441000000000000000000000000000000000000000000000000000000000000000000000000000000000000000000000000000000000PES00010000001000000000000000000000000
202009030010001400000000000000015038000000000000000150388000000000030711630712MUMONT SRL                    000000001348170000000000000000000000000000000000000000000000000000000000000000000000000000000000000000000000000000000000PES00010000001000000000000000000000000
202009030010001400000000000000015039000000000000000150398000000000030504549328INGECO SA                     000000000891292000000000000000000000000000000000000000000000000000000000000000000000000000000000000000000000000000000000PES00010000001000000000000000000000000
202009030010001400000000000000015040000000000000000150408000000000020259228450FONTDEVILA CARLOS JOSE        000000000575897000000000000000000000000000000000000000000000000000000000000000000000000000000000000000000000000000000000PES00010000001000000000000000000000000
202009030010001400000000000000015041000000000000000150418000000000030505079570V.H.A SA                      000000004762168000000000000000000000000000000000000000000000000000000000000000000000000000000000000000000000000000000000PES00010000001000000000000000000000000
202009030010001400000000000000015042000000000000000150428000000000030714764310ARIAS DANTE,VICTOR Y WILLIAM S000000002936924000000000000000000000000000000000000000000000000000000000000000000000000000000000000000000000000000000000PES00010000001000000000000000000000000
202009030010001400000000000000015043000000000000000150438000000000030715049372LA 40 SOLUCIONES MECANICAS SRL000000001697912000000000000000000000000000000000000000000000000000000000000000000000000000000000000000000000000000000000PES00010000001000000000000000000000000
202009030010005100000000000000000238000000000000000002388000000000030675250657LOS CORONILLOS SRL            000000046489110000000000000000000000000000000000000000000000000000000000000000000000000000000000000000000000000000000000PES00010000001000000000000000000000000
202009030010005200000000000000000293000000000000000002938000000000030715274732COOP PROV DE SERV AGROP DONA J000000117476970000000000000000000000000000000000000000000000000000000000000000000000000000000000000000000000000000000000PES00010000001000000000000000000000000
202009030060001400000000000000004055000000000000000040558000000000020233029131VALLEJO ADRIAN                000000002665492000000000000000000000000000000000000000000000000000000000000000000000000000000000000000000000000000000000PES00010000001000000000000000000000000
202009030060001400000000000000004056000000000000000040568000000000020310300463DIP MATIAS RUBEN EMILIO       000000000634126000000000000000000000000000000000000000000000000000000000000000000000000000000000000000000000000000000000PES00010000001000000000000000000000000
202009030030001500000000000000000127000000000000000001278000000000030546689979YPF SA                        000000001724600000000000000000000000000000000000000000000000000000000000000000000000000000000000000000000000000000000000PES00010000001000000000000000000000000
202009030020001100000000000000000217000000000000000002178000000000033697225639ARGENTI LEMON SA              000000087164652000000000000000000000000000000000000000000000000000000000000000000000000000000000000000000000000000000000PES00010000001000000000000000000000000
202009030020001100000000000000000218000000000000000002188000000000030715274732COOP PROV DE SERV AGROP DONA J000000000629997000000000000000000000000000000000000000000000000000000000000000000000000000000000000000000000000000000000PES00010000001000000000000000000000000
202009030020001100000000000000000219000000000000000002198000000000030715274732COOP PROV DE SERV AGROP DONA J000000000979998000000000000000000000000000000000000000000000000000000000000000000000000000000000000000000000000000000000PES00010000001000000000000000000000000
202009040010001100000000000000011016000000000000000110168000000000020060852600ACUNA JOSE DOMINGO            000000005630001000000000000000000000000000000000000000000000000000000000000000000000000000000000000000000000000001049500PES00010000001000000000000000000000000
202009040010001100000000000000011017000000000000000110178000000000030714575860SYNBUILD SA                   000000002834997000000000000000000000000000000000000000000000000000000000000000000000000000000000000000000000000000524750PES00010000001000000000000000000000000
202009040010001100000000000000011018000000000000000110188000000000030626009618EXPRESO RIVADAVIA SRL         000000019075602000000000000000000000000000000000000000000000000000000000000000000000000000000000000000000000000003666638PES00010000001000000000000000000000000
202009040010001100000000000000011019000000000000000110198000000000030710383126TM ROLDAN SRL                 000000008817001000000000000000000000000000000000000000000000000000000000000000000000000000000000000000000000000001511280PES00010000001000000000000000000000000
202009040010001100000000000000011020000000000000000110208000000000030620919922RF y J BUDEGUER SRL           000000005745003000000000000000000000000000000000000000000000000000000000000000000000000000000000000000000000000001049500PES00010000001000000000000000000000000
202009040010001100000000000000011021000000000000000110218000000000030620919922RF y J BUDEGUER SRL           000000057450006000000000000000000000000000000000000000000000000000000000000000000000000000000000000000000000000010495000PES00010000001000000000000000000000000
202009040010001100000000000000011022000000000000000110228000000000020185059007VITAR MANUEL FERNANDO         000000008617499000000000000000000000000000000000000000000000000000000000000000000000000000000000000000000000000001574250PES00010000001000000000000000000000000
202009040010001400000000000000015044000000000000000150448000000000023070919249HERRERA JORGE ARMANDO         000000003321559000000000000000000000000000000000000000000000000000000000000000000000000000000000000000000000000000000000PES00010000001000000000000000000000000
202009040010001400000000000000015045000000000000000150458000000000030715098551SUCROALCOHOLERA DEL SUR SA    000000002675713000000000000000000000000000000000000000000000000000000000000000000000000000000000000000000000000000000000PES00010000001000000000000000000000000
202009040010001400000000000000015046000000000000000150468000000000030715098551SUCROALCOHOLERA DEL SUR SA    000000008810765000000000000000000000000000000000000000000000000000000000000000000000000000000000000000000000000000000000PES00010000001000000000000000000000000
202009040010001400000000000000015047000000000000000150478000000000030715098551SUCROALCOHOLERA DEL SUR SA    000000032955099000000000000000000000000000000000000000000000000000000000000000000000000000000000000000000000000000000000PES00010000001000000000000000000000000
202009040010001400000000000000015048000000000000000150488000000000030589336131LOS CINCO SA                  000000006010514000000000000000000000000000000000000000000000000000000000000000000000000000000000000000000000000000000000PES00010000001000000000000000000000000
202009040010001400000000000000015049000000000000000150498000000000020116208416INIGO JUAN                    000000004007307000000000000000000000000000000000000000000000000000000000000000000000000000000000000000000000000000000000PES00010000001000000000000000000000000
202009040010001400000000000000015050000000000000000150508000000000027305981120CANGEMI IVANNA MARCELA        000000004357279000000000000000000000000000000000000000000000000000000000000000000000000000000000000000000000000000000000PES00010000001000000000000000000000000
202009040010001400000000000000015051000000000000000150518000000000027284964425RACEDO ROSANA ESTER           000000008229769000000000000000000000000000000000000000000000000000000000000000000000000000000000000000000000000000000000PES00010000001000000000000000000000000
202009040010001400000000000000015052000000000000000150528000000000027284964425RACEDO ROSANA ESTER           000000003429808000000000000000000000000000000000000000000000000000000000000000000000000000000000000000000000000000000000PES00010000001000000000000000000000000
202009040010001400000000000000015053000000000000000150538000000000027284964425RACEDO ROSANA ESTER           000000001875598000000000000000000000000000000000000000000000000000000000000000000000000000000000000000000000000000000000PES00010000001000000000000000000000000
202009040010001400000000000000015054000000000000000150548000000000027284964425RACEDO ROSANA ESTER           000000000955116000000000000000000000000000000000000000000000000000000000000000000000000000000000000000000000000000000000PES00010000001000000000000000000000000
202009040010001400000000000000015055000000000000000150558000000000020085182987VALLEJO JUAN GUILLERMO        000000002657321000000000000000000000000000000000000000000000000000000000000000000000000000000000000000000000000000000000PES00010000001000000000000000000000000
202009040010001400000000000000015056000000000000000150568000000000023142250829RODRIGUEZ CARLOS DANIEL       000000038460000000000000000000000000000000000000000000000000000000000000000000000000000000000000000000000000000000000000PES00010000001000000000000000000000000
202009040010001400000000000000015057000000000000000150578000000000020119193215BOIX MATEO                    000000011131556000000000000000000000000000000000000000000000000000000000000000000000000000000000000000000000000000000000PES00010000001000000000000000000000000
202009040010001400000000000000015058000000000000000150588000000000020119193215BOIX MATEO                    000000005386672000000000000000000000000000000000000000000000000000000000000000000000000000000000000000000000000000000000PES00010000001000000000000000000000000
202009040010001400000000000000015059000000000000000150598000000000020119193215BOIX MATEO                    000000005626938000000000000000000000000000000000000000000000000000000000000000000000000000000000000000000000000000000000PES00010000001000000000000000000000000
202009040010001400000000000000015060000000000000000150608000000000030714040142RODOLFO DANTE GOMEZ E HIJOS SR000000003345022000000000000000000000000000000000000000000000000000000000000000000000000000000000000000000000000000000000PES00010000001000000000000000000000000
202009040010001400000000000000015061000000000000000150618000000000020377280378SZMYD JESUS EMMANUEL          000000000629765000000000000000000000000000000000000000000000000000000000000000000000000000000000000000000000000000000000PES00010000001000000000000000000000000
202009040010001400000000000000015062000000000000000150628000000000030707338209SERVICIOS Y AVENTURAS SRL     000000000964209000000000000000000000000000000000000000000000000000000000000000000000000000000000000000000000000000000000PES00010000001000000000000000000000000
202009040010001400000000000000015063000000000000000150638000000000030702402146PREMOL SRL                    000000003631417000000000000000000000000000000000000000000000000000000000000000000000000000000000000000000000000000000000PES00010000001000000000000000000000000
202009040010001400000000000000015064000000000000000150648000000000030715553372VICTORIA ESTACION DE SERVICIOS000000006454739000000000000000000000000000000000000000000000000000000000000000000000000000000000000000000000000000000000PES00010000001000000000000000000000000
202009040010001400000000000000015065000000000000000150658000000000030523408247CERAMICA MARCOS PAZ SRL       000000004073730000000000000000000000000000000000000000000000000000000000000000000000000000000000000000000000000000000000PES00010000001000000000000000000000000
202009040010001400000000000000015066000000000000000150668000000000030685655329PRODUCCION SA                 000000003876160000000000000000000000000000000000000000000000000000000000000000000000000000000000000000000000000000000000PES00010000001000000000000000000000000
202009040010001400000000000000015067000000000000000150678000000000030685655329PRODUCCION SA                 000000003876160000000000000000000000000000000000000000000000000000000000000000000000000000000000000000000000000000000000PES00010000001000000000000000000000000
202009040010001600000000000000000784000000000000000007848000000000020119193215BOIX MATEO                    000000002939165000000000000000000000000000000000000000000000000000000000000000000000000000000000000000000000000000000000PES00010000001000000000000000000000000
202009040010005200000000000000000294000000000000000002948000000000023291350399SILVA SERGIO EDUARDO          000002897193975000000000000000000000000000000000000000000000000000000000000000000000000000000000000000000000000000000000PES00010000001000000000000000000000000
202009040060001400000000000000004057000000000000000040578000000000020127334154QUIROGA JUAN CARLOS           000000009818799000000000000000000000000000000000000000000000000000000000000000000000000000000000000000000000000000000000PES00010000001000000000000000000000000
202009040060001400000000000000004058000000000000000040588000000000020310300463DIP MATIAS RUBEN EMILIO       000000000570717000000000000000000000000000000000000000000000000000000000000000000000000000000000000000000000000000000000PES00010000001000000000000000000000000
202009040030001500000000000000000128000000000000000001288000000000030546689979YPF SA                        000000003367072000000000000000000000000000000000000000000000000000000000000000000000000000000000000000000000000000000000PES00010000001000000000000000000000000
202009040030001500000000000000000129000000000000000001298000000000030546689979YPF SA                        000000098839745000000000000000000000000000000000000000000000000000000000000000000000000000000000000000000000000000000000PES00010000001000000000000000000000000
202009040030001500000000000000000130000000000000000001308000000000030546689979YPF SA                        000007815721965000000000000000000000000000000000000000000000000000000000000000000000000000000000000000000000000000000000PES00010000001000000000000000000000000
202009040030001500000000000000000131000000000000000001318000000000030546689979YPF SA                        000002385561853000000000000000000000000000000000000000000000000000000000000000000000000000000000000000000000000000000000PES00010000001000000000000000000000000
202009040030001400000000000000002339000000000000000023398000000000027284964425RACEDO ROSANA ESTER           000000003429808000000000000000000000000000000000000000000000000000000000000000000000000000000000000000000000000000000000PES00010000001000000000000000000000000
202009040030001400000000000000002340000000000000000023408000000000030702402146PREMOL SRL                    000000003631417000000000000000000000000000000000000000000000000000000000000000000000000000000000000000000000000000000000PES00010000001000000000000000000000000
202009040030001400000000000000002341000000000000000023418000000000030685655329PRODUCCION SA                 000000003876160000000000000000000000000000000000000000000000000000000000000000000000000000000000000000000000000000000000PES00010000001000000000000000000000000
202009050010001100000000000000011023000000000000000110238000000000030626009618EXPRESO RIVADAVIA SRL         000000021784856000000000000000000000000000000000000000000000000000000000000000000000000000000000000000000000000004187400PES00010000001000000000000000000000000
202009050010001400000000000000015068000000000000000150688000000000030708724560LA ASTURIANA S.R.L            000000000699069000000000000000000000000000000000000000000000000000000000000000000000000000000000000000000000000000000000PES00010000001000000000000000000000000
202009050010001400000000000000015069000000000000000150698000000000030708724560LA ASTURIANA S.R.L            000000006588675000000000000000000000000000000000000000000000000000000000000000000000000000000000000000000000000000000000PES00010000001000000000000000000000000
202009050010001400000000000000015070000000000000000150708000000000030685674226BLAZQUEZ SRL                  000000000853223000000000000000000000000000000000000000000000000000000000000000000000000000000000000000000000000000000000PES00010000001000000000000000000000000
202009050010001400000000000000015071000000000000000150718000000000020110747625PEREZ JUAN LUIS               000000007750741000000000000000000000000000000000000000000000000000000000000000000000000000000000000000000000000000000000PES00010000001000000000000000000000000
202009050010001400000000000000015072000000000000000150728000000000030523408247CERAMICA MARCOS PAZ SRL       000000002665492000000000000000000000000000000000000000000000000000000000000000000000000000000000000000000000000000000000PES00010000001000000000000000000000000
202009050010001400000000000000015073000000000000000150738000000000020332659910MANAVELA ALEJANDRO SEBASTIAN  000000000352467000000000000000000000000000000000000000000000000000000000000000000000000000000000000000000000000000000000PES00010000001000000000000000000000000
202009050010020000000000000000000064000000000000000000648000000000030515488479YPF GAS SA                    000000055353853000000000000000000000000000000000000000000000000000000000000000000000000000000000000000000000000000000000PES00010000001000000000000000000000000
202009050060001400000000000000004059000000000000000040598000000000020246611727LOI ERNESTO                   000000000395998000000000000000000000000000000000000000000000000000000000000000000000000000000000000000000000000000000000PES00010000001000000000000000000000000
202009070010001100000000000000011024000000000000000110248000000000020342268081CANO ARON JOSE VICTOR (ST)    000000022259998000000000000000000000000000000000000000000000000000000000000000000000000000000000000000000000000004198000PES00010000001000000000000000000000000
202009070010001100000000000000011025000000000000000110258000000000020342268081CANO ARON JOSE VICTOR (ST)    000000011130002000000000000000000000000000000000000000000000000000000000000000000000000000000000000000000000000002099000PES00010000001000000000000000000000000
202009070010001100000000000000011026000000000000000110268000000000030709767905COOP AGROPECUARIA LOS BARRIENT000000011130002000000000000000000000000000000000000000000000000000000000000000000000000000000000000000000000000002099000PES00010000001000000000000000000000000
202009070010001100000000000000011027000000000000000110278000000000030714922013DON BETO SRL (ST)             000000027824999000000000000000000000000000000000000000000000000000000000000000000000000000000000000000000000000005247500PES00010000001000000000000000000000000
202009070010001100000000000000011028000000000000000110288000000000023208986309GUTIERREZ JORGE LUIS (ST)     000000011130002000000000000000000000000000000000000000000000000000000000000000000000000000000000000000000000000002099000PES00010000001000000000000000000000000
202009070010001100000000000000011029000000000000000110298000000000030716819856INDUSTRIAS SANTA BARBARA SRL E000000010016998000000000000000000000000000000000000000000000000000000000000000000000000000000000000000000000000001889100PES00010000001000000000000000000000000
202009070010001100000000000000011030000000000000000110308000000000020173378603JUAREZ ANTONIO ARMANDO (ST)   000000016694997000000000000000000000000000000000000000000000000000000000000000000000000000000000000000000000000003148500PES00010000001000000000000000000000000
202009070010001100000000000000011031000000000000000110318000000000020399744939MIRANDA ARIEL MATIAS (ST)     000000016694997000000000000000000000000000000000000000000000000000000000000000000000000000000000000000000000000003148500PES00010000001000000000000000000000000
202009070010001100000000000000011032000000000000000110328000000000030710010680ZAPULLA JOSE E Y G SALVADOR SH000000022259998000000000000000000000000000000000000000000000000000000000000000000000000000000000000000000000000004198000PES00010000001000000000000000000000000
202009070010001100000000000000011033000000000000000110338000000000030710010680ZAPULLA JOSE E Y G SALVADOR SH000000027824999000000000000000000000000000000000000000000000000000000000000000000000000000000000000000000000000005247500PES00010000001000000000000000000000000
202009070010001100000000000000011034000000000000000110348000000000030708724560LA ASTURIANA S.R.L            000000016889998000000000000000000000000000000000000000000000000000000000000000000000000000000000000000000000000003148500PES00010000001000000000000000000000000
202009070010001100000000000000011035000000000000000110358000000000020080994819BRAVO ZAVALETA ARMANDO MANUEL 000000017580003000000000000000000000000000000000000000000000000000000000000000000000000000000000000000000000000003148500PES00010000001000000000000000000000000
202009070010001100000000000000011036000000000000000110368000000000030702409310LA BAJADA SA                  000000015899999000000000000000000000000000000000000000000000000000000000000000000000000000000000000000000000000003148500PES00010000001000000000000000000000000
202009070010001100000000000000011037000000000000000110378000000000020254467945CONTRERAS RICARDO ALEJANDRO   000000031799997000000000000000000000000000000000000000000000000000000000000000000000000000000000000000000000000006297000PES00010000001000000000000000000000000
202009070010001100000000000000011038000000000000000110388000000000030626009618EXPRESO RIVADAVIA SRL         000000023853649000000000000000000000000000000000000000000000000000000000000000000000000000000000000000000000000004585056PES00010000001000000000000000000000000
202009070010001100000000000000011039000000000000000110398000000000030708913266TRANSPORTE HACHA DE PIEDRA SRL000000059450763000000000000000000000000000000000000000000000000000000000000000000000000000000000000000000000000011554365PES00010000001000000000000000000000000
202009070010001400000000000000015074000000000000000150748000000000020202850031GALVEZ JOSE ANTONIO           000000000396552000000000000000000000000000000000000000000000000000000000000000000000000000000000000000000000000000000000PES00010000001000000000000000000000000
202009070010001400000000000000015075000000000000000150758000000000030714391530AFISA SRL (ST)                000000005687000000000000000000000000000000000000000000000000000000000000000000000000000000000000000000000000000000000000PES00010000001000000000000000000000000
202009070010001400000000000000015076000000000000000150768000000000023070919249HERRERA JORGE ARMANDO         000000005321822000000000000000000000000000000000000000000000000000000000000000000000000000000000000000000000000000000000PES00010000001000000000000000000000000
202009070010001400000000000000015077000000000000000150778000000000030715098551SUCROALCOHOLERA DEL SUR SA    000000003084008000000000000000000000000000000000000000000000000000000000000000000000000000000000000000000000000000000000PES00010000001000000000000000000000000
202009070010001400000000000000015078000000000000000150788000000000027328292217CARRIZO NOELIA DEL VALLE      000000002018758000000000000000000000000000000000000000000000000000000000000000000000000000000000000000000000000000000000PES00010000001000000000000000000000000
202009070010001400000000000000015079000000000000000150798000000000020228773159CARRIZO GARUTI MAURICIO ADRIAN000000001889409000000000000000000000000000000000000000000000000000000000000000000000000000000000000000000000000000000000PES00010000001000000000000000000000000
202009070010001400000000000000015080000000000000000150808000000000020160599988DIAZ JOSE LUIS                000000003294340000000000000000000000000000000000000000000000000000000000000000000000000000000000000000000000000000000000PES00010000001000000000000000000000000
202009070010001400000000000000015081000000000000000150818000000000030712272542OLGA ZOTTOLA DE SIMONETO E HIJ000000001628729000000000000000000000000000000000000000000000000000000000000000000000000000000000000000000000000000000000PES00010000001000000000000000000000000
202009070010001400000000000000015082000000000000000150828000000000030712272542OLGA ZOTTOLA DE SIMONETO E HIJ000000000376725000000000000000000000000000000000000000000000000000000000000000000000000000000000000000000000000000000000PES00010000001000000000000000000000000
202009070010005200000000000000000295000000000000000002958000000000020186098979RUIZ TORRES LUIS FERNANDO     000000100750038000000000000000000000000000000000000000000000000000000000000000000000000000000000000000000000000000000000PES00010000001000000000000000000000000
202009070060001100000000000000000229000000000000000002298000000000020179265177GUTIERREZ JUAN MANUEL (ST)    000000013912497000000000000000000000000000000000000000000000000000000000000000000000000000000000000000000000000002623750PES00010000001000000000000000000000000
202009070060001400000000000000004060000000000000000040608000000000030656135006MUNICIPALIDAD DE SIMOCA       000000006639362000000000000000000000000000000000000000000000000000000000000000000000000000000000000000000000000000000000PES00010000001000000000000000000000000
202009070060001400000000000000004061000000000000000040618000000000027230204255PAZ SILVIA PATRICIA           000000000623720000000000000000000000000000000000000000000000000000000000000000000000000000000000000000000000000000000000PES00010000001000000000000000000000000
202009070030001400000000000000002342000000000000000023428000000000030652945100DE CARLO AMERICO JULIO Y OTROS000000000508690000000000000000000000000000000000000000000000000000000000000000000000000000000000000000000000000000000000PES00010000001000000000000000000000000
202009070030001400000000000000002343000000000000000023438000000000030709401277TRANSPORTE ANAN SRL           000000000183695000000000000000000000000000000000000000000000000000000000000000000000000000000000000000000000000000000000PES00010000001000000000000000000000000
202009080010001100000000000000011040000000000000000110408000000000030716246279JULIANY SAS                   000000018749996000000000000000000000000000000000000000000000000000000000000000000000000000000000000000000000000002833650PES00010000001000000000000000000000000
202009080010001100000000000000011041000000000000000110418000000000030620919922RF y J BUDEGUER SRL           000000028725003000000000000000000000000000000000000000000000000000000000000000000000000000000000000000000000000005247500PES00010000001000000000000000000000000
202009080010001100000000000000011042000000000000000110428000000000020296858537VIEYRA JORGE LINO             000000008617499000000000000000000000000000000000000000000000000000000000000000000000000000000000000000000000000001574250PES00010000001000000000000000000000000
202009080010001100000000000000011043000000000000000110438000000000030713516305AGROPECUARIA LAGUNA BLANCA SRL000000011490000000000000000000000000000000000000000000000000000000000000000000000000000000000000000000000000000002099000PES00010000001000000000000000000000000
202009080010001100000000000000011044000000000000000110448000000000030715261517SERCOU SRL                    000000016889998000000000000000000000000000000000000000000000000000000000000000000000000000000000000000000000000003148500PES00010000001000000000000000000000000
202009080010001100000000000000011045000000000000000110458000000000030626009618EXPRESO RIVADAVIA SRL         000000015553902000000000000000000000000000000000000000000000000000000000000000000000000000000000000000000000000002989711PES00010000001000000000000000000000000
202009080010001400000000000000015083000000000000000150838000000000027240071482VILLAVICENCIO MARIA DE LOS ANG000000003973594000000000000000000000000000000000000000000000000000000000000000000000000000000000000000000000000000000000PES00010000001000000000000000000000000
202009080010001400000000000000015084000000000000000150848000000000027284964425RACEDO ROSANA ESTER           000000002790669000000000000000000000000000000000000000000000000000000000000000000000000000000000000000000000000000000000PES00010000001000000000000000000000000
202009080010001400000000000000015085000000000000000150858000000000027284964425RACEDO ROSANA ESTER           000000002943452000000000000000000000000000000000000000000000000000000000000000000000000000000000000000000000000000000000PES00010000001000000000000000000000000
202009080010001400000000000000015086000000000000000150868000000000020070077176GHIGGIA JOSE ALFREDO          000000001594423000000000000000000000000000000000000000000000000000000000000000000000000000000000000000000000000000000000PES00010000001000000000000000000000000
202009080010001400000000000000015087000000000000000150878000000000027304981097GOMEZ JESSICA NOELIA          000000004745695000000000000000000000000000000000000000000000000000000000000000000000000000000000000000000000000000000000PES00010000001000000000000000000000000
202009080010001400000000000000015088000000000000000150888000000000020135632407ARGANARAZ PEDRO RENE       RI 000000004745695000000000000000000000000000000000000000000000000000000000000000000000000000000000000000000000000000000000PES00010000001000000000000000000000000
202009080010001400000000000000015089000000000000000150898000000000030639227096INTRA S.R.L.                  000000000394552000000000000000000000000000000000000000000000000000000000000000000000000000000000000000000000000000000000PES00010000001000000000000000000000000
202009080010001400000000000000015090000000000000000150908000000000030707728805PROYECTOS METALURGICOS S.A.   000000002798770000000000000000000000000000000000000000000000000000000000000000000000000000000000000000000000000000000000PES00010000001000000000000000000000000
202009080010001400000000000000015091000000000000000150918000000000020146618228ZEITUNE LEON MARCELO          000000002790191000000000000000000000000000000000000000000000000000000000000000000000000000000000000000000000000000000000PES00010000001000000000000000000000000
202009080010005100000000000000000239000000000000000002398000000000020160600005QUESADA JUAN CARLOS           000000017802154000000000000000000000000000000000000000000000000000000000000000000000000000000000000000000000000000000000PES00010000001000000000000000000000000
202009080010005200000000000000000296000000000000000002968000000000027170408980MARTINEZ ZUCCARDI ARIADNA I   000000002038483000000000000000000000000000000000000000000000000000000000000000000000000000000000000000000000000000000000PES00010000001000000000000000000000000
202009080060001400000000000000004062000000000000000040628000000000020310300463DIP MATIAS RUBEN EMILIO       000000000942342000000000000000000000000000000000000000000000000000000000000000000000000000000000000000000000000000000000PES00010000001000000000000000000000000
202009080030001500000000000000000132000000000000000001328000000000030546689979YPF SA                        000000085581555000000000000000000000000000000000000000000000000000000000000000000000000000000000000000000000000000000000PES00010000001000000000000000000000000
202009080030001100000000000000000528000000000000000005288000000000033697225639ARGENTI LEMON SA              000000008282617000000000000000000000000000000000000000000000000000000000000000000000000000000000000000000000000000000000PES00010000001000000000000000000000000
202009090010001100000000000000011046000000000000000110468000000000023291350399SILVA SERGIO EDUARDO          000000094009997000000000000000000000000000000000000000000000000000000000000000000000000000000000000000000000000017841500PES00010000001000000000000000000000000
202009090010001100000000000000011047000000000000000110478000000000033708812949FINCA SAN LORENZO SRL         000000008444999000000000000000000000000000000000000000000000000000000000000000000000000000000000000000000000000001574250PES00010000001000000000000000000000000
202009090010001100000000000000011048000000000000000110488000000000030620919922RF y J BUDEGUER SRL           000000008617499000000000000000000000000000000000000000000000000000000000000000000000000000000000000000000000000001574250PES00010000001000000000000000000000000
202009090010001100000000000000011049000000000000000110498000000000030707089586NYNAGRO S.R.L.                000000011260002000000000000000000000000000000000000000000000000000000000000000000000000000000000000000000000000002099000PES00010000001000000000000000000000000
202009090010001100000000000000011050000000000000000110508000000000030708067837AGRICOLA DE LEALES SC         000000039325999000000000000000000000000000000000000000000000000000000000000000000000000000000000000000000000000007346500PES00010000001000000000000000000000000
202009090010001100000000000000011051000000000000000110518000000000030626009618EXPRESO RIVADAVIA SRL         000000016270801000000000000000000000000000000000000000000000000000000000000000000000000000000000000000000000000003127510PES00010000001000000000000000000000000
202009090010001400000000000000015092000000000000000150928000000000033715861459GRUPO MUNOZ SRL               000000003459056000000000000000000000000000000000000000000000000000000000000000000000000000000000000000000000000000000000PES00010000001000000000000000000000000
202009090010001400000000000000015093000000000000000150938000000000020070077176GHIGGIA JOSE ALFREDO          000000000604689000000000000000000000000000000000000000000000000000000000000000000000000000000000000000000000000000000000PES00010000001000000000000000000000000
202009090010001400000000000000015094000000000000000150948000000000023070919249HERRERA JORGE ARMANDO         000000004113314000000000000000000000000000000000000000000000000000000000000000000000000000000000000000000000000000000000PES00010000001000000000000000000000000
202009090010001400000000000000015095000000000000000150958000000000030711642532CENTRO DE SERVICIOS DEL ESTE S000000005430313000000000000000000000000000000000000000000000000000000000000000000000000000000000000000000000000000000000PES00010000001000000000000000000000000
202009090010001400000000000000015096000000000000000150968000000000023203350899NEMER JOSE ANGEL              000000002797641000000000000000000000000000000000000000000000000000000000000000000000000000000000000000000000000000000000PES00010000001000000000000000000000000
202009090010001400000000000000015097000000000000000150978000000000020114758338CARRERA FRANCISCO EDUARDO     000000001665519000000000000000000000000000000000000000000000000000000000000000000000000000000000000000000000000000000000PES00010000001000000000000000000000000
202009090010001400000000000000015098000000000000000150988000000000030685700022RODISA S.R.L                  000000002632672000000000000000000000000000000000000000000000000000000000000000000000000000000000000000000000000000000000PES00010000001000000000000000000000000
202009090010001400000000000000015099000000000000000150998000000000030675415087CIA AZUCARERA LOS BALCANES SA 000000004846344000000000000000000000000000000000000000000000000000000000000000000000000000000000000000000000000000000000PES00010000001000000000000000000000000
202009090010001400000000000000015100000000000000000151008000000000030712272542OLGA ZOTTOLA DE SIMONETO E HIJ000000000912248000000000000000000000000000000000000000000000000000000000000000000000000000000000000000000000000000000000PES00010000001000000000000000000000000
202009090010001400000000000000015101000000000000000151018000000000030712272542OLGA ZOTTOLA DE SIMONETO E HIJ000000000791121000000000000000000000000000000000000000000000000000000000000000000000000000000000000000000000000000000000PES00010000001000000000000000000000000
202009090010001400000000000000015102000000000000000151028000000000020259228450FONTDEVILA CARLOS JOSE        000000000416378000000000000000000000000000000000000000000000000000000000000000000000000000000000000000000000000000000000PES00010000001000000000000000000000000
202009090010001400000000000000015103000000000000000151038000000000030711824886GREEN PACK SA                 000000003161050000000000000000000000000000000000000000000000000000000000000000000000000000000000000000000000000000000000PES00010000001000000000000000000000000
202009090010001400000000000000015104000000000000000151048000000000030653616836MACOMITAS SRL                 000000451662750000000000000000000000000000000000000000000000000000000000000000000000000000000000000000000000000000000000PES00010000001000000000000000000000000
202009090010001400000000000000015105000000000000000151058000000000020080671998CARRIZO JUAN GREGORIO         000000003517297000000000000000000000000000000000000000000000000000000000000000000000000000000000000000000000000000000000PES00010000001000000000000000000000000
202009090010001400000000000000015106000000000000000151068000000000020269819104CUOZZO PABLO EDUARDO          000000010536824000000000000000000000000000000000000000000000000000000000000000000000000000000000000000000000000000000000PES00010000001000000000000000000000000
202009090010001400000000000000015107000000000000000151078000000000030709448931ALTO EL NARANJO SA            000000012213682000000000000000000000000000000000000000000000000000000000000000000000000000000000000000000000000000000000PES00010000001000000000000000000000000
202009090010001400000000000000015108000000000000000151088000000000030644196352SERV.ADMINISTRATIVOS Y AGROPEC000000002985433000000000000000000000000000000000000000000000000000000000000000000000000000000000000000000000000000000000PES00010000001000000000000000000000000
202009090010001400000000000000015109000000000000000151098000000000030644196352SERV.ADMINISTRATIVOS Y AGROPEC000000003113151000000000000000000000000000000000000000000000000000000000000000000000000000000000000000000000000000000000PES00010000001000000000000000000000000
202009090060001400000000000000004063000000000000000040638000000000020232392461GEREZ SERGIO GUSTAVO          000000005265350000000000000000000000000000000000000000000000000000000000000000000000000000000000000000000000000000000000PES00010000001000000000000000000000000
202009090060001400000000000000004064000000000000000040648000000000020162985052NIEVA VICTOR HUGO             000000003714470000000000000000000000000000000000000000000000000000000000000000000000000000000000000000000000000000000000PES00010000001000000000000000000000000
202009090060001400000000000000004065000000000000000040658000000000020232392461GEREZ SERGIO GUSTAVO          000000005265350000000000000000000000000000000000000000000000000000000000000000000000000000000000000000000000000000000000PES00010000001000000000000000000000000
202009090060001400000000000000004066000000000000000040668000000000020342865403PRUHSIS JUAN ALEJANDRO        000000023076002000000000000000000000000000000000000000000000000000000000000000000000000000000000000000000000000000000000PES00010000001000000000000000000000000
202009100010001100000000000000011052000000000000000110528000000000020070820073SUCESION DE LOPERA MANUEL     000000022519999000000000000000000000000000000000000000000000000000000000000000000000000000000000000000000000000004198000PES00010000001000000000000000000000000
202009100010001100000000000000011053000000000000000110538000000000020184061075PEDRAZA MIGUEL ENRIQUE        000000011260002000000000000000000000000000000000000000000000000000000000000000000000000000000000000000000000000002099000PES00010000001000000000000000000000000
202009100010001100000000000000011054000000000000000110548000000000027122721987IBANEZ MARTA NORMA            000000005745003000000000000000000000000000000000000000000000000000000000000000000000000000000000000000000000000001049500PES00010000001000000000000000000000000
202009100010001100000000000000011055000000000000000110558000000000020185059007VITAR MANUEL FERNANDO         000000008617499000000000000000000000000000000000000000000000000000000000000000000000000000000000000000000000000001574250PES00010000001000000000000000000000000
202009100010001100000000000000011056000000000000000110568000000000030620919922RF y J BUDEGUER SRL           000000028725003000000000000000000000000000000000000000000000000000000000000000000000000000000000000000000000000005247500PES00010000001000000000000000000000000
202009100010001100000000000000011057000000000000000110578000000000030626009618EXPRESO RIVADAVIA SRL         000000016589118000000000000000000000000000000000000000000000000000000000000000000000000000000000000000000000000003188696PES00010000001000000000000000000000000
202009100010001100000000000000011058000000000000000110588000000000030707465049LAPACHO AMARILLO SRL          000000014784378000000000000000000000000000000000000000000000000000000000000000000000000000000000000000000000000002755987PES00010000001000000000000000000000000
202009100010001400000000000000015110000000000000000151108000000000030714423211SH TRANSPORTE HUGUIN          000000009122271000000000000000000000000000000000000000000000000000000000000000000000000000000000000000000000000000000000PES00010000001000000000000000000000000
202009100010001400000000000000015111000000000000000151118000000000030715553712COMPLEJO AZUCARERO CONCEPCION 000000006382589000000000000000000000000000000000000000000000000000000000000000000000000000000000000000000000000000000000PES00010000001000000000000000000000000
202009100010001400000000000000015112000000000000000151128000000000030712340033POWER SRL                     000000001770311000000000000000000000000000000000000000000000000000000000000000000000000000000000000000000000000000000000PES00010000001000000000000000000000000
202009100010001400000000000000015113000000000000000151138000000000030709448931ALTO EL NARANJO SA            000000003908375000000000000000000000000000000000000000000000000000000000000000000000000000000000000000000000000000000000PES00010000001000000000000000000000000
202009100010001400000000000000015114000000000000000151148000000000030715553712COMPLEJO AZUCARERO CONCEPCION 000000006382589000000000000000000000000000000000000000000000000000000000000000000000000000000000000000000000000000000000PES00010000001000000000000000000000000
202009100010001400000000000000015115000000000000000151158000000000023070919249HERRERA JORGE ARMANDO         000000000497679000000000000000000000000000000000000000000000000000000000000000000000000000000000000000000000000000000000PES00010000001000000000000000000000000
202009100010001400000000000000015116000000000000000151168000000000020213360982ZAFE JOSE OMAR                000000005253999000000000000000000000000000000000000000000000000000000000000000000000000000000000000000000000000000000000PES00010000001000000000000000000000000
202009100010001400000000000000015117000000000000000151178000000000020135630900RODRIGUEZ MARCELO OSVALDO     000000005446147000000000000000000000000000000000000000000000000000000000000000000000000000000000000000000000000000000000PES00010000001000000000000000000000000
202009100010001400000000000000015118000000000000000151188000000000027240071482VILLAVICENCIO MARIA DE LOS ANG000000007670357000000000000000000000000000000000000000000000000000000000000000000000000000000000000000000000000000000000PES00010000001000000000000000000000000
202009100010001400000000000000015119000000000000000151198000000000020123182066CUEVA JUAN JOSE               000000000474320000000000000000000000000000000000000000000000000000000000000000000000000000000000000000000000000000000000PES00010000001000000000000000000000000
202009100010001600000000000000000785000000000000000007858000000000030712340033POWER SRL                     000000002270490000000000000000000000000000000000000000000000000000000000000000000000000000000000000000000000000000000000PES00010000001000000000000000000000000
202009100010005100000000000000000240000000000000000002408000000000020136744314BRIZ RAMON OSCAR              000000008290010000000000000000000000000000000000000000000000000000000000000000000000000000000000000000000000000000000000PES00010000001000000000000000000000000
202009100010005200000000000000000297000000000000000002978000000000030675388292MAUER SRL                     000000000408997000000000000000000000000000000000000000000000000000000000000000000000000000000000000000000000000000000000PES00010000001000000000000000000000000
202009100060001400000000000000004067000000000000000040678000000000020384904972ROMANO LEAL JAVIER ALFREDO    000000004112427000000000000000000000000000000000000000000000000000000000000000000000000000000000000000000000000000000000PES00010000001000000000000000000000000
202009100060001400000000000000004068000000000000000040688000000000020255437861FRIAS JOSE LUIS               000000002632672000000000000000000000000000000000000000000000000000000000000000000000000000000000000000000000000000000000PES00010000001000000000000000000000000
202009100060001400000000000000004069000000000000000040698000000000020377274165TORRES GUILLERMO MARCELINO    000000001839298000000000000000000000000000000000000000000000000000000000000000000000000000000000000000000000000000000000PES00010000001000000000000000000000000
202009100060001400000000000000004070000000000000000040708000000000020112675214LIZARRAGA EDMUNDO ANTONIO     000000005190272000000000000000000000000000000000000000000000000000000000000000000000000000000000000000000000000000000000PES00010000001000000000000000000000000
202009100060001400000000000000004071000000000000000040718000000000020239031847AVELLANEDA CARLOS             000000004102862000000000000000000000000000000000000000000000000000000000000000000000000000000000000000000000000000000000PES00010000001000000000000000000000000
202009100030001500000000000000000133000000000000000001338000000000030546689979YPF SA                        000000000355273000000000000000000000000000000000000000000000000000000000000000000000000000000000000000000000000000000000PES00010000001000000000000000000000000
202009100030001500000000000000000134000000000000000001348000000000030546689979YPF SA                        000000001714381000000000000000000000000000000000000000000000000000000000000000000000000000000000000000000000000000000000PES00010000001000000000000000000000000
202009100030001500000000000000000135000000000000000001358000000000030546689979YPF SA                        000000279651748000000000000000000000000000000000000000000000000000000000000000000000000000000000000000000000000000000000PES00010000001000000000000000000000000
202009100030001400000000000000002344000000000000000023448000000000030715553712COMPLEJO AZUCARERO CONCEPCION 000000006382589000000000000000000000000000000000000000000000000000000000000000000000000000000000000000000000000000000000PES00010000001000000000000000000000000
202009100030001400000000000000002345000000000000000023458000000000030702380339DANOVIS S.A                   000000002119811000000000000000000000000000000000000000000000000000000000000000000000000000000000000000000000000000000000PES00010000001000000000000000000000000
202009100030001400000000000000002346000000000000000023468000000000020119193215BOIX MATEO                    000000001113154000000000000000000000000000000000000000000000000000000000000000000000000000000000000000000000000000000000PES00010000001000000000000000000000000
202009100030001400000000000000002347000000000000000023478000000000020119193215BOIX MATEO                    000000000161598000000000000000000000000000000000000000000000000000000000000000000000000000000000000000000000000000000000PES00010000001000000000000000000000000
202009100030005100000000000000000012000000000000000000128000000000030622371967CODEGRAN SRL                  000000016482378000000000000000000000000000000000000000000000000000000000000000000000000000000000000000000000000000000000PES00010000001000000000000000000000000
202009110010001100000000000000011059000000000000000110598000000000030708849134LINARES MATERIALES SRL        000000005630001000000000000000000000000000000000000000000000000000000000000000000000000000000000000000000000000001049500PES00010000001000000000000000000000000
202009110010001100000000000000011060000000000000000110608000000000020167538909BARRIONUEVO JOSE HUMBERTO     000000013912503000000000000000000000000000000000000000000000000000000000000000000000000000000000000000000000000002623750PES00010000001000000000000000000000000
202009110010001100000000000000011061000000000000000110618000000000020080994819BRAVO ZAVALETA ARMANDO MANUEL 000000017580003000000000000000000000000000000000000000000000000000000000000000000000000000000000000000000000000003148500PES00010000001000000000000000000000000
202009110010001100000000000000011062000000000000000110628000000000030626009618EXPRESO RIVADAVIA SRL         000000022622961000000000000000000000000000000000000000000000000000000000000000000000000000000000000000000000000004348498PES00010000001000000000000000000000000
202009110010001100000000000000011063000000000000000110638000000000033708812949FINCA SAN LORENZO SRL         000000016889998000000000000000000000000000000000000000000000000000000000000000000000000000000000000000000000000003148500PES00010000001000000000000000000000000
202009110010001400000000000000015120000000000000000151208000000000030715098551SUCROALCOHOLERA DEL SUR SA    000000005769885000000000000000000000000000000000000000000000000000000000000000000000000000000000000000000000000000000000PES00010000001000000000000000000000000
202009110010001400000000000000015121000000000000000151218000000000030708849134LINARES MATERIALES SRL        000000000832762000000000000000000000000000000000000000000000000000000000000000000000000000000000000000000000000000000000PES00010000001000000000000000000000000
202009110010001400000000000000015122000000000000000151228000000000027284964425RACEDO ROSANA ESTER           000000001967126000000000000000000000000000000000000000000000000000000000000000000000000000000000000000000000000000000000PES00010000001000000000000000000000000
202009110010001400000000000000015123000000000000000151238000000000027284964425RACEDO ROSANA ESTER           000000002237693000000000000000000000000000000000000000000000000000000000000000000000000000000000000000000000000000000000PES00010000001000000000000000000000000
202009110010001400000000000000015124000000000000000151248000000000027260069085NICHIPORUK  CECILIA ABIGAIL   000000005997031000000000000000000000000000000000000000000000000000000000000000000000000000000000000000000000000000000000PES00010000001000000000000000000000000
202009110010001400000000000000015125000000000000000151258000000000030715098551SUCROALCOHOLERA DEL SUR SA    000000009251297000000000000000000000000000000000000000000000000000000000000000000000000000000000000000000000000000000000PES00010000001000000000000000000000000
202009110010001400000000000000015126000000000000000151268000000000020136744314BRIZ RAMON OSCAR              000000000832762000000000000000000000000000000000000000000000000000000000000000000000000000000000000000000000000000000000PES00010000001000000000000000000000000
202009110010001400000000000000015127000000000000000151278000000000030504549328INGECO SA                     000000000935860000000000000000000000000000000000000000000000000000000000000000000000000000000000000000000000000000000000PES00010000001000000000000000000000000
202009110010001400000000000000015128000000000000000151288000000000030707953922FIDUAGRO SRL                  000000000604689000000000000000000000000000000000000000000000000000000000000000000000000000000000000000000000000000000000PES00010000001000000000000000000000000
202009110030001100000000000000000529000000000000000005298000000000020173378603JUAREZ ANTONIO ARMANDO (ST)   000000000789671000000000000000000000000000000000000000000000000000000000000000000000000000000000000000000000000000148924PES00010000001000000000000000000000000
202009110030001400000000000000002348000000000000000023488000000000030712577807LAS VALKIRIAS SRL             000000000140354000000000000000000000000000000000000000000000000000000000000000000000000000000000000000000000000000000000PES00010000001000000000000000000000000
202009110030001400000000000000002349000000000000000023498000000000020276318889VILLAGRA ALFREDO DANIEL       000000001667547000000000000000000000000000000000000000000000000000000000000000000000000000000000000000000000000000000000PES00010000001000000000000000000000000
202009110030001400000000000000002350000000000000000023508000000000020070077176GHIGGIA JOSE ALFREDO          000000000299763000000000000000000000000000000000000000000000000000000000000000000000000000000000000000000000000000000000PES00010000001000000000000000000000000
202009110030001400000000000000002351000000000000000023518000000000030523408247CERAMICA MARCOS PAZ SRL       000000000322747000000000000000000000000000000000000000000000000000000000000000000000000000000000000000000000000000000000PES00010000001000000000000000000000000
202009110080001400000000000000000700000000000000000007008000000000020174643041VILLALOBO CESAR ALBERTO       000000000307173000000000000000000000000000000000000000000000000000000000000000000000000000000000000000000000000000000000PES00010000001000000000000000000000000
202009120010001100000000000000011064000000000000000110648000000000030620919922RF y J BUDEGUER SRL           000000080430007000000000000000000000000000000000000000000000000000000000000000000000000000000000000000000000000014693000PES00010000001000000000000000000000000
202009120010001100000000000000011065000000000000000110658000000000020278432840ALMONACID JOSE LEONARDO       000000011490000000000000000000000000000000000000000000000000000000000000000000000000000000000000000000000000000002099000PES00010000001000000000000000000000000
202009120010001100000000000000011066000000000000000110668000000000030714057355ZAFIROS DEL NOA SA            000000005700002000000000000000000000000000000000000000000000000000000000000000000000000000000000000000000000000001049500PES00010000001000000000000000000000000
202009120010001400000000000000015129000000000000000151298000000000030716318342SEIMA SRL                     000000003023456000000000000000000000000000000000000000000000000000000000000000000000000000000000000000000000000000000000PES00010000001000000000000000000000000
202009120010001400000000000000015130000000000000000151308000000000020080676396ARGENTE DOMINGO ANDRES        000000003329736000000000000000000000000000000000000000000000000000000000000000000000000000000000000000000000000000000000PES00010000001000000000000000000000000
202009120030001400000000000000002352000000000000000023528000000000020276318889VILLAGRA ALFREDO DANIEL       000000001133027000000000000000000000000000000000000000000000000000000000000000000000000000000000000000000000000000000000PES00010000001000000000000000000000000
202009140010001100000000000000011067000000000000000110678000000000030708724560LA ASTURIANA S.R.L            000000022980000000000000000000000000000000000000000000000000000000000000000000000000000000000000000000000000000004198000PES00010000001000000000000000000000000
202009140010001100000000000000011068000000000000000110688000000000033564217129DI BACCO Y CIA SA             000000035178002000000000000000000000000000000000000000000000000000000000000000000000000000000000000000000000000005667300PES00010000001000000000000000000000000
202009140010001100000000000000011069000000000000000110698000000000030715261517SERCOU SRL                    000000008444999000000000000000000000000000000000000000000000000000000000000000000000000000000000000000000000000001574250PES00010000001000000000000000000000000
202009140010001100000000000000011070000000000000000110708000000000020342268081CANO ARON JOSE VICTOR (ST)    000000016694997000000000000000000000000000000000000000000000000000000000000000000000000000000000000000000000000003148500PES00010000001000000000000000000000000
202009140010001100000000000000011071000000000000000110718000000000030709767905COOP AGROPECUARIA LOS BARRIENT000000005565001000000000000000000000000000000000000000000000000000000000000000000000000000000000000000000000000001049500PES00010000001000000000000000000000000
202009140010001100000000000000011072000000000000000110728000000000030716819856INDUSTRIAS SANTA BARBARA SRL E000000005565001000000000000000000000000000000000000000000000000000000000000000000000000000000000000000000000000001049500PES00010000001000000000000000000000000
202009140010001100000000000000011073000000000000000110738000000000030716819856INDUSTRIAS SANTA BARBARA SRL E000000016694997000000000000000000000000000000000000000000000000000000000000000000000000000000000000000000000000003148500PES00010000001000000000000000000000000
202009140010001100000000000000011074000000000000000110748000000000020173378603JUAREZ ANTONIO ARMANDO (ST)   000000011130002000000000000000000000000000000000000000000000000000000000000000000000000000000000000000000000000002099000PES00010000001000000000000000000000000
202009140010001100000000000000011075000000000000000110758000000000030510885321LA BANDA SRL (ST)             000000055649999000000000000000000000000000000000000000000000000000000000000000000000000000000000000000000000000010495000PES00010000001000000000000000000000000
202009140010001100000000000000011076000000000000000110768000000000030709100579TRES DECIMA SRL (ST)          000000016694997000000000000000000000000000000000000000000000000000000000000000000000000000000000000000000000000003148500PES00010000001000000000000000000000000
202009140010001100000000000000011077000000000000000110778000000000030709100579TRES DECIMA SRL (ST)          000000013912497000000000000000000000000000000000000000000000000000000000000000000000000000000000000000000000000002623750PES00010000001000000000000000000000000
202009140010001100000000000000011078000000000000000110788000000000030710010680ZAPULLA JOSE E Y G SALVADOR SH000000005565001000000000000000000000000000000000000000000000000000000000000000000000000000000000000000000000000001049500PES00010000001000000000000000000000000
202009140010001100000000000000011079000000000000000110798000000000030715098551SUCROALCOHOLERA DEL SUR SA    000000089250001000000000000000000000000000000000000000000000000000000000000000000000000000000000000000000000000017841500PES00010000001000000000000000000000000
202009140010001100000000000000011080000000000000000110808000000000030708913266TRANSPORTE HACHA DE PIEDRA SRL000000006727853000000000000000000000000000000000000000000000000000000000000000000000000000000000000000000000000001254153PES00010000001000000000000000000000000
202009140010001100000000000000011081000000000000000110818000000000030626009618EXPRESO RIVADAVIA SRL         000000013976507000000000000000000000000000000000000000000000000000000000000000000000000000000000000000000000000002686510PES00010000001000000000000000000000000
202009140010001100000000000000011082000000000000000110828000000000030626009618EXPRESO RIVADAVIA SRL         000000005988528000000000000000000000000000000000000000000000000000000000000000000000000000000000000000000000000001151092PES00010000001000000000000000000000000
202009140010001100000000000000011083000000000000000110838000000000030708913266TRANSPORTE HACHA DE PIEDRA SRL000000051413408000000000000000000000000000000000000000000000000000000000000000000000000000000000000000000000000009992290PES00010000001000000000000000000000000
202009140010001400000000000000015131000000000000000151318000000000030709702390YABITEL SA                    000000031222794000000000000000000000000000000000000000000000000000000000000000000000000000000000000000000000000000000000PES00010000001000000000000000000000000
202009140010001400000000000000015132000000000000000151328000000000020100150582MEDINA BENIGNO NOLASCO        000000010904019000000000000000000000000000000000000000000000000000000000000000000000000000000000000000000000000000000000PES00010000001000000000000000000000000
202009140010001400000000000000015133000000000000000151338000000000020117813089DELORENZI VICENTE LUIS        000000012268847000000000000000000000000000000000000000000000000000000000000000000000000000000000000000000000000000000000PES00010000001000000000000000000000000
202009140010001400000000000000015134000000000000000151348000000000023256326329ECHAZU ANDRES ALBERTO         000000005860410000000000000000000000000000000000000000000000000000000000000000000000000000000000000000000000000000000000PES00010000001000000000000000000000000
202009140010001400000000000000015135000000000000000151358000000000030707338209SERVICIOS Y AVENTURAS SRL     000000004276163000000000000000000000000000000000000000000000000000000000000000000000000000000000000000000000000000000000PES00010000001000000000000000000000000
202009140010001400000000000000015136000000000000000151368000000000020324610821CORTI DIEGO JAVIER            000000002505138000000000000000000000000000000000000000000000000000000000000000000000000000000000000000000000000000000000PES00010000001000000000000000000000000
202009140010001400000000000000015137000000000000000151378000000000020321346759ABRAHAM JORGE ENRIQUE         000000003512273000000000000000000000000000000000000000000000000000000000000000000000000000000000000000000000000000000000PES00010000001000000000000000000000000
202009140010001400000000000000015138000000000000000151388000000000030716538911QUIROGA S.A.S                 000000012159002000000000000000000000000000000000000000000000000000000000000000000000000000000000000000000000000000000000PES00010000001000000000000000000000000
202009140010001400000000000000015139000000000000000151398000000000030712272542OLGA ZOTTOLA DE SIMONETO E HIJ000000001322023000000000000000000000000000000000000000000000000000000000000000000000000000000000000000000000000000000000PES00010000001000000000000000000000000
202009140010001400000000000000015140000000000000000151408000000000030712272542OLGA ZOTTOLA DE SIMONETO E HIJ000000000760779000000000000000000000000000000000000000000000000000000000000000000000000000000000000000000000000000000000PES00010000001000000000000000000000000
202009140010001600000000000000000786000000000000000007868000000000030504549328INGECO SA                     000000127166160000000000000000000000000000000000000000000000000000000000000000000000000000000000000000000000000000000000PES00010000001000000000000000000000000
202009140060001400000000000000004072000000000000000040728000000000020377274165TORRES GUILLERMO MARCELINO    000000002930205000000000000000000000000000000000000000000000000000000000000000000000000000000000000000000000000000000000PES00010000001000000000000000000000000
202009140060001400000000000000004073000000000000000040738000000000020249814491CORTI SERGIO DANIEL           000000000665834000000000000000000000000000000000000000000000000000000000000000000000000000000000000000000000000000000000PES00010000001000000000000000000000000
202009140060001400000000000000004074000000000000000040748000000000027217998226CASTRO MARIA ROSA             000000011416638000000000000000000000000000000000000000000000000000000000000000000000000000000000000000000000000000000000PES00010000001000000000000000000000000
202009140060001400000000000000004075000000000000000040758000000000020242005385SARME DANIEL IASIR            000000003528222000000000000000000000000000000000000000000000000000000000000000000000000000000000000000000000000000000000PES00010000001000000000000000000000000
202009140060001400000000000000004076000000000000000040768000000000020174643041VILLALOBO CESAR ALBERTO       000000002359667000000000000000000000000000000000000000000000000000000000000000000000000000000000000000000000000000000000PES00010000001000000000000000000000000
202009140030001100000000000000000530000000000000000005308000000000030708913266TRANSPORTE HACHA DE PIEDRA SRL000000006727852000000000000000000000000000000000000000000000000000000000000000000000000000000000000000000000000001254152PES00010000001000000000000000000000000
202009140030001400000000000000002353000000000000000023538000000000030601705148BATCON S.R.L.    1            000000000733514000000000000000000000000000000000000000000000000000000000000000000000000000000000000000000000000000000000PES00010000001000000000000000000000000
202009140030001400000000000000002354000000000000000023548000000000030644186497LOS PEMPA AGROGANADERA        000000000895988000000000000000000000000000000000000000000000000000000000000000000000000000000000000000000000000000000000PES00010000001000000000000000000000000
202009140030001400000000000000002355000000000000000023558000000000023266483759ARIAS RUBEN ALFREDO           000000000356264000000000000000000000000000000000000000000000000000000000000000000000000000000000000000000000000000000000PES00010000001000000000000000000000000
202009140030001400000000000000002356000000000000000023568000000000020275045862ARIAS NELSON OSCAR            000000000298236000000000000000000000000000000000000000000000000000000000000000000000000000000000000000000000000000000000PES00010000001000000000000000000000000
202009140030001400000000000000002357000000000000000023578000000000020269819104CUOZZO PABLO EDUARDO          000000001895828000000000000000000000000000000000000000000000000000000000000000000000000000000000000000000000000000000000PES00010000001000000000000000000000000
202009140030001400000000000000002358000000000000000023588000000000030714764310ARIAS DANTE,VICTOR Y WILLIAM S000000000416978000000000000000000000000000000000000000000000000000000000000000000000000000000000000000000000000000000000PES00010000001000000000000000000000000
202009150010001100000000000000011084000000000000000110848000000000030708067837AGRICOLA DE LEALES SC         000000039325999000000000000000000000000000000000000000000000000000000000000000000000000000000000000000000000000007346500PES00010000001000000000000000000000000
202009150010001100000000000000011085000000000000000110858000000000020285315671ROTH GERARDO ARIEL            000000011260002000000000000000000000000000000000000000000000000000000000000000000000000000000000000000000000000002099000PES00010000001000000000000000000000000
202009150010001100000000000000011086000000000000000110868000000000020254467945CONTRERAS RICARDO ALEJANDRO   000000026499998000000000000000000000000000000000000000000000000000000000000000000000000000000000000000000000000005247500PES00010000001000000000000000000000000
202009150010001100000000000000011087000000000000000110878000000000030715261517SERCOU SRL                    000000011260002000000000000000000000000000000000000000000000000000000000000000000000000000000000000000000000000002099000PES00010000001000000000000000000000000
202009150010001100000000000000011088000000000000000110888000000000030626009618EXPRESO RIVADAVIA SRL         000000014827721000000000000000000000000000000000000000000000000000000000000000000000000000000000000000000000000002850127PES00010000001000000000000000000000000
202009150010001400000000000000015141000000000000000151418000000000020276318889VILLAGRA ALFREDO DANIEL       000000009573174000000000000000000000000000000000000000000000000000000000000000000000000000000000000000000000000000000000PES00010000001000000000000000000000000
202009150010001400000000000000015142000000000000000151428000000000023311284339CARRASCO RAUL RICARDO         000000005356595000000000000000000000000000000000000000000000000000000000000000000000000000000000000000000000000000000000PES00010000001000000000000000000000000
202009150010001400000000000000015143000000000000000151438000000000027284964425RACEDO ROSANA ESTER           000000003356540000000000000000000000000000000000000000000000000000000000000000000000000000000000000000000000000000000000PES00010000001000000000000000000000000
202009150010001400000000000000015144000000000000000151448000000000027284964425RACEDO ROSANA ESTER           000000001733365000000000000000000000000000000000000000000000000000000000000000000000000000000000000000000000000000000000PES00010000001000000000000000000000000
202009150010001400000000000000015145000000000000000151458000000000030707465049LAPACHO AMARILLO SRL          000000003459056000000000000000000000000000000000000000000000000000000000000000000000000000000000000000000000000000000000PES00010000001000000000000000000000000
202009150010001400000000000000015146000000000000000151468000000000030504549328INGECO SA                     000000003540281000000000000000000000000000000000000000000000000000000000000000000000000000000000000000000000000000000000PES00010000001000000000000000000000000
202009150010001400000000000000015147000000000000000151478000000000020135630110MENA CARLOS ADOLFO            000000001497231000000000000000000000000000000000000000000000000000000000000000000000000000000000000000000000000000000000PES00010000001000000000000000000000000
202009150010001400000000000000015148000000000000000151488000000000027375026150TRIUNFETTI NATALIA ELIZABETH  000000001995826000000000000000000000000000000000000000000000000000000000000000000000000000000000000000000000000000000000PES00010000001000000000000000000000000
202009150010001400000000000000015149000000000000000151498000000000030620919922RF y J BUDEGUER SRL           000000002798770000000000000000000000000000000000000000000000000000000000000000000000000000000000000000000000000000000000PES00010000001000000000000000000000000
202009150010001400000000000000015150000000000000000151508000000000033714563209ALISOS SRL                    000000000314750000000000000000000000000000000000000000000000000000000000000000000000000000000000000000000000000000000000PES00010000001000000000000000000000000
202009150010001400000000000000015151000000000000000151518000000000023083954329SUCESION DE RODA MARIO OSVALDO000000003339197000000000000000000000000000000000000000000000000000000000000000000000000000000000000000000000000000000000PES00010000001000000000000000000000000
202009150010001400000000000000015152000000000000000151528000000000030691778688EMP CONSTR Y SERVICIOS ECOS SA000000003512273000000000000000000000000000000000000000000000000000000000000000000000000000000000000000000000000000000000PES00010000001000000000000000000000000
202009150010001400000000000000015153000000000000000151538000000000030707465049LAPACHO AMARILLO SRL          000000004378287000000000000000000000000000000000000000000000000000000000000000000000000000000000000000000000000000000000PES00010000001000000000000000000000000
202009150010001600000000000000000787000000000000000007878000000000027379976390MIROLI LOMBARDO SILVIA NOELIA 000000001338375000000000000000000000000000000000000000000000000000000000000000000000000000000000000000000000000000000000PES00010000001000000000000000000000000
202009150010005100000000000000000241000000000000000002418000000000027148465296ARTERO LILIANA DEL VALLE      000000004714483000000000000000000000000000000000000000000000000000000000000000000000000000000000000000000000000000000000PES00010000001000000000000000000000000
202009150010005100000000000000000242000000000000000002428000000000030714966312FYL TRANS SRL                 000000014931158000000000000000000000000000000000000000000000000000000000000000000000000000000000000000000000000000000000PES00010000001000000000000000000000000
202009150010005100000000000000000243000000000000000002438000000000033708668759ACHERAL S.A.                  000000004989798000000000000000000000000000000000000000000000000000000000000000000000000000000000000000000000000000000000PES00010000001000000000000000000000000
202009150010005200000000000000000298000000000000000002988000000000030707985115TRAPICHE SA                   000000117848250000000000000000000000000000000000000000000000000000000000000000000000000000000000000000000000000000000000PES00010000001000000000000000000000000
202009150060001400000000000000004077000000000000000040778000000000020070690099MIGHELI RAFAEL (P)            000000000385085000000000000000000000000000000000000000000000000000000000000000000000000000000000000000000000000000000000PES00010000001000000000000000000000000
202009150030001400000000000000002359000000000000000023598000000000030712272542OLGA ZOTTOLA DE SIMONETO E HIJ000000000760779000000000000000000000000000000000000000000000000000000000000000000000000000000000000000000000000000000000PES00010000001000000000000000000000000
202009150030001400000000000000002360000000000000000023608000000000020162829840BRAVO OSCAR ROLANDO           000000000177726000000000000000000000000000000000000000000000000000000000000000000000000000000000000000000000000000000000PES00010000001000000000000000000000000
202009150030001400000000000000002361000000000000000023618000000000020130408037DIAZ FRANCISCO                000000000416978000000000000000000000000000000000000000000000000000000000000000000000000000000000000000000000000000000000PES00010000001000000000000000000000000
202009150020001100000000000000000220000000000000000002208000000000030714966312FYL TRANS SRL                 000000001357378000000000000000000000000000000000000000000000000000000000000000000000000000000000000000000000000000000000PES00010000001000000000000000000000000
202009160010001100000000000000011089000000000000000110898000000000033708812949FINCA SAN LORENZO SRL         000000022519999000000000000000000000000000000000000000000000000000000000000000000000000000000000000000000000000004198000PES00010000001000000000000000000000000
202009160010001100000000000000011090000000000000000110908000000000020219695285DOMINGUEZ ANDRES ALBERTO      000000005745003000000000000000000000000000000000000000000000000000000000000000000000000000000000000000000000000001049500PES00010000001000000000000000000000000
202009160010001100000000000000011091000000000000000110918000000000030709628255PACTA SRL                     000000016889998000000000000000000000000000000000000000000000000000000000000000000000000000000000000000000000000003148500PES00010000001000000000000000000000000
202009160010001100000000000000011092000000000000000110928000000000030708724560LA ASTURIANA S.R.L            000000022980000000000000000000000000000000000000000000000000000000000000000000000000000000000000000000000000000004198000PES00010000001000000000000000000000000
202009160010001100000000000000011093000000000000000110938000000000020180345540GARZON FRANCISCO JAVIER       000000033599999000000000000000000000000000000000000000000000000000000000000000000000000000000000000000000000000006297000PES00010000001000000000000000000000000
202009160010001100000000000000011094000000000000000110948000000000030626009618EXPRESO RIVADAVIA SRL         000000021097987000000000000000000000000000000000000000000000000000000000000000000000000000000000000000000000000004055373PES00010000001000000000000000000000000
202009160010001100000000000000011095000000000000000110958000000000030707211942ROLCAR SA                     000000006500000000000000000000000000000000000000000000000000000000000000000000000000000000000000000000000000000000944550PES00010000001000000000000000000000000
202009160010001100000000000000011096000000000000000110968000000000020299973116VITRIU NICOLAS                000000011490000000000000000000000000000000000000000000000000000000000000000000000000000000000000000000000000000002099000PES00010000001000000000000000000000000
202009160010001400000000000000015154000000000000000151548000000000020110747625PEREZ JUAN LUIS               000000004743223000000000000000000000000000000000000000000000000000000000000000000000000000000000000000000000000000000000PES00010000001000000000000000000000000
202009160010001400000000000000015155000000000000000151558000000000030708587342QUILLEN BERRIES S.A           000000003329736000000000000000000000000000000000000000000000000000000000000000000000000000000000000000000000000000000000PES00010000001000000000000000000000000
202009160010001400000000000000015156000000000000000151568000000000020252118420RODRIGUEZ LUIS MARCELO        000000003517297000000000000000000000000000000000000000000000000000000000000000000000000000000000000000000000000000000000PES00010000001000000000000000000000000
202009160010001400000000000000015157000000000000000151578000000000020296739554MUHIC GIANNI MIRKO            000000005957942000000000000000000000000000000000000000000000000000000000000000000000000000000000000000000000000000000000PES00010000001000000000000000000000000
202009160010001400000000000000015158000000000000000151588000000000020298786487LECCESE PEDRO ALBERTO         000000000942250000000000000000000000000000000000000000000000000000000000000000000000000000000000000000000000000000000000PES00010000001000000000000000000000000
202009160010001400000000000000015159000000000000000151598000000000030708417137BELLANTI BRUNO  Y BELLANTI CES000000000295413000000000000000000000000000000000000000000000000000000000000000000000000000000000000000000000000000000000PES00010000001000000000000000000000000
202009160010001400000000000000015160000000000000000151608000000000033691776919FABRICA DE FIDEOS RIVOLI SA   000000003590151000000000000000000000000000000000000000000000000000000000000000000000000000000000000000000000000000000000PES00010000001000000000000000000000000
202009160010001400000000000000015161000000000000000151618000000000020223327991ZERPA MANUEL ANGEL            000000002386788000000000000000000000000000000000000000000000000000000000000000000000000000000000000000000000000000000000PES00010000001000000000000000000000000
202009160010001400000000000000015162000000000000000151628000000000030715102761ARIDOS CALERA SRL             000000005597535000000000000000000000000000000000000000000000000000000000000000000000000000000000000000000000000000000000PES00010000001000000000000000000000000
202009160010001400000000000000015163000000000000000151638000000000030504549328INGECO SA                     000000003459056000000000000000000000000000000000000000000000000000000000000000000000000000000000000000000000000000000000PES00010000001000000000000000000000000
202009160010020000000000000000000066000000000000000000668000000000030658650242EDET SA                       000000016218748000000000000000000000000000000000000000000000000000000000000000000000000000000000000000000000000000000000PES00010000001000000000000000000000000
202009160060001400000000000000004078000000000000000040788000000000030656291652MUNICIPALIDAD DE MONTEROS     000000008226179000000000000000000000000000000000000000000000000000000000000000000000000000000000000000000000000000000000PES00010000001000000000000000000000000
202009160060001400000000000000004079000000000000000040798000000000020324137352BAZAN RUIZ FRANCO EMMANUEL    000000000366981000000000000000000000000000000000000000000000000000000000000000000000000000000000000000000000000000000000PES00010000001000000000000000000000000
202009160030001500000000000000000136000000000000000001368000000000030546689979YPF SA                        000000011874548000000000000000000000000000000000000000000000000000000000000000000000000000000000000000000000000000000000PES00010000001000000000000000000000000
202009160030001400000000000000002362000000000000000023628000000000030702402146PREMOL SRL                    000000000133273000000000000000000000000000000000000000000000000000000000000000000000000000000000000000000000000000000000PES00010000001000000000000000000000000
202009160030001400000000000000002363000000000000000023638000000000030702402146PREMOL SRL                    000000000181569000000000000000000000000000000000000000000000000000000000000000000000000000000000000000000000000000000000PES00010000001000000000000000000000000
202009160030001400000000000000002364000000000000000023648000000000023142250829RODRIGUEZ CARLOS DANIEL       000000000034969000000000000000000000000000000000000000000000000000000000000000000000000000000000000000000000000000000000PES00010000001000000000000000000000000
202009160030001400000000000000002365000000000000000023658000000000023142250829RODRIGUEZ CARLOS DANIEL       000000000084654000000000000000000000000000000000000000000000000000000000000000000000000000000000000000000000000000000000PES00010000001000000000000000000000000
202009160030001400000000000000002366000000000000000023668000000000030708652268GUILLELMI HERNANDEZ SOC.DE HEC000000000164750000000000000000000000000000000000000000000000000000000000000000000000000000000000000000000000000000000000PES00010000001000000000000000000000000
202009160080001400000000000000000701000000000000000007018000000000020242005385SARME DANIEL IASIR            000000001499933000000000000000000000000000000000000000000000000000000000000000000000000000000000000000000000000000000000PES00010000001000000000000000000000000
202009160080001400000000000000000702000000000000000007028000000000020125623000CHANTA JULIO                  000000000298663000000000000000000000000000000000000000000000000000000000000000000000000000000000000000000000000000000000PES00010000001000000000000000000000000
202009160080001400000000000000000703000000000000000007038000000000020232392461GEREZ SERGIO GUSTAVO          000000000501620000000000000000000000000000000000000000000000000000000000000000000000000000000000000000000000000000000000PES00010000001000000000000000000000000
202009170010001100000000000000011097000000000000000110978000000000030710383126TM ROLDAN SRL                 000000005066997000000000000000000000000000000000000000000000000000000000000000000000000000000000000000000000000000944550PES00010000001000000000000000000000000
202009170010001100000000000000011098000000000000000110988000000000030620919922RF y J BUDEGUER SRL           000000057450006000000000000000000000000000000000000000000000000000000000000000000000000000000000000000000000000010495000PES00010000001000000000000000000000000
202009170010001100000000000000011099000000000000000110998000000000020296858537VIEYRA JORGE LINO             000000005745003000000000000000000000000000000000000000000000000000000000000000000000000000000000000000000000000001049500PES00010000001000000000000000000000000
202009170010001100000000000000011100000000000000000111008000000000020185059007VITAR MANUEL FERNANDO         000000008617499000000000000000000000000000000000000000000000000000000000000000000000000000000000000000000000000001574250PES00010000001000000000000000000000000
202009170010001100000000000000011101000000000000000111018000000000030626009618EXPRESO RIVADAVIA SRL         000000015853657000000000000000000000000000000000000000000000000000000000000000000000000000000000000000000000000003047328PES00010000001000000000000000000000000
202009170010001400000000000000015164000000000000000151648000000000023070919249HERRERA JORGE ARMANDO         000000001626931000000000000000000000000000000000000000000000000000000000000000000000000000000000000000000000000000000000PES00010000001000000000000000000000000
