2020090100100011000000000000000109940000000000000001099480000000020-08099481-9BRAVO ZAVALETA ARMANDO MANUEL 000000017580003000000000000000000000000000000000000000000000000000000000000000000000000000000000000000000000000003148500PES00010000001000000000000000000000000
2020090100100011000000000000000109950000000000000001099580000000020-16753890-9BARRIONUEVO JOSE HUMBERTO     000000013912503000000000000000000000000000000000000000000000000000000000000000000000000000000000000000000000000002623750PES00010000001000000000000000000000000
2020090100100011000000000000000109960000000000000001099680000000030-70806783-7AGRICOLA DE LEALES SC         000000039325999000000000000000000000000000000000000000000000000000000000000000000000000000000000000000000000000007346500PES00010000001000000000000000000000000
2020090100100011000000000000000109970000000000000001099780000000033-71475742-9NOBEN SRL                     000000022980000000000000000000000000000000000000000000000000000000000000000000000000000000000000000000000000000004198000PES00010000001000000000000000000000000
2020090100100011000000000000000109980000000000000001099880000000023-29135039-9SILVA SERGIO EDUARDO          000000094009997000000000000000000000000000000000000000000000000000000000000000000000000000000000000000000000000017841500PES00010000001000000000000000000000000
2020090100100011000000000000000109990000000000000001099980000000030-62600961-8EXPRESO RIVADAVIA SRL         000000020503938000000000000000000000000000000000000000000000000000000000000000000000000000000000000000000000000003941187PES00010000001000000000000000000000000
2020090100100014000000000000000150140000000000000001501480000000030-71509855-1SUCROALCOHOLERA DEL SUR SA    000000002669761000000000000000000000000000000000000000000000000000000000000000000000000000000000000000000000000000000000PES00010000001000000000000000000000000
2020090100100014000000000000000150150000000000000001501580000000030-71509855-1SUCROALCOHOLERA DEL SUR SA    000000008810765000000000000000000000000000000000000000000000000000000000000000000000000000000000000000000000000000000000PES00010000001000000000000000000000000
2020090100100014000000000000000150160000000000000001501680000000020-06996709-5SUCESION DE TERAN RODOLFO NICO000000007365593000000000000000000000000000000000000000000000000000000000000000000000000000000000000000000000000000000000PES00010000001000000000000000000000000
2020090100100014000000000000000150170000000000000001501780000000030-71476431-0ARIAS DANTE,VICTOR Y WILLIAM S000000001174391000000000000000000000000000000000000000000000000000000000000000000000000000000000000000000000000000000000PES00010000001000000000000000000000000
2020090100100014000000000000000150180000000000000001501880000000030-50454932-8INGECO SA                     000000004121646000000000000000000000000000000000000000000000000000000000000000000000000000000000000000000000000000000000PES00010000001000000000000000000000000
2020090100100014000000000000000150190000000000000001501980000000020-26584904-1CUEVA MARCELO OMAR            000000003345022000000000000000000000000000000000000000000000000000000000000000000000000000000000000000000000000000000000PES00010000001000000000000000000000000
2020090100100014000000000000000150200000000000000001502080000000030-71301460-1MAELI SRL                     000000002665492000000000000000000000000000000000000000000000000000000000000000000000000000000000000000000000000000000000PES00010000001000000000000000000000000
2020090100100014000000000000000150210000000000000001502180000000030-70795392-2FIDUAGRO SRL                  000000000793109000000000000000000000000000000000000000000000000000000000000000000000000000000000000000000000000000000000PES00010000001000000000000000000000000
2020090100100014000000000000000150220000000000000001502280000000030-70733820-9SERVICIOS Y AVENTURAS SRL     000000001010799000000000000000000000000000000000000000000000000000000000000000000000000000000000000000000000000000000000PES00010000001000000000000000000000000
2020090100100014000000000000000150230000000000000001502380000000030-71433234-8QUIPAN SRL                    000000002189795000000000000000000000000000000000000000000000000000000000000000000000000000000000000000000000000000000000PES00010000001000000000000000000000000
2020090100100014000000000000000150240000000000000001502480000000020-37728037-8SZMYD JESUS EMMANUEL          000000003294340000000000000000000000000000000000000000000000000000000000000000000000000000000000000000000000000000000000PES00010000001000000000000000000000000
2020090100100051000000000000000002350000000000000000023580000000020-28221390-8ARGENTE DANTE RUBEN           000000005927064000000000000000000000000000000000000000000000000000000000000000000000000000000000000000000000000000000000PES00010000001000000000000000000000000
2020090100100051000000000000000002360000000000000000023680000000020-28221390-8ARGENTE DANTE RUBEN           000000002680392000000000000000000000000000000000000000000000000000000000000000000000000000000000000000000000000000000000PES00010000001000000000000000000000000
2020090100100052000000000000000002900000000000000000029080000000020-93861950-7MEDICI PEDRO FERRUCCIO        000000002025507000000000000000000000000000000000000000000000000000000000000000000000000000000000000000000000000000000000PES00010000001000000000000000000000000
2020090100600014000000000000000040500000000000000000405080000000020-21746057-4SECO FLAVIO DANIEL            000000011879999000000000000000000000000000000000000000000000000000000000000000000000000000000000000000000000000000000000PES00010000001000000000000000000000000
2020090100600014000000000000000040510000000000000000405180000000027-21799822-6CASTRO MARIA ROSA             000000005124915000000000000000000000000000000000000000000000000000000000000000000000000000000000000000000000000000000000PES00010000001000000000000000000000000
2020090100600014000000000000000040520000000000000000405280000000020-11707737-4SALAZAR JUAN JOSE             000000002507310000000000000000000000000000000000000000000000000000000000000000000000000000000000000000000000000000000000PES00010000001000000000000000000000000
2020090100600014000000000000000040530000000000000000405380000000020-21746057-4SECO FLAVIO DANIEL            000000000699409000000000000000000000000000000000000000000000000000000000000000000000000000000000000000000000000000000000PES00010000001000000000000000000000000
2020090100600014000000000000000040540000000000000000405480000000020-21746057-4SECO FLAVIO DANIEL            000000000699069000000000000000000000000000000000000000000000000000000000000000000000000000000000000000000000000000000000PES00010000001000000000000000000000000
2020090100300014000000000000000023320000000000000000233280000000027-06558559-1SINGH AIDA DEL VALLE          000000000581866000000000000000000000000000000000000000000000000000000000000000000000000000000000000000000000000000000000PES00010000001000000000000000000000000
2020090100300014000000000000000023330000000000000000233380000000020-07007717-6GHIGGIA JOSE ALFREDO          000000000596380000000000000000000000000000000000000000000000000000000000000000000000000000000000000000000000000000000000PES00010000001000000000000000000000000
2020090100300014000000000000000023340000000000000000233480000000020-07007717-6GHIGGIA JOSE ALFREDO          000000000501752000000000000000000000000000000000000000000000000000000000000000000000000000000000000000000000000000000000PES00010000001000000000000000000000000
2020090100300014000000000000000023350000000000000000233580000000020-32687407-9DIP DANTE GUSTAVO EXEQUIEL    000000000298697000000000000000000000000000000000000000000000000000000000000000000000000000000000000000000000000000000000PES00010000001000000000000000000000000
2020090100300014000000000000000023360000000000000000233680000000023-11909666-9VILLAFANE LUIS ANTONIO       L000000000227935000000000000000000000000000000000000000000000000000000000000000000000000000000000000000000000000000000000PES00010000001000000000000000000000000
2020090100800014000000000000000006990000000000000000069980000000020-38490497-2ROMANO LEAL JAVIER ALFREDO    000000000322626000000000000000000000000000000000000000000000000000000000000000000000000000000000000000000000000000000000PES00010000001000000000000000000000000
2020090200100011000000000000000110000000000000000001100080000000030-70954945-2AGRICOLA MARES SA             000000016694997000000000000000000000000000000000000000000000000000000000000000000000000000000000000000000000000003148500PES00010000001000000000000000000000000
2020090200100011000000000000000110010000000000000001100180000000030-70795392-2FIDUAGRO SRL                  000000058600002000000000000000000000000000000000000000000000000000000000000000000000000000000000000000000000000010495000PES00010000001000000000000000000000000
2020090200100011000000000000000110020000000000000001100280000000030-62091992-2RF y J BUDEGUER SRL           000000008617499000000000000000000000000000000000000000000000000000000000000000000000000000000000000000000000000001574250PES00010000001000000000000000000000000
2020090200100011000000000000000110030000000000000001100380000000030-62091992-2RF y J BUDEGUER SRL           000000028725003000000000000000000000000000000000000000000000000000000000000000000000000000000000000000000000000005247500PES00010000001000000000000000000000000
2020090200100011000000000000000110040000000000000001100480000000030-64626839-3WALCONS SRL                   000000112599993000000000000000000000000000000000000000000000000000000000000000000000000000000000000000000000000020990000PES00010000001000000000000000000000000
2020090200100011000000000000000110050000000000000001100580000000030-62600961-8EXPRESO RIVADAVIA SRL         000000013201737000000000000000000000000000000000000000000000000000000000000000000000000000000000000000000000000002537586PES00010000001000000000000000000000000
2020090200100011000000000000000110060000000000000001100680000000020-07007717-6GHIGGIA JOSE ALFREDO          000000091817200000000000000000000000000000000000000000000000000000000000000000000000000000000000000000000000000018181538PES00010000001000000000000000000000000
2020090200100011000000000000000110070000000000000001100780000000030-71405735-5ZAFIROS DEL NOA SA            000000005700002000000000000000000000000000000000000000000000000000000000000000000000000000000000000000000000000001049500PES00010000001000000000000000000000000
2020090200100014000000000000000150250000000000000001502580000000020-31854291-1VARGAS RUBEN ALBERTO          000000009513619000000000000000000000000000000000000000000000000000000000000000000000000000000000000000000000000000000000PES00010000001000000000000000000000000
2020090200100014000000000000000150260000000000000001502680000000023-11103391-9CHIVILISCO HECTOR SALVADOR    000000000994718000000000000000000000000000000000000000000000000000000000000000000000000000000000000000000000000000000000PES00010000001000000000000000000000000
2020090200100014000000000000000150270000000000000001502780000000030-71580161-9TRANSPORTE SAN LUCAS SRL      000000003752821000000000000000000000000000000000000000000000000000000000000000000000000000000000000000000000000000000000PES00010000001000000000000000000000000
2020090200100014000000000000000150280000000000000001502880000000020-32687407-9DIP DANTE GUSTAVO EXEQUIEL    000000005921302000000000000000000000000000000000000000000000000000000000000000000000000000000000000000000000000000000000PES00010000001000000000000000000000000
2020090200100014000000000000000150290000000000000001502980000000030-70733820-9SERVICIOS Y AVENTURAS SRL     000000002665492000000000000000000000000000000000000000000000000000000000000000000000000000000000000000000000000000000000PES00010000001000000000000000000000000
2020090200100014000000000000000150300000000000000001503080000000030-70836523-4GARRO SRL                     000000002398940000000000000000000000000000000000000000000000000000000000000000000000000000000000000000000000000000000000PES00010000001000000000000000000000000
2020090200100014000000000000000150310000000000000001503180000000020-31854291-1VARGAS RUBEN ALBERTO          000000000903472000000000000000000000000000000000000000000000000000000000000000000000000000000000000000000000000000000000PES00010000001000000000000000000000000
2020090200100014000000000000000150320000000000000001503280000000020-93861950-7MEDICI PEDRO FERRUCCIO        000000000338016000000000000000000000000000000000000000000000000000000000000000000000000000000000000000000000000000000000PES00010000001000000000000000000000000
2020090200100051000000000000000002370000000000000000023780000000030-70858734-2QUILLEN BERRIES S.A           000000001647478000000000000000000000000000000000000000000000000000000000000000000000000000000000000000000000000000000000PES00010000001000000000000000000000000
2020090200100052000000000000000002910000000000000000029180000000030-70858734-2QUILLEN BERRIES S.A           000000004450080000000000000000000000000000000000000000000000000000000000000000000000000000000000000000000000000000000000PES00010000001000000000000000000000000
2020090200100052000000000000000002920000000000000000029280000000030-70858734-2QUILLEN BERRIES S.A           000000004063916000000000000000000000000000000000000000000000000000000000000000000000000000000000000000000000000000000000PES00010000001000000000000000000000000
2020090200300014000000000000000023370000000000000000233780000000030-52340824-7CERAMICA MARCOS PAZ SRL       000000000544022000000000000000000000000000000000000000000000000000000000000000000000000000000000000000000000000000000000PES00010000001000000000000000000000000
2020090200300014000000000000000023380000000000000000233880000000023-12433014-9ACEVEDO MARIO RAMON           000000004569680000000000000000000000000000000000000000000000000000000000000000000000000000000000000000000000000000000000PES00010000001000000000000000000000000
2020090200300052000000000000000000290000000000000000002980000000030-70858734-2QUILLEN BERRIES S.A           000000004450080000000000000000000000000000000000000000000000000000000000000000000000000000000000000000000000000000000000PES00010000001000000000000000000000000
2020090300100011000000000000000110080000000000000001100880000000020-29997311-6VITRIU NICOLAS                000000011490000000000000000000000000000000000000000000000000000000000000000000000000000000000000000000000000000002099000PES00010000001000000000000000000000000
2020090300100011000000000000000110090000000000000001100980000000030-71138418-5RIO BLANCO DEL TONTON SRL     000000006214998000000000000000000000000000000000000000000000000000000000000000000000000000000000000000000000000001154450PES00010000001000000000000000000000000
2020090300100011000000000000000110100000000000000001101080000000030-70746504-9LAPACHO AMARILLO SRL          000000011260002000000000000000000000000000000000000000000000000000000000000000000000000000000000000000000000000002099000PES00010000001000000000000000000000000
2020090300100011000000000000000110110000000000000001101180000000030-70746504-9LAPACHO AMARILLO SRL          000000022519999000000000000000000000000000000000000000000000000000000000000000000000000000000000000000000000000004198000PES00010000001000000000000000000000000
2020090300100011000000000000000110120000000000000001101280000000030-70962825-5PACTA SRL                     000000016889998000000000000000000000000000000000000000000000000000000000000000000000000000000000000000000000000003148500PES00010000001000000000000000000000000
2020090300100011000000000000000110130000000000000001101380000000030-71526151-7SERCOU SRL                    000000016889998000000000000000000000000000000000000000000000000000000000000000000000000000000000000000000000000003148500PES00010000001000000000000000000000000
2020090300100011000000000000000110140000000000000001101480000000020-22969386-8ROTTA MANUEL JUAN             000000016889998000000000000000000000000000000000000000000000000000000000000000000000000000000000000000000000000003148500PES00010000001000000000000000000000000
2020090300100011000000000000000110150000000000000001101580000000030-62600961-8EXPRESO RIVADAVIA SRL         000000029435953000000000000000000000000000000000000000000000000000000000000000000000000000000000000000000000000005658064PES00010000001000000000000000000000000
2020090300100014000000000000000150330000000000000001503380000000023-11909666-9VILLAFANE LUIS ANTONIO       L000000002376002000000000000000000000000000000000000000000000000000000000000000000000000000000000000000000000000000000000PES00010000001000000000000000000000000
2020090300100014000000000000000150340000000000000001503480000000027-17040898-0MARTINEZ ZUCCARDI ARIADNA I   000000000299763000000000000000000000000000000000000000000000000000000000000000000000000000000000000000000000000000000000PES00010000001000000000000000000000000
2020090300100014000000000000000150350000000000000001503580000000030-70970239-0YABITEL SA                    000000015201236000000000000000000000000000000000000000000000000000000000000000000000000000000000000000000000000000000000PES00010000001000000000000000000000000
2020090300100014000000000000000150360000000000000001503680000000030-69717604-3PERFORACIONES Y SERVICIOS SRL 000000000701247000000000000000000000000000000000000000000000000000000000000000000000000000000000000000000000000000000000PES00010000001000000000000000000000000
2020090300100014000000000000000150370000000000000001503780000000020-26385098-0CHAYA SEBASTIAN ENRIQUE       000000004310441000000000000000000000000000000000000000000000000000000000000000000000000000000000000000000000000000000000PES00010000001000000000000000000000000
2020090300100014000000000000000150380000000000000001503880000000030-71163071-2MUMONT SRL                    000000001348170000000000000000000000000000000000000000000000000000000000000000000000000000000000000000000000000000000000PES00010000001000000000000000000000000
2020090300100014000000000000000150390000000000000001503980000000030-50454932-8INGECO SA                     000000000891292000000000000000000000000000000000000000000000000000000000000000000000000000000000000000000000000000000000PES00010000001000000000000000000000000
2020090300100014000000000000000150400000000000000001504080000000020-25922845-0FONTDEVILA CARLOS JOSE        000000000575897000000000000000000000000000000000000000000000000000000000000000000000000000000000000000000000000000000000PES00010000001000000000000000000000000
2020090300100014000000000000000150410000000000000001504180000000030-50507957-0V.H.A SA                      000000004762168000000000000000000000000000000000000000000000000000000000000000000000000000000000000000000000000000000000PES00010000001000000000000000000000000
2020090300100014000000000000000150420000000000000001504280000000030-71476431-0ARIAS DANTE,VICTOR Y WILLIAM S000000002936924000000000000000000000000000000000000000000000000000000000000000000000000000000000000000000000000000000000PES00010000001000000000000000000000000
2020090300100014000000000000000150430000000000000001504380000000030-71504937-2LA 40 SOLUCIONES MECANICAS SRL000000001697912000000000000000000000000000000000000000000000000000000000000000000000000000000000000000000000000000000000PES00010000001000000000000000000000000
2020090300100051000000000000000002380000000000000000023880000000030-67525065-7LOS CORONILLOS SRL            000000046489110000000000000000000000000000000000000000000000000000000000000000000000000000000000000000000000000000000000PES00010000001000000000000000000000000
2020090300100052000000000000000002930000000000000000029380000000030-71527473-2COOP PROV DE SERV AGROP DONA J000000117476970000000000000000000000000000000000000000000000000000000000000000000000000000000000000000000000000000000000PES00010000001000000000000000000000000
2020090300600014000000000000000040550000000000000000405580000000020-23302913-1VALLEJO ADRIAN                000000002665492000000000000000000000000000000000000000000000000000000000000000000000000000000000000000000000000000000000PES00010000001000000000000000000000000
2020090300600014000000000000000040560000000000000000405680000000020-31030046-3DIP MATIAS RUBEN EMILIO       000000000634126000000000000000000000000000000000000000000000000000000000000000000000000000000000000000000000000000000000PES00010000001000000000000000000000000
2020090300300015000000000000000001270000000000000000012780000000030-54668997-9YPF SA                        000000001724600000000000000000000000000000000000000000000000000000000000000000000000000000000000000000000000000000000000PES00010000001000000000000000000000000
2020090300200011000000000000000002170000000000000000021780000000033-69722563-9ARGENTI LEMON SA              000000087164652000000000000000000000000000000000000000000000000000000000000000000000000000000000000000000000000000000000PES00010000001000000000000000000000000
2020090300200011000000000000000002180000000000000000021880000000030-71527473-2COOP PROV DE SERV AGROP DONA J000000000629997000000000000000000000000000000000000000000000000000000000000000000000000000000000000000000000000000000000PES00010000001000000000000000000000000
2020090300200011000000000000000002190000000000000000021980000000030-71527473-2COOP PROV DE SERV AGROP DONA J000000000979998000000000000000000000000000000000000000000000000000000000000000000000000000000000000000000000000000000000PES00010000001000000000000000000000000
2020090400100011000000000000000110160000000000000001101680000000020-06085260-0ACUNA JOSE DOMINGO            000000005630001000000000000000000000000000000000000000000000000000000000000000000000000000000000000000000000000001049500PES00010000001000000000000000000000000
2020090400100011000000000000000110170000000000000001101780000000030-71457586-0SYNBUILD SA                   000000002834997000000000000000000000000000000000000000000000000000000000000000000000000000000000000000000000000000524750PES00010000001000000000000000000000000
2020090400100011000000000000000110180000000000000001101880000000030-62600961-8EXPRESO RIVADAVIA SRL         000000019075602000000000000000000000000000000000000000000000000000000000000000000000000000000000000000000000000003666638PES00010000001000000000000000000000000
2020090400100011000000000000000110190000000000000001101980000000030-71038312-6TM ROLDAN SRL                 000000008817001000000000000000000000000000000000000000000000000000000000000000000000000000000000000000000000000001511280PES00010000001000000000000000000000000
2020090400100011000000000000000110200000000000000001102080000000030-62091992-2RF y J BUDEGUER SRL           000000005745003000000000000000000000000000000000000000000000000000000000000000000000000000000000000000000000000001049500PES00010000001000000000000000000000000
2020090400100011000000000000000110210000000000000001102180000000030-62091992-2RF y J BUDEGUER SRL           000000057450006000000000000000000000000000000000000000000000000000000000000000000000000000000000000000000000000010495000PES00010000001000000000000000000000000
2020090400100011000000000000000110220000000000000001102280000000020-18505900-7VITAR MANUEL FERNANDO         000000008617499000000000000000000000000000000000000000000000000000000000000000000000000000000000000000000000000001574250PES00010000001000000000000000000000000
2020090400100014000000000000000150440000000000000001504480000000023-07091924-9HERRERA JORGE ARMANDO         000000003321559000000000000000000000000000000000000000000000000000000000000000000000000000000000000000000000000000000000PES00010000001000000000000000000000000
2020090400100014000000000000000150450000000000000001504580000000030-71509855-1SUCROALCOHOLERA DEL SUR SA    000000002675713000000000000000000000000000000000000000000000000000000000000000000000000000000000000000000000000000000000PES00010000001000000000000000000000000
2020090400100014000000000000000150460000000000000001504680000000030-71509855-1SUCROALCOHOLERA DEL SUR SA    000000008810765000000000000000000000000000000000000000000000000000000000000000000000000000000000000000000000000000000000PES00010000001000000000000000000000000
2020090400100014000000000000000150470000000000000001504780000000030-71509855-1SUCROALCOHOLERA DEL SUR SA    000000032955099000000000000000000000000000000000000000000000000000000000000000000000000000000000000000000000000000000000PES00010000001000000000000000000000000
2020090400100014000000000000000150480000000000000001504880000000030-58933613-1LOS CINCO SA                  000000006010514000000000000000000000000000000000000000000000000000000000000000000000000000000000000000000000000000000000PES00010000001000000000000000000000000
2020090400100014000000000000000150490000000000000001504980000000020-11620841-6INIGO JUAN                    000000004007307000000000000000000000000000000000000000000000000000000000000000000000000000000000000000000000000000000000PES00010000001000000000000000000000000
2020090400100014000000000000000150500000000000000001505080000000027-30598112-0CANGEMI IVANNA MARCELA        000000004357279000000000000000000000000000000000000000000000000000000000000000000000000000000000000000000000000000000000PES00010000001000000000000000000000000
2020090400100014000000000000000150510000000000000001505180000000027-28496442-5RACEDO ROSANA ESTER           000000008229769000000000000000000000000000000000000000000000000000000000000000000000000000000000000000000000000000000000PES00010000001000000000000000000000000
2020090400100014000000000000000150520000000000000001505280000000027-28496442-5RACEDO ROSANA ESTER           000000003429808000000000000000000000000000000000000000000000000000000000000000000000000000000000000000000000000000000000PES00010000001000000000000000000000000
2020090400100014000000000000000150530000000000000001505380000000027-28496442-5RACEDO ROSANA ESTER           000000001875598000000000000000000000000000000000000000000000000000000000000000000000000000000000000000000000000000000000PES00010000001000000000000000000000000
2020090400100014000000000000000150540000000000000001505480000000027-28496442-5RACEDO ROSANA ESTER           000000000955116000000000000000000000000000000000000000000000000000000000000000000000000000000000000000000000000000000000PES00010000001000000000000000000000000
2020090400100014000000000000000150550000000000000001505580000000020-08518298-7VALLEJO JUAN GUILLERMO        000000002657321000000000000000000000000000000000000000000000000000000000000000000000000000000000000000000000000000000000PES00010000001000000000000000000000000
2020090400100014000000000000000150560000000000000001505680000000023-14225082-9RODRIGUEZ CARLOS DANIEL       000000038460000000000000000000000000000000000000000000000000000000000000000000000000000000000000000000000000000000000000PES00010000001000000000000000000000000
2020090400100014000000000000000150570000000000000001505780000000020-11919321-5BOIX MATEO                    000000011131556000000000000000000000000000000000000000000000000000000000000000000000000000000000000000000000000000000000PES00010000001000000000000000000000000
2020090400100014000000000000000150580000000000000001505880000000020-11919321-5BOIX MATEO                    000000005386672000000000000000000000000000000000000000000000000000000000000000000000000000000000000000000000000000000000PES00010000001000000000000000000000000
2020090400100014000000000000000150590000000000000001505980000000020-11919321-5BOIX MATEO                    000000005626938000000000000000000000000000000000000000000000000000000000000000000000000000000000000000000000000000000000PES00010000001000000000000000000000000
2020090400100014000000000000000150600000000000000001506080000000030-71404014-2RODOLFO DANTE GOMEZ E HIJOS SR000000003345022000000000000000000000000000000000000000000000000000000000000000000000000000000000000000000000000000000000PES00010000001000000000000000000000000
2020090400100014000000000000000150610000000000000001506180000000020-37728037-8SZMYD JESUS EMMANUEL          000000000629765000000000000000000000000000000000000000000000000000000000000000000000000000000000000000000000000000000000PES00010000001000000000000000000000000
2020090400100014000000000000000150620000000000000001506280000000030-70733820-9SERVICIOS Y AVENTURAS SRL     000000000964209000000000000000000000000000000000000000000000000000000000000000000000000000000000000000000000000000000000PES00010000001000000000000000000000000
2020090400100014000000000000000150630000000000000001506380000000030-70240214-6PREMOL SRL                    000000003631417000000000000000000000000000000000000000000000000000000000000000000000000000000000000000000000000000000000PES00010000001000000000000000000000000
2020090400100014000000000000000150640000000000000001506480000000030-71555337-2VICTORIA ESTACION DE SERVICIOS000000006454739000000000000000000000000000000000000000000000000000000000000000000000000000000000000000000000000000000000PES00010000001000000000000000000000000
2020090400100014000000000000000150650000000000000001506580000000030-52340824-7CERAMICA MARCOS PAZ SRL       000000004073730000000000000000000000000000000000000000000000000000000000000000000000000000000000000000000000000000000000PES00010000001000000000000000000000000
2020090400100014000000000000000150660000000000000001506680000000030-68565532-9PRODUCCION SA                 000000003876160000000000000000000000000000000000000000000000000000000000000000000000000000000000000000000000000000000000PES00010000001000000000000000000000000
2020090400100014000000000000000150670000000000000001506780000000030-68565532-9PRODUCCION SA                 000000003876160000000000000000000000000000000000000000000000000000000000000000000000000000000000000000000000000000000000PES00010000001000000000000000000000000
2020090400100016000000000000000007840000000000000000078480000000020-11919321-5BOIX MATEO                    000000002939165000000000000000000000000000000000000000000000000000000000000000000000000000000000000000000000000000000000PES00010000001000000000000000000000000
2020090400100052000000000000000002940000000000000000029480000000023-29135039-9SILVA SERGIO EDUARDO          000002897193975000000000000000000000000000000000000000000000000000000000000000000000000000000000000000000000000000000000PES00010000001000000000000000000000000
2020090400600014000000000000000040570000000000000000405780000000020-12733415-4QUIROGA JUAN CARLOS           000000009818799000000000000000000000000000000000000000000000000000000000000000000000000000000000000000000000000000000000PES00010000001000000000000000000000000
2020090400600014000000000000000040580000000000000000405880000000020-31030046-3DIP MATIAS RUBEN EMILIO       000000000570717000000000000000000000000000000000000000000000000000000000000000000000000000000000000000000000000000000000PES00010000001000000000000000000000000
2020090400300015000000000000000001280000000000000000012880000000030-54668997-9YPF SA                        000000003367072000000000000000000000000000000000000000000000000000000000000000000000000000000000000000000000000000000000PES00010000001000000000000000000000000
2020090400300015000000000000000001290000000000000000012980000000030-54668997-9YPF SA                        000000098839745000000000000000000000000000000000000000000000000000000000000000000000000000000000000000000000000000000000PES00010000001000000000000000000000000
2020090400300015000000000000000001300000000000000000013080000000030-54668997-9YPF SA                        000007815721965000000000000000000000000000000000000000000000000000000000000000000000000000000000000000000000000000000000PES00010000001000000000000000000000000
2020090400300015000000000000000001310000000000000000013180000000030-54668997-9YPF SA                        000002385561853000000000000000000000000000000000000000000000000000000000000000000000000000000000000000000000000000000000PES00010000001000000000000000000000000
2020090400300014000000000000000023390000000000000000233980000000027-28496442-5RACEDO ROSANA ESTER           000000003429808000000000000000000000000000000000000000000000000000000000000000000000000000000000000000000000000000000000PES00010000001000000000000000000000000
2020090400300014000000000000000023400000000000000000234080000000030-70240214-6PREMOL SRL                    000000003631417000000000000000000000000000000000000000000000000000000000000000000000000000000000000000000000000000000000PES00010000001000000000000000000000000
2020090400300014000000000000000023410000000000000000234180000000030-68565532-9PRODUCCION SA                 000000003876160000000000000000000000000000000000000000000000000000000000000000000000000000000000000000000000000000000000PES00010000001000000000000000000000000
2020090500100011000000000000000110230000000000000001102380000000030-62600961-8EXPRESO RIVADAVIA SRL         000000021784856000000000000000000000000000000000000000000000000000000000000000000000000000000000000000000000000004187400PES00010000001000000000000000000000000
2020090500100014000000000000000150680000000000000001506880000000030-70872456-0LA ASTURIANA S.R.L            000000000699069000000000000000000000000000000000000000000000000000000000000000000000000000000000000000000000000000000000PES00010000001000000000000000000000000
2020090500100014000000000000000150690000000000000001506980000000030-70872456-0LA ASTURIANA S.R.L            000000006588675000000000000000000000000000000000000000000000000000000000000000000000000000000000000000000000000000000000PES00010000001000000000000000000000000
2020090500100014000000000000000150700000000000000001507080000000030-68567422-6BLAZQUEZ SRL                  000000000853223000000000000000000000000000000000000000000000000000000000000000000000000000000000000000000000000000000000PES00010000001000000000000000000000000
2020090500100014000000000000000150710000000000000001507180000000020-11074762-5PEREZ JUAN LUIS               000000007750741000000000000000000000000000000000000000000000000000000000000000000000000000000000000000000000000000000000PES00010000001000000000000000000000000
2020090500100014000000000000000150720000000000000001507280000000030-52340824-7CERAMICA MARCOS PAZ SRL       000000002665492000000000000000000000000000000000000000000000000000000000000000000000000000000000000000000000000000000000PES00010000001000000000000000000000000
2020090500100014000000000000000150730000000000000001507380000000020-33265991-0MANAVELA ALEJANDRO SEBASTIAN  000000000352467000000000000000000000000000000000000000000000000000000000000000000000000000000000000000000000000000000000PES00010000001000000000000000000000000
2020090500100200000000000000000000640000000000000000006480000000030-51548847-9YPF GAS SA                    000000055353853000000000000000000000000000000000000000000000000000000000000000000000000000000000000000000000000000000000PES00010000001000000000000000000000000
2020090500600014000000000000000040590000000000000000405980000000020-24661172-7LOI ERNESTO                   000000000395998000000000000000000000000000000000000000000000000000000000000000000000000000000000000000000000000000000000PES00010000001000000000000000000000000
2020090700100011000000000000000110240000000000000001102480000000020-34226808-1CANO ARON JOSE VICTOR (ST)    000000022259998000000000000000000000000000000000000000000000000000000000000000000000000000000000000000000000000004198000PES00010000001000000000000000000000000
2020090700100011000000000000000110250000000000000001102580000000020-34226808-1CANO ARON JOSE VICTOR (ST)    000000011130002000000000000000000000000000000000000000000000000000000000000000000000000000000000000000000000000002099000PES00010000001000000000000000000000000
2020090700100011000000000000000110260000000000000001102680000000030-70976790-5COOP AGROPECUARIA LOS BARRIENT000000011130002000000000000000000000000000000000000000000000000000000000000000000000000000000000000000000000000002099000PES00010000001000000000000000000000000
2020090700100011000000000000000110270000000000000001102780000000030-71492201-3DON BETO SRL (ST)             000000027824999000000000000000000000000000000000000000000000000000000000000000000000000000000000000000000000000005247500PES00010000001000000000000000000000000
2020090700100011000000000000000110280000000000000001102880000000023-20898630-9GUTIERREZ JORGE LUIS (ST)     000000011130002000000000000000000000000000000000000000000000000000000000000000000000000000000000000000000000000002099000PES00010000001000000000000000000000000
2020090700100011000000000000000110290000000000000001102980000000030-71681985-6INDUSTRIAS SANTA BARBARA SRL E000000010016998000000000000000000000000000000000000000000000000000000000000000000000000000000000000000000000000001889100PES00010000001000000000000000000000000
2020090700100011000000000000000110300000000000000001103080000000020-17337860-3JUAREZ ANTONIO ARMANDO (ST)   000000016694997000000000000000000000000000000000000000000000000000000000000000000000000000000000000000000000000003148500PES00010000001000000000000000000000000
2020090700100011000000000000000110310000000000000001103180000000020-39974493-9MIRANDA ARIEL MATIAS (ST)     000000016694997000000000000000000000000000000000000000000000000000000000000000000000000000000000000000000000000003148500PES00010000001000000000000000000000000
2020090700100011000000000000000110320000000000000001103280000000030-71001068-0ZAPULLA JOSE E Y G SALVADOR SH000000022259998000000000000000000000000000000000000000000000000000000000000000000000000000000000000000000000000004198000PES00010000001000000000000000000000000
2020090700100011000000000000000110330000000000000001103380000000030-71001068-0ZAPULLA JOSE E Y G SALVADOR SH000000027824999000000000000000000000000000000000000000000000000000000000000000000000000000000000000000000000000005247500PES00010000001000000000000000000000000
2020090700100011000000000000000110340000000000000001103480000000030-70872456-0LA ASTURIANA S.R.L            000000016889998000000000000000000000000000000000000000000000000000000000000000000000000000000000000000000000000003148500PES00010000001000000000000000000000000
2020090700100011000000000000000110350000000000000001103580000000020-08099481-9BRAVO ZAVALETA ARMANDO MANUEL 000000017580003000000000000000000000000000000000000000000000000000000000000000000000000000000000000000000000000003148500PES00010000001000000000000000000000000
2020090700100011000000000000000110360000000000000001103680000000030-70240931-0LA BAJADA SA                  000000015899999000000000000000000000000000000000000000000000000000000000000000000000000000000000000000000000000003148500PES00010000001000000000000000000000000
2020090700100011000000000000000110370000000000000001103780000000020-25446794-5CONTRERAS RICARDO ALEJANDRO   000000031799997000000000000000000000000000000000000000000000000000000000000000000000000000000000000000000000000006297000PES00010000001000000000000000000000000
2020090700100011000000000000000110380000000000000001103880000000030-62600961-8EXPRESO RIVADAVIA SRL         000000023853649000000000000000000000000000000000000000000000000000000000000000000000000000000000000000000000000004585056PES00010000001000000000000000000000000
2020090700100011000000000000000110390000000000000001103980000000030-70891326-6TRANSPORTE HACHA DE PIEDRA SRL000000059450763000000000000000000000000000000000000000000000000000000000000000000000000000000000000000000000000011554365PES00010000001000000000000000000000000
2020090700100014000000000000000150740000000000000001507480000000020-20285003-1GALVEZ JOSE ANTONIO           000000000396552000000000000000000000000000000000000000000000000000000000000000000000000000000000000000000000000000000000PES00010000001000000000000000000000000
2020090700100014000000000000000150750000000000000001507580000000030-71439153-0AFISA SRL (ST)                000000005687000000000000000000000000000000000000000000000000000000000000000000000000000000000000000000000000000000000000PES00010000001000000000000000000000000
2020090700100014000000000000000150760000000000000001507680000000023-07091924-9HERRERA JORGE ARMANDO         000000005321822000000000000000000000000000000000000000000000000000000000000000000000000000000000000000000000000000000000PES00010000001000000000000000000000000
2020090700100014000000000000000150770000000000000001507780000000030-71509855-1SUCROALCOHOLERA DEL SUR SA    000000003084008000000000000000000000000000000000000000000000000000000000000000000000000000000000000000000000000000000000PES00010000001000000000000000000000000
2020090700100014000000000000000150780000000000000001507880000000027-32829221-7CARRIZO NOELIA DEL VALLE      000000002018758000000000000000000000000000000000000000000000000000000000000000000000000000000000000000000000000000000000PES00010000001000000000000000000000000
2020090700100014000000000000000150790000000000000001507980000000020-22877315-9CARRIZO GARUTI MAURICIO ADRIAN000000001889409000000000000000000000000000000000000000000000000000000000000000000000000000000000000000000000000000000000PES00010000001000000000000000000000000
2020090700100014000000000000000150800000000000000001508080000000020-16059998-8DIAZ JOSE LUIS                000000003294340000000000000000000000000000000000000000000000000000000000000000000000000000000000000000000000000000000000PES00010000001000000000000000000000000
2020090700100014000000000000000150810000000000000001508180000000030-71227254-2OLGA ZOTTOLA DE SIMONETO E HIJ000000001628729000000000000000000000000000000000000000000000000000000000000000000000000000000000000000000000000000000000PES00010000001000000000000000000000000
2020090700100014000000000000000150820000000000000001508280000000030-71227254-2OLGA ZOTTOLA DE SIMONETO E HIJ000000000376725000000000000000000000000000000000000000000000000000000000000000000000000000000000000000000000000000000000PES00010000001000000000000000000000000
2020090700100052000000000000000002950000000000000000029580000000020-18609897-9RUIZ TORRES LUIS FERNANDO     000000100750038000000000000000000000000000000000000000000000000000000000000000000000000000000000000000000000000000000000PES00010000001000000000000000000000000
2020090700600011000000000000000002290000000000000000022980000000020-17926517-7GUTIERREZ JUAN MANUEL (ST)    000000013912497000000000000000000000000000000000000000000000000000000000000000000000000000000000000000000000000002623750PES00010000001000000000000000000000000
2020090700600014000000000000000040600000000000000000406080000000030-65613500-6MUNICIPALIDAD DE SIMOCA       000000006639362000000000000000000000000000000000000000000000000000000000000000000000000000000000000000000000000000000000PES00010000001000000000000000000000000
2020090700600014000000000000000040610000000000000000406180000000027-23020425-5PAZ SILVIA PATRICIA           000000000623720000000000000000000000000000000000000000000000000000000000000000000000000000000000000000000000000000000000PES00010000001000000000000000000000000
2020090700300014000000000000000023420000000000000000234280000000030-65294510-0DE CARLO AMERICO JULIO Y OTROS000000000508690000000000000000000000000000000000000000000000000000000000000000000000000000000000000000000000000000000000PES00010000001000000000000000000000000
2020090700300014000000000000000023430000000000000000234380000000030-70940127-7TRANSPORTE ANAN SRL           000000000183695000000000000000000000000000000000000000000000000000000000000000000000000000000000000000000000000000000000PES00010000001000000000000000000000000
2020090800100011000000000000000110400000000000000001104080000000030-71624627-9JULIANY SAS                   000000018749996000000000000000000000000000000000000000000000000000000000000000000000000000000000000000000000000002833650PES00010000001000000000000000000000000
2020090800100011000000000000000110410000000000000001104180000000030-62091992-2RF y J BUDEGUER SRL           000000028725003000000000000000000000000000000000000000000000000000000000000000000000000000000000000000000000000005247500PES00010000001000000000000000000000000
2020090800100011000000000000000110420000000000000001104280000000020-29685853-7VIEYRA JORGE LINO             000000008617499000000000000000000000000000000000000000000000000000000000000000000000000000000000000000000000000001574250PES00010000001000000000000000000000000
2020090800100011000000000000000110430000000000000001104380000000030-71351630-5AGROPECUARIA LAGUNA BLANCA SRL000000011490000000000000000000000000000000000000000000000000000000000000000000000000000000000000000000000000000002099000PES00010000001000000000000000000000000
2020090800100011000000000000000110440000000000000001104480000000030-71526151-7SERCOU SRL                    000000016889998000000000000000000000000000000000000000000000000000000000000000000000000000000000000000000000000003148500PES00010000001000000000000000000000000
2020090800100011000000000000000110450000000000000001104580000000030-62600961-8EXPRESO RIVADAVIA SRL         000000015553902000000000000000000000000000000000000000000000000000000000000000000000000000000000000000000000000002989711PES00010000001000000000000000000000000
2020090800100014000000000000000150830000000000000001508380000000027-24007148-2VILLAVICENCIO MARIA DE LOS ANG000000003973594000000000000000000000000000000000000000000000000000000000000000000000000000000000000000000000000000000000PES00010000001000000000000000000000000
2020090800100014000000000000000150840000000000000001508480000000027-28496442-5RACEDO ROSANA ESTER           000000002790669000000000000000000000000000000000000000000000000000000000000000000000000000000000000000000000000000000000PES00010000001000000000000000000000000
2020090800100014000000000000000150850000000000000001508580000000027-28496442-5RACEDO ROSANA ESTER           000000002943452000000000000000000000000000000000000000000000000000000000000000000000000000000000000000000000000000000000PES00010000001000000000000000000000000
2020090800100014000000000000000150860000000000000001508680000000020-07007717-6GHIGGIA JOSE ALFREDO          000000001594423000000000000000000000000000000000000000000000000000000000000000000000000000000000000000000000000000000000PES00010000001000000000000000000000000
2020090800100014000000000000000150870000000000000001508780000000027-30498109-7GOMEZ JESSICA NOELIA          000000004745695000000000000000000000000000000000000000000000000000000000000000000000000000000000000000000000000000000000PES00010000001000000000000000000000000
2020090800100014000000000000000150880000000000000001508880000000020-13563240-7ARGANARAZ PEDRO RENE       RI 000000004745695000000000000000000000000000000000000000000000000000000000000000000000000000000000000000000000000000000000PES00010000001000000000000000000000000
2020090800100014000000000000000150890000000000000001508980000000030-63922709-6INTRA S.R.L.                  000000000394552000000000000000000000000000000000000000000000000000000000000000000000000000000000000000000000000000000000PES00010000001000000000000000000000000
2020090800100014000000000000000150900000000000000001509080000000030-70772880-5PROYECTOS METALURGICOS S.A.   000000002798770000000000000000000000000000000000000000000000000000000000000000000000000000000000000000000000000000000000PES00010000001000000000000000000000000
2020090800100014000000000000000150910000000000000001509180000000020-14661822-8ZEITUNE LEON MARCELO          000000002790191000000000000000000000000000000000000000000000000000000000000000000000000000000000000000000000000000000000PES00010000001000000000000000000000000
2020090800100051000000000000000002390000000000000000023980000000020-16060000-5QUESADA JUAN CARLOS           000000017802154000000000000000000000000000000000000000000000000000000000000000000000000000000000000000000000000000000000PES00010000001000000000000000000000000
2020090800100052000000000000000002960000000000000000029680000000027-17040898-0MARTINEZ ZUCCARDI ARIADNA I   000000002038483000000000000000000000000000000000000000000000000000000000000000000000000000000000000000000000000000000000PES00010000001000000000000000000000000
2020090800600014000000000000000040620000000000000000406280000000020-31030046-3DIP MATIAS RUBEN EMILIO       000000000942342000000000000000000000000000000000000000000000000000000000000000000000000000000000000000000000000000000000PES00010000001000000000000000000000000
2020090800300015000000000000000001320000000000000000013280000000030-54668997-9YPF SA                        000000085581555000000000000000000000000000000000000000000000000000000000000000000000000000000000000000000000000000000000PES00010000001000000000000000000000000
2020090800300011000000000000000005280000000000000000052880000000033-69722563-9ARGENTI LEMON SA              000000008282617000000000000000000000000000000000000000000000000000000000000000000000000000000000000000000000000000000000PES00010000001000000000000000000000000
2020090900100011000000000000000110460000000000000001104680000000023-29135039-9SILVA SERGIO EDUARDO          000000094009997000000000000000000000000000000000000000000000000000000000000000000000000000000000000000000000000017841500PES00010000001000000000000000000000000
2020090900100011000000000000000110470000000000000001104780000000033-70881294-9FINCA SAN LORENZO SRL         000000008444999000000000000000000000000000000000000000000000000000000000000000000000000000000000000000000000000001574250PES00010000001000000000000000000000000
2020090900100011000000000000000110480000000000000001104880000000030-62091992-2RF y J BUDEGUER SRL           000000008617499000000000000000000000000000000000000000000000000000000000000000000000000000000000000000000000000001574250PES00010000001000000000000000000000000
2020090900100011000000000000000110490000000000000001104980000000030-70708958-6NYNAGRO S.R.L.                000000011260002000000000000000000000000000000000000000000000000000000000000000000000000000000000000000000000000002099000PES00010000001000000000000000000000000
2020090900100011000000000000000110500000000000000001105080000000030-70806783-7AGRICOLA DE LEALES SC         000000039325999000000000000000000000000000000000000000000000000000000000000000000000000000000000000000000000000007346500PES00010000001000000000000000000000000
2020090900100011000000000000000110510000000000000001105180000000030-62600961-8EXPRESO RIVADAVIA SRL         000000016270801000000000000000000000000000000000000000000000000000000000000000000000000000000000000000000000000003127510PES00010000001000000000000000000000000
2020090900100014000000000000000150920000000000000001509280000000033-71586145-9GRUPO MUNOZ SRL               000000003459056000000000000000000000000000000000000000000000000000000000000000000000000000000000000000000000000000000000PES00010000001000000000000000000000000
2020090900100014000000000000000150930000000000000001509380000000020-07007717-6GHIGGIA JOSE ALFREDO          000000000604689000000000000000000000000000000000000000000000000000000000000000000000000000000000000000000000000000000000PES00010000001000000000000000000000000
2020090900100014000000000000000150940000000000000001509480000000023-07091924-9HERRERA JORGE ARMANDO         000000004113314000000000000000000000000000000000000000000000000000000000000000000000000000000000000000000000000000000000PES00010000001000000000000000000000000
2020090900100014000000000000000150950000000000000001509580000000030-71164253-2CENTRO DE SERVICIOS DEL ESTE S000000005430313000000000000000000000000000000000000000000000000000000000000000000000000000000000000000000000000000000000PES00010000001000000000000000000000000
2020090900100014000000000000000150960000000000000001509680000000023-20335089-9NEMER JOSE ANGEL              000000002797641000000000000000000000000000000000000000000000000000000000000000000000000000000000000000000000000000000000PES00010000001000000000000000000000000
2020090900100014000000000000000150970000000000000001509780000000020-11475833-8CARRERA FRANCISCO EDUARDO     000000001665519000000000000000000000000000000000000000000000000000000000000000000000000000000000000000000000000000000000PES00010000001000000000000000000000000
2020090900100014000000000000000150980000000000000001509880000000030-68570002-2RODISA S.R.L                  000000002632672000000000000000000000000000000000000000000000000000000000000000000000000000000000000000000000000000000000PES00010000001000000000000000000000000
2020090900100014000000000000000150990000000000000001509980000000030-67541508-7CIA AZUCARERA LOS BALCANES SA 000000004846344000000000000000000000000000000000000000000000000000000000000000000000000000000000000000000000000000000000PES00010000001000000000000000000000000
2020090900100014000000000000000151000000000000000001510080000000030-71227254-2OLGA ZOTTOLA DE SIMONETO E HIJ000000000912248000000000000000000000000000000000000000000000000000000000000000000000000000000000000000000000000000000000PES00010000001000000000000000000000000
2020090900100014000000000000000151010000000000000001510180000000030-71227254-2OLGA ZOTTOLA DE SIMONETO E HIJ000000000791121000000000000000000000000000000000000000000000000000000000000000000000000000000000000000000000000000000000PES00010000001000000000000000000000000
2020090900100014000000000000000151020000000000000001510280000000020-25922845-0FONTDEVILA CARLOS JOSE        000000000416378000000000000000000000000000000000000000000000000000000000000000000000000000000000000000000000000000000000PES00010000001000000000000000000000000
2020090900100014000000000000000151030000000000000001510380000000030-71182488-6GREEN PACK SA                 000000003161050000000000000000000000000000000000000000000000000000000000000000000000000000000000000000000000000000000000PES00010000001000000000000000000000000
2020090900100014000000000000000151040000000000000001510480000000030-65361683-6MACOMITAS SRL                 000000451662750000000000000000000000000000000000000000000000000000000000000000000000000000000000000000000000000000000000PES00010000001000000000000000000000000
2020090900100014000000000000000151050000000000000001510580000000020-08067199-8CARRIZO JUAN GREGORIO         000000003517297000000000000000000000000000000000000000000000000000000000000000000000000000000000000000000000000000000000PES00010000001000000000000000000000000
2020090900100014000000000000000151060000000000000001510680000000020-26981910-4CUOZZO PABLO EDUARDO          000000010536824000000000000000000000000000000000000000000000000000000000000000000000000000000000000000000000000000000000PES00010000001000000000000000000000000
2020090900100014000000000000000151070000000000000001510780000000030-70944893-1ALTO EL NARANJO SA            000000012213682000000000000000000000000000000000000000000000000000000000000000000000000000000000000000000000000000000000PES00010000001000000000000000000000000
2020090900100014000000000000000151080000000000000001510880000000030-64419635-2SERV.ADMINISTRATIVOS Y AGROPEC000000002985433000000000000000000000000000000000000000000000000000000000000000000000000000000000000000000000000000000000PES00010000001000000000000000000000000
2020090900100014000000000000000151090000000000000001510980000000030-64419635-2SERV.ADMINISTRATIVOS Y AGROPEC000000003113151000000000000000000000000000000000000000000000000000000000000000000000000000000000000000000000000000000000PES00010000001000000000000000000000000
2020090900600014000000000000000040630000000000000000406380000000020-23239246-1GEREZ SERGIO GUSTAVO          000000005265350000000000000000000000000000000000000000000000000000000000000000000000000000000000000000000000000000000000PES00010000001000000000000000000000000
2020090900600014000000000000000040640000000000000000406480000000020-16298505-2NIEVA VICTOR HUGO             000000003714470000000000000000000000000000000000000000000000000000000000000000000000000000000000000000000000000000000000PES00010000001000000000000000000000000
2020090900600014000000000000000040650000000000000000406580000000020-23239246-1GEREZ SERGIO GUSTAVO          000000005265350000000000000000000000000000000000000000000000000000000000000000000000000000000000000000000000000000000000PES00010000001000000000000000000000000
2020090900600014000000000000000040660000000000000000406680000000020-34286540-3PRUHSIS JUAN ALEJANDRO        000000023076002000000000000000000000000000000000000000000000000000000000000000000000000000000000000000000000000000000000PES00010000001000000000000000000000000
2020091000100011000000000000000110520000000000000001105280000000020-07082007-3SUCESION DE LOPERA MANUEL     000000022519999000000000000000000000000000000000000000000000000000000000000000000000000000000000000000000000000004198000PES00010000001000000000000000000000000
2020091000100011000000000000000110530000000000000001105380000000020-18406107-5PEDRAZA MIGUEL ENRIQUE        000000011260002000000000000000000000000000000000000000000000000000000000000000000000000000000000000000000000000002099000PES00010000001000000000000000000000000
2020091000100011000000000000000110540000000000000001105480000000027-12272198-7IBANEZ MARTA NORMA            000000005745003000000000000000000000000000000000000000000000000000000000000000000000000000000000000000000000000001049500PES00010000001000000000000000000000000
2020091000100011000000000000000110550000000000000001105580000000020-18505900-7VITAR MANUEL FERNANDO         000000008617499000000000000000000000000000000000000000000000000000000000000000000000000000000000000000000000000001574250PES00010000001000000000000000000000000
2020091000100011000000000000000110560000000000000001105680000000030-62091992-2RF y J BUDEGUER SRL           000000028725003000000000000000000000000000000000000000000000000000000000000000000000000000000000000000000000000005247500PES00010000001000000000000000000000000
2020091000100011000000000000000110570000000000000001105780000000030-62600961-8EXPRESO RIVADAVIA SRL         000000016589118000000000000000000000000000000000000000000000000000000000000000000000000000000000000000000000000003188696PES00010000001000000000000000000000000
2020091000100011000000000000000110580000000000000001105880000000030-70746504-9LAPACHO AMARILLO SRL          000000014784378000000000000000000000000000000000000000000000000000000000000000000000000000000000000000000000000002755987PES00010000001000000000000000000000000
2020091000100014000000000000000151100000000000000001511080000000030-71442321-1SH TRANSPORTE HUGUIN          000000009122271000000000000000000000000000000000000000000000000000000000000000000000000000000000000000000000000000000000PES00010000001000000000000000000000000
2020091000100014000000000000000151110000000000000001511180000000030-71555371-2COMPLEJO AZUCARERO CONCEPCION 000000006382589000000000000000000000000000000000000000000000000000000000000000000000000000000000000000000000000000000000PES00010000001000000000000000000000000
2020091000100014000000000000000151120000000000000001511280000000030-71234003-3POWER SRL                     000000001770311000000000000000000000000000000000000000000000000000000000000000000000000000000000000000000000000000000000PES00010000001000000000000000000000000
2020091000100014000000000000000151130000000000000001511380000000030-70944893-1ALTO EL NARANJO SA            000000003908375000000000000000000000000000000000000000000000000000000000000000000000000000000000000000000000000000000000PES00010000001000000000000000000000000
2020091000100014000000000000000151140000000000000001511480000000030-71555371-2COMPLEJO AZUCARERO CONCEPCION 000000006382589000000000000000000000000000000000000000000000000000000000000000000000000000000000000000000000000000000000PES00010000001000000000000000000000000
2020091000100014000000000000000151150000000000000001511580000000023-07091924-9HERRERA JORGE ARMANDO         000000000497679000000000000000000000000000000000000000000000000000000000000000000000000000000000000000000000000000000000PES00010000001000000000000000000000000
2020091000100014000000000000000151160000000000000001511680000000020-21336098-2ZAFE JOSE OMAR                000000005253999000000000000000000000000000000000000000000000000000000000000000000000000000000000000000000000000000000000PES00010000001000000000000000000000000
2020091000100014000000000000000151170000000000000001511780000000020-13563090-0RODRIGUEZ MARCELO OSVALDO     000000005446147000000000000000000000000000000000000000000000000000000000000000000000000000000000000000000000000000000000PES00010000001000000000000000000000000
2020091000100014000000000000000151180000000000000001511880000000027-24007148-2VILLAVICENCIO MARIA DE LOS ANG000000007670357000000000000000000000000000000000000000000000000000000000000000000000000000000000000000000000000000000000PES00010000001000000000000000000000000
2020091000100014000000000000000151190000000000000001511980000000020-12318206-6CUEVA JUAN JOSE               000000000474320000000000000000000000000000000000000000000000000000000000000000000000000000000000000000000000000000000000PES00010000001000000000000000000000000
2020091000100016000000000000000007850000000000000000078580000000030-71234003-3POWER SRL                     000000002270490000000000000000000000000000000000000000000000000000000000000000000000000000000000000000000000000000000000PES00010000001000000000000000000000000
2020091000100051000000000000000002400000000000000000024080000000020-13674431-4BRIZ RAMON OSCAR              000000008290010000000000000000000000000000000000000000000000000000000000000000000000000000000000000000000000000000000000PES00010000001000000000000000000000000
2020091000100052000000000000000002970000000000000000029780000000030-67538829-2MAUER SRL                     000000000408997000000000000000000000000000000000000000000000000000000000000000000000000000000000000000000000000000000000PES00010000001000000000000000000000000
2020091000600014000000000000000040670000000000000000406780000000020-38490497-2ROMANO LEAL JAVIER ALFREDO    000000004112427000000000000000000000000000000000000000000000000000000000000000000000000000000000000000000000000000000000PES00010000001000000000000000000000000
2020091000600014000000000000000040680000000000000000406880000000020-25543786-1FRIAS JOSE LUIS               000000002632672000000000000000000000000000000000000000000000000000000000000000000000000000000000000000000000000000000000PES00010000001000000000000000000000000
2020091000600014000000000000000040690000000000000000406980000000020-37727416-5TORRES GUILLERMO MARCELINO    000000001839298000000000000000000000000000000000000000000000000000000000000000000000000000000000000000000000000000000000PES00010000001000000000000000000000000
2020091000600014000000000000000040700000000000000000407080000000020-11267521-4LIZARRAGA EDMUNDO ANTONIO     000000005190272000000000000000000000000000000000000000000000000000000000000000000000000000000000000000000000000000000000PES00010000001000000000000000000000000
2020091000600014000000000000000040710000000000000000407180000000020-23903184-7AVELLANEDA CARLOS             000000004102862000000000000000000000000000000000000000000000000000000000000000000000000000000000000000000000000000000000PES00010000001000000000000000000000000
2020091000300015000000000000000001330000000000000000013380000000030-54668997-9YPF SA                        000000000355273000000000000000000000000000000000000000000000000000000000000000000000000000000000000000000000000000000000PES00010000001000000000000000000000000
2020091000300015000000000000000001340000000000000000013480000000030-54668997-9YPF SA                        000000001714381000000000000000000000000000000000000000000000000000000000000000000000000000000000000000000000000000000000PES00010000001000000000000000000000000
2020091000300015000000000000000001350000000000000000013580000000030-54668997-9YPF SA                        000000279651748000000000000000000000000000000000000000000000000000000000000000000000000000000000000000000000000000000000PES00010000001000000000000000000000000
2020091000300014000000000000000023440000000000000000234480000000030-71555371-2COMPLEJO AZUCARERO CONCEPCION 000000006382589000000000000000000000000000000000000000000000000000000000000000000000000000000000000000000000000000000000PES00010000001000000000000000000000000
2020091000300014000000000000000023450000000000000000234580000000030-70238033-9DANOVIS S.A                   000000002119811000000000000000000000000000000000000000000000000000000000000000000000000000000000000000000000000000000000PES00010000001000000000000000000000000
2020091000300014000000000000000023460000000000000000234680000000020-11919321-5BOIX MATEO                    000000001113154000000000000000000000000000000000000000000000000000000000000000000000000000000000000000000000000000000000PES00010000001000000000000000000000000
2020091000300014000000000000000023470000000000000000234780000000020-11919321-5BOIX MATEO                    000000000161598000000000000000000000000000000000000000000000000000000000000000000000000000000000000000000000000000000000PES00010000001000000000000000000000000
2020091000300051000000000000000000120000000000000000001280000000030-62237196-7CODEGRAN SRL                  000000016482378000000000000000000000000000000000000000000000000000000000000000000000000000000000000000000000000000000000PES00010000001000000000000000000000000
2020091100100011000000000000000110590000000000000001105980000000030-70884913-4LINARES MATERIALES SRL        000000005630001000000000000000000000000000000000000000000000000000000000000000000000000000000000000000000000000001049500PES00010000001000000000000000000000000
2020091100100011000000000000000110600000000000000001106080000000020-16753890-9BARRIONUEVO JOSE HUMBERTO     000000013912503000000000000000000000000000000000000000000000000000000000000000000000000000000000000000000000000002623750PES00010000001000000000000000000000000
2020091100100011000000000000000110610000000000000001106180000000020-08099481-9BRAVO ZAVALETA ARMANDO MANUEL 000000017580003000000000000000000000000000000000000000000000000000000000000000000000000000000000000000000000000003148500PES00010000001000000000000000000000000
2020091100100011000000000000000110620000000000000001106280000000030-62600961-8EXPRESO RIVADAVIA SRL         000000022622961000000000000000000000000000000000000000000000000000000000000000000000000000000000000000000000000004348498PES00010000001000000000000000000000000
2020091100100011000000000000000110630000000000000001106380000000033-70881294-9FINCA SAN LORENZO SRL         000000016889998000000000000000000000000000000000000000000000000000000000000000000000000000000000000000000000000003148500PES00010000001000000000000000000000000
2020091100100014000000000000000151200000000000000001512080000000030-71509855-1SUCROALCOHOLERA DEL SUR SA    000000005769885000000000000000000000000000000000000000000000000000000000000000000000000000000000000000000000000000000000PES00010000001000000000000000000000000
2020091100100014000000000000000151210000000000000001512180000000030-70884913-4LINARES MATERIALES SRL        000000000832762000000000000000000000000000000000000000000000000000000000000000000000000000000000000000000000000000000000PES00010000001000000000000000000000000
2020091100100014000000000000000151220000000000000001512280000000027-28496442-5RACEDO ROSANA ESTER           000000001967126000000000000000000000000000000000000000000000000000000000000000000000000000000000000000000000000000000000PES00010000001000000000000000000000000
2020091100100014000000000000000151230000000000000001512380000000027-28496442-5RACEDO ROSANA ESTER           000000002237693000000000000000000000000000000000000000000000000000000000000000000000000000000000000000000000000000000000PES00010000001000000000000000000000000
2020091100100014000000000000000151240000000000000001512480000000027-26006908-5NICHIPORUK  CECILIA ABIGAIL   000000005997031000000000000000000000000000000000000000000000000000000000000000000000000000000000000000000000000000000000PES00010000001000000000000000000000000
2020091100100014000000000000000151250000000000000001512580000000030-71509855-1SUCROALCOHOLERA DEL SUR SA    000000009251297000000000000000000000000000000000000000000000000000000000000000000000000000000000000000000000000000000000PES00010000001000000000000000000000000
2020091100100014000000000000000151260000000000000001512680000000020-13674431-4BRIZ RAMON OSCAR              000000000832762000000000000000000000000000000000000000000000000000000000000000000000000000000000000000000000000000000000PES00010000001000000000000000000000000
2020091100100014000000000000000151270000000000000001512780000000030-50454932-8INGECO SA                     000000000935860000000000000000000000000000000000000000000000000000000000000000000000000000000000000000000000000000000000PES00010000001000000000000000000000000
2020091100100014000000000000000151280000000000000001512880000000030-70795392-2FIDUAGRO SRL                  000000000604689000000000000000000000000000000000000000000000000000000000000000000000000000000000000000000000000000000000PES00010000001000000000000000000000000
2020091100300011000000000000000005290000000000000000052980000000020-17337860-3JUAREZ ANTONIO ARMANDO (ST)   000000000789671000000000000000000000000000000000000000000000000000000000000000000000000000000000000000000000000000148924PES00010000001000000000000000000000000
2020091100300014000000000000000023480000000000000000234880000000030-71257780-7LAS VALKIRIAS SRL             000000000140354000000000000000000000000000000000000000000000000000000000000000000000000000000000000000000000000000000000PES00010000001000000000000000000000000
2020091100300014000000000000000023490000000000000000234980000000020-27631888-9VILLAGRA ALFREDO DANIEL       000000001667547000000000000000000000000000000000000000000000000000000000000000000000000000000000000000000000000000000000PES00010000001000000000000000000000000
2020091100300014000000000000000023500000000000000000235080000000020-07007717-6GHIGGIA JOSE ALFREDO          000000000299763000000000000000000000000000000000000000000000000000000000000000000000000000000000000000000000000000000000PES00010000001000000000000000000000000
2020091100300014000000000000000023510000000000000000235180000000030-52340824-7CERAMICA MARCOS PAZ SRL       000000000322747000000000000000000000000000000000000000000000000000000000000000000000000000000000000000000000000000000000PES00010000001000000000000000000000000
2020091100800014000000000000000007000000000000000000070080000000020-17464304-1VILLALOBO CESAR ALBERTO       000000000307173000000000000000000000000000000000000000000000000000000000000000000000000000000000000000000000000000000000PES00010000001000000000000000000000000
2020091200100011000000000000000110640000000000000001106480000000030-62091992-2RF y J BUDEGUER SRL           000000080430007000000000000000000000000000000000000000000000000000000000000000000000000000000000000000000000000014693000PES00010000001000000000000000000000000
2020091200100011000000000000000110650000000000000001106580000000020-27843284-0ALMONACID JOSE LEONARDO       000000011490000000000000000000000000000000000000000000000000000000000000000000000000000000000000000000000000000002099000PES00010000001000000000000000000000000
2020091200100011000000000000000110660000000000000001106680000000030-71405735-5ZAFIROS DEL NOA SA            000000005700002000000000000000000000000000000000000000000000000000000000000000000000000000000000000000000000000001049500PES00010000001000000000000000000000000
2020091200100014000000000000000151290000000000000001512980000000030-71631834-2SEIMA SRL                     000000003023456000000000000000000000000000000000000000000000000000000000000000000000000000000000000000000000000000000000PES00010000001000000000000000000000000
2020091200100014000000000000000151300000000000000001513080000000020-08067639-6ARGENTE DOMINGO ANDRES        000000003329736000000000000000000000000000000000000000000000000000000000000000000000000000000000000000000000000000000000PES00010000001000000000000000000000000
2020091200300014000000000000000023520000000000000000235280000000020-27631888-9VILLAGRA ALFREDO DANIEL       000000001133027000000000000000000000000000000000000000000000000000000000000000000000000000000000000000000000000000000000PES00010000001000000000000000000000000
2020091400100011000000000000000110670000000000000001106780000000030-70872456-0LA ASTURIANA S.R.L            000000022980000000000000000000000000000000000000000000000000000000000000000000000000000000000000000000000000000004198000PES00010000001000000000000000000000000
2020091400100011000000000000000110680000000000000001106880000000033-56421712-9DI BACCO Y CIA SA             000000035178002000000000000000000000000000000000000000000000000000000000000000000000000000000000000000000000000005667300PES00010000001000000000000000000000000
2020091400100011000000000000000110690000000000000001106980000000030-71526151-7SERCOU SRL                    000000008444999000000000000000000000000000000000000000000000000000000000000000000000000000000000000000000000000001574250PES00010000001000000000000000000000000
2020091400100011000000000000000110700000000000000001107080000000020-34226808-1CANO ARON JOSE VICTOR (ST)    000000016694997000000000000000000000000000000000000000000000000000000000000000000000000000000000000000000000000003148500PES00010000001000000000000000000000000
2020091400100011000000000000000110710000000000000001107180000000030-70976790-5COOP AGROPECUARIA LOS BARRIENT000000005565001000000000000000000000000000000000000000000000000000000000000000000000000000000000000000000000000001049500PES00010000001000000000000000000000000
2020091400100011000000000000000110720000000000000001107280000000030-71681985-6INDUSTRIAS SANTA BARBARA SRL E000000005565001000000000000000000000000000000000000000000000000000000000000000000000000000000000000000000000000001049500PES00010000001000000000000000000000000
2020091400100011000000000000000110730000000000000001107380000000030-71681985-6INDUSTRIAS SANTA BARBARA SRL E000000016694997000000000000000000000000000000000000000000000000000000000000000000000000000000000000000000000000003148500PES00010000001000000000000000000000000
2020091400100011000000000000000110740000000000000001107480000000020-17337860-3JUAREZ ANTONIO ARMANDO (ST)   000000011130002000000000000000000000000000000000000000000000000000000000000000000000000000000000000000000000000002099000PES00010000001000000000000000000000000
2020091400100011000000000000000110750000000000000001107580000000030-51088532-1LA BANDA SRL (ST)             000000055649999000000000000000000000000000000000000000000000000000000000000000000000000000000000000000000000000010495000PES00010000001000000000000000000000000
2020091400100011000000000000000110760000000000000001107680000000030-70910057-9TRES DECIMA SRL (ST)          000000016694997000000000000000000000000000000000000000000000000000000000000000000000000000000000000000000000000003148500PES00010000001000000000000000000000000
2020091400100011000000000000000110770000000000000001107780000000030-70910057-9TRES DECIMA SRL (ST)          000000013912497000000000000000000000000000000000000000000000000000000000000000000000000000000000000000000000000002623750PES00010000001000000000000000000000000
2020091400100011000000000000000110780000000000000001107880000000030-71001068-0ZAPULLA JOSE E Y G SALVADOR SH000000005565001000000000000000000000000000000000000000000000000000000000000000000000000000000000000000000000000001049500PES00010000001000000000000000000000000
2020091400100011000000000000000110790000000000000001107980000000030-71509855-1SUCROALCOHOLERA DEL SUR SA    000000089250001000000000000000000000000000000000000000000000000000000000000000000000000000000000000000000000000017841500PES00010000001000000000000000000000000
2020091400100011000000000000000110800000000000000001108080000000030-70891326-6TRANSPORTE HACHA DE PIEDRA SRL000000006727853000000000000000000000000000000000000000000000000000000000000000000000000000000000000000000000000001254153PES00010000001000000000000000000000000
2020091400100011000000000000000110810000000000000001108180000000030-62600961-8EXPRESO RIVADAVIA SRL         000000013976507000000000000000000000000000000000000000000000000000000000000000000000000000000000000000000000000002686510PES00010000001000000000000000000000000
2020091400100011000000000000000110820000000000000001108280000000030-62600961-8EXPRESO RIVADAVIA SRL         000000005988528000000000000000000000000000000000000000000000000000000000000000000000000000000000000000000000000001151092PES00010000001000000000000000000000000
2020091400100011000000000000000110830000000000000001108380000000030-70891326-6TRANSPORTE HACHA DE PIEDRA SRL000000051413408000000000000000000000000000000000000000000000000000000000000000000000000000000000000000000000000009992290PES00010000001000000000000000000000000
2020091400100014000000000000000151310000000000000001513180000000030-70970239-0YABITEL SA                    000000031222794000000000000000000000000000000000000000000000000000000000000000000000000000000000000000000000000000000000PES00010000001000000000000000000000000
2020091400100014000000000000000151320000000000000001513280000000020-10015058-2MEDINA BENIGNO NOLASCO        000000010904019000000000000000000000000000000000000000000000000000000000000000000000000000000000000000000000000000000000PES00010000001000000000000000000000000
2020091400100014000000000000000151330000000000000001513380000000020-11781308-9DELORENZI VICENTE LUIS        000000012268847000000000000000000000000000000000000000000000000000000000000000000000000000000000000000000000000000000000PES00010000001000000000000000000000000
2020091400100014000000000000000151340000000000000001513480000000023-25632632-9ECHAZU ANDRES ALBERTO         000000005860410000000000000000000000000000000000000000000000000000000000000000000000000000000000000000000000000000000000PES00010000001000000000000000000000000
2020091400100014000000000000000151350000000000000001513580000000030-70733820-9SERVICIOS Y AVENTURAS SRL     000000004276163000000000000000000000000000000000000000000000000000000000000000000000000000000000000000000000000000000000PES00010000001000000000000000000000000
2020091400100014000000000000000151360000000000000001513680000000020-32461082-1CORTI DIEGO JAVIER            000000002505138000000000000000000000000000000000000000000000000000000000000000000000000000000000000000000000000000000000PES00010000001000000000000000000000000
2020091400100014000000000000000151370000000000000001513780000000020-32134675-9ABRAHAM JORGE ENRIQUE         000000003512273000000000000000000000000000000000000000000000000000000000000000000000000000000000000000000000000000000000PES00010000001000000000000000000000000
2020091400100014000000000000000151380000000000000001513880000000030-71653891-1QUIROGA S.A.S                 000000012159002000000000000000000000000000000000000000000000000000000000000000000000000000000000000000000000000000000000PES00010000001000000000000000000000000
2020091400100014000000000000000151390000000000000001513980000000030-71227254-2OLGA ZOTTOLA DE SIMONETO E HIJ000000001322023000000000000000000000000000000000000000000000000000000000000000000000000000000000000000000000000000000000PES00010000001000000000000000000000000
2020091400100014000000000000000151400000000000000001514080000000030-71227254-2OLGA ZOTTOLA DE SIMONETO E HIJ000000000760779000000000000000000000000000000000000000000000000000000000000000000000000000000000000000000000000000000000PES00010000001000000000000000000000000
2020091400100016000000000000000007860000000000000000078680000000030-50454932-8INGECO SA                     000000127166160000000000000000000000000000000000000000000000000000000000000000000000000000000000000000000000000000000000PES00010000001000000000000000000000000
2020091400600014000000000000000040720000000000000000407280000000020-37727416-5TORRES GUILLERMO MARCELINO    000000002930205000000000000000000000000000000000000000000000000000000000000000000000000000000000000000000000000000000000PES00010000001000000000000000000000000
2020091400600014000000000000000040730000000000000000407380000000020-24981449-1CORTI SERGIO DANIEL           000000000665834000000000000000000000000000000000000000000000000000000000000000000000000000000000000000000000000000000000PES00010000001000000000000000000000000
2020091400600014000000000000000040740000000000000000407480000000027-21799822-6CASTRO MARIA ROSA             000000011416638000000000000000000000000000000000000000000000000000000000000000000000000000000000000000000000000000000000PES00010000001000000000000000000000000
2020091400600014000000000000000040750000000000000000407580000000020-24200538-5SARME DANIEL IASIR            000000003528222000000000000000000000000000000000000000000000000000000000000000000000000000000000000000000000000000000000PES00010000001000000000000000000000000
2020091400600014000000000000000040760000000000000000407680000000020-17464304-1VILLALOBO CESAR ALBERTO       000000002359667000000000000000000000000000000000000000000000000000000000000000000000000000000000000000000000000000000000PES00010000001000000000000000000000000
2020091400300011000000000000000005300000000000000000053080000000030-70891326-6TRANSPORTE HACHA DE PIEDRA SRL000000006727852000000000000000000000000000000000000000000000000000000000000000000000000000000000000000000000000001254152PES00010000001000000000000000000000000
2020091400300014000000000000000023530000000000000000235380000000030-60170514-8BATCON S.R.L.    1            000000000733514000000000000000000000000000000000000000000000000000000000000000000000000000000000000000000000000000000000PES00010000001000000000000000000000000
2020091400300014000000000000000023540000000000000000235480000000030-64418649-7LOS PEMPA AGROGANADERA        000000000895988000000000000000000000000000000000000000000000000000000000000000000000000000000000000000000000000000000000PES00010000001000000000000000000000000
2020091400300014000000000000000023550000000000000000235580000000023-26648375-9ARIAS RUBEN ALFREDO           000000000356264000000000000000000000000000000000000000000000000000000000000000000000000000000000000000000000000000000000PES00010000001000000000000000000000000
2020091400300014000000000000000023560000000000000000235680000000020-27504586-2ARIAS NELSON OSCAR            000000000298236000000000000000000000000000000000000000000000000000000000000000000000000000000000000000000000000000000000PES00010000001000000000000000000000000
2020091400300014000000000000000023570000000000000000235780000000020-26981910-4CUOZZO PABLO EDUARDO          000000001895828000000000000000000000000000000000000000000000000000000000000000000000000000000000000000000000000000000000PES00010000001000000000000000000000000
2020091400300014000000000000000023580000000000000000235880000000030-71476431-0ARIAS DANTE,VICTOR Y WILLIAM S000000000416978000000000000000000000000000000000000000000000000000000000000000000000000000000000000000000000000000000000PES00010000001000000000000000000000000
2020091500100011000000000000000110840000000000000001108480000000030-70806783-7AGRICOLA DE LEALES SC         000000039325999000000000000000000000000000000000000000000000000000000000000000000000000000000000000000000000000007346500PES00010000001000000000000000000000000
2020091500100011000000000000000110850000000000000001108580000000020-28531567-1ROTH GERARDO ARIEL            000000011260002000000000000000000000000000000000000000000000000000000000000000000000000000000000000000000000000002099000PES00010000001000000000000000000000000
2020091500100011000000000000000110860000000000000001108680000000020-25446794-5CONTRERAS RICARDO ALEJANDRO   000000026499998000000000000000000000000000000000000000000000000000000000000000000000000000000000000000000000000005247500PES00010000001000000000000000000000000
2020091500100011000000000000000110870000000000000001108780000000030-71526151-7SERCOU SRL                    000000011260002000000000000000000000000000000000000000000000000000000000000000000000000000000000000000000000000002099000PES00010000001000000000000000000000000
2020091500100011000000000000000110880000000000000001108880000000030-62600961-8EXPRESO RIVADAVIA SRL         000000014827721000000000000000000000000000000000000000000000000000000000000000000000000000000000000000000000000002850127PES00010000001000000000000000000000000
2020091500100014000000000000000151410000000000000001514180000000020-27631888-9VILLAGRA ALFREDO DANIEL       000000009573174000000000000000000000000000000000000000000000000000000000000000000000000000000000000000000000000000000000PES00010000001000000000000000000000000
2020091500100014000000000000000151420000000000000001514280000000023-31128433-9CARRASCO RAUL RICARDO         000000005356595000000000000000000000000000000000000000000000000000000000000000000000000000000000000000000000000000000000PES00010000001000000000000000000000000
2020091500100014000000000000000151430000000000000001514380000000027-28496442-5RACEDO ROSANA ESTER           000000003356540000000000000000000000000000000000000000000000000000000000000000000000000000000000000000000000000000000000PES00010000001000000000000000000000000
2020091500100014000000000000000151440000000000000001514480000000027-28496442-5RACEDO ROSANA ESTER           000000001733365000000000000000000000000000000000000000000000000000000000000000000000000000000000000000000000000000000000PES00010000001000000000000000000000000
2020091500100014000000000000000151450000000000000001514580000000030-70746504-9LAPACHO AMARILLO SRL          000000003459056000000000000000000000000000000000000000000000000000000000000000000000000000000000000000000000000000000000PES00010000001000000000000000000000000
2020091500100014000000000000000151460000000000000001514680000000030-50454932-8INGECO SA                     000000003540281000000000000000000000000000000000000000000000000000000000000000000000000000000000000000000000000000000000PES00010000001000000000000000000000000
2020091500100014000000000000000151470000000000000001514780000000020-13563011-0MENA CARLOS ADOLFO            000000001497231000000000000000000000000000000000000000000000000000000000000000000000000000000000000000000000000000000000PES00010000001000000000000000000000000
2020091500100014000000000000000151480000000000000001514880000000027-37502615-0TRIUNFETTI NATALIA ELIZABETH  000000001995826000000000000000000000000000000000000000000000000000000000000000000000000000000000000000000000000000000000PES00010000001000000000000000000000000
2020091500100014000000000000000151490000000000000001514980000000030-62091992-2RF y J BUDEGUER SRL           000000002798770000000000000000000000000000000000000000000000000000000000000000000000000000000000000000000000000000000000PES00010000001000000000000000000000000
2020091500100014000000000000000151500000000000000001515080000000033-71456320-9ALISOS SRL                    000000000314750000000000000000000000000000000000000000000000000000000000000000000000000000000000000000000000000000000000PES00010000001000000000000000000000000
2020091500100014000000000000000151510000000000000001515180000000023-08395432-9SUCESION DE RODA MARIO OSVALDO000000003339197000000000000000000000000000000000000000000000000000000000000000000000000000000000000000000000000000000000PES00010000001000000000000000000000000
2020091500100014000000000000000151520000000000000001515280000000030-69177868-8EMP CONSTR Y SERVICIOS ECOS SA000000003512273000000000000000000000000000000000000000000000000000000000000000000000000000000000000000000000000000000000PES00010000001000000000000000000000000
2020091500100014000000000000000151530000000000000001515380000000030-70746504-9LAPACHO AMARILLO SRL          000000004378287000000000000000000000000000000000000000000000000000000000000000000000000000000000000000000000000000000000PES00010000001000000000000000000000000
2020091500100016000000000000000007870000000000000000078780000000027-37997639-0MIROLI LOMBARDO SILVIA NOELIA 000000001338375000000000000000000000000000000000000000000000000000000000000000000000000000000000000000000000000000000000PES00010000001000000000000000000000000
2020091500100051000000000000000002410000000000000000024180000000027-14846529-6ARTERO LILIANA DEL VALLE      000000004714483000000000000000000000000000000000000000000000000000000000000000000000000000000000000000000000000000000000PES00010000001000000000000000000000000
2020091500100051000000000000000002420000000000000000024280000000030-71496631-2FYL TRANS SRL                 000000014931158000000000000000000000000000000000000000000000000000000000000000000000000000000000000000000000000000000000PES00010000001000000000000000000000000
2020091500100051000000000000000002430000000000000000024380000000033-70866875-9ACHERAL S.A.                  000000004989798000000000000000000000000000000000000000000000000000000000000000000000000000000000000000000000000000000000PES00010000001000000000000000000000000
2020091500100052000000000000000002980000000000000000029880000000030-70798511-5TRAPICHE SA                   000000117848250000000000000000000000000000000000000000000000000000000000000000000000000000000000000000000000000000000000PES00010000001000000000000000000000000
2020091500600014000000000000000040770000000000000000407780000000020-07069009-9MIGHELI RAFAEL (P)            000000000385085000000000000000000000000000000000000000000000000000000000000000000000000000000000000000000000000000000000PES00010000001000000000000000000000000
2020091500300014000000000000000023590000000000000000235980000000030-71227254-2OLGA ZOTTOLA DE SIMONETO E HIJ000000000760779000000000000000000000000000000000000000000000000000000000000000000000000000000000000000000000000000000000PES00010000001000000000000000000000000
2020091500300014000000000000000023600000000000000000236080000000020-16282984-0BRAVO OSCAR ROLANDO           000000000177726000000000000000000000000000000000000000000000000000000000000000000000000000000000000000000000000000000000PES00010000001000000000000000000000000
2020091500300014000000000000000023610000000000000000236180000000020-13040803-7DIAZ FRANCISCO                000000000416978000000000000000000000000000000000000000000000000000000000000000000000000000000000000000000000000000000000PES00010000001000000000000000000000000
2020091500200011000000000000000002200000000000000000022080000000030-71496631-2FYL TRANS SRL                 000000001357378000000000000000000000000000000000000000000000000000000000000000000000000000000000000000000000000000000000PES00010000001000000000000000000000000
2020091600100011000000000000000110890000000000000001108980000000033-70881294-9FINCA SAN LORENZO SRL         000000022519999000000000000000000000000000000000000000000000000000000000000000000000000000000000000000000000000004198000PES00010000001000000000000000000000000
2020091600100011000000000000000110900000000000000001109080000000020-21969528-5DOMINGUEZ ANDRES ALBERTO      000000005745003000000000000000000000000000000000000000000000000000000000000000000000000000000000000000000000000001049500PES00010000001000000000000000000000000
2020091600100011000000000000000110910000000000000001109180000000030-70962825-5PACTA SRL                     000000016889998000000000000000000000000000000000000000000000000000000000000000000000000000000000000000000000000003148500PES00010000001000000000000000000000000
2020091600100011000000000000000110920000000000000001109280000000030-70872456-0LA ASTURIANA S.R.L            000000022980000000000000000000000000000000000000000000000000000000000000000000000000000000000000000000000000000004198000PES00010000001000000000000000000000000
2020091600100011000000000000000110930000000000000001109380000000020-18034554-0GARZON FRANCISCO JAVIER       000000033599999000000000000000000000000000000000000000000000000000000000000000000000000000000000000000000000000006297000PES00010000001000000000000000000000000
2020091600100011000000000000000110940000000000000001109480000000030-62600961-8EXPRESO RIVADAVIA SRL         000000021097987000000000000000000000000000000000000000000000000000000000000000000000000000000000000000000000000004055373PES00010000001000000000000000000000000
2020091600100011000000000000000110950000000000000001109580000000030-70721194-2ROLCAR SA                     000000006500000000000000000000000000000000000000000000000000000000000000000000000000000000000000000000000000000000944550PES00010000001000000000000000000000000
2020091600100011000000000000000110960000000000000001109680000000020-29997311-6VITRIU NICOLAS                000000011490000000000000000000000000000000000000000000000000000000000000000000000000000000000000000000000000000002099000PES00010000001000000000000000000000000
2020091600100014000000000000000151540000000000000001515480000000020-11074762-5PEREZ JUAN LUIS               000000004743223000000000000000000000000000000000000000000000000000000000000000000000000000000000000000000000000000000000PES00010000001000000000000000000000000
2020091600100014000000000000000151550000000000000001515580000000030-70858734-2QUILLEN BERRIES S.A           000000003329736000000000000000000000000000000000000000000000000000000000000000000000000000000000000000000000000000000000PES00010000001000000000000000000000000
2020091600100014000000000000000151560000000000000001515680000000020-25211842-0RODRIGUEZ LUIS MARCELO        000000003517297000000000000000000000000000000000000000000000000000000000000000000000000000000000000000000000000000000000PES00010000001000000000000000000000000
2020091600100014000000000000000151570000000000000001515780000000020-29673955-4MUHIC GIANNI MIRKO            000000005957942000000000000000000000000000000000000000000000000000000000000000000000000000000000000000000000000000000000PES00010000001000000000000000000000000
2020091600100014000000000000000151580000000000000001515880000000020-29878648-7LECCESE PEDRO ALBERTO         000000000942250000000000000000000000000000000000000000000000000000000000000000000000000000000000000000000000000000000000PES00010000001000000000000000000000000
2020091600100014000000000000000151590000000000000001515980000000030-70841713-7BELLANTI BRUNO  Y BELLANTI CES000000000295413000000000000000000000000000000000000000000000000000000000000000000000000000000000000000000000000000000000PES00010000001000000000000000000000000
2020091600100014000000000000000151600000000000000001516080000000033-69177691-9FABRICA DE FIDEOS RIVOLI SA   000000003590151000000000000000000000000000000000000000000000000000000000000000000000000000000000000000000000000000000000PES00010000001000000000000000000000000
2020091600100014000000000000000151610000000000000001516180000000020-22332799-1ZERPA MANUEL ANGEL            000000002386788000000000000000000000000000000000000000000000000000000000000000000000000000000000000000000000000000000000PES00010000001000000000000000000000000
2020091600100014000000000000000151620000000000000001516280000000030-71510276-1ARIDOS CALERA SRL             000000005597535000000000000000000000000000000000000000000000000000000000000000000000000000000000000000000000000000000000PES00010000001000000000000000000000000
2020091600100014000000000000000151630000000000000001516380000000030-50454932-8INGECO SA                     000000003459056000000000000000000000000000000000000000000000000000000000000000000000000000000000000000000000000000000000PES00010000001000000000000000000000000
2020091600100200000000000000000000660000000000000000006680000000030-65865024-2EDET SA                       000000016218748000000000000000000000000000000000000000000000000000000000000000000000000000000000000000000000000000000000PES00010000001000000000000000000000000
2020091600600014000000000000000040780000000000000000407880000000030-65629165-2MUNICIPALIDAD DE MONTEROS     000000008226179000000000000000000000000000000000000000000000000000000000000000000000000000000000000000000000000000000000PES00010000001000000000000000000000000
2020091600600014000000000000000040790000000000000000407980000000020-32413735-2BAZAN RUIZ FRANCO EMMANUEL    000000000366981000000000000000000000000000000000000000000000000000000000000000000000000000000000000000000000000000000000PES00010000001000000000000000000000000
2020091600300015000000000000000001360000000000000000013680000000030-54668997-9YPF SA                        000000011874548000000000000000000000000000000000000000000000000000000000000000000000000000000000000000000000000000000000PES00010000001000000000000000000000000
2020091600300014000000000000000023620000000000000000236280000000030-70240214-6PREMOL SRL                    000000000133273000000000000000000000000000000000000000000000000000000000000000000000000000000000000000000000000000000000PES00010000001000000000000000000000000
2020091600300014000000000000000023630000000000000000236380000000030-70240214-6PREMOL SRL                    000000000181569000000000000000000000000000000000000000000000000000000000000000000000000000000000000000000000000000000000PES00010000001000000000000000000000000
2020091600300014000000000000000023640000000000000000236480000000023-14225082-9RODRIGUEZ CARLOS DANIEL       000000000034969000000000000000000000000000000000000000000000000000000000000000000000000000000000000000000000000000000000PES00010000001000000000000000000000000
2020091600300014000000000000000023650000000000000000236580000000023-14225082-9RODRIGUEZ CARLOS DANIEL       000000000084654000000000000000000000000000000000000000000000000000000000000000000000000000000000000000000000000000000000PES00010000001000000000000000000000000
2020091600300014000000000000000023660000000000000000236680000000030-70865226-8GUILLELMI HERNANDEZ SOC.DE HEC000000000164750000000000000000000000000000000000000000000000000000000000000000000000000000000000000000000000000000000000PES00010000001000000000000000000000000
2020091600800014000000000000000007010000000000000000070180000000020-24200538-5SARME DANIEL IASIR            000000001499933000000000000000000000000000000000000000000000000000000000000000000000000000000000000000000000000000000000PES00010000001000000000000000000000000
2020091600800014000000000000000007020000000000000000070280000000020-12562300-0CHANTA JULIO                  000000000298663000000000000000000000000000000000000000000000000000000000000000000000000000000000000000000000000000000000PES00010000001000000000000000000000000
2020091600800014000000000000000007030000000000000000070380000000020-23239246-1GEREZ SERGIO GUSTAVO          000000000501620000000000000000000000000000000000000000000000000000000000000000000000000000000000000000000000000000000000PES00010000001000000000000000000000000
2020091700100011000000000000000110970000000000000001109780000000030-71038312-6TM ROLDAN SRL                 000000005066997000000000000000000000000000000000000000000000000000000000000000000000000000000000000000000000000000944550PES00010000001000000000000000000000000
2020091700100011000000000000000110980000000000000001109880000000030-62091992-2RF y J BUDEGUER SRL           000000057450006000000000000000000000000000000000000000000000000000000000000000000000000000000000000000000000000010495000PES00010000001000000000000000000000000
2020091700100011000000000000000110990000000000000001109980000000020-29685853-7VIEYRA JORGE LINO             000000005745003000000000000000000000000000000000000000000000000000000000000000000000000000000000000000000000000001049500PES00010000001000000000000000000000000
2020091700100011000000000000000111000000000000000001110080000000020-18505900-7VITAR MANUEL FERNANDO         000000008617499000000000000000000000000000000000000000000000000000000000000000000000000000000000000000000000000001574250PES00010000001000000000000000000000000
2020091700100011000000000000000111010000000000000001110180000000030-62600961-8EXPRESO RIVADAVIA SRL         000000015853657000000000000000000000000000000000000000000000000000000000000000000000000000000000000000000000000003047328PES00010000001000000000000000000000000
2020091700100014000000000000000151640000000000000001516480000000023-07091924-9HERRERA JORGE ARMANDO         000000001626931000000000000000000000000000000000000000000000000000000000000000000000000000000000000000000000000000000000PES00010000001000000000000000000000000
