202008010010001100000000000000010784000000000000000107848000000000030714922013DON BETO SRL (ST)             000000021199998000000000000000000000000000000000000000000000000000000000000000000000000000000000000000000000000003778200PES00010000001000000000000000000000000
202008010010001100000000000000010785000000000000000107858000000000030714922013DON BETO SRL (ST)             000000031799997000000000000000000000000000000000000000000000000000000000000000000000000000000000000000000000000005667300PES00010000001000000000000000000000000
202008010010001400000000000000014736000000000000000147368000000000020080676396ARGENTE DOMINGO ANDRES        000000003345024000000000000000000000000000000000000000000000000000000000000000000000000000000000000000000000000000000000PES00010000001000000000000000000000000
202008010010001400000000000000014737000000000000000147378000000000030685655329PRODUCCION SA                 000000001614019000000000000000000000000000000000000000000000000000000000000000000000000000000000000000000000000000000000PES00010000001000000000000000000000000
202008010010001400000000000000014738000000000000000147388000000000030506230914CITROMAX S.A.C.I              000000007996476000000000000000000000000000000000000000000000000000000000000000000000000000000000000000000000000000000000PES00010000001000000000000000000000000
202008010010001400000000000000014739000000000000000147398000000000023296664189GONZALEZ COLETTI ALVARO AGUSTI000000000475311000000000000000000000000000000000000000000000000000000000000000000000000000000000000000000000000000000000PES00010000001000000000000000000000000
202008010010001400000000000000014740000000000000000147408000000000030708067837AGRICOLA DE LEALES SC         000000000575897000000000000000000000000000000000000000000000000000000000000000000000000000000000000000000000000000000000PES00010000001000000000000000000000000
202008010060001400000000000000004014000000000000000040148000000000027230204255PAZ SILVIA PATRICIA           000000000905065000000000000000000000000000000000000000000000000000000000000000000000000000000000000000000000000000000000PES00010000001000000000000000000000000
202008010060001400000000000000004015000000000000000040158000000000020273010522ROMANO DANIEL H               000000006341283000000000000000000000000000000000000000000000000000000000000000000000000000000000000000000000000000000000PES00010000001000000000000000000000000
202008010060001400000000000000004016000000000000000040168000000000020174643041VILLALOBO CESAR ALBERTO       000000000699409000000000000000000000000000000000000000000000000000000000000000000000000000000000000000000000000000000000PES00010000001000000000000000000000000
202008010030001400000000000000002270000000000000000022708000000000030709189820EL RAYO BUS SRL               000000003345024000000000000000000000000000000000000000000000000000000000000000000000000000000000000000000000000000000000PES00010000001000000000000000000000000
202008010080001400000000000000000678000000000000000006788000000000020141354389MORALES JOSE ANTONIO          000000002986628000000000000000000000000000000000000000000000000000000000000000000000000000000000000000000000000000000000PES00010000001000000000000000000000000
202008030010001100000000000000010786000000000000000107868000000000020342268081CANO ARON JOSE VICTOR (ST)    000000021199998000000000000000000000000000000000000000000000000000000000000000000000000000000000000000000000000003778200PES00010000001000000000000000000000000
202008030010001100000000000000010787000000000000000107878000000000020342268081CANO ARON JOSE VICTOR (ST)    000000021199998000000000000000000000000000000000000000000000000000000000000000000000000000000000000000000000000003778200PES00010000001000000000000000000000000
202008030010001100000000000000010788000000000000000107888000000000030709767905COOP AGROPECUARIA LOS BARRIENT000000015899998000000000000000000000000000000000000000000000000000000000000000000000000000000000000000000000000002833650PES00010000001000000000000000000000000
202008030010001100000000000000010789000000000000000107898000000000023208986309GUTIERREZ JORGE LUIS (ST)     000000005299999000000000000000000000000000000000000000000000000000000000000000000000000000000000000000000000000000944550PES00010000001000000000000000000000000
202008030010001100000000000000010790000000000000000107908000000000020173378603JUAREZ ANTONIO ARMANDO (ST)   000000015899998000000000000000000000000000000000000000000000000000000000000000000000000000000000000000000000000002833650PES00010000001000000000000000000000000
202008030010001100000000000000010791000000000000000107918000000000020173378603JUAREZ ANTONIO ARMANDO (ST)   000000015899998000000000000000000000000000000000000000000000000000000000000000000000000000000000000000000000000002833650PES00010000001000000000000000000000000
202008030010001100000000000000010792000000000000000107928000000000030716819856INDUSTRIAS SANTA BARBARA SRL E000000010599999000000000000000000000000000000000000000000000000000000000000000000000000000000000000000000000000001889100PES00010000001000000000000000000000000
202008030010001100000000000000010793000000000000000107938000000000030716819856INDUSTRIAS SANTA BARBARA SRL E000000010599999000000000000000000000000000000000000000000000000000000000000000000000000000000000000000000000000001889100PES00010000001000000000000000000000000
202008030010001100000000000000010794000000000000000107948000000000020035021613SUCESION DE ACOSTA ANTONIO H (000000015899998000000000000000000000000000000000000000000000000000000000000000000000000000000000000000000000000002833650PES00010000001000000000000000000000000
202008030010001100000000000000010795000000000000000107958000000000020253200805VILLAFANE ARIEL HUGO (ST)     000000005299999000000000000000000000000000000000000000000000000000000000000000000000000000000000000000000000000000944550PES00010000001000000000000000000000000
202008030010001100000000000000010796000000000000000107968000000000020080994819BRAVO ZAVALETA ARMANDO MANUEL 000000017100000000000000000000000000000000000000000000000000000000000000000000000000000000000000000000000000000002833650PES00010000001000000000000000000000000
202008030010001100000000000000010797000000000000000107978000000000030708724560LA ASTURIANA S.R.L            000000011000001000000000000000000000000000000000000000000000000000000000000000000000000000000000000000000000000001889100PES00010000001000000000000000000000000
202008030010001100000000000000010798000000000000000107988000000000030715261517SERCOU SRL                    000000021400000000000000000000000000000000000000000000000000000000000000000000000000000000000000000000000000000003778200PES00010000001000000000000000000000000
202008030010001100000000000000010799000000000000000107998000000000030708724560LA ASTURIANA S.R.L            000000005500000000000000000000000000000000000000000000000000000000000000000000000000000000000000000000000000000000944550PES00010000001000000000000000000000000
202008030010001100000000000000010800000000000000000108008000000000020170542437BINI JOSE HUMBERTO            000000011000001000000000000000000000000000000000000000000000000000000000000000000000000000000000000000000000000001889100PES00010000001000000000000000000000000
202008030010001100000000000000010801000000000000000108018000000000030626009618EXPRESO RIVADAVIA SRL         000000016911960000000000000000000000000000000000000000000000000000000000000000000000000000000000000000000000000003071960PES00010000001000000000000000000000000
202008030010001100000000000000010802000000000000000108028000000000030626009618EXPRESO RIVADAVIA SRL         000000022904440000000000000000000000000000000000000000000000000000000000000000000000000000000000000000000000000004160459PES00010000001000000000000000000000000
202008030010001100000000000000010803000000000000000108038000000000030708067837AGRICOLA DE LEALES SC         000000299600000000000000000000000000000000000000000000000000000000000000000000000000000000000000000000000000000052894800PES00010000001000000000000000000000000
202008030010001100000000000000010804000000000000000108048000000000030708913266TRANSPORTE HACHA DE PIEDRA SRL000000059613232000000000000000000000000000000000000000000000000000000000000000000000000000000000000000000000000011150035PES00010000001000000000000000000000000
202008030010001400000000000000014741000000000000000147418000000000030707711155YELLOW CAB                    000000009405642000000000000000000000000000000000000000000000000000000000000000000000000000000000000000000000000000000000PES00010000001000000000000000000000000
202008030010001400000000000000014742000000000000000147428000000000027240071482VILLAVICENCIO MARIA DE LOS ANG000000003335901000000000000000000000000000000000000000000000000000000000000000000000000000000000000000000000000000000000PES00010000001000000000000000000000000
202008030010001400000000000000014743000000000000000147438000000000033691776919FABRICA DE FIDEOS RIVOLI SA   000000000793107000000000000000000000000000000000000000000000000000000000000000000000000000000000000000000000000000000000PES00010000001000000000000000000000000
202008030010001400000000000000014744000000000000000147448000000000027258534080MESON NANCY BEATRIZ           000000003146875000000000000000000000000000000000000000000000000000000000000000000000000000000000000000000000000000000000PES00010000001000000000000000000000000
202008030010001400000000000000014745000000000000000147458000000000030708724560LA ASTURIANA S.R.L            000000006141330000000000000000000000000000000000000000000000000000000000000000000000000000000000000000000000000000000000PES00010000001000000000000000000000000
202008030010001400000000000000014746000000000000000147468000000000030707338209SERVICIOS Y AVENTURAS SRL     000000000964209000000000000000000000000000000000000000000000000000000000000000000000000000000000000000000000000000000000PES00010000001000000000000000000000000
202008030010001400000000000000014747000000000000000147478000000000030506230914CITROMAX S.A.C.I              000000007196830000000000000000000000000000000000000000000000000000000000000000000000000000000000000000000000000000000000PES00010000001000000000000000000000000
202008030010001400000000000000014748000000000000000147488000000000030639041545AGRO CARGAS SA                000000000596672000000000000000000000000000000000000000000000000000000000000000000000000000000000000000000000000000000000PES00010000001000000000000000000000000
202008030010001400000000000000014749000000000000000147498000000000030702380339DANOVIS S.A                   000000015043853000000000000000000000000000000000000000000000000000000000000000000000000000000000000000000000000000000000PES00010000001000000000000000000000000
202008030010001400000000000000014750000000000000000147508000000000020277510953IBANEZ CLAUDIO LEONARDO       000000000842924000000000000000000000000000000000000000000000000000000000000000000000000000000000000000000000000000000000PES00010000001000000000000000000000000
202008030010001400000000000000014751000000000000000147518000000000020162829840BRAVO OSCAR ROLANDO           000000004442908000000000000000000000000000000000000000000000000000000000000000000000000000000000000000000000000000000000PES00010000001000000000000000000000000
202008030010001400000000000000014752000000000000000147528000000000030702380339DANOVIS S.A                   000000013676228000000000000000000000000000000000000000000000000000000000000000000000000000000000000000000000000000000000PES00010000001000000000000000000000000
202008030010001400000000000000014753000000000000000147538000000000030631838940PANPACK S.A                   000000001843238000000000000000000000000000000000000000000000000000000000000000000000000000000000000000000000000000000000PES00010000001000000000000000000000000
202008030010001400000000000000014754000000000000000147548000000000023124330149ACEVEDO MARIO RAMON           000000045696832000000000000000000000000000000000000000000000000000000000000000000000000000000000000000000000000000000000PES00010000001000000000000000000000000
202008030010001400000000000000014755000000000000000147558000000000020385092653ALDERETE CLAUDIO FABIAN       000000002838434000000000000000000000000000000000000000000000000000000000000000000000000000000000000000000000000000000000PES00010000001000000000000000000000000
202008030010001400000000000000014756000000000000000147568000000000030505517632VICENTE TRAPANI SA            000000000466540000000000000000000000000000000000000000000000000000000000000000000000000000000000000000000000000000000000PES00010000001000000000000000000000000
202008030010005200000000000000000258000000000000000002588000000000030708067837AGRICOLA DE LEALES SC         000000002789759000000000000000000000000000000000000000000000000000000000000000000000000000000000000000000000000000000000PES00010000001000000000026509000000000
202008030010005200000000000000000259000000000000000002598000000000020053962697DEL PERO PEDRO DOMINGO        000000021758666000000000000000000000000000000000000000000000000000000000000000000000000000000000000000000000000000000000PES00010000001000000000206756600000000
202008030060001100000000000000000218000000000000000002188000000000023118285999BREMBILLA FERNANDO M (ST)     000000007950000000000000000000000000000000000000000000000000000000000000000000000000000000000000000000000000000001416825PES00010000001000000000000000000000000
202008030060001100000000000000000219000000000000000002198000000000020179265177GUTIERREZ JUAN MANUEL (ST)    000000005299999000000000000000000000000000000000000000000000000000000000000000000000000000000000000000000000000000944550PES00010000001000000000000000000000000
202008030060001100000000000000000220000000000000000002208000000000033638640789DIRECCION PROVINCIAL DE VIALID000000056800000000000000000000000000000000000000000000000000000000000000000000000000000000000000000000000000000009445500PES00010000001000000000000000000000000
202008030060001400000000000000004017000000000000000040178000000000020232392461GEREZ SERGIO GUSTAVO          000000005014618000000000000000000000000000000000000000000000000000000000000000000000000000000000000000000000000000000000PES00010000001000000000000000000000000
202008030060001400000000000000004018000000000000000040188000000000020174643041VILLALOBO CESAR ALBERTO       000000000396553000000000000000000000000000000000000000000000000000000000000000000000000000000000000000000000000000000000PES00010000001000000000000000000000000
202008030030001500000000000000000101000000000000000001018000000000030546689979YPF SA                        000000087991725000000000000000000000000000000000000000000000000000000000000000000000000000000000000000000000000000000000PES00010000001000000000836120500000000
202008030030001100000000000000000518000000000000000005188000000000020399744939MIRANDA ARIEL MATIAS (ST)     000000021199998000000000000000000000000000000000000000000000000000000000000000000000000000000000000000000000000003778200PES00010000001000000000000000000000000
202008030030001100000000000000000519000000000000000005198000000000020399744939MIRANDA ARIEL MATIAS (ST)     000000031799997000000000000000000000000000000000000000000000000000000000000000000000000000000000000000000000000005667300PES00010000001000000000000000000000000
202008030030001100000000000000000520000000000000000005208000000000030707985115TRAPICHE SA                   000000049050567000000000000000000000000000000000000000000000000000000000000000000000000000000000000000000000000000000000PES00010000001000000000466091400000000
202008030030001400000000000000002271000000000000000022718000000000030506230914CITROMAX S.A.C.I              000000007996476000000000000000000000000000000000000000000000000000000000000000000000000000000000000000000000000000000000PES00010000001000000000000000000000000
202008030030001400000000000000002272000000000000000022728000000000030685655329PRODUCCION SA                 000000001889410000000000000000000000000000000000000000000000000000000000000000000000000000000000000000000000000000000000PES00010000001000000000000000000000000
202008030030001400000000000000002273000000000000000022738000000000030702380339DANOVIS S.A                   000000015043853000000000000000000000000000000000000000000000000000000000000000000000000000000000000000000000000000000000PES00010000001000000000000000000000000
202008030030001400000000000000002274000000000000000022748000000000030715196081SERGIO MORALES SRL            000000000298628000000000000000000000000000000000000000000000000000000000000000000000000000000000000000000000000000000000PES00010000001000000000000000000000000
202008030020001100000000000000000211000000000000000002118000000000030707985115TRAPICHE SA                   000000049050567000000000000000000000000000000000000000000000000000000000000000000000000000000000000000000000000000000000PES00010000001000000000466091400000000
202008030020001100000000000000000212000000000000000002128000000000030707985115TRAPICHE SA                   000000002058586000000000000000000000000000000000000000000000000000000000000000000000000000000000000000000000000000000000PES00010000001000000000019561200000000
202008040010001100000000000000010805000000000000000108058000000000030714429732AGRO SERVICIOS SH             000000005350000000000000000000000000000000000000000000000000000000000000000000000000000000000000000000000000000000944550PES00010000001000000000000000000000000
202008040010001100000000000000010806000000000000000108068000000000030668085071LA JUSTINA SA                 000000056000000000000000000000000000000000000000000000000000000000000000000000000000000000000000000000000000000009445500PES00010000001000000000000000000000000
202008040010001100000000000000010807000000000000000108078000000000030620919922RF y J BUDEGUER SRL           000000008250001000000000000000000000000000000000000000000000000000000000000000000000000000000000000000000000000001416825PES00010000001000000000000000000000000
202008040010001100000000000000010808000000000000000108088000000000030626009618EXPRESO RIVADAVIA SRL         000000017977440000000000000000000000000000000000000000000000000000000000000000000000000000000000000000000000000003265498PES00010000001000000000000000000000000
202008040010001100000000000000010809000000000000000108098000000000030714057355ZAFIROS DEL NOA SA            000000005600000000000000000000000000000000000000000000000000000000000000000000000000000000000000000000000000000000944550PES00010000001000000000000000000000000
202008040010001400000000000000014757000000000000000147578000000000030711642532CENTRO DE SERVICIOS DEL ESTE S000000006926601000000000000000000000000000000000000000000000000000000000000000000000000000000000000000000000000000000000PES00010000001000000000000000000000000
202008040010001400000000000000014758000000000000000147588000000000027284964425RACEDO ROSANA ESTER           000000002615593000000000000000000000000000000000000000000000000000000000000000000000000000000000000000000000000000000000PES00010000001000000000000000000000000
202008040010001400000000000000014759000000000000000147598000000000030685655329PRODUCCION SA                 000000002507309000000000000000000000000000000000000000000000000000000000000000000000000000000000000000000000000000000000PES00010000001000000000000000000000000
202008040010001400000000000000014760000000000000000147608000000000020202851356RODA SERGIO ESTEBAN           000000001397470000000000000000000000000000000000000000000000000000000000000000000000000000000000000000000000000000000000PES00010000001000000000000000000000000
202008040010001400000000000000014761000000000000000147618000000000020070077176GHIGGIA JOSE ALFREDO          000000005963818000000000000000000000000000000000000000000000000000000000000000000000000000000000000000000000000000000000PES00010000001000000000000000000000000
202008040010001400000000000000014762000000000000000147628000000000030708995327EL BAYO SERVICIOS AGROPECUARIO000000000562694000000000000000000000000000000000000000000000000000000000000000000000000000000000000000000000000000000000PES00010000001000000000000000000000000
202008040010001400000000000000014763000000000000000147638000000000030639041545AGRO CARGAS SA                000000000405666000000000000000000000000000000000000000000000000000000000000000000000000000000000000000000000000000000000PES00010000001000000000000000000000000
202008040010001400000000000000014764000000000000000147648000000000023070919249HERRERA JORGE ARMANDO         000000000993950000000000000000000000000000000000000000000000000000000000000000000000000000000000000000000000000000000000PES00010000001000000000000000000000000
202008040010001400000000000000014765000000000000000147658000000000020202185658AHUMADA ROBERTO               000000003265018000000000000000000000000000000000000000000000000000000000000000000000000000000000000000000000000000000000PES00010000001000000000000000000000000
202008040010001400000000000000014766000000000000000147668000000000027252553512VIZCARRA ANALIA DEL VALLE     000000005014618000000000000000000000000000000000000000000000000000000000000000000000000000000000000000000000000000000000PES00010000001000000000000000000000000
202008040010001600000000000000000779000000000000000007798000000000030707728805PROYECTOS METALURGICOS S.A.   000000001274641000000000000000000000000000000000000000000000000000000000000000000000000000000000000000000000000000000000PES00010000001000000000000000000000000
202008040010005100000000000000000229000000000000000002298000000000030711313377NAVEL SRL                     000000002878772000000000000000000000000000000000000000000000000000000000000000000000000000000000000000000000000000000000PES00010000001000000000000000000000000
202008040010005200000000000000000260000000000000000002608000000000020128926012GUILLEN EDUARDO               000000097603943000000000000000000000000000000000000000000000000000000000000000000000000000000000000000000000000000000000PES00010000001000000000927458300000000
202008040010005200000000000000000261000000000000000002618000000000030708067837AGRICOLA DE LEALES SC         000000001999174000000000000000000000000000000000000000000000000000000000000000000000000000000000000000000000000000000000PES00010000001000000000018996700000000
202008040010020000000000000000000056000000000000000000568000000000030515488479YPF GAS SA                    000000058020189000000000000000000000000000000000000000000000000000000000000000000000000000000000000000000000000000000000PES00010000001000000000000000000000000
202008040060001400000000000000004019000000000000000040198000000000020127334154QUIROGA JUAN CARLOS           000000002969272000000000000000000000000000000000000000000000000000000000000000000000000000000000000000000000000000000000PES00010000001000000000000000000000000
202008040030001500000000000000000102000000000000000001028000000000030546689979YPF SA                        000000088308329000000000000000000000000000000000000000000000000000000000000000000000000000000000000000000000000000000000PES00010000001000000000839128900000000
20200804FACA0020000000000000000000006000000000000000000068000000000030515488479YPF GAS SA                    000000058020189000000000000000000000000000000000000000000000000000000000000000000000000000000000000000000000000000000000PES00010000001000000000000000000000000
202008040030001400000000000000002275000000000000000022758000000000020171369593FERNANDEZ LUIS ALBERTO        000000002694424000000000000000000000000000000000000000000000000000000000000000000000000000000000000000000000000000000000PES00010000001000000000000000000000000
202008040030001400000000000000002276000000000000000022768000000000020202185658AHUMADA ROBERTO               000000000286233000000000000000000000000000000000000000000000000000000000000000000000000000000000000000000000000000000000PES00010000001000000000000000000000000
202008040030001400000000000000002277000000000000000022778000000000020202185658AHUMADA ROBERTO               000000000298698000000000000000000000000000000000000000000000000000000000000000000000000000000000000000000000000000000000PES00010000001000000000000000000000000
202008040080001400000000000000000679000000000000000006798000000000027230204255PAZ SILVIA PATRICIA           000000000733642000000000000000000000000000000000000000000000000000000000000000000000000000000000000000000000000000000000PES00010000001000000000000000000000000
202008040020001100000000000000000213000000000000000002138000000000020128926012GUILLEN EDUARDO               000000004727759000000000000000000000000000000000000000000000000000000000000000000000000000000000000000000000000000000000PES00010000001000000000044924400000000
202008050010001100000000000000010810000000000000000108108000000000030626009618EXPRESO RIVADAVIA SRL         000000010479560000000000000000000000000000000000000000000000000000000000000000000000000000000000000000000000000001903552PES00010000001000000000000000000000000
202008050010001100000000000000010811000000000000000108118000000000020351937751MARIN GUIDO ALEJANDRO         000000053000000000000000000000000000000000000000000000000000000000000000000000000000000000000000000000000000000009445500PES00010000001000000000000000000000000
202008050010001100000000000000010812000000000000000108128000000000020229248813PEDRAZA PEDRO ANTONIO         000000010600000000000000000000000000000000000000000000000000000000000000000000000000000000000000000000000000000001889100PES00010000001000000000000000000000000
202008050010001100000000000000010813000000000000000108138000000000020060852600ACUNA JOSE DOMINGO            000000005400000000000000000000000000000000000000000000000000000000000000000000000000000000000000000000000000000000944550PES00010000001000000000000000000000000
202008050010001100000000000000010814000000000000000108148000000000020185059007VITAR MANUEL FERNANDO         000000008250001000000000000000000000000000000000000000000000000000000000000000000000000000000000000000000000000001416825PES00010000001000000000000000000000000
202008050010001100000000000000010815000000000000000108158000000000020296858537VIEYRA JORGE LINO             000000008250001000000000000000000000000000000000000000000000000000000000000000000000000000000000000000000000000001416825PES00010000001000000000000000000000000
202008050010001100000000000000010816000000000000000108168000000000020085900510MENTEL MANUEL PAULO           000000016200000000000000000000000000000000000000000000000000000000000000000000000000000000000000000000000000000002833650PES00010000001000000000000000000000000
202008050010001100000000000000010817000000000000000108178000000000030715098551SUCROALCOHOLERA DEL SUR SA    000000088400000000000000000000000000000000000000000000000000000000000000000000000000000000000000000000000000000016057350PES00010000001000000000000000000000000
202008050010001100000000000000010818000000000000000108188000000000023291350399SILVA SERGIO EDUARDO          000000089590000000000000000000000000000000000000000000000000000000000000000000000000000000000000000000000000000016057350PES00010000001000000000000000000000000
202008050010001400000000000000014767000000000000000147678000000000020080676396ARGENTE DOMINGO ANDRES        000000000733500000000000000000000000000000000000000000000000000000000000000000000000000000000000000000000000000000000000PES00010000001000000000000000000000000
202008050010001400000000000000014768000000000000000147688000000000033708025939CIA YESERA  DEL NORTE SRL     000000002665492000000000000000000000000000000000000000000000000000000000000000000000000000000000000000000000000000000000PES00010000001000000000000000000000000
202008050010001400000000000000014769000000000000000147698000000000027060678443CACERES VICTORIA DEL CARMEN   000000002212962000000000000000000000000000000000000000000000000000000000000000000000000000000000000000000000000000000000PES00010000001000000000000000000000000
202008050010001400000000000000014770000000000000000147708000000000030714764310ARIAS DANTE,VICTOR Y WILLIAM S000000002936922000000000000000000000000000000000000000000000000000000000000000000000000000000000000000000000000000000000PES00010000001000000000000000000000000
202008050010001400000000000000014771000000000000000147718000000000030685674226BLAZQUEZ SRL                  000000000401486000000000000000000000000000000000000000000000000000000000000000000000000000000000000000000000000000000000PES00010000001000000000000000000000000
202008050010001400000000000000014772000000000000000147728000000000023142250829RODRIGUEZ CARLOS DANIEL       000000000349705000000000000000000000000000000000000000000000000000000000000000000000000000000000000000000000000000000000PES00010000001000000000000000000000000
202008050010001400000000000000014773000000000000000147738000000000030517746823SAN VALERO SRL                000000002665492000000000000000000000000000000000000000000000000000000000000000000000000000000000000000000000000000000000PES00010000001000000000000000000000000
202008050010001400000000000000014774000000000000000147748000000000033707560679LA MARTINA SERVICIOS AGRICOLAS000000003294338000000000000000000000000000000000000000000000000000000000000000000000000000000000000000000000000000000000PES00010000001000000000000000000000000
202008050010001400000000000000014775000000000000000147758000000000030708724560LA ASTURIANA S.R.L            000000000842924000000000000000000000000000000000000000000000000000000000000000000000000000000000000000000000000000000000PES00010000001000000000000000000000000
202008050010001400000000000000014776000000000000000147768000000000020285315671ROTH GERARDO ARIEL            000000004169799000000000000000000000000000000000000000000000000000000000000000000000000000000000000000000000000000000000PES00010000001000000000000000000000000
202008050010001400000000000000014777000000000000000147778000000000030716484129TRAPANI FRESH                 000000003600077000000000000000000000000000000000000000000000000000000000000000000000000000000000000000000000000000000000PES00010000001000000000000000000000000
202008050010001400000000000000014778000000000000000147788000000000020112391909MAX CARLOS ALBERTO            000000000451735000000000000000000000000000000000000000000000000000000000000000000000000000000000000000000000000000000000PES00010000001000000000000000000000000
202008050010005200000000000000000262000000000000000002628000000000027275951353GALVEZ AGUEDA FABIOLA         000000001985481000000000000000000000000000000000000000000000000000000000000000000000000000000000000000000000000000000000PES00010000001000000000018866600000000
202008050010005200000000000000000263000000000000000002638000000000030639227096INTRA S.R.L.                  000000016100017000000000000000000000000000000000000000000000000000000000000000000000000000000000000000000000000000000000PES00010000001000000000152986600000000
202008050010020000000000000000000057000000000000000000578000000000030515488479YPF GAS SA                    000000085000161000000000000000000000000000000000000000000000000000000000000000000000000000000000000000000000000000000000PES00010000001000000000000000000000000
202008050060001100000000000000000221000000000000000002218000000000033638640789DIRECCION PROVINCIAL DE VIALID000000045440000000000000000000000000000000000000000000000000000000000000000000000000000000000000000000000000000007556400PES00010000001000000000000000000000000
202008050060001400000000000000004020000000000000000040208000000000027330509037AVILA NADIA NOELIA            000000003284891000000000000000000000000000000000000000000000000000000000000000000000000000000000000000000000000000000000PES00010000001000000000000000000000000
202008050060001400000000000000004021000000000000000040218000000000020217460574SECO FLAVIO DANIEL            000000003430630000000000000000000000000000000000000000000000000000000000000000000000000000000000000000000000000000000000PES00010000001000000000000000000000000
202008050060001600000000000000000245000000000000000002458000000000033638640789DIRECCION PROVINCIAL DE VIALID000001475000000000000000000000000000000000000000000000000000000000000000000000000000000000000000000000000000000000000000PES00010000001000000000000000000000000
202008050030001500000000000000000103000000000000000001038000000000030546689979YPF SA                        000000004137796000000000000000000000000000000000000000000000000000000000000000000000000000000000000000000000000000000000PES00010000001000000000039318400000000
202008060010001100000000000000010819000000000000000108198000000000030713014601MAELI SRL                     000000016200000000000000000000000000000000000000000000000000000000000000000000000000000000000000000000000000000002833650PES00010000001000000000000000000000000
202008060010001100000000000000010820000000000000000108208000000000030715098551SUCROALCOHOLERA DEL SUR SA    000000088400000000000000000000000000000000000000000000000000000000000000000000000000000000000000000000000000000016057350PES00010000001000000000000000000000000
202008060010001100000000000000010821000000000000000108218000000000030626009618EXPRESO RIVADAVIA SRL         000000019777160000000000000000000000000000000000000000000000000000000000000000000000000000000000000000000000000003592407PES00010000001000000000000000000000000
202008060010001100000000000000010822000000000000000108228000000000030707976957AGRO LAJITAS SA               000000018000001000000000000000000000000000000000000000000000000000000000000000000000000000000000000000000000000002833650PES00010000001000000000000000000000000
202008060010001100000000000000010823000000000000000108238000000000030708724560LA ASTURIANA S.R.L            000000022000001000000000000000000000000000000000000000000000000000000000000000000000000000000000000000000000000003778200PES00010000001000000000000000000000000
202008060010001100000000000000010824000000000000000108248000000000020230271403ROTH CARLOS GERMAN            000000039959999000000000000000000000000000000000000000000000000000000000000000000000000000000000000000000000000006989670PES00010000001000000000000000000000000
202008060010001100000000000000010825000000000000000108258000000000020285315671ROTH GERARDO ARIEL            000000016200000000000000000000000000000000000000000000000000000000000000000000000000000000000000000000000000000002833650PES00010000001000000000000000000000000
202008060010001400000000000000014779000000000000000147798000000000030709702390YABITEL SA                    000000056311059000000000000000000000000000000000000000000000000000000000000000000000000000000000000000000000000000000000PES00010000001000000000000000000000000
202008060010001400000000000000014780000000000000000147808000000000030675415087CIA AZUCARERA LOS BALCANES SA 000000006760621000000000000000000000000000000000000000000000000000000000000000000000000000000000000000000000000000000000PES00010000001000000000000000000000000
202008060010001400000000000000014781000000000000000147818000000000030675415087CIA AZUCARERA LOS BALCANES SA 000000008298046000000000000000000000000000000000000000000000000000000000000000000000000000000000000000000000000000000000PES00010000001000000000000000000000000
202008060010001400000000000000014782000000000000000147828000000000020377280378SZMYD JESUS EMMANUEL          000000007305103000000000000000000000000000000000000000000000000000000000000000000000000000000000000000000000000000000000PES00010000001000000000000000000000000
202008060010001400000000000000014783000000000000000147838000000000020130408037DIAZ FRANCISCO                000000004169799000000000000000000000000000000000000000000000000000000000000000000000000000000000000000000000000000000000PES00010000001000000000000000000000000
202008060010001400000000000000014784000000000000000147848000000000020135630110MENA CARLOS ADOLFO            000000000751533000000000000000000000000000000000000000000000000000000000000000000000000000000000000000000000000000000000PES00010000001000000000000000000000000
202008060010001400000000000000014785000000000000000147858000000000020100150582MEDINA BENIGNO NOLASCO        000000011309943000000000000000000000000000000000000000000000000000000000000000000000000000000000000000000000000000000000PES00010000001000000000000000000000000
202008060010001400000000000000014786000000000000000147868000000000030523408247CERAMICA MARCOS PAZ SRL       000000013630594000000000000000000000000000000000000000000000000000000000000000000000000000000000000000000000000000000000PES00010000001000000000000000000000000
202008060010001400000000000000014787000000000000000147878000000000030715144243INGENIERIA MANTENIMIENTO Y SER000000003345024000000000000000000000000000000000000000000000000000000000000000000000000000000000000000000000000000000000PES00010000001000000000000000000000000
202008060010001400000000000000014788000000000000000147888000000000030712272542OLGA ZOTTOLA DE SIMONETO E HIJ000000004512659000000000000000000000000000000000000000000000000000000000000000000000000000000000000000000000000000000000PES00010000001000000000000000000000000
202008060010001400000000000000014789000000000000000147898000000000030712272542OLGA ZOTTOLA DE SIMONETO E HIJ000000000753451000000000000000000000000000000000000000000000000000000000000000000000000000000000000000000000000000000000PES00010000001000000000000000000000000
202008060010001400000000000000014790000000000000000147908000000000033707560679LA MARTINA SERVICIOS AGRICOLAS000000009215641000000000000000000000000000000000000000000000000000000000000000000000000000000000000000000000000000000000PES00010000001000000000000000000000000
202008060010001400000000000000014791000000000000000147918000000000030711642532CENTRO DE SERVICIOS DEL ESTE S000000002507309000000000000000000000000000000000000000000000000000000000000000000000000000000000000000000000000000000000PES00010000001000000000000000000000000
202008060010001400000000000000014792000000000000000147928000000000030649696736RONDEAU SRL                   000000006010516000000000000000000000000000000000000000000000000000000000000000000000000000000000000000000000000000000000PES00010000001000000000000000000000000
202008060010001400000000000000014793000000000000000147938000000000020112391909MAX CARLOS ALBERTO            000000001199052000000000000000000000000000000000000000000000000000000000000000000000000000000000000000000000000000000000PES00010000001000000000000000000000000
202008060010001400000000000000014794000000000000000147948000000000030712340033POWER SRL                     000000001123887000000000000000000000000000000000000000000000000000000000000000000000000000000000000000000000000000000000PES00010000001000000000000000000000000
202008060010001600000000000000000780000000000000000007808000000000030712340033POWER SRL                     000000000787262000000000000000000000000000000000000000000000000000000000000000000000000000000000000000000000000000000000PES00010000001000000000000000000000000
202008060010005200000000000000000264000000000000000002648000000000030708067837AGRICOLA DE LEALES SC         000000199665858000000000000000000000000000000000000000000000000000000000000000000000000000000000000000000000000000000000PES00010000001000000001897277400000000
202008060060001100000000000000000222000000000000000002228000000000033638640789DIRECCION PROVINCIAL DE VIALID000000025560000000000000000000000000000000000000000000000000000000000000000000000000000000000000000000000000000004250475PES00010000001000000000000000000000000
202008060030001400000000000000002278000000000000000022788000000000030710745613EMPRESA LIBERTAD SRL UTE      000000000298628000000000000000000000000000000000000000000000000000000000000000000000000000000000000000000000000000000000PES00010000001000000000000000000000000
202008060030001400000000000000002279000000000000000022798000000000030710745613EMPRESA LIBERTAD SRL UTE      000000000334502000000000000000000000000000000000000000000000000000000000000000000000000000000000000000000000000000000000PES00010000001000000000000000000000000
202008070010001100000000000000010826000000000000000108268000000000030709628255PACTA SRL                     000000016200000000000000000000000000000000000000000000000000000000000000000000000000000000000000000000000000000003148500PES00010000001000000000000000000000000
202008070010001100000000000000010827000000000000000108278000000000030710080271LA RONDA S.R.L.               000000016350000000000000000000000000000000000000000000000000000000000000000000000000000000000000000000000000000003148500PES00010000001000000000000000000000000
202008070010001100000000000000010828000000000000000108288000000000030710383126TM ROLDAN SRL                 000000004950000000000000000000000000000000000000000000000000000000000000000000000000000000000000000000000000000000944550PES00010000001000000000000000000000000
202008070010001100000000000000010829000000000000000108298000000000030626009618EXPRESO RIVADAVIA SRL         000000016787160000000000000000000000000000000000000000000000000000000000000000000000000000000000000000000000000003388101PES00010000001000000000000000000000000
202008070010001100000000000000010830000000000000000108308000000000030715098551SUCROALCOHOLERA DEL SUR SA    000000088400000000000000000000000000000000000000000000000000000000000000000000000000000000000000000000000000000017841500PES00010000001000000000000000000000000
202008070010001400000000000000014795000000000000000147958000000000020290448515VILLALON MARTIN ANTONIO       000000001503067000000000000000000000000000000000000000000000000000000000000000000000000000000000000000000000000000000000PES00010000001000000000000000000000000
202008070010001400000000000000014796000000000000000147968000000000030715098551SUCROALCOHOLERA DEL SUR SA    000000007201714000000000000000000000000000000000000000000000000000000000000000000000000000000000000000000000000000000000PES00010000001000000000000000000000000
202008070010001400000000000000014797000000000000000147978000000000020167538909BARRIONUEVO JOSE HUMBERTO     000000000475311000000000000000000000000000000000000000000000000000000000000000000000000000000000000000000000000000000000PES00010000001000000000000000000000000
202008070010001400000000000000014798000000000000000147988000000000033715861459GRUPO MUNOZ SRL               000000003870235000000000000000000000000000000000000000000000000000000000000000000000000000000000000000000000000000000000PES00010000001000000000000000000000000
202008070010001400000000000000014799000000000000000147998000000000023311284339CARRASCO RAUL RICARDO         000000004294509000000000000000000000000000000000000000000000000000000000000000000000000000000000000000000000000000000000PES00010000001000000000000000000000000
202008070010001400000000000000014800000000000000000148008000000000027284964425RACEDO ROSANA ESTER           000000001790015000000000000000000000000000000000000000000000000000000000000000000000000000000000000000000000000000000000PES00010000001000000000000000000000000
202008070010001400000000000000014801000000000000000148018000000000020085182987VALLEJO JUAN GUILLERMO        000000004473791000000000000000000000000000000000000000000000000000000000000000000000000000000000000000000000000000000000PES00010000001000000000000000000000000
202008070010001400000000000000014802000000000000000148028000000000020263850980CHAYA SEBASTIAN ENRIQUE       000000001268257000000000000000000000000000000000000000000000000000000000000000000000000000000000000000000000000000000000PES00010000001000000000000000000000000
202008070010001400000000000000014803000000000000000148038000000000033707560679LA MARTINA SERVICIOS AGRICOLAS000000000401486000000000000000000000000000000000000000000000000000000000000000000000000000000000000000000000000000000000PES00010000001000000000000000000000000
202008070010001400000000000000014804000000000000000148048000000000027412750093PARADI ROCIO NAHIR            000000007529379000000000000000000000000000000000000000000000000000000000000000000000000000000000000000000000000000000000PES00010000001000000000000000000000000
202008070010001400000000000000014805000000000000000148058000000000030504549328INGECO SA                     000000001382887000000000000000000000000000000000000000000000000000000000000000000000000000000000000000000000000000000000PES00010000001000000000000000000000000
202008070010001400000000000000014806000000000000000148068000000000030504549328INGECO SA                     000000004408005000000000000000000000000000000000000000000000000000000000000000000000000000000000000000000000000000000000PES00010000001000000000000000000000000
202008070010001400000000000000014807000000000000000148078000000000030502755206SA RODRIGUEZ HNOS CIFA        000000000396553000000000000000000000000000000000000000000000000000000000000000000000000000000000000000000000000000000000PES00010000001000000000000000000000000
202008070010001400000000000000014808000000000000000148088000000000020296739554MUHIC GIANNI MIRKO            000000004795074000000000000000000000000000000000000000000000000000000000000000000000000000000000000000000000000000000000PES00010000001000000000000000000000000
202008070010001400000000000000014809000000000000000148098000000000027176136168JUAREZ SILVIA MONICA          000000004579940000000000000000000000000000000000000000000000000000000000000000000000000000000000000000000000000000000000PES00010000001000000000000000000000000
202008070010001600000000000000000781000000000000000007818000000000030504549328INGECO SA                     000000000734791000000000000000000000000000000000000000000000000000000000000000000000000000000000000000000000000000000000PES00010000001000000000000000000000000
202008070010001600000000000000000782000000000000000007828000000000020296739554MUHIC GIANNI MIRKO            000000001002452000000000000000000000000000000000000000000000000000000000000000000000000000000000000000000000000000000000PES00010000001000000000000000000000000
202008070010005200000000000000000265000000000000000002658000000000020166829489GOMEZ NESTOR NICOLAS          000000053999995000000000000000000000000000000000000000000000000000000000000000000000000000000000000000000000000000000000PES00010000001000000000513122100000000
202008070060001400000000000000004022000000000000000040228000000000027058767196SARAVIA ELDA SINFOROSA        000000002507309000000000000000000000000000000000000000000000000000000000000000000000000000000000000000000000000000000000PES00010000001000000000000000000000000
202008070060001400000000000000004023000000000000000040238000000000020287904097MATIUZZI ALFREDO              000000000946376000000000000000000000000000000000000000000000000000000000000000000000000000000000000000000000000000000000PES00010000001000000000000000000000000
202008070030001500000000000000000104000000000000000001048000000000030546689979YPF SA                        000000002239147000000000000000000000000000000000000000000000000000000000000000000000000000000000000000000000000000000000PES00010000001000000000038861200000000
202008070030001500000000000000000105000000000000000001058000000000030546689979YPF SA                        000000175166066000000000000000000000000000000000000000000000000000000000000000000000000000000000000000000000000000000000PES00010000001000000001664473900000000
202008070030001400000000000000002280000000000000000022808000000000020281512952VACA SERGIO MANUEL            000000000356394000000000000000000000000000000000000000000000000000000000000000000000000000000000000000000000000000000000PES00010000001000000000000000000000000
202008070030001400000000000000002281000000000000000022818000000000030714764310ARIAS DANTE,VICTOR Y WILLIAM S000000000472554000000000000000000000000000000000000000000000000000000000000000000000000000000000000000000000000000000000PES00010000001000000000000000000000000
202008080010001100000000000000010831000000000000000108318000000000023327269054SAAVEDRA NATALIA DEL VALLE    000000008475000000000000000000000000000000000000000000000000000000000000000000000000000000000000000000000000000001574250PES00010000001000000000000000000000000
202008080010001100000000000000010832000000000000000108328000000000030715261517SERCOU SRL                    000000008025000000000000000000000000000000000000000000000000000000000000000000000000000000000000000000000000000001574250PES00010000001000000000000000000000000
202008080010001100000000000000010833000000000000000108338000000000030691782057DARDO JESUS SH                000000010773001000000000000000000000000000000000000000000000000000000000000000000000000000000000000000000000000002093753PES00010000001000000000000000000000000
202008080010001100000000000000010834000000000000000108348000000000027122721987IBANEZ MARTA NORMA            000000005400001000000000000000000000000000000000000000000000000000000000000000000000000000000000000000000000000001049500PES00010000001000000000000000000000000
202008080010001100000000000000010835000000000000000108358000000000027275951353GALVEZ AGUEDA FABIOLA         000000005400001000000000000000000000000000000000000000000000000000000000000000000000000000000000000000000000000001049500PES00010000001000000000000000000000000
202008080010001100000000000000010836000000000000000108368000000000030715098551SUCROALCOHOLERA DEL SUR SA    000000088400000000000000000000000000000000000000000000000000000000000000000000000000000000000000000000000000000017841500PES00010000001000000000000000000000000
202008080010001100000000000000010837000000000000000108378000000000023291350399SILVA SERGIO EDUARDO          000000089590000000000000000000000000000000000000000000000000000000000000000000000000000000000000000000000000000017841500PES00010000001000000000000000000000000
202008080010001100000000000000010838000000000000000108388000000000030626009618EXPRESO RIVADAVIA SRL         000000007505680000000000000000000000000000000000000000000000000000000000000000000000000000000000000000000000000001514848PES00010000001000000000000000000000000
202008080010001400000000000000014810000000000000000148108000000000030707927948FGF TRAPANI SA                000000002533539000000000000000000000000000000000000000000000000000000000000000000000000000000000000000000000000000000000PES00010000001000000000000000000000000
202008080010001400000000000000014811000000000000000148118000000000027176136168JUAREZ SILVIA MONICA          000000003116344000000000000000000000000000000000000000000000000000000000000000000000000000000000000000000000000000000000PES00010000001000000000000000000000000
202008080010001400000000000000014812000000000000000148128000000000020296739554MUHIC GIANNI MIRKO            000000002413131000000000000000000000000000000000000000000000000000000000000000000000000000000000000000000000000000000000PES00010000001000000000000000000000000
202008080030001400000000000000002282000000000000000022828000000000020296739554MUHIC GIANNI MIRKO            000000004795074000000000000000000000000000000000000000000000000000000000000000000000000000000000000000000000000000000000PES00010000001000000000000000000000000
202008100010001100000000000000010839000000000000000108398000000000030714391530AFISA SRL (ST)                000000026500001000000000000000000000000000000000000000000000000000000000000000000000000000000000000000000000000005247500PES00010000001000000000000000000000000
202008100010001100000000000000010840000000000000000108408000000000020342268081CANO ARON JOSE VICTOR (ST)    000000013250000000000000000000000000000000000000000000000000000000000000000000000000000000000000000000000000000002623750PES00010000001000000000000000000000000
202008100010001100000000000000010841000000000000000108418000000000030709767905COOP AGROPECUARIA LOS BARRIENT000000021200000000000000000000000000000000000000000000000000000000000000000000000000000000000000000000000000000004198000PES00010000001000000000000000000000000
202008100010001100000000000000010842000000000000000108428000000000030714922013DON BETO SRL (ST)             000000015900000000000000000000000000000000000000000000000000000000000000000000000000000000000000000000000000000003148500PES00010000001000000000000000000000000
202008100010001100000000000000010843000000000000000108438000000000023208986309GUTIERREZ JORGE LUIS (ST)     000000005300000000000000000000000000000000000000000000000000000000000000000000000000000000000000000000000000000001049500PES00010000001000000000000000000000000
202008100010001100000000000000010844000000000000000108448000000000030716819856INDUSTRIAS SANTA BARBARA SRL E000000015900000000000000000000000000000000000000000000000000000000000000000000000000000000000000000000000000000003148500PES00010000001000000000000000000000000
202008100010001100000000000000010845000000000000000108458000000000020173378603JUAREZ ANTONIO ARMANDO (ST)   000000015900000000000000000000000000000000000000000000000000000000000000000000000000000000000000000000000000000003148500PES00010000001000000000000000000000000
202008100010001100000000000000010846000000000000000108468000000000030510885321LA BANDA SRL (ST)             000000053000001000000000000000000000000000000000000000000000000000000000000000000000000000000000000000000000000010495000PES00010000001000000000000000000000000
202008100010001100000000000000010847000000000000000108478000000000020399744939MIRANDA ARIEL MATIAS (ST)     000000015900000000000000000000000000000000000000000000000000000000000000000000000000000000000000000000000000000003148500PES00010000001000000000000000000000000
202008100010001100000000000000010848000000000000000108488000000000020253200805VILLAFANE ARIEL HUGO (ST)     000000007950000000000000000000000000000000000000000000000000000000000000000000000000000000000000000000000000000001574250PES00010000001000000000000000000000000
202008100010001100000000000000010849000000000000000108498000000000030710010680ZAPULLA JOSE E Y G SALVADOR SH000000031800001000000000000000000000000000000000000000000000000000000000000000000000000000000000000000000000000006297000PES00010000001000000000000000000000000
202008100010001100000000000000010850000000000000000108508000000000030715098551SUCROALCOHOLERA DEL SUR SA    000000088400000000000000000000000000000000000000000000000000000000000000000000000000000000000000000000000000000017841500PES00010000001000000000000000000000000
202008100010001100000000000000010851000000000000000108518000000000030710010680ZAPULLA JOSE E Y G SALVADOR SH000000005300000000000000000000000000000000000000000000000000000000000000000000000000000000000000000000000000000001049500PES00010000001000000000000000000000000
202008100010001100000000000000010852000000000000000108528000000000030714966312FYL TRANS SRL                 000000015450000000000000000000000000000000000000000000000000000000000000000000000000000000000000000000000000000003148500PES00010000001000000000000000000000000
202008100010001100000000000000010853000000000000000108538000000000030626009618EXPRESO RIVADAVIA SRL         000000017687280000000000000000000000000000000000000000000000000000000000000000000000000000000000000000000000000003569769PES00010000001000000000000000000000000
202008100010001100000000000000010854000000000000000108548000000000030708913266TRANSPORTE HACHA DE PIEDRA SRL000000035692590000000000000000000000000000000000000000000000000000000000000000000000000000000000000000000000000007273665PES00010000001000000000000000000000000
202008100010001100000000000000010855000000000000000108558000000000030714575860SYNBUILD SA                   000000003240000000000000000000000000000000000000000000000000000000000000000000000000000000000000000000000000000000629700PES00010000001000000000000000000000000
202008100010001100000000000000010856000000000000000108568000000000020229693868ROTTA MANUEL JUAN             000000032400003000000000000000000000000000000000000000000000000000000000000000000000000000000000000000000000000006297000PES00010000001000000000000000000000000
202008100010001400000000000000014813000000000000000148138000000000020114758338CARRERA FRANCISCO EDUARDO     000000000639566000000000000000000000000000000000000000000000000000000000000000000000000000000000000000000000000000000000PES00010000001000000000000000000000000
202008100010001400000000000000014814000000000000000148148000000000030712577807LAS VALKIRIAS SRL             000000010029235000000000000000000000000000000000000000000000000000000000000000000000000000000000000000000000000000000000PES00010000001000000000000000000000000
202008100010001400000000000000014815000000000000000148158000000000020229248813PEDRAZA PEDRO ANTONIO         000000001069434000000000000000000000000000000000000000000000000000000000000000000000000000000000000000000000000000000000PES00010000001000000000000000000000000
202008100010001400000000000000014816000000000000000148168000000000020437723592CHIBILISCO VENZAL AGUSTIN     000000001697913000000000000000000000000000000000000000000000000000000000000000000000000000000000000000000000000000000000PES00010000001000000000000000000000000
202008100010001400000000000000014817000000000000000148178000000000030715553712COMPLEJO AZUCARERO CONCEPCION 000000037852430000000000000000000000000000000000000000000000000000000000000000000000000000000000000000000000000000000000PES00010000001000000000000000000000000
202008100010001400000000000000014818000000000000000148188000000000030509226004MONTE BELLO SRL               000000001208811000000000000000000000000000000000000000000000000000000000000000000000000000000000000000000000000000000000PES00010000001000000000000000000000000
202008100010001400000000000000014819000000000000000148198000000000030702402146PREMOL SRL                    000000000401486000000000000000000000000000000000000000000000000000000000000000000000000000000000000000000000000000000000PES00010000001000000000000000000000000
202008100010001400000000000000014820000000000000000148208000000000030708067837AGRICOLA DE LEALES SC         000000000897381000000000000000000000000000000000000000000000000000000000000000000000000000000000000000000000000000000000PES00010000001000000000000000000000000
202008100010001400000000000000014821000000000000000148218000000000030504549328INGECO SA                     000000007464137000000000000000000000000000000000000000000000000000000000000000000000000000000000000000000000000000000000PES00010000001000000000000000000000000
202008100010001400000000000000014822000000000000000148228000000000020290448515VILLALON MARTIN ANTONIO       000000002992597000000000000000000000000000000000000000000000000000000000000000000000000000000000000000000000000000000000PES00010000001000000000000000000000000
202008100010001400000000000000014823000000000000000148238000000000020263850980CHAYA SEBASTIAN ENRIQUE       000000005185414000000000000000000000000000000000000000000000000000000000000000000000000000000000000000000000000000000000PES00010000001000000000000000000000000
202008100010001400000000000000014824000000000000000148248000000000030709704016SALSENCH SRL                  000000007987085000000000000000000000000000000000000000000000000000000000000000000000000000000000000000000000000000000000PES00010000001000000000000000000000000
202008100010001400000000000000014825000000000000000148258000000000027305981120CANGEMI IVANNA MARCELA        000000003639431000000000000000000000000000000000000000000000000000000000000000000000000000000000000000000000000000000000PES00010000001000000000000000000000000
202008100010001400000000000000014826000000000000000148268000000000030715870165LA PICK UP REPUESTOS SRL      000000035731183000000000000000000000000000000000000000000000000000000000000000000000000000000000000000000000000000000000PES00010000001000000000000000000000000
202008100010001400000000000000014827000000000000000148278000000000030505517632VICENTE TRAPANI SA            000000003752820000000000000000000000000000000000000000000000000000000000000000000000000000000000000000000000000000000000PES00010000001000000000000000000000000
202008100010005200000000000000000266000000000000000002668000000000020166829489GOMEZ NESTOR NICOLAS          000000053999995000000000000000000000000000000000000000000000000000000000000000000000000000000000000000000000000000000000PES00010000001000000000513122100000000
202008100010005200000000000000000267000000000000000002678000000000020257410197GARCIA VICTOR MANUEL          000000040021288000000000000000000000000000000000000000000000000000000000000000000000000000000000000000000000000000000000PES00010000001000000000380292800000000
202008100010005200000000000000000268000000000000000002688000000000020080835974TRAPANI IGNACIO               000000534295125000000000000000000000000000000000000000000000000000000000000000000000000000000000000000000000000000000000PES00010000001000000005077012500000000
202008100010005200000000000000000269000000000000000002698000000000020109100367QUIROGA DIEGO ABEL            000000056872748000000000000000000000000000000000000000000000000000000000000000000000000000000000000000000000000000000000PES00010000001000000000540419800000000
202008100010020000000000000000000059000000000000000000598000000000030516492747CONORVIAL S.A.                000000059000000000000000000000000000000000000000000000000000000000000000000000000000000000000000000000000000000010495000PES00010000001000000000000000000000000
202008100060001100000000000000000223000000000000000002238000000000020179265177GUTIERREZ JUAN MANUEL (ST)    000000005300000000000000000000000000000000000000000000000000000000000000000000000000000000000000000000000000000001049500PES00010000001000000000000000000000000
202008100060001400000000000000004024000000000000000040248000000000020262770851MORENO JOSE ALBERTO           000000001743568000000000000000000000000000000000000000000000000000000000000000000000000000000000000000000000000000000000PES00010000001000000000000000000000000
202008100060001400000000000000004025000000000000000040258000000000027230204255PAZ SILVIA PATRICIA           000000000985925000000000000000000000000000000000000000000000000000000000000000000000000000000000000000000000000000000000PES00010000001000000000000000000000000
202008100060001400000000000000004026000000000000000040268000000000020222334765ONTIVEROS GUSTAVO             000000007420813000000000000000000000000000000000000000000000000000000000000000000000000000000000000000000000000000000000PES00010000001000000000000000000000000
202008100060001400000000000000004027000000000000000040278000000000020112675214LIZARRAGA EDMUNDO ANTONIO     000000006282135000000000000000000000000000000000000000000000000000000000000000000000000000000000000000000000000000000000PES00010000001000000000000000000000000
202008100030001500000000000000000106000000000000000001068000000000030546689979YPF SA                        000000087362681000000000000000000000000000000000000000000000000000000000000000000000000000000000000000000000000000000000PES00010000001000000000830143100000000
202008100030001500000000000000000107000000000000000001078000000000030546689979YPF SA                        000000054827614000000000000000000000000000000000000000000000000000000000000000000000000000000000000000000000000000000000PES00010000001000000000520986400000000
202008100030001500000000000000000108000000000000000001088000000000030546689979YPF SA                        000000085474844000000000000000000000000000000000000000000000000000000000000000000000000000000000000000000000000000000000PES00010000001000000000812204400000000
202008100030001500000000000000000109000000000000000001098000000000030546689979YPF SA                        000000192318399000000000000000000000000000000000000000000000000000000000000000000000000000000000000000000000000000000000PES00010000001000000001827459900000000
202008100030001500000000000000000110000000000000000001108000000000030546689979YPF SA                        000000263038549000000000000000000000000000000000000000000000000000000000000000000000000000000000000000000000000000000000PES00010000001000000002499461300000000
202008100030001500000000000000000111000000000000000001118000000000030546689979YPF SA                        000000885275170000000000000000000000000000000000000000000000000000000000000000000000000000000000000000000000000000000000PES00010000001000000008412117000000000
202008100030001500000000000000000112000000000000000001128000000000030546689979YPF SA                        000000088527517000000000000000000000000000000000000000000000000000000000000000000000000000000000000000000000000000000000PES00010000001000000000841211700000000
202008100030001500000000000000000113000000000000000001138000000000030546689979YPF SA                        000000088527517000000000000000000000000000000000000000000000000000000000000000000000000000000000000000000000000000000000PES00010000001000000000841211700000000
202008100030001500000000000000000114000000000000000001148000000000030546689979YPF SA                        000000033426769000000000000000000000000000000000000000000000000000000000000000000000000000000000000000000000000000000000PES00010000001000000000317629900000000
202008100030001400000000000000002283000000000000000022838000000000033564217129DI BACCO Y CIA SA             000000000489079000000000000000000000000000000000000000000000000000000000000000000000000000000000000000000000000000000000PES00010000001000000000000000000000000
202008100030001400000000000000002284000000000000000022848000000000020263850980CHAYA SEBASTIAN ENRIQUE       000000000164829000000000000000000000000000000000000000000000000000000000000000000000000000000000000000000000000000000000PES00010000001000000000000000000000000
202008100030005200000000000000000028000000000000000000288000000000020166829489GOMEZ NESTOR NICOLAS          000000053999995000000000000000000000000000000000000000000000000000000000000000000000000000000000000000000000000000000000PES00010000001000000000513122100000000
202008100080001400000000000000000680000000000000000006808000000000020351959240POOLIMAS JORGE LUIS           000000000025824000000000000000000000000000000000000000000000000000000000000000000000000000000000000000000000000000000000PES00010000001000000000000000000000000
202008100080001400000000000000000681000000000000000006818000000000020351959240POOLIMAS JORGE LUIS           000000000059484000000000000000000000000000000000000000000000000000000000000000000000000000000000000000000000000000000000PES00010000001000000000000000000000000
202008110010001100000000000000010857000000000000000108578000000000020070754526PARIZ MAURICIO                000000016200002000000000000000000000000000000000000000000000000000000000000000000000000000000000000000000000000003148500PES00010000001000000000000000000000000
202008110010001100000000000000010858000000000000000108588000000000030708724560LA ASTURIANA S.R.L            000000027499999000000000000000000000000000000000000000000000000000000000000000000000000000000000000000000000000005247500PES00010000001000000000000000000000000
202008110010001100000000000000010859000000000000000108598000000000033709235619ACEQUIONES SRL                000000008100000000000000000000000000000000000000000000000000000000000000000000000000000000000000000000000000000001574250PES00010000001000000000000000000000000
202008110010001100000000000000010860000000000000000108608000000000023299435989VERA JORGE NICOLAS            000000010800001000000000000000000000000000000000000000000000000000000000000000000000000000000000000000000000000002099000PES00010000001000000000000000000000000
202008110010001100000000000000010861000000000000000108618000000000030708587342QUILLEN BERRIES S.A           000000008100000000000000000000000000000000000000000000000000000000000000000000000000000000000000000000000000000001574250PES00010000001000000000000000000000000
202008110010001100000000000000010862000000000000000108628000000000020080994819BRAVO ZAVALETA ARMANDO MANUEL 000000017100000000000000000000000000000000000000000000000000000000000000000000000000000000000000000000000000000003148500PES00010000001000000000000000000000000
202008110010001100000000000000010863000000000000000108638000000000020060856495GUILLELMI DOMINGO RAMON       000000027000003000000000000000000000000000000000000000000000000000000000000000000000000000000000000000000000000005247500PES00010000001000000000000000000000000
202008110010001100000000000000010864000000000000000108648000000000020136744314BRIZ RAMON OSCAR              000000029393800000000000000000000000000000000000000000000000000000000000000000000000000000000000000000000000000005820527PES00010000001000000000000000000000000
202008110010001100000000000000010865000000000000000108658000000000020063502252GOIZUETA FELIPE PEDRO         000000017699999000000000000000000000000000000000000000000000000000000000000000000000000000000000000000000000000002833650PES00010000001000000000000000000000000
202008110010001100000000000000010866000000000000000108668000000000020070077176GHIGGIA JOSE ALFREDO          000000200465700000000000000000000000000000000000000000000000000000000000000000000000000000000000000000000000000041252697PES00010000001000000000000000000000000
202008110010001100000000000000010867000000000000000108678000000000030708913266TRANSPORTE HACHA DE PIEDRA SRL000000004315140000000000000000000000000000000000000000000000000000000000000000000000000000000000000000000000000000838655PES00010000001000000000000000000000000
202008110010001100000000000000010868000000000000000108688000000000030626009618EXPRESO RIVADAVIA SRL         000000018250440000000000000000000000000000000000000000000000000000000000000000000000000000000000000000000000000003683430PES00010000001000000000000000000000000
202008110010001400000000000000014828000000000000000148288000000000030715098551SUCROALCOHOLERA DEL SUR SA    000000021915024000000000000000000000000000000000000000000000000000000000000000000000000000000000000000000000000000000000PES00010000001000000000000000000000000
202008110010001400000000000000014829000000000000000148298000000000027061339812SIERRA SILVIA RAMONA          000000005862467000000000000000000000000000000000000000000000000000000000000000000000000000000000000000000000000000000000PES00010000001000000000000000000000000
202008110010001400000000000000014830000000000000000148308000000000027284964425RACEDO ROSANA ESTER           000000002813395000000000000000000000000000000000000000000000000000000000000000000000000000000000000000000000000000000000PES00010000001000000000000000000000000
202008110010001400000000000000014831000000000000000148318000000000030716318342SEIMA SRL                     000000005328838000000000000000000000000000000000000000000000000000000000000000000000000000000000000000000000000000000000PES00010000001000000000000000000000000
202008110010001400000000000000014832000000000000000148328000000000030504549328INGECO SA                     000000002665492000000000000000000000000000000000000000000000000000000000000000000000000000000000000000000000000000000000PES00010000001000000000000000000000000
202008110010001400000000000000014833000000000000000148338000000000020135630900RODRIGUEZ MARCELO OSVALDO     000000002792828000000000000000000000000000000000000000000000000000000000000000000000000000000000000000000000000000000000PES00010000001000000000000000000000000
202008110010001400000000000000014834000000000000000148348000000000023070919249HERRERA JORGE ARMANDO         000000002158223000000000000000000000000000000000000000000000000000000000000000000000000000000000000000000000000000000000PES00010000001000000000000000000000000
202008110010001400000000000000014835000000000000000148358000000000020160599988DIAZ JOSE LUIS                000000003294338000000000000000000000000000000000000000000000000000000000000000000000000000000000000000000000000000000000PES00010000001000000000000000000000000
202008110010001400000000000000014836000000000000000148368000000000030707175164LERMITEL SA                   000000087474937000000000000000000000000000000000000000000000000000000000000000000000000000000000000000000000000000000000PES00010000001000000000000000000000000
202008110010001400000000000000014837000000000000000148378000000000020128938223DECIMA ARMANDO                000000003345024000000000000000000000000000000000000000000000000000000000000000000000000000000000000000000000000000000000PES00010000001000000000000000000000000
202008110010001400000000000000014838000000000000000148388000000000030707728805PROYECTOS METALURGICOS S.A.   000000005608943000000000000000000000000000000000000000000000000000000000000000000000000000000000000000000000000000000000PES00010000001000000000000000000000000
202008110010001400000000000000014839000000000000000148398000000000027328292217CARRIZO NOELIA DEL VALLE      000000002558724000000000000000000000000000000000000000000000000000000000000000000000000000000000000000000000000000000000PES00010000001000000000000000000000000
202008110010005100000000000000000230000000000000000002308000000000020060856495GUILLELMI DOMINGO RAMON       000000039597250000000000000000000000000000000000000000000000000000000000000000000000000000000000000000000000000000000000PES00010000001000000000000000000000000
202008110010005200000000000000000270000000000000000002708000000000020082851233CABEZON BARONE RICARDO H      000000059219160000000000000000000000000000000000000000000000000000000000000000000000000000000000000000000000000000000000PES00010000001000000000562716000000000
202008110010005200000000000000000271000000000000000002718000000000030708067837AGRICOLA DE LEALES SC         000000000599830000000000000000000000000000000000000000000000000000000000000000000000000000000000000000000000000000000000PES00010000001000000000005699700000000
202008110060001400000000000000004028000000000000000040288000000000020324137352BAZAN RUIZ FRANCO EMMANUEL    000000001598089000000000000000000000000000000000000000000000000000000000000000000000000000000000000000000000000000000000PES00010000001000000000000000000000000
202008110060001400000000000000004029000000000000000040298000000000020174643041VILLALOBO CESAR ALBERTO       000000000733500000000000000000000000000000000000000000000000000000000000000000000000000000000000000000000000000000000000PES00010000001000000000000000000000000
202008110030001100000000000000000521000000000000000005218000000000030708913266TRANSPORTE HACHA DE PIEDRA SRL000000004315140000000000000000000000000000000000000000000000000000000000000000000000000000000000000000000000000000838655PES00010000001000000000000000000000000
202008110030001400000000000000002285000000000000000022858000000000030561973276TRANSMISION AUTOMOTOR (P)     000000000655381000000000000000000000000000000000000000000000000000000000000000000000000000000000000000000000000000000000PES00010000001000000000000000000000000
202008110030001400000000000000002286000000000000000022868000000000030505079570V.H.A SA                      000000001086407000000000000000000000000000000000000000000000000000000000000000000000000000000000000000000000000000000000PES00010000001000000000000000000000000
202008110030001400000000000000002287000000000000000022878000000000020290448515VILLALON MARTIN ANTONIO       000000000872134000000000000000000000000000000000000000000000000000000000000000000000000000000000000000000000000000000000PES00010000001000000000000000000000000
202008110080001400000000000000000682000000000000000006828000000000020174643041VILLALOBO CESAR ALBERTO       000000000320719000000000000000000000000000000000000000000000000000000000000000000000000000000000000000000000000000000000PES00010000001000000000000000000000000
202008110080001400000000000000000683000000000000000006838000000000020377274165TORRES GUILLERMO MARCELINO    000000000224546000000000000000000000000000000000000000000000000000000000000000000000000000000000000000000000000000000000PES00010000001000000000000000000000000
202008110080001400000000000000000684000000000000000006848000000000020217460574SECO FLAVIO DANIEL            000000002225045000000000000000000000000000000000000000000000000000000000000000000000000000000000000000000000000000000000PES00010000001000000000000000000000000
202008110080001400000000000000000685000000000000000006858000000000020217460574SECO FLAVIO DANIEL            000000000890018000000000000000000000000000000000000000000000000000000000000000000000000000000000000000000000000000000000PES00010000001000000000000000000000000
202008110020001100000000000000000214000000000000000002148000000000020109100367QUIROGA DIEGO ABEL            000000025592735000000000000000000000000000000000000000000000000000000000000000000000000000000000000000000000000000000000PES00010000001000000000243188900000000
202008120010001100000000000000010869000000000000000108698000000000033714757429NOBEN SRL                     000000027499999000000000000000000000000000000000000000000000000000000000000000000000000000000000000000000000000005247500PES00010000001000000000000000000000000
202008120010001100000000000000010870000000000000000108708000000000030707465049LAPACHO AMARILLO SRL          000000010800001000000000000000000000000000000000000000000000000000000000000000000000000000000000000000000000000002099000PES00010000001000000000000000000000000
202008120010001100000000000000010871000000000000000108718000000000030707089586NYNAGRO S.R.L.                000000011300000000000000000000000000000000000000000000000000000000000000000000000000000000000000000000000000000002099000PES00010000001000000000000000000000000
202008120010001100000000000000010872000000000000000108728000000000023296664189GONZALEZ COLETTI ALVARO AGUSTI000000005400001000000000000000000000000000000000000000000000000000000000000000000000000000000000000000000000000001049500PES00010000001000000000000000000000000
202008120010001100000000000000010873000000000000000108738000000000030710383126TM ROLDAN SRL                 000000004800000000000000000000000000000000000000000000000000000000000000000000000000000000000000000000000000000000755640PES00010000001000000000000000000000000
202008120010001100000000000000010874000000000000000108748000000000020107910914VALDEZ RUFINO CESAR           000000021247700000000000000000000000000000000000000000000000000000000000000000000000000000000000000000000000000004207446PES00010000001000000000000000000000000
202008120010001100000000000000010875000000000000000108758000000000030626009618EXPRESO RIVADAVIA SRL         000000019512480000000000000000000000000000000000000000000000000000000000000000000000000000000000000000000000000003938144PES00010000001000000000000000000000000
202008120010001100000000000000010876000000000000000108768000000000030716663929UNIFRUTTI SA                  000000008100000000000000000000000000000000000000000000000000000000000000000000000000000000000000000000000000000001574250PES00010000001000000000000000000000000
202008120010001400000000000000014840000000000000000148408000000000020107910914VALDEZ RUFINO CESAR           000000003752700000000000000000000000000000000000000000000000000000000000000000000000000000000000000000000000000000000000PES00010000001000000000000000000000000
202008120010001400000000000000014841000000000000000148418000000000020109823032DEL POZO FELICIANO CESAR      000000000994718000000000000000000000000000000000000000000000000000000000000000000000000000000000000000000000000000000000PES00010000001000000000000000000000000
202008120010001400000000000000014842000000000000000148428000000000030707953922FIDUAGRO SRL                  000000000412005000000000000000000000000000000000000000000000000000000000000000000000000000000000000000000000000000000000PES00010000001000000000000000000000000
202008120010001400000000000000014843000000000000000148438000000000020277526701ROJAS SEGUNDO AGUSTIN         000000004169799000000000000000000000000000000000000000000000000000000000000000000000000000000000000000000000000000000000PES00010000001000000000000000000000000
202008120010001400000000000000014844000000000000000148448000000000023296664189GONZALEZ COLETTI ALVARO AGUSTI000000001100249000000000000000000000000000000000000000000000000000000000000000000000000000000000000000000000000000000000PES00010000001000000000000000000000000
202008120010001400000000000000014845000000000000000148458000000000023296664189GONZALEZ COLETTI ALVARO AGUSTI000000000475311000000000000000000000000000000000000000000000000000000000000000000000000000000000000000000000000000000000PES00010000001000000000000000000000000
202008120010001400000000000000014846000000000000000148468000000000027170408980MARTINEZ ZUCCARDI ARIADNA I   000000000599526000000000000000000000000000000000000000000000000000000000000000000000000000000000000000000000000000000000PES00010000001000000000000000000000000
202008120010001400000000000000014847000000000000000148478000000000030708724560LA ASTURIANA S.R.L            000000002790671000000000000000000000000000000000000000000000000000000000000000000000000000000000000000000000000000000000PES00010000001000000000000000000000000
202008120010001400000000000000014848000000000000000148488000000000023070919249HERRERA JORGE ARMANDO         000000000906918000000000000000000000000000000000000000000000000000000000000000000000000000000000000000000000000000000000PES00010000001000000000000000000000000
202008120010001400000000000000014849000000000000000148498000000000030712272542OLGA ZOTTOLA DE SIMONETO E HIJ000000000496382000000000000000000000000000000000000000000000000000000000000000000000000000000000000000000000000000000000PES00010000001000000000000000000000000
202008120010001400000000000000014850000000000000000148508000000000030712272542OLGA ZOTTOLA DE SIMONETO E HIJ000000001656543000000000000000000000000000000000000000000000000000000000000000000000000000000000000000000000000000000000PES00010000001000000000000000000000000
202008120010001400000000000000014851000000000000000148518000000000023108421819GASETU JUAN CARLOS            000000003345024000000000000000000000000000000000000000000000000000000000000000000000000000000000000000000000000000000000PES00010000001000000000000000000000000
202008120010001400000000000000014852000000000000000148528000000000033711474779HIJOS DE ANTONIO ZAMORA SRL   000000001697913000000000000000000000000000000000000000000000000000000000000000000000000000000000000000000000000000000000PES00010000001000000000000000000000000
202008120060001600000000000000000246000000000000000002468000000000030650455521MUNICIPALIDAD DE FAMAILLA     000000175000000000000000000000000000000000000000000000000000000000000000000000000000000000000000000000000000000000000000PES00010000001000000000000000000000000
202008120030001100000000000000000522000000000000000005228000000000033709235619ACEQUIONES SRL                000000008100000000000000000000000000000000000000000000000000000000000000000000000000000000000000000000000000000001574250PES00010000001000000000000000000000000
202008120080001600000000000000000028000000000000000000288000000000030650455521MUNICIPALIDAD DE FAMAILLA     000000008750000000000000000000000000000000000000000000000000000000000000000000000000000000000000000000000000000000000000PES00010000001000000000000000000000000
202008130010001100000000000000010877000000000000000108778000000000020080942177GUILLELMI ANGEL SANTOS        000000009180000000000000000000000000000000000000000000000000000000000000000000000000000000000000000000000000000001784150PES00010000001000000000000000000000000
202008130010001100000000000000010878000000000000000108788000000000023291350399SILVA SERGIO EDUARDO          000000089760000000000000000000000000000000000000000000000000000000000000000000000000000000000000000000000000000017841500PES00010000001000000000000000000000000
202008130010001100000000000000010879000000000000000108798000000000030626009618EXPRESO RIVADAVIA SRL         000000019115720000000000000000000000000000000000000000000000000000000000000000000000000000000000000000000000000003858067PES00010000001000000000000000000000000
202008130010001100000000000000010880000000000000000108808000000000020230218146RODRIGUEZ JAVIER ENRIQUE      000000005300000000000000000000000000000000000000000000000000000000000000000000000000000000000000000000000000000001049500PES00010000001000000000000000000000000
202008130010001100000000000000010881000000000000000108818000000000020336309108LUNA OMAR FEDERICO            000000015900000000000000000000000000000000000000000000000000000000000000000000000000000000000000000000000000000003148500PES00010000001000000000000000000000000
202008130010001400000000000000014853000000000000000148538000000000030702402146PREMOL SRL                    000000000299763000000000000000000000000000000000000000000000000000000000000000000000000000000000000000000000000000000000PES00010000001000000000000000000000000
202008130010001400000000000000014854000000000000000148548000000000020208989317CEJAS JUAN CARLOS MANUEL      000000002191242000000000000000000000000000000000000000000000000000000000000000000000000000000000000000000000000000000000PES00010000001000000000000000000000000
202008130010001400000000000000014855000000000000000148558000000000023083954329SUCESION DE RODA MARIO OSVALDO000000003241389000000000000000000000000000000000000000000000000000000000000000000000000000000000000000000000000000000000PES00010000001000000000000000000000000
202008130010001400000000000000014856000000000000000148568000000000030675251025BIO TUC SRL                   000000002323475000000000000000000000000000000000000000000000000000000000000000000000000000000000000000000000000000000000PES00010000001000000000000000000000000
202008130010001400000000000000014857000000000000000148578000000000020080994819BRAVO ZAVALETA ARMANDO MANUEL 000000000793107000000000000000000000000000000000000000000000000000000000000000000000000000000000000000000000000000000000PES00010000001000000000000000000000000
202008130010001400000000000000014858000000000000000148588000000000020136744314BRIZ RAMON OSCAR              000000000575897000000000000000000000000000000000000000000000000000000000000000000000000000000000000000000000000000000000PES00010000001000000000000000000000000
202008130010005200000000000000000272000000000000000002728000000000030712029842FINCA LAS PAJITAS SA          000000007499954000000000000000000000000000000000000000000000000000000000000000000000000000000000000000000000000000000000PES00010000001000000000071266500000000
202008130060001400000000000000004030000000000000000040308000000000020249814491CORTI SERGIO DANIEL           000000000944705000000000000000000000000000000000000000000000000000000000000000000000000000000000000000000000000000000000PES00010000001000000000000000000000000
202008130030001100000000000000000523000000000000000005238000000000030710010680ZAPULLA JOSE E Y G SALVADOR SH000000005300000000000000000000000000000000000000000000000000000000000000000000000000000000000000000000000000000001049500PES00010000001000000000000000000000000
202008130030001400000000000000002288000000000000000022888000000000030685655329PRODUCCION SA                 000000002128369000000000000000000000000000000000000000000000000000000000000000000000000000000000000000000000000000000000PES00010000001000000000000000000000000
202008130030001400000000000000002289000000000000000022898000000000033708025939CIA YESERA  DEL NORTE SRL     000000002665492000000000000000000000000000000000000000000000000000000000000000000000000000000000000000000000000000000000PES00010000001000000000000000000000000
202008140010001100000000000000010882000000000000000108828000000000030707465049LAPACHO AMARILLO SRL          000000021600002000000000000000000000000000000000000000000000000000000000000000000000000000000000000000000000000004198000PES00010000001000000000000000000000000
202008140010001100000000000000010883000000000000000108838000000000020069920293RODRIGUEZ MARIO               000000013250000000000000000000000000000000000000000000000000000000000000000000000000000000000000000000000000000002623750PES00010000001000000000000000000000000
202008140010001100000000000000010884000000000000000108848000000000020377280378SZMYD JESUS EMMANUEL          000000013875000000000000000000000000000000000000000000000000000000000000000000000000000000000000000000000000000002623750PES00010000001000000000000000000000000
202008140010001100000000000000010885000000000000000108858000000000020167538909BARRIONUEVO JOSE HUMBERTO     000000026500000000000000000000000000000000000000000000000000000000000000000000000000000000000000000000000000000005247500PES00010000001000000000000000000000000
202008140010001100000000000000010886000000000000000108868000000000030620919922RF y J BUDEGUER SRL           000000008249999000000000000000000000000000000000000000000000000000000000000000000000000000000000000000000000000001574250PES00010000001000000000000000000000000
202008140010001100000000000000010887000000000000000108878000000000020185059007VITAR MANUEL FERNANDO         000000008249999000000000000000000000000000000000000000000000000000000000000000000000000000000000000000000000000001574250PES00010000001000000000000000000000000
202008140010001100000000000000010888000000000000000108888000000000030674428320RAICES SH                     000000011000000000000000000000000000000000000000000000000000000000000000000000000000000000000000000000000000000002099000PES00010000001000000000000000000000000
202008140010001100000000000000010889000000000000000108898000000000030708724560LA ASTURIANA S.R.L            000000019249999000000000000000000000000000000000000000000000000000000000000000000000000000000000000000000000000003673250PES00010000001000000000000000000000000
202008140010001100000000000000010890000000000000000108908000000000030626009618EXPRESO RIVADAVIA SRL         000000021496800000000000000000000000000000000000000000000000000000000000000000000000000000000000000000000000000004338633PES00010000001000000000000000000000000
202008140010001400000000000000014859000000000000000148598000000000020080835974TRAPANI IGNACIO               000000003371694000000000000000000000000000000000000000000000000000000000000000000000000000000000000000000000000000000000PES00010000001000000000000000000000000
202008140010001400000000000000014860000000000000000148608000000000020125412417SOLORZANO JOSE LUIS           000000002657323000000000000000000000000000000000000000000000000000000000000000000000000000000000000000000000000000000000PES00010000001000000000000000000000000
202008140010001400000000000000014861000000000000000148618000000000020232958317JEREZ WALTER OSCAR         RI 000000002136850000000000000000000000000000000000000000000000000000000000000000000000000000000000000000000000000000000000PES00010000001000000000000000000000000
202008140010001400000000000000014862000000000000000148628000000000020125412417SOLORZANO JOSE LUIS           000000000461963000000000000000000000000000000000000000000000000000000000000000000000000000000000000000000000000000000000PES00010000001000000000000000000000000
202008140010001400000000000000014863000000000000000148638000000000030715102761ARIDOS CALERA SRL             000000006010516000000000000000000000000000000000000000000000000000000000000000000000000000000000000000000000000000000000PES00010000001000000000000000000000000
202008140010001400000000000000014864000000000000000148648000000000020296739554MUHIC GIANNI MIRKO            000000002381944000000000000000000000000000000000000000000000000000000000000000000000000000000000000000000000000000000000PES00010000001000000000000000000000000
202008140010001400000000000000014865000000000000000148658000000000033711474779HIJOS DE ANTONIO ZAMORA SRL   000000003395826000000000000000000000000000000000000000000000000000000000000000000000000000000000000000000000000000000000PES00010000001000000000000000000000000
202008140010001400000000000000014866000000000000000148668000000000020167535721SAFATLE FERNANDO              000000022831524000000000000000000000000000000000000000000000000000000000000000000000000000000000000000000000000000000000PES00010000001000000000000000000000000
202008140010001400000000000000014867000000000000000148678000000000030712272542OLGA ZOTTOLA DE SIMONETO E HIJ000000037673740000000000000000000000000000000000000000000000000000000000000000000000000000000000000000000000000000000000PES00010000001000000000000000000000000
202008140010001400000000000000014868000000000000000148688000000000030512253268JAUFFROY HNOS S.A.S.C         000000004194190000000000000000000000000000000000000000000000000000000000000000000000000000000000000000000000000000000000PES00010000001000000000000000000000000
202008140010001400000000000000014869000000000000000148698000000000020296739554MUHIC GIANNI MIRKO            000000002531199000000000000000000000000000000000000000000000000000000000000000000000000000000000000000000000000000000000PES00010000001000000000000000000000000
202008140010001400000000000000014870000000000000000148708000000000020119103879MARTINEZ ZUCCARDI JORGE A     000000005921303000000000000000000000000000000000000000000000000000000000000000000000000000000000000000000000000000000000PES00010000001000000000000000000000000
202008140060001100000000000000000224000000000000000002248000000000020242796986VILLAFANE MIGUEL ANGEL (ST)   000000007950000000000000000000000000000000000000000000000000000000000000000000000000000000000000000000000000000001574250PES00010000001000000000000000000000000
202008140060001400000000000000004031000000000000000040318000000000033638640789DIRECCION PROVINCIAL DE VIALID000000000418821000000000000000000000000000000000000000000000000000000000000000000000000000000000000000000000000000000000PES00010000001000000000000000000000000
202008140060001400000000000000004032000000000000000040328000000000020217460574SECO FLAVIO DANIEL            000000014067339000000000000000000000000000000000000000000000000000000000000000000000000000000000000000000000000000000000PES00010000001000000000000000000000000
202008140060005200000000000000000011000000000000000000118000000000020070438772SAENZ RODOLFO                 000000010979969000000000000000000000000000000000000000000000000000000000000000000000000000000000000000000000000000000000PES00010000001000000000104334500000000
202008140030001500000000000000000115000000000000000001158000000000030546689979YPF SA                        000000618559276000000000000000000000000000000000000000000000000000000000000000000000000000000000000000000000000000000000PES00010000001000000005877712600000000
202008140030001500000000000000000116000000000000000001168000000000030546689979YPF SA                        000000047819484000000000000000000000000000000000000000000000000000000000000000000000000000000000000000000000000000000000PES00010000001000000000454393300000000
202008140030001500000000000000000117000000000000000001178000000000030546689979YPF SA                        000000000520646000000000000000000000000000000000000000000000000000000000000000000000000000000000000000000000000000000000PES00010000001000000000004947300000000
202008140030001100000000000000000524000000000000000005248000000000020253200805VILLAFANE ARIEL HUGO (ST)     000000007950000000000000000000000000000000000000000000000000000000000000000000000000000000000000000000000000000001574250PES00010000001000000000000000000000000
202008140030001400000000000000002290000000000000000022908000000000033711474779HIJOS DE ANTONIO ZAMORA SRL   000000001697913000000000000000000000000000000000000000000000000000000000000000000000000000000000000000000000000000000000PES00010000001000000000000000000000000
202008150010001100000000000000010891000000000000000108918000000000030715261517SERCOU SRL                    000000008025000000000000000000000000000000000000000000000000000000000000000000000000000000000000000000000000000001574250PES00010000001000000000000000000000000
202008150010001100000000000000010892000000000000000108928000000000020296858537VIEYRA JORGE LINO             000000008249999000000000000000000000000000000000000000000000000000000000000000000000000000000000000000000000000001574250PES00010000001000000000000000000000000
202008150010001100000000000000010893000000000000000108938000000000030708067837AGRICOLA DE LEALES SC         000000037450000000000000000000000000000000000000000000000000000000000000000000000000000000000000000000000000000007346500PES00010000001000000000000000000000000
202008150010001100000000000000010894000000000000000108948000000000030713014601MAELI SRL                     000000015900000000000000000000000000000000000000000000000000000000000000000000000000000000000000000000000000000003148500PES00010000001000000000000000000000000
202008150010001100000000000000010895000000000000000108958000000000030626009618EXPRESO RIVADAVIA SRL         000000020355920000000000000000000000000000000000000000000000000000000000000000000000000000000000000000000000000004108373PES00010000001000000000000000000000000
202008150020001100000000000000000215000000000000000002158000000000030708067837AGRICOLA DE LEALES SC         000000071705553000000000000000000000000000000000000000000000000000000000000000000000000000000000000000000000000000000000PES00010000001000000000681365000000000
202008180010001100000000000000010896000000000000000108968000000000030714391530AFISA SRL (ST)                000000026500001000000000000000000000000000000000000000000000000000000000000000000000000000000000000000000000000005247500PES00010000001000000000000000000000000
202008180010001100000000000000010897000000000000000108978000000000020342268081CANO ARON JOSE VICTOR (ST)    000000015900000000000000000000000000000000000000000000000000000000000000000000000000000000000000000000000000000003148500PES00010000001000000000000000000000000
202008180010001100000000000000010898000000000000000108988000000000020342268081CANO ARON JOSE VICTOR (ST)    000000015900000000000000000000000000000000000000000000000000000000000000000000000000000000000000000000000000000003148500PES00010000001000000000000000000000000
202008180010001100000000000000010899000000000000000108998000000000030709767905COOP AGROPECUARIA LOS BARRIENT000000015900000000000000000000000000000000000000000000000000000000000000000000000000000000000000000000000000000003148500PES00010000001000000000000000000000000
202008180010001100000000000000010900000000000000000109008000000000030709767905COOP AGROPECUARIA LOS BARRIENT000000021200000000000000000000000000000000000000000000000000000000000000000000000000000000000000000000000000000004198000PES00010000001000000000000000000000000
202008180010001100000000000000010901000000000000000109018000000000030714922013DON BETO SRL (ST)             000000021200000000000000000000000000000000000000000000000000000000000000000000000000000000000000000000000000000004198000PES00010000001000000000000000000000000
202008180010001100000000000000010902000000000000000109028000000000023208986309GUTIERREZ JORGE LUIS (ST)     000000010600000000000000000000000000000000000000000000000000000000000000000000000000000000000000000000000000000002099000PES00010000001000000000000000000000000
202008180010001100000000000000010903000000000000000109038000000000023208986309GUTIERREZ JORGE LUIS (ST)     000000010600000000000000000000000000000000000000000000000000000000000000000000000000000000000000000000000000000002099000PES00010000001000000000000000000000000
202008180010001100000000000000010904000000000000000109048000000000030716819856INDUSTRIAS SANTA BARBARA SRL E000000015900000000000000000000000000000000000000000000000000000000000000000000000000000000000000000000000000000003148500PES00010000001000000000000000000000000
202008180010001100000000000000010905000000000000000109058000000000020173378603JUAREZ ANTONIO ARMANDO (ST)   000000015900000000000000000000000000000000000000000000000000000000000000000000000000000000000000000000000000000003148500PES00010000001000000000000000000000000
202008180010001100000000000000010906000000000000000109068000000000020399744939MIRANDA ARIEL MATIAS (ST)     000000021200000000000000000000000000000000000000000000000000000000000000000000000000000000000000000000000000000004198000PES00010000001000000000000000000000000
202008180010001100000000000000010907000000000000000109078000000000020253200805VILLAFANE ARIEL HUGO (ST)     000000007950000000000000000000000000000000000000000000000000000000000000000000000000000000000000000000000000000001574250PES00010000001000000000000000000000000
202008180010001100000000000000010908000000000000000109088000000000030708913266TRANSPORTE HACHA DE PIEDRA SRL000000004235230000000000000000000000000000000000000000000000000000000000000000000000000000000000000000000000000000838655PES00010000001000000000000000000000000
