202003020010001100000000000000010029000000000000000100298000000000020080676396ARGENTE DOMINGO ANDRES        000000057000006000000000000000000000000000000000000000000000000000000000000000000000000000000000000000000000000007455600PES00010000001000000000000000000000000
202003020010001100000000000000010030000000000000000100308000000000030709628255PACTA SRL                     000000011600000000000000000000000000000000000000000000000000000000000000000000000000000000000000000000000000000001491120PES00010000001000000000000000000000000
202003020010001400000000000000013426000000000000000134268000000000030707991387RODA TRANSFORMECANICA  SERV SR000000028341201000000000000000000000000000000000000000000000000000000000000000000000000000000000000000000000000000000000PES00010000001000000000000000000000000
202003020010001400000000000000013427000000000000000134278000000000030714069418SACAROSA SRL                  000000001092442000000000000000000000000000000000000000000000000000000000000000000000000000000000000000000000000000000000PES00010000001000000000000000000000000
202003020010001400000000000000013428000000000000000134288000000000020070016878SUCESION DE RODRIGUEZ ENRIQUE 000000002323212000000000000000000000000000000000000000000000000000000000000000000000000000000000000000000000000000000000PES00010000001000000000000000000000000
202003020010001400000000000000013429000000000000000134298000000000020363400583QUINTEROS JESUS MARIA NAZARENO000000000852535000000000000000000000000000000000000000000000000000000000000000000000000000000000000000000000000000000000PES00010000001000000000000000000000000
202003020010001400000000000000013430000000000000000134308000000000020080525193QUINTEROS JOSE BENJAMIN       000000001084859000000000000000000000000000000000000000000000000000000000000000000000000000000000000000000000000000000000PES00010000001000000000000000000000000
202003020010001400000000000000013431000000000000000134318000000000027284964425RACEDO ROSANA ESTER           000000005888928000000000000000000000000000000000000000000000000000000000000000000000000000000000000000000000000000000000PES00010000001000000000000000000000000
202003020010001400000000000000013432000000000000000134328000000000030712272542OLGA ZOTTOLA DE SIMONETO E HIJ000000009481187000000000000000000000000000000000000000000000000000000000000000000000000000000000000000000000000000000000PES00010000001000000000000000000000000
202003020010001400000000000000013433000000000000000134338000000000027277517006ZATO FABIANA VERONICA         000000000740562000000000000000000000000000000000000000000000000000000000000000000000000000000000000000000000000000000000PES00010000001000000000000000000000000
202003020010001400000000000000013434000000000000000134348000000000030715102761ARIDOS CALERA SRL             000000005432032000000000000000000000000000000000000000000000000000000000000000000000000000000000000000000000000000000000PES00010000001000000000000000000000000
202003020060001400000000000000003723000000000000000037238000000000020174643041VILLALOBO CESAR ALBERTO       000000002422194000000000000000000000000000000000000000000000000000000000000000000000000000000000000000000000000000000000PES00010000001000000000000000000000000
202003020060001400000000000000003724000000000000000037248000000000020127334154QUIROGA JUAN CARLOS           000000004533968000000000000000000000000000000000000000000000000000000000000000000000000000000000000000000000000000000000PES00010000001000000000000000000000000
202003020060001400000000000000003725000000000000000037258000000000020166931038RODRIGUEZ JOSE ALBERTO        000000002554164000000000000000000000000000000000000000000000000000000000000000000000000000000000000000000000000000000000PES00010000001000000000000000000000000
202003020030001400000000000000002028000000000000000020288000000000033710211189TRANSPORTE BONFIGLI SRL       000000009707042000000000000000000000000000000000000000000000000000000000000000000000000000000000000000000000000000000000PES00010000001000000000000000000000000
202003020030001400000000000000002029000000000000000020298000000000030588577267GOMERIA RUTA 38 DE GIRAUDO HNO000000009707042000000000000000000000000000000000000000000000000000000000000000000000000000000000000000000000000000000000PES00010000001000000000000000000000000
202003020030001400000000000000002030000000000000000020308000000000023124330149ACEVEDO MARIO RAMON           000000001520744000000000000000000000000000000000000000000000000000000000000000000000000000000000000000000000000000000000PES00010000001000000000000000000000000
202003020080001400000000000000000623000000000000000006238000000000020127334154QUIROGA JUAN CARLOS           000000000303064000000000000000000000000000000000000000000000000000000000000000000000000000000000000000000000000000000000PES00010000001000000000000000000000000
202003020020001400000000000000000043000000000000000000438000000000033710211189TRANSPORTE BONFIGLI SRL       000000009707042000000000000000000000000000000000000000000000000000000000000000000000000000000000000000000000000000000000PES00010000001000000000000000000000000
202003030010001100000000000000010031000000000000000100318000000000030504549328INGECO SA                     000000017399999000000000000000000000000000000000000000000000000000000000000000000000000000000000000000000000000002236680PES00010000001000000000000000000000000
202003030010001100000000000000010032000000000000000100328000000000030620919922RF y J BUDEGUER SRL           000000009149999000000000000000000000000000000000000000000000000000000000000000000000000000000000000000000000000001118340PES00010000001000000000000000000000000
202003030010001400000000000000013435000000000000000134358000000000027284964425RACEDO ROSANA ESTER           000000002279371000000000000000000000000000000000000000000000000000000000000000000000000000000000000000000000000000000000PES00010000001000000000000000000000000
202003030010001400000000000000013436000000000000000134368000000000027284964425RACEDO ROSANA ESTER           000000002279371000000000000000000000000000000000000000000000000000000000000000000000000000000000000000000000000000000000PES00010000001000000000000000000000000
202003030010001400000000000000013437000000000000000134378000000000027284964425RACEDO ROSANA ESTER           000000003786820000000000000000000000000000000000000000000000000000000000000000000000000000000000000000000000000000000000PES00010000001000000000000000000000000
202003030010001400000000000000013438000000000000000134388000000000027284964425RACEDO ROSANA ESTER           000000000761487000000000000000000000000000000000000000000000000000000000000000000000000000000000000000000000000000000000PES00010000001000000000000000000000000
202003030010001400000000000000013439000000000000000134398000000000027284964425RACEDO ROSANA ESTER           000000001084859000000000000000000000000000000000000000000000000000000000000000000000000000000000000000000000000000000000PES00010000001000000000000000000000000
202003030010001400000000000000013440000000000000000134408000000000027240071482VILLAVICENCIO MARIA DE LOS ANG000000002381163000000000000000000000000000000000000000000000000000000000000000000000000000000000000000000000000000000000PES00010000001000000000000000000000000
202003030010001400000000000000013441000000000000000134418000000000030588577267GOMERIA RUTA 38 DE GIRAUDO HNO000000017949096000000000000000000000000000000000000000000000000000000000000000000000000000000000000000000000000000000000PES00010000001000000000000000000000000
202003030010001400000000000000013442000000000000000134428000000000030588577267GOMERIA RUTA 38 DE GIRAUDO HNO000000003995105000000000000000000000000000000000000000000000000000000000000000000000000000000000000000000000000000000000PES00010000001000000000000000000000000
202003030010001400000000000000013443000000000000000134438000000000027284964425RACEDO ROSANA ESTER           000000001084859000000000000000000000000000000000000000000000000000000000000000000000000000000000000000000000000000000000PES00010000001000000000000000000000000
202003030010001400000000000000013444000000000000000134448000000000023142250829RODRIGUEZ CARLOS DANIEL       000000041964476000000000000000000000000000000000000000000000000000000000000000000000000000000000000000000000000000000000PES00010000001000000000000000000000000
202003030010001400000000000000013445000000000000000134458000000000020217466769SORBELLO VICTOR HUGO          000000001161606000000000000000000000000000000000000000000000000000000000000000000000000000000000000000000000000000000000PES00010000001000000000000000000000000
202003030010001400000000000000013446000000000000000134468000000000023070919249HERRERA JORGE ARMANDO         000000002717417000000000000000000000000000000000000000000000000000000000000000000000000000000000000000000000000000000000PES00010000001000000000000000000000000
202003030010001400000000000000013447000000000000000134478000000000020223879927CARRIZO ANDRES GUSTAVO        000000001625113000000000000000000000000000000000000000000000000000000000000000000000000000000000000000000000000000000000PES00010000001000000000000000000000000
202003030010001400000000000000013448000000000000000134488000000000030711031576AGROPECUARIA MUNDO NUEVO SRL  000000002973749000000000000000000000000000000000000000000000000000000000000000000000000000000000000000000000000000000000PES00010000001000000000000000000000000
202003030010001400000000000000013449000000000000000134498000000000030707728805PROYECTOS METALURGICOS S.A.   000000008959885000000000000000000000000000000000000000000000000000000000000000000000000000000000000000000000000000000000PES00010000001000000000000000000000000
202003030010020000000000000000000029000000000000000000298000000000030515488479YPF GAS SA                    000000038905527000000000000000000000000000000000000000000000000000000000000000000000000000000000000000000000000000000000PES00010000001000000000000000000000000
202003030060001400000000000000003726000000000000000037268000000000030656135006MUNICIPALIDAD DE SIMOCA       000000003830495000000000000000000000000000000000000000000000000000000000000000000000000000000000000000000000000000000000PES00010000001000000000000000000000000
202003030060001400000000000000003727000000000000000037278000000000020104025499D AMICHICI PASCUAL RAMON      000000001991101000000000000000000000000000000000000000000000000000000000000000000000000000000000000000000000000000000000PES00010000001000000000000000000000000
202003030020001100000000000000000195000000000000000001958000000000030715102761ARIDOS CALERA SRL             000000007560500000000007500000000000000000000000000000000000000000000000000000000000000000000000000000000000000000000000PES00010000001000000000000000000000000
202003030020001100000000000000000196000000000000000001968000000000030523408247CERAMICA MARCOS PAZ SRL       000000004160500000000004100000000000000000000000000000000000000000000000000000000000000000000000000000000000000000000000PES00010000001000000000000000000000000
202003040010001100000000000000010033000000000000000100338000000000033708668759ACHERAL S.A.                  000000009000000000000000000000000000000000000000000000000000000000000000000000000000000000000000000000000000000001118340PES00010000001000000000000000000000000
202003040010001100000000000000010034000000000000000100348000000000020285315671ROTH GERARDO ARIEL            000000011600000000000000000000000000000000000000000000000000000000000000000000000000000000000000000000000000000001491120PES00010000001000000000000000000000000
202003040010001400000000000000013450000000000000000134508000000000020080676396ARGENTE DOMINGO ANDRES        000000002986628000000000000000000000000000000000000000000000000000000000000000000000000000000000000000000000000000000000PES00010000001000000000000000000000000
202003040010001400000000000000013451000000000000000134518000000000030505079570V.H.A SA                      000000000340569000000000000000000000000000000000000000000000000000000000000000000000000000000000000000000000000000000000PES00010000001000000000000000000000000
202003040010001400000000000000013452000000000000000134528000000000030505079570V.H.A SA                      000000002986628000000000000000000000000000000000000000000000000000000000000000000000000000000000000000000000000000000000PES00010000001000000000000000000000000
202003040010001400000000000000013453000000000000000134538000000000030644186497LOS PEMPA AGROGANADERA        000000002986628000000000000000000000000000000000000000000000000000000000000000000000000000000000000000000000000000000000PES00010000001000000000000000000000000
202003040010001400000000000000013454000000000000000134548000000000020274548887CORNEJO GUSTAVO FRANCISCO     000000000275006000000000000000000000000000000000000000000000000000000000000000000000000000000000000000000000000000000000PES00010000001000000000000000000000000
202003040010001400000000000000013455000000000000000134558000000000020165261624MUDAD FRANCISCO ESTEBAN       000000003563933000000000000000000000000000000000000000000000000000000000000000000000000000000000000000000000000000000000PES00010000001000000000000000000000000
202003040010001400000000000000013456000000000000000134568000000000030523408247CERAMICA MARCOS PAZ SRL       000000002986628000000000000000000000000000000000000000000000000000000000000000000000000000000000000000000000000000000000PES00010000001000000000000000000000000
202003040010001600000000000000000721000000000000000007218000000000030707728805PROYECTOS METALURGICOS S.A.   000000001158765000000000000000000000000000000000000000000000000000000000000000000000000000000000000000000000000000000000PES00010000001000000000000000000000000
202003040060001400000000000000003728000000000000000037288000000000027230204255PAZ SILVIA PATRICIA           000000000260501000000000000000000000000000000000000000000000000000000000000000000000000000000000000000000000000000000000PES00010000001000000000000000000000000
202003040030001400000000000000002031000000000000000020318000000000030710383126TM ROLDAN SRL                 000000058484696000000000000000000000000000000000000000000000000000000000000000000000000000000000000000000000000000000000PES00010000001000000000000000000000000
202003040030001400000000000000002032000000000000000020328000000000020263850980CHAYA SEBASTIAN ENRIQUE       000000000091793000000000000000000000000000000000000000000000000000000000000000000000000000000000000000000000000000000000PES00010000001000000000000000000000000
202003040030001400000000000000002033000000000000000020338000000000020162829840BRAVO OSCAR ROLANDO           000000000100171000000000000000000000000000000000000000000000000000000000000000000000000000000000000000000000000000000000PES00010000001000000000000000000000000
202003040080001400000000000000000624000000000000000006248000000000027232392040ABBOUD MUHALA MARIA ALICIA    000000000298628000000000000000000000000000000000000000000000000000000000000000000000000000000000000000000000000000000000PES00010000001000000000000000000000000
202003040080001400000000000000000625000000000000000006258000000000027232392040ABBOUD MUHALA MARIA ALICIA    000000000267210000000000000000000000000000000000000000000000000000000000000000000000000000000000000000000000000000000000PES00010000001000000000000000000000000
202003040080001400000000000000000626000000000000000006268000000000020125623000CHANTA JULIO                  000000000253105000000000000000000000000000000000000000000000000000000000000000000000000000000000000000000000000000000000PES00010000001000000000000000000000000
202003040080001400000000000000000627000000000000000006278000000000020242005385SARME DANIEL IASIR            000000000357973000000000000000000000000000000000000000000000000000000000000000000000000000000000000000000000000000000000PES00010000001000000000000000000000000
202003040080001400000000000000000628000000000000000006288000000000020123525176SIGNORELLI JOSE ALBERTO       000000000126849000000000000000000000000000000000000000000000000000000000000000000000000000000000000000000000000000000000PES00010000001000000000000000000000000
202003050010001100000000000000010035000000000000000100358000000000030504549328INGECO SA                     000000017399999000000000000000000000000000000000000000000000000000000000000000000000000000000000000000000000000002236680PES00010000001000000000000000000000000
202003050010001100000000000000010036000000000000000100368000000000027042561199COLOMBRES SUSANA DE LAS MERCED000000011600000000000000000000000000000000000000000000000000000000000000000000000000000000000000000000000000000001491120PES00010000001000000000000000000000000
202003050010001100000000000000010037000000000000000100378000000000027170408980MARTINEZ ZUCCARDI ARIADNA I   000000005800000000000000000000000000000000000000000000000000000000000000000000000000000000000000000000000000000000745560PES00010000001000000000000000000000000
202003050010001400000000000000013457000000000000000134578000000000020318542911VARGAS RUBEN ALBERTO          000000006130686000000000000000000000000000000000000000000000000000000000000000000000000000000000000000000000000000000000PES00010000001000000000000000000000000
202003050010001400000000000000013458000000000000000134588000000000020326874079DIP DANTE GUSTAVO EXEQUIEL    000000002694424000000000000000000000000000000000000000000000000000000000000000000000000000000000000000000000000000000000PES00010000001000000000000000000000000
202003050010001400000000000000013459000000000000000134598000000000030711031576AGROPECUARIA MUNDO NUEVO SRL  000000000736663000000000000000000000000000000000000000000000000000000000000000000000000000000000000000000000000000000000PES00010000001000000000000000000000000
202003050010001400000000000000013460000000000000000134608000000000027061339812SIERRA SILVIA RAMONA          000000005838465000000000000000000000000000000000000000000000000000000000000000000000000000000000000000000000000000000000PES00010000001000000000000000000000000
202003050010001400000000000000013461000000000000000134618000000000027061339812SIERRA SILVIA RAMONA          000000003563933000000000000000000000000000000000000000000000000000000000000000000000000000000000000000000000000000000000PES00010000001000000000000000000000000
202003050010001400000000000000013462000000000000000134628000000000027207530595CHAVEZ ADRIANA                000000002422194000000000000000000000000000000000000000000000000000000000000000000000000000000000000000000000000000000000PES00010000001000000000000000000000000
202003050010001400000000000000013463000000000000000134638000000000030710502818KILOMETRO 14 SRL              000000005417053000000000000000000000000000000000000000000000000000000000000000000000000000000000000000000000000000000000PES00010000001000000000000000000000000
202003050010001400000000000000013464000000000000000134648000000000020261924286RUIZ CRISTIAN ALEJANDRO       000000005677314000000000000000000000000000000000000000000000000000000000000000000000000000000000000000000000000000000000PES00010000001000000000000000000000000
202003050010001400000000000000013465000000000000000134658000000000030523408247CERAMICA MARCOS PAZ SRL       000000000594478000000000000000000000000000000000000000000000000000000000000000000000000000000000000000000000000000000000PES00010000001000000000000000000000000
202003050010001400000000000000013466000000000000000134668000000000020235186676PAIS WALTER LUIS              000000003367372000000000000000000000000000000000000000000000000000000000000000000000000000000000000000000000000000000000PES00010000001000000000000000000000000
202003050060001400000000000000003729000000000000000037298000000000020136274903VERA MARCELO OSVALDO          000000005408822000000000000000000000000000000000000000000000000000000000000000000000000000000000000000000000000000000000PES00010000001000000000000000000000000
202003050060001400000000000000003730000000000000000037308000000000020315883718OLAZ PABLO SEBASTIAN          000000003563933000000000000000000000000000000000000000000000000000000000000000000000000000000000000000000000000000000000PES00010000001000000000000000000000000
202003050060001400000000000000003731000000000000000037318000000000020315883718OLAZ PABLO SEBASTIAN          000000004998009000000000000000000000000000000000000000000000000000000000000000000000000000000000000000000000000000000000PES00010000001000000000000000000000000
202003050060001400000000000000003732000000000000000037328000000000020315883718OLAZ PABLO SEBASTIAN          000000004210782000000000000000000000000000000000000000000000000000000000000000000000000000000000000000000000000000000000PES00010000001000000000000000000000000
202003050060001400000000000000003733000000000000000037338000000000020272318051SILVEIRA CRISTIAN FABIAN      000000001704696000000000000000000000000000000000000000000000000000000000000000000000000000000000000000000000000000000000PES00010000001000000000000000000000000
202003050060001400000000000000003734000000000000000037348000000000020255437861FRIAS JOSE LUIS               000000002986628000000000000000000000000000000000000000000000000000000000000000000000000000000000000000000000000000000000PES00010000001000000000000000000000000
202003050060001400000000000000003735000000000000000037358000000000020315883718OLAZ PABLO SEBASTIAN          000000002690037000000000000000000000000000000000000000000000000000000000000000000000000000000000000000000000000000000000PES00010000001000000000000000000000000
202003050030001400000000000000002034000000000000000020348000000000027060678443CACERES VICTORIA DEL CARMEN   000000000228014000000000000000000000000000000000000000000000000000000000000000000000000000000000000000000000000000000000PES00010000001000000000000000000000000
202003050080001400000000000000000629000000000000000006298000000000020315883718OLAZ PABLO SEBASTIAN          000000004210782000000000000000000000000000000000000000000000000000000000000000000000000000000000000000000000000000000000PES00010000001000000000000000000000000
202003050080001400000000000000000630000000000000000006308000000000020123525176SIGNORELLI JOSE ALBERTO       000000000022131000000000000000000000000000000000000000000000000000000000000000000000000000000000000000000000000000000000PES00010000001000000000000000000000000
202003060010001100000000000000010038000000000000000100388000000000020165261624MUDAD FRANCISCO ESTEBAN       000000028999999000000000000000000000000000000000000000000000000000000000000000000000000000000000000000000000000003727800PES00010000001000000000000000000000000
202003060010001100000000000000010039000000000000000100398000000000030710080271LA RONDA S.R.L.               000000023199999000000000000000000000000000000000000000000000000000000000000000000000000000000000000000000000000002982240PES00010000001000000000000000000000000
202003060010001400000000000000013467000000000000000134678000000000030709702390YABITEL SA                    000000001056691000000000000000000000000000000000000000000000000000000000000000000000000000000000000000000000000000000000PES00010000001000000000000000000000000
202003060010001400000000000000013468000000000000000134688000000000030708724560LA ASTURIANA S.R.L            000000002994859000000000000000000000000000000000000000000000000000000000000000000000000000000000000000000000000000000000PES00010000001000000000000000000000000
202003060010001400000000000000013469000000000000000134698000000000030716014564VIENTOS DEL NORTE SRL         000000007127866000000000000000000000000000000000000000000000000000000000000000000000000000000000000000000000000000000000PES00010000001000000000000000000000000
202003060010001400000000000000013470000000000000000134708000000000030707728805PROYECTOS METALURGICOS S.A.   000000002445404000000000000000000000000000000000000000000000000000000000000000000000000000000000000000000000000000000000PES00010000001000000000000000000000000
202003060010001400000000000000013471000000000000000134718000000000020135634094ELIAS MARIO DANTE             000000001627289000000000000000000000000000000000000000000000000000000000000000000000000000000000000000000000000000000000PES00010000001000000000000000000000000
202003060010001400000000000000013472000000000000000134728000000000030588577267GOMERIA RUTA 38 DE GIRAUDO HNO000000004314539000000000000000000000000000000000000000000000000000000000000000000000000000000000000000000000000000000000PES00010000001000000000000000000000000
202003060010001400000000000000013473000000000000000134738000000000027328292217CARRIZO NOELIA DEL VALLE      000000006640965000000000000000000000000000000000000000000000000000000000000000000000000000000000000000000000000000000000PES00010000001000000000000000000000000
202003060010001400000000000000013474000000000000000134748000000000020263850980CHAYA SEBASTIAN ENRIQUE       000000006760022000000000000000000000000000000000000000000000000000000000000000000000000000000000000000000000000000000000PES00010000001000000000000000000000000
202003060010001400000000000000013475000000000000000134758000000000020230561878VICTORIA JOSE RODOLFO         000000007620163000000000000000000000000000000000000000000000000000000000000000000000000000000000000000000000000000000000PES00010000001000000000000000000000000
202003060010001400000000000000013476000000000000000134768000000000030712272542OLGA ZOTTOLA DE SIMONETO E HIJ000000004587250000000000000000000000000000000000000000000000000000000000000000000000000000000000000000000000000000000000PES00010000001000000000000000000000000
202003060010001400000000000000013477000000000000000134778000000000030712272542OLGA ZOTTOLA DE SIMONETO E HIJ000000003233385000000000000000000000000000000000000000000000000000000000000000000000000000000000000000000000000000000000PES00010000001000000000000000000000000
202003060010001400000000000000013478000000000000000134788000000000020248027097GIMENEZ LASCANO JAVIER JOSE   000000000367946000000000000000000000000000000000000000000000000000000000000000000000000000000000000000000000000000000000PES00010000001000000000000000000000000
202003060010001400000000000000013479000000000000000134798000000000020228773159CARRIZO GARUTI MAURICIO ADRIAN000000002451291000000000000000000000000000000000000000000000000000000000000000000000000000000000000000000000000000000000PES00010000001000000000000000000000000
202003060010001400000000000000013480000000000000000134808000000000020263850980CHAYA SEBASTIAN ENRIQUE       000000005239277000000000000000000000000000000000000000000000000000000000000000000000000000000000000000000000000000000000PES00010000001000000000000000000000000
202003060010001600000000000000000722000000000000000007228000000000030649696736RONDEAU SRL                   000000001158765000000000000000000000000000000000000000000000000000000000000000000000000000000000000000000000000000000000PES00010000001000000000000000000000000
202003060010005100000000000000000186000000000000000001868000000000020119103879MARTINEZ ZUCCARDI JORGE A     000000002248832000000000000000000000000000000000000000000000000000000000000000000000000000000000000000000000000000000000PES00010000001000000000000000000000000
202003060060001100000000000000000180000000000000000001808000000000033638640789DIRECCION PROVINCIAL DE VIALID000000617000000000000000000000000000000000000000000000000000000000000000000000000000000000000000000000000000000074556000PES00010000001000000000000000000000000
202003060060001400000000000000003736000000000000000037368000000000020047077835ESCARLATA GUILLERMO MANUEL    000000003403563000000000000000000000000000000000000000000000000000000000000000000000000000000000000000000000000000000000PES00010000001000000000000000000000000
202003060060001400000000000000003737000000000000000037378000000000030656291652MUNICIPALIDAD DE MONTEROS     000000002986628000000000000000000000000000000000000000000000000000000000000000000000000000000000000000000000000000000000PES00010000001000000000000000000000000
202003060060001400000000000000003738000000000000000037388000000000020233029131VALLEJO ADRIAN                000000001844934000000000000000000000000000000000000000000000000000000000000000000000000000000000000000000000000000000000PES00010000001000000000000000000000000
202003060060001400000000000000003739000000000000000037398000000000027058767196SARAVIA ELDA SINFOROSA        000000000675250000000000000000000000000000000000000000000000000000000000000000000000000000000000000000000000000000000000PES00010000001000000000000000000000000
202003060030001400000000000000002035000000000000000020358000000000020263850980CHAYA SEBASTIAN ENRIQUE       000000006760022000000000000000000000000000000000000000000000000000000000000000000000000000000000000000000000000000000000PES00010000001000000000000000000000000
202003070010001100000000000000010040000000000000000100408000000000020285315671ROTH GERARDO ARIEL            000000018403400000000000000000000000000000000000000000000000000000000000000000000000000000000000000000000000000002365662PES00010000001000000000000000000000000
202003070010001100000000000000010041000000000000000100418000000000030708724560LA ASTURIANA S.R.L            000000023800000000000000000000000000000000000000000000000000000000000000000000000000000000000000000000000000000002982240PES00010000001000000000000000000000000
202003070010001100000000000000010042000000000000000100428000000000030620919922RF y J BUDEGUER SRL           000000005800000000000000000000000000000000000000000000000000000000000000000000000000000000000000000000000000000000745560PES00010000001000000000000000000000000
202003070010001100000000000000010043000000000000000100438000000000030680011199SAGITARIO EXPORTACIONES SRL   000000006100000000000000000000000000000000000000000000000000000000000000000000000000000000000000000000000000000000745560PES00010000001000000000000000000000000
202003070010001400000000000000013481000000000000000134818000000000020248027097GIMENEZ LASCANO JAVIER JOSE   000000001467285000000000000000000000000000000000000000000000000000000000000000000000000000000000000000000000000000000000PES00010000001000000000000000000000000
202003070010001400000000000000013482000000000000000134828000000000030710143044USAL SRL                      000000000363812000000000000000000000000000000000000000000000000000000000000000000000000000000000000000000000000000000000PES00010000001000000000000000000000000
202003070010001400000000000000013483000000000000000134838000000000020224515678BONURA CARLOS R               000000007127866000000000000000000000000000000000000000000000000000000000000000000000000000000000000000000000000000000000PES00010000001000000000000000000000000
202003070010001600000000000000000723000000000000000007238000000000020224515678BONURA CARLOS R               000000001158765000000000000000000000000000000000000000000000000000000000000000000000000000000000000000000000000000000000PES00010000001000000000000000000000000
202003090010001100000000000000010044000000000000000100448000000000030679978132LOS CUATRO SOLES SRL          000000011900000000000000000000000000000000000000000000000000000000000000000000000000000000000000000000000000000001491120PES00010000001000000000000000000000000
202003090010001100000000000000010045000000000000000100458000000000030685674226BLAZQUEZ SRL                  000000005800000000000000000000000000000000000000000000000000000000000000000000000000000000000000000000000000000000745560PES00010000001000000000000000000000000
202003090010001100000000000000010046000000000000000100468000000000030685674226BLAZQUEZ SRL                  000000014499999000000000000000000000000000000000000000000000000000000000000000000000000000000000000000000000000001863900PES00010000001000000000000000000000000
202003090010001100000000000000010047000000000000000100478000000000020229693868ROTTA MANUEL JUAN             000000017399999000000000000000000000000000000000000000000000000000000000000000000000000000000000000000000000000002236680PES00010000001000000000000000000000000
202003090010001100000000000000010048000000000000000100488000000000030708587342QUILLEN BERRIES S.A           000000008699999000000000000000000000000000000000000000000000000000000000000000000000000000000000000000000000000001118340PES00010000001000000000000000000000000
202003090010001100000000000000010049000000000000000100498000000000030715261517SERCOU SRL                    000000014499999000000000000000000000000000000000000000000000000000000000000000000000000000000000000000000000000001863900PES00010000001000000000000000000000000
202003090010001100000000000000010050000000000000000100508000000000023136289039BORTOLOTTI FERNANDO           000000017399999000000000000000000000000000000000000000000000000000000000000000000000000000000000000000000000000002236680PES00010000001000000000000000000000000
202003090010001400000000000000013484000000000000000134848000000000030714278386TRANSPORTE ADM SRL            000000000363812000000000000000000000000000000000000000000000000000000000000000000000000000000000000000000000000000000000PES00010000001000000000000000000000000
202003090010001400000000000000013485000000000000000134858000000000020437723592CHIBILISCO VENZAL AGUSTIN     000000000858824000000000000000000000000000000000000000000000000000000000000000000000000000000000000000000000000000000000PES00010000001000000000000000000000000
202003090010001400000000000000013486000000000000000134868000000000030712272542OLGA ZOTTOLA DE SIMONETO E HIJ000000002325268000000000000000000000000000000000000000000000000000000000000000000000000000000000000000000000000000000000PES00010000001000000000000000000000000
202003090010001400000000000000013487000000000000000134878000000000030712272542OLGA ZOTTOLA DE SIMONETO E HIJ000000002325268000000000000000000000000000000000000000000000000000000000000000000000000000000000000000000000000000000000PES00010000001000000000000000000000000
202003090010001400000000000000013488000000000000000134888000000000030697176043PERFORACIONES Y SERVICIOS SRL 000000002950874000000000000000000000000000000000000000000000000000000000000000000000000000000000000000000000000000000000PES00010000001000000000000000000000000
202003090010001400000000000000013489000000000000000134898000000000020178667166RIOS CESAR GUSTAVO            000000000521002000000000000000000000000000000000000000000000000000000000000000000000000000000000000000000000000000000000PES00010000001000000000000000000000000
202003090010001400000000000000013490000000000000000134908000000000030504549328INGECO SA                     000000003563933000000000000000000000000000000000000000000000000000000000000000000000000000000000000000000000000000000000PES00010000001000000000000000000000000
202003090010001400000000000000013491000000000000000134918000000000030714278386TRANSPORTE ADM SRL            000000000363812000000000000000000000000000000000000000000000000000000000000000000000000000000000000000000000000000000000PES00010000001000000000000000000000000
202003090010001400000000000000013492000000000000000134928000000000030707357335EMPRESA EL MILAGRO S.A.       000000003454487000000000000000000000000000000000000000000000000000000000000000000000000000000000000000000000000000000000PES00010000001000000000000000000000000
202003090010001400000000000000013493000000000000000134938000000000030712272542OLGA ZOTTOLA DE SIMONETO E HIJ000000000261257000000000000000000000000000000000000000000000000000000000000000000000000000000000000000000000000000000000PES00010000001000000000000000000000000
202003090010001400000000000000013494000000000000000134948000000000027277517006ZATO FABIANA VERONICA         000000001032742000000000000000000000000000000000000000000000000000000000000000000000000000000000000000000000000000000000PES00010000001000000000000000000000000
202003090010001400000000000000013495000000000000000134958000000000020938619507MEDICI PEDRO FERRUCCIO        000000000275006000000000000000000000000000000000000000000000000000000000000000000000000000000000000000000000000000000000PES00010000001000000000000000000000000
202003090010001400000000000000013496000000000000000134968000000000030712272542OLGA ZOTTOLA DE SIMONETO E HIJ000000002301085000000000000000000000000000000000000000000000000000000000000000000000000000000000000000000000000000000000PES00010000001000000000000000000000000
202003090010001400000000000000013497000000000000000134978000000000030523408247CERAMICA MARCOS PAZ SRL       000000002445404000000000000000000000000000000000000000000000000000000000000000000000000000000000000000000000000000000000PES00010000001000000000000000000000000
202003090010001600000000000000000724000000000000000007248000000000020073702969CHAYA MARIO ROQUE             000000000205164000000000000000000000000000000000000000000000000000000000000000000000000000000000000000000000000000000000PES00010000001000000000000000000000000
202003090030001400000000000000002036000000000000000020368000000000030712272542OLGA ZOTTOLA DE SIMONETO E HIJ000000002325268000000000000000000000000000000000000000000000000000000000000000000000000000000000000000000000000000000000PES00010000001000000000000000000000000
202003100010001100000000000000010051000000000000000100518000000000030707089586NYNAGRO S.R.L.                000000005800000000000000000000000000000000000000000000000000000000000000000000000000000000000000000000000000000000745560PES00010000001000000000000000000000000
202003100010001100000000000000010052000000000000000100528000000000030697222800SOLBES HNOS                   000000023199999000000000000000000000000000000000000000000000000000000000000000000000000000000000000000000000000002982240PES00010000001000000000000000000000000
202003100010001100000000000000010053000000000000000100538000000000020230271403ROTH CARLOS GERMAN            000000062059998000000000000000000000000000000000000000000000000000000000000000000000000000000000000000000000000007977492PES00010000001000000000000000000000000
202003100010001100000000000000010054000000000000000100548000000000030644196352SERV.ADMINISTRATIVOS Y AGROPEC000000027500000000000000000000000000000000000000000000000000000000000000000000000000000000000000000000000000000003727800PES00010000001000000000000000000000000
202003100010001100000000000000010055000000000000000100558000000000030707271899ZUCAMEL SA                    000000027500000000000000000000000000000000000000000000000000000000000000000000000000000000000000000000000000000003727800PES00010000001000000000000000000000000
202003100010001100000000000000010056000000000000000100568000000000030708321539AGROPECUARIA POZO LARGO S.A.  000000011600000000000000000000000000000000000000000000000000000000000000000000000000000000000000000000000000000001491120PES00010000001000000000000000000000000
202003100010001100000000000000010057000000000000000100578000000000020229693868ROTTA MANUEL JUAN             000000001299200000000000000000000000000000000000000000000000000000000000000000000000000000000000000000000000000000167005PES00010000001000000000000000000000000
202003100010001400000000000000013498000000000000000134988000000000030715098551SUCROALCOHOLERA DEL SUR SA    000000005041396000000000000000000000000000000000000000000000000000000000000000000000000000000000000000000000000000000000PES00010000001000000000000000000000000
202003100010001400000000000000013499000000000000000134998000000000027060678443CACERES VICTORIA DEL CARMEN   000000002352349000000000000000000000000000000000000000000000000000000000000000000000000000000000000000000000000000000000PES00010000001000000000000000000000000
202003100010001400000000000000013500000000000000000135008000000000023070919249HERRERA JORGE ARMANDO         000000004679325000000000000000000000000000000000000000000000000000000000000000000000000000000000000000000000000000000000PES00010000001000000000000000000000000
202003100010001400000000000000013501000000000000000135018000000000020248430843NUEZ GUSTAVO RAFAEL           000000002445405000000000000001000000000000000000000000000000000000000000000000000000000000000000000000000000000000000000PES00010000001000000000000000000000000
202003100010001400000000000000013502000000000000000135028000000000020248430843NUEZ GUSTAVO RAFAEL           000000000368331000000000000000000000000000000000000000000000000000000000000000000000000000000000000000000000000000000000PES00010000001000000000000000000000000
202003100010001400000000000000013503000000000000000135038000000000027110648974CARRIZO ROSA                  000000000368331000000000000000000000000000000000000000000000000000000000000000000000000000000000000000000000000000000000PES00010000001000000000000000000000000
202003100010001400000000000000013504000000000000000135048000000000030715028936EPS SERVICIOS E INVERSIONES SA000000005033600000000000000000000000000000000000000000000000000000000000000000000000000000000000000000000000000000000000PES00010000001000000000000000000000000
202003100010001400000000000000013505000000000000000135058000000000030715098551SUCROALCOHOLERA DEL SUR SA    000000029638660000000000000000000000000000000000000000000000000000000000000000000000000000000000000000000000000000000000PES00010000001000000000000000000000000
202003100010001400000000000000013506000000000000000135068000000000020437723592CHIBILISCO VENZAL AGUSTIN     000000000733642000000000000000000000000000000000000000000000000000000000000000000000000000000000000000000000000000000000PES00010000001000000000000000000000000
202003100010001400000000000000013507000000000000000135078000000000027240071482VILLAVICENCIO MARIA DE LOS ANG000000002513689000000000000000000000000000000000000000000000000000000000000000000000000000000000000000000000000000000000PES00010000001000000000000000000000000
202003100010001400000000000000013508000000000000000135088000000000023119096669VILLAFAE LUIS ANTONIO       L 000000002986628000000000000000000000000000000000000000000000000000000000000000000000000000000000000000000000000000000000PES00010000001000000000000000000000000
202003100010001400000000000000013509000000000000000135098000000000020203702249LUNA FABIAN ALFREDO           000000001349696000000000000000000000000000000000000000000000000000000000000000000000000000000000000000000000000000000000PES00010000001000000000000000000000000
202003100010001400000000000000013510000000000000000135108000000000030715098551SUCROALCOHOLERA DEL SUR SA    000000007920169000000000000000000000000000000000000000000000000000000000000000000000000000000000000000000000000000000000PES00010000001000000000000000000000000
202003100010001400000000000000013511000000000000000135118000000000020222159831MANSUR JULIO CESAR            000000005440263000000000000000000000000000000000000000000000000000000000000000000000000000000000000000000000000000000000PES00010000001000000000000000000000000
202003100010001400000000000000013512000000000000000135128000000000020222159831MANSUR JULIO CESAR            000000002986628000000000000000000000000000000000000000000000000000000000000000000000000000000000000000000000000000000000PES00010000001000000000000000000000000
202003100010001400000000000000013513000000000000000135138000000000020355206182ARIAS RICARDO DANIEL          000000001118304000000000000000000000000000000000000000000000000000000000000000000000000000000000000000000000000000000000PES00010000001000000000000000000000000
202003100010001400000000000000013514000000000000000135148000000000020355206182ARIAS RICARDO DANIEL          000000001078254000000000000000000000000000000000000000000000000000000000000000000000000000000000000000000000000000000000PES00010000001000000000000000000000000
202003100010001400000000000000013515000000000000000135158000000000030711031576AGROPECUARIA MUNDO NUEVO SRL  000000001056691000000000000000000000000000000000000000000000000000000000000000000000000000000000000000000000000000000000PES00010000001000000000000000000000000
202003100010001400000000000000013516000000000000000135168000000000030523408247CERAMICA MARCOS PAZ SRL       000000005886674000000000000000000000000000000000000000000000000000000000000000000000000000000000000000000000000000000000PES00010000001000000000000000000000000
202003100010001400000000000000013517000000000000000135178000000000030712272542OLGA ZOTTOLA DE SIMONETO E HIJ000000004117418000000000000000000000000000000000000000000000000000000000000000000000000000000000000000000000000000000000PES00010000001000000000000000000000000
202003100010005200000000000000000185000000000000000001858000000000020298780632MUSTAFA MARIANO CESAR         000000016406336000000000000000000000000000000000000000000000000000000000000000000000000000000000000000000000000000000000PES00010000001000000000155897300000000
202003100060001400000000000000003740000000000000000037408000000000027217998226CASTRO MARIA ROSA             000000002986628000000000000000000000000000000000000000000000000000000000000000000000000000000000000000000000000000000000PES00010000001000000000000000000000000
202003100060001400000000000000003741000000000000000037418000000000027217998226CASTRO MARIA ROSA             000000003930600000000000000000000000000000000000000000000000000000000000000000000000000000000000000000000000000000000000PES00010000001000000000000000000000000
202003100060001400000000000000003742000000000000000037428000000000020285312265CARABAJAL LUIS NICOLAS        000000003391680000000000000000000000000000000000000000000000000000000000000000000000000000000000000000000000000000000000PES00010000001000000000000000000000000
202003100060001400000000000000003743000000000000000037438000000000027232392040ABBOUD MUHALA MARIA ALICIA    000000000972389000000000000000000000000000000000000000000000000000000000000000000000000000000000000000000000000000000000PES00010000001000000000000000000000000
202003100030001400000000000000002037000000000000000020378000000000020437723592CHIBILISCO VENZAL AGUSTIN     000000000858824000000000000000000000000000000000000000000000000000000000000000000000000000000000000000000000000000000000PES00010000001000000000000000000000000
202003110010001100000000000000010058000000000000000100588000000000030709628255PACTA SRL                     000000017100000000000000000000000000000000000000000000000000000000000000000000000000000000000000000000000000000002236680PES00010000001000000000000000000000000
202003110010001100000000000000010059000000000000000100598000000000030707465049LAPACHO AMARILLO SRL          000000017399999000000000000000000000000000000000000000000000000000000000000000000000000000000000000000000000000002236680PES00010000001000000000000000000000000
202003110010001100000000000000010060000000000000000100608000000000030707465049LAPACHO AMARILLO SRL          000000011600000000000000000000000000000000000000000000000000000000000000000000000000000000000000000000000000000001491120PES00010000001000000000000000000000000
202003110010001100000000000000010061000000000000000100618000000000020134795876SIGSTAD JUAN                  000000011900000000000000000000000000000000000000000000000000000000000000000000000000000000000000000000000000000001491120PES00010000001000000000000000000000000
202003110010001100000000000000010062000000000000000100628000000000020250220775AMUCHASTEGUI MIGUEL ARMANDO   000000028999999000000000000000000000000000000000000000000000000000000000000000000000000000000000000000000000000003727800PES00010000001000000000000000000000000
202003110010001100000000000000010063000000000000000100638000000000033629599199ESTANCIA JAI SA               000000030500000000000000000000000000000000000000000000000000000000000000000000000000000000000000000000000000000003727800PES00010000001000000000000000000000000
202003110010001100000000000000010064000000000000000100648000000000030708724560LA ASTURIANA S.R.L            000000028999999000000000000000000000000000000000000000000000000000000000000000000000000000000000000000000000000003727800PES00010000001000000000000000000000000
202003110010001100000000000000010065000000000000000100658000000000030710383126TM ROLDAN SRL                 000000004760000000000000000000000000000000000000000000000000000000000000000000000000000000000000000000000000000000596448PES00010000001000000000000000000000000
202003110010001400000000000000013518000000000000000135188000000000033714576629HORMECO SRL                   000000004044043000000000000000000000000000000000000000000000000000000000000000000000000000000000000000000000000000000000PES00010000001000000000000000000000000
202003110010001400000000000000013519000000000000000135198000000000027258534080MESON NANCY BEATRIZ           000000000861761000000000000000000000000000000000000000000000000000000000000000000000000000000000000000000000000000000000PES00010000001000000000000000000000000
202003110010001400000000000000013520000000000000000135208000000000027301176606BUSNELLI PAULA FLORENCIA      000000024512906000000000000000000000000000000000000000000000000000000000000000000000000000000000000000000000000000000000PES00010000001000000000000000000000000
202003110010001400000000000000013521000000000000000135218000000000020296739554MUHIC GIANNI MIRKO            000000009595471000000000000000000000000000000000000000000000000000000000000000000000000000000000000000000000000000000000PES00010000001000000000000000000000000
202003110010001400000000000000013522000000000000000135228000000000020119156980BRAVO MIGUEL ANGEL            000000007398734000000000000000000000000000000000000000000000000000000000000000000000000000000000000000000000000000000000PES00010000001000000000000000000000000
202003110010001400000000000000013523000000000000000135238000000000030712272542OLGA ZOTTOLA DE SIMONETO E HIJ000000003100356000000000000000000000000000000000000000000000000000000000000000000000000000000000000000000000000000000000PES00010000001000000000000000000000000
202003110010001400000000000000013524000000000000000135248000000000030504549328INGECO SA                     000000013179809000000000000000000000000000000000000000000000000000000000000000000000000000000000000000000000000000000000PES00010000001000000000000000000000000
202003110010001400000000000000013525000000000000000135258000000000020277305195FOIX PABLO GABRIEL            000000003130288000000000000000000000000000000000000000000000000000000000000000000000000000000000000000000000000000000000PES00010000001000000000000000000000000
202003110010001400000000000000013526000000000000000135268000000000030532149793CALSA                         000000002694424000000000000000000000000000000000000000000000000000000000000000000000000000000000000000000000000000000000PES00010000001000000000000000000000000
202003110010001600000000000000000725000000000000000007258000000000020073702969CHAYA MARIO ROQUE             000000000205164000000000000000000000000000000000000000000000000000000000000000000000000000000000000000000000000000000000PES00010000001000000000000000000000000
202003110060001400000000000000003744000000000000000037448000000000020166931038RODRIGUEZ JOSE ALBERTO        000000001160708000000000000000000000000000000000000000000000000000000000000000000000000000000000000000000000000000000000PES00010000001000000000000000000000000
202003110060001400000000000000003745000000000000000037458000000000020112675214LIZARRAGA EDMUNDO ANTONIO     000000004526386000000000000000000000000000000000000000000000000000000000000000000000000000000000000000000000000000000000PES00010000001000000000000000000000000
202003110030001400000000000000002038000000000000000020388000000000027301176606BUSNELLI PAULA FLORENCIA      000000001474814000000000000000000000000000000000000000000000000000000000000000000000000000000000000000000000000000000000PES00010000001000000000000000000000000
202003110030001400000000000000002039000000000000000020398000000000030712272542OLGA ZOTTOLA DE SIMONETO E HIJ000000002301085000000000000000000000000000000000000000000000000000000000000000000000000000000000000000000000000000000000PES00010000001000000000000000000000000
202003110030001400000000000000002040000000000000000020408000000000020119156980BRAVO MIGUEL ANGEL            000000007398734000000000000000000000000000000000000000000000000000000000000000000000000000000000000000000000000000000000PES00010000001000000000000000000000000
202003120010001400000000000000013527000000000000000135278000000000027148465296ARTERO LILIANA DEL VALLE      000000002445404000000000000000000000000000000000000000000000000000000000000000000000000000000000000000000000000000000000PES00010000001000000000000000000000000
202003120010001400000000000000013528000000000000000135288000000000030697164657LAS HORQUETAS SRL             000000000671102000000000000000000000000000000000000000000000000000000000000000000000000000000000000000000000000000000000PES00010000001000000000000000000000000
202003120010001400000000000000013529000000000000000135298000000000020070755328GOMEZ JOSE ABRAHAM            000000002854712000000000000000000000000000000000000000000000000000000000000000000000000000000000000000000000000000000000PES00010000001000000000000000000000000
202003120010001400000000000000013530000000000000000135308000000000030511008030PAZ Y POSSE LTDA SA           000000002586486000000000000000000000000000000000000000000000000000000000000000000000000000000000000000000000000000000000PES00010000001000000000000000000000000
202003120010001400000000000000013531000000000000000135318000000000020119156980BRAVO MIGUEL ANGEL            000000006907677000000000000000000000000000000000000000000000000000000000000000000000000000000000000000000000000000000000PES00010000001000000000000000000000000
202003120010001400000000000000013532000000000000000135328000000000030675415087CIA AZUCARERA LOS BALCANES SA 000000005041396000000000000000000000000000000000000000000000000000000000000000000000000000000000000000000000000000000000PES00010000001000000000000000000000000
202003120010001400000000000000013533000000000000000135338000000000030675415087CIA AZUCARERA LOS BALCANES SA 000000005041396000000000000000000000000000000000000000000000000000000000000000000000000000000000000000000000000000000000PES00010000001000000000000000000000000
202003120010001400000000000000013534000000000000000135348000000000030675415087CIA AZUCARERA LOS BALCANES SA 000000005041396000000000000000000000000000000000000000000000000000000000000000000000000000000000000000000000000000000000PES00010000001000000000000000000000000
202003120010001400000000000000013535000000000000000135358000000000030709702390YABITEL SA                    000000000528345000000000000000000000000000000000000000000000000000000000000000000000000000000000000000000000000000000000PES00010000001000000000000000000000000
202003120010001400000000000000013536000000000000000135368000000000030709702390YABITEL SA                    000000005981487000000000000000000000000000000000000000000000000000000000000000000000000000000000000000000000000000000000PES00010000001000000000000000000000000
202003120010001400000000000000013537000000000000000135378000000000030709702390YABITEL SA                    000000000363812000000000000000000000000000000000000000000000000000000000000000000000000000000000000000000000000000000000PES00010000001000000000000000000000000
202003120010001600000000000000000726000000000000000007268000000000027379976390MIROLI LOMBARDO SILVIA NOELIA 000000001431333000000000000000000000000000000000000000000000000000000000000000000000000000000000000000000000000000000000PES00010000001000000000000000000000000
202003120010005100000000000000000187000000000000000001878000000000027148465296ARTERO LILIANA DEL VALLE      000000000583872000000000000000000000000000000000000000000000000000000000000000000000000000000000000000000000000000000000PES00010000001000000000000000000000000
202003120010005100000000000000000188000000000000000001888000000000030715152734CAMPO Y CABAAS LAS CASUALINAS 000000007000576000000000000000000000000000000000000000000000000000000000000000000000000000000000000000000000000000000000PES00010000001000000000000000000000000
202003120060001400000000000000003746000000000000000037468000000000020162985052NIEVA VICTOR HUGO             000000002733891000000000000000000000000000000000000000000000000000000000000000000000000000000000000000000000000000000000PES00010000001000000000000000000000000
202003120060001400000000000000003747000000000000000037478000000000020123525176SIGNORELLI JOSE ALBERTO       000000002279371000000000000000000000000000000000000000000000000000000000000000000000000000000000000000000000000000000000PES00010000001000000000000000000000000
202003120030001400000000000000002041000000000000000020418000000000030702380339DANOVIS S.A                   000000000911748000000000000000000000000000000000000000000000000000000000000000000000000000000000000000000000000000000000PES00010000001000000000000000000000000
202003120030001400000000000000002042000000000000000020428000000000020069967095SUCESION DE TERAN RODOLFO NICO000000000849058000000000000000000000000000000000000000000000000000000000000000000000000000000000000000000000000000000000PES00010000001000000000000000000000000
202003120030001400000000000000002043000000000000000020438000000000020269819104CUOZZO PABLO EDUARDO          000000001600991000000000000000000000000000000000000000000000000000000000000000000000000000000000000000000000000000000000PES00010000001000000000000000000000000
202003130010001100000000000000010066000000000000000100668000000000030712992006TIERRA DE BERRIES SA          000000018300000000000000000000000000000000000000000000000000000000000000000000000000000000000000000000000000000002236680PES00010000001000000000000000000000000
202003130010001100000000000000010067000000000000000100678000000000033714595909TIERRA DE IBATIN SA           000000006100000000000000000000000000000000000000000000000000000000000000000000000000000000000000000000000000000000745560PES00010000001000000000000000000000000
202003130010001100000000000000010068000000000000000100688000000000030620919922RF y J BUDEGUER SRL           000000005800000000000000000000000000000000000000000000000000000000000000000000000000000000000000000000000000000000745560PES00010000001000000000000000000000000
202003130010001100000000000000010069000000000000000100698000000000020070077176GHIGGIA JOSE ALFREDO          000000163500000000000000000000000000000000000000000000000000000000000000000000000000000000000000000000000000000022366800PES00010000001000000000000000000000000
202003130010001100000000000000010070000000000000000100708000000000030710426917AGRO NEGOCIOS SRL             000000017700000000000000000000000000000000000000000000000000000000000000000000000000000000000000000000000000000002236680PES00010000001000000000000000000000000
202003130010001100000000000000010071000000000000000100718000000000030707089586NYNAGRO S.R.L.                000000165000000000000000000000000000000000000000000000000000000000000000000000000000000000000000000000000000000022366800PES00010000001000000000000000000000000
202003130010001100000000000000010072000000000000000100728000000000030716014564VIENTOS DEL NORTE SRL         000000114000000000000000000000000000000000000000000000000000000000000000000000000000000000000000000000000000000014911200PES00010000001000000000000000000000000
202003130010001100000000000000010073000000000000000100738000000000030620919922RF y J BUDEGUER SRL           000000008700000000000000000000000000000000000000000000000000000000000000000000000000000000000000000000000000000001118340PES00010000001000000000000000000000000
202003130010001100000000000000010074000000000000000100748000000000020070077176GHIGGIA JOSE ALFREDO          000000036500000000000000000000000000000000000000000000000000000000000000000000000000000000000000000000000000000004993015PES00010000001000000000000000000000000
202003130010001400000000000000013538000000000000000135388000000000020936454098BERTOLLI OLINDO               000000000586754000000000000000000000000000000000000000000000000000000000000000000000000000000000000000000000000000000000PES00010000001000000000000000000000000
202003130010001400000000000000013539000000000000000135398000000000027305981120CANGEMI IVANNA MARCELA        000000004455760000000000000000000000000000000000000000000000000000000000000000000000000000000000000000000000000000000000PES00010000001000000000000000000000000
202003130010001400000000000000013540000000000000000135408000000000033708668759ACHERAL S.A.                  000000006537682000000000000000000000000000000000000000000000000000000000000000000000000000000000000000000000000000000000PES00010000001000000000000000000000000
202003130010001400000000000000013541000000000000000135418000000000020069967095SUCESION DE TERAN RODOLFO NICO000000008152594000000000000000000000000000000000000000000000000000000000000000000000000000000000000000000000000000000000PES00010000001000000000000000000000000
202003130010001400000000000000013542000000000000000135428000000000020135634094ELIAS MARIO DANTE             000000001823596000000000000000000000000000000000000000000000000000000000000000000000000000000000000000000000000000000000PES00010000001000000000000000000000000
202003130010001400000000000000013543000000000000000135438000000000020135634094ELIAS MARIO DANTE             000000001084859000000000000000000000000000000000000000000000000000000000000000000000000000000000000000000000000000000000PES00010000001000000000000000000000000
202003130010001400000000000000013544000000000000000135448000000000020134760029BOUHIER NORBERTO ABEL         000000000646743000000000000000000000000000000000000000000000000000000000000000000000000000000000000000000000000000000000PES00010000001000000000000000000000000
202003130010001400000000000000013545000000000000000135458000000000030589336131LOS CINCO SA                  000000005432032000000000000000000000000000000000000000000000000000000000000000000000000000000000000000000000000000000000PES00010000001000000000000000000000000
202003130010001400000000000000013546000000000000000135468000000000030707168648DIMATER S.A                   000000109505000000000000000000000000000000000000000000000000000000000000000000000000000000000000000000000000000000000000PES00010000001000000000000000000000000
202003130010001400000000000000013547000000000000000135478000000000030708496827MARGESI SA                    000000000333416000000000000000000000000000000000000000000000000000000000000000000000000000000000000000000000000000000000PES00010000001000000000000000000000000
202003130010001400000000000000013548000000000000000135488000000000030707711155YELLOW CAB                    000000003853482000000000000000000000000000000000000000000000000000000000000000000000000000000000000000000000000000000000PES00010000001000000000000000000000000
202003130010001400000000000000013549000000000000000135498000000000020218675795SUAREZ HECTOR ANTONIO         000000002986982000000000000000000000000000000000000000000000000000000000000000000000000000000000000000000000000000000000PES00010000001000000000000000000000000
202003130010001400000000000000013550000000000000000135508000000000020223826866HARO ROBERTO MARCELO          000000000317911000000000000000000000000000000000000000000000000000000000000000000000000000000000000000000000000000000000PES00010000001000000000000000000000000
202003130010001400000000000000013551000000000000000135518000000000020171369593FERNANDEZ LUIS ALBERTO        000000000681722000000000000000000000000000000000000000000000000000000000000000000000000000000000000000000000000000000000PES00010000001000000000000000000000000
202003130010001400000000000000013552000000000000000135528000000000023111033919CHIVILISCO HECTOR SALVADOR    000000001015951000000000000000000000000000000000000000000000000000000000000000000000000000000000000000000000000000000000PES00010000001000000000000000000000000
202003130010001400000000000000013553000000000000000135538000000000030712272542OLGA ZOTTOLA DE SIMONETO E HIJ000000006109127000000000000000000000000000000000000000000000000000000000000000000000000000000000000000000000000000000000PES00010000001000000000000000000000000
202003130010001400000000000000013554000000000000000135548000000000030712272542OLGA ZOTTOLA DE SIMONETO E HIJ000000001044438000000000000000000000000000000000000000000000000000000000000000000000000000000000000000000000000000000000PES00010000001000000000000000000000000
202003130010001400000000000000013555000000000000000135558000000000020276401883PAZ ALEJANDRO JOSE            000000000733642000000000000000000000000000000000000000000000000000000000000000000000000000000000000000000000000000000000PES00010000001000000000000000000000000
202003130010005100000000000000000189000000000000000001898000000000030707089586NYNAGRO S.R.L.                000000051704813000000000000000000000000000000000000000000000000000000000000000000000000000000000000000000000000000000000PES00010000001000000000000000000000000
202003130060001400000000000000003748000000000000000037488000000000020130517979MASMUD ANTONIO SEBASTIAN      000000000836979000000000000000000000000000000000000000000000000000000000000000000000000000000000000000000000000000000000PES00010000001000000000000000000000000
202003130060001400000000000000003749000000000000000037498000000000020174643041VILLALOBO CESAR ALBERTO       000000000416935000000000000000000000000000000000000000000000000000000000000000000000000000000000000000000000000000000000PES00010000001000000000000000000000000
202003130030001100000000000000000465000000000000000004658000000000030620919922RF y J BUDEGUER SRL           000000009149999000000000000000000000000000000000000000000000000000000000000000000000000000000000000000000000000001118340PES00010000001000000000000000000000000
202003140010001100000000000000010075000000000000000100758000000000030620919922RF y J BUDEGUER SRL           000000008699999000000000000000000000000000000000000000000000000000000000000000000000000000000000000000000000000001118340PES00010000001000000000000000000000000
202003140010001100000000000000010076000000000000000100768000000000030620919922RF y J BUDEGUER SRL           000000005800000000000000000000000000000000000000000000000000000000000000000000000000000000000000000000000000000000745560PES00010000001000000000000000000000000
202003140010001400000000000000013556000000000000000135568000000000030592881329MUSTAFA MANUEL Y MUSTAFA JOSE 000000006371053000000000000000000000000000000000000000000000000000000000000000000000000000000000000000000000000000000000PES00010000001000000000000000000000000
202003140010001400000000000000013557000000000000000135578000000000020206336707FERRE JOSE MANUEL             000000000594478000000000000000000000000000000000000000000000000000000000000000000000000000000000000000000000000000000000PES00010000001000000000000000000000000
202003140010001400000000000000013558000000000000000135588000000000030710444249PERFOSUELO INGENIERIA SRL     000000000528345000000000000000000000000000000000000000000000000000000000000000000000000000000000000000000000000000000000PES00010000001000000000000000000000000
202003140010001400000000000000013559000000000000000135598000000000020119103879MARTINEZ ZUCCARDI JORGE A     000000000825019000000000000000000000000000000000000000000000000000000000000000000000000000000000000000000000000000000000PES00010000001000000000000000000000000
202003140010005200000000000000000186000000000000000001868000000000020298780632MUSTAFA MARIANO CESAR         000000006585579000000000000000000000000000000000000000000000000000000000000000000000000000000000000000000000000000000000PES00010000001000000000062577900000000
202003160010001400000000000000013560000000000000000135608000000000020119193215BOIX MATEO                    000000013741540000000000000000000000000000000000000000000000000000000000000000000000000000000000000000000000000000000000PES00010000001000000000000000000000000
202003160010001400000000000000013561000000000000000135618000000000020119193215BOIX MATEO                    000000011344166000000000000000000000000000000000000000000000000000000000000000000000000000000000000000000000000000000000PES00010000001000000000000000000000000
202003160010001400000000000000013562000000000000000135628000000000030715553712COMPLEJO AZUCARERO CONCEPCION 000000007014883000000000000000000000000000000000000000000000000000000000000000000000000000000000000000000000000000000000PES00010000001000000000000000000000000
202003160010001400000000000000013563000000000000000135638000000000020437723592CHIBILISCO VENZAL AGUSTIN     000000004202399000000000000000000000000000000000000000000000000000000000000000000000000000000000000000000000000000000000PES00010000001000000000000000000000000
202003160010001400000000000000013564000000000000000135648000000000020437723592CHIBILISCO VENZAL AGUSTIN     000000002988030000000000000000000000000000000000000000000000000000000000000000000000000000000000000000000000000000000000PES00010000001000000000000000000000000
202003160010001400000000000000013565000000000000000135658000000000020125412417SOLORZANO JOSE LUIS           000000001705069000000000000000000000000000000000000000000000000000000000000000000000000000000000000000000000000000000000PES00010000001000000000000000000000000
202003160010001400000000000000013566000000000000000135668000000000020073702969CHAYA MARIO ROQUE             000000000733642000000000000000000000000000000000000000000000000000000000000000000000000000000000000000000000000000000000PES00010000001000000000000000000000000
202003160010001400000000000000013567000000000000000135678000000000030649696736RONDEAU SRL                   000000002986628000000000000000000000000000000000000000000000000000000000000000000000000000000000000000000000000000000000PES00010000001000000000000000000000000
202003160010001400000000000000013568000000000000000135688000000000030702380339DANOVIS S.A                   000000022793714000000000000000000000000000000000000000000000000000000000000000000000000000000000000000000000000000000000PES00010000001000000000000000000000000
202003160010001400000000000000013569000000000000000135698000000000030712272542OLGA ZOTTOLA DE SIMONETO E HIJ000000005980418000000000000000000000000000000000000000000000000000000000000000000000000000000000000000000000000000000000PES00010000001000000000000000000000000
202003160010001400000000000000013570000000000000000135708000000000030712272542OLGA ZOTTOLA DE SIMONETO E HIJ000000000522513000000000000000000000000000000000000000000000000000000000000000000000000000000000000000000000000000000000PES00010000001000000000000000000000000
202003160010001600000000000000000727000000000000000007278000000000020119193215BOIX MATEO                    000000002051640000000000000000000000000000000000000000000000000000000000000000000000000000000000000000000000000000000000PES00010000001000000000000000000000000
202003160010001600000000000000000728000000000000000007288000000000030714372153SOLANO SA                     000000004904073000000000000000000000000000000000000000000000000000000000000000000000000000000000000000000000000000000000PES00010000001000000000000000000000000
202003160010005200000000000000000187000000000000000001878000000000020070077176GHIGGIA JOSE ALFREDO          000000089910291000000000000000000000000000000000000000000000000000000000000000000000000000000000000000000000000000000000PES00010000001000000000854351200000000
202003160060001400000000000000003750000000000000000037508000000000020377274165TORRES GUILLERMO MARCELINO    000000000733642000000000000000000000000000000000000000000000000000000000000000000000000000000000000000000000000000000000PES00010000001000000000000000000000000
202003160060001400000000000000003751000000000000000037518000000000020273010522ROMANO DANIEL H               000000003117998000000000000000000000000000000000000000000000000000000000000000000000000000000000000000000000000000000000PES00010000001000000000000000000000000
20200316FACA0001500000000000000000018000000000000000000188000000000030546689979YPF SA                        000000016333298000000000000000000000000000000000000000000000000000000000000000000000000000000000000000000000000000000000PES00010000001000000000155203300000000
20200316FACA0001500000000000000000019000000000000000000198000000000030546689979YPF SA                        000000005004244000000000000000000000000000000000000000000000000000000000000000000000000000000000000000000000000000000000PES00010000001000000000047551600000000
20200316FACA0001500000000000000000020000000000000000000208000000000030546689979YPF SA                        000000020511050000000000000000000000000000000000000000000000000000000000000000000000000000000000000000000000000000000000PES00010000001000000000000000000000000
20200316FACA0001500000000000000000021000000000000000000218000000000030546689979YPF SA                        000000006027737000000000000000000000000000000000000000000000000000000000000000000000000000000000000000000000000000000000PES00010000001000000000000000000000000
20200316FACA0001500000000000000000022000000000000000000228000000000030546689979YPF SA                        000000000159858000000000000000000000000000000000000000000000000000000000000000000000000000000000000000000000000000000000PES00010000001000000000001519000000000
20200316FACA0001500000000000000000023000000000000000000238000000000030546689979YPF SA                        000000010868192000000000000000000000000000000000000000000000000000000000000000000000000000000000000000000000000000000000PES00010000001000000000000000000000000
202003160030001400000000000000002044000000000000000020448000000000020073702969CHAYA MARIO ROQUE             000000000531224000000000000000000000000000000000000000000000000000000000000000000000000000000000000000000000000000000000PES00010000001000000000000000000000000
202003160030001400000000000000002045000000000000000020458000000000020119193215BOIX MATEO                    000000000871011000000000000000000000000000000000000000000000000000000000000000000000000000000000000000000000000000000000PES00010000001000000000000000000000000
202003170010001100000000000000010077000000000000000100778000000000030622371967CODEGRAN SRL                  000000005800000000000000000000000000000000000000000000000000000000000000000000000000000000000000000000000000000000745560PES00010000001000000000000000000000000
202003170010001100000000000000010078000000000000000100788000000000030714057355ZAFIROS DEL NOA SA            000000006230000000000000000000000000000000000000000000000000000000000000000000000000000000000000000000000000000000745560PES00010000001000000000000000000000000
202003170010001400000000000000013571000000000000000135718000000000030708995327EL BAYO SERVICIOS AGROPECUARIO000000014894299000000000000000000000000000000000000000000000000000000000000000000000000000000000000000000000000000000000PES00010000001000000000000000000000000
202003170010001400000000000000013572000000000000000135728000000000030622371967CODEGRAN SRL                  000000001277637000000000000000000000000000000000000000000000000000000000000000000000000000000000000000000000000000000000PES00010000001000000000000000000000000
202003170010001400000000000000013573000000000000000135738000000000020069735852SUCESION DE JEREZ FRANCISCO VA000000005084972000000000000000000000000000000000000000000000000000000000000000000000000000000000000000000000000000000000PES00010000001000000000000000000000000
202003170010001400000000000000013574000000000000000135748000000000020069735852SUCESION DE JEREZ FRANCISCO VA000000001561493000000000000000000000000000000000000000000000000000000000000000000000000000000000000000000000000000000000PES00010000001000000000000000000000000
202003170010001400000000000000013575000000000000000135758000000000020069735852SUCESION DE JEREZ FRANCISCO VA000000001159781000000000000000000000000000000000000000000000000000000000000000000000000000000000000000000000000000000000PES00010000001000000000000000000000000
202003170010001400000000000000013576000000000000000135768000000000020258374569CARTA CARLOS ANTONIO          000000002688257000000000000000000000000000000000000000000000000000000000000000000000000000000000000000000000000000000000PES00010000001000000000000000000000000
202003170010001400000000000000013577000000000000000135778000000000030707465049LAPACHO AMARILLO SRL          000000000825019000000000000000000000000000000000000000000000000000000000000000000000000000000000000000000000000000000000PES00010000001000000000000000000000000
202003170010001400000000000000013578000000000000000135788000000000030619995259LOS ALUXES SOCIEDAD ANONIMA   000000006500000000000000000000000000000000000000000000000000000000000000000000000000000000000000000000000000000000000000PES00010000001000000000000000000000000
202003170010001400000000000000013579000000000000000135798000000000030708587342QUILLEN BERRIES S.A           000000002909335000000000000000000000000000000000000000000000000000000000000000000000000000000000000000000000000000000000PES00010000001000000000000000000000000
202003170010001400000000000000013580000000000000000135808000000000030709628255PACTA SRL                     000000002445404000000000000000000000000000000000000000000000000000000000000000000000000000000000000000000000000000000000PES00010000001000000000000000000000000
202003170010001400000000000000013581000000000000000135818000000000030644196352SERV.ADMINISTRATIVOS Y AGROPEC000000005981487000000000000000000000000000000000000000000000000000000000000000000000000000000000000000000000000000000000PES00010000001000000000000000000000000
202003170010001400000000000000013582000000000000000135828000000000020114950832DETTA COLLI JUAN CARLOS       000000000528345000000000000000000000000000000000000000000000000000000000000000000000000000000000000000000000000000000000PES00010000001000000000000000000000000
202003170010020000000000000000000031000000000000000000318000000000030515488479YPF GAS SA                    000000045966333000000000000000000000000000000000000000000000000000000000000000000000000000000000000000000000000000000000PES00010000001000000000000000000000000
20200317FACA0001500000000000000000024000000000000000000248000000000030546689979YPF SA                        000000080623939000000000000000000000000000000000000000000000000000000000000000000000000000000000000000000000000000000000PES00010000001000000000766109900000000
202003180010001100000000000000010079000000000000000100798000000000030707465049LAPACHO AMARILLO SRL          000000017707400000000000000000000000000000000000000000000000000000000000000000000000000000000000000000000000000002276195PES00010000001000000000000000000000000
202003180010001400000000000000013583000000000000000135838000000000023256326329ECHAZU ANDRES ALBERTO         000000004890808000000000000000000000000000000000000000000000000000000000000000000000000000000000000000000000000000000000PES00010000001000000000000000000000000
202003180010001400000000000000013584000000000000000135848000000000030707338209SERVICIOS Y AVENTURAS SRL     000000006679169000000000000000000000000000000000000000000000000000000000000000000000000000000000000000000000000000000000PES00010000001000000000000000000000000
202003180010001400000000000000013585000000000000000135858000000000020296739554MUHIC GIANNI MIRKO            000000006251927000000000000000000000000000000000000000000000000000000000000000000000000000000000000000000000000000000000PES00010000001000000000000000000000000
202003180010005100000000000000000190000000000000000001908000000000020142258707GUERINEAU CARLOS LUIS         000000004836975000000000000000000000000000000000000000000000000000000000000000000000000000000000000000000000000000000000PES00010000001000000000000000000000000
202003180060001400000000000000003752000000000000000037528000000000020240568285MERCADO GUSTAVO ANTONIO       000000000666831000000000000000000000000000000000000000000000000000000000000000000000000000000000000000000000000000000000PES00010000001000000000000000000000000
202003180060001400000000000000003753000000000000000037538000000000020249814491CORTI SERGIO DANIEL           000000000576478000000000000000000000000000000000000000000000000000000000000000000000000000000000000000000000000000000000PES00010000001000000000000000000000000
202003180030001400000000000000002046000000000000000020468000000000020171369593FERNANDEZ LUIS ALBERTO        000000000317910000000000000000000000000000000000000000000000000000000000000000000000000000000000000000000000000000000000PES00010000001000000000000000000000000
202003190010001100000000000000010080000000000000000100808000000000030708724560LA ASTURIANA S.R.L            000000029750000000000000000000000000000000000000000000000000000000000000000000000000000000000000000000000000000003727800PES00010000001000000000000000000000000
202003190010001100000000000000010081000000000000000100818000000000030714404683VENDRELL HNOS SRL             000000022400000000000000000000000000000000000000000000000000000000000000000000000000000000000000000000000000000002982240PES00010000001000000000000000000000000
202003190010001100000000000000010082000000000000000100828000000000030709479152EL YUCHAN S.A.                000000028999999000000000000000000000000000000000000000000000000000000000000000000000000000000000000000000000000003727800PES00010000001000000000000000000000000
202003190010001100000000000000010083000000000000000100838000000000020119103879MARTINEZ ZUCCARDI JORGE A     000000028999999000000000000000000000000000000000000000000000000000000000000000000000000000000000000000000000000003727800PES00010000001000000000000000000000000
202003190010001100000000000000010084000000000000000100848000000000020080676396ARGENTE DOMINGO ANDRES        000000028500000000000000000000000000000000000000000000000000000000000000000000000000000000000000000000000000000003727800PES00010000001000000000000000000000000
202003190010001100000000000000010085000000000000000100858000000000030708724560LA ASTURIANA S.R.L            000000029750000000000000000000000000000000000000000000000000000000000000000000000000000000000000000000000000000003727800PES00010000001000000000000000000000000
202003190010001400000000000000013586000000000000000135868000000000023111033919CHIVILISCO HECTOR SALVADOR    000000000275006000000000000000000000000000000000000000000000000000000000000000000000000000000000000000000000000000000000PES00010000001000000000000000000000000
202003190010001400000000000000013587000000000000000135878000000000030711402353REPUESTOS LA ACADEMIA SRL     000000001391944000000000000000000000000000000000000000000000000000000000000000000000000000000000000000000000000000000000PES00010000001000000000000000000000000
202003190010001400000000000000013588000000000000000135888000000000030702402146PREMOL SRL                    000000000550013000000000000000000000000000000000000000000000000000000000000000000000000000000000000000000000000000000000PES00010000001000000000000000000000000
202003190010001400000000000000013589000000000000000135898000000000030707271899ZUCAMEL SA                    000000005432032000000000000000000000000000000000000000000000000000000000000000000000000000000000000000000000000000000000PES00010000001000000000000000000000000
202003190010001400000000000000013590000000000000000135908000000000030523408247CERAMICA MARCOS PAZ SRL       000000002113381000000000000000000000000000000000000000000000000000000000000000000000000000000000000000000000000000000000PES00010000001000000000000000000000000
202003190010001400000000000000013591000000000000000135918000000000030712992006TIERRA DE BERRIES SA          000000000528345000000000000000000000000000000000000000000000000000000000000000000000000000000000000000000000000000000000PES00010000001000000000000000000000000
202003190010001400000000000000013592000000000000000135928000000000030707991387RODA TRANSFORMECANICA  SERV SR000000028341201000000000000000000000000000000000000000000000000000000000000000000000000000000000000000000000000000000000PES00010000001000000000000000000000000
202003190010001400000000000000013593000000000000000135938000000000020143532004SANCHEZ HORACIO CESAR         000000002834120000000000000000000000000000000000000000000000000000000000000000000000000000000000000000000000000000000000PES00010000001000000000000000000000000
202003190010001400000000000000013594000000000000000135948000000000023235640309OLIVERA PABLO                 000000004982383000000000000000000000000000000000000000000000000000000000000000000000000000000000000000000000000000000000PES00010000001000000000000000000000000
202003190010001400000000000000013595000000000000000135958000000000020070077176GHIGGIA JOSE ALFREDO          000000005937499000000000000000000000000000000000000000000000000000000000000000000000000000000000000000000000000000000000PES00010000001000000000000000000000000
202003190010001400000000000000013596000000000000000135968000000000020070077176GHIGGIA JOSE ALFREDO          000000012523818000000000000000000000000000000000000000000000000000000000000000000000000000000000000000000000000000000000PES00010000001000000000000000000000000
202003190010001400000000000000013597000000000000000135978000000000033715861459GRUPO MUOZ SRL                000000002994859000000000000000000000000000000000000000000000000000000000000000000000000000000000000000000000000000000000PES00010000001000000000000000000000000
202003190010001400000000000000013598000000000000000135988000000000030707338209SERVICIOS Y AVENTURAS SRL     000000001019172000000000000000000000000000000000000000000000000000000000000000000000000000000000000000000000000000000000PES00010000001000000000000000000000000
202003190060001400000000000000003754000000000000000037548000000000020127334154QUIROGA JUAN CARLOS           000000006621633000000000000000000000000000000000000000000000000000000000000000000000000000000000000000000000000000000000PES00010000001000000000000000000000000
202003190060001400000000000000003755000000000000000037558000000000027330509037AVILA NADIA NOELIA            000000001717648000000000000000000000000000000000000000000000000000000000000000000000000000000000000000000000000000000000PES00010000001000000000000000000000000
202003190060001400000000000000003756000000000000000037568000000000027330509037AVILA NADIA NOELIA            000000002986628000000000000000000000000000000000000000000000000000000000000000000000000000000000000000000000000000000000PES00010000001000000000000000000000000
202003190060001400000000000000003757000000000000000037578000000000020239031847AVELLANEDA CARLOS             000000001069352000000000000000000000000000000000000000000000000000000000000000000000000000000000000000000000000000000000PES00010000001000000000000000000000000
20200319FACA0001500000000000000000025000000000000000000258000000000030546689979YPF SA                        000000039908539000000000000000000000000000000000000000000000000000000000000000000000000000000000000000000000000000000000PES00010000001000000000000000000000000
202003190030001400000000000000002047000000000000000020478000000000033714576629HORMECO SRL                   000000000404404000000000000000000000000000000000000000000000000000000000000000000000000000000000000000000000000000000000PES00010000001000000000000000000000000
202003200010001100000000000000010086000000000000000100868000000000020085900510MENTEL MANUEL PAULO           000000028999999000000000000000000000000000000000000000000000000000000000000000000000000000000000000000000000000003727800PES00010000001000000000000000000000000
202003200010001100000000000000010087000000000000000100878000000000030708067837AGRICOLA DE LEALES SC         000000011600000000000000000000000000000000000000000000000000000000000000000000000000000000000000000000000000000001491120PES00010000001000000000000000000000000
202003200010001100000000000000010088000000000000000100888000000000030680011199SAGITARIO EXPORTACIONES SRL   000000012200000000000000000000000000000000000000000000000000000000000000000000000000000000000000000000000000000001491120PES00010000001000000000000000000000000
202003200010001100000000000000010089000000000000000100898000000000030697155097LAGAR CONSIGNACIONES SA       000000005800000000000000000000000000000000000000000000000000000000000000000000000000000000000000000000000000000000745560PES00010000001000000000000000000000000
202003210010001100000000000000010090000000000000000100908000000000030504549328INGECO SA                     000000075399998000000000000000000000000000000000000000000000000000000000000000000000000000000000000000000000000009692280PES00010000001000000000000000000000000
202003210010001400000000000000013599000000000000000135998000000000030680022735GANADERA DEL NORDESTE S.R.L.  000000003523204000000000000000000000000000000000000000000000000000000000000000000000000000000000000000000000000000000000PES00010000001000000000000000000000000
202003210010001400000000000000013600000000000000000136008000000000020298780632MUSTAFA MARIANO CESAR         000000003563933000000000000000000000000000000000000000000000000000000000000000000000000000000000000000000000000000000000PES00010000001000000000000000000000000
202003210010001600000000000000000729000000000000000007298000000000030504549328INGECO SA                     000000254554960000000000000000000000000000000000000000000000000000000000000000000000000000000000000000000000000000000000PES00010000001000000000000000000000000
202003210010005100000000000000000191000000000000000001918000000000030680022735GANADERA DEL NORDESTE S.R.L.  000000019552390000000000000000000000000000000000000000000000000000000000000000000000000000000000000000000000000000000000PES00010000001000000000000000000000000
202003250010001100000000000000010091000000000000000100918000000000030708892277LA CASUARINA SRL              000000028999999000000000000000000000000000000000000000000000000000000000000000000000000000000000000000000000000003727800PES00010000001000000000000000000000000
202003250010001100000000000000010092000000000000000100928000000000023136289039BORTOLOTTI FERNANDO           000000028999999000000000000000000000000000000000000000000000000000000000000000000000000000000000000000000000000003727800PES00010000001000000000000000000000000
202003250010001100000000000000010093000000000000000100938000000000030622371967CODEGRAN SRL                  000000006379001000000000000000000000000000000000000000000000000000000000000000000000000000000000000000000000000000745560PES00010000001000000000000000000000000
202003250010001400000000000000013601000000000000000136018000000000030675415087CIA AZUCARERA LOS BALCANES SA 000000005668240000000000000000000000000000000000000000000000000000000000000000000000000000000000000000000000000000000000PES00010000001000000000000000000000000
202003250010001400000000000000013602000000000000000136028000000000030675415087CIA AZUCARERA LOS BALCANES SA 000000005668240000000000000000000000000000000000000000000000000000000000000000000000000000000000000000000000000000000000PES00010000001000000000000000000000000
202003250010001400000000000000013603000000000000000136038000000000023311284339CARRASCO RAUL RICARDO         000000003239987000000000000000000000000000000000000000000000000000000000000000000000000000000000000000000000000000000000PES00010000001000000000000000000000000
202003250010001400000000000000013604000000000000000136048000000000023102945859FLESIA ABELARDO DESIDERIO     000000004748685000000000000000000000000000000000000000000000000000000000000000000000000000000000000000000000000000000000PES00010000001000000000000000000000000
202003260010001400000000000000013605000000000000000136058000000000030707927948FGF TRAPANI SA                000000002986628000000000000000000000000000000000000000000000000000000000000000000000000000000000000000000000000000000000PES00010000001000000000000000000000000
202003260010001400000000000000013606000000000000000136068000000000030714332348QUIPAN SRL                    000000002019838000000000000000000000000000000000000000000000000000000000000000000000000000000000000000000000000000000000PES00010000001000000000000000000000000
202003260010001400000000000000013607000000000000000136078000000000030639227096INTRA S.R.L.                  000000001160000000000000000000000000000000000000000000000000000000000000000000000000000000000000000000000000000000000000PES00010000001000000000000000000000000
202003260010001400000000000000013608000000000000000136088000000000033714563209ALISOS SRL                    000000001002630000000000000000000000000000000000000000000000000000000000000000000000000000000000000000000000000000000000PES00010000001000000000000000000000000
202003260010001400000000000000013609000000000000000136098000000000030505517632VICENTE TRAPANI SA            000000005440933000000000000000000000000000000000000000000000000000000000000000000000000000000000000000000000000000000000PES00010000001000000000000000000000000
202003260030001400000000000000002048000000000000000020488000000000030702402146PREMOL SRL                    000000000550013000000000000000000000000000000000000000000000000000000000000000000000000000000000000000000000000000000000PES00010000001000000000000000000000000
202003260030001400000000000000002049000000000000000020498000000000030685655329PRODUCCION SA                 000000000525135000000000000000000000000000000000000000000000000000000000000000000000000000000000000000000000000000000000PES00010000001000000000000000000000000
202003260030001400000000000000002050000000000000000020508000000000030685655329PRODUCCION SA                 000000000242219000000000000000000000000000000000000000000000000000000000000000000000000000000000000000000000000000000000PES00010000001000000000000000000000000
202003270010001100000000000000010094000000000000000100948000000000023136289039BORTOLOTTI FERNANDO           000000028999999000000000000000000000000000000000000000000000000000000000000000000000000000000000000000000000000003727800PES00010000001000000000000000000000000
202003270010001100000000000000010095000000000000000100958000000000020121564778ANIS ANTONIO                  000000039045599000000000000000000000000000000000000000000000000000000000000000000000000000000000000000000000000005019110PES00010000001000000000000000000000000
202003270010001100000000000000010096000000000000000100968000000000030715573721ANIS CRISTIAN Y ANIS DANIEL SO000000037073920000000000000000000000000000000000000000000000000000000000000000000000000000000000000000000000000004962447PES00010000001000000000000000000000000
202003270010001100000000000000010097000000000000000100978000000000030709339598HIJOS DE SALVADOR SRL         000000216000000000000000000000000000000000000000000000000000000000000000000000000000000000000000000000000000000029822400PES00010000001000000000000000000000000
202003270010001400000000000000013610000000000000000136108000000000030646268393WALCONS SRL                   000000012206680000000000000000000000000000000000000000000000000000000000000000000000000000000000000000000000000000000000PES00010000001000000000000000000000000
202003270010001400000000000000013611000000000000000136118000000000030707927948FGF TRAPANI SA                000000002994859000000000000000000000000000000000000000000000000000000000000000000000000000000000000000000000000000000000PES00010000001000000000000000000000000
202003270030001100000000000000000466000000000000000004668000000000020121564778ANIS ANTONIO                  000000001548359000000000000000000000000000000000000000000000000000000000000000000000000000000000000000000000000000000000PES00010000001000000000000000000000000
202003270030001400000000000000002051000000000000000020518000000000030702380339DANOVIS S.A                   000000003419057000000000000000000000000000000000000000000000000000000000000000000000000000000000000000000000000000000000PES00010000001000000000000000000000000
202003270030001400000000000000002052000000000000000020528000000000030707927948FGF TRAPANI SA                000000002986628000000000000000000000000000000000000000000000000000000000000000000000000000000000000000000000000000000000PES00010000001000000000000000000000000
202003280010001100000000000000010098000000000000000100988000000000030707465049LAPACHO AMARILLO SRL          000000005800000000000000000000000000000000000000000000000000000000000000000000000000000000000000000000000000000000745560PES00010000001000000000000000000000000
202003280010001100000000000000010099000000000000000100998000000000020229693868ROTTA MANUEL JUAN             000000034799999000000000000000000000000000000000000000000000000000000000000000000000000000000000000000000000000004473360PES00010000001000000000000000000000000
202003280010001400000000000000013612000000000000000136128000000000020274548887CORNEJO GUSTAVO FRANCISCO     000000000333416000000000000000000000000000000000000000000000000000000000000000000000000000000000000000000000000000000000PES00010000001000000000000000000000000
202003280030001400000000000000002053000000000000000020538000000000023235640309OLIVERA PABLO                 000000004982383000000000000000000000000000000000000000000000000000000000000000000000000000000000000000000000000000000000PES00010000001000000000000000000000000
202003300010001100000000000000010100000000000000000101008000000000023136289039BORTOLOTTI FERNANDO           000000017399999000000000000000000000000000000000000000000000000000000000000000000000000000000000000000000000000002236680PES00010000001000000000000000000000000
202003300010001400000000000000013613000000000000000136138000000000030691778688EMP CONSTR Y SERVICIOS ECOS SA000000002986628000000000000000000000000000000000000000000000000000000000000000000000000000000000000000000000000000000000PES00010000001000000000000000000000000
202003300010001400000000000000013614000000000000000136148000000000030711031576AGROPECUARIA MUNDO NUEVO SRL  000000008795576000000000000000000000000000000000000000000000000000000000000000000000000000000000000000000000000000000000PES00010000001000000000000000000000000
202003300010005100000000000000000192000000000000000001928000000000030639227096INTRA S.R.L.                  000000010349753000000000000000000000000000000000000000000000000000000000000000000000000000000000000000000000000000000000PES00010000001000000000000000000000000
202003300060001400000000000000003758000000000000000037588000000000020134855720LECCESE RUBEN                 000000000640846000000000000000000000000000000000000000000000000000000000000000000000000000000000000000000000000000000000PES00010000001000000000000000000000000
202003300060001400000000000000003759000000000000000037598000000000020127334154QUIROGA JUAN CARLOS           000000002279371000000000000000000000000000000000000000000000000000000000000000000000000000000000000000000000000000000000PES00010000001000000000000000000000000
202003300060001400000000000000003760000000000000000037608000000000020134855720LECCESE RUBEN                 000000000380743000000000000000000000000000000000000000000000000000000000000000000000000000000000000000000000000000000000PES00010000001000000000000000000000000
20200330FACA0001500000000000000000026000000000000000000268000000000030546689979YPF SA                        000000008401381000000000000000000000000000000000000000000000000000000000000000000000000000000000000000000000000000000000PES00010000001000000000000000000000000
20200330FACA0001500000000000000000027000000000000000000278000000000030546689979YPF SA                        000000001636633000000000000000000000000000000000000000000000000000000000000000000000000000000000000000000000000000000000PES00010000001000000000000000000000000
