202011020010001100000000000000011369000000000000000113698000000000030713516305AGROPECUARIA LAGUNA BLANCA SRL000000023879999000000000000000000000000000000000000000000000000000000000000000000000000000000000000000000000000004525600PES00010000001000000000000000000000000
202011020010001100000000000000011370000000000000000113708000000000030708587342QUILLEN BERRIES S.A           000000008775001000000000000000000000000000000000000000000000000000000000000000000000000000000000000000000000000001697100PES00010000001000000000000000000000000
202011020010001100000000000000011371000000000000000113718000000000030685646389VITRASERV SRL                 000000000597002000000000000000000000000000000000000000000000000000000000000000000000000000000000000000000000000000113140PES00010000001000000000000000000000000
202011020010001100000000000000011372000000000000000113728000000000030708724560LA ASTURIANA S.R.L            000000017910000000000000000000000000000000000000000000000000000000000000000000000000000000000000000000000000000003394200PES00010000001000000000000000000000000
202011020010001100000000000000011373000000000000000113738000000000030626009618EXPRESO RIVADAVIA SRL         000000033105656000000000000000000000000000000000000000000000000000000000000000000000000000000000000000000000000006424655PES00010000001000000000000000000000000
202011020010001100000000000000011374000000000000000113748000000000030626009618EXPRESO RIVADAVIA SRL         000000009498818000000000000000000000000000000000000000000000000000000000000000000000000000000000000000000000000001843390PES00010000001000000000000000000000000
202011020010001100000000000000011375000000000000000113758000000000030708913266TRANSPORTE HACHA DE PIEDRA SRL000000067855364000000000000000000000000000000000000000000000000000000000000000000000000000000000000000000000000013168365PES00010000001000000000000000000000000
202011020010001400000000000000015526000000000000000155268000000000023070919249HERRERA JORGE ARMANDO         000000003723009000000000000000000000000000000000000000000000000000000000000000000000000000000000000000000000000000000000PES00010000001000000000000000000000000
202011020010001400000000000000015527000000000000000155278000000000030682434720GENERACION MEDITERRANEA SA    000000005053772000000000000000000000000000000000000000000000000000000000000000000000000000000000000000000000000000000000PES00010000001000000000000000000000000
202011020010001400000000000000015528000000000000000155288000000000020119103879MARTINEZ ZUCCARDI JORGE A     000000401623396000000000000000000000000000000000000000000000000000000000000000000000000000000000000000000000000000000000PES00010000001000000000000000000000000
202011020010001400000000000000015529000000000000000155298000000000027328292217CARRIZO NOELIA DEL VALLE      000000004836007000000000000000000000000000000000000000000000000000000000000000000000000000000000000000000000000000000000PES00010000001000000000000000000000000
202011020010001400000000000000015530000000000000000155308000000000023070919249HERRERA JORGE ARMANDO         000000001740821000000000000000000000000000000000000000000000000000000000000000000000000000000000000000000000000000000000PES00010000001000000000000000000000000
202011020010001400000000000000015531000000000000000155318000000000030712338039LA CASONA SRL                 000000004593673000000000000000000000000000000000000000000000000000000000000000000000000000000000000000000000000000000000PES00010000001000000000000000000000000
202011020010001400000000000000015532000000000000000155328000000000020296739554MUHIC GIANNI MIRKO            000000006460086000000000000000000000000000000000000000000000000000000000000000000000000000000000000000000000000000000000PES00010000001000000000000000000000000
202011020010001400000000000000015533000000000000000155338000000000020248027097GIMENEZ LASCANO JAVIER JOSE   000000002122749000000000000000000000000000000000000000000000000000000000000000000000000000000000000000000000000000000000PES00010000001000000000000000000000000
202011020010001400000000000000015534000000000000000155348000000000020134795876SIGSTAD JUAN                  000000003701188000000000000000000000000000000000000000000000000000000000000000000000000000000000000000000000000000000000PES00010000001000000000000000000000000
202011020010005100000000000000000282000000000000000002828000000000030710080271LA RONDA S.R.L.               000000006284377000000000000000000000000000000000000000000000000000000000000000000000000000000000000000000000000000000000PES00010000001000000000000000000000000
202011020010005200000000000000000333000000000000000003338000000000030639227096INTRA S.R.L.                  000000000645004000000000000000000000000000000000000000000000000000000000000000000000000000000000000000000000000000000000PES00010000001000000000000000000000000
202011020030001400000000000000002438000000000000000024388000000000030711642532CENTRO DE SERVICIOS DEL ESTE S000000000543031000000000000000000000000000000000000000000000000000000000000000000000000000000000000000000000000000000000PES00010000001000000000000000000000000
202011020030001400000000000000002439000000000000000024398000000000020326874079DIP DANTE GUSTAVO EXEQUIEL    000000000592134000000000000000000000000000000000000000000000000000000000000000000000000000000000000000000000000000000000PES00010000001000000000000000000000000
202011020030001400000000000000002440000000000000000024408000000000030682434720GENERACION MEDITERRANEA SA    000000005053772000000000000000000000000000000000000000000000000000000000000000000000000000000000000000000000000000000000PES00010000001000000000000000000000000
202011020030001400000000000000002441000000000000000024418000000000027252553512VIZCARRA ANALIA DEL VALLE     000000000501620000000000000000000000000000000000000000000000000000000000000000000000000000000000000000000000000000000000PES00010000001000000000000000000000000
202011020080001400000000000000000717000000000000000007178000000000020255437861FRIAS JOSE LUIS               000000000262674000000000000000000000000000000000000000000000000000000000000000000000000000000000000000000000000000000000PES00010000001000000000000000000000000
202011020020001100000000000000000246000000000000000002468000000000020119103879MARTINEZ ZUCCARDI JORGE A     000000047971807000000000000000000000000000000000000000000000000000000000000000000000000000000000000000000000000000000000PES00010000001000000000000000000000000
202011020020001100000000000000000247000000000000000002478000000000030708150823AGROCULTIVOS SRL              000000000841484000000000000000000000000000000000000000000000000000000000000000000000000000000000000000000000000000000000PES00010000001000000000000000000000000
202011030010001100000000000000011376000000000000000113768000000000030710383126TM ROLDAN SRL                 000000020509998000000000000000000000000000000000000000000000000000000000000000000000000000000000000000000000000003959900PES00010000001000000000000000000000000
202011030010001100000000000000011377000000000000000113778000000000020377280378SZMYD JESUS EMMANUEL          000000009134999000000000000000000000000000000000000000000000000000000000000000000000000000000000000000000000000001697100PES00010000001000000000000000000000000
202011030010001100000000000000011378000000000000000113788000000000033708812949FINCA SAN LORENZO SRL         000000014624997000000000000000000000000000000000000000000000000000000000000000000000000000000000000000000000000002828500PES00010000001000000000000000000000000
202011030010001100000000000000011379000000000000000113798000000000030626009618EXPRESO RIVADAVIA SRL         000000016742591000000000000000000000000000000000000000000000000000000000000000000000000000000000000000000000000003249155PES00010000001000000000000000000000000
202011030010001400000000000000015535000000000000000155358000000000030708365234GARRO SRL                     000000002994681000000000000000000000000000000000000000000000000000000000000000000000000000000000000000000000000000000000PES00010000001000000000000000000000000
202011030010001400000000000000015536000000000000000155368000000000020114758338CARRERA FRANCISCO EDUARDO     000000000728011000000000000000000000000000000000000000000000000000000000000000000000000000000000000000000000000000000000PES00010000001000000000000000000000000
202011030010001400000000000000015537000000000000000155378000000000027284964425RACEDO ROSANA ESTER           000000009159735000000000000000000000000000000000000000000000000000000000000000000000000000000000000000000000000000000000PES00010000001000000000000000000000000
202011030010001400000000000000015538000000000000000155388000000000027284964425RACEDO ROSANA ESTER           000000002166205000000000000000000000000000000000000000000000000000000000000000000000000000000000000000000000000000000000PES00010000001000000000000000000000000
202011030010001400000000000000015539000000000000000155398000000000030715102761ARIDOS CALERA SRL             000000005989362000000000000000000000000000000000000000000000000000000000000000000000000000000000000000000000000000000000PES00010000001000000000000000000000000
202011030010001400000000000000015540000000000000000155408000000000027284964425RACEDO ROSANA ESTER           000000003064694000000000000000000000000000000000000000000000000000000000000000000000000000000000000000000000000000000000PES00010000001000000000000000000000000
202011030010001400000000000000015541000000000000000155418000000000020135630900RODRIGUEZ MARCELO OSVALDO     000000001583602000000000000000000000000000000000000000000000000000000000000000000000000000000000000000000000000000000000PES00010000001000000000000000000000000
202011030010001400000000000000015542000000000000000155428000000000027170408980MARTINEZ ZUCCARDI ARIADNA I   000000000748829000000000000000000000000000000000000000000000000000000000000000000000000000000000000000000000000000000000PES00010000001000000000000000000000000
202011030010001400000000000000015543000000000000000155438000000000030710383126TM ROLDAN SRL                 000000000727924000000000000000000000000000000000000000000000000000000000000000000000000000000000000000000000000000000000PES00010000001000000000000000000000000
202011030010001400000000000000015544000000000000000155448000000000023083954329SUCESION DE RODA MARIO OSVALDO000000003539550000000000000000000000000000000000000000000000000000000000000000000000000000000000000000000000000000000000PES00010000001000000000000000000000000
202011030010001400000000000000015545000000000000000155458000000000030708724560LA ASTURIANA S.R.L            000000007402377000000000000000000000000000000000000000000000000000000000000000000000000000000000000000000000000000000000PES00010000001000000000000000000000000
202011030010001600000000000000000800000000000000000008008000000000030714597341RENTAL POWER ARGENTINA SRL    000000286770000000000000000000000000000000000000000000000000000000000000000000000000000000000000000000000000000000000000PES00010000001000000000000000000000000
202011030010005200000000000000000334000000000000000003348000000000030715363670COOP DE TRABAJO AGROPECUARIO C000000005274996000000000000000000000000000000000000000000000000000000000000000000000000000000000000000000000000000000000PES00010000001000000000000000000000000
202011030060001400000000000000004158000000000000000041588000000000020255437861FRIAS JOSE LUIS               000000001058041000000000000000000000000000000000000000000000000000000000000000000000000000000000000000000000000000000000PES00010000001000000000000000000000000
202011030060001400000000000000004159000000000000000041598000000000020310300463DIP MATIAS RUBEN EMILIO       000000000712442000000000000000000000000000000000000000000000000000000000000000000000000000000000000000000000000000000000PES00010000001000000000000000000000000
202011030060001400000000000000004160000000000000000041608000000000020310300463DIP MATIAS RUBEN EMILIO       000000000676822000000000000000000000000000000000000000000000000000000000000000000000000000000000000000000000000000000000PES00010000001000000000000000000000000
202011030060001400000000000000004161000000000000000041618000000000020187403538FIGUEROA BARRIENTOS MANUEL    000000000906676000000000000000000000000000000000000000000000000000000000000000000000000000000000000000000000000000000000PES00010000001000000000000000000000000
202011030060001400000000000000004162000000000000000041628000000000033638640789DIRECCION PROVINCIAL DE VIALID000000076734098000000000000000000000000000000000000000000000000000000000000000000000000000000000000000000000000000000000PES00010000001000000000000000000000000
202011030060001600000000000000000249000000000000000002498000000000033659453199MUNICIPALIDAD DE LA COCHA     000000042400002000000000000000000000000000000000000000000000000000000000000000000000000000000000000000000000000000000000PES00010000001000000000000000000000000
202011030060005100000000000000000011000000000000000000118000000000020228774023VELEZ MARCOS DANIEL           000000000881635000000000000000000000000000000000000000000000000000000000000000000000000000000000000000000000000000000000PES00010000001000000000000000000000000
202011030060005200000000000000000014000000000000000000148000000000020228774023VELEZ MARCOS DANIEL           000000000213812000000000000000000000000000000000000000000000000000000000000000000000000000000000000000000000000000000000PES00010000001000000000000000000000000
202011030030005100000000000000000016000000000000000000168000000000030622371967CODEGRAN SRL                  000000003142186000000000000000000000000000000000000000000000000000000000000000000000000000000000000000000000000000000000PES00010000001000000000000000000000000
202011030080001400000000000000000718000000000000000007188000000000020310300463DIP MATIAS RUBEN EMILIO       000000000712442000000000000000000000000000000000000000000000000000000000000000000000000000000000000000000000000000000000PES00010000001000000000000000000000000
202011040010001100000000000000011380000000000000000113808000000000030715244361FRESH GARDENS SA              000000006090003000000000000000000000000000000000000000000000000000000000000000000000000000000000000000000000000001131400PES00010000001000000000000000000000000
202011040010001100000000000000011381000000000000000113818000000000030707465049LAPACHO AMARILLO SRL          000000011699999000000000000000000000000000000000000000000000000000000000000000000000000000000000000000000000000002262800PES00010000001000000000000000000000000
202011040010001100000000000000011382000000000000000113828000000000030707465049LAPACHO AMARILLO SRL          000000011699999000000000000000000000000000000000000000000000000000000000000000000000000000000000000000000000000002262800PES00010000001000000000000000000000000
202011040010001100000000000000011383000000000000000113838000000000030708652268GUILLELMI HERNANDEZ SOC.DE HEC000000017549996000000000000000000000000000000000000000000000000000000000000000000000000000000000000000000000000003394200PES00010000001000000000000000000000000
202011040010001100000000000000011384000000000000000113848000000000030708724560LA ASTURIANA S.R.L            000000023879999000000000000000000000000000000000000000000000000000000000000000000000000000000000000000000000000004525600PES00010000001000000000000000000000000
202011040010001100000000000000011385000000000000000113858000000000030697155097LAGAR CONSIGNACIONES SA       000000005849997000000000000000000000000000000000000000000000000000000000000000000000000000000000000000000000000001131400PES00010000001000000000000000000000000
202011040010001100000000000000011386000000000000000113868000000000020307707927ALDERETE JESUS OMAR           000000011940000000000000000000000000000000000000000000000000000000000000000000000000000000000000000000000000000002262800PES00010000001000000000000000000000000
202011040010001100000000000000011387000000000000000113878000000000030714057355ZAFIROS DEL NOA SA            000000005899998000000000000000000000000000000000000000000000000000000000000000000000000000000000000000000000000001131400PES00010000001000000000000000000000000
202011040010001100000000000000011388000000000000000113888000000000030626009618EXPRESO RIVADAVIA SRL         000000018567967000000000000000000000000000000000000000000000000000000000000000000000000000000000000000000000000003603396PES00010000001000000000000000000000000
202011040010001100000000000000011389000000000000000113898000000000030716765276SOREGAROLI SERVICIOS AGROPECUA000000017100003000000000000000000000000000000000000000000000000000000000000000000000000000000000000000000000000003394200PES00010000001000000000000000000000000
202011040010001100000000000000011390000000000000000113908000000000020321107878PARDO MARCOS LUIS MIGUEL      000000003989998000000000000000000000000000000000000000000000000000000000000000000000000000000000000000000000000000791980PES00010000001000000000000000000000000
202011040010001300000000000000000108000000000000000001088000000000030515488479YPF GAS SA                    000000001499997000000000000000000000000000000000000000000000000000000000000000000000000000000000000000000000000000000000PES00010000001000000000000000000000000
202011040010001400000000000000015546000000000000000155468000000000030639041545AGRO CARGAS SA                000000000455767000000000000000000000000000000000000000000000000000000000000000000000000000000000000000000000000000000000PES00010000001000000000000000000000000
202011040010001400000000000000015547000000000000000155478000000000020110747625PEREZ JUAN LUIS               000000000673567000000000000000000000000000000000000000000000000000000000000000000000000000000000000000000000000000000000PES00010000001000000000000000000000000
202011040010001400000000000000015548000000000000000155488000000000023142250829RODRIGUEZ CARLOS DANIEL       000000008450882000000000000000000000000000000000000000000000000000000000000000000000000000000000000000000000000000000000PES00010000001000000000000000000000000
202011040010001400000000000000015549000000000000000155498000000000020080534516GRAMAJO MIGUEL ANGEL          000000003250002000000000000000000000000000000000000000000000000000000000000000000000000000000000000000000000000000000000PES00010000001000000000000000000000000
202011040010001400000000000000015550000000000000000155508000000000020080901543MARTINEZ VICTOR HUGO          000000003250002000000000000000000000000000000000000000000000000000000000000000000000000000000000000000000000000000000000PES00010000001000000000000000000000000
202011040010001400000000000000015551000000000000000155518000000000020230561878VICTORIA JOSE RODOLFO         000000003250002000000000000000000000000000000000000000000000000000000000000000000000000000000000000000000000000000000000PES00010000001000000000000000000000000
202011040010001400000000000000015552000000000000000155528000000000030707465049LAPACHO AMARILLO SRL          000000007635665000000000000000000000000000000000000000000000000000000000000000000000000000000000000000000000000000000000PES00010000001000000000000000000000000
202011040010001400000000000000015553000000000000000155538000000000020134760029BOUHIER NORBERTO ABEL         000000003562816000000000000000000000000000000000000000000000000000000000000000000000000000000000000000000000000000000000PES00010000001000000000000000000000000
202011040010001400000000000000015554000000000000000155548000000000020412389434ACOSTA MAURICIO GABRIEL       000000004640984000000000000000000000000000000000000000000000000000000000000000000000000000000000000000000000000000000000PES00010000001000000000000000000000000
202011040010001400000000000000015555000000000000000155558000000000020412389434ACOSTA MAURICIO GABRIEL       000000003250002000000000000000000000000000000000000000000000000000000000000000000000000000000000000000000000000000000000PES00010000001000000000000000000000000
202011040010001400000000000000015556000000000000000155568000000000027301176606BUSNELLI PAULA FLORENCIA      000000021402440000000000000000000000000000000000000000000000000000000000000000000000000000000000000000000000000000000000PES00010000001000000000000000000000000
202011040010001400000000000000015557000000000000000155578000000000030707338209SERVICIOS Y AVENTURAS SRL     000000000824085000000000000000000000000000000000000000000000000000000000000000000000000000000000000000000000000000000000PES00010000001000000000000000000000000
202011040010001400000000000000015558000000000000000155588000000000020207603725PONCE ORLANDO                 000000003292128000000000000000000000000000000000000000000000000000000000000000000000000000000000000000000000000000000000PES00010000001000000000000000000000000
202011040010001400000000000000015559000000000000000155598000000000020938619507MEDICI PEDRO FERRUCCIO        000000000336783000000000000000000000000000000000000000000000000000000000000000000000000000000000000000000000000000000000PES00010000001000000000000000000000000
202011040010020000000000000000000071000000000000000000718000000000030515488479YPF GAS SA                    000000061390185000000000000000000000000000000000000000000000000000000000000000000000000000000000000000000000000000000000PES00010000001000000000000000000000000
202011040060001400000000000000004163000000000000000041638000000000020273010522ROMANO DANIEL H               000000008450882000000000000000000000000000000000000000000000000000000000000000000000000000000000000000000000000000000000PES00010000001000000000000000000000000
202011040060001400000000000000004164000000000000000041648000000000020255437861FRIAS JOSE LUIS               000000000658275000000000000000000000000000000000000000000000000000000000000000000000000000000000000000000000000000000000PES00010000001000000000000000000000000
202011040060001400000000000000004165000000000000000041658000000000024249268433MAI MARIANA MAGDALENA         000000000728011000000000000000000000000000000000000000000000000000000000000000000000000000000000000000000000000000000000PES00010000001000000000000000000000000
202011040030001400000000000000002442000000000000000024428000000000020412389434ACOSTA MAURICIO GABRIEL       000000004640984000000000000000000000000000000000000000000000000000000000000000000000000000000000000000000000000000000000PES00010000001000000000000000000000000
202011040080001400000000000000000719000000000000000007198000000000020233029131VALLEJO ADRIAN                000000000350145000000000000000000000000000000000000000000000000000000000000000000000000000000000000000000000000000000000PES00010000001000000000000000000000000
202011050010001100000000000000011391000000000000000113918000000000030710383126TM ROLDAN SRL                 000000039402997000000000000000000000000000000000000000000000000000000000000000000000000000000000000000000000000007919800PES00010000001000000000000000000000000
202011050010001100000000000000011392000000000000000113928000000000033675378199HUASA RINCON S.A              000000004914002000000000000000000000000000000000000000000000000000000000000000000000000000000000000000000000000000950376PES00010000001000000000000000000000000
202011050010001100000000000000011393000000000000000113938000000000020278432840ALMONACID JOSE LEONARDO       000000008617499000000000000000000000000000000000000000000000000000000000000000000000000000000000000000000000000001697100PES00010000001000000000000000000000000
202011050010001100000000000000011394000000000000000113948000000000030626009618EXPRESO RIVADAVIA SRL         000000034507185000000000000000000000000000000000000000000000000000000000000000000000000000000000000000000000000006696643PES00010000001000000000000000000000000
202011050010001400000000000000015560000000000000000155608000000000027176136168JUAREZ SILVIA MONICA          000000006798892000000000000000000000000000000000000000000000000000000000000000000000000000000000000000000000000000000000PES00010000001000000000000000000000000
202011050010001400000000000000015561000000000000000155618000000000020142208289MENGO DANIEL                  000000000647022000000000000000000000000000000000000000000000000000000000000000000000000000000000000000000000000000000000PES00010000001000000000000000000000000
202011050010001400000000000000015562000000000000000155628000000000020061523910ALCANTARA RAMON ANGEL         000000012999998000000000000000000000000000000000000000000000000000000000000000000000000000000000000000000000000000000000PES00010000001000000000000000000000000
202011050010001400000000000000015563000000000000000155638000000000030691778688EMP CONSTR Y SERVICIOS ECOS SA000000003723009000000000000000000000000000000000000000000000000000000000000000000000000000000000000000000000000000000000PES00010000001000000000000000000000000
202011050010001400000000000000015564000000000000000155648000000000020125179623MARIN GUIDO RAMON             000000009195199000000000000000000000000000000000000000000000000000000000000000000000000000000000000000000000000000000000PES00010000001000000000000000000000000
202011050010001400000000000000015565000000000000000155658000000000030691778688EMP CONSTR Y SERVICIOS ECOS SA000000003350709000000000000000000000000000000000000000000000000000000000000000000000000000000000000000000000000000000000PES00010000001000000000000000000000000
202011050010001400000000000000015566000000000000000155668000000000024284767442LAGARRIGUE JUAN PABLO         000000000911533000000000000000000000000000000000000000000000000000000000000000000000000000000000000000000000000000000000PES00010000001000000000000000000000000
202011050010001400000000000000015567000000000000000155678000000000030712272542OLGA ZOTTOLA DE SIMONETO E HIJ000000003932996000000000000000000000000000000000000000000000000000000000000000000000000000000000000000000000000000000000PES00010000001000000000000000000000000
202011050010001400000000000000015568000000000000000155688000000000030712272542OLGA ZOTTOLA DE SIMONETO E HIJ000000001617165000000000000000000000000000000000000000000000000000000000000000000000000000000000000000000000000000000000PES00010000001000000000000000000000000
202011050010001400000000000000015569000000000000000155698000000000023142250829RODRIGUEZ CARLOS DANIEL       000000013578234000000000000000000000000000000000000000000000000000000000000000000000000000000000000000000000000000000000PES00010000001000000000000000000000000
202011050010001400000000000000015570000000000000000155708000000000023142250829RODRIGUEZ CARLOS DANIEL       000000013578234000000000000000000000000000000000000000000000000000000000000000000000000000000000000000000000000000000000PES00010000001000000000000000000000000
202011050010001400000000000000015571000000000000000155718000000000030709704016SALSENCH SRL                  000000006173777000000000000000000000000000000000000000000000000000000000000000000000000000000000000000000000000000000000PES00010000001000000000000000000000000
202011050010001400000000000000015572000000000000000155728000000000033708025939CIA YESERA  DEL NORTE SRL     000000002993477000000000000000000000000000000000000000000000000000000000000000000000000000000000000000000000000000000000PES00010000001000000000000000000000000
202011050010001400000000000000015573000000000000000155738000000000020290448515VILLALON MARTIN ANTONIO       000000003570664000000000000000000000000000000000000000000000000000000000000000000000000000000000000000000000000000000000PES00010000001000000000000000000000000
202011050010001400000000000000015574000000000000000155748000000000030712385118STAR MONT SRL                 000000003723009000000000000000000000000000000000000000000000000000000000000000000000000000000000000000000000000000000000PES00010000001000000000000000000000000
202011050010001400000000000000015575000000000000000155758000000000030710007051RUIZ BEJAR SRL                000000009750001000000000000000000000000000000000000000000000000000000000000000000000000000000000000000000000000000000000PES00010000001000000000000000000000000
202011050010001400000000000000015576000000000000000155768000000000030715098551SUCROALCOHOLERA DEL SUR SA    000000012347560000000000000000000000000000000000000000000000000000000000000000000000000000000000000000000000000000000000PES00010000001000000000000000000000000
202011050010005200000000000000000335000000000000000003358000000000020254467945CONTRERAS RICARDO ALEJANDRO   000000111430715000000000000000000000000000000000000000000000000000000000000000000000000000000000000000000000000000000000PES00010000001000000000000000000000000
202011050060001400000000000000004166000000000000000041668000000000020242005385SARME DANIEL IASIR            000000003110172000000000000000000000000000000000000000000000000000000000000000000000000000000000000000000000000000000000PES00010000001000000000000000000000000
202011050060001600000000000000000250000000000000000002508000000000030639652382MUNICIPADAD DE J B ALBERDI    000000759999997000000000000000000000000000000000000000000000000000000000000000000000000000000000000000000000000000000000PES00010000001000000000000000000000000
202011050060001600000000000000000251000000000000000002518000000000030655342946MUNIC.S.M.TUCUMAN DIRECC.SERV.000000002300003000000000000000000000000000000000000000000000000000000000000000000000000000000000000000000000000000000000PES00010000001000000000000000000000000
202011050030001400000000000000002443000000000000000024438000000000030691778688EMP CONSTR Y SERVICIOS ECOS SA000000003723009000000000000000000000000000000000000000000000000000000000000000000000000000000000000000000000000000000000PES00010000001000000000000000000000000
202011050030001400000000000000002444000000000000000024448000000000023142250829RODRIGUEZ CARLOS DANIEL       000000013578234000000000000000000000000000000000000000000000000000000000000000000000000000000000000000000000000000000000PES00010000001000000000000000000000000
202011050020001100000000000000000248000000000000000002488000000000030620919922RF y J BUDEGUER SRL           000000000337498000000000000000000000000000000000000000000000000000000000000000000000000000000000000000000000000000000000PES00010000001000000000000000000000000
202011060010001100000000000000011395000000000000000113958000000000020167538909BARRIONUEVO JOSE HUMBERTO     000000011519997000000000000000000000000000000000000000000000000000000000000000000000000000000000000000000000000002262800PES00010000001000000000000000000000000
202011060010001100000000000000011396000000000000000113968000000000020135630900RODRIGUEZ MARCELO OSVALDO     000000008775001000000000000000000000000000000000000000000000000000000000000000000000000000000000000000000000000001697100PES00010000001000000000000000000000000
202011060010001100000000000000011397000000000000000113978000000000020119103879MARTINEZ ZUCCARDI JORGE A     000000029249995000000000000000000000000000000000000000000000000000000000000000000000000000000000000000000000000005657000PES00010000001000000000000000000000000
202011060010001100000000000000011398000000000000000113988000000000030708724560LA ASTURIANA S.R.L            000000023879999000000000000000000000000000000000000000000000000000000000000000000000000000000000000000000000000004525600PES00010000001000000000000000000000000
202011060010001100000000000000011399000000000000000113998000000000030626009618EXPRESO RIVADAVIA SRL         000000020874317000000000000000000000000000000000000000000000000000000000000000000000000000000000000000000000000004050978PES00010000001000000000000000000000000
202011060010001100000000000000011400000000000000000114008000000000020080835974TRAPANI IGNACIO               000000055999997000000000000000000000000000000000000000000000000000000000000000000000000000000000000000000000000011314000PES00010000001000000000000000000000000
202011060010001100000000000000011401000000000000000114018000000000020060856495GUILLELMI DOMINGO RAMON       000000026564845000000000000000000000000000000000000000000000000000000000000000000000000000000000000000000000000005137687PES00010000001000000000000000000000000
202011060010001400000000000000015577000000000000000155778000000000020276401883PAZ ALEJANDRO JOSE            000000002400444000000000000000000000000000000000000000000000000000000000000000000000000000000000000000000000000000000000PES00010000001000000000000000000000000
202011060010001400000000000000015578000000000000000155788000000000030714575860SYNBUILD SA                   000000000647022000000000000000000000000000000000000000000000000000000000000000000000000000000000000000000000000000000000PES00010000001000000000000000000000000
202011060010001400000000000000015579000000000000000155798000000000027240071482VILLAVICENCIO MARIA DE LOS ANG000000005290218000000000000000000000000000000000000000000000000000000000000000000000000000000000000000000000000000000000PES00010000001000000000000000000000000
202011060010001400000000000000015580000000000000000155808000000000020080835974TRAPANI IGNACIO               000000011243481000000000000000000000000000000000000000000000000000000000000000000000000000000000000000000000000000000000PES00010000001000000000000000000000000
202011060010001400000000000000015581000000000000000155818000000000027284964425RACEDO ROSANA ESTER           000000004770736000000000000000000000000000000000000000000000000000000000000000000000000000000000000000000000000000000000PES00010000001000000000000000000000000
202011060010001400000000000000015582000000000000000155828000000000020165261624MUDAD FRANCISCO ESTEBAN       000000003250002000000000000000000000000000000000000000000000000000000000000000000000000000000000000000000000000000000000PES00010000001000000000000000000000000
202011060010001400000000000000015583000000000000000155838000000000030712272542OLGA ZOTTOLA DE SIMONETO E HIJ000000001915781000000000000000000000000000000000000000000000000000000000000000000000000000000000000000000000000000000000PES00010000001000000000000000000000000
202011060010001400000000000000015584000000000000000155848000000000030712272542OLGA ZOTTOLA DE SIMONETO E HIJ000000000319947000000000000000000000000000000000000000000000000000000000000000000000000000000000000000000000000000000000PES00010000001000000000000000000000000
202011060010001400000000000000015585000000000000000155858000000000020244323473GOMEZ VICTOR HUGO             000000003250002000000000000000000000000000000000000000000000000000000000000000000000000000000000000000000000000000000000PES00010000001000000000000000000000000
202011060010001400000000000000015586000000000000000155868000000000030712272542OLGA ZOTTOLA DE SIMONETO E HIJ000000000838593000000000000000000000000000000000000000000000000000000000000000000000000000000000000000000000000000000000PES00010000001000000000000000000000000
202011060010001400000000000000015587000000000000000155878000000000033564217129DI BACCO Y CIA SA             000000010590001000000000000000000000000000000000000000000000000000000000000000000000000000000000000000000000000000000000PES00010000001000000000000000000000000
202011060010001400000000000000015588000000000000000155888000000000030702380339DANOVIS S.A                   000000015926533000000000000000000000000000000000000000000000000000000000000000000000000000000000000000000000000000000000PES00010000001000000000000000000000000
202011060010001400000000000000015589000000000000000155898000000000030709842915TENENE VIEJO SA               000000011625432000000000000000000000000000000000000000000000000000000000000000000000000000000000000000000000000000000000PES00010000001000000000000000000000000
202011060010001400000000000000015590000000000000000155908000000000020252122193BRANDAN ENRIQUE SAUL          000000004982699000000000000000000000000000000000000000000000000000000000000000000000000000000000000000000000000000000000PES00010000001000000000000000000000000
202011060010001400000000000000015591000000000000000155918000000000023070919249HERRERA JORGE ARMANDO         000000001627410000000000000000000000000000000000000000000000000000000000000000000000000000000000000000000000000000000000PES00010000001000000000000000000000000
202011060010001600000000000000000801000000000000000008018000000000030707728805PROYECTOS METALURGICOS S.A.   000000001418673000000000000000000000000000000000000000000000000000000000000000000000000000000000000000000000000000000000PES00010000001000000000000000000000000
202011060010005100000000000000000283000000000000000002838000000000030711238588FRINOA LOGISTICA SRL          000000001590303000000000000000000000000000000000000000000000000000000000000000000000000000000000000000000000000000000000PES00010000001000000000000000000000000
202011060010005200000000000000000336000000000000000003368000000000020060856495GUILLELMI DOMINGO RAMON       000000122840545000000000000000000000000000000000000000000000000000000000000000000000000000000000000000000000000000000000PES00010000001000000000000000000000000
202011060010020000000000000000000074000000000000000000748000000000030522437650SANTISTA ARGENTINA SA         000000035099997000000000000000000000000000000000000000000000000000000000000000000000000000000000000000000000000006788400PES00010000001000000000000000000000000
202011060060001400000000000000004167000000000000000041678000000000020217460574SECO FLAVIO DANIEL            000000013199999000000000000000000000000000000000000000000000000000000000000000000000000000000000000000000000000000000000PES00010000001000000000000000000000000
202011060060001600000000000000000252000000000000000002528000000000030546675676DIRECCION NACIONAL DE VIALIDAD000000524999997000000000000000000000000000000000000000000000000000000000000000000000000000000000000000000000000000000000PES00010000001000000000000000000000000
202011060030001400000000000000002445000000000000000024458000000000030712272542OLGA ZOTTOLA DE SIMONETO E HIJ000000000391441000000000000000000000000000000000000000000000000000000000000000000000000000000000000000000000000000000000PES00010000001000000000000000000000000
202011060030001400000000000000002446000000000000000024468000000000020230561878VICTORIA JOSE RODOLFO         000000003250002000000000000000000000000000000000000000000000000000000000000000000000000000000000000000000000000000000000PES00010000001000000000000000000000000
202011060030001400000000000000002447000000000000000024478000000000020119193215BOIX MATEO                    000000004287808000000000000000000000000000000000000000000000000000000000000000000000000000000000000000000000000000000000PES00010000001000000000000000000000000
202011060030001400000000000000002448000000000000000024488000000000023256326329ECHAZU ANDRES ALBERTO         000000000586043000000000000000000000000000000000000000000000000000000000000000000000000000000000000000000000000000000000PES00010000001000000000000000000000000
202011060030001400000000000000002449000000000000000024498000000000023256326329ECHAZU ANDRES ALBERTO         000000000618126000000000000000000000000000000000000000000000000000000000000000000000000000000000000000000000000000000000PES00010000001000000000000000000000000
202011060030001400000000000000002450000000000000000024508000000000023256326329ECHAZU ANDRES ALBERTO         000000002676549000000000000000000000000000000000000000000000000000000000000000000000000000000000000000000000000000000000PES00010000001000000000000000000000000
202011060030001400000000000000002451000000000000000024518000000000027260069085NICHIPORUK  CECILIA ABIGAIL   000000001081970000000000000000000000000000000000000000000000000000000000000000000000000000000000000000000000000000000000PES00010000001000000000000000000000000
202011060080001400000000000000000720000000000000000007208000000000030675428081SUPERIOR GOBIERNO DE LA PCIA D000000002994681000000000000000000000000000000000000000000000000000000000000000000000000000000000000000000000000000000000PES00010000001000000000000000000000000
202011070010001100000000000000011402000000000000000114028000000000030626009618EXPRESO RIVADAVIA SRL         000000017620587000000000000000000000000000000000000000000000000000000000000000000000000000000000000000000000000003419543PES00010000001000000000000000000000000
202011070010005200000000000000000337000000000000000003378000000000033697225639ARGENTI LEMON SA              000000003933253000000000000000000000000000000000000000000000000000000000000000000000000000000000000000000000000000000000PES00010000001000000000000000000000000
202011090010001100000000000000011403000000000000000114038000000000030708724560LA ASTURIANA S.R.L            000000029849999000000000000000000000000000000000000000000000000000000000000000000000000000000000000000000000000005657000PES00010000001000000000000000000000000
202011090010001100000000000000011404000000000000000114048000000000030707465049LAPACHO AMARILLO SRL          000000001872001000000000000000000000000000000000000000000000000000000000000000000000000000000000000000000000000000362048PES00010000001000000000000000000000000
202011090010001100000000000000011405000000000000000114058000000000033675378199HUASA RINCON S.A              000000004914002000000000000000000000000000000000000000000000000000000000000000000000000000000000000000000000000000950376PES00010000001000000000000000000000000
202011090010001100000000000000011406000000000000000114068000000000020938619507MEDICI PEDRO FERRUCCIO        000000006090003000000000000000000000000000000000000000000000000000000000000000000000000000000000000000000000000001131400PES00010000001000000000000000000000000
202011090010001100000000000000011407000000000000000114078000000000020125179623MARIN GUIDO RAMON             000000057500000000000000000000000000000000000000000000000000000000000000000000000000000000000000000000000000000011314000PES00010000001000000000000000000000000
202011090010001100000000000000011408000000000000000114088000000000030626009618EXPRESO RIVADAVIA SRL         000000024834052000000000000000000000000000000000000000000000000000000000000000000000000000000000000000000000000004819425PES00010000001000000000000000000000000
202011090010001400000000000000015592000000000000000155928000000000020202464689ELIAS JULIO SERGIO            000000003588053000000000000000000000000000000000000000000000000000000000000000000000000000000000000000000000000000000000PES00010000001000000000000000000000000
202011090010001400000000000000015593000000000000000155938000000000020202464689ELIAS JULIO SERGIO            000000003415000000000000000000000000000000000000000000000000000000000000000000000000000000000000000000000000000000000000PES00010000001000000000000000000000000
202011090010001400000000000000015594000000000000000155948000000000020123182066CUEVA JUAN JOSE               000000008473417000000000000000000000000000000000000000000000000000000000000000000000000000000000000000000000000000000000PES00010000001000000000000000000000000
202011090010001400000000000000015595000000000000000155958000000000023307707039SALAZAR NESTOR EMILIO         000000003415000000000000000000000000000000000000000000000000000000000000000000000000000000000000000000000000000000000000PES00010000001000000000000000000000000
202011090010001400000000000000015596000000000000000155968000000000020253721376JUAREZ JOSE HORACIO           000000000677433000000000000000000000000000000000000000000000000000000000000000000000000000000000000000000000000000000000PES00010000001000000000000000000000000
202011090010001400000000000000015597000000000000000155978000000000033715861459GRUPO MUNOZ SRL               000000003415000000000000000000000000000000000000000000000000000000000000000000000000000000000000000000000000000000000000PES00010000001000000000000000000000000
202011090010001400000000000000015598000000000000000155988000000000030708995327EL BAYO SERVICIOS AGROPECUARIO000000011797431000000000000000000000000000000000000000000000000000000000000000000000000000000000000000000000000000000000PES00010000001000000000000000000000000
202011090010001400000000000000015599000000000000000155998000000000023145040604SALAZAR ISABEL DEL TRANSITO (P000000001853236000000000000000000000000000000000000000000000000000000000000000000000000000000000000000000000000000000000PES00010000001000000000000000000000000
202011090010001400000000000000015600000000000000000156008000000000030523408247CERAMICA MARCOS PAZ SRL       000000000762231000000000000000000000000000000000000000000000000000000000000000000000000000000000000000000000000000000000PES00010000001000000000000000000000000
202011090010005200000000000000000338000000000000000003388000000000027122721987IBANEZ MARTA NORMA            000000080113805000000000000000000000000000000000000000000000000000000000000000000000000000000000000000000000000000000000PES00010000001000000000000000000000000
202011090060001400000000000000004168000000000000000041688000000000020112675214LIZARRAGA EDMUNDO ANTONIO     000000006907838000000000000000000000000000000000000000000000000000000000000000000000000000000000000000000000000000000000PES00010000001000000000000000000000000
202011090060001400000000000000004169000000000000000041698000000000020377274165TORRES GUILLERMO MARCELINO    000000000701869000000000000000000000000000000000000000000000000000000000000000000000000000000000000000000000000000000000PES00010000001000000000000000000000000
202011090060001400000000000000004170000000000000000041708000000000020310300463DIP MATIAS RUBEN EMILIO       000000010027817000000000000000000000000000000000000000000000000000000000000000000000000000000000000000000000000000000000PES00010000001000000000000000000000000
202011090060001400000000000000004171000000000000000041718000000000020310300463DIP MATIAS RUBEN EMILIO       000000000708634000000000000000000000000000000000000000000000000000000000000000000000000000000000000000000000000000000000PES00010000001000000000000000000000000
202011090060001400000000000000004172000000000000000041728000000000020117083315VERA JUAN CARLOS              000000005581770000000000000000000000000000000000000000000000000000000000000000000000000000000000000000000000000000000000PES00010000001000000000000000000000000
202011090030001400000000000000002452000000000000000024528000000000023142250829RODRIGUEZ CARLOS DANIEL       000000002599241000000000000000000000000000000000000000000000000000000000000000000000000000000000000000000000000000000000PES00010000001000000000000000000000000
202011090030001400000000000000002453000000000000000024538000000000030708995327EL BAYO SERVICIOS AGROPECUARIO000000000052808000000000000000000000000000000000000000000000000000000000000000000000000000000000000000000000000000000000PES00010000001000000000000000000000000
202011090030001400000000000000002454000000000000000024548000000000030708995327EL BAYO SERVICIOS AGROPECUARIO000000000284373000000000000000000000000000000000000000000000000000000000000000000000000000000000000000000000000000000000PES00010000001000000000000000000000000
202011090030001400000000000000002455000000000000000024558000000000030708995327EL BAYO SERVICIOS AGROPECUARIO000000000063634000000000000000000000000000000000000000000000000000000000000000000000000000000000000000000000000000000000PES00010000001000000000000000000000000
202011100010001100000000000000011409000000000000000114098000000000030708724560LA ASTURIANA S.R.L            000000059699999000000000000000000000000000000000000000000000000000000000000000000000000000000000000000000000000011314000PES00010000001000000000000000000000000
202011100010001100000000000000011410000000000000000114108000000000033564217129DI BACCO Y CIA SA             000000036719998000000000000000000000000000000000000000000000000000000000000000000000000000000000000000000000000006720480PES00010000001000000000000000000000000
202011100010001100000000000000011411000000000000000114118000000000030709628255PACTA SRL                     000000017549996000000000000000000000000000000000000000000000000000000000000000000000000000000000000000000000000003394200PES00010000001000000000000000000000000
202011100010001100000000000000011412000000000000000114128000000000033675378199HUASA RINCON S.A              000000004914002000000000000000000000000000000000000000000000000000000000000000000000000000000000000000000000000000950376PES00010000001000000000000000000000000
202011100010001100000000000000011413000000000000000114138000000000030626009618EXPRESO RIVADAVIA SRL         000000026673999000000000000000000000000000000000000000000000000000000000000000000000000000000000000000000000000005176494PES00010000001000000000000000000000000
202011100010001400000000000000015601000000000000000156018000000000020265849041CUEVA MARCELO OMAR            000000007795990000000000000000000000000000000000000000000000000000000000000000000000000000000000000000000000000000000000PES00010000001000000000000000000000000
202011100010001400000000000000015602000000000000000156028000000000027284964425RACEDO ROSANA ESTER           000000005898715000000000000000000000000000000000000000000000000000000000000000000000000000000000000000000000000000000000PES00010000001000000000000000000000000
202011100010001400000000000000015603000000000000000156038000000000030517746823SAN VALERO SRL                000000003812860000000000000000000000000000000000000000000000000000000000000000000000000000000000000000000000000000000000PES00010000001000000000000000000000000
202011100010001400000000000000015604000000000000000156048000000000020259228450FONTDEVILA CARLOS JOSE        000000000462105000000000000000000000000000000000000000000000000000000000000000000000000000000000000000000000000000000000PES00010000001000000000000000000000000
202011100010001400000000000000015605000000000000000156058000000000020100150582MEDINA BENIGNO NOLASCO        000000004309352000000000000000000000000000000000000000000000000000000000000000000000000000000000000000000000000000000000PES00010000001000000000000000000000000
202011100010001400000000000000015606000000000000000156068000000000030679990485FABRICA DE MOSAICOS SALAS M Y 000000000553886000000000000000000000000000000000000000000000000000000000000000000000000000000000000000000000000000000000PES00010000001000000000000000000000000
202011100010001400000000000000015607000000000000000156078000000000030712272542OLGA ZOTTOLA DE SIMONETO E HIJ000000003859076000000000000000000000000000000000000000000000000000000000000000000000000000000000000000000000000000000000PES00010000001000000000000000000000000
202011100010001400000000000000015608000000000000000156088000000000030712272542OLGA ZOTTOLA DE SIMONETO E HIJ000000001896710000000000000000000000000000000000000000000000000000000000000000000000000000000000000000000000000000000000PES00010000001000000000000000000000000
202011100010001400000000000000015609000000000000000156098000000000030685700022RODISA S.R.L                  000000008848073000000000000000000000000000000000000000000000000000000000000000000000000000000000000000000000000000000000PES00010000001000000000000000000000000
202011100010001400000000000000015610000000000000000156108000000000030541604312PETRONORTE SA                 000000002999999000000000000000000000000000000000000000000000000000000000000000000000000000000000000000000000000000000000PES00010000001000000000000000000000000
202011100010001400000000000000015611000000000000000156118000000000027277517006ZATO FABIANA VERONICA         000000001760112000000000000000000000000000000000000000000000000000000000000000000000000000000000000000000000000000000000PES00010000001000000000000000000000000
202011100060001400000000000000004173000000000000000041738000000000020351959240POOLIMAS JORGE LUIS           000000001012926000000000000000000000000000000000000000000000000000000000000000000000000000000000000000000000000000000000PES00010000001000000000000000000000000
202011100060001400000000000000004174000000000000000041748000000000020174643041VILLALOBO CESAR ALBERTO       000000002229102000000000000000000000000000000000000000000000000000000000000000000000000000000000000000000000000000000000PES00010000001000000000000000000000000
202011100060001400000000000000004175000000000000000041758000000000020123525176SIGNORELLI JOSE ALBERTO       000000006416849000000000000000000000000000000000000000000000000000000000000000000000000000000000000000000000000000000000PES00010000001000000000000000000000000
202011100060001400000000000000004176000000000000000041768000000000020384904972ROMANO LEAL JAVIER ALFREDO    000000006803674000000000000000000000000000000000000000000000000000000000000000000000000000000000000000000000000000000000PES00010000001000000000000000000000000
202011100060001400000000000000004177000000000000000041778000000000020384904972ROMANO LEAL JAVIER ALFREDO    000000001299788000000000000000000000000000000000000000000000000000000000000000000000000000000000000000000000000000000000PES00010000001000000000000000000000000
202011100060001600000000000000000253000000000000000002538000000000030679935697MUNICIPALIDAD YERBA BUENA     000000011688600000000000000000000000000000000000000000000000000000000000000000000000000000000000000000000000000000000000PES00010000001000000000000000000000000
202011100030001400000000000000002456000000000000000024568000000000020069967095SUCESION DE TERAN RODOLFO NICO000000000993445000000000000000000000000000000000000000000000000000000000000000000000000000000000000000000000000000000000PES00010000001000000000000000000000000
202011100030001400000000000000002457000000000000000024578000000000023119096669VILLAFANE LUIS ANTONIO       L000000000236935000000000000000000000000000000000000000000000000000000000000000000000000000000000000000000000000000000000PES00010000001000000000000000000000000
202011100080001400000000000000000721000000000000000007218000000000020174643041VILLALOBO CESAR ALBERTO       000000000324055000000000000000000000000000000000000000000000000000000000000000000000000000000000000000000000000000000000PES00010000001000000000000000000000000
202011110010001100000000000000011414000000000000000114148000000000030680011199SAGITARIO EXPORTACIONES SRL   000000006090003000000000000000000000000000000000000000000000000000000000000000000000000000000000000000000000000001131400PES00010000001000000000000000000000000
202011110010001100000000000000011415000000000000000114158000000000030714966312FYL TRANS SRL                 000000017490003000000000000000000000000000000000000000000000000000000000000000000000000000000000000000000000000003394200PES00010000001000000000000000000000000
202011110010001100000000000000011416000000000000000114168000000000030626009618EXPRESO RIVADAVIA SRL         000000015764318000000000000000000000000000000000000000000000000000000000000000000000000000000000000000000000000003059306PES00010000001000000000000000000000000
202011110010001400000000000000015612000000000000000156128000000000030712051570FRONDA SRL                    000000000762139000000000000000000000000000000000000000000000000000000000000000000000000000000000000000000000000000000000PES00010000001000000000000000000000000
202011110010001400000000000000015613000000000000000156138000000000020109823032DEL POZO FELICIANO CESAR      000000006830001000000000000000000000000000000000000000000000000000000000000000000000000000000000000000000000000000000000PES00010000001000000000000000000000000
202011110010001400000000000000015614000000000000000156148000000000030685649736SAIKO SA                      000000000991537000000000000000000000000000000000000000000000000000000000000000000000000000000000000000000000000000000000PES00010000001000000000000000000000000
202011110010005200000000000000000339000000000000000003398000000000020377280378SZMYD JESUS EMMANUEL          000000053848029000000000000000000000000000000000000000000000000000000000000000000000000000000000000000000000000000000000PES00010000001000000000000000000000000
202011110010005200000000000000000340000000000000000003408000000000020100150582MEDINA BENIGNO NOLASCO        000000012642579000000000000000000000000000000000000000000000000000000000000000000000000000000000000000000000000000000000PES00010000001000000000000000000000000
202011110010005200000000000000000341000000000000000003418000000000020119103879MARTINEZ ZUCCARDI JORGE A     000000007899319000000000000000000000000000000000000000000000000000000000000000000000000000000000000000000000000000000000PES00010000001000000000000000000000000
202011110010005200000000000000000342000000000000000003428000000000020160600005QUESADA JUAN CARLOS           000000012923533000000000000000000000000000000000000000000000000000000000000000000000000000000000000000000000000000000000PES00010000001000000000000000000000000
202011110010005200000000000000000343000000000000000003438000000000020178596560DEL NEGRO JORGE DANIEL        000000015077451000000000000000000000000000000000000000000000000000000000000000000000000000000000000000000000000000000000PES00010000001000000000000000000000000
202011110060001400000000000000004178000000000000000041788000000000020272318051SILVEIRA CRISTIAN FABIAN      000000001695216000000000000000000000000000000000000000000000000000000000000000000000000000000000000000000000000000000000PES00010000001000000000000000000000000
202011110060001400000000000000004179000000000000000041798000000000020262770851MORENO JOSE ALBERTO           000000001695216000000000000000000000000000000000000000000000000000000000000000000000000000000000000000000000000000000000PES00010000001000000000000000000000000
202011110060001400000000000000004180000000000000000041808000000000020417723901ROUGES JOSE IGNACIO           000000000864810000000000000000000000000000000000000000000000000000000000000000000000000000000000000000000000000000000000PES00010000001000000000000000000000000
202011110060001400000000000000004181000000000000000041818000000000020171400326CASERES RAMON RENATO          000000008061020000000000000000000000000000000000000000000000000000000000000000000000000000000000000000000000000000000000PES00010000001000000000000000000000000
202011110060001400000000000000004182000000000000000041828000000000020293903663TESTA LUIS ALFREDO            000000001403738000000000000000000000000000000000000000000000000000000000000000000000000000000000000000000000000000000000PES00010000001000000000000000000000000
202011110080001400000000000000000722000000000000000007228000000000027217998226CASTRO MARIA ROSA             000000000625582000000000000000000000000000000000000000000000000000000000000000000000000000000000000000000000000000000000PES00010000001000000000000000000000000
202011110080001400000000000000000723000000000000000007238000000000027217480081FERNANDEZ LILIA INES DEL VALLE000000000653970000000000000000000000000000000000000000000000000000000000000000000000000000000000000000000000000000000000PES00010000001000000000000000000000000
202011120010001100000000000000011417000000000000000114178000000000030711384185RIO BLANCO DEL TONTON SRL     000000007020002000000000000000000000000000000000000000000000000000000000000000000000000000000000000000000000000001357680PES00010000001000000000000000000000000
202011120010001100000000000000011418000000000000000114188000000000030715261517SERCOU SRL                    000000011699999000000000000000000000000000000000000000000000000000000000000000000000000000000000000000000000000002262800PES00010000001000000000000000000000000
202011120010001100000000000000011419000000000000000114198000000000030708724560LA ASTURIANA S.R.L            000000017549996000000000000000000000000000000000000000000000000000000000000000000000000000000000000000000000000003394200PES00010000001000000000000000000000000
202011120010001100000000000000011420000000000000000114208000000000030626009618EXPRESO RIVADAVIA SRL         000000036239864000000000000000000000000000000000000000000000000000000000000000000000000000000000000000000000000007032896PES00010000001000000000000000000000000
202011120010001400000000000000015615000000000000000156158000000000020202185658AHUMADA ROBERTO               000000003135427000000000000000000000000000000000000000000000000000000000000000000000000000000000000000000000000000000000PES00010000001000000000000000000000000
202011120010001400000000000000015616000000000000000156168000000000030709985651SAN FER SRL                   000000006980000000000000000000000000000000000000000000000000000000000000000000000000000000000000000000000000000000000000PES00010000001000000000000000000000000
202011120010001400000000000000015617000000000000000156178000000000027379976390MIROLI LOMBARDO SILVIA NOELIA 000000003854317000000000000000000000000000000000000000000000000000000000000000000000000000000000000000000000000000000000PES00010000001000000000000000000000000
202011120010001400000000000000015618000000000000000156188000000000020318542911VARGAS RUBEN ALBERTO          000000003135427000000000000000000000000000000000000000000000000000000000000000000000000000000000000000000000000000000000PES00010000001000000000000000000000000
202011120010001400000000000000015619000000000000000156198000000000030570673021SANDA S.A                     000000000822316000000000000000000000000000000000000000000000000000000000000000000000000000000000000000000000000000000000PES00010000001000000000000000000000000
202011120010001400000000000000015620000000000000000156208000000000033709627509GARCIA GROUP SRL              000000000379652000000000000000000000000000000000000000000000000000000000000000000000000000000000000000000000000000000000PES00010000001000000000000000000000000
202011120060001400000000000000004183000000000000000041838000000000020297443411LAZARTE CESAR ISIDRO          000000000640874000000000000000000000000000000000000000000000000000000000000000000000000000000000000000000000000000000000PES00010000001000000000000000000000000
202011120030001100000000000000000552000000000000000005528000000000030708724560LA ASTURIANA S.R.L            000000001800002000000000000000000000000000000000000000000000000000000000000000000000000000000000000000000000000000000000PES00010000001000000000000000000000000
202011120030001400000000000000002458000000000000000024588000000000030708365234GARRO SRL                     000000000330699000000000000000000000000000000000000000000000000000000000000000000000000000000000000000000000000000000000PES00010000001000000000000000000000000
202011120030001400000000000000002459000000000000000024598000000000030708365234GARRO SRL                     000000000299469000000000000000000000000000000000000000000000000000000000000000000000000000000000000000000000000000000000PES00010000001000000000000000000000000
202011120030001400000000000000002460000000000000000024608000000000030708365234GARRO SRL                     000000000119663000000000000000000000000000000000000000000000000000000000000000000000000000000000000000000000000000000000PES00010000001000000000000000000000000
202011120030001400000000000000002461000000000000000024618000000000020202185658AHUMADA ROBERTO               000000000282633000000000000000000000000000000000000000000000000000000000000000000000000000000000000000000000000000000000PES00010000001000000000000000000000000
202011120030001400000000000000002462000000000000000024628000000000027065585591SINGH AIDA DEL VALLE          000000000665967000000000000000000000000000000000000000000000000000000000000000000000000000000000000000000000000000000000PES00010000001000000000000000000000000
202011120030001400000000000000002463000000000000000024638000000000030685655329PRODUCCION SA                 000000000736256000000000000000000000000000000000000000000000000000000000000000000000000000000000000000000000000000000000PES00010000001000000000000000000000000
202011120030001400000000000000002464000000000000000024648000000000030685655329PRODUCCION SA                 000000000980377000000000000000000000000000000000000000000000000000000000000000000000000000000000000000000000000000000000PES00010000001000000000000000000000000
202011120030001400000000000000002465000000000000000024658000000000030715379070JOSE DUMIT SA                 000000000576139000000000000000000000000000000000000000000000000000000000000000000000000000000000000000000000000000000000PES00010000001000000000000000000000000
202011130010001100000000000000011421000000000000000114218000000000030708913266TRANSPORTE HACHA DE PIEDRA SRL000000063516677000000000000000000000000000000000000000000000000000000000000000000000000000000000000000000000000012326377PES00010000001000000000000000000000000
202011130010001100000000000000011422000000000000000114228000000000020254467945CONTRERAS RICARDO ALEJANDRO   000000028249999000000000000000000000000000000000000000000000000000000000000000000000000000000000000000000000000005657000PES00010000001000000000000000000000000
202011130010001100000000000000011423000000000000000114238000000000023203350899NEMER JOSE ANGEL              000000011699999000000000000000000000000000000000000000000000000000000000000000000000000000000000000000000000000002262800PES00010000001000000000000000000000000
202011130010001100000000000000011424000000000000000114248000000000030685674226BLAZQUEZ SRL                  000000005849997000000000000000000000000000000000000000000000000000000000000000000000000000000000000000000000000001131400PES00010000001000000000000000000000000
202011130010001100000000000000011425000000000000000114258000000000030626009618EXPRESO RIVADAVIA SRL         000000018492177000000000000000000000000000000000000000000000000000000000000000000000000000000000000000000000000003588688PES00010000001000000000000000000000000
202011130010001400000000000000015621000000000000000156218000000000027304981097GOMEZ JESSICA NOELIA          000000001062760000000000000000000000000000000000000000000000000000000000000000000000000000000000000000000000000000000000PES00010000001000000000000000000000000
202011130010001400000000000000015622000000000000000156228000000000020291143262GUILLELMI ANGEL FABIO         000000000924215000000000000000000000000000000000000000000000000000000000000000000000000000000000000000000000000000000000PES00010000001000000000000000000000000
202011130010001400000000000000015623000000000000000156238000000000027060678443CACERES VICTORIA DEL CARMEN   000000001934047000000000000000000000000000000000000000000000000000000000000000000000000000000000000000000000000000000000PES00010000001000000000000000000000000
202011130010001400000000000000015624000000000000000156248000000000020276318889VILLAGRA ALFREDO DANIEL       000000010984766000000000000000000000000000000000000000000000000000000000000000000000000000000000000000000000000000000000PES00010000001000000000000000000000000
202011130010001400000000000000015625000000000000000156258000000000020167535721SAFATLE FERNANDO              000000054987966000000000000000000000000000000000000000000000000000000000000000000000000000000000000000000000000000000000PES00010000001000000000000000000000000
202011130010001400000000000000015626000000000000000156268000000000027284964425RACEDO ROSANA ESTER           000000001279857000000000000000000000000000000000000000000000000000000000000000000000000000000000000000000000000000000000PES00010000001000000000000000000000000
202011130010001400000000000000015627000000000000000156278000000000027284964425RACEDO ROSANA ESTER           000000001103128000000000000000000000000000000000000000000000000000000000000000000000000000000000000000000000000000000000PES00010000001000000000000000000000000
202011130010001400000000000000015628000000000000000156288000000000027309196541RINALDI DUVE GISELLE          000000002031982000000000000000000000000000000000000000000000000000000000000000000000000000000000000000000000000000000000PES00010000001000000000000000000000000
202011130010001400000000000000015629000000000000000156298000000000033714496749ESTAC DE SERV RUTA 306 SH     000000002685958000000000000000000000000000000000000000000000000000000000000000000000000000000000000000000000000000000000PES00010000001000000000000000000000000
202011130010001400000000000000015630000000000000000156308000000000020393586657ASSAF SAMIR LUCAS             000000012128712000000000000000000000000000000000000000000000000000000000000000000000000000000000000000000000000000000000PES00010000001000000000000000000000000
202011130010001400000000000000015631000000000000000156318000000000030707927948FGF TRAPANI SA                000000004373199000000000000000000000000000000000000000000000000000000000000000000000000000000000000000000000000000000000PES00010000001000000000000000000000000
202011130010001400000000000000015632000000000000000156328000000000030716484129TRAPANI FRESH                 000000011383772000000000000000000000000000000000000000000000000000000000000000000000000000000000000000000000000000000000PES00010000001000000000000000000000000
202011130010001400000000000000015633000000000000000156338000000000030712272542OLGA ZOTTOLA DE SIMONETO E HIJ000000005539772000000000000000000000000000000000000000000000000000000000000000000000000000000000000000000000000000000000PES00010000001000000000000000000000000
202011130010001400000000000000015634000000000000000156348000000000020129195976CAJAL HUGO BENITO             000000001154553000000000000000000000000000000000000000000000000000000000000000000000000000000000000000000000000000000000PES00010000001000000000000000000000000
202011130010001600000000000000000802000000000000000008028000000000030714575860SYNBUILD SA                   000000306130000000000000000000000000000000000000000000000000000000000000000000000000000000000000000000000000000000000000PES00010000001000000000000000000000000
202011130010001600000000000000000803000000000000000008038000000000030714575860SYNBUILD SA                   000000088935000000000000000000000000000000000000000000000000000000000000000000000000000000000000000000000000000000000000PES00010000001000000000000000000000000
202011130010005100000000000000000284000000000000000002848000000000020160600005QUESADA JUAN CARLOS           000000002805765000000000000000000000000000000000000000000000000000000000000000000000000000000000000000000000000000000000PES00010000001000000000000000000000000
202011130010005100000000000000000285000000000000000002858000000000020377280378SZMYD JESUS EMMANUEL          000000007652040000000000000000000000000000000000000000000000000000000000000000000000000000000000000000000000000000000000PES00010000001000000000000000000000000
202011130010005200000000000000000344000000000000000003448000000000020119103879MARTINEZ ZUCCARDI JORGE A     000000021660210000000000000000000000000000000000000000000000000000000000000000000000000000000000000000000000000000000000PES00010000001000000000000000000000000
202011130010005200000000000000000345000000000000000003458000000000020145192804LEAL RAUL RAMON               000000008600005000000000000000000000000000000000000000000000000000000000000000000000000000000000000000000000000000000000PES00010000001000000000000000000000000
202011130010005200000000000000000346000000000000000003468000000000020070820073SUCESION DE LOPERA MANUEL     000000010918758000000000000000000000000000000000000000000000000000000000000000000000000000000000000000000000000000000000PES00010000001000000000000000000000000
202011130060001400000000000000004184000000000000000041848000000000020047077835ESCARLATA GUILLERMO MANUEL    000000000462105000000000000000000000000000000000000000000000000000000000000000000000000000000000000000000000000000000000PES00010000001000000000000000000000000
202011130060001400000000000000004185000000000000000041858000000000020174643041VILLALOBO CESAR ALBERTO       000000001093085000000000000000000000000000000000000000000000000000000000000000000000000000000000000000000000000000000000PES00010000001000000000000000000000000
202011130060001400000000000000004186000000000000000041868000000000020315883718OLAZ PABLO SEBASTIAN          000000089205873000000000000000000000000000000000000000000000000000000000000000000000000000000000000000000000000000000000PES00010000001000000000000000000000000
202011140010001100000000000000011426000000000000000114268000000000030710383126TM ROLDAN SRL                 000000023000001000000000000000000000000000000000000000000000000000000000000000000000000000000000000000000000000004525600PES00010000001000000000000000000000000
202011140010001100000000000000011427000000000000000114278000000000020229693868ROTTA MANUEL JUAN             000000017549996000000000000000000000000000000000000000000000000000000000000000000000000000000000000000000000000003394200PES00010000001000000000000000000000000
202011140010001100000000000000011428000000000000000114288000000000020278432840ALMONACID JOSE LEONARDO       000000008955003000000000000000000000000000000000000000000000000000000000000000000000000000000000000000000000000001697100PES00010000001000000000000000000000000
202011140010001100000000000000011429000000000000000114298000000000030715244361FRESH GARDENS SA              000000006090003000000000000000000000000000000000000000000000000000000000000000000000000000000000000000000000000001131400PES00010000001000000000000000000000000
202011140010001400000000000000015635000000000000000156358000000000030620919922RF y J BUDEGUER SRL           000000003300125000000000000000000000000000000000000000000000000000000000000000000000000000000000000000000000000000000000PES00010000001000000000000000000000000
202011140030001400000000000000002466000000000000000024668000000000030709842915TENENE VIEJO SA               000000002092580000000000000000000000000000000000000000000000000000000000000000000000000000000000000000000000000000000000PES00010000001000000000000000000000000
202011160010001100000000000000011430000000000000000114308000000000023299435989VERA JORGE NICOLAS            000000011699999000000000000000000000000000000000000000000000000000000000000000000000000000000000000000000000000002262800PES00010000001000000000000000000000000
202011160010001100000000000000011431000000000000000114318000000000030622371967CODEGRAN SRL                  000000011699999000000000000000000000000000000000000000000000000000000000000000000000000000000000000000000000000002262800PES00010000001000000000000000000000000
202011160010001100000000000000011432000000000000000114328000000000033709627509GARCIA GROUP SRL              000000017549996000000000000000000000000000000000000000000000000000000000000000000000000000000000000000000000000003394200PES00010000001000000000000000000000000
202011160010001100000000000000011433000000000000000114338000000000030626009618EXPRESO RIVADAVIA SRL         000000024536133000000000000000000000000000000000000000000000000000000000000000000000000000000000000000000000000004761610PES00010000001000000000000000000000000
202011160010001100000000000000011434000000000000000114348000000000030626009618EXPRESO RIVADAVIA SRL         000000038953726000000000000000000000000000000000000000000000000000000000000000000000000000000000000000000000000007559562PES00010000001000000000000000000000000
202011160010001100000000000000011435000000000000000114358000000000030708913266TRANSPORTE HACHA DE PIEDRA SRL000000066231711000000000000000000000000000000000000000000000000000000000000000000000000000000000000000000000000012853270PES00010000001000000000000000000000000
202011160010001400000000000000015636000000000000000156368000000000020117813089DELORENZI VICENTE LUIS        000000013660001000000000000000000000000000000000000000000000000000000000000000000000000000000000000000000000000000000000PES00010000001000000000000000000000000
202011160010001400000000000000015637000000000000000156378000000000020112396439DIAZ FERMIN CRECENCIO         000000004859112000000000000000000000000000000000000000000000000000000000000000000000000000000000000000000000000000000000PES00010000001000000000000000000000000
202011160010001400000000000000015638000000000000000156388000000000030714332348QUIPAN SRL                    000000000875769000000000000000000000000000000000000000000000000000000000000000000000000000000000000000000000000000000000PES00010000001000000000000000000000000
202011160010001400000000000000015639000000000000000156398000000000020084466841SAVINO GUILLERMO VICENTE      000000000762139000000000000000000000000000000000000000000000000000000000000000000000000000000000000000000000000000000000PES00010000001000000000000000000000000
202011160010001400000000000000015640000000000000000156408000000000030709549452AGRICOLA MARES SA             000000002821887000000000000000000000000000000000000000000000000000000000000000000000000000000000000000000000000000000000PES00010000001000000000000000000000000
202011160010001400000000000000015641000000000000000156418000000000020367127326PAZ JORGE EXEQUIEL            000000004859112000000000000000000000000000000000000000000000000000000000000000000000000000000000000000000000000000000000PES00010000001000000000000000000000000
202011160010005100000000000000000286000000000000000002868000000000027275951353GALVEZ AGUEDA FABIOLA         000000001707310000000000000000000000000000000000000000000000000000000000000000000000000000000000000000000000000000000000PES00010000001000000000000000000000000
202011160010005100000000000000000287000000000000000002878000000000020070077176GHIGGIA JOSE ALFREDO          000000021129302000000000000000000000000000000000000000000000000000000000000000000000000000000000000000000000000000000000PES00010000001000000000000000000000000
202011160010005100000000000000000288000000000000000002888000000000020377280378SZMYD JESUS EMMANUEL          000000001361613000000000000000000000000000000000000000000000000000000000000000000000000000000000000000000000000000000000PES00010000001000000000000000000000000
202011160010005200000000000000000347000000000000000003478000000000020182034798ROZ AGUSTIN CESAR             000000021696675000000000000000000000000000000000000000000000000000000000000000000000000000000000000000000000000000000000PES00010000001000000000000000000000000
202011160010005200000000000000000348000000000000000003488000000000023061195629GARGIULO JOAQUIN DANIEL       000000012858432000000000000000000000000000000000000000000000000000000000000000000000000000000000000000000000000000000000PES00010000001000000000000000000000000
202011160060001400000000000000004187000000000000000041878000000000027217998226CASTRO MARIA ROSA             000000001889455000000000000000000000000000000000000000000000000000000000000000000000000000000000000000000000000000000000PES00010000001000000000000000000000000
202011160030001400000000000000002467000000000000000024678000000000020119156980BRAVO MIGUEL ANGEL            000000001077107000000000000000000000000000000000000000000000000000000000000000000000000000000000000000000000000000000000PES00010000001000000000000000000000000
202011170010001100000000000000011436000000000000000114368000000000030708724560LA ASTURIANA S.R.L            000000017549996000000000000000000000000000000000000000000000000000000000000000000000000000000000000000000000000003394200PES00010000001000000000000000000000000
202011170010001100000000000000011437000000000000000114378000000000020165261624MUDAD FRANCISCO ESTEBAN       000000048720007000000000000000000000000000000000000000000000000000000000000000000000000000000000000000000000000009051200PES00010000001000000000000000000000000
202011170010001100000000000000011438000000000000000114388000000000030626009618EXPRESO RIVADAVIA SRL         000000005562404000000000000000000000000000000000000000000000000000000000000000000000000000000000000000000000000001079469PES00010000001000000000000000000000000
202011170010001100000000000000011439000000000000000114398000000000030626009618EXPRESO RIVADAVIA SRL         000000023810302000000000000000000000000000000000000000000000000000000000000000000000000000000000000000000000000004620751PES00010000001000000000000000000000000
202011170010001100000000000000011440000000000000000114408000000000030714575860SYNBUILD SA                   000000009551999000000000000000000000000000000000000000000000000000000000000000000000000000000000000000000000000001810240PES00010000001000000000000000000000000
202011170010001400000000000000015642000000000000000156428000000000027240071482VILLAVICENCIO MARIA DE LOS ANG000000003656822000000000000000000000000000000000000000000000000000000000000000000000000000000000000000000000000000000000PES00010000001000000000000000000000000
202011170010001400000000000000015643000000000000000156438000000000030716538911QUIROGA S.A.S                 000000013620002000000000000000000000000000000000000000000000000000000000000000000000000000000000000000000000000000000000PES00010000001000000000000000000000000
202011170010001400000000000000015644000000000000000156448000000000033714576629HORMECO SRL                   000000006270860000000000000000000000000000000000000000000000000000000000000000000000000000000000000000000000000000000000PES00010000001000000000000000000000000
202011170010001400000000000000015645000000000000000156458000000000030708724560LA ASTURIANA S.R.L            000000001368527000000000000000000000000000000000000000000000000000000000000000000000000000000000000000000000000000000000PES00010000001000000000000000000000000
202011170010001400000000000000015646000000000000000156468000000000030708417137BELLANTI BRUNO  Y BELLANTI CES000000001822802000000000000000000000000000000000000000000000000000000000000000000000000000000000000000000000000000000000PES00010000001000000000000000000000000
202011170010001400000000000000015647000000000000000156478000000000020363400583QUINTEROS JESUS MARIA NAZARENO000000002949358000000000000000000000000000000000000000000000000000000000000000000000000000000000000000000000000000000000PES00010000001000000000000000000000000
202011170010001400000000000000015648000000000000000156488000000000020363400583QUINTEROS JESUS MARIA NAZARENO000000001661653000000000000000000000000000000000000000000000000000000000000000000000000000000000000000000000000000000000PES00010000001000000000000000000000000
202011170010001400000000000000015649000000000000000156498000000000020080525193QUINTEROS JOSE BENJAMIN       000000002949358000000000000000000000000000000000000000000000000000000000000000000000000000000000000000000000000000000000PES00010000001000000000000000000000000
202011170010001400000000000000015650000000000000000156508000000000020080525193QUINTEROS JOSE BENJAMIN       000000000745925000000000000000000000000000000000000000000000000000000000000000000000000000000000000000000000000000000000PES00010000001000000000000000000000000
202011170010001400000000000000015651000000000000000156518000000000020125412417SOLORZANO JOSE LUIS           000000002506866000000000000000000000000000000000000000000000000000000000000000000000000000000000000000000000000000000000PES00010000001000000000000000000000000
202011170010001400000000000000015652000000000000000156528000000000030707953922FIDUAGRO SRL                  000000000677433000000000000000000000000000000000000000000000000000000000000000000000000000000000000000000000000000000000PES00010000001000000000000000000000000
202011170010001400000000000000015653000000000000000156538000000000030715102761ARIDOS CALERA SRL             000000003897992000000000000000000000000000000000000000000000000000000000000000000000000000000000000000000000000000000000PES00010000001000000000000000000000000
202011170010001400000000000000015654000000000000000156548000000000030505517632VICENTE TRAPANI SA            000000002821887000000000000000000000000000000000000000000000000000000000000000000000000000000000000000000000000000000000PES00010000001000000000000000000000000
202011170010001400000000000000015655000000000000000156558000000000030708067837AGRICOLA DE LEALES SC         000000002169703000000000000000000000000000000000000000000000000000000000000000000000000000000000000000000000000000000000PES00010000001000000000000000000000000
202011170010001400000000000000015656000000000000000156568000000000030589336131LOS CINCO SA                  000000007033425000000000000000000000000000000000000000000000000000000000000000000000000000000000000000000000000000000000PES00010000001000000000000000000000000
202011170010001400000000000000015657000000000000000156578000000000030709704016SALSENCH SRL                  000000085100815000000000000000000000000000000000000000000000000000000000000000000000000000000000000000000000000000000000PES00010000001000000000000000000000000
202011170010001400000000000000015658000000000000000156588000000000030712272542OLGA ZOTTOLA DE SIMONETO E HIJ000000006385521000000000000000000000000000000000000000000000000000000000000000000000000000000000000000000000000000000000PES00010000001000000000000000000000000
202011170010001400000000000000015659000000000000000156598000000000030712272542OLGA ZOTTOLA DE SIMONETO E HIJ000000000260530000000000000000000000000000000000000000000000000000000000000000000000000000000000000000000000000000000000PES00010000001000000000000000000000000
202011170010001400000000000000015660000000000000000156608000000000030708067837AGRICOLA DE LEALES SC         000000003875146000000000000000000000000000000000000000000000000000000000000000000000000000000000000000000000000000000000PES00010000001000000000000000000000000
202011170010001400000000000000015661000000000000000156618000000000023070919249HERRERA JORGE ARMANDO         000000001088643000000000000000000000000000000000000000000000000000000000000000000000000000000000000000000000000000000000PES00010000001000000000000000000000000
202011170010001600000000000000000804000000000000000008048000000000030714597341RENTAL POWER ARGENTINA SRL    000000117370000000000000000000000000000000000000000000000000000000000000000000000000000000000000000000000000000000000000PES00010000001000000000000000000000000
202011170010005100000000000000000289000000000000000002898000000000030533298350SOCIEDAD RURAL DE TUCUMAN     000000002339760000000000000000000000000000000000000000000000000000000000000000000000000000000000000000000000000000000000PES00010000001000000000000000000000000
202011170010005200000000000000000349000000000000000003498000000000030533298350SOCIEDAD RURAL DE TUCUMAN     000000001988211000000000000000000000000000000000000000000000000000000000000000000000000000000000000000000000000000000000PES00010000001000000000000000000000000
202011170010005200000000000000000350000000000000000003508000000000027114760973NUNEZ NELIDA YOLANDA          000000013353052000000000000000000000000000000000000000000000000000000000000000000000000000000000000000000000000000000000PES00010000001000000000000000000000000
202011170060001400000000000000004188000000000000000041888000000000020232392461GEREZ SERGIO GUSTAVO          000000011797431000000000000000000000000000000000000000000000000000000000000000000000000000000000000000000000000000000000PES00010000001000000000000000000000000
202011170030001400000000000000002468000000000000000024688000000000020206336707FERRE JOSE MANUEL             000000003488539000000000000000000000000000000000000000000000000000000000000000000000000000000000000000000000000000000000PES00010000001000000000000000000000000
202011180010001100000000000000011441000000000000000114418000000000020307707927ALDERETE JESUS OMAR           000000014925003000000000000000000000000000000000000000000000000000000000000000000000000000000000000000000000000002828500PES00010000001000000000000000000000000
202011180010001100000000000000011442000000000000000114428000000000020165261624MUDAD FRANCISCO ESTEBAN       000000030450004000000000000000000000000000000000000000000000000000000000000000000000000000000000000000000000000005657000PES00010000001000000000000000000000000
202011180010001100000000000000011443000000000000000114438000000000020085900529MENTEL JOSE CARLOS            000000017100003000000000000000000000000000000000000000000000000000000000000000000000000000000000000000000000000003394200PES00010000001000000000000000000000000
202011180010001100000000000000011444000000000000000114448000000000020169586269HOFFMANN MIGUEL ANGEL         000000017850001000000000000000000000000000000000000000000000000000000000000000000000000000000000000000000000000003394200PES00010000001000000000000000000000000
202011180010001100000000000000011445000000000000000114458000000000030715244361FRESH GARDENS SA              000000011900001000000000000000000000000000000000000000000000000000000000000000000000000000000000000000000000000002262800PES00010000001000000000000000000000000
202011180010001100000000000000011446000000000000000114468000000000030626009618EXPRESO RIVADAVIA SRL         000000016016174000000000000000000000000000000000000000000000000000000000000000000000000000000000000000000000000003108182PES00010000001000000000000000000000000
202011180010001400000000000000015662000000000000000156628000000000020324610821CORTI DIEGO JAVIER            000000004114012000000000000000000000000000000000000000000000000000000000000000000000000000000000000000000000000000000000PES00010000001000000000000000000000000
202011180010001400000000000000015663000000000000000156638000000000033708668759ACHERAL S.A.                  000000003730269000000000000000000000000000000000000000000000000000000000000000000000000000000000000000000000000000000000PES00010000001000000000000000000000000
202011180010001400000000000000015664000000000000000156648000000000030711031576AGROPECUARIA MUNDO NUEVO SRL  000000003875146000000000000000000000000000000000000000000000000000000000000000000000000000000000000000000000000000000000PES00010000001000000000000000000000000
202011180010001400000000000000015665000000000000000156658000000000027260069085NICHIPORUK  CECILIA ABIGAIL   000000008848073000000000000000000000000000000000000000000000000000000000000000000000000000000000000000000000000000000000PES00010000001000000000000000000000000
202011180010001400000000000000015666000000000000000156668000000000030626471028EST.EXPERIM. AG.IND.OBISPO COL000000014963845000000000000000000000000000000000000000000000000000000000000000000000000000000000000000000000000000000000PES00010000001000000000000000000000000
202011180010005100000000000000000290000000000000000002908000000000030675250657LOS CORONILLOS SRL            000000034514824000000000000000000000000000000000000000000000000000000000000000000000000000000000000000000000000000000000PES00010000001000000000000000000000000
202011180010005100000000000000000291000000000000000002918000000000030675250657LOS CORONILLOS SRL            000000015307831000000000000000000000000000000000000000000000000000000000000000000000000000000000000000000000000000000000PES00010000001000000000000000000000000
202011180010005100000000000000000292000000000000000002928000000000030626471028EST.EXPERIM. AG.IND.OBISPO COL000000232784502000000000000000000000000000000000000000000000000000000000000000000000000000000000000000000000000000000000PES00010000001000000000000000000000000
202011180010005200000000000000000351000000000000000003518000000000030626471028EST.EXPERIM. AG.IND.OBISPO COL000000173597215000000000000000000000000000000000000000000000000000000000000000000000000000000000000000000000000000000000PES00010000001000000000000000000000000
202011180060001400000000000000004189000000000000000041898000000000030656135006MUNICIPALIDAD DE SIMOCA       000000008450571000000000000000000000000000000000000000000000000000000000000000000000000000000000000000000000000000000000PES00010000001000000000000000000000000
202011180060001400000000000000004190000000000000000041908000000000020222334765ONTIVEROS GUSTAVO             000000005507937000000000000000000000000000000000000000000000000000000000000000000000000000000000000000000000000000000000PES00010000001000000000000000000000000
202011180030001400000000000000002469000000000000000024698000000000030620919922RF y J BUDEGUER SRL           000000003300125000000000000000000000000000000000000000000000000000000000000000000000000000000000000000000000000000000000PES00010000001000000000000000000000000
202011180030001400000000000000002470000000000000000024708000000000030711031576AGROPECUARIA MUNDO NUEVO SRL  000000003875146000000000000000000000000000000000000000000000000000000000000000000000000000000000000000000000000000000000PES00010000001000000000000000000000000
202011180030005100000000000000000017000000000000000000178000000000030675250657LOS CORONILLOS SRL            000000034514824000000000000000000000000000000000000000000000000000000000000000000000000000000000000000000000000000000000PES00010000001000000000000000000000000
202011190010001100000000000000011447000000000000000114478000000000030713516305AGROPECUARIA LAGUNA BLANCA SRL000000011900001000000000000000000000000000000000000000000000000000000000000000000000000000000000000000000000000002262800PES00010000001000000000000000000000000
202011190010001100000000000000011448000000000000000114488000000000020080942177GUILLELMI ANGEL SANTOS        000000002975000000000000000000000000000000000000000000000000000000000000000000000000000000000000000000000000000000565700PES00010000001000000000000000000000000
202011190010001100000000000000011449000000000000000114498000000000027123923532SOLDATI BEATRIZ DEL VALLE     000000005970000000000000000000000000000000000000000000000000000000000000000000000000000000000000000000000000000001131400PES00010000001000000000000000000000000
202011190010001100000000000000011450000000000000000114508000000000030716663929UNIFRUTTI SA                  000000011699999000000000000000000000000000000000000000000000000000000000000000000000000000000000000000000000000002262800PES00010000001000000000000000000000000
202011190010001100000000000000011451000000000000000114518000000000020285315671ROTH GERARDO ARIEL            000000017549996000000000000000000000000000000000000000000000000000000000000000000000000000000000000000000000000003394200PES00010000001000000000000000000000000
202011190010001100000000000000011452000000000000000114528000000000030707465049LAPACHO AMARILLO SRL          000000006785997000000000000000000000000000000000000000000000000000000000000000000000000000000000000000000000000001312424PES00010000001000000000000000000000000
202011190010001100000000000000011453000000000000000114538000000000030707465049LAPACHO AMARILLO SRL          000000017549996000000000000000000000000000000000000000000000000000000000000000000000000000000000000000000000000003394200PES00010000001000000000000000000000000
202011190010001100000000000000011454000000000000000114548000000000030626009618EXPRESO RIVADAVIA SRL         000000026439631000000000000000000000000000000000000000000000000000000000000000000000000000000000000000000000000005131012PES00010000001000000000000000000000000
202011190010001400000000000000015667000000000000000156678000000000027160911080GUILLEN CLELIA ESTHER         000000002949358000000000000000000000000000000000000000000000000000000000000000000000000000000000000000000000000000000000PES00010000001000000000000000000000000
202011190010001400000000000000015668000000000000000156688000000000027160911080GUILLEN CLELIA ESTHER         000000001364263000000000000000000000000000000000000000000000000000000000000000000000000000000000000000000000000000000000PES00010000001000000000000000000000000
202011190010001400000000000000015669000000000000000156698000000000023111033919CHIVILISCO HECTOR SALVADOR    000000000677433000000000000000000000000000000000000000000000000000000000000000000000000000000000000000000000000000000000PES00010000001000000000000000000000000
202011190010001400000000000000015670000000000000000156708000000000023070919249HERRERA JORGE ARMANDO         000000001617516000000000000000000000000000000000000000000000000000000000000000000000000000000000000000000000000000000000PES00010000001000000000000000000000000
202011190060001400000000000000004191000000000000000041918000000000027217480081FERNANDEZ LILIA INES DEL VALLE000000001522946000000000000000000000000000000000000000000000000000000000000000000000000000000000000000000000000000000000PES00010000001000000000000000000000000
202011190060001400000000000000004192000000000000000041928000000000020233029131VALLEJO ADRIAN                000000009218955000000000000000000000000000000000000000000000000000000000000000000000000000000000000000000000000000000000PES00010000001000000000000000000000000
202011190060001400000000000000004193000000000000000041938000000000020255437861FRIAS JOSE LUIS               000000002060549000000000000000000000000000000000000000000000000000000000000000000000000000000000000000000000000000000000PES00010000001000000000000000000000000
202011190060001400000000000000004194000000000000000041948000000000020127334154QUIROGA JUAN CARLOS           000000002803184000000000000000000000000000000000000000000000000000000000000000000000000000000000000000000000000000000000PES00010000001000000000000000000000000
202011190030001100000000000000000553000000000000000005538000000000030715244361FRESH GARDENS SA              000000011900001000000000000000000000000000000000000000000000000000000000000000000000000000000000000000000000000002262800PES00010000001000000000000000000000000
202011190080001400000000000000000724000000000000000007248000000000033638640789DIRECCION PROVINCIAL DE VIALID000000004184272000000000000000000000000000000000000000000000000000000000000000000000000000000000000000000000000000000000PES00010000001000000000000000000000000
202011200010001100000000000000011455000000000000000114558000000000030626009618EXPRESO RIVADAVIA SRL         000000007812781000000000000000000000000000000000000000000000000000000000000000000000000000000000000000000000000001516189PES00010000001000000000000000000000000
202011200010001100000000000000011456000000000000000114568000000000030626009618EXPRESO RIVADAVIA SRL         000000028543675000000000000000000000000000000000000000000000000000000000000000000000000000000000000000000000000005539334PES00010000001000000000000000000000000
202011200010001100000000000000011457000000000000000114578000000000030714057355ZAFIROS DEL NOA SA            000000005970000000000000000000000000000000000000000000000000000000000000000000000000000000000000000000000000000001131400PES00010000001000000000000000000000000
202011200010001100000000000000011458000000000000000114588000000000020230271403ROTH CARLOS GERMAN            000000035099997000000000000000000000000000000000000000000000000000000000000000000000000000000000000000000000000006788400PES00010000001000000000000000000000000
202011200010001100000000000000011459000000000000000114598000000000030697155097LAGAR CONSIGNACIONES SA       000000005849997000000000000000000000000000000000000000000000000000000000000000000000000000000000000000000000000001131400PES00010000001000000000000000000000000
202011200010001100000000000000011460000000000000000114608000000000020110747625PEREZ JUAN LUIS               000000011499998000000000000000000000000000000000000000000000000000000000000000000000000000000000000000000000000002262800PES00010000001000000000000000000000000
202011200010001100000000000000011461000000000000000114618000000000030710383126TM ROLDAN SRL                 000000017250002000000000000000000000000000000000000000000000000000000000000000000000000000000000000000000000000003394200PES00010000001000000000000000000000000
202011200010001100000000000000011462000000000000000114628000000000030708724560LA ASTURIANA S.R.L            000000017549996000000000000000000000000000000000000000000000000000000000000000000000000000000000000000000000000003394200PES00010000001000000000000000000000000
202011200010001100000000000000011463000000000000000114638000000000030708724560LA ASTURIANA S.R.L            000000017549996000000000000000000000000000000000000000000000000000000000000000000000000000000000000000000000000003394200PES00010000001000000000000000000000000
202011200010001100000000000000011464000000000000000114648000000000030707089586NYNAGRO S.R.L.                000000080500001000000000000000000000000000000000000000000000000000000000000000000000000000000000000000000000000015839600PES00010000001000000000000000000000000
202011200010001400000000000000015671000000000000000156718000000000030707728805PROYECTOS METALURGICOS S.A.   000000003135427000000000000000000000000000000000000000000000000000000000000000000000000000000000000000000000000000000000PES00010000001000000000000000000000000
202011200010001400000000000000015672000000000000000156728000000000030668085071LA JUSTINA SA                 000000003897992000000000000000000000000000000000000000000000000000000000000000000000000000000000000000000000000000000000PES00010000001000000000000000000000000
