202012010010001100000000000000011507000000000000000115078000000000030708913266TRANSPORTE HACHA DE PIEDRA SRL000000043535604000000000000000000000000000000000000000000000000000000000000000000000000000000000000000000000000008581216PES00010000001000000000000000000000000
202012010010001100000000000000011508000000000000000115088000000000030626009618EXPRESO RIVADAVIA SRL         000000037679545000000000000000000000000000000000000000000000000000000000000000000000000000000000000000000000000007134835PES00010000001000000000000000000000000
202012010010001100000000000000011509000000000000000115098000000000030626009618EXPRESO RIVADAVIA SRL         000000029970003000000000000000000000000000000000000000000000000000000000000000000000000000000000000000000000000005674989PES00010000001000000000000000000000000
202012010010001100000000000000011510000000000000000115108000000000030708913266TRANSPORTE HACHA DE PIEDRA SRL000000053469245000000000000000000000000000000000000000000000000000000000000000000000000000000000000000000000000010539217PES00010000001000000000000000000000000
202012010010001100000000000000011511000000000000000115118000000000020119103879MARTINEZ ZUCCARDI JORGE A     000000029799997000000000000000000000000000000000000000000000000000000000000000000000000000000000000000000000000005657000PES00010000001000000000000000000000000
202012010010001100000000000000011512000000000000000115128000000000030715261517SERCOU SRL                    000000014900002000000000000000000000000000000000000000000000000000000000000000000000000000000000000000000000000002828500PES00010000001000000000000000000000000
202012010010001100000000000000011513000000000000000115138000000000020110747625PEREZ JUAN LUIS               000000014900002000000000000000000000000000000000000000000000000000000000000000000000000000000000000000000000000002828500PES00010000001000000000000000000000000
202012010010001100000000000000011514000000000000000115148000000000030708237678HACIENDAS DEL VALLE SRL       000000114999999000000000000000000000000000000000000000000000000000000000000000000000000000000000000000000000000022628000PES00010000001000000000000000000000000
202012010010001400000000000000015737000000000000000157378000000000020119103879MARTINEZ ZUCCARDI JORGE A     000000401623396000000000000000000000000000000000000000000000000000000000000000000000000000000000000000000000000000000000PES00010000001000000000000000000000000
202012010010001400000000000000015738000000000000000157388000000000030711031576AGROPECUARIA MUNDO NUEVO SRL  000000034601523000000000000000000000000000000000000000000000000000000000000000000000000000000000000000000000000000000000PES00010000001000000000000000000000000
202012010010001400000000000000015739000000000000000157398000000000030708724560LA ASTURIANA S.R.L            000000010885719000000000000000000000000000000000000000000000000000000000000000000000000000000000000000000000000000000000PES00010000001000000000000000000000000
202012010010001400000000000000015740000000000000000157408000000000027284964425RACEDO ROSANA ESTER           000000003462398000000000000000000000000000000000000000000000000000000000000000000000000000000000000000000000000000000000PES00010000001000000000000000000000000
202012010010001400000000000000015741000000000000000157418000000000027284964425RACEDO ROSANA ESTER           000000002506866000000000000000000000000000000000000000000000000000000000000000000000000000000000000000000000000000000000PES00010000001000000000000000000000000
202012010010001400000000000000015742000000000000000157428000000000027284964425RACEDO ROSANA ESTER           000000001048430000000000000000000000000000000000000000000000000000000000000000000000000000000000000000000000000000000000PES00010000001000000000000000000000000
202012010010001400000000000000015743000000000000000157438000000000030712577807LAS VALKIRIAS SRL             000000000689216000000000000000000000000000000000000000000000000000000000000000000000000000000000000000000000000000000000PES00010000001000000000000000000000000
202012010010001400000000000000015744000000000000000157448000000000023111033919CHIVILISCO HECTOR SALVADOR    000000003897992000000000000000000000000000000000000000000000000000000000000000000000000000000000000000000000000000000000PES00010000001000000000000000000000000
202012010010001400000000000000015745000000000000000157458000000000020248430843NUNEZ GUSTAVO RAFAEL          000000000389608000000000000000000000000000000000000000000000000000000000000000000000000000000000000000000000000000000000PES00010000001000000000000000000000000
202012010010001400000000000000015746000000000000000157468000000000027305981120CANGEMI IVANNA MARCELA        000000011235299000000000000000000000000000000000000000000000000000000000000000000000000000000000000000000000000000000000PES00010000001000000000000000000000000
202012010010001400000000000000015747000000000000000157478000000000023070919249HERRERA JORGE ARMANDO         000000002023713000000000000000000000000000000000000000000000000000000000000000000000000000000000000000000000000000000000PES00010000001000000000000000000000000
202012010010001400000000000000015748000000000000000157488000000000023070919249HERRERA JORGE ARMANDO         000000000388272000000000000000000000000000000000000000000000000000000000000000000000000000000000000000000000000000000000PES00010000001000000000000000000000000
202012010010001400000000000000015749000000000000000157498000000000027304981097GOMEZ JESSICA NOELIA          000000004859112000000000000000000000000000000000000000000000000000000000000000000000000000000000000000000000000000000000PES00010000001000000000000000000000000
202012010010001400000000000000015750000000000000000157508000000000020135630900RODRIGUEZ MARCELO OSVALDO     000000002420000000000000000000000000000000000000000000000000000000000000000000000000000000000000000000000000000000000000PES00010000001000000000000000000000000
202012010010001400000000000000015751000000000000000157518000000000030707420045PERALTA SRL                   000000002973529000000000000000000000000000000000000000000000000000000000000000000000000000000000000000000000000000000000PES00010000001000000000000000000000000
202012010010001600000000000000000807000000000000000008078000000000030714597341RENTAL POWER ARGENTINA SRL    000000286770000000000000000000000000000000000000000000000000000000000000000000000000000000000000000000000000000000000000PES00010000001000000000000000000000000
202012010010001600000000000000000808000000000000000008088000000000030714597341RENTAL POWER ARGENTINA SRL    000000117370000000000000000000000000000000000000000000000000000000000000000000000000000000000000000000000000000000000000PES00010000001000000000000000000000000
202012010010001600000000000000000809000000000000000008098000000000030504549328INGECO SA                     000000262906380000000000000000000000000000000000000000000000000000000000000000000000000000000000000000000000000000000000PES00010000001000000000000000000000000
202012010010001600000000000000000810000000000000000008108000000000030504549328INGECO SA                     000000037461600000000000000000000000000000000000000000000000000000000000000000000000000000000000000000000000000000000000PES00010000001000000000000000000000000
202012010010005100000000000000000296000000000000000002968000000000020248430843NUNEZ GUSTAVO RAFAEL          000000000910588000000000000000000000000000000000000000000000000000000000000000000000000000000000000000000000000000000000PES00010000001000000000000000000000000
202012010010005200000000000000000357000000000000000003578000000000020119103879MARTINEZ ZUCCARDI JORGE A     000000026091734000000000000000000000000000000000000000000000000000000000000000000000000000000000000000000000000000000000PES00010000001000000000000000000000000
202012010010005200000000000000000358000000000000000003588000000000030708587342QUILLEN BERRIES S.A           000000006451863000000000000000000000000000000000000000000000000000000000000000000000000000000000000000000000000000000000PES00010000001000000000000000000000000
202012010010005200000000000000000359000000000000000003598000000000020080835974TRAPANI IGNACIO               000000257785997000000000000000000000000000000000000000000000000000000000000000000000000000000000000000000000000000000000PES00010000001000000000000000000000000
202012010010005200000000000000000360000000000000000003608000000000020174940895PINILLA JORGE ORLANDO         000000148467253000000000000000000000000000000000000000000000000000000000000000000000000000000000000000000000000000000000PES00010000001000000000000000000000000
202012010010020000000000000000000079000000000000000000798000000000030516492747CONORVIAL S.A.                000000061400002000000000000000000000000000000000000000000000000000000000000000000000000000000000000000000000000011257400PES00010000001000000000000000000000000
202012010010020000000000000000000080000000000000000000808000000000030515488479YPF GAS SA                    000000049635122000000000000000000000000000000000000000000000000000000000000000000000000000000000000000000000000000000000PES00010000001000000000000000000000000
202012010060001600000000000000000254000000000000000002548000000000030655342946MUNIC.S.M.TUCUMAN DIRECC.SERV.000000137138075000000000000000000000000000000000000000000000000000000000000000000000000000000000000000000000000000000000PES00010000001000000000000000000000000
202012010030001100000000000000000556000000000000000005568000000000030708913266TRANSPORTE HACHA DE PIEDRA SRL000000043535604000000000000000000000000000000000000000000000000000000000000000000000000000000000000000000000000008581216PES00010000001000000000000000000000000
202012010030001400000000000000002504000000000000000025048000000000020167538909BARRIONUEVO JOSE HUMBERTO     000000000387511000000000000000000000000000000000000000000000000000000000000000000000000000000000000000000000000000000000PES00010000001000000000000000000000000
202012010020001100000000000000000250000000000000000002508000000000033708194609COOP DE PRODUCTORES AGROP DE T000000418950973000000000000000000000000000000000000000000000000000000000000000000000000000000000000000000000000000000000PES00010000001000000000000000000000000
202012010020001100000000000000000251000000000000000002518000000000020174940895PINILLA JORGE ORLANDO         000000008908036000000000000000000000000000000000000000000000000000000000000000000000000000000000000000000000000000000000PES00010000001000000000000000000000000
202012020010001100000000000000011515000000000000000115158000000000030714575860SYNBUILD SA                   000000007212000000000000000000000000000000000000000000000000000000000000000000000000000000000000000000000000000001357680PES00010000001000000000000000000000000
202012020010001100000000000000011516000000000000000115168000000000027042561199COLOMBRES SUSANA DE LAS MERCED000000012019998000000000000000000000000000000000000000000000000000000000000000000000000000000000000000000000000002262800PES00010000001000000000000000000000000
202012020010001100000000000000011517000000000000000115178000000000023045877914IBANEZ JUANA ENCARNACION      000000011779997000000000000000000000000000000000000000000000000000000000000000000000000000000000000000000000000002262800PES00010000001000000000000000000000000
202012020010001100000000000000011518000000000000000115188000000000030504549328INGECO SA                     000000011779997000000000000000000000000000000000000000000000000000000000000000000000000000000000000000000000000002262800PES00010000001000000000000000000000000
202012020010001100000000000000011519000000000000000115198000000000030626009618EXPRESO RIVADAVIA SRL         000000025423622000000000000000000000000000000000000000000000000000000000000000000000000000000000000000000000000004814107PES00010000001000000000000000000000000
202012020010001400000000000000015752000000000000000157528000000000030715102761ARIDOS CALERA SRL             000000006270860000000000000000000000000000000000000000000000000000000000000000000000000000000000000000000000000000000000PES00010000001000000000000000000000000
202012020010001400000000000000015753000000000000000157538000000000030715801619TRANSPORTE SAN LUCAS SRL      000000004373199000000000000000000000000000000000000000000000000000000000000000000000000000000000000000000000000000000000PES00010000001000000000000000000000000
202012020010001400000000000000015754000000000000000157548000000000033711457319SARVERRY O Y TOLEDO A SH      000000004588366000000000000000000000000000000000000000000000000000000000000000000000000000000000000000000000000000000000PES00010000001000000000000000000000000
202012020010001400000000000000015755000000000000000157558000000000020238969205CASASOLA DARDO NELLIP         000000006824999000000000000000000000000000000000000000000000000000000000000000000000000000000000000000000000000000000000PES00010000001000000000000000000000000
202012020010001400000000000000015756000000000000000157568000000000030714182001INDUSTRIAS LACTEAS SRL        000000003897992000000000000000000000000000000000000000000000000000000000000000000000000000000000000000000000000000000000PES00010000001000000000000000000000000
202012020010001400000000000000015757000000000000000157578000000000020249825515NACUSSE OSCAR DARIO           000000001111258000000000000000000000000000000000000000000000000000000000000000000000000000000000000000000000000000000000PES00010000001000000000000000000000000
202012020010001400000000000000015758000000000000000157588000000000030707728805PROYECTOS METALURGICOS S.A.   000000003135427000000000000000000000000000000000000000000000000000000000000000000000000000000000000000000000000000000000PES00010000001000000000000000000000000
202012020010001400000000000000015759000000000000000157598000000000020274548887CORNEJO GUSTAVO FRANCISCO     000000000790499000000000000000000000000000000000000000000000000000000000000000000000000000000000000000000000000000000000PES00010000001000000000000000000000000
202012020010001400000000000000015760000000000000000157608000000000030537700153GIACOSA Y CIA S.R.L.          000000000821924000000000000000000000000000000000000000000000000000000000000000000000000000000000000000000000000000000000PES00010000001000000000000000000000000
202012020010001400000000000000015761000000000000000157618000000000030707338209SERVICIOS Y AVENTURAS SRL     000000000456775000000000000000000000000000000000000000000000000000000000000000000000000000000000000000000000000000000000PES00010000001000000000000000000000000
202012020010001400000000000000015762000000000000000157628000000000030511008030PAZ Y POSSE LTDA SA           000000004140090000000000000000000000000000000000000000000000000000000000000000000000000000000000000000000000000000000000PES00010000001000000000000000000000000
202012030010000700000000000000000005000000000000000000058000000000020112396439DIAZ FERMIN CRECENCIO         000000150000004000000000000000000000000000000000000000000000000000000000000000000000000000000000000000000000000000000000PES00010000001000000000000000000000000
202012030010001100000000000000011520000000000000000115208000000000030708724560LA ASTURIANA S.R.L            000000020614997000000000000000000000000000000000000000000000000000000000000000000000000000000000000000000000000003959900PES00010000001000000000000000000000000
202012030010001100000000000000011521000000000000000115218000000000030622371967CODEGRAN SRL                  000000017669999000000000000000000000000000000000000000000000000000000000000000000000000000000000000000000000000003394200PES00010000001000000000000000000000000
202012030010001100000000000000011522000000000000000115228000000000030708724560LA ASTURIANA S.R.L            000000023840000000000000000000000000000000000000000000000000000000000000000000000000000000000000000000000000000004525600PES00010000001000000000000000000000000
202012030010001100000000000000011523000000000000000115238000000000030652945100DE CARLO AMERICO JULIO Y OTROS000000034105498000000000000000000000000000000000000000000000000000000000000000000000000000000000000000000000000006596062PES00010000001000000000000000000000000
202012030010001100000000000000011524000000000000000115248000000000030707465049LAPACHO AMARILLO SRL          000000005890002000000000000000000000000000000000000000000000000000000000000000000000000000000000000000000000000001131400PES00010000001000000000000000000000000
202012030010001100000000000000011525000000000000000115258000000000030707465049LAPACHO AMARILLO SRL          000000017669999000000000000000000000000000000000000000000000000000000000000000000000000000000000000000000000000003394200PES00010000001000000000000000000000000
202012030010001100000000000000011526000000000000000115268000000000030709704016SALSENCH SRL                  000000017669999000000000000000000000000000000000000000000000000000000000000000000000000000000000000000000000000003394200PES00010000001000000000000000000000000
202012030010001100000000000000011527000000000000000115278000000000020080994819BRAVO ZAVALETA ARMANDO MANUEL 000000012420001000000000000000000000000000000000000000000000000000000000000000000000000000000000000000000000000002262800PES00010000001000000000000000000000000
202012030010001100000000000000011528000000000000000115288000000000030626009618EXPRESO RIVADAVIA SRL         000000038857814000000000000000000000000000000000000000000000000000000000000000000000000000000000000000000000000007357947PES00010000001000000000000000000000000
202012030010001100000000000000011529000000000000000115298000000000030626009618EXPRESO RIVADAVIA SRL         000000006120193000000000000000000000000000000000000000000000000000000000000000000000000000000000000000000000000001158893PES00010000001000000000000000000000000
202012030010001100000000000000011530000000000000000115308000000000030708724560LA ASTURIANA S.R.L            000000020859999000000000000000000000000000000000000000000000000000000000000000000000000000000000000000000000000003959900PES00010000001000000000000000000000000
202012030010001400000000000000015763000000000000000157638000000000030622371967CODEGRAN SRL                  000000000705228000000000000000000000000000000000000000000000000000000000000000000000000000000000000000000000000000000000PES00010000001000000000000000000000000
202012030010001400000000000000015764000000000000000157648000000000030709448931ALTO EL NARANJO SA            000000008470000000000000000000000000000000000000000000000000000000000000000000000000000000000000000000000000000000000000PES00010000001000000000000000000000000
202012030010001400000000000000015765000000000000000157658000000000020143520618DE LA VEGA JOSE ALBERTO       000000000924215000000000000000000000000000000000000000000000000000000000000000000000000000000000000000000000000000000000PES00010000001000000000000000000000000
202012030010001400000000000000015766000000000000000157668000000000030691778688EMP CONSTR Y SERVICIOS ECOS SA000000008631218000000000000000000000000000000000000000000000000000000000000000000000000000000000000000000000000000000000PES00010000001000000000000000000000000
202012030010001400000000000000015767000000000000000157678000000000030505517632VICENTE TRAPANI SA            000000001123445000000000000000000000000000000000000000000000000000000000000000000000000000000000000000000000000000000000PES00010000001000000000000000000000000
202012030010001400000000000000015768000000000000000157688000000000030716880202MESON HNOS SAS                000000000762231000000000000000000000000000000000000000000000000000000000000000000000000000000000000000000000000000000000PES00010000001000000000000000000000000
202012030010001400000000000000015769000000000000000157698000000000020080671998CARRIZO JUAN GREGORIO         000000015491273000000000000000000000000000000000000000000000000000000000000000000000000000000000000000000000000000000000PES00010000001000000000000000000000000
202012030010001400000000000000015770000000000000000157708000000000020181873117MARCHIANO AMERICO MARCELO     000000000821924000000000000000000000000000000000000000000000000000000000000000000000000000000000000000000000000000000000PES00010000001000000000000000000000000
202012030010001400000000000000015771000000000000000157718000000000030712272542OLGA ZOTTOLA DE SIMONETO E HIJ000000001958356000000000000000000000000000000000000000000000000000000000000000000000000000000000000000000000000000000000PES00010000001000000000000000000000000
202012030010001400000000000000015772000000000000000157728000000000030712272542OLGA ZOTTOLA DE SIMONETO E HIJ000000002144881000000000000000000000000000000000000000000000000000000000000000000000000000000000000000000000000000000000PES00010000001000000000000000000000000
202012030010001400000000000000015773000000000000000157738000000000030710502818KILOMETRO 14 SRL              000000000677433000000000000000000000000000000000000000000000000000000000000000000000000000000000000000000000000000000000PES00010000001000000000000000000000000
202012030010001400000000000000015774000000000000000157748000000000023070919249HERRERA JORGE ARMANDO         000000001066811000000000000000000000000000000000000000000000000000000000000000000000000000000000000000000000000000000000PES00010000001000000000000000000000000
202012030010005100000000000000000297000000000000000002978000000000020080676396ARGENTE DOMINGO ANDRES        000000008435999000000000000000000000000000000000000000000000000000000000000000000000000000000000000000000000000000000000PES00010000001000000000000000000000000
202012030010005100000000000000000298000000000000000002988000000000030675250657LOS CORONILLOS SRL            000000005714709000000000000000000000000000000000000000000000000000000000000000000000000000000000000000000000000000000000PES00010000001000000000000000000000000
202012030010005100000000000000000299000000000000000002998000000000020070077176GHIGGIA JOSE ALFREDO          000000006559554000000000000000000000000000000000000000000000000000000000000000000000000000000000000000000000000000000000PES00010000001000000000000000000000000
202012030060001400000000000000004217000000000000000042178000000000020243552282MIRANDA ANDREANI ROBERTO A (P)000000001111258000000000000000000000000000000000000000000000000000000000000000000000000000000000000000000000000000000000PES00010000001000000000000000000000000
202012030060001400000000000000004218000000000000000042188000000000030685656481COMUNA RURAL LOS NOGALES      000000000431411000000000000000000000000000000000000000000000000000000000000000000000000000000000000000000000000000000000PES00010000001000000000000000000000000
202012030060001400000000000000004219000000000000000042198000000000020273010522ROMANO DANIEL H               000000003309471000000000000000000000000000000000000000000000000000000000000000000000000000000000000000000000000000000000PES00010000001000000000000000000000000
202012030030001100000000000000000557000000000000000005578000000000030708724560LA ASTURIANA S.R.L            000000020614997000000000000000000000000000000000000000000000000000000000000000000000000000000000000000000000000003959900PES00010000001000000000000000000000000
202012030030001400000000000000002505000000000000000025058000000000030714182001INDUSTRIAS LACTEAS SRL        000000000397992000000000000000000000000000000000000000000000000000000000000000000000000000000000000000000000000000000000PES00010000001000000000000000000000000
202012040010001100000000000000011531000000000000000115318000000000030697155097LAGAR CONSIGNACIONES SA       000000005890002000000000000000000000000000000000000000000000000000000000000000000000000000000000000000000000000001131400PES00010000001000000000000000000000000
202012040010001100000000000000011532000000000000000115328000000000030708321539AGROPECUARIA POZO LARGO S.A.  000000029449996000000000000000000000000000000000000000000000000000000000000000000000000000000000000000000000000005657000PES00010000001000000000000000000000000
202012040010001100000000000000011533000000000000000115338000000000030680011199SAGITARIO EXPORTACIONES SRL   000000006134998000000000000000000000000000000000000000000000000000000000000000000000000000000000000000000000000001131400PES00010000001000000000000000000000000
202012040010001100000000000000011534000000000000000115348000000000020085900510MENTEL MANUEL PAULO           000000017669999000000000000000000000000000000000000000000000000000000000000000000000000000000000000000000000000003394200PES00010000001000000000000000000000000
202012040010001100000000000000011535000000000000000115358000000000027165409987BULACIO NORMA DEL CARMEN      000000029799997000000000000000000000000000000000000000000000000000000000000000000000000000000000000000000000000005657000PES00010000001000000000000000000000000
202012040010001100000000000000011536000000000000000115368000000000030710383126TM ROLDAN SRL                 000000064349998000000000000000000000000000000000000000000000000000000000000000000000000000000000000000000000000012445400PES00010000001000000000000000000000000
202012040010001100000000000000011537000000000000000115378000000000030674428320RAICES SH                     000000012299998000000000000000000000000000000000000000000000000000000000000000000000000000000000000000000000000002262800PES00010000001000000000000000000000000
202012040010001100000000000000011538000000000000000115388000000000023203350899NEMER JOSE ANGEL              000000011779997000000000000000000000000000000000000000000000000000000000000000000000000000000000000000000000000002262800PES00010000001000000000000000000000000
202012040010001100000000000000011539000000000000000115398000000000020060852600ACUNA JOSE DOMINGO            000000005890002000000000000000000000000000000000000000000000000000000000000000000000000000000000000000000000000001131400PES00010000001000000000000000000000000
202012040010001100000000000000011540000000000000000115408000000000020166860602SAVINO GUERRERO FERNANDO CESAR000000018404999000000000000000000000000000000000000000000000000000000000000000000000000000000000000000000000000003394200PES00010000001000000000000000000000000
202012040010001100000000000000011541000000000000000115418000000000030626009618EXPRESO RIVADAVIA SRL         000000028644149000000000000000000000000000000000000000000000000000000000000000000000000000000000000000000000000005423932PES00010000001000000000000000000000000
202012040010001400000000000000015775000000000000000157758000000000023119096669VILLAFANE LUIS ANTONIO       L000000000862742000000000000000000000000000000000000000000000000000000000000000000000000000000000000000000000000000000000PES00010000001000000000000000000000000
202012040010001400000000000000015776000000000000000157768000000000030697176043PERFORACIONES Y SERVICIOS SRL 000000001030044000000000000000000000000000000000000000000000000000000000000000000000000000000000000000000000000000000000PES00010000001000000000000000000000000
202012040010001400000000000000015777000000000000000157778000000000030708256354ANTONIO F LA BRUNA SRL        000000010001341000000000000000000000000000000000000000000000000000000000000000000000000000000000000000000000000000000000PES00010000001000000000000000000000000
202012040010001400000000000000015778000000000000000157788000000000020069967095SUCESION DE TERAN RODOLFO NICO000000023506866000000000000000000000000000000000000000000000000000000000000000000000000000000000000000000000000000000000PES00010000001000000000000000000000000
202012040010001400000000000000015779000000000000000157798000000000027284964425RACEDO ROSANA ESTER           000000002807477000000000000000000000000000000000000000000000000000000000000000000000000000000000000000000000000000000000PES00010000001000000000000000000000000
202012040010001400000000000000015780000000000000000157808000000000030714326445LOS REPUESTOS SH DE SARVERRY L000000003461695000000000000000000000000000000000000000000000000000000000000000000000000000000000000000000000000000000000PES00010000001000000000000000000000000
202012040010001400000000000000015781000000000000000157818000000000030714404683VENDRELL HNOS SRL             000000003875146000000000000000000000000000000000000000000000000000000000000000000000000000000000000000000000000000000000PES00010000001000000000000000000000000
202012040010001400000000000000015782000000000000000157828000000000030712272542OLGA ZOTTOLA DE SIMONETO E HIJ000000004581100000000000000000000000000000000000000000000000000000000000000000000000000000000000000000000000000000000000PES00010000001000000000000000000000000
202012040010001400000000000000015783000000000000000157838000000000030639227096INTRA S.R.L.                  000000000390000000000000000000000000000000000000000000000000000000000000000000000000000000000000000000000000000000000000PES00010000001000000000000000000000000
202012040010001600000000000000000811000000000000000008118000000000023119096669VILLAFANE LUIS ANTONIO       L000000000733940000000000000000000000000000000000000000000000000000000000000000000000000000000000000000000000000000000000PES00010000001000000000000000000000000
202012040010001600000000000000000812000000000000000008128000000000023119096669VILLAFANE LUIS ANTONIO       L000000000642193000000000000000000000000000000000000000000000000000000000000000000000000000000000000000000000000000000000PES00010000001000000000000000000000000
202012040060001400000000000000004220000000000000000042208000000000020242005385SARME DANIEL IASIR            000000001111258000000000000000000000000000000000000000000000000000000000000000000000000000000000000000000000000000000000PES00010000001000000000000000000000000
202012040060001400000000000000004221000000000000000042218000000000020127334154QUIROGA JUAN CARLOS           000000006846652000000000000000000000000000000000000000000000000000000000000000000000000000000000000000000000000000000000PES00010000001000000000000000000000000
202012040060001400000000000000004222000000000000000042228000000000020377274165TORRES GUILLERMO MARCELINO    000000002762418000000000000000000000000000000000000000000000000000000000000000000000000000000000000000000000000000000000PES00010000001000000000000000000000000
202012040060001400000000000000004223000000000000000042238000000000020174643041VILLALOBO CESAR ALBERTO       000000000862822000000000000000000000000000000000000000000000000000000000000000000000000000000000000000000000000000000000PES00010000001000000000000000000000000
202012040060001400000000000000004224000000000000000042248000000000020047077835ESCARLATA GUILLERMO MANUEL    000000003897992000000000000000000000000000000000000000000000000000000000000000000000000000000000000000000000000000000000PES00010000001000000000000000000000000
202012040060001400000000000000004225000000000000000042258000000000030546679183INSTITUTO NACIONAL DE TECNOLOG000000001807999000000000000000000000000000000000000000000000000000000000000000000000000000000000000000000000000000000000PES00010000001000000000000000000000000
202012040030001600000000000000000051000000000000000000518000000000023119096669VILLAFANE LUIS ANTONIO       L000000000733940000000000000000000000000000000000000000000000000000000000000000000000000000000000000000000000000000000000PES00010000001000000000000000000000000
202012050010001100000000000000011542000000000000000115428000000000023296664189GONZALEZ COLETTI ALVARO AGUSTI000000006009999000000000000000000000000000000000000000000000000000000000000000000000000000000000000000000000000001131400PES00010000001000000000000000000000000
202012050010001100000000000000011543000000000000000115438000000000020278432840ALMONACID JOSE LEONARDO       000000006150002000000000000000000000000000000000000000000000000000000000000000000000000000000000000000000000000001131400PES00010000001000000000000000000000000
202012050010001400000000000000015784000000000000000157848000000000020123182066CUEVA JUAN JOSE               000000003897992000000000000000000000000000000000000000000000000000000000000000000000000000000000000000000000000000000000PES00010000001000000000000000000000000
202012050010001400000000000000015785000000000000000157858000000000020080994819BRAVO ZAVALETA ARMANDO MANUEL 000000000677433000000000000000000000000000000000000000000000000000000000000000000000000000000000000000000000000000000000PES00010000001000000000000000000000000
202012050010001400000000000000015786000000000000000157868000000000020938619507MEDICI PEDRO FERRUCCIO        000000000352611000000000000000000000000000000000000000000000000000000000000000000000000000000000000000000000000000000000PES00010000001000000000000000000000000
202012050010001400000000000000015787000000000000000157878000000000030504549328INGECO SA                     000000004235703000000000000000000000000000000000000000000000000000000000000000000000000000000000000000000000000000000000PES00010000001000000000000000000000000
202012050030001400000000000000002506000000000000000025068000000000030685655329PRODUCCION SA                 000000000299348000000000000000000000000000000000000000000000000000000000000000000000000000000000000000000000000000000000PES00010000001000000000000000000000000
202012050030001400000000000000002507000000000000000025078000000000030685655329PRODUCCION SA                 000000000281694000000000000000000000000000000000000000000000000000000000000000000000000000000000000000000000000000000000PES00010000001000000000000000000000000
202012060010005100000000000000000300000000000000000003008000000000020165261624MUDAD FRANCISCO ESTEBAN       000000005878180000000000000000000000000000000000000000000000000000000000000000000000000000000000000000000000000000000000PES00010000001000000000000000000000000
202012060010005100000000000000000301000000000000000003018000000000020103417830IBANEZ JOSE FERNANDO          000000003384116000000000000000000000000000000000000000000000000000000000000000000000000000000000000000000000000000000000PES00010000001000000000000000000000000
202012060010005100000000000000000302000000000000000003028000000000023203350899NEMER JOSE ANGEL              000000001692058000000000000000000000000000000000000000000000000000000000000000000000000000000000000000000000000000000000PES00010000001000000000000000000000000
202012090010001100000000000000011544000000000000000115448000000000020110747625PEREZ JUAN LUIS               000000017669999000000000000000000000000000000000000000000000000000000000000000000000000000000000000000000000000003394200PES00010000001000000000000000000000000
202012090010001100000000000000011545000000000000000115458000000000020080994819BRAVO ZAVALETA ARMANDO MANUEL 000000012420001000000000000000000000000000000000000000000000000000000000000000000000000000000000000000000000000002262800PES00010000001000000000000000000000000
202012090010001100000000000000011546000000000000000115468000000000020070754526PARIZ MAURICIO                000000017669999000000000000000000000000000000000000000000000000000000000000000000000000000000000000000000000000003394200PES00010000001000000000000000000000000
202012090010001100000000000000011547000000000000000115478000000000030708724560LA ASTURIANA S.R.L            000000017790002000000000000000000000000000000000000000000000000000000000000000000000000000000000000000000000000003394200PES00010000001000000000000000000000000
202012090010001100000000000000011548000000000000000115488000000000023299435989VERA JORGE NICOLAS            000000006000002000000000000000000000000000000000000000000000000000000000000000000000000000000000000000000000000001131400PES00010000001000000000000000000000000
202012090010001100000000000000011549000000000000000115498000000000020377280378SZMYD JESUS EMMANUEL          000000006134998000000000000000000000000000000000000000000000000000000000000000000000000000000000000000000000000001131400PES00010000001000000000000000000000000
202012090010001100000000000000011550000000000000000115508000000000030707953922FIDUAGRO SRL                  000000061350006000000000000000000000000000000000000000000000000000000000000000000000000000000000000000000000000011314000PES00010000001000000000000000000000000
202012090010001100000000000000011551000000000000000115518000000000030708913266TRANSPORTE HACHA DE PIEDRA SRL000000071383214000000000000000000000000000000000000000000000000000000000000000000000000000000000000000000000000014070204PES00010000001000000000000000000000000
202012090010001100000000000000011552000000000000000115528000000000030626009618EXPRESO RIVADAVIA SRL         000000024689299000000000000000000000000000000000000000000000000000000000000000000000000000000000000000000000000004675058PES00010000001000000000000000000000000
202012090010001100000000000000011553000000000000000115538000000000030626009618EXPRESO RIVADAVIA SRL         000000044209623000000000000000000000000000000000000000000000000000000000000000000000000000000000000000000000000008371342PES00010000001000000000000000000000000
202012090010001100000000000000011554000000000000000115548000000000020085900510MENTEL MANUEL PAULO           000000031328910000000000000000000000000000000000000000000000000000000000000000000000000000000000000000000000000006017917PES00010000001000000000000000000000000
202012090010001400000000000000015788000000000000000157888000000000030707991387RODA TRANSFORMECANICA  SERV SR000000035319900000000000000000000000000000000000000000000000000000000000000000000000000000000000000000000000000000000000PES00010000001000000000000000000000000
202012090010001400000000000000015789000000000000000157898000000000030708725931MIMILTO SRL                   000000003875146000000000000000000000000000000000000000000000000000000000000000000000000000000000000000000000000000000000PES00010000001000000000000000000000000
202012090010001400000000000000015790000000000000000157908000000000030710776780PETROLERA ANVA SRL            000000005375978000000000000000000000000000000000000000000000000000000000000000000000000000000000000000000000000000000000PES00010000001000000000000000000000000
202012090010001400000000000000015791000000000000000157918000000000020324610821CORTI DIEGO JAVIER            000000004012792000000000000000000000000000000000000000000000000000000000000000000000000000000000000000000000000000000000PES00010000001000000000000000000000000
202012090010001400000000000000015792000000000000000157928000000000030716880202MESON HNOS SAS                000000000677433000000000000000000000000000000000000000000000000000000000000000000000000000000000000000000000000000000000PES00010000001000000000000000000000000
202012090010001400000000000000015793000000000000000157938000000000027148465296ARTERO LILIANA DEL VALLE      000000002949358000000000000000000000000000000000000000000000000000000000000000000000000000000000000000000000000000000000PES00010000001000000000000000000000000
202012090010001400000000000000015794000000000000000157948000000000030708749334FINCA BETANIA SA              000000003135427000000000000000000000000000000000000000000000000000000000000000000000000000000000000000000000000000000000PES00010000001000000000000000000000000
202012090010001400000000000000015795000000000000000157958000000000030708749334FINCA BETANIA SA              000000002821887000000000000000000000000000000000000000000000000000000000000000000000000000000000000000000000000000000000PES00010000001000000000000000000000000
202012090010001400000000000000015796000000000000000157968000000000030505517632VICENTE TRAPANI SA            000000000592710000000000000000000000000000000000000000000000000000000000000000000000000000000000000000000000000000000000PES00010000001000000000000000000000000
202012090010001400000000000000015797000000000000000157978000000000020248434784VELARDEZ JUAN ANTONIO         000000004003441000000000000000000000000000000000000000000000000000000000000000000000000000000000000000000000000000000000PES00010000001000000000000000000000000
202012090010001400000000000000015798000000000000000157988000000000023119096669VILLAFANE LUIS ANTONIO       L000000006463947000000000000000000000000000000000000000000000000000000000000000000000000000000000000000000000000000000000PES00010000001000000000000000000000000
202012090010001400000000000000015799000000000000000157998000000000027260069085NICHIPORUK  CECILIA ABIGAIL   000000000381069000000000000000000000000000000000000000000000000000000000000000000000000000000000000000000000000000000000PES00010000001000000000000000000000000
202012090010005100000000000000000303000000000000000003038000000000027148465296ARTERO LILIANA DEL VALLE      000000001826432000000000000000000000000000000000000000000000000000000000000000000000000000000000000000000000000000000000PES00010000001000000000000000000000000
202012090010005200000000000000000361000000000000000003618000000000030708749334FINCA BETANIA SA              000000009705678000000000000000000000000000000000000000000000000000000000000000000000000000000000000000000000000000000000PES00010000001000000000000000000000000
202012090060001400000000000000004226000000000000000042268000000000020217993696PEREZ SERGIO REYNALDO         000000001526231000000000000000000000000000000000000000000000000000000000000000000000000000000000000000000000000000000000PES00010000001000000000000000000000000
202012090060001400000000000000004227000000000000000042278000000000020123525176SIGNORELLI JOSE ALBERTO       000000002949358000000000000000000000000000000000000000000000000000000000000000000000000000000000000000000000000000000000PES00010000001000000000000000000000000
202012090060001400000000000000004228000000000000000042288000000000020112675214LIZARRAGA EDMUNDO ANTONIO     000000011255725000000000000000000000000000000000000000000000000000000000000000000000000000000000000000000000000000000000PES00010000001000000000000000000000000
202012090060001400000000000000004229000000000000000042298000000000027233085044DIAZ MIRTA LILIANA            000000000640874000000000000000000000000000000000000000000000000000000000000000000000000000000000000000000000000000000000PES00010000001000000000000000000000000
202012090060001400000000000000004230000000000000000042308000000000027233085044DIAZ MIRTA LILIANA            000000003462398000000000000000000000000000000000000000000000000000000000000000000000000000000000000000000000000000000000PES00010000001000000000000000000000000
202012090060001600000000000000000255000000000000000002558000000000030685704397MUNICIPALIDAD DE BELLA VISTA  000000011000001000000000000000000000000000000000000000000000000000000000000000000000000000000000000000000000000000000000PES00010000001000000000000000000000000
202012090030001400000000000000002508000000000000000025088000000000030708749334FINCA BETANIA SA              000000003135427000000000000000000000000000000000000000000000000000000000000000000000000000000000000000000000000000000000PES00010000001000000000000000000000000
202012090030001400000000000000002509000000000000000025098000000000030505517632VICENTE TRAPANI SA            000000001123445000000000000000000000000000000000000000000000000000000000000000000000000000000000000000000000000000000000PES00010000001000000000000000000000000
202012100010001100000000000000011555000000000000000115558000000000030707976957AGRO LAJITAS SA               000000019889998000000000000000000000000000000000000000000000000000000000000000000000000000000000000000000000000003360240PES00010000001000000000000000000000000
202012100010001100000000000000011556000000000000000115568000000000030708724560LA ASTURIANA S.R.L            000000059300001000000000000000000000000000000000000000000000000000000000000000000000000000000000000000000000000011314000PES00010000001000000000000000000000000
202012100010001100000000000000011557000000000000000115578000000000030714966312FYL TRANS SRL                 000000017220000000000000000000000000000000000000000000000000000000000000000000000000000000000000000000000000000003394200PES00010000001000000000000000000000000
202012100010001100000000000000011558000000000000000115588000000000030626009618EXPRESO RIVADAVIA SRL         000000030358374000000000000000000000000000000000000000000000000000000000000000000000000000000000000000000000000005748530PES00010000001000000000000000000000000
202012100010001400000000000000015800000000000000000158008000000000030708417137BELLANTI BRUNO  Y BELLANTI CES000000003934690000000000000000000000000000000000000000000000000000000000000000000000000000000000000000000000000000000000PES00010000001000000000000000000000000
202012100010001400000000000000015801000000000000000158018000000000030714597341RENTAL POWER ARGENTINA SRL    000000038785432000000000000000000000000000000000000000000000000000000000000000000000000000000000000000000000000000000000PES00010000001000000000000000000000000
202012100010001400000000000000015802000000000000000158028000000000030709448931ALTO EL NARANJO SA            000000008470000000000000000000000000000000000000000000000000000000000000000000000000000000000000000000000000000000000000PES00010000001000000000000000000000000
202012100010001400000000000000015803000000000000000158038000000000027328292217CARRIZO NOELIA DEL VALLE      000000003009840000000000000000000000000000000000000000000000000000000000000000000000000000000000000000000000000000000000PES00010000001000000000000000000000000
202012100010001400000000000000015804000000000000000158048000000000020129786532BELMONTE FRANCISCO            000000000411360000000000000000000000000000000000000000000000000000000000000000000000000000000000000000000000000000000000PES00010000001000000000000000000000000
202012100010001400000000000000015805000000000000000158058000000000023070919249HERRERA JORGE ARMANDO         000000002820752000000000000000000000000000000000000000000000000000000000000000000000000000000000000000000000000000000000PES00010000001000000000000000000000000
202012100010001400000000000000015806000000000000000158068000000000030505517632VICENTE TRAPANI SA            000000000530735000000000000000000000000000000000000000000000000000000000000000000000000000000000000000000000000000000000PES00010000001000000000000000000000000
202012100010001400000000000000015807000000000000000158078000000000030707089586NYNAGRO S.R.L.                000000007010573000000000000000000000000000000000000000000000000000000000000000000000000000000000000000000000000000000000PES00010000001000000000000000000000000
202012100010001400000000000000015808000000000000000158088000000000030716246279JULIANY SAS                   000000001958690000000000000000000000000000000000000000000000000000000000000000000000000000000000000000000000000000000000PES00010000001000000000000000000000000
202012100010001400000000000000015809000000000000000158098000000000020178596560DEL NEGRO JORGE DANIEL        000000001122275000000000000000000000000000000000000000000000000000000000000000000000000000000000000000000000000000000000PES00010000001000000000000000000000000
202012100010001600000000000000000813000000000000000008138000000000030504549328INGECO SA                     000000000342505000000000000000000000000000000000000000000000000000000000000000000000000000000000000000000000000000000000PES00010000001000000000000000000000000
202012100010005100000000000000000304000000000000000003048000000000020060856495GUILLELMI DOMINGO RAMON       000000007199500000000000000000000000000000000000000000000000000000000000000000000000000000000000000000000000000000000000PES00010000001000000000000000000000000
202012100010005100000000000000000305000000000000000003058000000000020070077176GHIGGIA JOSE ALFREDO          000000012064236000000000000000000000000000000000000000000000000000000000000000000000000000000000000000000000000000000000PES00010000001000000000000000000000000
202012100010005100000000000000000306000000000000000003068000000000030716246279JULIANY SAS                   000000026265487000000000000000000000000000000000000000000000000000000000000000000000000000000000000000000000000000000000PES00010000001000000000000000000000000
202012100010005100000000000000000307000000000000000003078000000000020070077176GHIGGIA JOSE ALFREDO          000000005590200000000000000000000000000000000000000000000000000000000000000000000000000000000000000000000000000000000000PES00010000001000000000000000000000000
202012100010005200000000000000000362000000000000000003628000000000030521797904COOP TRABAJADORES UNIDOS DE TR000000141775089000000000000000000000000000000000000000000000000000000000000000000000000000000000000000000000000000000000PES00010000001000000000000000000000000
202012100060001400000000000000004231000000000000000042318000000000020162985052NIEVA VICTOR HUGO             000000005509631000000000000000000000000000000000000000000000000000000000000000000000000000000000000000000000000000000000PES00010000001000000000000000000000000
202012100060001400000000000000004232000000000000000042328000000000020174643041VILLALOBO CESAR ALBERTO       000000003897992000000000000000000000000000000000000000000000000000000000000000000000000000000000000000000000000000000000PES00010000001000000000000000000000000
202012100020001100000000000000000252000000000000000002528000000000030521797904COOP TRABAJADORES UNIDOS DE TR000000026077505000000000000000000000000000000000000000000000000000000000000000000000000000000000000000000000000000000000PES00010000001000000000000000000000000
202012110010005200000000000000000363000000000000000003638000000000030707927948FGF TRAPANI SA                000000287497616000000000000000000000000000000000000000000000000000000000000000000000000000000000000000000000000000000000PES00010000001000000000000000000000000
202012120010001100000000000000011559000000000000000115598000000000020307707927ALDERETE JESUS OMAR           000000015375002000000000000000000000000000000000000000000000000000000000000000000000000000000000000000000000000002828500PES00010000001000000000000000000000000
202012120010001100000000000000011560000000000000000115608000000000030710383126TM ROLDAN SRL                 000000018090001000000000000000000000000000000000000000000000000000000000000000000000000000000000000000000000000003394200PES00010000001000000000000000000000000
202012120010001100000000000000011561000000000000000115618000000000020278432840ALMONACID JOSE LEONARDO       000000009225000000000000000000000000000000000000000000000000000000000000000000000000000000000000000000000000000001697100PES00010000001000000000000000000000000
202012120010001100000000000000011562000000000000000115628000000000030710080271LA RONDA S.R.L.               000000009060002000000000000000000000000000000000000000000000000000000000000000000000000000000000000000000000000001697100PES00010000001000000000000000000000000
202012120010001100000000000000011563000000000000000115638000000000030707211942ROLCAR SA                     000000006940001000000000000000000000000000000000000000000000000000000000000000000000000000000000000000000000000001120080PES00010000001000000000000000000000000
202012120010001100000000000000011564000000000000000115648000000000030709628255PACTA SRL                     000000018090001000000000000000000000000000000000000000000000000000000000000000000000000000000000000000000000000003394200PES00010000001000000000000000000000000
202012120010001100000000000000011565000000000000000115658000000000030626009618EXPRESO RIVADAVIA SRL         000000030897324000000000000000000000000000000000000000000000000000000000000000000000000000000000000000000000000005850583PES00010000001000000000000000000000000
202012120010001100000000000000011566000000000000000115668000000000030626009618EXPRESO RIVADAVIA SRL         000000015439995000000000000000000000000000000000000000000000000000000000000000000000000000000000000000000000000002923651PES00010000001000000000000000000000000
202012120010001400000000000000015810000000000000000158108000000000020128938223DECIMA ARMANDO                000000004859112000000000000000000000000000000000000000000000000000000000000000000000000000000000000000000000000000000000PES00010000001000000000000000000000000
202012120010001400000000000000015811000000000000000158118000000000030716980037DISTRITUCUMAN GEREZ HIJOS SAS 000000026161813000000000000000000000000000000000000000000000000000000000000000000000000000000000000000000000000000000000PES00010000001000000000000000000000000
202012120010001400000000000000015812000000000000000158128000000000027284964425RACEDO ROSANA ESTER           000000005950434000000000000000000000000000000000000000000000000000000000000000000000000000000000000000000000000000000000PES00010000001000000000000000000000000
202012120010001400000000000000015813000000000000000158138000000000027240071482VILLAVICENCIO MARIA DE LOS ANG000000003009840000000000000000000000000000000000000000000000000000000000000000000000000000000000000000000000000000000000PES00010000001000000000000000000000000
202012120010001400000000000000015814000000000000000158148000000000030501924411ESTABLECIMIENTO LA MARIPOSA SA000000003815009000000000000000000000000000000000000000000000000000000000000000000000000000000000000000000000000000000000PES00010000001000000000000000000000000
202012120010001400000000000000015815000000000000000158158000000000027260069085NICHIPORUK  CECILIA ABIGAIL   000000012087324000000000000000000000000000000000000000000000000000000000000000000000000000000000000000000000000000000000PES00010000001000000000000000000000000
202012120010001400000000000000015816000000000000000158168000000000020080901543MARTINEZ VICTOR HUGO          000000000525175000000000000000000000000000000000000000000000000000000000000000000000000000000000000000000000000000000000PES00010000001000000000000000000000000
202012120010001400000000000000015817000000000000000158178000000000020274548887CORNEJO GUSTAVO FRANCISCO     000000000375884000000000000000000000000000000000000000000000000000000000000000000000000000000000000000000000000000000000PES00010000001000000000000000000000000
202012120010001400000000000000015818000000000000000158188000000000030697176043PERFORACIONES Y SERVICIOS SRL 000000004531150000000000000000000000000000000000000000000000000000000000000000000000000000000000000000000000000000000000PES00010000001000000000000000000000000
202012120010001400000000000000015819000000000000000158198000000000030712272542OLGA ZOTTOLA DE SIMONETO E HIJ000000002947289000000000000000000000000000000000000000000000000000000000000000000000000000000000000000000000000000000000PES00010000001000000000000000000000000
202012120010001400000000000000015820000000000000000158208000000000030712272542OLGA ZOTTOLA DE SIMONETO E HIJ000000002057789000000000000000000000000000000000000000000000000000000000000000000000000000000000000000000000000000000000PES00010000001000000000000000000000000
202012120010001400000000000000015821000000000000000158218000000000030571257129SANTIAGO A AGOLIO S.A         000000005465587000000000000000000000000000000000000000000000000000000000000000000000000000000000000000000000000000000000PES00010000001000000000000000000000000
202012120010001400000000000000015822000000000000000158228000000000030708995327EL BAYO SERVICIOS AGROPECUARIO000000003976469000000000000000000000000000000000000000000000000000000000000000000000000000000000000000000000000000000000PES00010000001000000000000000000000000
202012120010001400000000000000015823000000000000000158238000000000020110747625PEREZ JUAN LUIS               000000002361764000000000000000000000000000000000000000000000000000000000000000000000000000000000000000000000000000000000PES00010000001000000000000000000000000
202012120010001400000000000000015824000000000000000158248000000000030708724560LA ASTURIANA S.R.L            000000004130905000000000000000000000000000000000000000000000000000000000000000000000000000000000000000000000000000000000PES00010000001000000000000000000000000
202012120060001400000000000000004233000000000000000042338000000000027217998226CASTRO MARIA ROSA             000000003897992000000000000000000000000000000000000000000000000000000000000000000000000000000000000000000000000000000000PES00010000001000000000000000000000000
202012120060001400000000000000004234000000000000000042348000000000020117083315VERA JUAN CARLOS              000000000566453000000000000000000000000000000000000000000000000000000000000000000000000000000000000000000000000000000000PES00010000001000000000000000000000000
202012140010001100000000000000011567000000000000000115678000000000020080676396ARGENTE DOMINGO ANDRES        000000030150004000000000000000000000000000000000000000000000000000000000000000000000000000000000000000000000000005657000PES00010000001000000000000000000000000
202012140010001100000000000000011568000000000000000115688000000000030708724560LA ASTURIANA S.R.L            000000030189001000000000000000000000000000000000000000000000000000000000000000000000000000000000000000000000000005657000PES00010000001000000000000000000000000
202012140010001100000000000000011569000000000000000115698000000000030697155097LAGAR CONSIGNACIONES SA       000000006029999000000000000000000000000000000000000000000000000000000000000000000000000000000000000000000000000001131400PES00010000001000000000000000000000000
202012140010001100000000000000011570000000000000000115708000000000030715261517SERCOU SRL                    000000018090001000000000000000000000000000000000000000000000000000000000000000000000000000000000000000000000000003394200PES00010000001000000000000000000000000
202012140010001100000000000000011571000000000000000115718000000000020100150582MEDINA BENIGNO NOLASCO        000000015375002000000000000000000000000000000000000000000000000000000000000000000000000000000000000000000000000002828500PES00010000001000000000000000000000000
202012140010001100000000000000011572000000000000000115728000000000030715261517SERCOU SRL                    000000018090001000000000000000000000000000000000000000000000000000000000000000000000000000000000000000000000000003394200PES00010000001000000000000000000000000
202012140010001100000000000000011573000000000000000115738000000000020229693868ROTTA MANUEL JUAN             000000018090001000000000000000000000000000000000000000000000000000000000000000000000000000000000000000000000000003394200PES00010000001000000000000000000000000
202012140010001100000000000000011574000000000000000115748000000000030626009618EXPRESO RIVADAVIA SRL         000000006511556000000000000000000000000000000000000000000000000000000000000000000000000000000000000000000000000001233000PES00010000001000000000000000000000000
202012140010001100000000000000011575000000000000000115758000000000030626009618EXPRESO RIVADAVIA SRL         000000015170523000000000000000000000000000000000000000000000000000000000000000000000000000000000000000000000000002872625PES00010000001000000000000000000000000
202012140010001100000000000000011576000000000000000115768000000000030708913266TRANSPORTE HACHA DE PIEDRA SRL000000057744974000000000000000000000000000000000000000000000000000000000000000000000000000000000000000000000000011381997PES00010000001000000000000000000000000
202012140010001100000000000000011577000000000000000115778000000000030626009618EXPRESO RIVADAVIA SRL         000000037069496000000000000000000000000000000000000000000000000000000000000000000000000000000000000000000000000007019319PES00010000001000000000000000000000000
202012140010001400000000000000015825000000000000000158258000000000020437723592CHIBILISCO VENZAL AGUSTIN     000000002023886000000000000000000000000000000000000000000000000000000000000000000000000000000000000000000000000000000000PES00010000001000000000000000000000000
202012140010001400000000000000015826000000000000000158268000000000030709704016SALSENCH SRL                  000000072524375000000000000000000000000000000000000000000000000000000000000000000000000000000000000000000000000000000000PES00010000001000000000000000000000000
202012140010001400000000000000015827000000000000000158278000000000030716538911QUIROGA S.A.S                 000000008459997000000000000000000000000000000000000000000000000000000000000000000000000000000000000000000000000000000000PES00010000001000000000000000000000000
202012140010001400000000000000015828000000000000000158288000000000030707357335EMPRESA EL MILAGRO S.A.       000000020776311000000000000000000000000000000000000000000000000000000000000000000000000000000000000000000000000000000000PES00010000001000000000000000000000000
202012140010001400000000000000015829000000000000000158298000000000027260069085NICHIPORUK  CECILIA ABIGAIL   000000000566453000000000000000000000000000000000000000000000000000000000000000000000000000000000000000000000000000000000PES00010000001000000000000000000000000
202012140010001400000000000000015830000000000000000158308000000000023111033919CHIVILISCO HECTOR SALVADOR    000000001752345000000000000000000000000000000000000000000000000000000000000000000000000000000000000000000000000000000000PES00010000001000000000000000000000000
202012140010001400000000000000015831000000000000000158318000000000023070919249HERRERA JORGE ARMANDO         000000006346277000000000000000000000000000000000000000000000000000000000000000000000000000000000000000000000000000000000PES00010000001000000000000000000000000
202012140010001400000000000000015832000000000000000158328000000000030505517632VICENTE TRAPANI SA            000000282307497000000000000000000000000000000000000000000000000000000000000000000000000000000000000000000000000000000000PES00010000001000000000000000000000000
202012140010001400000000000000015833000000000000000158338000000000020070077176GHIGGIA JOSE ALFREDO          000000001379648000000000000000000000000000000000000000000000000000000000000000000000000000000000000000000000000000000000PES00010000001000000000000000000000000
202012140010001400000000000000015834000000000000000158348000000000030710387571TRANSPORTE FRIOS DEL NORTE SRL000000005179814000000000000000000000000000000000000000000000000000000000000000000000000000000000000000000000000000000000PES00010000001000000000000000000000000
202012140010001400000000000000015835000000000000000158358000000000027169330641MUSTAFA ANA MARIA             000000000486921000000000000000000000000000000000000000000000000000000000000000000000000000000000000000000000000000000000PES00010000001000000000000000000000000
202012140010001400000000000000015836000000000000000158368000000000020274548887CORNEJO GUSTAVO FRANCISCO     000000001685340000000000000000000000000000000000000000000000000000000000000000000000000000000000000000000000000000000000PES00010000001000000000000000000000000
202012140010001600000000000000000814000000000000000008148000000000030714575860SYNBUILD SA                   000000318230000000000000000000000000000000000000000000000000000000000000000000000000000000000000000000000000000000000000PES00010000001000000000000000000000000
202012140010001600000000000000000815000000000000000008158000000000030714575860SYNBUILD SA                   000000071148000000000000000000000000000000000000000000000000000000000000000000000000000000000000000000000000000000000000PES00010000001000000000000000000000000
202012140010005100000000000000000308000000000000000003088000000000020167538909BARRIONUEVO JOSE HUMBERTO     000000001842225000000000000000000000000000000000000000000000000000000000000000000000000000000000000000000000000000000000PES00010000001000000000000000000000000
202012140010005100000000000000000309000000000000000003098000000000030708598301EL SAUCE SRL                  000000029539125000000000000000000000000000000000000000000000000000000000000000000000000000000000000000000000000000000000PES00010000001000000000000000000000000
202012140010005100000000000000000310000000000000000003108000000000020070077176GHIGGIA JOSE ALFREDO          000000012064236000000000000000000000000000000000000000000000000000000000000000000000000000000000000000000000000000000000PES00010000001000000000000000000000000
202012140010005100000000000000000311000000000000000003118000000000020938619507MEDICI PEDRO FERRUCCIO        000000004605560000000000000000000000000000000000000000000000000000000000000000000000000000000000000000000000000000000000PES00010000001000000000000000000000000
202012140010005100000000000000000312000000000000000003128000000000027275951353GALVEZ AGUEDA FABIOLA         000000001842225000000000000000000000000000000000000000000000000000000000000000000000000000000000000000000000000000000000PES00010000001000000000000000000000000
202012140010005100000000000000000313000000000000000003138000000000020178596560DEL NEGRO JORGE DANIEL        000000005526675000000000000000000000000000000000000000000000000000000000000000000000000000000000000000000000000000000000PES00010000001000000000000000000000000
202012140010005100000000000000000314000000000000000003148000000000020282213908ARGENTE DANTE RUBEN           000000007570060000000000000000000000000000000000000000000000000000000000000000000000000000000000000000000000000000000000PES00010000001000000000000000000000000
202012140010005100000000000000000315000000000000000003158000000000030709702390YABITEL SA                    000000004266760000000000000000000000000000000000000000000000000000000000000000000000000000000000000000000000000000000000PES00010000001000000000000000000000000
202012140010005200000000000000000364000000000000000003648000000000020229042786PALOMO ROBERTO DE JESUS       000000009179360000000000000000000000000000000000000000000000000000000000000000000000000000000000000000000000000000000000PES00010000001000000000000000000000000
202012140010005200000000000000000365000000000000000003658000000000020229042786PALOMO ROBERTO DE JESUS       000000008382846000000000000000000000000000000000000000000000000000000000000000000000000000000000000000000000000000000000PES00010000001000000000000000000000000
202012140010005200000000000000000366000000000000000003668000000000020178596560DEL NEGRO JORGE DANIEL        000000000690004000000000000000000000000000000000000000000000000000000000000000000000000000000000000000000000000000000000PES00010000001000000000000000000000000
202012140010005200000000000000000367000000000000000003678000000000020282213908ARGENTE DANTE RUBEN           000000014503125000000000000000000000000000000000000000000000000000000000000000000000000000000000000000000000000000000000PES00010000001000000000000000000000000
202012140010005200000000000000000368000000000000000003688000000000030714962309BRUFOR AGRO SRL               000000001936013000000000000000000000000000000000000000000000000000000000000000000000000000000000000000000000000000000000PES00010000001000000000000000000000000
202012140060001400000000000000004235000000000000000042358000000000020253806924LOREDO EDGAR GUSTAVO          000000000748189000000000000000000000000000000000000000000000000000000000000000000000000000000000000000000000000000000000PES00010000001000000000000000000000000
202012140060001400000000000000004236000000000000000042368000000000024249268433MAI MARIANA MAGDALENA         000000000352790000000000000000000000000000000000000000000000000000000000000000000000000000000000000000000000000000000000PES00010000001000000000000000000000000
202012140060001400000000000000004237000000000000000042378000000000020324137352BAZAN RUIZ FRANCO EMMANUEL    000000001604737000000000000000000000000000000000000000000000000000000000000000000000000000000000000000000000000000000000PES00010000001000000000000000000000000
202012140060001400000000000000004238000000000000000042388000000000030656291652MUNICIPALIDAD DE MONTEROS     000000011628538000000000000000000000000000000000000000000000000000000000000000000000000000000000000000000000000000000000PES00010000001000000000000000000000000
202012140060001400000000000000004239000000000000000042398000000000020232392461GEREZ SERGIO GUSTAVO          000000006288030000000000000000000000000000000000000000000000000000000000000000000000000000000000000000000000000000000000PES00010000001000000000000000000000000
202012140060001400000000000000004240000000000000000042408000000000024249268433MAI MARIANA MAGDALENA         000000000375884000000000000000000000000000000000000000000000000000000000000000000000000000000000000000000000000000000000PES00010000001000000000000000000000000
202012140060001400000000000000004241000000000000000042418000000000020136274903VERA MARCELO OSVALDO          000000002324756000000000000000000000000000000000000000000000000000000000000000000000000000000000000000000000000000000000PES00010000001000000000000000000000000
202012140030001100000000000000000558000000000000000005588000000000030715261517SERCOU SRL                    000000018090001000000000000000000000000000000000000000000000000000000000000000000000000000000000000000000000000003394200PES00010000001000000000000000000000000
202012140030005200000000000000000033000000000000000000338000000000020229042786PALOMO ROBERTO DE JESUS       000000009179360000000000000000000000000000000000000000000000000000000000000000000000000000000000000000000000000000000000PES00010000001000000000000000000000000
202012140080001400000000000000000738000000000000000007388000000000020136274903VERA MARCELO OSVALDO          000000000718429000000000000000000000000000000000000000000000000000000000000000000000000000000000000000000000000000000000PES00010000001000000000000000000000000
202012150010001100000000000000011578000000000000000115788000000000030708587342QUILLEN BERRIES S.A           000000009044998000000000000000000000000000000000000000000000000000000000000000000000000000000000000000000000000001697100PES00010000001000000000000000000000000
202012150010001100000000000000011579000000000000000115798000000000030702409310LA BAJADA SA                  000000018090001000000000000000000000000000000000000000000000000000000000000000000000000000000000000000000000000003394200PES00010000001000000000000000000000000
202012150010001100000000000000011580000000000000000115808000000000030702409310LA BAJADA SA                  000000006029999000000000000000000000000000000000000000000000000000000000000000000000000000000000000000000000000001131400PES00010000001000000000000000000000000
202012150010001100000000000000011581000000000000000115818000000000030715261517SERCOU SRL                    000000015075002000000000000000000000000000000000000000000000000000000000000000000000000000000000000000000000000002828500PES00010000001000000000000000000000000
202012150010001100000000000000011582000000000000000115828000000000030626009618EXPRESO RIVADAVIA SRL         000000034073633000000000000000000000000000000000000000000000000000000000000000000000000000000000000000000000000006452035PES00010000001000000000000000000000000
202012150010001400000000000000015837000000000000000158378000000000020128938223DECIMA ARMANDO                000000001056975000000000000000000000000000000000000000000000000000000000000000000000000000000000000000000000000000000000PES00010000001000000000000000000000000
202012150010001400000000000000015838000000000000000158388000000000030708417137BELLANTI BRUNO  Y BELLANTI CES000000002827833000000000000000000000000000000000000000000000000000000000000000000000000000000000000000000000000000000000PES00010000001000000000000000000000000
202012150010001400000000000000015839000000000000000158398000000000027284964425RACEDO ROSANA ESTER           000000003267709000000000000000000000000000000000000000000000000000000000000000000000000000000000000000000000000000000000PES00010000001000000000000000000000000
202012150010001400000000000000015840000000000000000158408000000000030715870165LA PICK UP REPUESTOS SRL      000000001015034000000000000000000000000000000000000000000000000000000000000000000000000000000000000000000000000000000000PES00010000001000000000000000000000000
202012150010001400000000000000015841000000000000000158418000000000020069967095SUCESION DE TERAN RODOLFO NICO000000004300778000000000000000000000000000000000000000000000000000000000000000000000000000000000000000000000000000000000PES00010000001000000000000000000000000
202012150010001400000000000000015842000000000000000158428000000000033708668759ACHERAL S.A.                  000000004155261000000000000000000000000000000000000000000000000000000000000000000000000000000000000000000000000000000000PES00010000001000000000000000000000000
202012150010001400000000000000015843000000000000000158438000000000020100150582MEDINA BENIGNO NOLASCO        000000004155261000000000000000000000000000000000000000000000000000000000000000000000000000000000000000000000000000000000PES00010000001000000000000000000000000
202012150010001400000000000000015844000000000000000158448000000000023070919249HERRERA JORGE ARMANDO         000000004855621000000000000000000000000000000000000000000000000000000000000000000000000000000000000000000000000000000000PES00010000001000000000000000000000000
202012150010001400000000000000015845000000000000000158458000000000030710776780PETROLERA ANVA SRL            000000003394586000000000000000000000000000000000000000000000000000000000000000000000000000000000000000000000000000000000PES00010000001000000000000000000000000
202012150010001400000000000000015846000000000000000158468000000000030709448931ALTO EL NARANJO SA            000000040404625000000000000000000000000000000000000000000000000000000000000000000000000000000000000000000000000000000000PES00010000001000000000000000000000000
202012150010005200000000000000000369000000000000000003698000000000030709840173TRANSPORTE LURO SA            000000034034000000000000000000000000000000000000000000000000000000000000000000000000000000000000000000000000000000000000PES00010000001000000000000000000000000
202012150060001400000000000000004242000000000000000042428000000000027230204255PAZ SILVIA PATRICIA           000000001236292000000000000000000000000000000000000000000000000000000000000000000000000000000000000000000000000000000000PES00010000001000000000000000000000000
202012150060001400000000000000004243000000000000000042438000000000020171400326CASERES RAMON RENATO          000000009931213000000000000000000000000000000000000000000000000000000000000000000000000000000000000000000000000000000000PES00010000001000000000000000000000000
202012150060001400000000000000004244000000000000000042448000000000020127334154QUIROGA JUAN CARLOS           000000000997927000000000000000000000000000000000000000000000000000000000000000000000000000000000000000000000000000000000PES00010000001000000000000000000000000
202012150060001400000000000000004245000000000000000042458000000000020287904097MATIUZZI ALFREDO              000000000877964000000000000000000000000000000000000000000000000000000000000000000000000000000000000000000000000000000000PES00010000001000000000000000000000000
202012150060001400000000000000004246000000000000000042468000000000020171400326CASERES RAMON RENATO          000000000508678000000000000000000000000000000000000000000000000000000000000000000000000000000000000000000000000000000000PES00010000001000000000000000000000000
202012150060001400000000000000004247000000000000000042478000000000024249268433MAI MARIANA MAGDALENA         000000000507514000000000000000000000000000000000000000000000000000000000000000000000000000000000000000000000000000000000PES00010000001000000000000000000000000
202012150060001400000000000000004248000000000000000042488000000000020297443411LAZARTE CESAR ISIDRO          000000000795160000000000000000000000000000000000000000000000000000000000000000000000000000000000000000000000000000000000PES00010000001000000000000000000000000
202012160010001100000000000000011583000000000000000115838000000000020110747625PEREZ JUAN LUIS               000000017669999000000000000000000000000000000000000000000000000000000000000000000000000000000000000000000000000003394200PES00010000001000000000000000000000000
202012160010001100000000000000011584000000000000000115848000000000020165261624MUDAD FRANCISCO ESTEBAN       000000033250003000000000000000000000000000000000000000000000000000000000000000000000000000000000000000000000000005961000PES00010000001000000000000000000000000
202012160010001100000000000000011585000000000000000115858000000000030626009618EXPRESO RIVADAVIA SRL         000000028559788000000000000000000000000000000000000000000000000000000000000000000000000000000000000000000000000005404600PES00010000001000000000000000000000000
202012160010001400000000000000015847000000000000000158478000000000030708492244LA CORUNA SRL                 000000041409225000000000000000000000000000000000000000000000000000000000000000000000000000000000000000000000000000000000PES00010000001000000000000000000000000
202012160010001400000000000000015848000000000000000158488000000000030505517632VICENTE TRAPANI SA            000000003739735000000000000000000000000000000000000000000000000000000000000000000000000000000000000000000000000000000000PES00010000001000000000000000000000000
202012160010001400000000000000015849000000000000000158498000000000030711733392CARROCERIAS OSCARCITO SRL     000000000375884000000000000000000000000000000000000000000000000000000000000000000000000000000000000000000000000000000000PES00010000001000000000000000000000000
202012160010001400000000000000015850000000000000000158508000000000027060678443CACERES VICTORIA DEL CARMEN   000000004056974000000000000000000000000000000000000000000000000000000000000000000000000000000000000000000000000000000000PES00010000001000000000000000000000000
202012160010001400000000000000015851000000000000000158518000000000030708724560LA ASTURIANA S.R.L            000000006684737000000000000000000000000000000000000000000000000000000000000000000000000000000000000000000000000000000000PES00010000001000000000000000000000000
202012160010001400000000000000015852000000000000000158528000000000020121612217SANTILLI MARCOS RAFAEL        000000005212236000000000000000000000000000000000000000000000000000000000000000000000000000000000000000000000000000000000PES00010000001000000000000000000000000
202012160010001400000000000000015853000000000000000158538000000000027170408980MARTINEZ ZUCCARDI ARIADNA I   000000000508678000000000000000000000000000000000000000000000000000000000000000000000000000000000000000000000000000000000PES00010000001000000000000000000000000
202012160010001400000000000000015854000000000000000158548000000000030708365234GARRO SRL                     000000005165041000000000000000000000000000000000000000000000000000000000000000000000000000000000000000000000000000000000PES00010000001000000000000000000000000
202012160010001400000000000000015855000000000000000158558000000000030712029842FINCA LAS PAJITAS SA          000000036525060000000000000000000000000000000000000000000000000000000000000000000000000000000000000000000000000000000000PES00010000001000000000000000000000000
202012160010001400000000000000015856000000000000000158568000000000027174434471CARBAJAL NORMA GRACIELA       000000001985178000000000000000000000000000000000000000000000000000000000000000000000000000000000000000000000000000000000PES00010000001000000000000000000000000
202012160010001400000000000000015857000000000000000158578000000000030708365234GARRO SRL                     000000003682727000000000000000000000000000000000000000000000000000000000000000000000000000000000000000000000000000000000PES00010000001000000000000000000000000
202012160010001400000000000000015858000000000000000158588000000000030708365234GARRO SRL                     000000003314455000000000000000000000000000000000000000000000000000000000000000000000000000000000000000000000000000000000PES00010000001000000000000000000000000
202012160010001600000000000000000816000000000000000008168000000000030504549328INGECO SA                     000000141535878000000000000000000000000000000000000000000000000000000000000000000000000000000000000000000000000000000000PES00010000001000000000000000000000000
202012160010005100000000000000000316000000000000000003168000000000030708725931MIMILTO SRL                   000000010963925000000000000000000000000000000000000000000000000000000000000000000000000000000000000000000000000000000000PES00010000001000000000000000000000000
202012160010005200000000000000000370000000000000000003708000000000030708725931MIMILTO SRL                   000000004479723000000000000000000000000000000000000000000000000000000000000000000000000000000000000000000000000000000000PES00010000001000000000000000000000000
202012160060001400000000000000004249000000000000000042498000000000020217993696PEREZ SERGIO REYNALDO         000000001087502000000000000000000000000000000000000000000000000000000000000000000000000000000000000000000000000000000000PES00010000001000000000000000000000000
202012160030001100000000000000000559000000000000000005598000000000020110747625PEREZ JUAN LUIS               000000017669999000000000000000000000000000000000000000000000000000000000000000000000000000000000000000000000000003394200PES00010000001000000000000000000000000
202012160030001400000000000000002510000000000000000025108000000000020202185658AHUMADA ROBERTO               000000000299469000000000000000000000000000000000000000000000000000000000000000000000000000000000000000000000000000000000PES00010000001000000000000000000000000
202012160030001400000000000000002511000000000000000025118000000000020202185658AHUMADA ROBERTO               000000000464098000000000000000000000000000000000000000000000000000000000000000000000000000000000000000000000000000000000PES00010000001000000000000000000000000
202012160030001400000000000000002512000000000000000025128000000000020202185658AHUMADA ROBERTO               000000000464098000000000000000000000000000000000000000000000000000000000000000000000000000000000000000000000000000000000PES00010000001000000000000000000000000
202012160030001400000000000000002513000000000000000025138000000000030708365234GARRO SRL                     000000003682727000000000000000000000000000000000000000000000000000000000000000000000000000000000000000000000000000000000PES00010000001000000000000000000000000
202012160030001400000000000000002514000000000000000025148000000000023256326329ECHAZU ANDRES ALBERTO         000000002865096000000000000000000000000000000000000000000000000000000000000000000000000000000000000000000000000000000000PES00010000001000000000000000000000000
202012160030005100000000000000000018000000000000000000188000000000020103417830IBANEZ JOSE FERNANDO          000000003384116000000000000000000000000000000000000000000000000000000000000000000000000000000000000000000000000000000000PES00010000001000000000000000000000000
202012160080001400000000000000000739000000000000000007398000000000027233085044DIAZ MIRTA LILIANA            000000000346273000000000000000000000000000000000000000000000000000000000000000000000000000000000000000000000000000000000PES00010000001000000000000000000000000
202012170010001100000000000000011586000000000000000115868000000000030504549328INGECO SA                     000000012780000000000000000000000000000000000000000000000000000000000000000000000000000000000000000000000000000002384400PES00010000001000000000000000000000000
202012170010001100000000000000011587000000000000000115878000000000030680011199SAGITARIO EXPORTACIONES SRL   000000006650003000000000000000000000000000000000000000000000000000000000000000000000000000000000000000000000000001192200PES00010000001000000000000000000000000
202012170010001100000000000000011588000000000000000115888000000000030708724560LA ASTURIANA S.R.L            000000038339999000000000000000000000000000000000000000000000000000000000000000000000000000000000000000000000000007153200PES00010000001000000000000000000000000
202012170010001100000000000000011589000000000000000115898000000000030710444249PERFOSUELO INGENIERIA SRL     000000026080000000000000000000000000000000000000000000000000000000000000000000000000000000000000000000000000000004768800PES00010000001000000000000000000000000
202012170010001100000000000000011590000000000000000115908000000000030707465049LAPACHO AMARILLO SRL          000000012780000000000000000000000000000000000000000000000000000000000000000000000000000000000000000000000000000002384400PES00010000001000000000000000000000000
202012170010001100000000000000011591000000000000000115918000000000030707465049LAPACHO AMARILLO SRL          000000012780000000000000000000000000000000000000000000000000000000000000000000000000000000000000000000000000000002384400PES00010000001000000000000000000000000
202012170010001400000000000000015859000000000000000158598000000000030712095314ANTAMAPU SA                   000000000466783000000000000000000000000000000000000000000000000000000000000000000000000000000000000000000000000000000000PES00010000001000000000000000000000000
202012170010001400000000000000015860000000000000000158608000000000020248434784VELARDEZ JUAN ANTONIO         000000002361764000000000000000000000000000000000000000000000000000000000000000000000000000000000000000000000000000000000PES00010000001000000000000000000000000
202012170010001400000000000000015861000000000000000158618000000000027060678443CACERES VICTORIA DEL CARMEN   000000004968024000000000000000000000000000000000000000000000000000000000000000000000000000000000000000000000000000000000PES00010000001000000000000000000000000
202012170010001400000000000000015862000000000000000158628000000000030714764310ARIAS DANTE,VICTOR Y WILLIAM S000000006465929000000000000000000000000000000000000000000000000000000000000000000000000000000000000000000000000000000000PES00010000001000000000000000000000000
202012170010001400000000000000015863000000000000000158638000000000027176136168JUAREZ SILVIA MONICA          000000000507526000000000000000000000000000000000000000000000000000000000000000000000000000000000000000000000000000000000PES00010000001000000000000000000000000
202012170010001400000000000000015864000000000000000158648000000000033714563209ALISOS SRL                    000000000375884000000000000000000000000000000000000000000000000000000000000000000000000000000000000000000000000000000000PES00010000001000000000000000000000000
202012170010001400000000000000015865000000000000000158658000000000020367127326PAZ JORGE EXEQUIEL            000000000795160000000000000000000000000000000000000000000000000000000000000000000000000000000000000000000000000000000000PES00010000001000000000000000000000000
202012170010001400000000000000015866000000000000000158668000000000030709628255PACTA SRL                     000000003976469000000000000000000000000000000000000000000000000000000000000000000000000000000000000000000000000000000000PES00010000001000000000000000000000000
202012170010001400000000000000015867000000000000000158678000000000030637914339ASOC COOP EXP LEALES INTA     000000000751773000000000000000000000000000000000000000000000000000000000000000000000000000000000000000000000000000000000PES00010000001000000000000000000000000
202012170010005200000000000000000371000000000000000003718000000000030639227096INTRA S.R.L.                  000000134642008000000000000000000000000000000000000000000000000000000000000000000000000000000000000000000000000000000000PES00010000001000000000000000000000000
202012170010020000000000000000000083000000000000000000838000000000030515488479YPF GAS SA                    000000067091394000000000000000000000000000000000000000000000000000000000000000000000000000000000000000000000000000000000PES00010000001000000000000000000000000
202012170060001400000000000000004250000000000000000042508000000000027217998226CASTRO MARIA ROSA             000000004539061000000000000000000000000000000000000000000000000000000000000000000000000000000000000000000000000000000000PES00010000001000000000000000000000000
202012170060001400000000000000004251000000000000000042518000000000020255437861FRIAS JOSE LUIS               000000000734700000000000000000000000000000000000000000000000000000000000000000000000000000000000000000000000000000000000PES00010000001000000000000000000000000
202012170060001400000000000000004252000000000000000042528000000000020255437861FRIAS JOSE LUIS               000000003144018000000000000000000000000000000000000000000000000000000000000000000000000000000000000000000000000000000000PES00010000001000000000000000000000000
202012170030001400000000000000002515000000000000000025158000000000023203350899NEMER JOSE ANGEL              000000000890502000000000000000000000000000000000000000000000000000000000000000000000000000000000000000000000000000000000PES00010000001000000000000000000000000
202012170030001400000000000000002516000000000000000025168000000000023142250829RODRIGUEZ CARLOS DANIEL       000000001357822000000000000000000000000000000000000000000000000000000000000000000000000000000000000000000000000000000000PES00010000001000000000000000000000000
202012170030001400000000000000002517000000000000000025178000000000023142250829RODRIGUEZ CARLOS DANIEL       000000001521154000000000000000000000000000000000000000000000000000000000000000000000000000000000000000000000000000000000PES00010000001000000000000000000000000
202012170030001400000000000000002518000000000000000025188000000000020263850980CHAYA SEBASTIAN ENRIQUE       000000000090295000000000000000000000000000000000000000000000000000000000000000000000000000000000000000000000000000000000PES00010000001000000000000000000000000
202012170030001400000000000000002519000000000000000025198000000000030716980037DISTRITUCUMAN GEREZ HIJOS SAS 000000003449629000000000000000000000000000000000000000000000000000000000000000000000000000000000000000000000000000000000PES00010000001000000000000000000000000
202012170030001400000000000000002520000000000000000025208000000000030708995327EL BAYO SERVICIOS AGROPECUARIO000000002127434000000000000000000000000000000000000000000000000000000000000000000000000000000000000000000000000000000000PES00010000001000000000000000000000000
202012170030001400000000000000002521000000000000000025218000000000020128319876IBANEZ MIGUEL ANTONIO         000000000281959000000000000000000000000000000000000000000000000000000000000000000000000000000000000000000000000000000000PES00010000001000000000000000000000000
202012170080001400000000000000000740000000000000000007408000000000020384904972ROMANO LEAL JAVIER ALFREDO    000000001020549000000000000000000000000000000000000000000000000000000000000000000000000000000000000000000000000000000000PES00010000001000000000000000000000000
202012180010001100000000000000011592000000000000000115928000000000027123923532SOLDATI BEATRIZ DEL VALLE     000000007154998000000000000000000000000000000000000000000000000000000000000000000000000000000000000000000000000001180300PES00010000001000000000000000000000000
202012180010001100000000000000011593000000000000000115938000000000030708067837AGRICOLA DE LEALES SC         000000025560000000000000000000000000000000000000000000000000000000000000000000000000000000000000000000000000000004768800PES00010000001000000000000000000000000
202012180010001100000000000000011594000000000000000115948000000000020165261624MUDAD FRANCISCO ESTEBAN       000000033250003000000000000000000000000000000000000000000000000000000000000000000000000000000000000000000000000005961000PES00010000001000000000000000000000000
202012180010001100000000000000011595000000000000000115958000000000020938619507MEDICI PEDRO FERRUCCIO        000000006650003000000000000000000000000000000000000000000000000000000000000000000000000000000000000000000000000001192200PES00010000001000000000000000000000000
202012180010001100000000000000011596000000000000000115968000000000030709704016SALSENCH SRL                  000000026325000000000000000000000000000000000000000000000000000000000000000000000000000000000000000000000000000004756900PES00010000001000000000000000000000000
202012180010001100000000000000011597000000000000000115978000000000020278432840ALMONACID JOSE LEONARDO       000000009779999000000000000000000000000000000000000000000000000000000000000000000000000000000000000000000000000001788300PES00010000001000000000000000000000000
202012180010001100000000000000011598000000000000000115988000000000033708668759ACHERAL S.A.                  000000015975001000000000000000000000000000000000000000000000000000000000000000000000000000000000000000000000000002980500PES00010000001000000000000000000000000
202012180010001100000000000000011599000000000000000115998000000000030708724560LA ASTURIANA S.R.L            000000019169997000000000000000000000000000000000000000000000000000000000000000000000000000000000000000000000000003576600PES00010000001000000000000000000000000
202012180010001100000000000000011600000000000000000116008000000000030626009618EXPRESO RIVADAVIA SRL         000000036024030000000000000000000000000000000000000000000000000000000000000000000000000000000000000000000000000006817119PES00010000001000000000000000000000000
202012180010001100000000000000011601000000000000000116018000000000030716121123DOSA SRL                      000000019559997000000000000000000000000000000000000000000000000000000000000000000000000000000000000000000000000003576600PES00010000001000000000000000000000000
202012180010001100000000000000011602000000000000000116028000000000030716246279JULIANY SAS                   000000021464999000000000000000000000000000000000000000000000000000000000000000000000000000000000000000000000000003540900PES00010000001000000000000000000000000
202012180010001100000000000000011603000000000000000116038000000000030626009618EXPRESO RIVADAVIA SRL         000000023999846000000000000000000000000000000000000000000000000000000000000000000000000000000000000000000000000004541686PES00010000001000000000000000000000000
202012180010001100000000000000011604000000000000000116048000000000030711152985TRAPCA S.R.L.                 000000077099998000000000000000000000000000000000000000000000000000000000000000000000000000000000000000000000000014282600PES00010000001000000000000000000000000
202012180010001400000000000000015868000000000000000158688000000000020296739554MUHIC GIANNI MIRKO            000000018680954000000000000000000000000000000000000000000000000000000000000000000000000000000000000000000000000000000000PES00010000001000000000000000000000000
202012180010001400000000000000015869000000000000000158698000000000030620919922RF y J BUDEGUER SRL           000000009659159000000000000000000000000000000000000000000000000000000000000000000000000000000000000000000000000000000000PES00010000001000000000000000000000000
202012180010001400000000000000015870000000000000000158708000000000020265849041CUEVA MARCELO OMAR            000000008310522000000000000000000000000000000000000000000000000000000000000000000000000000000000000000000000000000000000PES00010000001000000000000000000000000
202012180010001400000000000000015871000000000000000158718000000000020110747625PEREZ JUAN LUIS               000000005331358000000000000000000000000000000000000000000000000000000000000000000000000000000000000000000000000000000000PES00010000001000000000000000000000000
202012180010001400000000000000015872000000000000000158728000000000030709874736COMPANIA CEMENTERA LULES SRL  000000017544816000000000000000000000000000000000000000000000000000000000000000000000000000000000000000000000000000000000PES00010000001000000000000000000000000
202012180010001400000000000000015873000000000000000158738000000000023119096669VILLAFANE LUIS ANTONIO       L000000000873799000000000000000000000000000000000000000000000000000000000000000000000000000000000000000000000000000000000PES00010000001000000000000000000000000
202012180010001400000000000000015874000000000000000158748000000000030708150823AGROCULTIVOS SRL              000000000870007000000000000000000000000000000000000000000000000000000000000000000000000000000000000000000000000000000000PES00010000001000000000000000000000000
202012180010001400000000000000015875000000000000000158758000000000030707711155YELLOW CAB                    000000009678888000000000000000000000000000000000000000000000000000000000000000000000000000000000000000000000000000000000PES00010000001000000000000000000000000
202012180010001400000000000000015876000000000000000158768000000000023111033919CHIVILISCO HECTOR SALVADOR    000000004155261000000000000000000000000000000000000000000000000000000000000000000000000000000000000000000000000000000000PES00010000001000000000000000000000000
202012180010001400000000000000015877000000000000000158778000000000030712272542OLGA ZOTTOLA DE SIMONETO E HIJ000000003583248000000000000000000000000000000000000000000000000000000000000000000000000000000000000000000000000000000000PES00010000001000000000000000000000000
202012180010001400000000000000015878000000000000000158788000000000030712272542OLGA ZOTTOLA DE SIMONETO E HIJ000000002525766000000000000000000000000000000000000000000000000000000000000000000000000000000000000000000000000000000000PES00010000001000000000000000000000000
202012180010001400000000000000015879000000000000000158798000000000020259228450FONTDEVILA CARLOS JOSE        000000000722145000000000000000000000000000000000000000000000000000000000000000000000000000000000000000000000000000000000PES00010000001000000000000000000000000
202012180010001400000000000000015880000000000000000158808000000000030707465049LAPACHO AMARILLO SRL          000000066552604000000000000000000000000000000000000000000000000000000000000000000000000000000000000000000000000000000000PES00010000001000000000000000000000000
202012180010001600000000000000000817000000000000000008178000000000023119096669VILLAFANE LUIS ANTONIO       L000000000959628000000000000000000000000000000000000000000000000000000000000000000000000000000000000000000000000000000000PES00010000001000000000000000000000000
202012180010001600000000000000000818000000000000000008188000000000030714372153SOLANO SA                     000000006115138000000000000000000000000000000000000000000000000000000000000000000000000000000000000000000000000000000000PES00010000001000000000000000000000000
202012180010005100000000000000000317000000000000000003178000000000030708067837AGRICOLA DE LEALES SC         000000001624161000000000000000000000000000000000000000000000000000000000000000000000000000000000000000000000000000000000PES00010000001000000000000000000000000
202012180010005100000000000000000318000000000000000003188000000000030675415087CIA AZUCARERA LOS BALCANES SA 000000014474101000000000000000000000000000000000000000000000000000000000000000000000000000000000000000000000000000000000PES00010000001000000000000000000000000
202012180010005100000000000000000319000000000000000003198000000000027176136168JUAREZ SILVIA MONICA          000000007362314000000000000000000000000000000000000000000000000000000000000000000000000000000000000000000000000000000000PES00010000001000000000000000000000000
202012180010005100000000000000000320000000000000000003208000000000030716246279JULIANY SAS                   000000016025240000000000000000000000000000000000000000000000000000000000000000000000000000000000000000000000000000000000PES00010000001000000000000000000000000
202012180010005200000000000000000372000000000000000003728000000000030708067837AGRICOLA DE LEALES SC         000000001215458000000000000000000000000000000000000000000000000000000000000000000000000000000000000000000000000000000000PES00010000001000000000000000000000000
202012180060001400000000000000004253000000000000000042538000000000020417723901ROUGES JOSE IGNACIO           000000000921887000000000000000000000000000000000000000000000000000000000000000000000000000000000000000000000000000000000PES00010000001000000000000000000000000
202012180060001400000000000000004254000000000000000042548000000000024249268433MAI MARIANA MAGDALENA         000000000442359000000000000000000000000000000000000000000000000000000000000000000000000000000000000000000000000000000000PES00010000001000000000000000000000000
202012180060001400000000000000004255000000000000000042558000000000020222334765ONTIVEROS GUSTAVO             000000011560795000000000000000000000000000000000000000000000000000000000000000000000000000000000000000000000000000000000PES00010000001000000000000000000000000
202012180030001100000000000000000560000000000000000005608000000000030708724560LA ASTURIANA S.R.L            000000038339999000000000000000000000000000000000000000000000000000000000000000000000000000000000000000000000000007153200PES00010000001000000000000000000000000
202012180030001400000000000000002522000000000000000025228000000000033711620449MARTIN FORMOSO INGENIERIA SRL 000000000389799000000000000000000000000000000000000000000000000000000000000000000000000000000000000000000000000000000000PES00010000001000000000000000000000000
